:100000000C9479000C94DB1B0C9496000C943B1818
:100010000C9496000C948F180C9496000C946A0C17
:100020000C9496000C9496000C9496000C949600F8
:100030000C9496000C9496000C9496000C949600E8
:100040000C94B8070C9496000C9496000C949600AF
:100050000C9496000C94DB020C9496000C9469139B
:100060000C9496000C949600FA3E1A7ADE8EF62EC8
:100070006078AE1CAA2A3ACEF30AB61E3838B86E9B
:1000800076DA6800FC60DAF266B6BEE0FEF684005E
:100090000E620E200E400C600462086290008080A8
:1000A0008000400020001000101000100008000424
:1000B00000809E00C080C2004202020A001A10188E
:1000C000301032002202020600868084B400040050
:1000D00002000800002000020040CE0003070809CB
:1000E000060A050C04DC000B10120F0D0E1113E7AD
:1000F000000011241FBECFEFD4E0DEBFCDBF13E060
:10010000A0E0B1E0E8E9FCE302C005900D92A63959
:10011000B107D9F714E0A6E9B3E001C01D92AC37EE
:10012000B107E1F70E94E5190C944A1E0C940000F7
:100130009C0178941092AE031092AD038091AD03B0
:100140009091AE0382179307C8F30895EF92FF9240
:100150000F931F937B018C0120ED37E040E050E0CE
:100160000E94741D611571058105910519F461E006
:1001700070E01CC0603020E0720721E0820720E0C0
:100180009207A0F0C801B7012AE030E040E050E05B
:100190000E94741D88EC90E005C0FC013197F1F7D6
:1001A0006150704061157105C1F703C0CB01019723
:1001B000F1F71F910F91FF90EF9008950197F1F7DC
:1001C0000895A895089581E080939D035B9A8CB56E
:1001D0008F7B8CBD85B1877D85B95E9815BC1092EB
:1001E000510410926800459885B1897F85B98BB11B
:1001F0008F7C8BB928988AB18F7C8AB920985A98BD
:100200005298E1E6F0E090E8908388E08083449A99
:1002100083B7876083BF8895908310824498089540
:100220008EE284B988E48AB989E087B984E38BB91E
:1002300091E095B985E08093680090936B0080E32E
:1002400080936D000895CF93DF93109254048091B2
:100250003C048E3419F41092550403C082E080935C
:100260005504ABE4B4E0C6E5D4E0ED91E053F0E032
:10027000EC57FF4FE491E99384E0A135B807A9F763
:1002800080915904816080935904DF91CF91089542
:10029000CF93DF9380913A04853419F4109254047B
:1002A00003C082E080935404ADE3B4E0C5E5D4E03C
:1002B000ED91E053F0E0EC57FF4FE491E99384E0D7
:1002C000A434B807A9F78091590481608093590438
:1002D000DF91CF910895CF93DF93362F3150C32F05
:1002E000DD27C7FDD095C80FD11DCD5ADB4F252F77
:1002F00016C0842F922F6AE070E00E94AC1DE82F98
:10030000F0E0EC57FF4FE491E883842F922F6AE0EE
:1003100070E00E94AC1D462F272F3150219737FFE8
:10032000E8CFDF91CF910895A82F262FE82FF0E096
:1003300067FF06C0ED5AFB4F82E08083219503C022
:10034000ED5AFB4F1082B0E0822F6AE00E949F1DA1
:10035000E82FF0E0EC57FF4FE491AD5ABB4FE42B90
:100360001196EC931197822F6AE00E949F1DE92F4E
:10037000F0E0EC57FF4FE491E42B1296EC930895D4
:100380000F931F93CF93DF938B01282F30E0CB0186
:100390006AE070E00E94C01DC4E8D0E0FE01E60FF4
:1003A000F11DE4912D5A3B4FE42BD901EC93C80188
:1003B0006AE070E00E94C01DC80FD11DFE0184914B
:1003C000842BD90111968C93DF91CF911F910F91BE
:1003D0000895A82FB0E0CD018C579F4FFC01849168
:1003E000816080935804AF59BC4F6C9187E070E0F6
:1003F00041E00E94C0010895FC0183709070892B38
:1004000039F4CF0164E670E00E94AC1D892B49F4F9
:1004100020E030E0CF0160E971E00E94AC1D892B43
:1004200011F421E030E0822F0895109280001092A4
:100430008100299A2A9878941092AE031092AD0305
:100440008091AD039091AE030A97D0F32A9A299830
:1004500078941092AE031092AD038091AD03909109
:10046000AE030A97D0F385B1897F85B982EB80937B
:10047000800088E1809381000895DF92EF92FF92DF
:100480000F931F93D62E8A019C0140E050E060E458
:1004900072E48FE090E00E94F51D30938700209376
:1004A000860080918600909187009695879590931D
:1004B0008B0080938A0080918A0090918B009093AA
:1004C000890080938800780100E010E016C08091D8
:1004D0008100826080938100C801B7010E94A6005C
:1004E000809181008D7F8093810085B1897F85B95E
:1004F000C801B7010E94A600DA94DD2041F785B15A
:10050000897F85B91F910F91FF90EF90DF9008953B
:1005100044E650E00E943D0208953D9A459AAAE7BC
:10052000B0E08C9186608C93ECE7F0E08081806491
:100530008083808184608083EEE7F0E08081806149
:1005400080838C9180688C938C9188608C930895C3
:1005500080919903813029F480917A00806480939E
:100560007A000895982F80916704882329F080915C
:10057000770480FD0DC002C09B3510F09AE503C0E2
:100580009A3008F49AE087B5891721F097BD08954D
:1005900092E3F9CF08950E94B20283E084BD81E026
:1005A00085BD84B5806884BDEEE6F0E08081816021
:1005B0008083789408951F920F920FB60F921124A2
:1005C0001F932F933F934F935F936F937F938F93DB
:1005D0009F93AF93BF93EF93FF93809199038130E3
:1005E00009F03FC03091780020917900922F80E08F
:1005F000632F70E0682B792B709369046093680413
:1006000083E0623F780718F08091520405C0653698
:10061000710520F48091750490E01DC0109175045F
:1006200020917504E09152046456704080E090E09F
:1006300030E02E1B3109442737FD4095542F0E948E
:10064000741D2EE833E040E050E00E94D31D812F5E
:1006500090E0821B930B90936404809363040E9448
:10066000B202FF91EF91BF91AF919F918F917F91D6
:100670006F915F914F913F912F911F910F900FBEFE
:100680000F901F9018951F93182F87E0612F70E02F
:1006900041E00E94C001812F0E94B2021F91089583
:1006A000CF93DF93C62FD0E0E82FF0E0E053F84F70
:1006B000C330D10510F42C963197242F30E02F5FF2
:1006C0003F4F2E0F3F1FCE01880F991F280F391F54
:1006D000CF019695879596958795280F391FCF015D
:1006E00060E971E00E94AC1D260F371FCF0164E660
:1006F00070E00E94AC1D261B370BAE014F5F5F4FB1
:10070000CA01880F991F840F951F880F991F6AE0EF
:1007100070E00E94AC1DC901860F971F67E070E072
:100720000E94AC1D8F5FDF91CF910895E4E8F0E067
:10073000E80FF11DE4918E2F0895E82FF0E0E95FB6
:10074000FF4FE4918E2F08950F931F93182F062FBC
:1007500080916A04882309F07EC080919A038330D7
:1007600009F442C0843028F4813069F08230F0F41A
:1007700072C0853008F475C0873008F448C08930ED
:1007800008F06FC05CC0842F66E00E94931D892F23
:1007900090E0880F991FFC01EF56FF4FE491E09322
:1007A0005A0480579F4FFC01949146C0842F6AE001
:1007B0000E94931D292F30E0220F331FC90181565B
:1007C0009F4FFC01949190935A0422563F4FF90198
:1007D000849180935B0440FF44C0926090935A04DC
:1007E000826080935B043DC0842F6CE00E94931D67
:1007F000892F90E0880F991FFC01EB54FF4FE49183
:10080000E0935A048C549F4FFC01949115C01C3006
:1008100018F4E8E6F0E002C0E7E7F0E0E491E093E6
:100820005A04E4E7F0E0949190935B0480919A037A
:100830008630B9F44170942B90935B0412C01092EF
:100840005A0410925B0480919A03883051F44170ED
:1008500040935B0406C087E0642F70E040E00E9494
:10086000C0011092590484E0602F70E040E00E94C3
:10087000C0011092560480919803882369F5812F56
:1008800090E00B966CE070E00E94C01D9C01019608
:100890006AE070E00E94C01DE82FF0E0EC57FF4FC7
:1008A000E491E0935504265F3F4F2331310518F45E
:1008B0001092540405C0E5E8F0E0E491E09354049C
:1008C0001C3020F080915304816003C08091530458
:1008D0008E7F8093530406C081E0612F70E040E07A
:1008E0000E94C0011F910F9108951F93182F10921D
:1008F0005B0410925A041092590484E070E040E0C6
:100900000E94C0011092560480919803882309F038
:100910003EC01C3058F08091530481608093530492
:10092000E7E7F0E0E491E0935A040AC0E8E6F0E07B
:10093000E491E0935A04809153048E7F8093530492
:10094000E4E7F0E0E491E0935B04812F90E00B9604
:100950006CE070E00E94C01D9C0101966AE070E0AE
:100960000E94C01DE82FF0E0EC57FF4FE491E093A8
:100970005504265F3F4F2331310518F4109254047B
:1009800014C0E5E8F0E0E491E09354040EC0812F38
:1009900090E0479668E170E00E94C01DBC016F5F67
:1009A0007F4F81E040E00E94C0011F9108951F9396
:1009B000182FEAE6F0E0849180935B0471968491AD
:1009C00080935A043196E491E093590484E070E0F6
:1009D00040E00E94C00110925604612F772767FD06
:1009E000709577FF03C0709561957F4F81E040E07F
:1009F0000E94C00117FD04C0809153048D7F03C085
:100A0000809153048260809353041F910895CF9383
:100A1000DF9310925304EC01A4E5B4E0E881EE23E7
:100A2000D9F08E2F81568A3128F4F0E0E95FFF4F2C
:100A3000E49109C08E2F80538A3038F4E82FF0E01B
:100A4000EC57FF4FE491EC9301C01C922196119654
:100A500084E0AC35B80711F7DF91CF910895882372
:100A600059F51092530482E0809356048093590400
:100A700080919803882351F460915E0381E070E0D7
:100A800040E00E94C00160915F0309C060915F0374
:100A900081E070E040E00E94C00160915E0384E06C
:100AA00070E040E00E94C0016091600387E070E068
:100AB00040E00E94C0010895813009F0ADC010925D
:100AC0005A0410925B048091600360915E03409130
:100AD0005F030E9450038430C9F0853038F48230BF
:100AE00079F0833080F48130F1F407C08630A1F0D2
:100AF000863078F08730B9F412C080E091E011C000
:100B000087E091E00EC08EE091E00BC086E191E0BD
:100B100008C08FE191E005C088E291E002C08FE259
:100B200091E00E94070578941092AE031092AD03F5
:100B30008091AD039091AE03885E9340C8F310920C
:100B40005704109258041092590480915E03863025
:100B500079F1873070F4833011F1843028F48130DA
:100B6000C1F08230D9F518C08430E1F08530B1F59C
:100B70001CC0893031F18A3028F48730E1F08830A8
:100B800069F51CC08B3019F18B30F0F08C3031F5E9
:100B900021C088E391E020C08CE391E01DC080E497
:100BA00091E01AC086E491E017C08CE491E014C093
:100BB00080E591E011C085E591E00EC08AE591E005
:100BC0000BC080E691E008C085E691E005C08BE6A9
:100BD00091E002C081E791E00E94070560915F0308
:100BE00087E070E040E00E94C00178941092AE036C
:100BF0001092AD038091AD039091AE03885E934057
:100C0000C8F387E791E00E9407056091600384E0E4
:100C100070E040E00E94C00108954A9B3EC0809170
:100C20005E04882309F051C081E080935E04109235
:100C3000AC031092AB0380919E03882309F445C056
:100C400080916A04882309F040C080E891E00E9406
:100C5000070583E680936A0478941092AE0310929D
:100C6000AD038091AD039091AE038C5D9540C8F3C8
:100C70008091600460913B040E9475047894109206
:100C8000AE031092AD038091AD039091AE038C5DE5
:100C90009540C8F310926A04089580915E048823F9
:100CA000A1F010925E041092AC031092AB038091FD
:100CB0006704882351F010926704809181008D7F32
:100CC0008093810085B1866085B9089580919A03EB
:100CD000843001F1853048F4813099F0813070F032
:100CE000823091F08330A1F512C08630C9F0863091
:100CF000A0F08730F9F0883059F521C089E891E0FB
:100D00001BC082E991E018C08BE991E015C084EA2C
:100D100091E012C08DEA91E00FC086EB91E00CC02B
:100D20008FEB91E00E94070580915A0481608093C7
:100D30005A04089588EC91E00E940705089581ED1A
:100D400091E00E94070580915904816080935904C5
:100D5000089580919803882319F48AED91E002C0E8
:100D600083EE91E00E940705089580915104882345
:100D700051F08CEE91E00E94070580915B04816048
:100D800080935B0404C085EF91E00E940705809189
:100D90005804816080935804809159048160809345
:100DA000590480915A04816080935A040895809177
:100DB0005F04813219F48EEF91E009C080915F04E5
:100DC000813019F487E092E002C080E192E00E9455
:100DD0000705089580919903813019F489E192E023
:100DE00002C082E292E00E94070508958091A30369
:100DF000813019F48BE292E002C084E392E00E9419
:100E0000070508958091A603882319F08DE392E0E9
:100E100002C086E492E00E94070508951F938AE0CD
:100E20008093B3031AE08091B00380FD1DC08091D0
:100E3000B003882321F48091B103882319F0109323
:100E4000B30307C08091B303882319F410926A0496
:100E50000BC08091B00381FFE6CF1092B00386E50E
:100E600093E00E940705DFCF1F91089581E58CBDB7
:100E700008959B01AC01F894CA01AA27BB278EBD37
:100E80000DB407FEFDCFBB27A52F942F832F8EBD5A
:100E90000DB407FEFDCF2EBD0DB407FEFDCF409A69
:100EA000409878940895AF92BF92CF92DF92EF92DC
:100EB000FF920F931F9390917D03981708F4892F49
:100EC000E82FF0E0DF01AD5ABB4F2C91E452FF4F09
:100ED000E49181E090E002C0880F991FEA95E2F763
:100EE0007C010027F7FC0095102F4091B50350912D
:100EF000B6036091B7037091B803A0E0B0E030E0B2
:100F0000E1E0AE2EB12CC12CD12CC9010A2E02C0B9
:100F1000959587950A94E2F780FF11C0FD01E9518C
:100F2000FF4FE491B601A50104C0440F551F661F91
:100F3000771FEA95D2F7E42AF52A062B172B11968C
:100F4000A830B10511F74093B5035093B6036093F1
:100F5000B7037093B803C801B7010E9439071F9106
:100F60000F91FF90EF90DF90CF90BF90AF900895DA
:100F70001F920F920FB60F9211242F933F934F930E
:100F80005F936F937F938F939F93AF93BF93EF93F1
:100F9000FF937894A8958091A7039091A803019658
:100FA0009093A8038093A703829708F418C1109226
:100FB000A8031092A7038091AD039091AE03019610
:100FC0009093AE038093AD038091A5030E945307D5
:100FD0002091A5032F5F2093A5034091A60330E045
:100FE00080917D0390E0840F911D8217930714F484
:100FF0001092A50380919A03843041F580916A0490
:10100000882321F580919B038F5F80939B03873911
:10101000E8F010929B038091AD039091AE0367EAD4
:1010200070E00E94AC1DCB0166E070E00E94AC1D38
:10103000880F991FFC01E153FF4FE491E0935A049C
:1010400082539F4FFC01849180935B0480916704DD
:10105000882309F4C4C08091AB039091AC03892B21
:1010600009F0BDC08091A9039091AA0301969093C5
:10107000AA038093A9038B35910508F4B0C01092A0
:10108000AA031092A90380916C0490916D040196BB
:1010900090936D0480936C0480916C0490916D0426
:1010A0008155964470F0109267041092AC03109230
:1010B000AB03809181008D7F8093810085B1866034
:1010C00085B98091650490916604019690936604B9
:1010D00080936504209165043091660480917804C2
:1010E000909179048217930750F51092660410923C
:1010F0006504809165049091660490937B048093CD
:101100007A048091780490917904459748F0809111
:1011100078049091790444979093790480937804AB
:101120008091610490916204449748F48091610435
:10113000909162040296909362048093610480917E
:101140007A0490917B04019690937B0480937A04B7
:1011500020917A0430917B04809161049091620423
:1011600082179307E0F180917A0490917B049C01AF
:10117000220F331F280F391F220F331F220F331F57
:1011800024553E4F40E050E060E472E48FE090E090
:101190000E94F51D30938700209386008091860081
:1011A000909187009695879590938B0080938A0005
:1011B00080918A0090918B009093890080938800A1
:1011C00080917A0490917B0480FF04C0809181001B
:1011D000826003C0809181008D7F80938100FF91A8
:1011E000EF91BF91AF919F918F917F916F915F919F
:1011F0004F913F912F910F900FBE0F901F90189518
:101200008EBD0DB407FEFDCF08958091C00080789B
:101210000895FC015381505182814AE0849FC001AE
:101220001124580F7481658130917C032091A103B2
:10123000230F20518181280F8081849FC0011124B8
:10124000280F209339048091A40337FF02C0581B54
:1012500001C0580F50935D0460518AE0789FC0012F
:101260001124680F6093770481E080939E030895B2
:10127000FC014181405180815AE0859FC0011124C9
:10128000480F338130518281859FC0011124380F6E
:10129000258120518481859FC0011124280F40930E
:1012A0005F0330935E032093600381E080939F038C
:1012B000089581E0809367041092AC031092AB0311
:1012C00088EC90E0909379048093780410926604FF
:1012D0001092650482E090E0909362048093610430
:1012E00010926D0410926C0480916C0490916D04C6
:1012F0009093AA038093A9030895982F80915E0488
:10130000882361F080916004891741F480913B0447
:10131000861721F4442311F40E9459090895CF92AD
:10132000DF92EF92FF920F931F93782FE62FF22E0A
:10133000C02EDE2CF0E0EE0FFF1FE458FC4F808142
:101340009181840F911D8C0120E030E0472F50E007
:10135000CA0183709070892B31F4872F64E60E9454
:10136000931D992339F4CA0160E971E00E94C01D00
:10137000892B21F40F5F1F4F2F4F3F4FC901B80139
:1013800020E831E541E050E00E94741D4F2D50E00F
:1013900020E13EE0429F7001439FF00C529FF00C11
:1013A00011240027F7FC0095102FED0CF11C011DF6
:1013B000111D2CE3C29E90011124442737FD409556
:1013C000542FE20EF31E041F151FE60EF71E081F12
:1013D000191FB701C8011F910F91FF90EF90DF9087
:1013E000CF900895DF92EF92FF920F931F93182FE3
:1013F000062FF42ED22EE82FF0E0EE0FFF1FE45858
:10140000FC4FE0808091600390E083709070892BA6
:1014100019F4123009F4E39480916003612F41E0E4
:101420000E945003081718F0602F681B03C0602F3C
:10143000681B695F87E0F89EC0011124482F465061
:10144000460F01C04750E416E8F380916003612F16
:101450002D2D00E0EE240E948F091F910F91FF9027
:10146000EF90DF9008955F926F927F928F929F929C
:10147000AF92BF92CF92DF92EF92FF920F931F93A2
:10148000FC0114810581F680E780508480816181B0
:10149000428123810E94F2095B016C01812F602F40
:1014A0004F2D2E2D0E94F2093B014C0180916003CB
:1014B00060915E0340915F032091390400915D04C7
:1014C000E09077040E948F096A157B058C059D05C5
:1014D000ACF0661577058805990584F48091A10321
:1014E000882341F580916B04813021F510926B04C3
:1014F0005092A10380913904850D0FC08091A10302
:101500001816C4F480916B048130A1F410926B041E
:101510001092A103809139048519809339048DE1DB
:1015200090E0652D0E943C1E6091390484E090E0BB
:101530000E943C1E1F910F91FF90EF90DF90CF9083
:10154000BF90AF909F908F907F906F905F90089525
:10155000809177048C3354F0809177048C5380937E
:10156000770480915D048F5F80935D0480917704A0
:1015700087FF0AC080917704845C80937704809110
:101580005D04815080935D0480915D048C3354F040
:1015900080915D048C5380935D04809139048F5F4A
:1015A0008093390480915D0487FF0AC080915D04B7
:1015B000845C80935D048091390481508093390468
:1015C000809177048823A1F480915D04882381F4BD
:1015D0008091A303882361F46091390484E090E052
:1015E0000E943C1E60915D0485E090E00E943C1EDC
:1015F00080913904883184F0809139048851809336
:10160000390480915F038F5F80935F0360915F0374
:1016100083E090E00E943C1E8091390487FF10C057
:1016200080913904885E8093390480915F038150F2
:1016300080935F0360915F0383E090E00E943C1E13
:1016400080915F03803268F580915F038F3181F470
:1016500080915E03843029F180915E03863009F128
:1016600080915E038930E9F080915E038B30C9F090
:1016700080915F038E3121F480915E03823089F086
:1016800080915F038D31D9F480915E038230B9F48B
:101690008091600390E08053984F0E94FC01882362
:1016A00071F481E080935F0380915E038F5F80938C
:1016B0005E0360915E0382E090E00E943C1E809198
:1016C0005F03882309F047C080915E038630D1F024
:1016D000873060F4833029F1843018F4813090F140
:1016E00011C0843079F0853069F510C08A3018F463
:1016F000883040F40BC08B3029F08B3038F08C30C0
:1017000009F504C080915F03815E03C080915F038F
:10171000825E80935F0380915E03815080935E03BD
:1017200014C08091600390E08053984F0E94FC01A8
:10173000882321F080915F03835EEBCF80915F036C
:10174000845EE7CF81E080935F0360915E0382E077
:1017500090E00E943C1E80915E038D3070F080917D
:1017600060038F5F8093600381E080935E036091EC
:10177000600381E090E00E943C1E80915E0388231C
:10178000B1F480915E03845F80935E038091600377
:101790008150809360036091600381E090E00E943B
:1017A0003C1E60915E0382E090E00E943C1E8091AE
:1017B00077048823E9F480915F04813229F481E67B
:1017C00093E00E94330A09C080915F04813019F4CC
:1017D0008093A10302C01092A10380915D0488232D
:1017E00039F480913904882319F481E080936B04E3
:1017F00008951F93CF93DF938091A003882309F46A
:1018000065C08091490490E0805192402091480445
:101810004AE0249F90011124820F931F0B970CF430
:1018200055C02091390480915D041CE32102E00140
:101830001124992787FD9095C80FD91F8EE694E053
:101840000E94090984E494E00E9438090E94A80AD1
:101850002091390480915D042102A001112499276F
:1018600087FD9095480F591F8091600490913B042B
:10187000819FB0011124690F711D4C175D07D0F4D1
:10188000FA01E056FA4FEC17FD07A0F0CA018C1BD5
:101890009D0B9C0120563A4F37FF03C03095219590
:1018A0003F4F97FF03C0909581959F4F28173907A9
:1018B0000CF4AF01C617D70748F44617570730F0A6
:1018C00080915E04882311F00E945909DF91CF9125
:1018D0001F9108951F920F920FB60F9211242F930C
:1018E0003F934F935F936F937F938F939F93AF93A8
:1018F000BF93EF93FF9380E88093610010926100A3
:10190000809177048F5F809377040E94A80A80916A
:101910005D048823B9F480917704882321F48091B1
:10192000B403815805C080917704813019F48FE7A2
:101930008093B30080917704823024F48091B600C4
:1019400083FDFCCF80919D03882309F06BC08091BB
:101950006A04882311F580919E03882349F48091BD
:10196000770480FF05C08FE492E00E94070508C05D
:101970008091390460915D04409177040E94A40332
:1019800080915E04882321F080915304826003C01B
:10199000809153048D7F8093530480919E0388230C
:1019A00041F08091390460915D04409177040E9478
:1019B0007D0980919903813029F480917A008064B7
:1019C00080937A008091B303882329F08091B30338
:1019D00081508093B3038091B203882329F08091D2
:1019E000B20381508093B2038091AB039091AC031A
:1019F0000097C1F09C01215030403093AC032093FC
:101A0000AB0320FF06C0809153048260809353048F
:101A100009C0809153048D7F80935304232B11F4CC
:101A20000E945909FF91EF91BF91AF919F918F91C2
:101A30007F916F915F914F913F912F910F900FBECA
:101A40000F901F9018950F931F938AE08093B30314
:101A500010E00AE08091B003882321F48091B10363
:101A6000882319F00093B30304C08091B303882343
:101A7000B1F08091B00380FD41C08091B00381FF3F
:101A800011C01092B003112321F40E9466061EE0DB
:101A900009C060919A0380E290E00E943C1E10927F
:101AA0006A042CC08091B00382FD04C08091B10310
:101AB00082FFD0CF1092B0031E3069F480919A0358
:101AC0008F5F80939A0380919A03893010F010926F
:101AD0009A030E9466068091B10382FFBBCF0E94E9
:101AE000150278941092AE031092AD038091AD036D
:101AF0009091AE0384369105C8F3ACCF1F910F913E
:101B00000895EF92FF920F931F93CF93DF938C0171
:101B1000FF24C4E1D0E0EE24E394F801808188231F
:101B200041F0F394FE01E35BFC4FCE0160810E9423
:101B30003C1EFF2031F0E0926B0481E693E00E94AE
:101B4000330A0F5F1F4F2196CD31D10531F7DF9159
:101B5000CF911F910F91FF90EF900895CF92DF9258
:101B6000EF92FF920F931F93DF93CF93CDB7DEB722
:101B700029970FB6F894DEBF0FBECDBF8AE08093E1
:101B8000B303FE01319689E0DF011D928A95E9F7E2
:101B900000E010E05AE0C52E7F01DD24D39480914F
:101BA000B003882321F48091B103882319F0C092F7
:101BB000B3030BC08091B303882339F4CE0101969F
:101BC0000E94810D10926A0460C08091B00380FD74
:101BD0001DC08091B00381FF1EC01092B00300238E
:101BE00049F488E592E00E940705812F0E94E901EF
:101BF0000DE011C00D3041F41F5F193008F010E006
:101C0000812F0E94E90107C010926A04CE0101965B
:101C10000E94810D3AC08091B00382FD04C0809182
:101C2000B10382FFBCCF1092B0030D30D9F4A12FC5
:101C3000B0E09D012F593C4FF90180818F5F808377
:101C4000FD01ED58FC4F9081981730F4FD01E659E5
:101C5000FC4F8081F9018083AE0DBF1DDC92812F86
:101C60000E94E9018091B10382FF99CF0E94150281
:101C700078941092AE031092AD038091AD039091D1
:101C8000AE038B349105C8F38ACF29960FB6F8942A
:101C9000DEBF0FBECDBFCF91DF911F910F91FF909F
:101CA000EF90DF90CF900895DF92EF92FF920F9325
:101CB0001F938AE08093B30300E07AE0D72EFF24DD
:101CC000F39461E2E62E8091B003882321F48091A1
:101CD000B103882319F0D092B30304C08091B303F9
:101CE000882381F08091B00380FD58C08091B003BB
:101CF00081FF0BC01092B003002321F40E94D7068D
:101D000007E003C010926A0449C08091B00382FFCB
:101D1000DACF1092B0030730B1F610915F041130A2
:101D200059F4E0925F0410936B0481E693E00E9403
:101D3000330A10936B0429C080915F04813261F4EF
:101D400010925F048091A1031816FCF41092A10375
:101D50008091390481500BC0F0925F048091A103FF
:101D6000882399F4F092A103809139048F5F8093C6
:101D700039046091A1038DE190E00E943C1E6091C6
:101D8000390484E090E00E943C1E0E94D7066091D6
:101D90005F048FE090E00E943C1E95CF1F910F9151
:101DA000FF90EF90DF9008950F931F938AE0809348
:101DB000B30310E00AE08091B003882321F48091FE
:101DC000B103882319F00093B30305C08091B303D6
:101DD000882309F44AC08091B00380FD65C08091DA
:101DE000B00381FF45C01092B003112321F40E947B
:101DF000EA0615E03DC01530B1F481E692E00E949C
:101E00000705409168045091690481E064E00E94F4
:101E10006B01409163045091640486E063E00E948A
:101E20006B0113E025C01330D1F480919903813008
:101E300029F480917A00806480937A00409168044C
:101E40005091690481E064E00E946B014091630459
:101E50005091640486E063E00E946B0109C06091C8
:101E6000990381E190E00E943C1E10926A041CC01C
:101E70008091B00382FF9FCF1092B003153009F01C
:101E80009ACF80919903813019F41092990303C07D
:101E900081E0809399030E94EA066091990381E1B1
:101EA00090E00E943C1E87CF1F910F9108950F93E1
:101EB0001F938AE08093B30310E00AE08091B0039F
:101EC000882321F48091B103882319F00093B30390
:101ED00004C08091B3038823B1F08091B00380FDEA
:101EE00049C08091B00381FF17C01092B003112345
:101EF00051F486E692E00E94070580915C040E94FE
:101F0000430311E009C010926A0460915C0489E007
:101F100090E00E943C1E2EC08091B00382FD04C060
:101F20008091B10382FFCACF1092B003113079F4CF
:101F300080915C048B5F80935C0480915C048B35A2
:101F400010F000935C0480915C040E944303809134
:101F5000B10382FFB3CF0E94150278941092AE03B2
:101F60001092AD038091AD039091AE038B34910537
:101F7000C8F3A4CF1F910F9108950F931F938AE088
:101F80008093B30310E00AE08091B003882321F42A
:101F90008091B103882319F00093B30307C08091A7
:101FA000B303882319F410926A0450C08091B003DF
:101FB00080FD4CC08091B00381FF2DC01092B00312
:101FC000812F90E0019666E070E00E94C01D182FFE
:101FD0008230A1F0833028F4882351F08130D9F485
:101FE0000AC0843099F0843070F08530A1F411C0BB
:101FF0008DE692E005C00E94F6060DC086E792E0ED
:102000000E94070508C00E94230105C08FE792E0E7
:10201000F7CF0E9448018091B00382FFB5CF1092A4
:10202000B003113009F0B0CF8091A303813019F4CF
:102030001092A30302C01093A3030E94F6066091BE
:10204000A30380E190E00E943C1E9ECF1F910F9160
:102050000895FF920F931F938AE08093B30310E0DB
:10206000EAE0FE2E01E08091B003882321F4809104
:10207000B103882319F0F092B30304C08091B30335
:102080008823B1F08091B00380FD2FC08091B00310
:1020900081FF11C01092B003112321F40E940207A6
:1020A0001AE009C06091A6038FE190E00E943C1EF7
:1020B00010926A041AC08091B00382FFD4CF1092AC
:1020C000B0031A3081F68091A603882319F010928C
:1020D000A60302C00093A6030E9402076091A60314
:1020E0008FE190E00E943C1EBECF1F910F91FF90A8
:1020F0000895FF920F931F938AE08093B30310E03B
:10210000FAE0FF2E01E08091B003882321F4809152
:10211000B103882319F0F092B30307C08091B30391
:10212000882319F410926A0401C18091B00380FDE4
:10213000FDC08091B00381FF83C01092B0031123D2
:10214000A9F480919803882311F012E001C011E0F6
:1021500080E00E942F058091540481608093540494
:10216000809155048160809355046AC0113029F430
:1021700080919803882339F020C01230E1F48091D7
:1021800098038130A9F480919803882311F011E01D
:1021900001C012E080E00E942F0580915704816009
:1021A000809357048091580481608093580448C0FC
:1021B000882339F015C0113099F48091980381304B
:1021C00079F480E00E942F0580915A048160809309
:1021D0005A0480915B04816080935B0413E030C0FB
:1021E00083E680936A0480E00E942F057894109221
:1021F000AE031092AD038091AD039091AE038C5D60
:102200009540C8F310926A0411E010936B0481E6C4
:1022100093E00E94330A10936B046091600381E0A5
:1022200090E00E943C1E60915E0382E090E00E947C
:102230003C1E60915F0383E090E00E943C1E76C0EC
:102240008091B00382FD04C08091B10382FF5BCF17
:102250001092B003113099F480915E038F5F8093E8
:102260005E0380915E038D3010F010935E0380E07A
:102270000E942F0580919803882301F514C0123025
:1022800041F580915F038F5F80935F0380915F03CF
:10229000803210F000935F0380E00E942F05809150
:1022A0009803813059F480915404816080935404E0
:1022B0008091550481608093550426C08091570415
:1022C0008160809357048091580481608093580402
:1022D0001BC01330C9F4809160038F5F809360034B
:1022E0008091600364E60E94931D9093600380E0F8
:1022F0000E942F0580915A04816080935A04809136
:102300005B04816080935B048091B10382FFFBCE0C
:102310000E94150278941092AE031092AD03809142
:10232000AD039091AE03CC97D0F3EDCE1F910F91FA
:10233000FF900895DF92EF92FF920F931F93009109
:102340003904E0905D04F09077048AE08093B30351
:1023500010E0AAE0DA2E8091B00380FDECC08091FD
:10236000B003882321F48091B103882319F0D0921F
:10237000B30307C08091B303882319F410926A0451
:10238000DAC08091B00381FF67C01092B0031123BF
:10239000B9F400913904E0905D04F0907704802F47
:1023A0006E2D4F2D0E94A403809154048160809370
:1023B00054048091550481608093550411E04CC011
:1023C000113089F4802F6E2D4F2D0E94A40380912F
:1023D00057048160809357048091580481608093F2
:1023E000580412E039C0123089F4802F6E2D4F2D21
:1023F0000E94A40380915A04816080935A048091C2
:102400005B04816080935B0413E026C00093390471
:10241000E0925D04F092770410926A0411E0109348
:102420006B0481E693E00E94330A10936B040093DF
:1024300039046091390484E090E00E943C1E609170
:102440005D0485E090E00E943C1E6091770486E088
:1024500090E00E943C1E6FC08091B00382FD04C0DA
:102460008091B10382FF77CF1092B0031130C9F48D
:10247000802F90E0019668E170E00E94C01D082F57
:102480006E2D4F2D0E94A40380915404816080938F
:10249000540480915504816080935504009339045D
:1024A00037C01230D1F48E2D90E001966CE370E0CD
:1024B0000E94C01DE82E802F6E2D4F2D0E94A40378
:1024C0008091570481608093570480915804816003
:1024D00080935804E0925D041BC01330C9F48F2D23
:1024E00090E001966CE370E00E94C01DF82E802FF2
:1024F0006E2D4F2D0E94A40380915A048160809319
:102500005A0480915B04816080935B04F0927704AD
:102510008091B10382FF1FCF0E9415027894109220
:10252000AE031092AD038091AD039091AE038B3456
:102530009105C8F310CF1F910F91FF90EF90DF909E
:102540000895EF92FF920F931F93109160040091F2
:102550003B048AE08093B303FF248AE0E82E809155
:10256000B00380FDB1C08091B003882321F4809135
:10257000B103882319F0E092B30317C08091B3032D
:10258000882399F410926A041093600400933B042A
:102590006091600487E090E00E943C1E60913B04E3
:1025A00088E090E00E943C1E8FC08091B00381FFC4
:1025B0003CC01092B003FF2089F4812F602F0E944D
:1025C0007504809154048160809354048091550473
:1025D000816080935504FF24F39427C081E0F816AE
:1025E00089F4812F602F0E947504809157048160C7
:1025F0008093570480915804816080935804B2E01E
:10260000FB2E13C01093600400933B0460916004A0
:1026100087E090E00E943C1E60913B0488E090E0DF
:102620000E943C1E10926A044FC08091B00382FD4C
:1026300004C08091B10382FF92CF1092B00381E079
:10264000F816B1F4812F90E0019668E170E00E94E5
:10265000C01D182F602F0E94750480915404816062
:10266000809354048091550481608093550419C06F
:1026700082E0F816B1F4802F90E001966CE370E0F0
:102680000E94C01D082F812F602F0E947504809129
:10269000570481608093570480915804816080932F
:1026A00058048091B10382FF5ACF0E94150278949A
:1026B0001092AE031092AD038091AD039091AE03E2
:1026C0008B349105C8F34BCF1F910F91FF90EF9082
:1026D00008951F920F920FB60F9211242F933F93DC
:1026E0004F935F936F937F938F939F93AF93BF931A
:1026F000EF93FF9300B605FE4AC080919D038823A7
:1027000009F04EC05B9A85B1877D85B95E988CB51E
:102710008F7B8CBD80919E038823B9F06091390432
:1027200084E090E00E943C1E60915D0485E090E0B2
:102730000E943C1E6091770486E090E00E943C1E5F
:1027400080ED97E061E00E94880280919F038823DA
:10275000B9F06091600381E090E00E943C1E6091BE
:102760005E0382E090E00E943C1E60915F0383E084
:1027700090E00E943C1E80ED97E062E00E9488029B
:1027800015BC1092510410926800459804C08091C5
:102790009D03882329F0E0919603F0919703099512
:1027A000FF91EF91BF91AF919F918F917F916F9129
:1027B0005F914F913F912F910F900FBE0F901F90FF
:1027C00018950F931F93DF93CF930F92CDB7DEB77A
:1027D0008091C60089839091A203992349F48432A1
:1027E00009F0BFC081E08093A20389EB93E0B2C0FF
:1027F00009EB13E0F80101900020E9F73197E01BA5
:10280000F10BE038F105C0F4369789F4C80168E8A7
:1028100072E00E941B1E009721F482E08093A203C5
:1028200098C080E8F80111928A95E9F78FC08A3242
:1028300009F08FC0923019F080E8D80184C0C80137
:102840006CE270E00E94101E9C01AEE6B4E0FC0158
:10285000319686E001900D928150E1F71092740458
:10286000C90101966CE270E00E94101EFC0181819A
:1028700080937604CF0101966CE270E00E94101EF6
:10288000FC0181819281A381B48180934B04909358
:102890004C04A0934D04B0934E048681978190938D
:1028A000500480934F04CF0101966CE270E00E94C7
:1028B000101EFC01818180933C04CF0101966CE2E3
:1028C00070E00E94101EFC012DE334E0AC014F5F6C
:1028D0005F4F85E0DA010D90AD01D9010D929D01A8
:1028E0008150C1F78781908590934304809342047F
:1028F000CF0101966CE270E00E94101EFC01818104
:1029000080933A04CF0101966CE270E00E94101EA1
:1029100001966CE270E00E94101E01966CE270E07D
:102920000E94101EA4E4B4E0FC01319686E0019000
:102930000D928150E1F710924A040E94F90B80E851
:10294000E9EBF3E0DF011D928A95E9F71092A2030B
:1029500008C0C801BE016F5F7F4F41E050E00E9498
:10296000241E0F90CF91DF911F910F9108958AE05F
:1029700090E00E94341E8093510485B1866085B931
:1029800082E38093800080915104882329F0809114
:10299000800080688093800088E1809381008AEFC6
:1029A00090E09093870080938600809186009091BC
:1029B00087009695879590938900809388008091F1
:1029C00088009091890090938B0080938A000895ED
:1029D00081E090E00E94341E64E60E94931D909373
:1029E000600382E090E00E94341E6DE00E94931D1F
:1029F00090935E0383E090E00E94341E8F71809379
:102A00005F0380E00E942F0564EF71E080E090E0BA
:102A10000E94A60084E090E00E94341E68E10E94BB
:102A2000931D9093390485E090E00E94341E6CE37E
:102A30000E94931D90935D0486E090E00E94341EF6
:102A40006CE30E94931D9093770480913904609108
:102A50005D04409177040E94A40364EF71E080E07C
:102A600090E00E94A60088E090E00E94341E6CE393
:102A70000E94931D90933B0487E090E00E94341ED7
:102A800068E10E94931D9093600481E08093A0030D
:102A90008EE190E00E94341E8093B403805C813804
:102AA00038F01092B4038EE190E060E00E943C1E8A
:102AB00080E28093B6001092B2008FE78093B3005B
:102AC00092E09093B00086E08093B1009093700004
:102AD00078940895FF920F931F938AE08093B30335
:102AE0008CE090E00E94341E182F00E03AE0F32EB4
:102AF0008091B003882321F48091B103882319F0D9
:102B0000F092B30304C08091B3038823E9F080916D
:102B1000B00380FD45C08091B00381FF18C01092C2
:102B2000B003002361F48FE892E00E94070581E082
:102B3000612F70E041E00E94C0010FE008C08CE00E
:102B400090E0612F0E943C1E10926A0429C080917F
:102B5000B00382FD04C08091B10382FFC9CF1092FF
:102B6000B0030F3051F41F5F143608F010E081E01D
:102B7000612F70E041E00E94C0018091B10382FFAB
:102B8000B7CF0E94150278941092AE031092AD0355
:102B90008091AD039091AE038B349105C8F3A8CF1B
:102BA0001F910F91FF900895FF920F931F938AE05A
:102BB0008093B3038EE190E00E94341E182F80931F
:102BC000B40300E04AE0F42E8091B003882321F49E
:102BD0008091B103882319F0F092B30307C080916C
:102BE000B303882319F41093B4031EC08091B0037B
:102BF00080FD45C08091B00381FF19C01092B003E1
:102C0000002359F488E992E00E94070586E0612FCD
:102C100041E00E94940108E00AC01093B4038EE1E1
:102C200090E0612F0E943C1E10926A042AC080919D
:102C3000B00382FD04C08091B10382FFC5CF109222
:102C4000B003083049F41F5F10340CF010EC86E03C
:102C5000612F41E00E9494018091B10382FFB4CFC3
:102C60000E94150278941092AE031092AD038091E9
:102C7000AD039091AE038B349105C8F3A5CF1093AB
:102C8000B4031F910F91FF9008950F931F938AE053
:102C90008093B3038BE090E00E94341E80939803EE
:102CA00010E00AE001C010E08091B003882321F415
:102CB0008091B103882319F00093B30304C080917D
:102CC000B303882381F08091B00380FD28C08091F8
:102CD000B00381FF0BC01092B003112321F40E94B6
:102CE000A90611E003C010926A0419C08091B003D4
:102CF00082FFDACF1092B0031130A9F690E08091F4
:102D00009803882309F491E0909398030E94A90600
:102D10008BE090E0609198030E943C1EC5CF1F910C
:102D20000F910895FF920F931F938AE08093B3034E
:102D30008AE090E00E94341E082F10E05AE0F52E41
:102D400001C010E08091B003882321F48091B10389
:102D5000882319F0F092B30304C08091B303882351
:102D600081F08091B00380FD2BC08091B00381FF82
:102D70000BC01092B003112321F40E94B50611E09C
:102D800003C010926A041CC08091B00382FFDACFA6
:102D90001092B0031130A9F680E0002309F481E01D
:102DA000082F0E94B5068AE090E0602F0E943C1E2A
:102DB0000E94B71480EA9FE061E00E948802C2CFBF
:102DC0001F910F91FF900895FF920F931F938AE038
:102DD0008093B30382E190E00E94341E80935204FA
:102DE00083E190E00E94341E809375041092990351
:102DF00010E00AE062E3F62E8091B003882321F40C
:102E00008091B103882319F00093B30307C0809128
:102E1000B303882319F410926A0430C08091B00380
:102E200080FD2CC08091B00381FF2FC01092B003B1
:102E3000112351F48FE992E00E940705809152041A
:102E40000E94430311E021C0113051F486EA92E060
:102E50000E940705809175040E94430312E015C08B
:102E600010926A046091520482E190E00E943C1E3C
:102E70006091750483E190E00E943C1E81E08093A4
:102E800099031F910F91FF9008958091B00382FDE7
:102E900004C08091B10382FFAFCF1092B003113014
:102EA00071F4809152048E5F809352048091520499
:102EB000833310F000935204809152040FC01230FB
:102EC00079F4809175048B5F80937504809175040B
:102ED0008B3510F0F0927504809175040E944303C5
:102EE0008091B10382FF88CF0E94150278941092DE
:102EF000AE031092AD038091AD039091AE038B347D
:102F00009105C8F379CFCF93DF9380E090E00E94E2
:102F1000341E813009F48AC080E090E061E00E94B4
:102F20003C1E81E090E06BE00E943C1E82E090E05D
:102F300061E00E943C1E83E090E061E00E943C1E44
:102F400084E090E060E00E943C1E85E090E060E05C
:102F50000E943C1E86E090E060E00E943C1E87E0FC
:102F600090E06AE00E943C1E88E090E060E00E94F1
:102F70003C1E89E090E062E30E943C1E8AE090E003
:102F800060E00E943C1E8BE090E060E00E943C1EEE
:102F90008CE090E06AE00E943C1E8DE090E068EFDB
:102FA0000E943C1E8EE090E060E00E943C1E8FE09C
:102FB00090E060E00E943C1E80E190E060E00E94B2
:102FC0003C1E82E190E06AE00E943C1E83E190E0BA
:102FD0006AE50E943C1E81E190E060E00E943C1E98
:102FE000C4E1D0E0FE01E35BFC4FCE0160810E94B2
:102FF0003C1E2196CD31D105A9F78DE190E060E02E
:103000000E943C1E80E290E060E00E943C1E8EE147
:1030100090E060E00E943C1E8FE190E060E00E9442
:103020003C1E88EB9BE062E00E948802DF91CF911A
:1030300008958CE090E00E94341E9CE3899FC001BB
:1030400011249093AC038093AB038DEA92E00E942D
:10305000070583E680936A0478941092AE03109279
:10306000AD038091AD039091AE038C5D9540C8F3A4
:1030700010926A0408951F920F920FB60F921124B6
:103080002F933F934F935F936F937F938F939F9370
:10309000AF93BF93EF93FF9310926B0078941899BE
:1030A00025C08091AF0381FD26C078941092AE03B5
:1030B0001092AD038091AD039091AE030A97D0F3C7
:1030C000189919C00E94150280916704882319F08D
:1030D0000E94191810C08091AF0382608093AF03E3
:1030E0008091B00382608093B00305C08091AF03EC
:1030F0008D7F8093AF0381E080936B00FF91EF9110
:10310000BF91AF919F918F917F916F915F914F91FF
:103110003F912F910F900FBE0F901F9018951F9207
:103120000F920FB60F9211242F933F934F935F93FB
:103130006F937F938F939F93AF93BF93EF93FF937F
:1031400010926D007894A8954D9922C08091AF039C
:1031500080FD23C078941092AE031092AD0380914D
:10316000AD039091AE030A97D0F34D9959C00E94D8
:103170001502809167048823A1F58091AF038160D7
:103180008093AF038091B00381608093B00305C04A
:103190008091AF038E7F8093AF034C993AC08091AA
:1031A000AF0382FD3DC078941092AE031092AD0340
:1031B0008091AD039091AE030A97D0F34C9930C043
:1031C0000E94150282E08093B20314C04C9B12C08F
:1031D0008091AF038B7F8093AF0380916704882336
:1031E00019F00E9419181CC08091B003846080936C
:1031F000B00316C08091B203882341F78091AF03DA
:1032000084608093AF038091B10384608093B103A5
:1032100007C01092B1038091AF038B7F8093AF03FF
:1032200080E380936D00FF91EF91BF91AF919F91EB
:103230008F917F916F915F914F913F912F910F905F
:103240000FBE0F901F901895EF92FF920F931F9350
:1032500010917C030091A4038AE08093B303FF24C0
:10326000EAE0EE2E8091B00380FDAAC08091B00309
:10327000882321F48091B103882319F0E092B303ED
:1032800004C08091B303882369F18091B00381FF6A
:103290002CC01092B003FF2089F4812F602F0E9470
:1032A000D704809154048160809354048091550424
:1032B000816080935504FF24F39417C081E0F816D1
:1032C00089F4812F602F0E94D70480915704816078
:1032D000809357048091580481608093580472E071
:1032E000F72E03C010926A046BC08091B00382FD78
:1032F00004C08091B10382FFB5CF1092B00381E08A
:10330000F81659F5812F992787FD90950D9669E15B
:1033100070E00E94C01D182F1C50812F602F0E944A
:10332000D7048091540481608093540480915504A3
:1033300081608093550410937C038DE090E0612FB1
:103340000E943C1E86EB92E00E94771C812F9927F9
:1033500087FD90950E94CA1C20C082E0F816E9F40F
:10336000802F90E001966CE370E00E94C01D082F52
:10337000812F602F0E94D704809157048160809331
:103380005704809158048160809358040093A403EB
:103390008EE090E0602F0E943C1E8091B10382FF7E
:1033A00061CF0E94150278941092AE031092AD0383
:1033B0008091AD039091AE038B349105C8F352CF49
:1033C0001F910F91FF90EF9008951F93CF93DF937C
:1033D00015BC569A5E9884B714BE90E00E94AD1C4E
:1033E00088E10FB6F89480936000109260000FBEE1
:1033F0002FE088E190E00FB6F894A89580936000E4
:103400000FBE20936000A89510929E0380919E03AA
:1034100080939F0310926B041092A00387E690E0C4
:103420000E94341C88E480BF61E070E080E090E09E
:103430000E94A60000B605FE06C080B7806180BF6E
:103440000E94E814C0C00E9410015B9881E0809344
:1034500069008DBB10926A0481E58CBD82E190E029
:103460000E94341E8093520483E190E00E94341E37
:103470008093750489E090E00E94341E80935C0480
:1034800081E190E00E94341E80939903809199031A
:10349000813019F48091750402C080915C040E940F
:1034A000CB0278948DE090E00E94341E80937C03E0
:1034B000845F893110F010927C038EE090E00E94CE
:1034C000341E8093A4038D3310F01092A4030E9445
:1034D000B7140E9483170E948D028BE090E00E9437
:1034E000341E809398038FE090E00E94341E8093F6
:1034F0005F0480915F048132C9F484E190E00E940E
:10350000341E882399F0C4E1D0E0CE010E94341E1D
:10351000FE01E35BFC4F80832196CD31D105A9F7F5
:103520008DE190E00E94341E8093A10380E190E041
:103530000E94341E8093A30380E290E00E94341E18
:1035400080939A038FE190E00E94341E8093A6033B
:103550008091A603823010F01092A60383E6809338
:103560006A048FEC92E00E94070580EC9DE061E028
:1035700044E650E00E943D0264EF71E080E090E09C
:103580000E94A6000E94E814A89580EC9DE061E0EE
:1035900044E650E00E943D028FE492E00E9407055D
:1035A00078941092AE031092AD038091AD03909188
:1035B000AE03883C9105C8F310926A0481E08093C1
:1035C0006B040E940D0613E6A89500B605FE03C025
:1035D0000E94E300F9CF8091B00380FFC1C0109238
:1035E000B00380916A04833651F080916A0490E0C0
:1035F000019661E170E00E94C01D80936A04809191
:103600006A04883009F474C08930A0F4843009F465
:1036100042C0853040F4823069F1833090F58130CA
:1036200009F0BDC020C0863009F454C0873008F0CE
:1036300082C049C08C3009F462C08D3038F48A30C1
:1036400009F487C08B3008F06FC036C08E3009F4A3
:103650005DC08E3008F476C08F3009F45EC08031D2
:1036600009F09DC022C08FEC92E00E9407050E94E5
:103670000E0795C088ED92E00E9407050E94A112F6
:103680008EC081EE92E00E9407050E949A1181E0AF
:1036900080939E0384C08AEE92E00E9407050E94F8
:1036A000791081E080939F037AC083EF92E00E94BB
:1036B00007050E94241973C08DE692E00E94070559
:1036C0000E94BD0F6CC08CEF92E00E9407050E9423
:1036D000D40E65C085E093E00E94070580919903B0
:1036E000882319F00E94E4165AC00E94570F57C051
:1036F0008EE093E00E9407050E94D41550C087E138
:1037000093E00E9407050E94451649C080E293E0BD
:103710000E9407050E94230D42C089E293E00E94A7
:1037200007050E946A153BC082E393E00E940705EB
:103730000E94921634C08BE393E00E9407050E941A
:10374000540E2DC084E493E00E9407050E94AE0D44
:1037500026C08DE493E00E9407050E9429101FC037
:103760008091B00381FD04C08091B00382FF17C037
:103770001092B00310936A0481E00E942F05A8956F
:1037800078941092AE031092AD038091AD039091A6
:10379000AE03885E9340C8F3A89510926A048091A6
:1037A000A303813009F010CF8091C00087FF0CCFB8
:1037B0000E94E11309CF1F920F920FB60F921124AE
:1037C0002F933F934F935F936F937F938F939F9329
:1037D000AF93BF93EF93FF931DBA89E60E94411CFC
:1037E00029B1789478941092AE031092AD03809131
:1037F000AD039091AE030A97D0F389B1247030E005
:1038000090E0847090702817390711F40E940D061B
:1038100081E08DBBFF91EF91BF91AF919F918F910F
:103820007F916F915F914F913F912F910F900FBEBC
:103830000F901F90189506C090E000009F5F9E318A
:10384000E1F781508823C1F7089548EC50E009C0A2
:1038500020E137E2FA013197F1F721503040D1F7FA
:1038600081508823A9F708959093C5008093C400E0
:1038700088E18093C1008EE08093C200519A5098F5
:103880000895982F8091C00085FFFCCF9093C600CB
:1038900080E090E008958091C00087FFFCCF809188
:1038A000C60008958091C00080780895AC0120E0A2
:1038B00007C08091C00085FFFCCF3093C6002F5F0A
:1038C000FA01E20FF11D3491332399F7662371F069
:1038D0008091C00085FFFCCF8AE08093C600809174
:1038E000C00085FFFCCF8DE08093C6000895FC01E9
:1038F00007C08091C00085FFFCCF31969093C60031
:1039000090819923B1F70895282F982F92959F7051
:103910009A3030F48091C00085FFFCCF905D05C0E7
:103920008091C00085FFFCCF995A9093C600822FEA
:1039300090E08F7090700A973CF48091C00085FFF2
:10394000FCCF2F70205D06C08091C00085FFFCCFAA
:103950002F70295A2093C60008951F93182F892F7E
:103960000E94841C812F0E94841C1F910895EF9255
:10397000FF920F931F937B018C01C801AA27BB27DD
:103980000E94AD1CC7010E94AD1C1F910F91FF90BA
:10399000EF9008950F931F93CF93DF938C01E0E195
:1039A000F7E240E0C0E0D0E0C801BF010E94AC1DDA
:1039B000262F662329F4442319F4E130F10549F454
:1039C0008091C00085FFFCCF205D2093C60020536E
:1039D00041E0CF016AE070E00E94AC1D2196C53045
:1039E000D10571F0822F90E09C012E9FC0012F9F86
:1039F000900D3E9F900D1124081B190BFB01D4CF95
:103A0000DF91CF911F910F9108954F925F926F9226
:103A10007F928F929F92AF92BF92CF92DF92EF925E
:103A2000FF920F931F93CF93DF934B015C01E12C27
:103A30009AECF92E9AE9092F9BE3192F4424C0E050
:103A4000D0E0C501B401A80197010E94D31DD22E78
:103A5000222341F4442031F481E0E816F104010509
:103A6000110561F48091C00085FFFCCF80E3D80E82
:103A7000D092C60080EDD80E44244394C801B7010B
:103A80002AE030E040E050E00E94D31DC22E732EA9
:103A9000642E552E2196CA30D105A9F06D2D70E007
:103AA00080E090E0A80197010E94741D861A970A91
:103AB000A80AB90A2C2D372D462D552DC901DA013A
:103AC0007C018D01BECFDF91CF911F910F91FF90AF
:103AD000EF90DF90CF90BF90AF909F908F907F90AE
:103AE0006F905F904F900895629FD001739FF00197
:103AF000829FE00DF11D649FE00DF11D929FF00D7E
:103B0000839FF00D749FF00D659FF00D9927729FB4
:103B1000B00DE11DF91F639FB00DE11DF91FBD013F
:103B2000CF0111240895991B79E004C0991F9617BD
:103B300008F0961B881F7A95C9F78095089587FB32
:103B4000082E062687FD819567FD6195ECDF0EF452
:103B5000919507FC81950895AA1BBB1B51E107C0F5
:103B6000AA1FBB1FA617B70710F0A61BB70B881F0D
:103B7000991F5A95A9F780959095BC01CD0108959C
:103B800097FB092E07260AD077FD04D0E5DF06D083
:103B900000201AF4709561957F4F0895F6F790957F
:103BA00081959F4F0895A1E21A2EAA1BBB1BFD0110
:103BB0000DC0AA1FBB1FEE1FFF1FA217B307E4070C
:103BC000F50720F0A21BB30BE40BF50B661F771F64
:103BD000881F991F1A9469F7609570958095909544
:103BE0009B01AC01BD01CF01089597FB092E05266D
:103BF0000ED057FD04D0D7DF0AD0001C38F4509502
:103C00004095309521953F4F4F4F5F4F0895F6F700
:103C100090958095709561957F4F8F4F9F4F089538
:103C2000FC018191861721F08823D9F799270895FF
:103C30003197CF010895FB01DC018D91019080192E
:103C40000110D9F3990B0895FB01DC010D900020C0
:103C5000E9F711974150504028F0019000200D9253
:103C6000C9F708951C920895F999FECF92BD81BDC0
:103C7000F89A992780B50895262FF999FECF1FBA93
:103C800092BD81BD20BD0FB6F894FA9AF99A0FBE85
:083C900001960895F894FFCF9E
:103C980073756E646179006D6F6E64617900747517
:103CA8006573646179007765646E6573647900741F
:103CB800687572736461790066726964617900730A
:103CC80061747572646179006A616E00666562008C
:103CD8006D6172636800617072696C006D61790072
:103CE8006A756E65006A756C790061756773740032
:103CF80073657074006F63746F62006E6F76656DC4
:103D080000646563656D002032303030202020006B
:103D1800616C61726D206F6E002066756C6C20207E
:103D28002000206469616C31202000206469616C86
:103D380032202000206469616C33202000206469EF
:103D4800616C3420200020616D2D706D20200020D2
:103D5800616D2D706D2E2000206E6F6E6520202005
:103D680000206E6F6E652E2020007573612D313234
:103D78006872006575722D3234687200766F6C2037
:103D88006869676800766F6C206C6F7720006473D1
:103D980074206175746F00647374206F6E20200046
:103DA800647374206F666620006164696D206F6EAD
:103DB80020006164696D206F666600677073206F0C
:103DC8006E202000677073206F666620006F6E207B
:103DD8002038383838006F66662038383838002080
:103DE800202020202020200072756C653020303083
:103DF80000616463200062726974652000736574F1
:103E0800206770732000677073206C6174200067EE
:103E18007073206C6F6E6700244750524D4300202A
:103E280020206D696E7574006472667420200062CB
:103E380072746C6F200062727468692000736E6F10
:103E48006F7A696E67000A0D54696D657A6F6E65E1
:103E5800206F666673657420686F75723A09006929
:103E6800636520747562650073657420616C6172A6
:103E7800007365742074696D6500736574206461EE
:103E8800746500736574207A6F6E650073657420BD
:103E98006164696D0073657420627269740073658A
:103EA80074206472667400736574207265676E00AE
:103EB80073657420736563730073657420736E6F24
:103EC8007A0073657420766F6C20007365742064C3
:103ED800737420007365742072756C650073657463
:103EE800206C64626200313230333231776D030EF8
:103EF8002F030102020B010102010101010001016E
:103F08000100000C0507170C05071701F808000049
:103F18001F003B005A0078009700B500D400F3005A
:063F2800110130014E0101
:00000001FF
