:100000000C9479000C947B090C9496000C94B50E1A
:100010000C9496000C94020F0C9496000C946815A6
:100020000C9496000C9496000C9496000C949600F8
:100030000C9496000C9496000C9496000C949600E8
:100040000C9412100C9496000C9496000C9496004C
:100050000C9496000C94FF030C9496000C943A03B5
:100060000C9496000C9496006A000B10120F0D0E63
:100070001113740003070809060A050C047F000425
:1000800000020008000020000200408D00C080C275
:10009000004202020A001A10183010320022020236
:1000A0000600868084A70080808000400020001029
:1000B0000010100010000800040080BD000E620E49
:1000C000200E400C6004620862CB00FC60DAF2662D
:1000D000B6BEE0FEF6D700FA3E1A7ADE8EF62E6045
:1000E00078AE1CAA2A3ACEF30AB61E3838B86E7615
:1000F000DA0011241FBECFEFD8E0DEBFCDBF13E082
:10010000A0E0B1E0E2EAFBE302C005900D92A03D61
:10011000B107D9F714E0A0EDB3E001C01D92AD39ED
:10012000B107E1F70E94F01A0C94CF1D0C94000067
:1001300078941092D6031092D5032091D503309174
:10014000D60328173907C8F30895CF92DF92EF92AC
:10015000FF926B017C01A0EDB7E09B01AC010E9416
:10016000DF1C6115710581059105C1F061157105EF
:1001700021E08207910580F02AE02C9DC0012D9D91
:10018000900D112428EC30E004C0F9013197F1F70B
:1001900001970097D1F706C0CB0102C081E090E043
:1001A0000197F1F7FF90EF90DF90CF9008950197BE
:1001B000F1F70895A895089581E08093E5035B9A8F
:1001C0008CB58F7B8CBD85B1877D85B95E9815BC5C
:1001D00010926E0410926800459885B1897F85B9A8
:1001E0008BB18F7C8BB928988AB18F7C8AB9209883
:1001F0005A985298E1E6F0E090E8908388E0808396
:10020000449A83B7876083BF88959083108244980F
:1002100008958EE284B988E48AB989E087B984E3D5
:100220008BB981E085B995E09093680080936B006D
:1002300080E380936D000895CF93DF931092710453
:10024000809159048E3419F41092720403C082E034
:1002500080937204A8E6B4E0C3E7D4E0ED91E053E4
:10026000F0E0E553FF4FE491E99384E0AE36B80740
:10027000A9F780917604816080937604DF91CF9115
:100280000895CF93DF9380915704853419F4109229
:10029000710403C082E080937104AAE5B4E0C2E770
:1002A000D4E0ED91E053F0E0E553FF4FE491E993A2
:1002B00084E0A136B807A9F7809176048160809325
:1002C0007604DF91CF910895FF920F931F93CF9300
:1002D000DF93F62EFA94642F952FC0E0D0E00AE069
:1002E00010E0282F30E02F0D311DF7FC3A952059F2
:1002F0003B4F0EC0862FB8010E94041DFC01E55340
:10030000FF4FE491D901AC0FBD1FEC93972F2197BC
:100310008C2F8F0D87FFEECFDF91CF911F910F9123
:10032000FF900895282F30E0F901E059FB4F67FF57
:1003300004C092E09083619501C01082A82FB0E0C4
:10034000862F6AE00E94F61CE82FF0E0E553FF4F8D
:100350008491A059BB4F842B11968C931197E92F50
:10036000F0E0E553FF4FE491E42B1296EC930895EF
:10037000CF93DF93C82FD0E0CB016AE070E00E94FA
:10038000181DFB01FF27E553FF4F6491C059DB4F58
:10039000642B6883FC01FF27E553FF4FE491E42BB6
:1003A000E983DF91CF91089590E0FC01E553FF4F81
:1003B000E491E160E0937504FC01EF5EFE4F608123
:1003C00041E070E087E00C94B8019C0183709927AC
:1003D000892B39F4C90164E670E00E94041D892B61
:1003E00069F4C90160E971E00E94041D21E030E078
:1003F000892B11F020E030E0C901089581E090E000
:1004000008958AE090E00E94B91D80936E0485B142
:10041000866085B982E38093800080916E04882392
:1004200029F08091800080688093800088E180932B
:1004300081008AEF90E090938700809386008091FE
:100440008600909187009695879590938900809378
:10045000880090938B0080938A000895109280000A
:1004600010928100299A2A988AE090E00E949800D0
:100470002A9A29988AE090E00E94980085B1897FA5
:1004800085B982E38093800080916E04882329F0EF
:100490008091800080688093800088E18093810053
:1004A0000895CF92DF92EF92FF92CF93C62F6A0109
:1004B0009C0140E050E060E472E48FE090E00E9434
:1004C0004E1D309387002093860080918600909186
:1004D00087009695879590938B0080938A009093E0
:1004E000890080938800E12CF12C16C08091810056
:1004F000826080938100C701B6010E94A5008091AF
:1005000081008D7F8093810085B1897F85B9C70186
:10051000B6010E94A500C150C111E8CF85B1897F05
:1005200085B9CF91FF90EF90DF90CF90089544E68A
:1005300050E00C9451020F931F93CF93DF9380E010
:1005400090E00E94B91D813009F48FC061E080E025
:1005500090E00E94C11D6BE081E090E00E94C11D0F
:1005600061E082E090E00E94C11D61E083E090E0E4
:100570000E94C11D60E084E090E00E94C11D60E027
:1005800085E090E00E94C11D60E086E090E00E945E
:10059000C11D6AE087E090E00E94C11D60E088E034
:1005A00090E00E94C11D62E389E090E00E94C11DBD
:1005B00060E08AE090E00E94C11D60E08BE090E086
:1005C0000E94C11D6AE08CE090E00E94C11D68EFAE
:1005D0008DE090E00E94C11D60E08EE090E00E94FE
:1005E000C11D60E08FE090E00E94C11D60E080E1ED
:1005F00090E00E94C11D6AE082E190E00E94C11D6E
:100600006AE583E190E00E94C11D60E081E190E035
:100610000E94C11D01E111E0C4E1D0E0F801619147
:100620008F01CE010E94C11D2196CD31D105B1F7B8
:1006300060E08DE190E00E94C11D60E080E290E00A
:100640000E94C11D60E08EE190E00E94C11D60E04B
:100650008FE190E00E94C11D62E088EB9BE0DF919A
:10066000CF911F910F910C949702DF91CF911F9121
:100670000F9108951F920F920FB60F9211242F938E
:100680003F934F935F936F937F938F939F93AF931A
:10069000BF93EF93FF9300B605FE49C08091E50339
:1006A00081114EC05B9A85B1877D85B95E988CB506
:1006B0008F7B8CBD8091E4038823B9F06091560450
:1006C00084E090E00E94C11D60917A0485E090E092
:1006D0000E94C11D6091980486E090E00E94C11DB7
:1006E00061E080ED97E00E9497028091E303882308
:1006F000B9F060911A0181E090E00E94C11D609103
:100700001C0182E090E00E94C11D60911B0183E00A
:1007100090E00E94C11D62E080ED97E00E94970288
:1007200015BC10926E0410926800459804C0809128
:10073000E503882329F0E091EB03F091EC030995A0
:10074000FF91EF91BF91AF919F918F917F916F91A9
:100750005F914F913F912F910F900FBE0F901F907F
:1007600018953D9A459AEAE7F0E08081866080839B
:10077000ACE7B0E08C9180648C938C9184608C9316
:10078000AEE7B0E08C9180618C938081806880833B
:1007900080818860808308958091E903813029F405
:1007A00080917A00806480937A0008959091860405
:1007B000992329F08091980480FD0EC005C08B35E7
:1007C00018F48A3018F003C08AE501C08AE097B5B2
:1007D000981721F087BD089582E3F9CF08950E940C
:1007E000D60383E084BD81E085BD84B5806884BD87
:1007F000EEE6F0E0808181608083789408951F9216
:100800000F920FB60F9211242F933F934F935F9344
:100810006F937F938F939F93AF93BF93CF93DF9308
:10082000EF93FF938091E9038130A1F580917800E7
:1008300090917900392F20E0282B30938804209361
:100840008704223F83E0380718F0C0916F0405C089
:10085000C09196042536310510F4D0E014C0A09163
:10086000960480916F04B0E0A81BB10924563109A9
:10087000D0E00E94D81C2EE833E040E050E00E9417
:100880002C1DC21BD30BD0938304C09382048C2FE6
:100890000E94D603FF91EF91DF91CF91BF91AF916D
:1008A0009F918F917F916F915F914F913F912F9188
:1008B0000F900FBE0F901F901895CF93C82F41E057
:1008C000682F70E087E00E94B8018C2FCF910C94C4
:1008D000D603CF93DF93C62FD0E0E82FF0E0E053AC
:1008E000F84FC330D10510F42C963197242F30E007
:1008F0002F5F3F4F2E0F3F1FCE01880F991F280FEC
:10090000391FCF019695879596958795280F391FA2
:10091000CF0160E971E00E94041D260F371FCF014F
:1009200064E670E00E94041D261B370B219646E00A
:100930004C9FC0014D9F900D11246AE070E00E9411
:10094000041D260F371FC90167E070E00E94041DD7
:100950008F5FDF91CF910895E82FF0E0E553FF4FCF
:1009600084910895E82FF0E0EA58FF4F84910895AC
:100970001F93CF93DF93C82FD62F142F8091890414
:1009800081118FC08091E803873068F4853008F0CA
:1009900053C0813079F008F484C08230E9F08330AC
:1009A00009F085C034C0893008F45CC0893009F092
:1009B0007EC062C0842F66E00E94EA1C292F30E0CE
:1009C000220F331FF901E254FF4FE491E0937704C3
:1009D000F901E354FF4F2CC0842F6AE00E94EA1C07
:1009E000292F30E0220F331FF901E855FF4F849182
:1009F00080937704F901E955FF4F249120937804FF
:100A000040FF55C0826080937704226012C0842F1B
:100A10006CE00E94EA1C292F30E0220F331FF901FD
:100A2000E257FF4FE491E0937704F901E357FF4F5A
:100A30002491209378043BC0CC3018F4E7EDF0E02B
:100A400002C0E6EEF0E0E491E0937704E3EEF0E03C
:100A5000E491E09378048091E803863041F51170C9
:100A60001E2B1CC010927704109278048091E8032A
:100A70008830E9F4117012C040E0612F70E087E027
:100A80000E94B8019091100180917804992321F07F
:100A90008160809378040BC01170182B1093780438
:100AA00006C040E0612F70E087E00E94B80110921C
:100AB000760440E06D2F70E084E00E94B80110924F
:100AC00073048091EA0381112AC08C2F90E00B9669
:100AD0006CE070E00E94181D9C0101966AE070E0D5
:100AE0000E94181D85539F4FFC01849180937204CE
:100AF000265F3F4F2331310518F41092710405C071
:100B0000ECECF0E0E491E093710480917004CC305F
:100B100010F0816001C08E7F8093700409C040E0B6
:100B20006C2F70E081E0DF91CF911F910C94B801A0
:100B3000DF91CF911F910895CF93C82F1092780421
:100B4000109277041092760440E070E084E00E94F6
:100B5000B801109273048091EA0381113BC0809127
:100B60007004CC3048F0816080937004E6EEF0E0D1
:100B7000E491E093770408C0E7EDF0E0E491E093BE
:100B800077048E7F80937004E3EEF0E0E491E093CD
:100B900078048C2F90E00B966CE070E00E94181D9A
:100BA0009C0101966AE070E00E94181D85539F4FDA
:100BB000FC01849180937204265F3F4F23313105FD
:100BC00018F41092710414C0ECECF0E0E491E0939E
:100BD00071040EC08C2F90E0479668E170E00E948F
:100BE000181D019640E0BC0181E0CF910C94B80142
:100BF000CF910895CF92DF92EF92FF920F931F93C0
:100C0000CF93DF93F0907F04E09058048AE08093C4
:100C1000D003C0E0DAE0FCE3CF2ED12C08E110E0F5
:100C20008091D30380FDA9C08091D303811104C0BA
:100C30008091D203882319F0D093D0031EC08091F5
:100C4000D00381111AC010928904F0927F04E092BF
:100C5000580460917F0487E090E00E94C11D60917C
:100C6000580488E090E0DF91CF911F910F91FF90A1
:100C7000EF90DF90CF900C94C11D8091D30381FF42
:100C800039C01092D303C11110C06E2D8F2D0E9458
:100C90009C0580917104816080937104809172043D
:100CA000816080937204C1E025C0C13081F46E2D53
:100CB0008F2D0E949C058091740481608093740440
:100CC00080917504816080937504C2E013C0F09236
:100CD0007F04E092580460917F0487E090E00E94D6
:100CE000C11D6091580488E090E00E94C11D1092DF
:100CF000890443C08091D30382FD04C08091D20354
:100D000082FF8ECF1092D303C130A9F48F2D90E0D3
:100D10000196B8010E94181DF82E6E2D0E949C05A8
:100D2000809171048160809371048091720481606C
:100D30008093720417C0C230A9F48E2D90E0019602
:100D4000B6010E94181DE82E682F8F2D0E949C0569
:100D50008091740481608093740480917504816033
:100D6000809375048091D20382FF5ACF0E942E0295
:100D70008BE490E00E94980053CFDF91CF911F91B8
:100D80000F91FF90EF90DF90CF900895CF93C82FF1
:100D9000E9EDF0E0E491E0937804EAEEF0E0E4912C
:100DA000E0937704EBEEF0E0E491E093760440E02A
:100DB00070E084E00E94B801109273046C2F7727D2
:100DC00067FD709577FF03C071956195710940E0EB
:100DD00081E00E94B80180917004C7FD02C08D7F40
:100DE00001C0826080937004CF910895AF92BF924A
:100DF000CF92DF92FF920F931F93CF93DF93F090E8
:100E00000101D090DF038AE08093D003C0E0DAE0F4
:100E1000BCE3AB2EB12C09E110E08091D30380FD3F
:100E20009EC08091D303811104C08091D203882396
:100E300019F0D093D00305C08091D003811101C077
:100E40002AC08091D30381FF29C01092D303C1111E
:100E500010C06D2D8F2D0E94C60680917104816097
:100E60008093710480917204816080937204C1E068
:100E700015C0C13081F46D2D8F2D0E94C606809162
:100E80007404816080937404809175048160809300
:100E90007504C2E003C01092890461C08091D3033D
:100EA00082FD04C08091D20382FFB7CF1092D3039A
:100EB000C13059F58F2D992787FD90950D96B80172
:100EC0000E94181DA4EFFA2EF80E6D2D8F2D0E9492
:100ED000C6068091710481608093710480917204D0
:100EE000816080937204F09201016F2D8DE090E09B
:100EF0000E94C11D8BE591E00E94071A8F2D992752
:100F000087FD90950E94441A1FC0C230E9F48D2DD0
:100F100090E00196B5010E94181DC82ED82E682FAA
:100F20008F2D0E94C60680917404816080937404A2
:100F300080917504816080937504C092DF036C2DED
:100F40008EE090E00E94C11D8091D20382FF65CFA8
:100F50000E942E028BE490E00E9498005ECFDF9109
:100F6000CF911F910F91FF90DF90CF90BF90AF90E6
:100F700008950F931F93CF93DF93109270048C0109
:100F8000C1E7D4E0F80181918F018823C1F0982F47
:100F900091569A3120F40E94B20488830BC080538A
:100FA0008A3038F4E82FF0E0E553FF4FE491E8830E
:100FB00001C018822196F4E0C937DF0719F7DF91E5
:100FC000CF911F910F910895109277041092780499
:100FD00040911B0160911C0180911A010E946904DB
:100FE0008430B1F030F4823069F078F48130E9F483
:100FF00006C0863099F078F08730B9F412C084E7E3
:1010000091E011C08BE791E00EC082E891E00BC047
:101010008AE891E008C083E991E005C08CE991E09D
:1010200002C083EA91E00E94B90788EE93E00E9433
:1010300098001092740410927504109276048091B6
:101040001C01863059F168F48330F9F028F48130BE
:10105000B1F08230C9F516C08430D1F08530A1F5E9
:101060001AC0893021F128F48730D9F0883061F531
:101070001BC08B3011F1F0F08C3031F521C08CEABF
:1010800091E020C080EB91E01DC084EB91E01AC09C
:101090008AEB91E017C080EC91E014C084EC91E001
:1010A00011C089EC91E00EC08EEC91E00BC084ED94
:1010B00091E008C089ED91E005C08FED91E002C09C
:1010C00085EE91E00E94B90760911B0140E070E05D
:1010D00087E00E94B80188EE93E00E9498008BEEB2
:1010E00091E00E94B90760911A0140E070E084E04D
:1010F0000C94B80181112AC01092700482E0809390
:101100007304809376048091EA0381110AC0609190
:101110001C0140E070E081E00E94B80160911B0179
:1011200009C060911B0140E070E081E00E94B801BD
:1011300060911C0140E070E084E00E94B801609181
:101140001A0140E070E087E00C94B801813011F49E
:101150000C94E4070895CF93DF9381E090E00E9420
:10116000B91D64E60E94EA1C90931A0182E090E0A7
:101170000E94B91D6DE00E94EA1C90931C0183E05F
:1011800090E00E94B91D8F7180931B0180E00E9446
:101190007A0864EF71E080E090E00E94A50084E0AE
:1011A00090E00E94B91DD8E16D2F0E94EA1C909337
:1011B000560485E090E00E94B91DCCE36C2F0E949C
:1011C000EA1C90937A0486E090E00E94B91D6C2F8F
:1011D0000E94EA1C909398044091980460917A04CC
:1011E000809156040E94B80464EF71E080E090E0C2
:1011F0000E94A50088E090E00E94B91D6C2F0E941B
:10120000EA1C9093580487E090E00E94B91D6D2F6E
:101210000E94EA1C90937F0481E08093E2038EE1B8
:1012200090E00E94B91D982F905C913818F480933B
:10123000ED0307C01092ED0360E08EE190E00E94A4
:10124000C11D80E28093B6001092B2008FE78093B8
:10125000B30082E08093B00096E09093B100809359
:1012600070007894DF91CF9108954A9B2BC08091B4
:101270007C0481113FC081E080937C041092D803EC
:101280001092D7038091E4038823A1F1809189040F
:10129000811130C084EF91E00E94B90783E680930A
:1012A00089048CED95E00E9498006091580480912B
:1012B0007F040E949C058CED95E00E94980010929E
:1012C0008904089580917C048823A1F010927C0405
:1012D0001092D8031092D70380918604882351F08E
:1012E00010928604809181008D7F8093810085B16A
:1012F000866085B908951F920F920FB60F92112440
:101300002F933F934F935F936F937F938F939F930D
:10131000AF93BF93CF93EF93FF931DBA89E60E94DB
:10132000C819C9B178948AE090E00E94980089B108
:10133000C4702C2F30E0847090E02817390709F032
:1013400002C00E94350981E08DBBFF91EF91CF91E2
:10135000BF91AF919F918F917F916F915F914F91CD
:101360003F912F910F900FBE0F901F9018951F93D4
:10137000CF93DF938AE08093D0038CE090E00E94CB
:10138000B91DC82FD0E01AE08091D303811104C0A9
:101390008091D203882319F01093D00305C0809167
:1013A000D003811101C01DC08091D30380FD3DC0D9
:1013B0008091D30381FF18C01092D303D1110CC0C8
:1013C0008DEF91E00E94B90741E06C2F70E081E061
:1013D0000E94B801DFE008C06C2F8CE090E00E9412
:1013E000C11D1092890421C08091D30382FD04C0E5
:1013F0008091D20382FFC8CF1092D303DF3051F423
:10140000CF5FC43608F0C0E041E06C2F70E081E0AF
:101410000E94B8018091D20382FFB6CF0E942E02B3
:101420008BE490E00E949800AFCFDF91CF911F91A5
:1014300008958091E803843019F148F48130B9F0BF
:1014400098F08230B9F0833009F041C016C087307F
:1014500039F128F48530B9F08630C9F517C08830E5
:1014600019F18930A1F52AC086E092E01BC08FE017
:1014700092E018C088E192E015C081E292E012C0CB
:101480008AE292E00FC083E392E00CC08CE392E02A
:101490000E94B90780917704816080937704089552
:1014A00085E492E00C94B9078EE492E00E94B907BB
:1014B00080917604816080937604089587E592E0B8
:1014C0000E94B90780917804816080937804089520
:1014D000CF93DF938AE08093D003C0E0DAE080917D
:1014E000D303811104C08091D203882319F0D093D3
:1014F000D00305C08091D003811101C016C0809136
:10150000D30380FD39C08091D30381FF11C01092B5
:10151000D303C11104C00E94190ACEE009C0609132
:10152000E80380E290E00E94C11D1092890424C06B
:101530008091D30382FD04C08091D20382FFCFCF7C
:101540001092D303CE3069F48091E8038F5F8093CB
:10155000E8038091E8038A3010F01092E8030E94BB
:10156000190A8091D20382FFBACF0E942E0284E62C
:1015700090E00E949800B3CFDF91CF9108951F9320
:10158000CF93DF938AE08093D0038EE190E00E94B6
:10159000B91D8093ED03C0E0DAE010EC8091D30335
:1015A000811104C08091D203882319F0D093D00315
:1015B00005C08091D003811101C01EC08091D3036A
:1015C00080FD44C08091D30381FF19C01092D303E2
:1015D000C1110CC080E692E00E94B90741E0609121
:1015E000ED0386E00E949201C8E009C06091ED031E
:1015F0008EE190E00E94C11D1092890427C0809165
:10160000D30382FD04C08091D20382FFC7CF109222
:10161000D303C83081F48091ED038F5F80341CF4D4
:101620008093ED0302C01093ED0341E06091ED0360
:1016300086E00E9492018091D20382FFAFCF0E9488
:101640002E028BE490E00E949800A8CFDF91CF910A
:101650001F9108958091EA03811103C087E692E00B
:1016600002C080E792E00C94B907CF93DF938AE041
:101670008093D0038BE090E00E94B91D8093EA0331
:10168000C0E0DAE001C0C0E08091D303811104C062
:101690008091D203882319F0D093D00305C08091A4
:1016A000D003811101C010C08091D30380FD27C0F9
:1016B0008091D30381FF0BC01092D303C11104C0EA
:1016C0000E942A0BC1E003C01092890418C08091C7
:1016D000D30382FFD9CF1092D303C130A1F681E0AA
:1016E0009091EA03911180E08093EA030E942A0B13
:1016F0006091EA038BE090E00E94C11DC5CFDF91AD
:10170000CF91089580916E04882351F089E792E08B
:101710000E94B9078091780481608093780404C0A6
:1017200082E892E00E94B9078091750481608093FD
:1017300075048091760481608093760480917704AB
:1017400081608093770408951F93CF93DF938AE09D
:101750008093D0038AE090E00E94B91DD82FC0E0AA
:101760001AE001C0C0E08091D303811104C08091D0
:10177000D203882319F01093D00305C08091D003C1
:10178000811101C010C08091D30380FD2AC08091D7
:10179000D30381FF0BC01092D303C11104C00E9478
:1017A000820BC1E003C0109289041BC08091D30357
:1017B00082FFD9CF1092D303C130A1F681E0D111BD
:1017C00080E0D82F682F8AE090E00E94C11D0E941F
:1017D000010261E080EA9FE00E9497020E94820B72
:1017E000C2CFDF91CF911F91089580917D04813206
:1017F00019F48BE892E009C080917D04813019F4DE
:1018000084E992E002C08DE992E00C94B9071F933D
:10181000CF93DF938AE08093D00382E190E00E942F
:10182000B91D80936F0483E190E00E94B91D8093FD
:1018300096041092E903C0E0DAE012E38091D3034A
:10184000811104C08091D203882319F0D093D00372
:1018500007C08091D003811103C01092890430C069
:101860008091D30380FD2CC08091D30381FF2CC0D5
:101870001092D303C1110AC086EA92E00E94B90710
:1018800080916F040E945D04C1E01EC0C13051F41C
:101890008DEA92E00E94B907809196040E945D044F
:1018A000C2E012C01092890460916F0482E190E05E
:1018B0000E94C11D6091960483E190E00E94C11DC9
:1018C00081E08093E90336C08091D30382FD04C098
:1018D0008091D20382FFB2CF1092D303C13071F452
:1018E00080916F048E5F80936F0480916F048333C7
:1018F00010F0D0936F0480916F040FC0C23079F460
:10190000809196048B5F80939604809196048B352A
:1019100010F010939604809196040E945D048091CB
:10192000D20382FF8BCF0E942E028BE490E00E94B4
:10193000980084CFDF91CF911F9108958091E903A2
:10194000813019F484EB92E002C08DEB92E00C94AC
:10195000B907CF93DF938AE08093D003C0E0DAE049
:101960008091D303811104C08091D203882319F0A0
:10197000D093D00305C08091D003811101C043C032
:101980008091D30380FD5EC08091D30381FF3EC070
:101990001092D303C11104C00E949E0CC5E036C052
:1019A000C530B1F486EC92E00E94B90740918704FB
:1019B0005091880464E081E00E94640140918204B7
:1019C0005091830463E086E00E946401C3E01EC07E
:1019D000C33099F40E94CC0340918704509188044D
:1019E00064E081E00E94640140918204509183048C
:1019F00063E086E00E94640109C06091E90381E12F
:101A000090E00E94C11D109289041CC08091D303F4
:101A100082FFA6CF1092D303C53009F0A1CF8091E9
:101A2000E903813019F41092E90303C081E0809347
:101A3000E9030E949E0C6091E90381E190E00E941D
:101A4000C11D8ECFDF91CF910895CF93DF938AE0B0
:101A50008093D003C0E0DAE08091D303811104C009
:101A60008091D203882319F0D093D00305C08091D0
:101A7000D003811101C016C08091D30380FD42C004
:101A80008091D30381FF18C01092D303C1110AC003
:101A90008BEC92E00E94B907809179040E945D046A
:101AA000C1E00AC0109289046091790489E090E055
:101AB000DF91CF910C94C11D8091D30382FD04C0AE
:101AC0008091D20382FFC8CF1092D303C13079F442
:101AD000809179048B5F80937904809179048B35B0
:101AE00010F0D0937904809179040E945D04809174
:101AF000D20382FFB1CF0E942E028BE490E00E94BD
:101B00009800AACFDF91CF9108958091E0038130B2
:101B100019F482ED92E009C08091E003823019F45B
:101B20008BED92E002C084EE92E00C94B907FF9234
:101B30000F931F93CF93DF938AE08093D00310E03D
:101B40000AE0C6E0D0E082E0F82E8091D303811154
:101B500004C08091D203882319F00093D00307C0FA
:101B60008091D003811103C0109289045BC08091E1
:101B7000D30380FD57C08091D30381FF2BC0109207
:101B8000D303812F90E00196BE010E94181D182FEB
:101B900083309105B9F034F48130910559F0029702
:101BA00031F40BC08430910581F0059789F08DEEFA
:101BB00092E005C00E94850D0DC086EF92E00E9464
:101BC000B90708C00E941C0105C08FEF92E0F7CF53
:101BD0000E9441018091D30382FFB7CF1092D303BB
:101BE000113009F0B2CF8091E003811105C010934C
:101BF000E00387E690E008C08091E003813039F48B
:101C0000F092E00384E390E00E94BB1902C01092BE
:101C1000E0030E94850D6091E00380E190E00E9466
:101C2000C11D93CFDF91CF911F910F91FF90089528
:101C30008091DD03882319F088E093E002C081E100
:101C400093E00C94B9071F93CF93DF938AE08093BE
:101C5000D003C0E0DAE011E08091D303811104C029
:101C60008091D203882319F0D093D00305C08091CE
:101C7000D003811101C016C08091D30380FD2FC015
:101C80008091D30381FF11C01092D303C11104C00E
:101C90000E94180ECAE009C06091DD038FE190E058
:101CA0000E94C11D109289041AC08091D30382FF43
:101CB000D3CF1092D303CA3079F68091DD03882305
:101CC00019F01092DD0302C01093DD030E94180E7C
:101CD0006091DD038FE190E00E94C11DBDCFDF91D7
:101CE000CF911F910895CF938AE08093D003CAE0EB
:101CF0008091D30380FD1DC08091D303811104C066
:101D00008091D203882319F0C093D00307C080913B
:101D1000D003811103C0109289040BC08091D303BA
:101D200081FFE6CF1092D3038DE191E00E94B907C5
:101D3000DFCFCF9108958CE090E00E94B91D2CE395
:101D4000829FC00111249093D8038093D7038AE126
:101D500093E00E94B90783E6809389048CED95E0B7
:101D60000E9498001092890408951F920F920FB656
:101D70000F9211242F933F934F935F936F937F9311
:101D80008F939F93AF93BF93EF93FF9310926B004A
:101D9000789418991EC08091D40381FD1FC08AE0F9
:101DA00090E00E949800189919C00E942E0280911C
:101DB0008604882319F00E949B0E10C08091D403E2
:101DC00082608093D4038091D30382608093D30395
:101DD00005C08091D4038D7F8093D40381E08093EC
:101DE0006B00FF91EF91BF91AF919F918F917F9188
:101DF0006F915F914F913F912F910F900FBE0F9078
:101E00001F9018951F920F920FB60F9211242F93C7
:101E10003F934F935F936F937F938F939F93AF9372
:101E2000BF93EF93FF9310926D007894A8954D990E
:101E30001BC08091D40380FD1CC08AE090E00E940A
:101E400098004D9952C00E942E0280918604811103
:101E50002DC08091D40381608093D4038091D303FB
:101E600081608093D30305C08091D4038E7F8093DB
:101E7000D4034C9933C08091D40382FD36C08AE0EC
:101E800090E00E9498004C9930C00E942E0282E09F
:101E90008093D10314C04C9B12C08091D4038B7FDC
:101EA0008093D40380918604882319F00E949B0EAE
:101EB0001CC08091D30384608093D30316C08091AB
:101EC000D1038111E8CF8091D40384608093D4033F
:101ED0008091D20384608093D20307C01092D20312
:101EE0008091D4038B7F8093D40380E380936D0033
:101EF000FF91EF91BF91AF919F918F917F916F91E2
:101F00005F914F913F912F910F900FBE0F901F90B7
:101F1000189581E58CBD08958EBD0DB407FEFDCFEB
:101F20000895CF93DF9300D0CDB7DEB7F8946A83DE
:101F300079830E948C0F7981872F0E948C0F6A8190
:101F4000862F0E948C0F409A409878940F900F90A3
:101F5000DF91CF9108958F929F92AF92BF92CF92CF
:101F6000DF92EF92FF920F931F93909100019817C9
:101F700008F4892FE82FF0E0DF01A059BB4FAC91A6
:101F8000EC58FF4FE49161E070E002C0660F771FEC
:101F9000EA95E2F7882777FD8095982F0091EE0368
:101FA0001091EF032091F0033091F10340E050E0F5
:101FB000B0E0C12CD12C7601C394FD01042E02C0E7
:101FC000F595E7950A94E2F7E0FF13C0FA01E659A8
:101FD000FF4F04914601570104C0880C991CAA1CAC
:101FE000BB1C0A95D2F795018401682979298A29B1
:101FF0009B294F5F5F4F48305105F9F60093EE0380
:102000001093EF032093F0033093F1031F910F918E
:10201000FF90EF90DF90CF90BF90AF909F908F9008
:102020000C94910F1F920F920FB60F9211242F93C1
:102030003F934F935F936F937F938F939F93AF9350
:10204000BF93EF93FF937894A8958091DB039091D1
:10205000DC0301969093DC038093DB03829708F402
:102060000DC11092DC031092DB038091D503909197
:10207000D60301969093D6038093D5038091DE0317
:102080000E94AB0F2091DE032F5F2093DE0380912F
:10209000DD0330E04091000190E0840F911D821734
:1020A000930714F41092DE038091E803843041F525
:1020B00080918904811124C08091E7038F5F809310
:1020C000E7038739E8F01092E7038091D5039091F8
:1020D000D60367EA70E00E94041DCB0166E070E061
:1020E0000E94041D880F991FFC01E058FF4FE491E6
:1020F000E0937704FC01E158FF4F849180937804CA
:1021000080918604882309F4B9C08091D703909107
:10211000D803892B09F0B2C08091D9039091DA03DA
:1021200001969093DA038093D9038B35910508F4D7
:10213000A5C01092DA031092D90380918B0490917C
:102140008C04019690938C0480938B0480918B0473
:1021500090918C048135964470F010928604109210
:10216000D8031092D703809181008D7F80938100E6
:1021700085B1866085B9809184049091850401962B
:102180009093850480938404209184043091850485
:102190008091990490919A048217930730F51092D8
:1021A00085041092840410929C0410929B048091E8
:1021B000990490919A04459748F0809199049091E0
:1021C0009A04449790939A04809399048091800490
:1021D00090918104449748F4809180049091810407
:1021E0000296909381048093800480919B04909147
:1021F0009C04019690939C0480939B0420919B04E3
:1022000030919C04809180049091810482179307FF
:10221000A8F180919B0490919C044CE0489F900110
:10222000499F300D112424553E4F40E050E060E4BA
:1022300072E48FE090E00E944E1D3093870020935F
:10224000860080918600909187009695879590935F
:102250008B0080938A0090938900809388008091FE
:102260009B0490919C0480FF04C080918100826057
:1022700003C0809181008D7F80938100FF91EF9159
:10228000BF91AF919F918F917F916F915F914F918E
:102290003F912F910F900FBE0F901F901895809136
:1022A000C00080780895FC019381905182812AE0DA
:1022B000829F900D11242581205184813AE0839FD3
:1022C000200D1124309101018091E103830F805191
:1022D0004181840F40815AE0459F800D11248093F5
:1022E00056048091DF0337FF02C0981B01C0980F8E
:1022F00090937A042093980481E08093E4030895F6
:10230000FC012181205180813AE0839F200D11241E
:102310009381905182814AE0849F900D11248581A0
:10232000805134814AE0349F800D112420931B0199
:1023300090931C0180931A0181E08093E303089538
:1023400081E0809386041092D8031092D70388EC22
:1023500090E090939A0480939904109285041092CF
:10236000840482E090E09093810480938004109232
:102370008C0410928B041092DA031092D903089502
:1023800090917C04992361F090917F04981308C088
:1023900080915804861304C0411102C00C94A0110E
:1023A0000895EF920F93382FE62FF0E0EE0FFF1F06
:1023B000EB5CFE4F0190F081E02DE40FF11D837086
:1023C00031F4832F64E60E94EA1C911108C0832F28
:1023D00090E060E971E00E94181D892B09F43196A4
:1023E00060E871E5E69FA001E79F500DF69F500D54
:1023F00011248E2D90E03CE3039F800D911D11244C
:10240000E0E1FEE02E9FB0012F9F700D1124860F9A
:10241000971F840F951FBC0180E090E00F91EF9013
:102420000895CF92DF92EF92FF920F931F93CF9375
:10243000DF931F92CDB7DEB7182F062FF42EE82FAB
:10244000F0E0E25BFE4FC080D12C80911A018370D6
:1024500029F4123019F48FEFC81AD80A80911A01A2
:1024600041E0612F29830E946904982F802F891BE6
:102470002981091708F4895FFA94482F97E0F99E9B
:10248000400D11244F5F01C04750E42FFF27E7FDA7
:10249000F095CE16DF06C0F380911A01E12C00E022
:1024A000612F0E94D1110F90DF91CF911F910F9159
:1024B000FF90EF90DF90CF9008959091E1034091CD
:1024C000E103552747FD5095282F30E04217530769
:1024D000D9F020918A042130B9F48093E10320914E
:1024E0005604382F391B932F920F90935604682F60
:1024F0008DE190E00E94C11D6091560484E090E05F
:102500000E94C11D10928A0408954F925F926F92AB
:102510007F928F929F92AF92BF92EF920F93CF9341
:10252000FC01B480A58096808780C085238142818C
:10253000618180810E9411122B013C01282D492DBF
:102540006A2D8B2D0E9411124B015C01E0909804C2
:1025500000917A042091560440911B0160911C0166
:1025600080911A010E94D111481459046A047B0415
:1025700044F464157505860597050CF007C080E0E6
:102580000BC064157505860597052CF4681579054B
:102590008A059B05A4F78C2FCF910F91EF90BF90E8
:1025A000AF909F908F907F906F905F904F900C9422
:1025B0005D12809198048C3354F0809198048C5370
:1025C0008093980480917A048F5F80937A0480913D
:1025D000980487FF0AC080919804845C80939804D3
:1025E00080917A04815080937A0480917A048C33AC
:1025F00054F080917A048C5380937A04809156042D
:102600008F5F8093560480917A0487FF0AC080917F
:102610007A04845C80937A0480915604815080937C
:10262000560480919804811114C080917A0481111C
:1026300010C08091E00381110CC06091560484E0C9
:1026400090E00E94C11D60917A0485E090E00E94B4
:10265000C11D80915604883184F0809156048851C0
:102660008093560480911B018F5F80931B016091C2
:102670001B0183E090E00E94C11D8091560487FFFA
:1026800010C080915604885E8093560480911B018F
:10269000815080931B0160911B0183E090E00E94B8
:1026A000C11D80911B01803268F580911B018F3123
:1026B00081F480911C01843029F180911C018630C5
:1026C00009F180911C018930E9F080911C018B3067
:1026D000C9F080911B018E3121F480911C01823060
:1026E00089F080911B018D31D9F480911C018230D9
:1026F000B9F480911A0190E08053984F0E94E5014F
:1027000081110EC081E080931B0180911C018F5FBD
:1027100080931C0160911C0182E090E00E94C11D29
:1027200080911B01811144C080911C018630B9F059
:1027300058F48330E1F018F4813088F110C084300F
:1027400071F0853061F50FC08A3018F4883038F4A4
:102750000AC08B3021F038F08C3009F504C080912C
:102760001B01815E14C080911B01825E10C08091AC
:102770001A0190E08053984F0E94E501882321F0D0
:1027800080911B01835E03C080911B01845E809356
:102790001B0180911C01815080931C0103C081E0CA
:1027A00080931B0160911C0182E090E00E94C11D9A
:1027B00080911C018D3070F080911A018F5F8093A1
:1027C0001A0181E080931C0160911A0181E090E080
:1027D0000E94C11D80911C01811116C080911C01B5
:1027E000845F80931C0180911A01815080931A01AB
:1027F00060911A0181E090E00E94C11D60911C016E
:1028000082E090E00E94C11D8091980481111DC05A
:1028100080917D04813229F481E191E00E9485124A
:1028200009C080917D04813019F48093E10302C0D6
:102830001092E10380917A04811107C080915604BF
:10284000811103C081E080938A0408958091E2039E
:10285000882389F146E050E062E071E081E694E08F
:102860000E949C1D0097B9F444E050E069E071E0DB
:102870008FE894E00E949C1D009769F485E08093A6
:1028800010018FE894E00E94531181E694E00E94C9
:1028900080110E94D91246E050E061E674E082E0C7
:1028A00091E00E94AA1D46E050E06FE874E089E0E4
:1028B00091E00C94AA1D08950F931F93CF93DF937B
:1028C0001F92CDB7DEB78091C6008983E2EFF3E0B7
:1028D00001900020E9F73197E25FF340E11104C075
:1028E000843209F0EFC005C0E33608F0E4C08D3053
:1028F00051F041E050E0BE016F5F7F4F82EF93E007
:102900000E948C1DDFC063E273E082EF93E00E94BF
:10291000761D47E050E065E273E082EF93E00E94AD
:102920009C1D009709F0C7C083EF93E090938E043D
:1029300080938D0410927E040AC080917E048927C2
:1029400080937E043196F0938E04E0938D04E091A1
:102950008D04F0918E0490819A3279F79181828171
:102960009A3310F0975301C090538A3310F0875375
:1029700001C0805320E1929F800D112480937B043D
:1029800090917E04981397C06CE270E082EF93E020
:102990000E94811D90938E0480938D04019626E001
:1029A000FC01AFE8B4E001900D922A95E1F7109296
:1029B00095046CE270E00E94811D90938E048093D8
:1029C0008D04DC0111962C9120939704213409F099
:1029D00072C06CE270E001960E94811D90938E049B
:1029E00080938D04FC014181528163817481409305
:1029F00068045093690460936A0470936B042681A1
:102A0000378130936D0420936C046CE270E0019682
:102A10000E94811D90938E0480938D04DC01119699
:102A20002C91209359046CE270E001960E94811D64
:102A300090938E0480938D049C012F5F3F4F45E05F
:102A4000F901AAE5B4E001900D924A95E1F7FC0185
:102A5000878190859093600480935F046CE270E0BE
:102A6000C9010E94811D90938E0480938D04DC0126
:102A700011968C918093570403E010E080918D04AF
:102A800090918E046CE270E001960E94811D9093FB
:102A90008E0480938D040150110981F7FC01319659
:102AA00086E0A1E6B4E001900D928A95E1F71092DC
:102AB00067040E94261484E6E2EFF3E0DF011D9232
:102AC0008A95E9F70F90DF91CF911F910F910895AB
:102AD0001F920F920FB60F9211242F933F934F9393
:102AE0005F936F937F938F939F93AF93BF93EF9376
:102AF000FF9380E8809361001092610080919804B8
:102B00008F5F809398040E94D91280917A04882361
:102B100029F08091E5038823C9F090C08091980442
:102B2000811104C08091ED03815805C08091980403
:102B3000813019F48FE78093B3008091980482303C
:102B400044F78091B60083FDFCCFE3CF8091100164
:102B5000882319F08150809310018091890481119C
:102B600033C08091E403811107C08091980480FFF5
:102B700003C08DE293E012C08091E003882389F0C6
:102B80008091100181110DC08091E803893049F0D6
:102B90008091980480FF05C086E393E00E94B90706
:102BA00008C04091980460917A04809156040E9474
:102BB000B80490917C0480917004992311F0826094
:102BC00001C08D7F809370048091E403882341F0DD
:102BD0004091980460917A04809156040E94C0113B
:102BE0000E94CC038091D003882329F08091D003E8
:102BF00081508093D0038091D103882329F0809164
:102C0000D10381508093D1038091D7039091D80351
:102C10000097A1F001979093D8038093D703209158
:102C2000700480FF04C022602093700407C02D7FD1
:102C300020937004892B11F40E94A011FF91EF9151
:102C4000BF91AF919F918F917F916F915F914F91C4
:102C50003F912F910F900FBE0F901F901895EF92FC
:102C6000FF920F931F93CF93DF938C01C4E1D0E0C9
:102C7000F12CEE24E394F80181918F01882341F037
:102C8000F394FE01E350FF4F6081CE010E94C11D0D
:102C9000FF2031F0E0928A0481E191E00E948512E8
:102CA0002196CD31D10539F7DF91CF911F910F9149
:102CB000FF90EF900895CF92DF92EF92FF920F93E3
:102CC0001F93CF93DF93CDB7DEB729970FB6F89454
:102CD000DEBF0FBECDBF8AE08093D003FE013196E8
:102CE00089E0DF011D928A95E9F7F12CE12C9AE049
:102CF000D92E8F01CC24C3948091D303811104C0B9
:102D00008091D203882319F0D092D0030BC0809118
:102D1000D003811107C0CE0101960E942F16109298
:102D200089045BC08091D30380FD20C08091D303D0
:102D300081FF21C01092D303E1100AC08FE393E01A
:102D40000E94B9078F2D0E94D4018DE0E82E13C098
:102D5000BDE0EB1209C0F39488E08F1508F4F12C64
:102D60008F2D0E94D40107C010928904CE010196D4
:102D70000E942F1632C08091D30382FD04C080913F
:102D8000D20382FFB9CF1092D303ADE0EA121AC08A
:102D90002F2D30E0F901EF5EFE4F80818F5F808341
:102DA000D901AB5DBE4F9C91981728F4D901A25D63
:102DB000BE4F8C918083F801E20FF31FC0828F2DEC
:102DC0000E94D4018091D20382FF96CF0E942E02EE
:102DD0008BE490E00E9498008FCF29960FB6F8946C
:102DE000DEBF0FBECDBFDF91CF911F910F91FF903E
:102DF000EF90DF90CF900895FF920F931F93CF93A2
:102E0000DF938AE08093D003C0E00AE011E021E282
:102E1000F22E8091D303811104C08091D2038823C4
:102E200019F00093D00305C08091D003811101C037
:102E300010C08091D30380FD58C08091D30381FFDF
:102E40000BC01092D303C11104C00E94F50BC7E060
:102E500003C01092890449C08091D30382FFD9CF67
:102E60001092D303C730A9F6D0917D04D13059F424
:102E7000F0927D04D0938A0481E191E00E94851252
:102E8000D0938A0429C080917D04813261F410922C
:102E90007D048091E1031816FCF41092E103809107
:102EA000560481500BC010937D048091E103811181
:102EB00013C01093E103809156048F5F80935604F2
:102EC0006091E1038DE190E00E94C11D6091560484
:102ED00084E090E00E94C11D0E94F50B60917D048A
:102EE0008FE090E00E94C11D94CFDF91CF911F91A0
:102EF0000F91FF9008950F931F93CF93DF938AE074
:102F00008093D003C0E0DAE011E004E68091D303BF
:102F1000811104C08091D203882319F0D093D0038B
:102F200007C08091D003811103C010928904F1C0C1
:102F30008091D30380FDEDC08091D30381FF7AC0DF
:102F40001092D303C11115C08091EA03811102C010
:102F5000C1E001C0C2E080E00E947A088091710463
:102F60008160809371048091720481608093720407
:102F700061C0C13029F48091EA03882339F01EC072
:102F8000C23069F58091EA038130A9F48091EA03A7
:102F9000811102C0C2E001C0C1E080E00E947A0855
:102FA00080917404816080937404809175048160C1
:102FB000809375043FC0882319F011C0813079F4E3
:102FC00080E00E947A088091770481608093770482
:102FD00080917804816080937804C3E02BC083E6FD
:102FE0008093890480E00E947A088CED95E00E942D
:102FF000980010928904C1E0C0938A0481E191E0B5
:103000000E948512C0938A0460911A0181E090E0C9
:103010000E94C11D60911C0182E090E00E94C11DD0
:1030200060911B0183E090E0DF91CF911F910F91A0
:103030000C94C11D8091D30382FD04C08091D20302
:1030400082FF64CF1092D303C13099F480911C01A8
:103050008F5F80931C0180911C018D3010F0C09314
:103060001C0180E00E947A088091EA03811120C04F
:1030700014C0C23041F580911B018F5F80931B010A
:1030800080911B01803210F010931B0180E00E94A0
:103090007A088091EA03813059F48091710481604B
:1030A000809371048091720481608093720426C0C1
:1030B00080917404816080937404809175048160B0
:1030C000809375041BC0C330C9F480911A018F5FCF
:1030D00080931A0180911A01602F0E94EA1C90933C
:1030E0001A0180E00E947A088091770481608093C1
:1030F0007704809178048160809378048091D20372
:1031000082FF04CF0E942E028CE390E00E94980080
:10311000FDCEDF91CF911F910F9108958F929F92D5
:10312000BF92DF92EF92FF920F931F93CF93DF93A3
:10313000F0905604E0907A04D09098048AE080934E
:10314000D00310E00AE0CCE3D0E038E1832E912CEC
:103150008091D30380FDEDC08091D303811104C021
:103160008091D203882319F00093D00307C0809187
:10317000D003811103C010928904DBC08091D30376
:1031800081FF70C01092D303111117C0F090560444
:10319000E0907A04D09098044D2D6E2D8F2D0E94D2
:1031A000B8048091710481608093710480917204ED
:1031B00081608093720411E055C0113089F44D2D67
:1031C0006E2D8F2D0E94B8048091740481608093CD
:1031D00074048091750481608093750412E042C08C
:1031E000123089F44D2D6E2D8F2D0E94B8048091E0
:1031F0007704816080937704809178048160809364
:10320000780413E02FC0F0925604E0927A04D09232
:10321000980410928904C1E0C0938A0481E191E08E
:103220000E948512C0938A04F0925604609156045D
:1032300084E090E00E94C11D60917A0485E090E0F6
:103240000E94C11D6091980486E090E0DF91CF91CB
:103250001F910F91FF90EF90DF90BF909F908F9004
:103260000C94C11D8091D30382FD04C08091D203D0
:1032700082FF6ECF1092D3031130C9F48F2D90E0EE
:103280000196B4010E94181DB82EF82E4D2D6E2DFA
:103290000E94B804809171048160809371048091D0
:1032A0007204816080937204B092560437C0123069
:1032B000D1F48E2D90E00196BE010E94181DB82E0B
:1032C000E82E4D2D682F8F2D0E94B8048091740434
:1032D000816080937404809175048160809375048B
:1032E000B0927A041BC01330C9F48D2D90E0019682
:1032F000BE010E94181DB82ED82E482F6E2D8F2D7E
:103300000E94B80480917704816080937704809153
:103310007804816080937804B09298048091D203FD
:1033200082FF16CF0E942E028BE490E00E9498004C
:103330000FCFDF91CF911F910F91FF90EF90DF9012
:10334000BF909F908F90089505C081509EE100002E
:103350009150E9F78111F9CF08950AC02FEF39E6AE
:1033600098E1215030409040E1F700C000008150CA
:103370008111F4CF08959093C5008093C40088E133
:103380008093C1008EE08093C200519A50980895B6
:103390009091C00095FFFCCF8093C60080E090E044
:1033A00008958091C00087FFFCCF8091C6000895EA
:1033B0008091C00080780895EF92FF921F93CF9381
:1033C000DF931F92CDB7DEB77C0110E005C06983A3
:1033D0000E94C8191F5F6981F701E10FF11D8491F7
:1033E0008111F5CF662361F08AE00E94C8198DE053
:1033F0000F90DF91CF911F91FF90EF900C94C8191F
:103400000F90DF91CF911F91FF90EF900895CF9390
:10341000DF93EC0102C00E94C81989918111FBCF92
:10342000DF91CF910895CF93C82F82958F708A3006
:1034300010F4805D01C0895A0E94C8198C2F8F70CA
:10344000282F30E02A30310514F4805D01C0895AFC
:10345000CF910C94C819CF93C82F892F0E94131AAB
:103460008C2FCF910C94131ACF92DF92EF92FF9290
:103470006B017C01C7010E942B1AC601FF90EF90DF
:10348000DF90CF900C942B1AAF92BF92CF92DF9225
:10349000EF92FF920F931F93CF93DF931F92CDB7BD
:1034A000DEB77C0105E010E020E080E1A82E87E295
:1034B000B82E9AE0C92ED12CC701B5010E94041D77
:1034C000862F611106C0211104C091E0A916B10434
:1034D00031F4805D69830E94C81921E069816A9D89
:1034E000C0016B9D900D1124E81AF90AC501B601BF
:1034F0000E94041D5B0101501109F1F60F90DF914C
:10350000CF911F910F91FF90EF90DF90CF90BF90E0
:10351000AF9008952F923F924F925F926F927F9259
:103520008F929F92AF92BF92CF92DF92EF92FF92D3
:103530001F93CF93DF931F92CDB7DEB74B015C0192
:103540002AE0222E312C10E0C12C3AECD32E3AE99D
:10355000E32E3BE3F32E4AE0442E512C612C712CD8
:10356000C501B401A70196010E942C1D822F2111D3
:1035700008C0111106C091E0C916D104E104F1049C
:1035800031F4805D29830E94C81911E02981A22F9E
:10359000B0E0A70196010E94DF1C861A970AA80ACC
:1035A000B90AC701B601A30192010E942C1D69014D
:1035B0007A01E1E02E1A310899F60F90DF91CF9150
:1035C0001F91FF90EF90DF90CF90BF90AF909F90B2
:1035D0008F907F906F905F904F903F902F900895C5
:1035E00015BC569A5E9884B714BE90E00E942B1AC0
:1035F00088E10FB6F89480936000109260000FBECF
:103600002FE088E190E00FB6F894A89580936000D1
:103610000FBE20936000A8951092E4031092E3037C
:1036200010928A041092E20387E690E00E94BB1990
:1036300088E480BF61E070E080E090E00E94A50037
:1036400000B605FE06C080B7806180BF0E94AB084F
:10365000C8C00E9409015B9881E0809369008DBB1E
:103660001092890481E58CBD82E190E00E94B91D31
:1036700080936F0483E190E00E94B91D80939604CB
:1036800089E090E00E94B91D8093790481E190E087
:103690000E94B91D8093E9038091E903813019F4F8
:1036A0008091960402C0809179040E94EF0378947F
:1036B0008DE090E00E94B91D80930101845F893103
:1036C00010F0109201018EE090E00E94B91D8093ED
:1036D000DF038D3310F01092DF030E9401020E947D
:1036E0009B020E94B1038BE090E00E94B91D809381
:1036F000EA038FE090E00E94B91D80937D048091E1
:103700007D048132D1F484E190E00E94B91D8823C8
:10371000A1F001E111E0C4E1D0E0CE010E94B91DA9
:10372000F80181938F012196CD31D105B1F78DE15B
:1037300090E00E94B91D8093E10380E190E00E9437
:10374000B91D8093E0038091E003813019F487E68E
:1037500090E006C08091E003823021F484E390E0A1
:103760000E94BB1980E290E00E94B91D8093E8039B
:103770008FE190E00E94B91D8093DD038091DD030D
:10378000823010F01092DD0383E68093890488E490
:1037900093E00E94B90744E650E061E080EC9DE0D0
:1037A0000E94510264EF71E080E090E00E94A50069
:1037B0000E94AB08A89544E650E061E080EC9DE0F3
:1037C0000E9451028DE293E00E94B90788EC90E0DC
:1037D0000E9498001092890481E080938A040E94DC
:1037E000350903E611E0C1E1D0E0A89500B605FE79
:1037F00003C00E94DC00F9CF8091D30380FFB6C0E4
:103800001092D30380918904833649F08091890412
:1038100090E00196BE010E94181D8093890480915A
:103820008904883009F46AC080F48430D9F138F40E
:10383000823041F170F5813009F0AEC01CC0863095
:1038400009F44EC008F07DC044C08C3009F45DC05E
:1038500030F48A3009F483C008F06CC033C08E3075
:1038600009F45AC008F474C08F3009F45CC0803188
:1038700009F092C020C088E493E00E94B9070E943A
:10388000730E8AC081E593E00E94B9070E94FA0591
:1038900083C08AE593E00E94B9070E948E181093B6
:1038A000E4037AC083E693E00E94B9070E947B1785
:1038B0001093E30371C08CE693E00E94B9070E9465
:1038C000F6066AC08DEE92E00E94B9070E94970D3D
:1038D00063C085E793E00E94B9070E94A90C5CC011
:1038E0008EE793E00E94B9078091E903882319F0DD
:1038F0000E94070C51C00E94250D4EC087E893E03E
:103900000E94B9070E94BF0A47C080E993E00E9465
:10391000B9070E94350B40C089E993E00E94B907BE
:103920000E94680A39C082EA93E00E94B9070E94A7
:10393000B70932C08BEA93E00E94B9070E94A40B3A
:103940002BC084EB93E00E94B9070E94FC1624C0B0
:103950008DEB93E00E94B9070E945B161DC086ECB8
:1039600093E00E94B9070E94230E16C08091D303F2
:1039700081FD04C08091D30382FF0EC01092D30357
:10398000009389040E94E407A89588EE93E00E94C2
:103990009800A895109289048091E003882309F487
:1039A00024CF8091C00087FF20CF0E945C141DCFE0
:1039B0000E946A1DB7FF0895821B930B08950E9411
:1039C0006A1DA59F900DB49F900DA49F800D911D21
:1039D00011240895991B79E004C0991F961708F0E7
:1039E000961B881F7A95C9F78095089587FB082E46
:1039F000062687FD819567FD61950E94EA1C0EF4FD
:103A0000919507FC81950895AA1BBB1B51E107C046
:103A1000AA1FBB1FA617B70710F0A61BB70B881F5E
:103A2000991F5A95A9F780959095BC01CD010895ED
:103A300097FB072E16F4009407D077FD09D00E945B
:103A4000041D07FC05D03EF4909581959F4F089585
:103A5000709561957F4F0895A1E21A2EAA1BBB1B9A
:103A6000FD010DC0AA1FBB1FEE1FFF1FA217B3074A
:103A7000E407F50720F0A21BB30BE40BF50B661F60
:103A8000771F881F991F1A9469F760957095809524
:103A900090959B01AC01BD01CF010895052E97FBC8
:103AA00016F4009407D057FD0DD00E942C1D07FC82
:103AB00009D07EF490958095709561957F4F8F4FDA
:103AC0009F4F089550954095309521953F4F4F4F0A
:103AD0005F4F0895A29FB001B39FC001A39F01D083
:103AE000B29F700D811D1124911D0895FB01DC0111
:103AF0000D900020E9F7119701900D920020E1F759
:103B00000895FC018191861721F08823D9F7992720
:103B100008953197CF010895FB01DC010D9000203D
:103B2000E9F711974150504028F0019000200D9284
:103B3000C9F708951C920895FB01DC0141505040E3
:103B400030F08D910190801919F40020B9F7881B8D
:103B5000990B0895FB01DC014150504048F0019061
:103B60000D920020C9F701C01D9241505040E0F76E
:103B70000895F999FECF92BD81BDF89A992780B535
:103B80000895262FF999FECF1FBA92BD81BD20BDA1
:103B90000FB6F894FA9AF99A0FBE01960895F89420
:023BA000FFCF55
:103BA20008F83030303030300030303030303000D3
:103BB20005030102020B010102012F0E0331333012
:103BC200353036776D0C0507170C05071701010113
:103BD2000100010101000000001F003B005A0078B3
:103BE200009700B500D400F300110130014E011F0F
:103BF2001C1F1E1F1E1F1F1E1F1E1F0A0D54696D34
:103C0200657A6F6E65206F666673657420686F757E
:103C1200723A090073756E646179006D6F6E64614A
:103C2200790074756573646179007765646E657394
:103C3200647900746875727364617900667269648C
:103C42006179007361747572646179006A616E00F2
:103C5200666562006D6172636800617072696C0012
:103C62006D6179006A756E65006A756C79006175BF
:103C72006773740073657074006F63746F62006EB3
:103C82006F76656D00646563656D0020323030309B
:103C920020202000616C61726D206F6E0020202058
:103CA2006D696E7574002066756C6C202020002092
:103CB2006469616C31202000206469616C322020CB
:103CC20000206469616C33202000206469616C34D7
:103CD20020200020616D2D706D20200020616D2D4F
:103CE200706D2E2000206E6F6E6520202000206EE9
:103CF2006F6E652E2020002066756C6C67707300F5
:103D0200647266742020007573612D31326872000E
:103D12006575722D3234687200766F6C206869673F
:103D22006800766F6C206C6F77200064737420617A
:103D320075746F00647374206F6E20200064737456
:103D4200206F666620006272746C6F20006272746B
:103D5200686920006164696D206F6E20006164698A
:103D62006D206F666600616463200062726974652B
:103D72002000677073206F6E343800677073206F95
:103D82006E393600677073206F6666200073657443
:103D9200206770732000677073206C617420006765
:103DA2007073206C6F6E67006F6E20203838383861
:103DB200006F6666203838383800736E6F6F7A6924
:103DC2006E67002A00244750524D432C00202020C9
:103DD200202020202000206E6F2067707320007248
:103DE200756C6530203030006963652074756265DA
:103DF2000073657420616C6172007365742074696C
:103E02006D65007365742064617465007365742068
:103E12007A6F6E6500736574206164696D00736505
:103E2200742062726974007365742064726674002F
:103E3200736574207265676E0073657420736563C1
:103E4200730073657420736E6F7A007365742076E5
:103E52006F6C200073657420647374200073657442
:103E62002072756C6500736574206C646262000078
:00000001FF
