:100000000C9479000C9475090C9496000C94410E94
:100010000C9496000C948E0E0C9496000C941C1567
:100020000C9496000C9496000C9496000C949600F8
:100030000C9496000C9496000C9496000C949600E8
:100040000C949E0F0C9496000C9496000C949600C1
:100050000C9496000C94FE030C9496000C943903B7
:100060000C9496000C9496006A000B10120F0D0E63
:100070001113740003070809060A050C047F000425
:1000800000020008000020000200408D00C080C275
:10009000004202020A001A10183010320022020236
:1000A0000600868084A70080808000400020001029
:1000B0000010100010000800040080BD000E620E49
:1000C000200E400C6004620862CB00FC60DAF2662D
:1000D000B6BEE0FEF6D700FA3E1A7ADE8EF62E6045
:1000E00078AE1CAA2A3ACEF30AB61E3838B86E7615
:1000F000DA0011241FBECFEFD8E0DEBFCDBF13E082
:10010000A0E0B1E0EEE5FCE302C005900D92A03D59
:10011000B107D9F714E0A0EDB3E001C01D92AE39EC
:10012000B107E1F70E94F91A0C942D1E0C940000FF
:1001300078941092D6031092D5032091D503309174
:10014000D60328173907C8F30895CF92DF92EF92AC
:10015000FF926B017C01A0EDB7E09B01AC010E9416
:10016000271D6115710581059105C1F061157105A6
:1001700021E08207910580F02AE02C9DC0012D9D91
:10018000900D112428EC30E004C0F9013197F1F70B
:1001900001970097D1F706C0CB0102C081E090E043
:1001A0000197F1F7FF90EF90DF90CF9008950197BE
:1001B000F1F70895A895089581E08093E7035B9A8D
:1001C0008CB58F7B8CBD85B1877D85B95E9815BC5C
:1001D0001092700410926800459885B1897F85B9A6
:1001E0008BB18F7C8BB928988AB18F7C8AB9209883
:1001F0005A985298E1E6F0E090E8908388E0808396
:10020000449A83B7876083BF88959083108244980F
:1002100008958EE284B988E48AB989E087B984E3D5
:100220008BB981E085B995E09093680080936B006D
:1002300080E380936D000895CF93DF931092730451
:1002400080915B048E3419F41092740403C082E030
:1002500080937404AAE6B4E0C5E7D4E0ED91E053DE
:10026000F0E0E553FF4FE491E99384E0A037B8074D
:10027000A9F780917804816080937804DF91CF9111
:100280000895CF93DF9380915904853419F4109227
:10029000730403C082E080937304ACE5B4E0C4E768
:1002A000D4E0ED91E053F0E0E553FF4FE491E993A2
:1002B00084E0A336B807A9F7809178048160809321
:1002C0007804DF91CF910895FF920F931F93CF93FE
:1002D000DF93F62EFA94642F952FC0E0D0E00AE069
:1002E00010E0282F30E02F0D311DF7FC3A952E58E5
:1002F0003B4F0EC0862FB8010E945C1DFC01E553E8
:10030000FF4FE491D901AC0FBD1FEC93972F2197BC
:100310008C2F8F0D87FFEECFDF91CF911F910F9123
:10032000FF900895282F30E0F901EE58FB4F67FF4A
:1003300004C092E09083619501C01082A82FB0E0C4
:10034000862F6AE00E944E1DE82FF0E0E553FF4F34
:100350008491AE58BB4F842B11968C931197E92F43
:10036000F0E0E553FF4FE491E42B1296EC930895EF
:10037000A82F862FB0E06AE00E944E1DE82FF0E023
:10038000E553FF4F8491AE58BB4F842B8C93E92FDC
:10039000F0E0E553FF4FE491E42B1196EC930895C0
:1003A00090E0FC01E553FF4FE491E0937704FC01FA
:1003B000E05FFE4F41E0608187E00C94B8019C0152
:1003C00083709927892B39F4C90164E670E00E9493
:1003D0005C1D892B69F4C90160E971E00E945C1D14
:1003E00021E030E0892B11F020E030E0C9010895D0
:1003F00081E090E008958BE090E00E94051E8093DC
:10040000700485B1866085B982E380938000809115
:100410007004882329F08091800080688093800098
:1004200088E1809381008AEF90E090938700809329
:10043000860080918600909187009695879590938D
:1004400089008093880090938B0080938A000895A0
:100450001092800010928100299A2A988AE090E0F8
:100460000E9498002A9A29988AE090E00E949800B9
:1004700085B1897F85B982E3809380008091700483
:10048000882329F08091800080688093800088E133
:10049000809381000895CF92DF92EF92FF92CF93E5
:1004A000C62F6A019C0140E050E060E472E48FE0F6
:1004B00090E00E94A61D30938700209386008091D3
:1004C0008600909187009695879590938B008093F6
:1004D0008A009093890080938800E12CF12C16C04B
:1004E00080918100826080938100C701B6010E94E3
:1004F000A500809181008D7F8093810085B1897FE7
:1005000085B9C701B6010E94A500C150C111E8CF4D
:1005100085B1897F85B9CF91FF90EF90DF90CF9023
:10052000089544E650E00C944B020F931F93CF9331
:10053000DF9380E090E00E94051E813009F494C0B2
:1005400061E080E090E00E941F1E6DE081E090E09D
:100550000E941F1E66E082E090E00E941F1E6FE076
:1005600083E090E00E941F1E60E084E090E00E9423
:100570001F1E60E085E090E00E941F1E60E086E0A4
:1005800090E00E941F1E6AE087E090E00E941F1E1C
:1005900060E088E090E00E941F1E62E38AE090E045
:1005A0000E941F1E60E08BE090E00E941F1E60E032
:1005B0008CE090E00E941F1E6AE089E090E00E94BB
:1005C0001F1E64E08DE090E00E941F1E60E08EE040
:1005D00090E00E941F1E60E08FE090E00E941F1ECE
:1005E00060E080E190E00E941F1E69E182E190E0FE
:1005F0000E941F1E6AE583E190E00E941F1E60E0DA
:1006000081E190E00E941F1E00E111E0C4E1D0E012
:10061000F80161918F01CE010E941F1E2196CD31FC
:10062000D105B1F760E08DE190E00E941F1E60E00F
:1006300080E290E00E941F1E60E08EE190E00E9448
:100640001F1E60E08FE190E00E941F1E6AE281E2BF
:1006500090E00E941F1E62E088EB9BE0DF91CF914B
:100660001F910F910C949102DF91CF911F910F91E7
:1006700008951F920F920FB60F9211242F933F935C
:100680004F935F936F937F938F939F93AF93BF939A
:10069000EF93FF9300B605FE49C08091E7038111F7
:1006A0004EC05B9A85B1877D85B95E988CB58F7B8E
:1006B0008CBD8091E6038823B9F06091580484E0F2
:1006C00090E00E940D1E60917C0485E090E00E9405
:1006D0000D1E6091990486E090E00E940D1E61E07D
:1006E00080ED97E00E9491028091E5038823B9F0A4
:1006F0006091190181E090E00E940D1E60911B0144
:1007000082E090E00E940D1E60911A0183E090E06B
:100710000E940D1E62E080ED97E00E94910215BCE0
:100720001092700410926800459804C08091E7030D
:10073000882329F0E091ED03F091EE030995FF91F4
:10074000EF91BF91AF919F918F917F916F915F9149
:100750004F913F912F910F900FBE0F901F901895C2
:100760003D9A459AEAE7F0E0808186608083ACE7B5
:10077000B0E08C9180648C938C9184608C93AEE714
:10078000B0E08C9180618C938081806880838081CF
:100790008860808308958091EB03813029F48091F3
:1007A0007A00806480937A00089590918804992358
:1007B00029F08091990480FD0EC005C08B3518F496
:1007C0008A3018F003C08AE501C08AE097B598170F
:1007D00021F087BD089582E3F9CF08950E94D503E3
:1007E00083E084BD81E085BD84B5806884BDEEE68C
:1007F000F0E0808181608083789408951F920F9249
:100800000FB60F9211242F933F934F935F936F93E3
:100810007F938F939F93AF93BF93CF93DF93EF9388
:10082000FF938091EB038130A1F580917800909146
:100830007900392F20E0282B30938A0420938904F3
:10084000223F83E0380718F0C091710405C0C091C1
:1008500097042536310510F4D0E014C0A091970418
:1008600080917104B0E0A81BB10924563109D0E091
:100870000E94201D2EE833E040E050E00E94841DDD
:10088000C21BD30BD0938504C09384048C2F0E9489
:10089000D503FF91EF91DF91CF91BF91AF919F91E0
:1008A0008F917F916F915F914F913F912F910F9019
:1008B0000FBE0F901F901895CF93C82F41E0682F5F
:1008C00087E00E94B8018C2FCF910C94D503CF9371
:1008D000DF93C62FD0E0E82FF0E0E053F84FC330AD
:1008E000D10510F42C963197242F30E02F5F3F4F25
:1008F0002E0F3F1FCE01880F991F280F391FCF01E0
:100900009695879596958795280F391FCF0160E9B1
:1009100071E00E945C1D260F371FCF0164E670E076
:100920000E945C1D261B370B219646E04C9FC001A0
:100930004D9F900D11246AE070E00E945C1D260F0F
:10094000371FC90167E070E00E945C1D8F5FDF9177
:10095000CF910895E82FF0E0E553FF4F849108957B
:10096000E82FF0E0EA58FF4F849108951F93CF934A
:10097000DF93C82FD62F142F80918B0481119AC03A
:100980008091EA03843009F45EC050F4813091F024
:1009900008F490C0823051F1833009F090C038C023
:1009A000863008F48CC0883008F462C08A3008F0C1
:1009B00086C074C040E0612F87E00E94B80180913A
:1009C000E103882309F47BC08091E003853030F493
:1009D00080917A04816080937A0471C0803108F438
:1009E0006EC0117080917A04182B61C0842F66E06C
:1009F0000E94421D292F30E0220F331FF901E254DB
:100A0000FF4FE491E0937904F901E354FF4F2CC0C8
:100A1000842F6AE00E94421D292F30E0220F331FED
:100A2000F901E855FF4F849180937904F901E95564
:100A3000FF4F249120937A0440FF41C0826080934D
:100A40007904226012C0842F6CE00E94421D292F7D
:100A500030E0220F331FF901E257FF4FE491E0939A
:100A60007904F901E357FF4F249120937A0427C0BA
:100A7000CC3018F4E7EDF0E002C0E6EEF0E0E491EF
:100A8000E0937904E3EEF0E0E491E0937A0480915E
:100A9000EA038730A1F411701E2B09C0109279046B
:100AA00010927A048091EA03893049F4117010930E
:100AB0007A0405C040E0612F87E00E94B8011092DF
:100AC000780440E06D2F84E00E94B8011092750414
:100AD0008091EC0381112AC08C2F90E00B966CE082
:100AE00070E00E94701D9C0101966AE070E00E9417
:100AF000701D85539F4FFC01849180937404265F81
:100B00003F4F2331310518F41092730405C0ECEC0B
:100B1000F0E0E491E093730480917204CC3010F023
:100B2000816001C08E7F8093720408C040E06C2F0A
:100B300081E0DF91CF911F910C94B801DF91CF91AB
:100B40001F910895CF93C82F10927A0410927904C0
:100B50001092780440E084E00E94B801109275047D
:100B60008091EC0381113BC080917204CC3048F03D
:100B7000816080937204E6EEF0E0E491E093790402
:100B800008C0E7EDF0E0E491E09379048E7F809374
:100B90007204E3EEF0E0E491E0937A048C2F90E0AD
:100BA0000B966CE070E00E94701D9C0101966AE05B
:100BB00070E00E94701D85539F4FFC0184918093CB
:100BC0007404265F3F4F2331310518F410927304EB
:100BD00014C0ECECF0E0E491E09373040EC08C2FB1
:100BE00090E0479668E170E00E94701D682F6F5F8B
:100BF00040E081E0CF910C94B801CF910895CF925D
:100C0000DF92EF92FF920F931F93CF93DF93F090B9
:100C10008104E0905A0486E08093D003C0E0D6E0DF
:100C2000FCE3CF2ED12C08E110E08091D30380FDAE
:100C3000A9C08091D303811104C08091D20388237D
:100C400019F0D093D0031EC08091D00381111AC037
:100C500010928B04F0928104E0925A046091810416
:100C600087E090E00E940D1E60915A0488E090E0B9
:100C7000DF91CF911F910F91FF90EF90DF90CF9078
:100C80000C940D1E8091D30381FF39C01092D303C1
:100C9000C11110C06E2D8F2D0E94A205809173048A
:100CA00081608093730480917404816080937404E4
:100CB000C1E025C0C13081F46E2D8F2D0E94A205A8
:100CC00080917604816080937604809177048160BE
:100CD00080937704C2E013C0F0928104E0925A043A
:100CE0006091810487E090E00E940D1E60915A049B
:100CF00088E090E00E940D1E10928B0443C080910A
:100D0000D30382FD04C08091D20382FF8ECF109264
:100D1000D303C130A9F48F2D90E00196B8010E9451
:100D2000701DF82E6E2D0E94A205809173048160C3
:100D3000809373048091740481608093740417C05D
:100D4000C230A9F48E2D90E00196B6010E94701D6C
:100D5000E82E682F8F2D0E94A20580917604816075
:100D600080937604809177048160809377048091EA
:100D7000D20382FF5ACF0E9428028BE490E00E94A7
:100D8000980053CFDF91CF911F910F91FF90EF907B
:100D9000DF90CF900895CF93C82FE9EDF0E0E49174
:100DA000E0937A04EAEEF0E0E491E0937904EBEE6C
:100DB000F0E0E491E093780440E084E00E94B80120
:100DC000109275046C2F772767FD709577FF03C02D
:100DD00071956195710940E081E00E94B8018091B0
:100DE0007204C7FD02C08D7F01C0826080937204CF
:100DF000CF910895AF92BF92CF92DF92FF920F935F
:100E00001F93CF93DF93F0900101D090DF0386E032
:100E10008093D003C0E0D6E0BCE3AB2EB12C09E157
:100E200010E08091D30380FD93C08091D3038111A2
:100E300004C08091D203882319F0D093D00305C059
:100E40008091D003811101C02AC08091D30381FF1A
:100E500029C01092D303C11110C06D2D8F2D0E9497
:100E6000CB06809173048160809373048091740435
:100E7000816080937404C1E015C0C13081F46D2D90
:100E80008F2D0E94CB06809176048160809376043A
:100E900080917704816080937704C2E003C0109250
:100EA0008B0456C08091D30382FD04C08091D2038D
:100EB00082FFB7CF1092D303C13001F58F2D992750
:100EC00087FD90950D96B8010E94701DC82EA4EF65
:100ED000FA2EF80E6D2D8F2D0E94CB069091730483
:100EE0009160909373049091740491609093740452
:100EF000F09201016C2D8DE090E01DC0C230E9F44C
:100F00008D2D90E00196B5010E94701DC82ED82E3F
:100F1000682F8F2D0E94CB0680917604816080938C
:100F2000760480917704816080937704C092DF0318
:100F30006C2D8EE090E00E940D1E8091D20382FF06
:100F400070CF0E9428028BE490E00E94980069CF45
:100F5000DF91CF911F910F91FF90DF90CF90BF90C5
:100F6000AF9008950F931F93CF93DF931092720465
:100F70008C01C3E7D4E0F80181918F018823C1F08F
:100F8000982F91569A3120F40E94B00488830BC0A8
:100F900080538A3038F4E82FF0E0E553FF4FE491B6
:100FA000E88301C018822196F4E0CB37DF0719F7F8
:100FB000DF91CF911F910F910895109279041092B3
:100FC0007A0440911A0160911B01809119010E94DD
:100FD00067048430B1F030F4823069F078F4813005
:100FE000E9F406C0863099F078F08730B9F412C081
:100FF0008AE591E011C081E691E00EC088E691E0BB
:101000000BC080E791E008C089E791E005C082E865
:1010100091E002C089E891E00E94B20788EE93E077
:101020000E9498001092760410927704109278042F
:1010300080911B01863059F168F48330F9F028F46F
:101040008130B1F08230C9F516C08430D1F08530DE
:10105000A1F51AC0893021F128F48730D9F0883001
:1010600061F51BC08B3011F1F0F08C3031F521C0EF
:1010700082E991E020C086E991E01DC08AE991E013
:101080001AC080EA91E017C086EA91E014C08AEAAB
:1010900091E011C08FEA91E00EC084EB91E00BC0AB
:1010A0008AEB91E008C08FEB91E005C085EC91E000
:1010B00002C08BEC91E00E94B20760911A0140E0FF
:1010C00087E00E94B80188EE93E00E94980081EDCD
:1010D00091E00E94B2076091190140E084E00C9415
:1010E000B801811126C01092720482E080937504C9
:1010F000809378048091EC03811109C060911B01F9
:1011000040E081E00E94B80160911A0108C060913E
:101110001A0140E081E00E94B80160911B0140E0AB
:1011200084E00E94B8016091190140E087E00C94CE
:10113000B801813011F40C94DD070895CF93DF934B
:1011400081E090E00E94051E64E60E94421D90939B
:10115000190182E090E00E94051E6DE00E94421D90
:1011600090931B0183E090E00E94051E8F71809395
:101170001A0180E00E94710864EF71E080E090E065
:101180000E94A50084E090E00E94051ED8E16D2F2A
:101190000E94421D9093580485E090E00E94051E35
:1011A000CCE36C2F0E94421D90937C0486E090E07B
:1011B0000E94051E6C2F0E94421D9093990440913D
:1011C000990460917C04809158040E94B60464EFF5
:1011D00071E080E090E00E94A50088E090E00E942D
:1011E000051E6C2F0E94421D90935A0487E090E0E8
:1011F0000E94051E6D2F0E94421D9093810481E084
:101200008093E4038EE190E00E94051E982F905C8D
:10121000913818F48093EF0307C01092EF0360E059
:101220008EE190E00E940D1E80E28093B600109245
:10123000B2008FE78093B30082E08093B00096E025
:101240009093B100809370007894DF91CF910895CE
:101250004A9B25C080917E04811146C081E0809325
:101260007E041092D8031092D7038091E60388235E
:10127000D9F180918B04811137C08AED91E00E94F1
:10128000B20783E680938B0488EE93E00E94980077
:1012900060915A04809181040E94A2051FC0809130
:1012A0007E04882309F110927E041092D8031092D4
:1012B000D70380918804882351F01092880480918C
:1012C00081008D7F8093810085B1866085B983EE32
:1012D00091E00E94B20783E680938B0488EE93E04E
:1012E0000E94980010928B0408951F920F920FB6DF
:1012F0000F9211242F933F934F935F936F937F939C
:101300008F939F93AF93BF93CF93EF93FF931DBAA8
:1013100089E60E94D119C9B178948AE090E00E94D0
:10132000980089B1C4702C2F30E0847090E02817A9
:10133000390709F002C00E94280981E08DBBFF91A6
:10134000EF91CF91BF91AF919F918F917F916F91CD
:101350005F914F913F912F910F900FBE0F901F9073
:1013600018951F93CF93DF9386E08093D00389E095
:1013700090E00E94051EC82FD0E016E08091D303B4
:10138000811104C08091D203882319F01093D003F7
:1013900005C08091D003811101C020C08091D3038A
:1013A00080FD3FC08091D30381FF1BC01092D30307
:1013B000D1110BC08CEE91E00E94B20741E06C2F7E
:1013C00081E00E94B801DFE00CC085EF91E00E944F
:1013D000B2076C2F89E090E00E940D1E10928B04E2
:1013E00020C08091D30382FD04C08091D20382FF8C
:1013F000C5CF1092D303DF3049F4CF5FC43608F075
:10140000C0E041E06C2F81E00E94B8018091D203DE
:1014100082FFB4CF0E9428028BE490E00E949800E3
:10142000ADCFDF91CF911F9108958091EA03843071
:1014300051F148F48130B9F098F08230F1F0833006
:1014400009F041C01DC0873039F128F48530F1F032
:101450008630C9F51EC0883049F18930A1F52AC00F
:101460008EEF91E025C087E092E00E94B207809164
:101470007A04816080937A04089580E192E018C034
:1014800089E192E015C082E292E012C08BE292E024
:101490000FC084E392E00CC08DE392E00E94B2079B
:1014A00080917904816080937904089586E492E0C4
:1014B0000C94B2078FE492E00E94B2078091780406
:1014C0008160809378040895CF93DF9386E08093C2
:1014D000D003C0E0D6E08091D303811104C0809195
:1014E000D203882319F0D093D00305C08091D00394
:1014F000811101C016C08091D30380FD39C0809155
:10150000D30381FF11C01092D303C11104C00E9404
:10151000150ACEE009C06091EA0380E290E00E94E3
:101520000D1E10928B0424C08091D30382FD04C051
:101530008091D20382FFCFCF1092D303CE3069F4D3
:101540008091EA038F5F8093EA038091EA038A30F7
:1015500010F01092EA030E94150A8091D20382FFD4
:10156000BACF0E94280284E690E00E949800B3CF90
:10157000DF91CF9108951F93CF93DF9386E08093FF
:10158000D0038EE190E00E94051E8093EF03C0E03F
:10159000D6E010EC8091D303811104C08091D20376
:1015A000882319F0D093D00305C08091D003811116
:1015B00001C01EC08091D30380FD44C08091D3033D
:1015C00081FF19C01092D303C1110CC088E592E0CD
:1015D0000E94B20741E06091EF0386E00E94920111
:1015E000C8E009C06091EF038EE190E00E940D1EFB
:1015F00010928B0427C08091D30382FD04C0809198
:10160000D20382FFC7CF1092D303C83081F48091F8
:10161000EF038F5F80341CF48093EF0302C01093BC
:10162000EF0341E06091EF0386E00E949201809118
:10163000D20382FFAFCF0E9428028BE490E00E9489
:101640009800A8CFDF91CF911F9108958091EC036E
:10165000811103C08FE592E002C088E692E00C940D
:10166000B207CF93DF9386E08093D0038CE090E0C5
:101670000E94051E8093EC03C0E0D6E001C0C0E0EC
:101680008091D303811104C08091D203882319F083
:10169000D093D00305C08091D003811101C010C048
:1016A0008091D30380FD27C08091D30381FF0BC0BD
:1016B0001092D303C11104C00E94260BC1E003C0E5
:1016C00010928B0418C08091D30382FFD9CF10925F
:1016D000D303C130A1F681E09091EC03911180E039
:1016E0008093EC030E94260B6091EC038CE090E069
:1016F0000E940D1EC5CFDF91CF9108958091700497
:10170000882351F081E792E00E94B20780917A0429
:10171000816080937A0404C08AE792E00E94B20755
:101720008091770481608093770480917804816050
:10173000809378048091790481608093790408957E
:101740001F93CF93DF9386E08093D0038BE090E0EC
:101750000E94051ED82FC0E016E001C0C0E08091B5
:10176000D303811104C08091D203882319F0109310
:10177000D00305C08091D003811101C010C08091B9
:10178000D30380FD2AC08091D30381FF0BC0109248
:10179000D303C11104C00E947E0BC1E003C01092AC
:1017A0008B041BC08091D30382FFD9CF1092D30347
:1017B000C130A1F681E0D11180E0D82F682F8BE0F5
:1017C00090E00E940D1E0E94FB0161E080EA9FE014
:1017D0000E9491020E947E0BC2CFDF91CF911F9198
:1017E00008956091E30340E087E00E94B80183E838
:1017F00092E00C94B20780917F04813219F48BE857
:1018000092E009C080917F04813019F484E992E06C
:1018100002C08DE992E00C94B2070F931F93CF930F
:10182000DF9386E08093D00382E190E00E94051E62
:101830008093710483E190E00E94051E80939704D9
:101840001092EB03C0E0D6E012E30AE08091D303EC
:10185000811104C08091D203882319F0D093D00362
:1018600007C08091D003811103C010928B0430C057
:101870008091D30380FD2CC08091D30381FF2CC0C5
:101880001092D303C1110AC086EA92E00E94B20707
:10189000809171040E945C04C1E01EC0C13051F40B
:1018A0008DEA92E00E94B207809197040E945C0446
:1018B000C2E012C010928B046091710482E190E04A
:1018C0000E940D1E6091970483E190E00E940D1E1E
:1018D00081E08093EB0336C08091D30382FD04C086
:1018E0008091D20382FFB2CF1092D303C13071F442
:1018F000809171048E5F80937104809171048333B1
:1019000010F000937104809171040FC0C23079F41B
:10191000809197048B5F80939704809197048B3517
:1019200010F010939704809197040E945C048091BA
:10193000D20382FF8BCF0E9428028BE490E00E94AA
:10194000980084CFDF91CF911F910F9108958091DE
:10195000EB03813019F484EB92E002C08DEB92E04E
:101960000C94B207CF93DF9386E08093D003C0E05E
:10197000D6E08091D303811104C08091D2038823E3
:1019800019F0D093D00305C08091D003811101C01C
:1019900043C08091D30380FD5EC08091D30381FF5B
:1019A0003EC01092D303C11104C00E94A70CC5E031
:1019B00036C0C530B1F486EC92E00E94B207409187
:1019C000890450918A0464E081E00E94640140919E
:1019D00084045091850463E086E00E946401C3E0C2
:1019E0001EC0C33099F40E94CB03409189045091EA
:1019F0008A0464E081E00E94640140918404509173
:101A0000850463E086E00E94640109C06091EB03F5
:101A100081E190E00E940D1E10928B041CC0809109
:101A2000D30382FFA6CF1092D303C53009F0A1CF14
:101A30008091EB03813019F41092EB0303C081E035
:101A40008093EB030E94A70C6091EB0381E190E08F
:101A50000E940D1E8ECFDF91CF9108951F93CF93DB
:101A6000DF9386E08093D003C0E0D6E019E1809157
:101A7000D303811104C08091D203882319F0D0933D
:101A8000D00305C08091D003811101C016C08091A0
:101A9000D30380FD43C08091D30381FF19C010920E
:101AA000D303C1110AC08BEC92E00E94B20780916F
:101AB0007B040E945C04C1E00BC010928B04609117
:101AC0007B048AE090E0DF91CF911F910C940D1E72
:101AD0008091D30382FD04C08091D20382FFC7CFDF
:101AE0001092D303C13079F480917B048B5F809393
:101AF0007B0480917B048B3510F010937B048091E4
:101B00007B040E945C048091D20382FFB0CF0E94CC
:101B100028028BE490E00E949800A9CFDF91CF913A
:101B20001F9108958091E103813019F482ED92E0D4
:101B300009C08091E103823019F48BED92E002C07C
:101B400084EE92E00C94B2078091DD03882319F0B3
:101B50008DEE92E002C086EF92E00C94B2071F93E4
:101B6000CF93DF9386E08093D003C0E0D6E011E00E
:101B70008091D303811104C08091D203882319F08E
:101B8000D093D00305C08091D003811101C016C04D
:101B90008091D30380FD2FC08091D30381FF11C0BA
:101BA0001092D303C11104C00E94A40DCAE009C061
:101BB0006091DD038FE190E00E940D1E10928B0476
:101BC0001AC08091D30382FFD3CF1092D303CA30BF
:101BD00079F68091DD03882319F01092DD0302C0AD
:101BE0001093DD030E94A40D6091DD038FE190E06E
:101BF0000E940D1EBDCFDF91CF911F910895CF930D
:101C000086E08093D003C6E08091D30380FD1DC0A1
:101C10008091D303811104C08091D203882319F0ED
:101C2000C093D00307C08091D003811103C01092EC
:101C30008B040BC08091D30381FFE6CF1092D303B6
:101C40008CE191E00E94B207DFCFCF91089589E047
:101C500090E00E94051E2CE3829FC0011124909306
:101C6000D8038093D7038FEF92E00E94B20783E6F8
:101C700080938B048CED95E00E94980010928B0469
:101C800008951F920F920FB60F9211242F933F9336
:101C90004F935F936F937F938F939F93AF93BF9374
:101CA000EF93FF9310926B00789418991EC0809167
:101CB000D40381FD1FC08AE090E00E94980018992B
:101CC00019C00E94280280918804882319F00E947C
:101CD000270E10C08091D40382608093D40380913A
:101CE000D30382608093D30305C08091D4038D7F9A
:101CF0008093D40381E080936B00FF91EF91BF91BB
:101D0000AF919F918F917F916F915F914F913F9193
:101D10002F910F900FBE0F901F9018951F920F924A
:101D20000FB60F9211242F933F934F935F936F93AE
:101D30007F938F939F93AF93BF93EF93FF931092F3
:101D40006D007894A8954D991BC08091D40380FDB7
:101D50001CC08AE090E00E9498004D9952C00E94F9
:101D600028028091880481112DC08091D403816064
:101D70008093D4038091D30381608093D30305C003
:101D80008091D4038E7F8093D4034C9933C080918B
:101D9000D40382FD36C08AE090E00E9498004C99FE
:101DA00030C00E94280282E08093D10314C04C9B73
:101DB00012C08091D4038B7F8093D40380918804D8
:101DC000882319F00E94270E1CC08091D3038460E1
:101DD0008093D30316C08091D1038111E8CF809105
:101DE000D40384608093D4038091D2038460809371
:101DF000D20307C01092D2038091D4038B7F8093CB
:101E0000D40380E380936D00FF91EF91BF91AF9178
:101E10009F918F917F916F915F914F913F912F9102
:101E20000F900FBE0F901F90189581E58CBD0895FF
:101E30008EBD0DB407FEFDCF0895CF93DF9300D084
:101E4000CDB7DEB7F8946A8379830E94180F798141
:101E5000872F0E94180F6A81862F0E94180F409AC0
:101E6000409878940F900F90DF91CF9108958F92C2
:101E70009F92AF92BF92CF92DF92EF92FF920F9319
:101E80001F9390910001981708F4892FE82FF0E034
:101E9000DF01AE58BB4FAC91EC58FF4FE49161E0CD
:101EA00070E002C0660F771FEA95E2F7882777FD9A
:101EB0008095982F0091F0031091F1032091F20387
:101EC0003091F30340E050E0B0E0C12CD12C76011A
:101ED000C394FD01042E02C0F595E7950A94E2F73C
:101EE000E0FF13C0FA01E659FF4F04914601570184
:101EF00004C0880C991CAA1CBB1C0A95D2F795013A
:101F00008401682979298A299B294F5F5F4F4830CE
:101F10005105F9F60093F0031093F1032093F203B7
:101F20003093F3031F910F91FF90EF90DF90CF90CC
:101F3000BF90AF909F908F900C941D0F1F920F92A7
:101F40000FB60F9211242F933F934F935F936F938C
:101F50007F938F939F93AF93BF93EF93FF93789467
:101F6000A8958091DB039091DC0301969093DC03AC
:101F70008093DB03829708F40DC11092DC0310926A
:101F8000DB038091D5039091D60301969093D603FD
:101F90008093D5038091DE030E94370F2091DE03EA
:101FA0002F5F2093DE038091DD0330E0409100013C
:101FB00090E0840F911D8217930714F41092DE03B2
:101FC0008091EA03853041F580918B04811124C012
:101FD0008091E9038F5F8093E9038739E8F01092DD
:101FE000E9038091D5039091D60367EA70E00E94DF
:101FF0005C1DCB0166E070E00E945C1D880F991F9C
:10200000FC01E058FF4FE491E0937904FC01E158B2
:10201000FF4F849180937A0480918804882309F487
:10202000B9C08091D7039091D803892B09F0B2C031
:102030008091D9039091DA0301969093DA0380930B
:10204000D9038B35910508F4A5C01092DA031092DC
:10205000D90380918C0490918D04019690938D0406
:1020600080938C0480918C0490918D0481359644EA
:1020700070F0109288041092D8031092D7038091C8
:1020800081008D7F8093810085B1866085B98091C4
:102090008604909187040196909387048093860428
:1020A000209186043091870480919A0490919B043A
:1020B0008217930730F510928704109286041092CD
:1020C0009D0410929C0480919A0490919B044597E2
:1020D00048F080919A0490919B04449790939B04BC
:1020E00080939A048091820490918304449748F4E9
:1020F000809182049091830402969093830480934C
:10210000820480919C0490919D04019690939D047B
:1021100080939C0420919C0430919D0480918204C2
:102120009091830482179307A8F180919C04909169
:102130009D044CE0489F9001499F300D1124245587
:102140003E4F40E050E060E472E48FE090E00E9497
:10215000A61D309387002093860080918600909181
:1021600087009695879590938B0080938A00909333
:1021700089008093880080919C0490919D0480FF49
:1021800004C080918100826003C0809181008D7FB6
:1021900080938100FF91EF91BF91AF919F918F91BB
:1021A0007F916F915F914F913F912F910F900FBE53
:1021B0000F901F9018958091C00080780895FC01C1
:1021C0009381905182812AE0829F900D1124258174
:1021D000205184813AE0839F200D11243091010128
:1021E0008091E3038051830F4181840F40815AE045
:1021F000459F800D1124809358048091DF0337FFA1
:1022000002C0981B01C0980F90937C0420939904FE
:1022100081E08093E6030895FC01218120518081B3
:102220003AE0839F200D11249381905182814AE0EE
:10223000849F900D11248581805134814AE0349F20
:10224000800D112420931A0190931B018093190192
:1022500081E08093E503089581E0809388041092E3
:10226000D8031092D70388EC90E090939B0480935E
:102270009A04109287041092860482E090E0909372
:1022800083048093820410928D0410928C04109227
:10229000DA031092D903089590917E04992361F096
:1022A00090918104981308C080915A04861304C049
:1022B000411102C00C942C110895CF92DF92EF923D
:1022C000FF920F93CF93DF93D22FCE2DE62FF0E026
:1022D000EE0FFF1FEC5CFE4FC080D180C40ED11CFE
:1022E000E12CF12C382F3053832F837031F4832F5E
:1022F00064E60E94421D911108C0832F90E060E9BE
:1023000071E00E94701D892B29F48FEFC81AD80A3A
:10231000E80AF80AA701960160E871E581E090E01B
:102320000E94321D6B017C012D2F30E0A0E1BEE048
:102330000E94141DC60ED71EE81EF91E202FACE306
:10234000B0E00E94141DC60ED71EE81EF91ECC0E6A
:10235000D11CE11CF11CB601C701DF91CF910F9197
:10236000FF90EF90DF90CF900895BF92CF92DF92D1
:10237000EF92FF920F931F93CF93DF931F92CDB7EE
:10238000DEB7B82EC62EF42ED02EE62FF0E0E35B9B
:10239000FE4F108182E0681304C08B2D837009F416
:1023A0001F5F41E06C2D8B2D29830E9467044F2D08
:1023B000481B2981F81608F4495F2150E7E02E9F59
:1023C000400D11244F5FE12FF0E001C04750A42FD2
:1023D000BB27A7FDB095EA17FB07C4F3E12C00E08B
:1023E0002D2D6C2D8B2D0E945D110F90DF91CF91C3
:1023F0001F910F91FF90EF90DF90CF90BF900895C5
:10240000CF93DF93C82F8091E3039091E3039C1750
:1024100071F19091E203913051F5DC2FD81B61E00E
:102420001D1644F488EB91E00E94910261E080E780
:1024300093E007C080E793E00E94910261E088EB9F
:1024400091E00E949102C093E303809158048D0FA4
:10245000809358046C2F8DE190E00E940D1E6091D6
:10246000580484E090E00E940D1E1092E203DF9178
:10247000CF9108954F925F926F927F928F929F9229
:10248000AF92BF92EF920F93CF93B0901401A090B0
:1024900015019090160180901701C091180180914C
:1024A00019010091130120911201409111016091D5
:1024B00010010E94B5112B013C0180911901082DDA
:1024C000292D4A2D6B2D0E94B5114B015C01E09026
:1024D000990400917C042091580440911A01609164
:1024E0001B01809119010E945D11481459046A046E
:1024F0007B0444F464157505860597050CF007C048
:1025000080E00BC064157505860597052CF46815E9
:1025100079058A059B05A4F78C2FCF910F91EF9039
:10252000BF90AF909F908F907F906F905F904F90F3
:102530000C940012809199048C3354F0809199048A
:102540008C538093990480917C048F5F80937C04EA
:102550008091990487FF0AC080919904845C8093DC
:10256000990480917C04815080937C0480917C0448
:102570008C3354F080917C048C5380937C04809144
:1025800058048F5F8093580480917C0487FF0AC0B1
:1025900080917C04845C80937C04809158048150F9
:1025A0008093580480919904811114C080917C0417
:1025B000811110C08091E10381110CC06091580419
:1025C00084E090E00E940D1E60917C0485E090E024
:1025D0000E940D1E80915804883184F08091580427
:1025E00088518093580480911A018F5F80931A015B
:1025F00060911A0183E090E00E940D1E80915804C2
:1026000087FF10C080915804885E809358048091A1
:102610001A01815080931A0160911A0183E090E0C1
:102620000E940D1E80911A01803268F580911A0176
:102630008F3181F480911B01843029F180911B013D
:10264000863009F180911B018930E9F080911B01EE
:102650008B30C9F080911A018E3121F480911B01D9
:10266000823089F080911A018D31D9F480911B015B
:102670008230B9F48091190190E08053984F0E9404
:10268000DF0181110EC081E080931A0180911B014E
:102690008F5F80931B0160911B0182E090E00E949C
:1026A0000D1E80911A01811144C080911B0186305A
:1026B000B9F058F48330E1F018F4813088F110C09B
:1026C000843071F0853061F50FC08A3018F488309D
:1026D00038F40AC08B3021F038F08C3009F504C092
:1026E00080911A01815E14C080911A01825E10C02F
:1026F0008091190190E08053984F0E94DF01882358
:1027000021F080911A01835E03C080911A01845EDA
:1027100080931A0180911B01815080931B0103C09B
:1027200081E080931A0160911B0182E090E00E9499
:102730000D1E80911B018D3070F0809119018F5F0B
:102740008093190181E080931B016091190181E060
:1027500090E00E940D1E80911B01811116C0809196
:102760001B01845F80931B0180911901815080932C
:1027700019016091190181E090E00E940D1E6091A5
:102780001B0182E090E00E940D1E8091990481114E
:1027900011C080917F04813211F40E943A1280911D
:1027A0007C04811107C080915804811103C081E02D
:1027B0008093E20308958091E403882381F146E049
:1027C00050E062E071E083E694E00E94E81D00972B
:1027D000B1F444E050E069E071E080E994E00E94E7
:1027E000E81D009761F41092E00380E994E00E94F4
:1027F000DF1083E694E00E940C110E949A1246E0DA
:1028000050E063E674E082E091E00E94F61D46E04D
:1028100050E060E974E089E091E00C94F61D0895C1
:102820000F931F93CF93DF931F92CDB7DEB78091A5
:10283000C6008983E4EFF3E001900020E9F73197C7
:10284000E45FF340E11104C0843209F0EFC005C039
:10285000E33608F0E4C08D3051F041E050E0BE01B5
:102860006F5F7F4F84EF93E00E94D81DDFC068E068
:1028700073E084EF93E00E94C21D47E050E06AE0FD
:1028800073E084EF93E00E94E81D009709F0C7C051
:1028900085EF93E090938F0480938E0410928004D0
:1028A0000AC0809180048927809380043196F09338
:1028B0008F04E0938E04E0918E04F0918F04908158
:1028C0009A3279F7918182819A3310F0975301C03F
:1028D00090538A3310F0875301C0805320E1929FB8
:1028E000800D112480937D0490918004981397C0EB
:1028F0006CE270E084EF93E00E94CD1D90938F0412
:1029000080938E04019626E0FC01A0E9B4E00190DA
:102910000D922A95E1F7109296046CE270E00E9405
:10292000CD1D90938F0480938E04DC0111962C9121
:1029300020939804213409F072C06CE270E0019693
:102940000E94CD1D90938F0480938E04FC014181E1
:1029500052816381748140936A0450936B04609345
:102960006C0470936D042681378130936F0420933B
:102970006E046CE270E001960E94CD1D90938F046E
:1029800080938E04DC0111962C9120935B046CE201
:1029900070E001960E94CD1D90938F0480938E0469
:1029A0009C012F5F3F4F45E0F901ACE5B4E0019099
:1029B0000D924A95E1F7FC0187819085909362041E
:1029C000809361046CE270E0C9010E94CD1D909378
:1029D0008F0480938E04DC0111968C9180935904AE
:1029E00003E010E080918E0490918F046CE270E01F
:1029F00001960E94CD1D90938F0480938E04015008
:102A0000110981F7FC01319686E0A3E6B4E001905C
:102A10000D928A95E1F7109269040E94DB1384E617
:102A2000E4EFF3E0DF011D928A95E9F70F90DF9163
:102A3000CF911F910F9108951F920F920FB60F9291
:102A400011242F933F934F935F936F937F938F93B3
:102A50009F93AF93BF93EF93FF9380E880936100C0
:102A600010926100809199048F5F809399040E9475
:102A70009A1280917C04882329F08091E7038823AF
:102A8000C9F090C080919904811104C08091EF0336
:102A9000815805C080919904813019F48FE78093A3
:102AA000B30080919904823044F78091B60083FD91
:102AB000FCCFE3CF8091E003803118F48F5F8093E7
:102AC000E00380918B04811133C08091E603811172
:102AD00007C08091990480FF03C082E193E012C097
:102AE0008091E103882389F08091E003803168F0D0
:102AF0008091EA03813049F08091990480FF05C0FC
:102B00008BE193E00E94B20708C040919904609164
:102B10007C04809158040E94B60490917E048091B8
:102B20007204992311F0826001C08D7F809372043A
:102B30008091E603882341F04091990460917C04E0
:102B4000809158040E944C110E94CB038091D003C5
:102B5000882329F08091D00381508093D003809105
:102B6000D103882329F08091D10381508093D10330
:102B70008091D7039091D8030097A1F0019790938B
:102B8000D8038093D7032091720480FF04C0226091
:102B90002093720407C02D7F20937204892B11F4B7
:102BA0000E942C11FF91EF91BF91AF919F918F9156
:102BB0007F916F915F914F913F912F910F900FBE39
:102BC0000F901F901895FF920F931F93CF93DF9351
:102BD00000E111E0C4E1D0E0FF24F394F801619139
:102BE0008F01CE010E940D1EF092E20380917F04BE
:102BF000813211F40E943A122196CD31D10571F73C
:102C0000DF91CF911F910F91FF9008951F93CF9364
:102C1000DF9386E08093D003C0E0D0E016E080919F
:102C2000D303811104C08091D203882319F010933B
:102C3000D00309C08091D003811105C00E94E31523
:102C400010928B0453C08091D30380FD1DC08091EE
:102C5000D30381FF1EC01092D303D11109C084E2B7
:102C600093E00E94B2078C2F0E94D001DDE011C0DA
:102C7000DD3041F4CF5FC93008F0C0E08C2F0E94F6
:102C8000D00107C010928B04DF91CF911F910C945B
:102C9000E3158091D30382FD04C08091D20382FFAB
:102CA000BECF1092D303DD30B1F42C2F30E0F90108
:102CB000E05FFE4F80818F5F8083D901AC5DBE4FA6
:102CC0009C91981728F4D901A35DBE4F8C91808305
:102CD0008C2F0E94D0018091D20382FFA0CF0E944E
:102CE00028028BE490E00E94980099CFDF91CF9169
:102CF0001F9108950F931F93CF93DF9386E08093E6
:102D0000D003C0E016E0D1E001E28091D30381114D
:102D100004C08091D203882319F01093D00305C01A
:102D20008091D003811101C016C08091D30380FD32
:102D30005AC08091D30381FF11C01092D303C111F7
:102D400004C00E94FB0BC7E009C0C73021F40E94F9
:102D5000F10BC8E003C010928B0445C08091D303EF
:102D600082FFD3CF1092D303C73079F680917F04CE
:102D7000813039F400937F048093E2030E943A1279
:102D800029C080917F04813261F410927F04809188
:102D9000E3038823F9F01092E303809158048150F3
:102DA0000BC0D0937F048091E303811113C0D093B3
:102DB000E303809158048F5F809358046091E3038C
:102DC0008DE190E00E940D1E6091580484E090E037
:102DD0000E940D1E0E94FB0B60917F048FE090E02B
:102DE0000E940D1E92CFDF91CF911F910F910895F8
:102DF000EF92FF920F931F93CF93DF9386E0809320
:102E0000D00310E0C6E0FC2EC6E0D0E001E082E096
:102E1000E82E8091D303811104C08091D2038823CE
:102E200019F0F092D00307C08091D003811103C044
:102E300010928B0464C08091D30380FD60C08091A8
:102E4000D30381FF2BC01092D303812F90E0019612
:102E5000BE010E94701D182F83309105B9F034F423
:102E60008130910559F0029731F40BC084309105FF
:102E700081F0059789F08DE293E005C00E94920DE4
:102E80000DC086E393E00E94B20708C00E941C01B7
:102E900005C08FE393E0F7CF0E9441018091D303F7
:102EA00082FFB7CF1092D303113009F0B2CF8091D7
:102EB000E103811105C01093E10387E690E008C0AB
:102EC0008091E103813039F4E092E10384E390E002
:102ED0000E94C41902C01092E1030E94920D6091F9
:102EE000E10380E190E00E940D1E80917F04813219
:102EF00009F08FCF0093E2030E943A128ACFDF914C
:102F0000CF911F910F91FF90EF9008950F931F9312
:102F1000CF93DF9386E08093D003C0E0D6E011E04A
:102F200004E68091D303811104C08091D2038823E9
:102F300019F0D093D00307C08091D003811103C052
:102F400010928B04F1C08091D30380FDEDC080917D
:102F5000D30381FF7AC01092D303C11115C08091B1
:102F6000EC03811102C0C1E001C0C2E080E00E9418
:102F7000710880917304816080937304809174045C
:102F800081608093740461C0C13029F48091EC03A6
:102F9000882339F01EC0C23069F58091EC0381307E
:102FA000A9F48091EC03811102C0C2E001C0C1E02C
:102FB00080E00E947108809176048160809376049D
:102FC000809177048160809377043FC0882319F053
:102FD00011C0813079F480E00E94710880917904F9
:102FE00081608093790480917A04816080937A046F
:102FF000C3E02BC083E680938B0480E00E947108BD
:103000008CED95E00E94980010928B0480917F04D3
:10301000813229F481E08093E2030E943A126091A8
:10302000190181E090E00E940D1E60911B0182E079
:1030300090E00E940D1E60911A0183E090E0DF9104
:10304000CF911F910F910C940D1E8091D30382FD9F
:1030500004C08091D20382FF64CF1092D303C130A9
:1030600099F480911B018F5F80931B0180911B015C
:103070008D3010F0C0931B0180E00E947108809198
:10308000EC03811120C014C0C23041F580911A01B7
:103090008F5F80931A0180911A01803210F0109393
:1030A0001A0180E00E9471088091EC03813059F48C
:1030B00080917304816080937304809174048160B3
:1030C0008093740426C08091760481608093760496
:1030D000809177048160809377041BC0C330C9F46A
:1030E000809119018F5F8093190180911901602FE0
:1030F0000E94421D9093190180E00E947108809106
:10310000790481608093790480917A04816080934E
:103110007A048091D20382FF04CF0E9428028CE3BC
:1031200090E00E949800FDCEDF91CF911F910F910A
:1031300008958F929F92BF92DF92EF92FF920F932A
:103140001F93CF93DF93F0905804E0907C04D090CD
:10315000990486E08093D00310E006E0CCE3D0E051
:1031600098E1892E912C8091D30380FDEBC0809152
:10317000D303811104C08091D203882319F00093F6
:10318000D00307C08091D003811103C010928B043B
:10319000D9C08091D30381FF6EC01092D303111167
:1031A00017C0F0905804E0907C04D09099044D2D05
:1031B0006E2D8F2D0E94B6048091730481608093E0
:1031C00073048091740481608093740411E053C08F
:1031D000113089F44D2D6E2D8F2D0E94B6048091F3
:1031E0007604816080937604809177048160809377
:1031F000770412E040C0123089F44D2D6E2D8F2DD2
:103200000E94B60480917904816080937904809152
:103210007A04816080937A0413E02DC0F092580400
:10322000E0927C04D092990410928B0480917F04E8
:10323000813229F481E08093E2030E943A12609186
:10324000580484E090E00E940D1E60917C0485E0AB
:1032500090E00E940D1E6091990486E090E0DF915D
:10326000CF911F910F91FF90EF90DF90BF909F90B3
:103270008F900C940D1E8091D30382FD04C0809129
:10328000D20382FF70CF1092D3031130C9F48F2D77
:1032900090E00196B4010E94701DB82EF82E4D2DBD
:1032A0006E2D0E94B6048091730481608093730434
:1032B00080917404816080937404B092580437C084
:1032C0001230D1F48E2D90E00196BE010E94701D47
:1032D000B82EE82E4D2D682F8F2D0E94B6048091B8
:1032E0007604816080937604809177048160809376
:1032F0007704B0927C041BC01330C9F48D2D90E08C
:103300000196BE010E94701DB82ED82E482F6E2D3A
:103310008F2D0E94B6048091790481608093790496
:1033200080917A04816080937A04B09299048091AC
:10333000D20382FF18CF0E9428028BE490E00E9403
:10334000980011CFDF91CF911F910F91FF90EF90D7
:10335000DF90BF909F908F90089505C081509EE1AF
:1033600000009150E9F78111F9CF08950AC02FEFBD
:1033700039E698E1215030409040E1F700C000006C
:1033800081508111F4CF08959093C5008093C400BB
:1033900088E18093C1008EE08093C200519A5098DA
:1033A00008959091C00095FFFCCF8093C60080E007
:1033B00090E008958091C00087FFFCCF8091C60007
:1033C00008958091C00080780895EF92FF921F9336
:1033D000CF93DF931F92CDB7DEB77C0110E005C01D
:1033E00069830E94D1191F5F6981F701E10FF11D07
:1033F00084918111F5CF662361F08AE00E94D11992
:103400008DE00F90DF91CF911F91FF90EF900C9482
:10341000D1190F90DF91CF911F91FF90EF900895F8
:10342000CF93DF93EC0102C00E94D11989918111E1
:10343000FBCFDF91CF910895CF93C82F82958F70E6
:103440008A3010F4805D01C0895A0E94D1198C2FF6
:103450008F70282F30E02A30310514F4805D01C0D0
:10346000895ACF910C94D119CF93C82F892F0E94DC
:103470001C1A8C2FCF910C941C1ACF92DF92EF92D2
:10348000FF926B017C01C7010E94341AC601FF90B4
:10349000EF90DF90CF900C94341AAF92BF92CF92FE
:1034A000DF92EF92FF920F931F93CF93DF931F92C0
:1034B000CDB7DEB77C0105E010E020E080E1A82E6A
:1034C00087E2B82E9AE0C92ED12CC701B5010E941F
:1034D0005C1D862F611106C0211104C091E0A91660
:1034E000B10431F4805D69830E94D11921E06981C2
:1034F0006A9DC0016B9D900D1124E81AF90AC5015F
:10350000B6010E945C1D5B0101501109F1F60F909C
:10351000DF91CF911F910F91FF90EF90DF90CF90AF
:10352000BF90AF9008952F923F924F925F926F920B
:103530007F928F929F92AF92BF92CF92DF92EF9243
:10354000FF921F93CF93DF931F92CDB7DEB74B014E
:103550005C012AE0222E312C10E0C12C3AECD32E53
:103560003AE9E32E3BE3F32E4AE0442E512C612C42
:10357000712CC501B401A70196010E94841D822F00
:10358000211108C0111106C091E0C916D104E1044F
:10359000F10431F4805D29830E94D11911E0298161
:1035A000A22FB0E0A70196010E94271D861A970A54
:1035B000A80AB90AC701B601A30192010E94841D9D
:1035C00069017A01E1E02E1A310899F60F90DF9136
:1035D000CF911F91FF90EF90DF90CF90BF90AF9071
:1035E0009F908F907F906F905F904F903F902F9023
:1035F000089515BC569A5E9884B714BE90E00E9458
:10360000341A88E10FB6F89480936000109260003D
:103610000FBE2FE088E190E00FB6F894A895809354
:1036200060000FBE20936000A8951092E6031092F0
:10363000E5031092E2031092E40387E690E00E9413
:10364000C41988E480BF61E070E080E090E00E94EF
:10365000A50000B605FE06C080B7806180BF0E944D
:103660009E08FBC00E9409015B9881E0809369007D
:103670008DBB10928B0481E58CBD82E190E00E94AD
:10368000051E8093710483E190E00E94051E8093E3
:1036900097048AE090E00E94051E80937B0481E1FC
:1036A00090E00E94051E8093EB038091EB03813034
:1036B00019F48091970402C080917B040E94EE036C
:1036C00078948DE090E00E94051E982F9C50909376
:1036D0000101893110F0109201018EE090E00E940A
:1036E000051E8093DF038D3310F01092DF030E94DC
:1036F000FB010E9495020E94B00380E090E00E94CE
:10370000051EC82F81E290E00E94051EC13011F411
:103710008A3239F044EF51E062E088EB91E00E9498
:103720004B028CE090E00E94051E8093EC038FE03A
:1037300090E00E94051E80937F048DE190E00E943E
:10374000051E8093E30384E190E00E94051E8093B0
:10375000100185E190E00E94051E8093110186E131
:1037600090E00E94051E8093120187E190E00E9484
:10377000051E8093130188E190E00E94051E80934E
:10378000140189E190E00E94051E809315018AE1F1
:1037900090E00E94051E809316018BE190E00E944C
:1037A000051E809317018CE190E00E94051E809316
:1037B000180180E190E00E94051E8093E103809152
:1037C000E103813019F487E690E006C08091E103BF
:1037D000823021F484E390E00E94C41980E290E0FA
:1037E0000E94051E8093EA038FE190E00E94051E6F
:1037F0008093DD038091DD03823010F01092DD03B1
:1038000083E680938B0488E493E00E94B20744E649
:1038100050E061E080EC9DE00E944B0264EF71E0BB
:1038200080E090E00E94A5000E949E08A89544E6D2
:1038300050E061E080EC9DE00E944B0282E193E069
:103840000E94B20788EC90E00E94980010928B04CE
:1038500081E08093E2030E94280903E611E0C1E1C0
:10386000D0E0A89500B605FE03C00E94DC00F9CFA9
:103870008091D30380FFB6C01092D30380918B0454
:10388000833649F080918B0490E00196BE010E943E
:10389000701D80938B0480918B04883009F46AC07A
:1038A00080F48430D9F138F4823041F170F5813000
:1038B00009F0AEC01CC0863009F44EC008F07DC0CF
:1038C00044C08C3009F45DC030F48A3009F483C000
:1038D00008F06CC033C08E3009F45AC008F474C0CC
:1038E0008F3009F45CC0803109F092C020C088E4B8
:1038F00093E00E94B2070E94FF0D8AC081E593E029
:103900000E94B2070E94FF0583C08AE593E00E94EF
:10391000B2070E9499181093E6037AC083E693E0F9
:103920000E94B2070E9486171093E50371C08CE6CF
:1039300093E00E94B2070E94FA066AC08DE293E00B
:103940000E94B2070E94F81663C085E793E00E94C8
:10395000B2070E94B20C5CC08EE793E00E94B207EF
:103960008091EB03882319F00E940D0C51C00E9436
:103970002E0D4EC087E893E00E94B2070E94BB0A5A
:1039800047C080E993E00E94B2070E94310B40C01B
:1039900089E993E00E94B2070E94640A39C082EA72
:1039A00093E00E94B2070E94B10932C08BEA93E013
:1039B0000E94B2070E94A00B2BC084EB93E00E94F0
:1039C000B2070E947A1624C08DEB93E00E94B207E2
:1039D0000E9406161DC086EC93E00E94B2070E946A
:1039E000AF0D16C08091D30381FD04C08091D30335
:1039F00082FF0EC01092D30300938B040E94DD0758
:103A0000A89588EE93E00E949800A89510928B04E8
:103A10008091E103882309F424CF8091C00087FFBF
:103A200020CF0E9410141DCFA29FB001B39FC001F0
:103A3000A39F01D0B29F700D811D1124911D089587
:103A40000E94141DB7FF0895821B930B08950E94D6
:103A5000141DA59F900DB49F900DA49F800D911DE6
:103A600011240895DB018F939F930E94271DBF911E
:103A7000AF91A29F800D911DA39F900DB29F900DBD
:103A800011240895991B79E004C0991F961708F036
:103A9000961B881F7A95C9F78095089587FB082E95
:103AA000062687FD819567FD61950E94421D0EF4F3
:103AB000919507FC81950895AA1BBB1B51E107C096
:103AC000AA1FBB1FA617B70710F0A61BB70B881FAE
:103AD000991F5A95A9F780959095BC01CD0108953D
:103AE00097FB072E16F4009407D077FD09D00E94AB
:103AF0005C1D07FC05D03EF4909581959F4F08957D
:103B0000709561957F4F0895A1E21A2EAA1BBB1BE9
:103B1000FD010DC0AA1FBB1FEE1FFF1FA217B30799
:103B2000E407F50720F0A21BB30BE40BF50B661FAF
:103B3000771F881F991F1A9469F760957095809573
:103B400090959B01AC01BD01CF010895052E97FB17
:103B500016F4009407D057FD0DD00E94841D07FC79
:103B600009D07EF490958095709561957F4F8F4F29
:103B70009F4F089550954095309521953F4F4F4F59
:103B80005F4F0895FB01DC010D900020E9F71197CC
:103B900001900D920020E1F70895FC0181918617B4
:103BA00021F08823D9F7992708953197CF010895F7
:103BB000FB01DC010D900020E9F7119741505040C6
:103BC00028F0019000200D92C9F708951C920895E5
:103BD000FB01DC014150504030F08D910190801983
:103BE00019F40020B9F7881B990B0895FB01DC013B
:103BF0004150504048F001900D920020C9F701C09B
:103C00001D9241505040E0F70895F999FECF92BDC2
:103C100081BDF89A992780B50895262FF999FECF8E
:103C200092BD81BDF89A019700B4021639F01FBA0F
:103C300020BD0FB6F894FA9AF99A0FBE0895262F70
:103C4000F999FECF1FBA92BD81BD20BD0FB6F89481
:0E3C5000FA9AF99A0FBE01960895F894FFCFE4
:103C5E0008F8303030303030003030303030300016
:103C6E00030102020B010102012F0E033133303624
:103C7E003231776D0C0507170C050717010101018D
:103C8E0000010101000000001F003B005A007800F7
:103C9E009700B500D400F300110130014E011F1C36
:103CAE001F1E1F1E1F1F1E1F1E1F73756E64617940
:103CBE00006D6F6E6461790074756573646179006F
:103CCE007765646E65736479007468757273646188
:103CDE0079006672696461790073617475726461EA
:103CEE0079006A616E00666562006D6172636800DC
:103CFE00617072696C006D6179006A756E65006A3B
:103D0E00756C790061756773740073657074006FFC
:103D1E0063746F62006E6F76656D00646563656DCA
:103D2E0000203230303020202000616C61726D2016
:103D3E006F6E00616C726D206F6666002020206DC4
:103D4E00696E75740020736176696E672000206657
:103D5E00756C6C202020002066756C6C677073008B
:103D6E00206469616C31202000206469616C32200E
:103D7E002000206469616C33202000206469616C2E
:103D8E003420200020616D2D706D20200020616D8B
:103D9E002D706D2E2000206E6F6E6520202000206D
:103DAE006E6F6E652E202000647266742020007582
:103DBE0073612D31326872006575722D32346872FE
:103DCE0000766F6C206869676800766F6C206C6F88
:103DDE007720006F666673657420006473742061CB
:103DEE0075746F00647374206F6E2020006473749A
:103DFE00206F666620006272746C6F2000627274AF
:103E0E00686920006164696D206F6E2000616469CD
:103E1E006D206F666600616463200062726974656E
:103E2E002000677073206F6E343800677073206FD8
:103E3E006E393600677073206F666620006F6E20D5
:103E4E002038383838006F666620383838380073B6
:103E5E006E6F6F7A696E67002A00244750524D4389
:103E6E002C00202020202020202000206E6F206794
:103E7E007073200072756C6530203030007365747D
:103E8E00206770732000677073206C617420006768
:103E9E007073206C6F6E6700696365207475626560
:103EAE000073657420616C617200736574207469AF
:103EBE006D650073657420646174650073657420AC
:103ECE007A6F6E6500736574206164696D00736549
:103EDE007420627269740073657420647266740073
:103EEE00736574207265676E007365742073656305
:103EFE00730073657420736E6F7A00736574207629
:103F0E006F6C200073657420647374200073657485
:103F1E002072756C6500736574206C6462620000BB
:00000001FF
