:100000000C9479000C948D0A0C9496000C94D90FE2
:100010000C9496000C9426100C9496000C94B71631
:100020000C9496000C9496000C9496000C949600F8
:100030000C9496000C9496000C9496000C949600E8
:100040000C9436110C9496000C9496000C94960027
:100050000C9496000C94FE030C9496000C943903B7
:100060000C9496000C9496006A000B10120F0D0E63
:100070001113740003070809060A050C047F000425
:1000800000020008000020000200408D00C080C275
:10009000004202020A001A10183010320022020236
:1000A0000600868084A70080808000400020001029
:1000B0000010100010000800040080BD000E620E49
:1000C000200E400C6004620862CB00FC60DAF2662D
:1000D000B6BEE0FEF6D700FA3E1A7ADE8EF62E6045
:1000E00078AE1CAA2A3ACEF30AB61E3838B86E7615
:1000F000DA0011241FBECFEFD8E0DEBFCDBF13E082
:10010000A0E0B1E0EAE2FCE302C005900D92A63D5A
:10011000B107D9F714E0A6EDB3E001C01D92A43AEF
:10012000B107E1F70E94261B0C94131E0C940000EB
:1001300078941092DC031092DB032091DB03309162
:10014000DC0328173907C8F30895CF92DF92EF92A6
:10015000FF926B017C01A0EDB7E09B01AC010E9416
:100160001F1D6115710581059105C1F061157105AE
:1001700021E08207910580F02AE02C9DC0012D9D91
:10018000900D112428EC30E004C0F9013197F1F70B
:1001900001970097D1F706C0CB0102C081E090E043
:1001A0000197F1F7FF90EF90DF90CF9008950197BE
:1001B000F1F70895A895089581E08093ED035B9A87
:1001C0008CB58F7B8CBD85B1877D85B95E9815BC5C
:1001D0001092760410926800459885B1897F85B9A0
:1001E0008BB18F7C8BB928988AB18F7C8AB9209883
:1001F0005A985298E1E6F0E090E8908388E0808396
:10020000449A83B7876083BF88959083108244980F
:1002100008958EE284B988E48AB989E087B984E3D5
:100220008BB981E085B995E09093680080936B006D
:1002300080E380936D000895CF93DF93109279044B
:10024000809161048E3419F410927A0403C082E024
:1002500080937A04A0E7B4E0CBE7D4E0ED91E053DB
:10026000F0E0E553FF4FE491E99384E0A637B80747
:10027000A9F780917E04816080937E04DF91CF9105
:100280000895CF93DF9380915F04853419F4109221
:10029000790403C082E080937904A2E6B4E0CAE75F
:1002A000D4E0ED91E053F0E0E553FF4FE491E993A2
:1002B00084E0A936B807A9F780917E048160809315
:1002C0007E04DF91CF910895FF920F931F93CF93F8
:1002D000DF93F62EFA94642F952FC0E0D0E00AE069
:1002E00010E0282F30E02F0D311DF7FC3A952858EB
:1002F0003B4F0EC0862FB8010E94541DFC01E553F0
:10030000FF4FE491D901AC0FBD1FEC93972F2197BC
:100310008C2F8F0D87FFEECFDF91CF911F910F9123
:10032000FF900895282F30E0F901E858FB4F67FF50
:1003300004C092E09083619501C01082A82FB0E0C4
:10034000862F6AE00E94461DE82FF0E0E553FF4F3C
:100350008491A858BB4F842B11968C931197E92F49
:10036000F0E0E553FF4FE491E42B1296EC930895EF
:10037000CF93DF93C82FD0E0CB016AE070E00E94FA
:10038000681DFB01FF27E553FF4F6491C858DB4F01
:10039000642B6883FC01FF27E553FF4FE491E42BB6
:1003A000E983DF91CF91089590E0FC01E553FF4F81
:1003B000E491E0937D04FC01E05FFE4F608141E049
:1003C00070E087E00C94B8019C0183709927892B19
:1003D00039F4C90164E670E00E94541D892B69F468
:1003E000C90160E971E00E94541D21E030E0892BD1
:1003F00011F020E030E0C901089581E090E0089517
:100400008AE090E00E94FD1D8093760485B18660AD
:1004100085B982E38093800080917604882329F057
:100420008091800080688093800088E180938100C3
:100430008AEF90E0909387008093860080918600F9
:100440009091870096958795909389008093880076
:1004500090938B0080938A000895109280001092F0
:100460008100299A2A988AE090E00E9498002A9AAE
:1004700029988AE090E00E94980085B1897F85B92B
:1004800082E38093800080917604882329F0809114
:10049000800080688093800088E1809381000895C7
:1004A000CF92DF92EF92FF92CF93C62F6A019C0109
:1004B00040E050E060E472E48FE090E00E949E1D16
:1004C000309387002093860080918600909187006A
:1004D0009695879590938B0080938A0090938900DE
:1004E00080938800E12CF12C16C0809181008260FD
:1004F00080938100C701B6010E94A5008091810010
:100500008D7F8093810085B1897F85B9C701B60150
:100510000E94A500C150C111E8CF85B1897F85B97E
:10052000CF91FF90EF90DF90CF90089544E650E098
:100530000C9450020F931F93CF93DF9380E090E0D1
:100540000E94FD1D813009F48FC061E080E090E0E1
:100550000E94051E6BE081E090E00E94051E61E0B4
:1005600082E090E00E94051E61E083E090E00E943E
:10057000051E60E084E090E00E94051E60E085E0DA
:1005800090E00E94051E60E086E090E00E94051E5B
:100590006AE087E090E00E94051E60E088E090E05D
:1005A0000E94051E62E389E090E00E94051E60E063
:1005B0008AE090E00E94051E60E08BE090E00E94DF
:1005C000051E6AE08CE090E00E94051E68EF8DE059
:1005D00090E00E94051E60E08EE090E00E94051E03
:1005E00060E08FE090E00E94051E60E080E190E016
:1005F0000E94051E6AE082E190E00E94051E6AE505
:1006000083E190E00E94051E60E081E190E00E949D
:10061000051E00E111E0C4E1D0E0F80161918F0115
:10062000CE010E94051E2196CD31D105B1F760E0C3
:100630008DE190E00E94051E60E080E290E00E9463
:10064000051E60E08EE190E00E94051E60E08FE1F3
:1006500090E00E94051E62E088EB9BE0DF91CF9165
:100660001F910F910C949602DF91CF911F910F91E2
:1006700008951F920F920FB60F9211242F933F935C
:100680004F935F936F937F938F939F93AF93BF939A
:10069000EF93FF9300B605FE49C08091ED038111F1
:1006A0004EC05B9A85B1877D85B95E988CB58F7B8E
:1006B0008CBD8091EC038823B9F060915E0484E0E6
:1006C00090E00E94051E6091820485E090E00E9407
:1006D000051E60919F0486E090E00E94051E61E087
:1006E00080ED97E00E9496028091EB038823B9F099
:1006F0006091190181E090E00E94051E60911B014C
:1007000082E090E00E94051E60911A0183E090E073
:100710000E94051E62E080ED97E00E94960215BCE3
:100720001092760410926800459804C08091ED0301
:10073000882329F0E091F303F091F4030995FF91E8
:10074000EF91BF91AF919F918F917F916F915F9149
:100750004F913F912F910F900FBE0F901F901895C2
:100760003D9A459AEAE7F0E0808186608083ACE7B5
:10077000B0E08C9180648C938C9184608C93AEE714
:10078000B0E08C9180618C938081806880838081CF
:100790008860808308958091F103813029F48091ED
:1007A0007A00806480937A00089590918E04992352
:1007B00029F080919F0480FD0EC005C08B3518F490
:1007C0008A3018F003C08AE501C08AE097B598170F
:1007D00021F087BD089582E3F9CF08950E94D503E3
:1007E00083E084BD81E085BD84B5806884BDEEE68C
:1007F000F0E0808181608083789408951F920F9249
:100800000FB60F9211242F933F934F935F936F93E3
:100810007F938F939F93AF93BF93CF93DF93EF9388
:10082000FF938091F1038130A1F580917800909140
:100830007900392F20E0282B3093900420938F04E7
:10084000223F83E0380718F0C091770405C0C091BB
:100850009D042536310510F4D0E014C0A0919D040C
:1008600080917704B0E0A81BB10924563109D0E08B
:100870000E94181D2EE833E040E050E00E947C1DED
:10088000C21BD30BD0938B04C0938A048C2F0E947D
:10089000D503FF91EF91DF91CF91BF91AF919F91E0
:1008A0008F917F916F915F914F913F912F910F9019
:1008B0000FBE0F901F901895CF93C82F41E0682F5F
:1008C00070E087E00E94B8018C2FCF910C94D50383
:1008D000CF93DF93C62FD0E0E82FF0E0E053F84F3E
:1008E000C330D10510F42C963197242F30E02F5FC0
:1008F0003F4F2E0F3F1FCE01880F991F280F391F22
:10090000CF019695879596958795280F391FCF012A
:1009100060E971E00E94541D260F371FCF0164E685
:1009200070E00E94541D261B370B219646E04C9F19
:10093000C0014D9F900D11246AE070E00E94541D8B
:10094000260F371FC90167E070E00E94541D8F5FBA
:10095000DF91CF910895E82FF0E0E553FF4F8491A8
:100960000895E82FF0E0EA58FF4F849108951F930F
:10097000CF93DF93C82FD62F142F8091910481112C
:1009800097C08091F003873068F4853008F053C039
:10099000813079F008F48CC08230E9F0833009F0BE
:1009A0008DC034C0893008F45CC0893009F086C03D
:1009B00062C0842F66E00E943A1D292F30E0220F8A
:1009C000331FF901E254FF4FE491E0937F04F901F2
:1009D000E354FF4F2CC0842F6AE00E943A1D292F58
:1009E00030E0220F331FF901E855FF4F84918093C7
:1009F0007F04F901E955FF4F24912093800440FFC3
:100A00005DC0826080937F04226012C0842F6CE0FE
:100A10000E943A1D292F30E0220F331FF901E257BF
:100A2000FF4FE491E0937F04F901E357FF4F2491D6
:100A30002093800443C0CC3018F4E7EDF0E002C00E
:100A4000E6EEF0E0E491E0937F04E3EEF0E0E49181
:100A5000E09380048091F003863081F511701E2BA5
:100A600024C010927F04109280048091F00388309B
:100A700029F511701AC040E0612F70E087E00E94F4
:100A8000B8018091E7038823C9F08091E60385309F
:100A900030F4809180048160809380040FC08031A5
:100AA00068F0117080918004182B1093800406C0A8
:100AB00040E0612F70E087E00E94B80110927E0450
:100AC00040E06D2F70E084E00E94B80110927B043A
:100AD0008091F20381112AC08C2F90E00B966CE07C
:100AE00070E00E94681D9C0101966AE070E00E941F
:100AF000681D85539F4FFC01849180937A04265F83
:100B00003F4F2331310518F41092790405C0ECEC05
:100B1000F0E0E491E093790480917804CC3010F017
:100B2000816001C08E7F8093780409C040E06C2F03
:100B300070E081E0DF91CF911F910C94B801DF91BB
:100B4000CF911F9108958F929F92BF92DF92EF9263
:100B5000FF920F931F93CF93DF93F0905E04E0908A
:100B60008204D0909F0486E08093D60310E006E0D4
:100B7000CCE3D0E0F8E18F2E912C8091D90380FD59
:100B8000E2C08091D903811104C08091D8038823E9
:100B900019F00093D60307C08091D603811103C0DA
:100BA00010929104D0C08091D90381FF65C010924A
:100BB000D903111117C0F0905E04E0908204D09028
:100BC0009F044D2D6E2D8F2D0E94B70480917904C6
:100BD00081608093790480917A04816080937A04A3
:100BE00011E04AC0113089F44D2D6E2D8F2D0E94D9
:100BF000B70480917C04816080937C0480917D04A3
:100C0000816080937D0412E037C0123089F44D2D4D
:100C10006E2D8F2D0E94B70480917F048160809398
:100C20007F048091800481608093800413E024C05D
:100C3000F0925E04E0928204D0929F04109291049C
:100C400060915E0484E090E00E94051E6091820441
:100C500085E090E00E94051E60919F0486E090E090
:100C6000DF91CF911F910F91FF90EF90DF90BF9098
:100C70009F908F900C94051E8091D90382FD04C033
:100C80008091D80382FF79CF1092D9031130C9F433
:100C90008F2D90E00196B4010E94681DB82EF82EA9
:100CA0004D2D6E2D0E94B704809179048160809350
:100CB000790480917A04816080937A04B0925E0412
:100CC00037C01230D1F48E2D90E00196BE010E9403
:100CD000681DB82EE82E4D2D682F8F2D0E94B70469
:100CE00080917C04816080937C0480917D0481608C
:100CF00080937D04B09282041BC01330C9F48D2D03
:100D000090E00196BE010E94681DB82ED82E482F93
:100D10006E2D8F2D0E94B70480917F048160809397
:100D20007F0480918004816080938004B0929F044E
:100D30008091D80382FF21CF0E942D028BE490E0A6
:100D40000E9498001ACFDF91CF911F910F91FF90D1
:100D5000EF90DF90BF909F908F900895CF93C82F12
:100D60001092800410927F0410927E0440E070E0A4
:100D700084E00E94B80110927B048091F2038111FB
:100D80003BC080917804CC3048F081608093780437
:100D9000E6EEF0E0E491E0937F0408C0E7EDF0E0D8
:100DA000E491E0937F048E7F80937804E3EEF0E09B
:100DB000E491E09380048C2F90E00B966CE070E05F
:100DC0000E94681D9C0101966AE070E00E94681D07
:100DD00085539F4FFC01849180937A04265F3F4F97
:100DE0002331310518F41092790414C0ECECF0E0D2
:100DF000E491E09379040EC08C2F90E0479668E16F
:100E000070E00E94681D019640E0BC0181E0CF9136
:100E10000C94B801CF910895CF92DF92EF92FF9298
:100E20000F931F93CF93DF93F0908704E0906004BB
:100E300086E08093D603C0E0D6E0ACE3CA2ED12C86
:100E400008E110E08091D90380FDA9C08091D90309
:100E5000811104C08091D803882319F0D093D60360
:100E60001EC08091D60381111AC010929104F09295
:100E70008704E09260046091870487E090E00E941C
:100E8000051E6091600488E090E0DF91CF911F9192
:100E90000F91FF90EF90DF90CF900C94051E809102
:100EA000D90381FF39C01092D903C11110C06E2D32
:100EB0008F2D0E94AE068091790481608093790421
:100EC00080917A04816080937A04C1E025C0C130AA
:100ED00081F46E2D8F2D0E94AE0680917C0481607E
:100EE00080937C0480917D04816080937D04C2E0C6
:100EF00013C0F0928704E09260046091870487E059
:100F000090E00E94051E6091600488E090E00E94DD
:100F1000051E1092910443C08091D90382FD04C044
:100F20008091D80382FF8ECF1092D903C130A9F4EB
:100F30008F2D90E00196B8010E94681DF82E6E2D4D
:100F40000E94AE068091790481608093790480913B
:100F50007A04816080937A0417C0C230A9F48E2D80
:100F600090E00196B6010E94681DE82E682F8F2D33
:100F70000E94AE0680917C04816080937C04809105
:100F80007D04816080937D048091D80382FF5ACFD5
:100F90000E942D028BE490E00E94980053CFDF91D5
:100FA000CF911F910F91FF90EF90DF90CF90089518
:100FB000CF93C82FE9EDF0E0E491E0938004EAEEEE
:100FC000F0E0E491E0937F04EBEEF0E0E491E09355
:100FD0007E0440E070E084E00E94B80110927B043F
:100FE0006C2F772767FD709577FF03C0719561952A
:100FF000710940E081E00E94B80180917804C7FD4A
:1010000002C08D7F01C0826080937804CF910895E3
:10101000AF92BF92CF92DF92FF920F931F93CF9325
:10102000DF93F0900101D090E50386E08093D60332
:10103000C0E0D6E01CE3A12EB12C09E110E08091C4
:10104000D90380FD9EC08091D903811104C0809195
:10105000D803882319F0D093D60305C08091D60316
:10106000811101C02AC08091D90381FF29C010924B
:10107000D903C11110C06D2D8F2D0E94D80780910A
:10108000790481608093790480917A0481608093EF
:101090007A04C1E015C0C13081F46D2D8F2D0E94FE
:1010A000D80780917C04816080937C0480917D04CA
:1010B000816080937D04C2E003C01092910461C0FE
:1010C0008091D90382FD04C08091D80382FFB7CFFD
:1010D0001092D903C13059F58F2D992787FD90952E
:1010E0000D96B8010E94681DB4EFFB2EF80E6D2D11
:1010F0008F2D0E94D80780917904816080937904B4
:1011000080917A04816080937A04F09201016F2DBE
:101110008DE090E00E94051E8AE591E00E943D1A54
:101120008F2D992787FD90950E947A1A1FC0C23093
:10113000E9F48D2D90E00196B5010E94681DC82E3E
:10114000D82E682F8F2D0E94D80780917C04816053
:1011500080937C0480917D04816080937D04C092A3
:10116000E5036C2D8EE090E00E94051E8091D8036F
:1011700082FF65CF0E942D028BE490E00E949800D0
:101180005ECFDF91CF911F910F91FF90DF90CF90B5
:10119000BF90AF9008950F931F93CF93DF9310925A
:1011A00078048C01C9E7D4E0F80181918F0188238C
:1011B000C1F0982F91569A3120F40E94B10488838F
:1011C0000BC080538A3038F4E82FF0E0E553FF4F2E
:1011D000E491E88301C018822196F4E0C138DF076A
:1011E00019F7DF91CF911F910F91089510927F040D
:1011F0001092800440911A0160911B0180911901A5
:101200000E9468048430B1F030F4823069F078F4E0
:101210008130E9F406C0863099F078F08730B9F46F
:1012200012C083E791E011C08AE791E00EC081E827
:1012300091E00BC089E891E008C082E991E005C027
:101240008BE991E002C082EA91E00E94CB0888EE2F
:1012500093E00E94980010927C0410927D041092FA
:101260007E0480911B01863059F168F48330F9F0D7
:1012700028F48130B1F08230C9F516C08430D1F045
:101280008530A1F51AC0893021F128F48730D9F0D2
:10129000883061F51BC08B3011F1F0F08C3031F5E6
:1012A00021C08BEA91E020C08FEA91E01DC083EB62
:1012B00091E01AC089EB91E017C08FEB91E014C068
:1012C00083EC91E011C088EC91E00EC08DEC91E0D0
:1012D0000BC083ED91E008C088ED91E005C08EED74
:1012E00091E002C084EE91E00E94CB0860911A0167
:1012F00040E070E087E00E94B80188EE93E00E9431
:1013000098008AEE91E00E94CB086091190140E0BC
:1013100070E084E00C94B80181112AC01092780426
:1013200082E080937B0480937E048091F20381119C
:101330000AC060911B0140E070E081E00E94B801AA
:1013400060911A0109C060911A0140E070E081E0EB
:101350000E94B80160911B0140E070E084E00E94AF
:10136000B8016091190140E070E087E00C94B80189
:10137000813011F40C94F6080895CF93DF9381E047
:1013800090E00E94FD1D64E60E943A1D90931901B1
:1013900082E090E00E94FD1D6DE00E943A1D909356
:1013A0001B0183E090E00E94FD1D8F7180931A0164
:1013B00080E00E948C0964EF71E080E090E00E9480
:1013C000A50084E090E00E94FD1DD8E16D2F0E94F1
:1013D0003A1D90935E0485E090E00E94FD1DCCE3F1
:1013E0006C2F0E943A1D9093820486E090E00E9448
:1013F000FD1D6C2F0E943A1D90939F0440919F0405
:101400006091820480915E040E94B70464EF71E0F1
:1014100080E090E00E94A50088E090E00E94FD1D21
:101420006C2F0E943A1D9093600487E090E00E9428
:10143000FD1D6D2F0E943A1D9093870481E08093DB
:10144000EA038EE190E00E94FD1D982F905C913898
:1014500018F48093F50307C01092F50360E08EE165
:1014600090E00E94051E80E28093B6001092B200C8
:101470008FE78093B30082E08093B00096E0909372
:10148000B100809370007894DF91CF9108954A9BCA
:101490002BC08091840481113FC081E0809384043B
:1014A0001092DE031092DD038091EC038823A1F1FA
:1014B00080919104811130C083EF91E00E94CB08AC
:1014C00083E6809391048CED95E00E9498006091F2
:1014D0006004809187040E94AE068CED95E00E9426
:1014E0009800109291040895809184048823A1F0BB
:1014F000109284041092DE031092DD0380918E041A
:10150000882351F010928E04809181008D7F80930A
:10151000810085B1866085B908951F920F920FB63C
:101520000F9211242F933F934F935F936F937F9369
:101530008F939F93AF93BF93CF93EF93FF931DBA76
:1015400089E60E94FE19C9B178948AE090E00E9471
:10155000980089B1C4702C2F30E0847090E0281777
:10156000390709F002C00E94470A81E08DBBFF9154
:10157000EF91CF91BF91AF919F918F917F916F919B
:101580005F914F913F912F910F900FBE0F901F9041
:1015900018951F93CF93DF9386E08093D6038CE05A
:1015A00090E00E94FD1DC82FD0E016E08091D90385
:1015B000811104C08091D803882319F01093D603B9
:1015C00005C08091D603811101C01DC08091D9034F
:1015D00080FD3DC08091D90381FF18C01092D903CE
:1015E000D1110CC08CEF91E00E94CB0841E06C2F30
:1015F00070E081E00E94B801DFE008C06C2F8CE051
:1016000090E00E94051E1092910421C08091D903A0
:1016100082FD04C08091D80382FFC8CF1092D90305
:10162000DF3051F4CF5FC43608F0C0E041E06C2FEA
:1016300070E081E00E94B8018091D80382FFB6CFAC
:101640000E942D028BE490E00E949800AFCFDF91C2
:10165000CF911F9108958091F003843019F148F4DF
:101660008130B9F098F08230B9F0833009F041C090
:1016700016C0873039F128F48530B9F08630C9F5C5
:1016800017C0883019F18930A1F52AC085E092E0B1
:101690001BC08EE092E018C087E192E015C080E2A6
:1016A00092E012C089E292E00FC082E392E00CC0A7
:1016B0008BE392E00E94CB0880917F04816080934D
:1016C0007F04089584E492E00C94CB088DE492E0CA
:1016D0000E94CB0880917E04816080937E040895EF
:1016E00086E592E00E94CB0880918004816080931F
:1016F00080040895CF93DF9386E08093D603C0E003
:10170000D6E08091D903811104C08091D803882349
:1017100019F0D093D60305C08091D603811101C082
:1017200016C08091D90380FD39C08091D90381FF13
:1017300011C01092D903C11104C00E942B0BCEE03E
:1017400009C06091F00380E290E00E94051E1092B3
:10175000910424C08091D90382FD04C08091D803F4
:1017600082FFCFCF1092D903CE3069F48091F0037D
:101770008F5F8093F0038091F0038A3010F0109215
:10178000F0030E942B0B8091D80382FFBACF0E94F6
:101790002D0284E690E00E949800B3CFDF91CF91B4
:1017A00008951F93CF93DF9386E08093D6038EE155
:1017B00090E00E94FD1D8093F503C0E0D6E010ECA0
:1017C0008091D903811104C08091D803882319F036
:1017D000D093D60305C08091D603811101C01EC0ED
:1017E0008091D90380FD44C08091D90381FF19C045
:1017F0001092D903C1110CC08FE592E00E94CB0872
:1018000041E06091F50386E00E949201C8E009C0C2
:101810006091F5038EE190E00E94051E1092910404
:1018200027C08091D90382FD04C08091D80382FF34
:10183000C7CF1092D903C83081F48091F5038F5F30
:1018400080341CF48093F50302C01093F50341E04B
:101850006091F50386E00E9492018091D80382FF97
:10186000AFCF0E942D028BE490E00E949800A8CF99
:10187000DF91CF911F9108958091F203811103C0F0
:1018800086E692E002C08FE692E00C94CB08CF93FC
:10189000DF9386E08093D6038BE090E00E94FD1DED
:1018A0008093F203C0E0D6E001C0C0E08091D9038C
:1018B000811104C08091D803882319F0D093D603F6
:1018C00005C08091D603811101C010C08091D90359
:1018D00080FD27C08091D90381FF0BC01092D903EE
:1018E000C11104C00E943C0CC1E003C010929104DD
:1018F00018C08091D90382FFD9CF1092D903C1308B
:10190000A1F681E09091F203911180E08093F203BF
:101910000E943C0C6091F2038BE090E00E94051E57
:10192000C5CFDF91CF91089580917604882351F03F
:1019300088E792E00E94CB088091800481608093C8
:10194000800404C081E892E00E94CB0880917D046D
:10195000816080937D0480917E04816080937E0409
:1019600080917F04816080937F0408951F93CF93BB
:10197000DF9386E08093D6038AE090E00E94FD1D0D
:10198000D82FC0E016E001C0C0E08091D9038111DA
:1019900004C08091D803882319F01093D60305C0A2
:1019A0008091D603811101C010C08091D90380FDC0
:1019B0002AC08091D90381FF0BC01092D903C111B5
:1019C00004C00E94940CC1E003C0109291041BC09B
:1019D0008091D90382FFD9CF1092D903C130A1F6EB
:1019E00081E0D11180E0D82F682F8AE090E00E943A
:1019F000051E0E94000261E080EA9FE00E949602BC
:101A00000E94940CC2CFDF91CF911F9108956091F5
:101A1000E90340E070E087E00E94B8018AE892E0C4
:101A20000C94CB0880918504813219F482E992E00C
:101A300009C080918504813019F48BE992E002C0DD
:101A400084EA92E00C94CB080F931F93CF93DF931B
:101A500086E08093D60382E190E00E94FD1D809392
:101A6000770483E190E00E94FD1D80939D04109215
:101A7000F103C0E0D6E012E30AE08091D9038111BE
:101A800004C08091D803882319F0D093D60307C0EF
:101A90008091D603811103C01092910430C08091CF
:101AA000D90380FD2CC08091D90381FF2CC01092F6
:101AB000D903C1110AC08DEA92E00E94CB0880913F
:101AC00077040E945C04C1E01EC0C13051F484EB75
:101AD00092E00E94CB0880919D040E945C04C2E0C9
:101AE00012C0109291046091770482E190E00E940C
:101AF000051E60919D0483E190E00E94051E81E037
:101B00008093F10336C08091D90382FD04C0809197
:101B1000D80382FFB2CF1092D903C13071F4809103
:101B200077048E5F8093770480917704833310F07D
:101B300000937704809177040FC0C23079F48091CC
:101B40009D048B5F80939D0480919D048B3510F0E4
:101B500010939D0480919D040E945C048091D803A1
:101B600082FF8BCF0E942D028BE490E00E949800B0
:101B700084CFDF91CF911F910F9108958091F10350
:101B8000813019F48BEB92E002C084EC92E00C946B
:101B9000CB08CF93DF9386E08093D603C0E0D6E0F6
:101BA0008091D903811104C08091D803882319F052
:101BB000D093D60305C08091D603811101C043C0E4
:101BC0008091D90380FD5EC08091D90381FF3EC022
:101BD0001092D903C11104C00E94BE0DC5E036C0E9
:101BE000C530B1F48DEC92E00E94CB0840918F0497
:101BF0005091900464E081E00E94640140918A0465
:101C000050918B0463E086E00E946401C3E01EC033
:101C1000C33099F40E94CB0340918F0450919004FB
:101C200064E081E00E94640140918A0450918B0439
:101C300063E086E00E94640109C06091F10381E1E4
:101C400090E00E94051E109291041CC08091D9035F
:101C500082FFA6CF1092D903C53009F0A1CF8091A1
:101C6000F103813019F41092F10303C081E08093F5
:101C7000F1030E94BE0D6091F10381E190E00E94AA
:101C8000051E8ECFDF91CF9108951F93CF93DF93E1
:101C900086E08093D603C0E0D6E01AE08091D903B5
:101CA000811104C08091D803882319F0D093D60302
:101CB00005C08091D603811101C016C08091D9035F
:101CC00080FD43C08091D90381FF19C01092D903D0
:101CD000C1110AC082ED92E00E94CB08809181047C
:101CE0000E945C04C1E00BC01092910460918104D9
:101CF00089E090E0DF91CF911F910C94051E8091B7
:101D0000D90382FD04C08091D80382FFC7CF10920F
:101D1000D903C13079F4809181048B5F8093810471
:101D2000809181048B3510F010938104809181049F
:101D30000E945C048091D80382FFB0CF0E942D02E4
:101D40008BE490E00E949800A9CFDF91CF911F9182
:101D500008958091E703813019F489ED92E009C07C
:101D60008091E703823019F482EE92E002C08BEE9C
:101D700092E00C94CB08FF920F931F93CF93DF93C5
:101D800086E08093D60310E006E0C6E0D0E082E073
:101D9000F82E8091D903811104C08091D803882343
:101DA00019F00093D60307C08091D603811103C0B8
:101DB000109291045BC08091D90380FD57C080913F
:101DC000D90381FF2BC01092D903812F90E0019697
:101DD000BE010E94681D182F83309105B9F034F4BC
:101DE0008130910559F0029731F40BC08430910590
:101DF00081F0059789F084EF92E005C00E94A90E5A
:101E00000DC08DEF92E00E94CB0808C00E941C011B
:101E100005C086E093E0F7CF0E9441018091D9038D
:101E200082FFB7CF1092D903113009F0B2CF809161
:101E3000E703811105C01093E70387E690E008C02F
:101E40008091E703813039F4F092E70384E390E076
:101E50000E94F11902C01092E7030E94A90E60913E
:101E6000E70380E190E00E94051E93CFDF91CF91C0
:101E70001F910F91FF9008958091E303882319F03B
:101E80008FE093E002C088E193E00C94CB081F93AD
:101E9000CF93DF9386E08093D603C0E0D6E011E0D5
:101EA0008091D903811104C08091D803882319F04F
:101EB000D093D60305C08091D603811101C016C00E
:101EC0008091D90380FD2FC08091D90381FF11C07B
:101ED0001092D903C11104C00E943C0FCAE009C08E
:101EE0006091E3038FE190E00E94051E109291043F
:101EF0001AC08091D90382FFD3CF1092D903CA3080
:101F000079F68091E303882319F01092E30302C06D
:101F10001093E3030E943C0F6091E3038FE190E094
:101F20000E94051EBDCFDF91CF911F910895CF93E1
:101F300086E08093D603C6E08091D90380FD1DC062
:101F40008091D903811104C08091D803882319F0AE
:101F5000C093D60307C08091D603811103C01092AD
:101F600091040BC08091D90381FFE6CF1092D90371
:101F70008CE191E00E94CB08DFCFCF9108958CE0F7
:101F800090E00E94FD1D2CE3829FC00111249093DC
:101F9000DE038093DD0381E293E00E94CB0883E6B9
:101FA000809391048CED95E00E949800109291042A
:101FB00008951F920F920FB60F9211242F933F9303
:101FC0004F935F936F937F938F939F93AF93BF9341
:101FD000EF93FF9310926B00789418991EC0809134
:101FE000DA0381FD1FC08AE090E00E9498001899F2
:101FF00019C00E942D0280918E04882319F00E943E
:10200000BF0F10C08091DA0382608093DA03809161
:10201000D90382608093D90305C08091DA038D7F54
:102020008093DA0381E080936B00FF91EF91BF9181
:10203000AF919F918F917F916F915F914F913F9160
:102040002F910F900FBE0F901F9018951F920F9217
:102050000FB60F9211242F933F934F935F936F937B
:102060007F938F939F93AF93BF93EF93FF931092C0
:102070006D007894A8954D991BC08091DA0380FD7E
:102080001CC08AE090E00E9498004D9952C00E94C6
:102090002D0280918E0481112DC08091DA03816020
:1020A0008093DA038091D90381608093D90305C0BE
:1020B0008091DA038E7F8093DA034C9933C080914C
:1020C000DA0382FD36C08AE090E00E9498004C99C5
:1020D00030C00E942D0282E08093D70314C04C9B35
:1020E00012C08091DA038B7F8093DA0380918E0493
:1020F000882319F00E94BF0F1CC08091D90384600F
:102100008093D90316C08091D7038111E8CF8091C5
:10211000DA0384608093DA038091D803846080932B
:10212000D80307C01092D8038091DA038B7F809385
:10213000DA0380E380936D00FF91EF91BF91AF913F
:102140009F918F917F916F915F914F913F912F91CF
:102150000F900FBE0F901F90189581E58CBD0895CC
:102160008EBD0DB407FEFDCF0895CF93DF9300D051
:10217000CDB7DEB7F8946A8379830E94B010798175
:10218000872F0E94B0106A81862F0E94B010409A5B
:10219000409878940F900F90DF91CF9108958F928F
:1021A0009F92AF92BF92CF92DF92EF92FF920F93E6
:1021B0001F9390910001981708F4892FE82FF0E001
:1021C000DF01A858BB4FAC91EC58FF4FE49161E0A0
:1021D00070E002C0660F771FEA95E2F7882777FD67
:1021E0008095982F0091F6031091F7032091F80342
:1021F0003091F90340E050E0B0E0C12CD12C7601E1
:10220000C394FD01042E02C0F595E7950A94E2F708
:10221000E0FF13C0FA01E659FF4F04914601570150
:1022200004C0880C991CAA1CBB1C0A95D2F7950106
:102230008401682979298A299B294F5F5F4F48309B
:102240005105F9F60093F6031093F7032093F80372
:102250003093F9031F910F91FF90EF90DF90CF9093
:10226000BF90AF909F908F900C94B5101F920F92DB
:102270000FB60F9211242F933F934F935F936F9359
:102280007F938F939F93AF93BF93EF93FF93789434
:10229000A8958091E1039091E20301969093E20367
:1022A0008093E103829708F40DC11092E20310922B
:1022B000E1038091DB039091DC0301969093DC03B2
:1022C0008093DB038091E4030E94CF102091E4030C
:1022D0002F5F2093E4038091E30330E040910001FD
:1022E00090E0840F911D8217930714F41092E40379
:1022F0008091F003843041F580919104811124C0D4
:102300008091EF038F5F8093EF038739E8F010929D
:10231000EF038091DB039091DC0367EA70E00E9499
:10232000541DCB0166E070E00E94541D880F991F78
:10233000FC01E058FF4FE491E0937F04FC01E15879
:10234000FF4F84918093800480918E04882309F448
:10235000B9C08091DD039091DE03892B09F0B2C0F2
:102360008091DF039091E00301969093E0038093C6
:10237000DF038B35910508F4A5C01092E00310929D
:10238000DF038091920490919304019690939304BB
:1023900080939204809192049091930481359644A5
:1023A00070F010928E041092DE031092DD03809183
:1023B00081008D7F8093810085B1866085B9809191
:1023C0008C0490918D04019690938D0480938C04DD
:1023D00020918C0430918D048091A0049091A104EF
:1023E0008217930730F510928D0410928C0410928E
:1023F000A3041092A2048091A0049091A104459797
:1024000048F08091A0049091A10444979093A10476
:102410008093A0048091880490918904449748F4A3
:102420008091880490918904029690938904809306
:1024300088048091A2049091A30401969093A30430
:102440008093A2042091A2043091A3048091880477
:102450009091890482179307A8F18091A20490912A
:10246000A3044CE0489F9001499F300D112424554E
:102470003E4F40E050E060E472E48FE090E00E9464
:102480009E1D309387002093860080918600909156
:1024900087009695879590938B0080938A00909300
:1024A0008900809388008091A2049091A30480FF0A
:1024B00004C080918100826003C0809181008D7F83
:1024C00080938100FF91EF91BF91AF919F918F9188
:1024D0007F916F915F914F913F912F910F900FBE20
:1024E0000F901F9018958091C00080780895FC018E
:1024F0009381905182812AE0829F900D1124258141
:10250000205184813AE0839F200D112430910101F4
:102510008091E9038051830F4181840F40815AE00B
:10252000459F800D112480935E048091E50337FF61
:1025300002C0981B01C0980F9093820420939F04BF
:1025400081E08093EC030895FC012181205180817A
:102550003AE0839F200D11249381905182814AE0BB
:10256000849F900D11248581805134814AE0349FED
:10257000800D112420931A0190931B01809319015F
:1025800081E08093EB03089581E080938E041092A4
:10259000DE031092DD0388EC90E09093A104809319
:1025A000A00410928D0410928C0482E090E090932D
:1025B00089048093880410929304109292041092DC
:1025C000E0031092DF03089590918404992361F051
:1025D00090918704981308C080916004861304C00A
:1025E000411102C00C94C4120895CF92DF92EF9271
:1025F000FF920F93CF93DF93D22FCE2DE62FF0E0F3
:10260000EE0FFF1FEC5CFE4FC080D180C40ED11CCA
:10261000E12CF12C382F3053832F837031F4832F2A
:1026200064E60E943A1D911108C0832F90E060E992
:1026300071E00E94681D892B29F48FEFC81AD80A0F
:10264000E80AF80AA701960160E871E581E090E0E8
:102650000E942A1D6B017C012D2F30E0A0E1BEE01D
:102660000E940C1DC60ED71EE81EF91E202FACE3DB
:10267000B0E00E940C1DC60ED71EE81EF91ECC0E3F
:10268000D11CE11CF11CB601C701DF91CF910F9164
:10269000FF90EF90DF90CF900895CF92DF92EF926E
:1026A000FF920F931F93CF93DF9300D0CDB7DEB788
:1026B000982FC62EF42ED02EE62FF0E0E35BFE4FCF
:1026C000108182E0681304C0892F837009F41F5FB2
:1026D00041E06C2D892F2A8399830E9468044F2D35
:1026E000481B2A819981F81608F4495F2150E7E0D8
:1026F0002E9F400D11244F5FE12FF0E001C04750A5
:10270000A42FBB27A7FDB095EA17FB07C4F3E12C64
:1027100000E02D2D6C2D892F80530E94F5120F9013
:102720000F90DF91CF911F910F91FF90EF90DF906D
:10273000CF900895CF93DF93C82F8091E9039091B4
:10274000E9039C1771F19091E803913051F5DC2F6A
:10275000D81B61E01D1644F488EB91E00E949602BC
:1027600061E080E793E007C080E793E00E94960273
:1027700061E088EB91E00E949602C093E9038091AA
:102780005E048D0F80935E046C2F8DE190E00E94BB
:10279000051E60915E0484E090E00E94051E109288
:1027A000E803DF91CF9108954F925F926F927F92ED
:1027B0008F929F92AF92BF92EF920F93CF93B09070
:1027C0001401A09015019090160180901701C091FE
:1027D000180180911901009113012091120140917B
:1027E0001101609110010E944D132B013C01809159
:1027F0001901082D292D4A2D6B2D0E944D134B01D7
:102800005C01E0909F040091820420915E0440915D
:102810001A0160911B018091190180530E94F512E9
:10282000481459046A047B0444F46415750586054C
:1028300097050CF007C080E00BC064157505860590
:1028400097052CF4681579058A059B05A4F78C2F4C
:10285000CF910F91EF90BF90AF909F908F907F900E
:102860006F905F904F900C949A1380919F048C33DB
:1028700054F080919F048C5380939F048091820434
:102880008F5F8093820480919F0487FF0AC08091AC
:102890009F04845C80939F04809182048150809384
:1028A0008204809182048C3354F0809182048C5392
:1028B0008093820480915E048F5F80935E04809198
:1028C000820487FF0AC080918204845C8093820422
:1028D00080915E04815080935E0480919F048111F9
:1028E00014C080918204811110C08091E70381118E
:1028F0000CC060915E0484E090E00E94051E60912F
:10290000820485E090E00E94051E80915E0488317B
:1029100084F080915E04885180935E0480911A0156
:102920008F5F80931A0160911A0183E090E00E940A
:10293000051E80915E0487FF10C080915E04885E52
:1029400080935E0480911A01815080931A016091F6
:102950001A0183E090E00E94051E80911A018032E6
:1029600068F580911A018F3181F480911B018430C8
:1029700029F180911B01863009F180911B0189307A
:10298000E9F080911B018B30C9F080911A018E31E2
:1029900021F480911B01823089F080911A018D31E0
:1029A000D9F480911B018230B9F48091190190E033
:1029B0008053984F0E94E40181110EC081E0809302
:1029C0001A0180911B018F5F80931B0160911B0195
:1029D00082E090E00E94051E80911A01811144C09E
:1029E00080911B018630B9F058F48330E1F018F47F
:1029F000813088F110C0843071F0853061F50FC0EE
:102A00008A3018F4883038F40AC08B3021F038F05E
:102A10008C3009F504C080911A01815E14C0809148
:102A20001A01825E10C08091190190E08053984F86
:102A30000E94E401882321F080911A01835E03C083
:102A400080911A01845E80931A0180911B0181504C
:102A500080931B0103C081E080931A0160911B01E8
:102A600082E090E00E94051E80911B018D3070F085
:102A7000809119018F5F8093190181E080931B0180
:102A80006091190181E090E00E94051E80911B0178
:102A9000811116C080911B01845F80931B0180917E
:102AA00019018150809319016091190181E090E032
:102AB0000E94051E60911B0182E090E00E94051EAD
:102AC00080919F04811111C080918504813211F49D
:102AD0000E94D41380918204811107C080915E040A
:102AE000811103C081E08093E80308958091EA0397
:102AF000882381F146E050E062E071E089E694E0ED
:102B00000E94E01D0097B1F444E050E069E071E0FC
:102B100086E994E00E94E01D009761F41092E603BC
:102B200086E994E00E94771289E694E00E94A4125C
:102B30000E94351446E050E069E674E082E091E0DE
:102B40000E94EE1D46E050E066E974E089E091E005
:102B50000C94EE1D08950F931F93CF93DF931F9254
:102B6000CDB7DEB78091C6008983EAEFF3E001902C
:102B70000020E9F73197EA5FF340E11104C08432A5
:102B800009F0EFC005C0E33608F0E4C08D3051F025
:102B900041E050E0BE016F5F7F4F8AEF93E00E94FB
:102BA000D01DDFC06AE273E08AEF93E00E94BA1D95
:102BB00047E050E06CE273E08AEF93E00E94E01D92
:102BC000009709F0C7C08BEF93E090939504809332
:102BD0009404109286040AC0809186048927809309
:102BE00086043196F0939504E0939404E091940464
:102BF000F091950490819A3279F7918182819A338C
:102C000010F0975301C090538A3310F0875301C0DE
:102C1000805320E1929F800D112480938304909132
:102C20008604981397C06CE270E08AEF93E00E94EC
:102C3000C51D9093950480939404019626E0FC01B1
:102C4000A6E9B4E001900D922A95E1F710929C0458
:102C50006CE270E00E94C51D9093950480939404EB
:102C6000DC0111962C9120939E04213409F072C04E
:102C70006CE270E001960E94C51D909395048093CC
:102C80009404FC01418152816381748140937004FA
:102C9000509371046093720470937304268137819A
:102CA00030937504209374046CE270E001960E94E6
:102CB000C51D9093950480939404DC0111962C918A
:102CC000209361046CE270E001960E94C51D909310
:102CD0009504809394049C012F5F3F4F45E0F901D8
:102CE000A2E6B4E001900D924A95E1F7FC018781DC
:102CF000908590936804809367046CE270E0C9014A
:102D00000E94C51D9093950480939404DC01119654
:102D10008C9180935F0403E010E080919404909183
:102D200095046CE270E001960E94C51D9093950495
:102D3000809394040150110981F7FC01319686E0DB
:102D4000A9E6B4E001900D928A95E1F710926F0424
:102D50000E94761584E6EAEFF3E0DF011D928A9582
:102D6000E9F70F90DF91CF911F910F9108951F9276
:102D70000F920FB60F9211242F933F934F935F93AF
:102D80006F937F938F939F93AF93BF93EF93FF9333
:102D900080E8809361001092610080919F048F5FB2
:102DA00080939F040E94351480918204882329F027
:102DB0008091ED038823C9F090C080919F04811118
:102DC00004C08091F503815805C080919F04813033
:102DD00019F48FE78093B30080919F04823044F709
:102DE0008091B60083FDFCCFE3CF8091E603803174
:102DF00018F48F5F8093E60380919104811133C0B2
:102E00008091EC03811107C080919F0480FF03C073
:102E100084E393E012C08091E703882389F08091D6
:102E2000E603803168F08091F003893049F08091A9
:102E30009F0480FF05C08DE393E00E94CB0808C08B
:102E400040919F046091820480915E040E94B704C7
:102E50009091840480917804992311F0826001C0DC
:102E60008D7F809378048091EC03882341F040911A
:102E70009F046091820480915E040E94E4120E948B
:102E8000CB038091D603882329F08091D60381500B
:102E90008093D6038091D703882329F08091D703AC
:102EA00081508093D7038091DD039091DE030097DA
:102EB000A1F001979093DE038093DD0320917804C5
:102EC00080FF04C022602093780407C02D7F2093E8
:102ED0007804892B11F40E94C412FF91EF91BF91E5
:102EE000AF919F918F917F916F915F914F913F91A2
:102EF0002F910F900FBE0F901F901895EF92FF9299
:102F00000F931F93CF93DF938C01C4E1D0E0F12C9A
:102F1000EE24E394F80181918F01882341F0F3942A
:102F2000FE01E450FF4F6081CE010E94051EFF208C
:102F300021F0E092E8030E94D4132196CD31D1050F
:102F400049F7DF91CF911F910F91FF90EF90089576
:102F5000CF92DF92EF92FF920F931F93CF93DF9365
:102F6000CDB7DEB729970FB6F894DEBF0FBECDBF41
:102F700086E08093D603FE01319689E0DF011D9241
:102F80008A95E9F7F12CE12C96E0D92E8F01CC241B
:102F9000C3948091D903811104C08091D803882300
:102FA00019F0D092D6030BC08091D603811107C0CF
:102FB000CE0101960E947E17109291045BC0809111
:102FC000D90380FD20C08091D90381FF21C01092D8
:102FD000D903E1100AC086E493E00E94CB088F2D4C
:102FE0000E94D4018DE0E82E13C0BDE0EB1209C0B1
:102FF000F39488E08F1508F4F12C8F2D0E94D401F2
:1030000007C010929104CE0101960E947E1732C033
:103010008091D90382FD04C08091D80382FFB9CF8B
:103020001092D903ADE0EA121AC02F2D30E0F90159
:10303000E05FFE4F80818F5F8083D901AC5DBE4F22
:103040009C91981728F4D901A35DBE4F8C91808381
:10305000F801E20FF31FC0828F2D0E94D4018091EE
:10306000D80382FF96CF0E942D028BE490E00E944D
:1030700098008FCF29960FB6F894DEBF0FBECDBF54
:10308000DF91CF911F910F91FF90EF90DF90CF9044
:1030900008950F931F93CF93DF9386E08093D60319
:1030A000C0E016E0D1E001E28091D903811104C0B3
:1030B0008091D803882319F01093D60305C080911E
:1030C000D603811101C016C08091D90380FD5AC07A
:1030D0008091D90381FF11C01092D903C11104C09E
:1030E0000E94120DC7E009C0C73021F40E94070DED
:1030F000C8E003C01092910445C08091D90382FFBB
:10310000D3CF1092D903C73079F6809185048130EE
:1031100039F4009385048093E8030E94D41329C0F6
:1031200080918504813261F4109285048091E903D5
:103130008823F9F01092E90380915E0481500BC05E
:10314000D09385048091E903811113C0D093E903E2
:1031500080915E048F5F80935E046091E9038DE14E
:1031600090E00E94051E60915E0484E090E00E9461
:10317000051E0E94120D609185048FE090E00E9470
:10318000051E92CFDF91CF911F910F9108950F935C
:103190001F93CF93DF9386E08093D603C0E0D6E001
:1031A00011E004E68091D903811104C08091D80315
:1031B000882319F0D093D60307C08091D6038111DC
:1031C00003C010929104F1C08091D90380FDEDC03D
:1031D0008091D90381FF7AC01092D903C11115C023
:1031E0008091F203811102C0C1E001C0C2E080E021
:1031F0000E948C0980917904816080937904809188
:103200007A04816080937A0461C0C13029F480918E
:10321000F203882339F01EC0C23069F58091F203B1
:103220008130A9F48091F203811102C0C2E001C093
:10323000C1E080E00E948C0980917C0481608093D1
:103240007C0480917D04816080937D043FC088234D
:1032500019F011C0813079F480E00E948C098091CE
:103260007F04816080937F048091800481608093DB
:103270008004C3E02BC083E68093910480E00E9429
:103280008C098CED95E00E94980010929104809139
:103290008504813229F481E08093E8030E94D413ED
:1032A0006091190181E090E00E94051E60911B0170
:1032B00082E090E00E94051E60911A0183E090E098
:1032C000DF91CF911F910F910C94051E8091D9032E
:1032D00082FD04C08091D80382FF64CF1092D9038D
:1032E000C13099F480911B018F5F80931B01809105
:1032F0001B018D3010F0C0931B0180E00E948C09EF
:103300008091F203811120C014C0C23041F5809138
:103310001A018F5F80931A0180911A01803210F098
:1033200010931A0180E00E948C098091F203813091
:1033300059F48091790481608093790480917A04B2
:10334000816080937A0426C080917C0481608093A0
:103350007C0480917D04816080937D041BC0C33018
:10336000C9F4809119018F5F80931901809119012F
:10337000602F0E943A1D9093190180E00E948C09F1
:1033800080917F04816080937F04809180048160BC
:10339000809380048091D80382FF04CF0E942D0285
:1033A0008CE390E00E949800FDCEDF91CF911F91B9
:1033B0000F91089505C081509EE100009150E9F7FA
:1033C0008111F9CF08950AC02FEF39E698E1215015
:1033D00030409040E1F700C0000081508111F4CFEF
:1033E00008959093C5008093C40088E18093C10044
:1033F0008EE08093C200519A509808959091C00039
:1034000095FFFCCF8093C60080E090E00895809106
:10341000C00087FFFCCF8091C60008958091C00056
:1034200080780895EF92FF921F93CF93DF931F92BE
:10343000CDB7DEB77C0110E005C069830E94FE199C
:103440001F5F6981F701E10FF11D84918111F5CFB3
:10345000662361F08AE00E94FE198DE00F90DF91F3
:10346000CF911F91FF90EF900C94FE190F90DF9178
:10347000CF911F91FF90EF900895CF93DF93EC01D0
:1034800002C00E94FE1989918111FBCFDF91CF917B
:103490000895CF93C82F82958F708A3010F4805D85
:1034A00001C0895A0E94FE198C2F8F70282F30E09E
:1034B0002A30310514F4805D01C0895ACF910C94F3
:1034C000FE19CF93C82F892F0E94491A8C2FCF91B4
:1034D0000C94491ACF92DF92EF92FF926B017C011C
:1034E000C7010E94611AC601FF90EF90DF90CF9054
:1034F0000C94611AAF92BF92CF92DF92EF92FF923B
:103500000F931F93CF93DF931F92CDB7DEB77C014C
:1035100005E010E020E080E1A82E87E2B82E9AE0D6
:10352000C92ED12CC701B5010E94541D862F6111EF
:1035300006C0211104C091E0A916B10431F4805DE8
:1035400069830E94FE1921E069816A9DC0016B9D1B
:10355000900D1124E81AF90AC501B6010E94541D04
:103560005B0101501109F1F60F90DF91CF911F918E
:103570000F91FF90EF90DF90CF90BF90AF900895A4
:103580002F923F924F925F926F927F928F929F9273
:10359000AF92BF92CF92DF92EF92FF921F93CF93A1
:1035A000DF931F92CDB7DEB74B015C012AE0222EDC
:1035B000312C10E0C12C3AECD32E3AE9E32E3BE358
:1035C000F32E4AE0442E512C612C712CC501B4011C
:1035D000A70196010E947C1D822F211108C01111A4
:1035E00006C091E0C916D104E104F10431F4805D14
:1035F00029830E94FE1911E02981A22FB0E0A701C2
:1036000096010E941F1D861A970AA80AB90AC701C7
:10361000B601A30192010E947C1D69017A01E1E0DB
:103620002E1A310899F60F90DF91CF911F91FF90DC
:10363000EF90DF90CF90BF90AF909F908F907F9052
:103640006F905F904F903F902F90089515BC569AC1
:103650005E9884B714BE90E00E94611A88E10FB6AC
:10366000F89480936000109260000FBE2FE088E114
:1036700090E00FB6F894A895809360000FBE209359
:103680006000A8951092EC031092EB031092E803EF
:103690001092EA0387E690E00E94F11988E480BF67
:1036A00061E070E080E090E00E94A50000B605FEB9
:1036B00006C080B7806180BF0E94BD09C6C00E945D
:1036C00009015B9881E0809369008DBB10929104A1
:1036D00081E58CBD82E190E00E94FD1D809377041E
:1036E00083E190E00E94FD1D80939D0489E090E0BD
:1036F0000E94FD1D8093810481E190E00E94FD1DE8
:103700008093F1038091F103813019F480919D043D
:1037100002C0809181040E94EE0378948DE090E0D5
:103720000E94FD1D80930101845F893110F0109289
:1037300001018EE090E00E94FD1D8093E5038D3332
:1037400010F01092E5030E9400020E949A020E946B
:10375000B0038BE090E00E94FD1D8093F2038FE0A8
:1037600090E00E94FD1D809385048DE190E00E9411
:10377000FD1D8093E90384E190E00E94FD1D81110D
:103780000BC080E190E00E94FD1D8093E7038091D3
:10379000E703813099F40FC000E111E0C4E1D0E00B
:1037A000CE010E94FD1DF80181938F012196CD313C
:1037B000D105B1F7E6CF87E690E006C08091E70338
:1037C000823021F484E390E00E94F11980E290E0DD
:1037D0000E94FD1D8093F0038FE190E00E94FD1D8B
:1037E0008093E3038091E303823010F01092E303AF
:1037F00083E6809391048FE493E00E94CB0844E633
:1038000050E061E080EC9DE00E94500264EF71E0C6
:1038100080E090E00E94A5000E94BD09A89544E6C2
:1038200050E061E080EC9DE00E94500284E393E070
:103830000E94CB0888EC90E00E94980010929104BE
:1038400081E08093E8030E94470A03E611E0C1E1AA
:10385000D0E0A89500B605FE03C00E94DC00F9CFB9
:103860008091D90380FFB6C01092D9038091910452
:10387000833649F08091910490E00196BE010E9448
:10388000681D8093910480919104883009F46AC086
:1038900080F48430D9F138F4823041F170F5813010
:1038A00009F0AEC01CC0863009F44EC008F07DC0DF
:1038B00044C08C3009F45DC030F48A3009F483C010
:1038C00008F06CC033C08E3009F45AC008F474C0DC
:1038D0008F3009F45CC0803109F092C020C08FE4C1
:1038E00093E00E94CB080E94970F8AC088E593E07E
:1038F0000E94CB080E940C0783C081E693E00E94DF
:10390000CB080E94A3051093EC037AC08AE693E0EB
:103910000E94CB080E94C7181093EB0371C083E785
:1039200093E00E94CB080E9408086AC084EF92E0EE
:103930000E94CB080E94BB0E63C08CE793E00E94FC
:10394000CB080E94C90D5CC085E893E00E94CB08BB
:103950008091F103882319F00E94240D51C00E9428
:10396000450E4EC08EE893E00E94CB080E94D10B1A
:1039700047C087E993E00E94CB080E94470C40C0F3
:1039800080EA93E00E94CB080E947A0B39C089EA52
:1039900093E00E94CB080E94C90A32C082EB93E0F8
:1039A0000E94CB080E94B60C2BC08BEB93E00E94C8
:1039B000CB080E94491824C084EC93E00E94CB08F5
:1039C0000E94A8171DC08DEC93E00E94CB080E94B6
:1039D000470F16C08091D90381FD04C08091D9039F
:1039E00082FF0EC01092D903009391040E94F60842
:1039F000A89588EE93E00E949800A89510929104F3
:103A00008091E703882309F424CF8091C00087FFC9
:103A100020CF0E94AB151DCFA29FB001B39FC00164
:103A2000A39F01D0B29F700D811D1124911D089597
:103A30000E940C1DB7FF0895821B930B08950E94EE
:103A40000C1DA59F900DB49F900DA49F800D911DFE
:103A500011240895DB018F939F930E941F1DBF9136
:103A6000AF91A29F800D911DA39F900DB29F900DCD
:103A700011240895991B79E004C0991F961708F046
:103A8000961B881F7A95C9F78095089587FB082EA5
:103A9000062687FD819567FD61950E943A1D0EF40B
:103AA000919507FC81950895AA1BBB1B51E107C0A6
:103AB000AA1FBB1FA617B70710F0A61BB70B881FBE
:103AC000991F5A95A9F780959095BC01CD0108954D
:103AD00097FB072E16F4009407D077FD09D00E94BB
:103AE000541D07FC05D03EF4909581959F4F089595
:103AF000709561957F4F0895A1E21A2EAA1BBB1BFA
:103B0000FD010DC0AA1FBB1FEE1FFF1FA217B307A9
:103B1000E407F50720F0A21BB30BE40BF50B661FBF
:103B2000771F881F991F1A9469F760957095809583
:103B300090959B01AC01BD01CF010895052E97FB27
:103B400016F4009407D057FD0DD00E947C1D07FC91
:103B500009D07EF490958095709561957F4F8F4F39
:103B60009F4F089550954095309521953F4F4F4F69
:103B70005F4F0895FB01DC010D900020E9F71197DC
:103B800001900D920020E1F70895FC0181918617C4
:103B900021F08823D9F7992708953197CF01089507
:103BA000FB01DC010D900020E9F7119741505040D6
:103BB00028F0019000200D92C9F708951C920895F5
:103BC000FB01DC014150504030F08D910190801993
:103BD00019F40020B9F7881B990B0895FB01DC014B
:103BE0004150504048F001900D920020C9F701C0AB
:103BF0001D9241505040E0F70895F999FECF92BDD3
:103C000081BDF89A992780B50895262FF999FECF9E
:103C10001FBA92BD81BD20BD0FB6F894FA9AF99AE9
:0A3C20000FBE01960895F894FFCF3F
:103C2A0008F830303030303000303030303030004A
:103C3A00030102020B010102012F0E033133303559
:103C4A003130776D0C0507170C05071701010101C3
:103C5A0000010101000000001F003B005A0078002B
:103C6A009700B500D400F300110130014E011F1C6A
:103C7A001F1E1F1E1F1F1E1F1E1F0A0D54696D6562
:103C8A007A6F6E65206F666673657420686F7572E9
:103C9A003A090073756E646179006D6F6E646179BB
:103CAA000074756573646179007765646E65736421
:103CBA007900746875727364617900667269646107
:103CCA0079007361747572646179006A616E006665
:103CDA006562006D6172636800617072696C006D83
:103CEA006179006A756E65006A756C79006175673D
:103CFA0073740073657074006F63746F62006E6F23
:103D0A0076656D00646563656D0020323030302061
:103D1A00202000616C61726D206F6E002020206D82
:103D2A00696E7574002066756C6C20202000206412
:103D3A0069616C31202000206469616C32202000A6
:103D4A00206469616C33202000206469616C34202E
:103D5A00200020616D2D706D20200020616D2D7076
:103D6A006D2E2000206E6F6E6520202000206E6F61
:103D7A006E652E2020002066756C6C677073006477
:103D8A007266742020007573612D31326872006585
:103D9A0075722D3234687200766F6C2068696768B4
:103DAA0000766F6C206C6F7720006F66667365749F
:103DBA002000647374206175746F00647374206FDB
:103DCA006E202000647374206F666620006272742D
:103DDA006C6F2000627274686920006164696D20EA
:103DEA006F6E20006164696D206F666600616463AE
:103DFA00200062726974652000677073206F6E34E8
:103E0A003800677073206F6E393600677073206FE1
:103E1A00666620007365742067707320006770738C
:103E2A00206C61742000677073206C6F6E67006F7E
:103E3A006E202038383838006F66662038383838AF
:103E4A0000736E6F6F7A696E67002A0024475052BA
:103E5A004D432C00202020202020202000206E6F9F
:103E6A0020677073200072756C65302030300069ED
:103E7A00636520747562650073657420616C617294
:103E8A00007365742074696D6500736574206461DC
:103E9A00746500736574207A6F6E650073657420AB
:103EAA006164696D00736574206272697400736578
:103EBA0074206472667400736574207265676E009C
:103ECA0073657420736563730073657420736E6F12
:103EDA007A0073657420766F6C20007365742064B1
:103EEA00737420007365742072756C650073657451
:063EFA00206C646262000E
:00000001FF
