:100000000C9479000C94D8080C9496000C94A30DD1
:100010000C9496000C94F00D0C9496000C947E14A5
:100020000C9496000C9496000C9496000C949600F8
:100030000C9496000C9496000C9496000C949600E8
:100040000C94000F0C9496000C9496000C9496005F
:100050000C9496000C945F030C9496000C949A02F6
:100060000C9496000C9496006A000B10120F0D0E63
:100070001113740003070809060A050C047F000425
:1000800000020008000020000200408D00C080C275
:10009000004202020A001A10183010320022020236
:1000A0000600868084A70080808000400020001029
:1000B0000010100010000800040080BD000E620E49
:1000C000200E400C6004620862CB00FC60DAF2662D
:1000D000B6BEE0FEF6D700FA3E1A7ADE8EF62E6045
:1000E00078AE1CAA2A3ACEF30AB61E3838B86E7615
:1000F000DA0011241FBECFEFD8E0DEBFCDBF13E082
:10010000A0E0B1E0EEE3FBE302C005900D92AE3B50
:10011000B107D9F714E0AEEBB3E001C01D92AC38E3
:10012000B107E1F70E948D1A0C949D1D0C940000FC
:1001300078941092C4031092C3032091C3033091AA
:10014000C40328173907C8F30895CF92DF92EF92BE
:10015000FF926B017C01A0EDB7E09B01AC010E9416
:10016000A51C6115710581059105C1F06115710529
:1001700021E08207910580F02AE02C9DC0012D9D91
:10018000900D112428EC30E004C0F9013197F1F70B
:1001900001970097D1F706C0CB0102C081E090E043
:1001A0000197F1F7FF90EF90DF90CF9008950197BE
:1001B000F1F70895A895089581E08093D5035B9A9F
:1001C0008CB58F7B8CBD85B1877D85B95E9815BC5C
:1001D00010925E0410926800459885B1897F85B9B8
:1001E0008BB18F7C8BB928988AB18F7C8AB9209883
:1001F0005A985298E1E6F0E090E8908388E0808396
:10020000449A83B7876083BF88959083108244980F
:1002100008958EE284B988E48AB989E087B984E3D5
:100220008BB981E085B995E09093680080936B006D
:1002300080E380936D000895CF93DF931092610463
:10024000809149048E3419F41092620403C082E054
:1002500080936204A8E5B4E0C3E6D4E0ED91E053F6
:10026000F0E0E553FF4FE491E99384E0AE35B80741
:10027000A9F780916604816080936604DF91CF9135
:100280000895CF93DF9380914704853419F4109239
:10029000610403C082E080936104AAE4B4E0C2E692
:1002A000D4E0ED91E053F0E0E553FF4FE491E993A2
:1002B00084E0A135B807A9F7809166048160809336
:1002C0006604DF91CF910895FF920F931F93CF9310
:1002D000DF93F62EFA94642F952FC0E0D0E00AE069
:1002E00010E0282F30E02F0D311DF7FC3A95205AF1
:1002F0003B4F0EC0862FB8010E94DA1CFC01E5536B
:10030000FF4FE491D901AC0FBD1FEC93972F2197BC
:100310008C2F8F0D87FFEECFDF91CF911F910F9123
:10032000FF900895282F30E0F901E05AFB4F67FF56
:1003300004C092E09083619501C01082A82FB0E0C4
:10034000862F6AE00E94CC1CE82FF0E0E553FF4FB7
:100350008491A05ABB4F842B11968C931197E92F4F
:10036000F0E0E553FF4FE491E42B1296EC930895EF
:10037000CF93DF93C82FD0E0CB016AE070E00E94FA
:10038000EE1CFB01FF27E553FF4F6491C05ADB4F82
:10039000642B6883FC01FF27E553FF4FE491E42BB6
:1003A000E983DF91CF91089590E0FC01E553FF4F81
:1003B000E491E0936504FC01E05FFE4F608141E061
:1003C00070E087E00C94B8019C0183709927892B19
:1003D00039F4C90164E670E00E94DA1C892B69F4E3
:1003E000C90160E971E00E94DA1C21E030E0892B4C
:1003F00011F020E030E0C901089581E090E0089517
:1004000086E190E00E94831D80935E0485B1866042
:1004100085B982E38093800080915E04882329F06F
:100420008091800080688093800088E180938100C3
:100430008AEF90E0909387008093860080918600F9
:100440009091870096958795909389008093880076
:1004500090938B0080938A000895109280001092F0
:100460008100299A2A988AE090E00E9498002A9AAE
:1004700029988AE090E00E94980085B1897F85B92B
:1004800082E38093800080915E04882329F080912C
:10049000800080688093800088E1809381000895C7
:1004A000CF92DF92EF92FF92CF93C62F6A019C0109
:1004B00040E050E060E472E48FE090E00E94241D90
:1004C000309387002093860080918600909187006A
:1004D0009695879590938B0080938A0090938900DE
:1004E00080938800E12CF12C16C0809181008260FD
:1004F00080938100C701B6010E94A5008091810010
:100500008D7F8093810085B1897F85B9C701B60150
:100510000E94A500C150C111E8CF85B1897F85B97E
:10052000CF91FF90EF90DF90CF90089544E650E098
:100530000C9450021F920F920FB60F9211242F931A
:100540003F934F935F936F937F938F939F93AF935B
:10055000BF93EF93FF9300B605FE49C08091D5038A
:1005600081114EC05B9A85B1877D85B95E988CB547
:100570008F7B8CBD8091D4038823B9F060914604B1
:100580008CE190E00E948B1D60916A048BE190E009
:100590000E948B1D609187048AE190E00E948B1D70
:1005A00061E080ED97E00E9496028091D30388235A
:1005B000B9F0609119018FE190E00E948B1D60916C
:1005C0001B018EE190E00E948B1D60911A018DE16C
:1005D00090E00E948B1D62E080ED97E00E94960201
:1005E00015BC10925E0410926800459804C080917A
:1005F000D503882329F0E091DB03F091DC03099512
:10060000FF91EF91BF91AF919F918F917F916F91EA
:100610005F914F913F912F910F900FBE0F901F90C0
:1006200018953D9A459AEAE7F0E0808186608083DC
:10063000ACE7B0E08C9180648C938C9184608C9357
:10064000AEE7B0E08C9180618C938081806880837C
:1006500080818860808308958091D903813029F456
:1006600080917A00806480937A0008959091760456
:10067000992329F08091870480FD0EC005C08B3539
:1006800018F48A3018F003C08AE501C08AE097B5F3
:10069000981721F087BD089582E3F9CF08950E944D
:1006A000360383E084BD81E085BD84B5806884BD68
:1006B000EEE6F0E0808181608083789408951F9257
:1006C0000F920FB60F9211242F933F934F935F9386
:1006D0006F937F938F939F93AF93BF93CF93DF934A
:1006E000EF93FF938091D9038130A1F58091780039
:1006F00090917900392F20E0282B309378042093B3
:100700007704223F83E0380718F0C0915F0405C0EA
:10071000C09185042536310510F4D0E014C0A091B5
:10072000850480915F04B0E0A81BB109245631090B
:10073000D0E00E949E1C2EE833E040E050E00E9492
:10074000021DC21BD30BD0937304C09372048C2F71
:100750000E943603FF91EF91DF91CF91BF91AF914E
:100760009F918F917F916F915F914F913F912F91C9
:100770000F900FBE0F901F901895CF93C82F41E098
:10078000682F70E087E00E94B8018C2FCF910C9405
:100790003603CF93DF93C62FD0E0E82FF0E0E0538D
:1007A000F84FC330D10510F42C963197242F30E048
:1007B0002F5F3F4F2E0F3F1FCE01880F991F280F2D
:1007C000391FCF019695879596958795280F391FE4
:1007D000CF0160E971E00E94DA1C260F371FCF01BC
:1007E00064E670E00E94DA1C261B370B219646E077
:1007F0004C9FC0014D9F900D11246AE070E00E9453
:10080000DA1C260F371FC90167E070E00E94DA1C6E
:100810008F5FDF91CF910895E82FF0E0E553FF4F10
:1008200084910895E82FF0E0EA58FF4F84910895ED
:100830001F93CF93DF93C82FD62F142F8091790465
:10084000811197C08091D803873068F4853008F013
:1008500053C0813079F008F48CC08230E9F08330E5
:1008600009F08DC034C0893008F45CC0893009F0CB
:1008700086C062C0842F66E00E94C01C292F30E031
:10088000220F331FF901E254FF4FE491E093670414
:10089000F901E354FF4F2CC0842F6AE00E94C01C72
:1008A000292F30E0220F331FF901E855FF4F8491C3
:1008B00080936704F901E955FF4F24912093680460
:1008C00040FF5DC0826080936704226012C0842F65
:1008D0006CE00E94C01C292F30E0220F331FF90169
:1008E000E257FF4FE491E0936704F901E357FF4FAC
:1008F00024912093680443C0CC3018F4E7EDF0E075
:1009000002C0E6EEF0E0E491E0936704E3EEF0E08D
:10091000E491E09368048091D803863081F51170EA
:100920001E2B24C010926704109268048091D80393
:10093000883029F511701AC040E0612F70E087E01F
:100940000E94B8018091CF038823C9F08091CE0323
:10095000853030F4809168048160809368040FC012
:10096000803168F0117080916804182B109368042E
:1009700006C040E0612F70E087E00E94B80110924D
:10098000660440E06D2F70E084E00E94B801109290
:1009900063048091DA0381112AC08C2F90E00B96BA
:1009A0006CE070E00E94EE1C9C0101966AE070E031
:1009B0000E94EE1C85539F4FFC018491809362043A
:1009C000265F3F4F2331310518F41092610405C0B2
:1009D000ECECF0E0E491E093610480916004CC30B1
:1009E00010F0816001C08E7F8093600409C040E0F8
:1009F0006C2F70E081E0DF91CF911F910C94B801D2
:100A0000DF91CF911F910895CF93C82F1092680462
:100A1000109267041092660440E070E084E00E9447
:100A2000B801109263048091DA0381113BC0809178
:100A30006004CC3048F0816080936004E6EEF0E022
:100A4000E491E093670408C0E7EDF0E0E491E093FF
:100A500067048E7F80936004E3EEF0E0E491E0931E
:100A600068048C2F90E00B966CE070E00E94EE1C06
:100A70009C0101966AE070E00E94EE1C85539F4F36
:100A8000FC01849180936204265F3F4F233131053E
:100A900018F41092610414C0ECECF0E0E491E093DF
:100AA00061040EC08C2F90E0479668E170E00E94D0
:100AB000EE1C019640E0BC0181E0CF910C94B8019E
:100AC000CF910895CF92DF92EF92FF920F931F93F1
:100AD000CF93DF93F0906F04E090480486E080931A
:100AE000BE03C0E0D6E0FCE3CF2ED12C08E110E03D
:100AF0008091C10380FDA9C08091C103811104C010
:100B00008091C003882319F0D093BE031EC080914A
:100B1000BE0381111AC010927904F0926F04E09222
:100B2000480460916F0489E190E00E948B1D609100
:100B3000480488E190E0DF91CF911F910F91FF90E1
:100B4000EF90DF90CF900C948B1D8091C10381FFBB
:100B500039C01092C103C11110C06E2D8F2D0E949B
:100B60000405809161048160809361048091620436
:100B7000816080936204C1E025C0C13081F46E2D94
:100B80008F2D0E9404058091640481608093640429
:100B900080916504816080936504C2E013C0F09287
:100BA0006F04E092480460916F0489E190E00E9434
:100BB0008B1D6091480488E190E00E948B1D10928B
:100BC000790443C08091C10382FD04C08091C003B9
:100BD00082FF8ECF1092C103C130A9F48F2D90E017
:100BE0000196B8010E94EE1CF82E6E2D0E9404059D
:100BF00080916104816080936104809162048160CE
:100C00008093620417C0C230A9F48E2D90E0019643
:100C1000B6010E94EE1CE82E682F8F2D0E9404055D
:100C20008091640481608093640480916504816094
:100C3000809365048091C00382FF5ACF0E942D02E9
:100C40008BE490E00E94980053CFDF91CF911F91E9
:100C50000F91FF90EF90DF90CF900895CF93C82F22
:100C6000E9EDF0E0E491E0936804EAEEF0E0E4916D
:100C7000E0936704EBEEF0E0E491E093660440E07B
:100C800070E084E00E94B801109263046C2F772713
:100C900067FD709577FF03C071956195710940E01C
:100CA00081E00E94B80180916004C7FD02C08D7F81
:100CB00001C0826080936004CF910895AF92BF928B
:100CC000CF92DF92FF920F931F93CF93DF93F09019
:100CD0000101D090CD0386E08093BE03C0E0D6E052
:100CE000BCE3AB2EB12C09E110E08091C10380FD83
:100CF00093C08091C103811104C08091C0038823F7
:100D000019F0D093BE0305C08091BE03811101C0CC
:100D10002AC08091C10381FF29C01092C103C11173
:100D200010C06D2D8F2D0E942E0680916104816070
:100D30008093610480916204816080936204C1E0C9
:100D400015C0C13081F46D2D8F2D0E942E0680912B
:100D50006404816080936404809165048160809361
:100D60006504C2E003C01092790456C08091C103AB
:100D700082FD04C08091C00382FFB7CF1092C103EF
:100D8000C13001F58F2D992787FD90950D96B801FB
:100D90000E94EE1CC82EA4EFFA2EF80E6D2D8F2D9A
:100DA0000E942E069091610491609093610490914D
:100DB0006204916090936204F09201016C2D83E1D2
:100DC00090E01DC0C230E9F48D2D90E00196B50190
:100DD0000E94EE1CC82ED82E682F8F2D0E942E0642
:100DE00080916404816080936404809165048160D3
:100DF00080936504C092CD036C2D82E190E00E9447
:100E00008B1D8091C00382FF70CF0E942D028BE466
:100E100090E00E94980069CFDF91CF911F910F91D0
:100E2000FF90DF90CF90BF90AF9008950F931F93E6
:100E3000CF93DF93109260048C01C1E6D4E0F801F7
:100E400081918F018823C1F0982F91569A3120F417
:100E50000E94120488830BC080538A3038F4E82F34
:100E6000F0E0E553FF4FE491E88301C0188221963A
:100E7000F4E0C936DF0719F7DF91CF911F910F9189
:100E80000895109267041092680440911A016091CD
:100E90001B01809119010E94C9038430B1F030F424
:100EA000823069F078F48130E9F406C0863099F038
:100EB00078F08730B9F412C08AE591E011C081E67C
:100EC00091E00EC088E691E00BC080E791E008C099
:100ED00089E791E005C082E891E002C089E891E0ED
:100EE0000E94160788EE93E00E9498001092640416
:100EF000109265041092660480911B01863059F1AE
:100F000068F48330F9F028F48130B1F08230C9F50B
:100F100016C08430D1F08530A1F51AC0893021F196
:100F200028F48730D9F0883061F51BC08B3011F17F
:100F3000F0F08C3031F521C082E991E020C086E9E3
:100F400091E01DC08AE991E01AC080EA91E017C0E3
:100F500086EA91E014C08AEA91E011C08FEA91E03C
:100F60000EC084EB91E00BC08AEB91E008C08FEBE0
:100F700091E005C085EC91E002C08BEC91E00E940D
:100F8000160760911A0140E070E087E00E94B80106
:100F900088EE93E00E94980081ED91E00E94160790
:100FA0006091190140E070E084E00C94B801811177
:100FB0002AC01092600482E08093630480936604E8
:100FC0008091DA0381110AC060911B0140E070E05A
:100FD00081E00E94B80160911A0109C060911A0174
:100FE00040E070E081E00E94B80160911B0140E0A8
:100FF00070E084E00E94B8016091190140E070E067
:1010000087E00C94B801813011F40C9441070895E5
:10101000CF93DF938FE190E00E94831D64E60E94EE
:10102000C01C909319018EE190E00E94831D6DE039
:101030000E94C01C90931B018DE190E00E94831DD3
:101040008F7180931A0180E00E94D70764EF71E0EE
:1010500080E090E00E94A5008CE190E00E94831D5A
:10106000D8E16D2F0E94C01C909346048BE190E064
:101070000E94831DCCE36C2F0E94C01C90936A04D5
:101080008AE190E00E94831D6C2F0E94C01C909307
:1010900087044091870460916A04809146040E940D
:1010A000180464EF71E080E090E00E94A50088E100
:1010B00090E00E94831D6C2F0E94C01C90934804F6
:1010C00089E190E00E94831D6D2F0E94C01C9093C7
:1010D0006F0481E08093D20381E090E00E94831D41
:1010E000982F905C913818F48093DD0307C010921C
:1010F000DD0360E081E090E00E948B1D80E2809340
:10110000B6001092B2008FE78093B30082E0809324
:10111000B00096E09093B100809370007894DF91D6
:10112000CF9108954A9B2BC080916C0481113FC0E0
:1011300081E080936C041092C6031092C5038091E5
:10114000D4038823A1F180917904811130C08AED04
:1011500091E00E94160783E6809379048CED95E078
:101160000E9498006091480480916F040E940405D9
:101170008CED95E00E94980010927904089580917A
:101180006C048823A1F010926C041092C603109294
:10119000C50380917604882351F0109276048091E3
:1011A00081008D7F8093810085B1866085B9089527
:1011B0001F920F920FB60F9211242F933F934F93CC
:1011C0005F936F937F938F939F93AF93BF93CF93CF
:1011D000EF93FF931DBA89E60E946519C9B178940F
:1011E0008AE090E00E94980089B1C4702C2F30E012
:1011F000847090E02817390709F002C00E94920815
:1012000081E08DBBFF91EF91CF91BF91AF919F9105
:101210008F917F916F915F914F913F912F910F909F
:101220000FBE0F901F9018951F93CF93DF9386E00A
:101230008093BE0384E190E00E94831DC82FD0E01C
:1012400016E08091C103811104C08091C0038823FE
:1012500019F01093BE0305C08091BE03811101C037
:101260001DC08091C10380FD3DC08091C10381FFFD
:1012700018C01092C103D1110CC083EE91E00E94FE
:10128000160741E06C2F70E081E00E94B801DFE0BA
:1012900008C06C2F84E190E00E948B1D10927904AD
:1012A00021C08091C10382FD04C08091C00382FFF0
:1012B000C8CF1092C103DF3051F4CF5FC43608F0BD
:1012C000C0E041E06C2F70E081E00E94B8018091A5
:1012D000C00382FFB6CF0E942D028BE490E00E94F3
:1012E0009800AFCFDF91CF911F9108958091D803DF
:1012F000843019F148F48130B9F098F08230B9F0B7
:10130000833009F041C016C0873039F128F48530A8
:10131000B9F08630C9F517C0883019F18930A1F5C8
:101320002AC08CEE91E01BC085EF91E018C08EEFD3
:1013300091E015C087E092E012C080E192E00FC01A
:1013400089E192E00CC082E292E00E94160780914F
:10135000670481608093670408958BE292E00C94A7
:10136000160784E392E00E9416078091660481606C
:101370008093660408958DE392E00E9416078091A1
:1013800068048160809368040895CF93DF9386E0BA
:101390008093BE03C0E0D6E08091C103811104C0F8
:1013A0008091C003882319F0D093BE0305C08091BB
:1013B000BE03811101C016C08091C10380FD39C0F8
:1013C0008091C10381FF11C01092C103C11104C0FB
:1013D0000E947609CEE009C06091D80382E090E0D7
:1013E0000E948B1D1092790424C08091C10382FD5C
:1013F00004C08091C00382FFCFCF1092C103CE30D2
:1014000069F48091D8038F5F8093D8038091D803CB
:101410008A3010F01092D8030E9476098091C003A0
:1014200082FFBACF0E942D0284E690E00E949800CD
:10143000B3CFDF91CF9108951F93CF93DF9386E0D1
:101440008093BE0381E090E00E94831D8093DD03C2
:10145000C0E0D6E010EC8091C103811104C08091FE
:10146000C003882319F0D093BE0305C08091BE034A
:10147000811101C01EC08091C10380FD44C08091D4
:10148000C10381FF19C01092C103C1110CC086E4D1
:1014900092E00E94160741E06091DD0386E00E9421
:1014A0009201C8E009C06091DD0381E090E00E94F4
:1014B0008B1D1092790427C08091C10382FD04C066
:1014C0008091C00382FFC7CF1092C103C83081F45E
:1014D0008091DD038F5F80341CF48093DD0302C0B4
:1014E0001093DD0341E06091DD0386E00E949201EC
:1014F0008091C00382FFAFCF0E942D028BE490E069
:101500000E949800A8CFDF91CF911F9108958091FC
:10151000DA03811103C08DE492E002C086E592E017
:101520000C941607CF93DF9386E08093BE0385E18A
:1015300090E00E94831D8093DA03C0E0D6E001C0F2
:10154000C0E08091C103811104C08091C003882351
:1015500019F0D093BE0305C08091BE03811101C074
:1015600010C08091C10380FD27C08091C10381FF1D
:101570000BC01092C103C11104C00E94870AC1E0D0
:1015800003C01092790418C08091C10382FFD9CFA3
:101590001092C103C130A1F681E09091DA0391115C
:1015A00080E08093DA030E94870A6091DA0385E184
:1015B00090E00E948B1DC5CFDF91CF91089580915F
:1015C0005E04882351F08FE592E00E941607809117
:1015D000680481608093680404C088E692E00E94F9
:1015E000160780916504816080936504809166048C
:1015F00081608093660480916704816080936704B2
:1016000008951F93CF93DF9386E08093BE0386E116
:1016100090E00E94831DD82FC0E016E001C0C0E01A
:101620008091C103811104C08091C003882319F007
:101630001093BE0305C08091BE03811101C010C08C
:101640008091C10380FD2AC08091C10381FF0BC03E
:101650001092C103C11104C00E94DF0AC1E003C09F
:10166000109279041BC08091C10382FFD9CF1092E0
:10167000C103C130A1F681E0D11180E0D82F682FDD
:1016800086E190E00E948B1D0E94000261E080EAEA
:101690009FE00E9496020E94DF0AC2CFDF91CF91A5
:1016A0001F9108956091D10340E070E087E00E94AF
:1016B000B80181E792E00C94160780916D048132A5
:1016C00019F489E792E009C080916D04813019F422
:1016D00082E892E002C08BE892E00C9416070F9328
:1016E0001F93CF93DF9386E08093BE038EE090E05C
:1016F0000E94831D80935F048DE090E00E94831D13
:10170000809385041092D903C0E0D6E012E30AE08A
:101710008091C103811104C08091C003882319F016
:10172000D093BE0307C08091BE03811103C0109205
:10173000790430C08091C10380FD2CC08091C10329
:1017400081FF2CC01092C103C1110AC084E992E04C
:101750000E94160780915F040E94BD03C1E01EC075
:10176000C13051F48BE992E00E9416078091850404
:101770000E94BD03C2E012C01092790460915F0420
:101780008EE090E00E948B1D609185048DE090E0DA
:101790000E948B1D81E08093D90336C08091C103E4
:1017A00082FD04C08091C00382FFB2CF1092C103BA
:1017B000C13071F480915F048E5F80935F048091EB
:1017C0005F04833310F000935F0480915F040FC0C7
:1017D000C23079F4809185048B5F80938504809179
:1017E00085048B3510F010938504809185040E9448
:1017F000BD038091C00382FF8BCF0E942D028BE43A
:1018000090E00E94980084CFDF91CF911F910F91BB
:1018100008958091D903813019F482EA92E002C0E0
:101820008BEA92E00C941607CF93DF9386E08093C7
:10183000BE03C0E0D6E08091C103811104C0809155
:10184000C003882319F0D093BE0305C08091BE0366
:10185000811101C043C08091C10380FD5EC08091B1
:10186000C10381FF3EC01092C103C11104C00E9498
:10187000090CC5E036C0C530B1F484EB92E00E949B
:101880001607409177045091780464E081E00E944B
:101890006401409172045091730463E086E00E94F9
:1018A0006401C3E01EC0C33099F40E942C03409130
:1018B00077045091780464E081E00E9464014091D3
:1018C00072045091730463E086E00E94640109C0D1
:1018D0006091D9038FE090E00E948B1D10927904F3
:1018E0001CC08091C10382FFA6CF1092C103C530F6
:1018F00009F0A1CF8091D903813019F41092D90356
:1019000003C081E08093D9030E94090C6091D90340
:101910008FE090E00E948B1D8ECFDF91CF910895D4
:101920001F93CF93DF9386E08093BE03C0E0D6E0A1
:1019300019E18091C103811104C08091C003882303
:1019400019F0D093BE0305C08091BE03811101C080
:1019500016C08091C10380FD43C08091C10381FF07
:1019600019C01092C103C1110AC089EB92E00E9414
:101970001607809169040E94BD03C1E00BC010925C
:1019800079046091690487E190E0DF91CF911F9124
:101990000C948B1D8091C10382FD04C08091C00313
:1019A00082FFC7CF1092C103C13079F480916904DE
:1019B0008B5F80936904809169048B3510F01093DC
:1019C0006904809169040E94BD038091C00382FF75
:1019D000B0CF0E942D028BE490E00E949800A9CF26
:1019E000DF91CF911F9108958091CF03813019F439
:1019F00080EC92E009C08091CF03823019F489EC29
:101A000092E002C082ED92E00C9416078091CB0325
:101A1000882319F08BED92E002C084EE92E00C94E2
:101A200016071F93CF93DF9386E08093BE03C0E039
:101A3000D6E011E08091C103811104C08091C00300
:101A4000882319F0D093BE0305C08091BE03811195
:101A500001C016C08091C10380FD2FC08091C103D9
:101A600081FF11C01092C103C11104C00E94060D74
:101A7000CAE009C06091CB0380E090E00E948B1D1A
:101A8000109279041AC08091C10382FFD3CF1092C3
:101A9000C103CA3079F68091CB03882319F01092E4
:101AA000CB0302C01093CB030E94060D6091CB03C1
:101AB00080E090E00E948B1DBDCFDF91CF911F9100
:101AC0000895CF9386E08093BE03C6E08091C10362
:101AD00080FD1DC08091C103811104C08091C003AD
:101AE000882319F0C093BE0307C08091BE03811103
:101AF00003C0109279040BC08091C10381FFE6CF2F
:101B00001092C1038CE191E00E941607DFCFCF91C4
:101B1000089584E190E00E94831D2CE3829FC00120
:101B200011249093C6038093C5038DEE92E00E942A
:101B3000160783E6809379048CED95E00E94980067
:101B40001092790408951F920F920FB60F921124EC
:101B50002F933F934F935F936F937F938F939F93B5
:101B6000AF93BF93EF93FF9310926B007894189903
:101B70001EC08091C20381FD1FC08AE090E00E94D8
:101B80009800189919C00E942D028091760488232C
:101B900019F00E94890D10C08091C2038260809369
:101BA000C2038091C10382608093C10305C080910C
:101BB000C2038D7F8093C20381E080936B00FF910D
:101BC000EF91BF91AF919F918F917F916F915F91B5
:101BD0004F913F912F910F900FBE0F901F9018952E
:101BE0001F920F920FB60F9211242F933F934F9392
:101BF0005F936F937F938F939F93AF93BF93EF9375
:101C0000FF9310926D007894A8954D991BC0809118
:101C1000C20380FD1CC08AE090E00E9498004D99AC
:101C200052C00E942D028091760481112DC08091B6
:101C3000C20381608093C2038091C103816080935D
:101C4000C10305C08091C2038E7F8093C2034C996B
:101C500033C08091C20382FD36C08AE090E00E94CA
:101C600098004C9930C00E942D0282E08093BF03FF
:101C700014C04C9B12C08091C2038B7F8093C2031F
:101C800080917604882319F00E94890D1CC08091F0
:101C9000C10384608093C10316C08091BF0381118A
:101CA000E8CF8091C20384608093C2038091C00317
:101CB00084608093C00307C01092C0038091C20368
:101CC0008B7F8093C20380E380936D00FF91EF913F
:101CD000BF91AF919F918F917F916F915F914F9144
:101CE0003F912F910F900FBE0F901F90189581E597
:101CF0008CBD08958EBD0DB407FEFDCF0895CF9322
:101D0000DF9300D0CDB7DEB7F8946A8379830E9461
:101D10007A0E7981872F0E947A0E6A81862F0E941F
:101D20007A0E409A409878940F900F90DF91CF915F
:101D300008958F929F92AF92BF92CF92DF92EF92CF
:101D4000FF920F931F9390910001981708F4892F29
:101D5000E82FF0E0DF01A05ABB4FAC91EC58FF4FE9
:101D6000E49161E070E002C0660F771FEA95E2F748
:101D7000882777FD8095982F0091DE031091DF036F
:101D80002091E0033091E10340E050E0B0E0C12C4D
:101D9000D12C7601C394FD01042E02C0F595E79580
:101DA0000A94E2F7E0FF13C0FA01E659FF4F0491ED
:101DB0004601570104C0880C991CAA1CBB1C0A953B
:101DC000D2F795018401682979298A299B294F5FD7
:101DD0005F4F48305105F9F60093DE031093DF039F
:101DE0002093E0033093E1031F910F91FF90EF9058
:101DF000DF90CF90BF90AF909F908F900C947F0E0C
:101E00001F920F920FB60F9211242F933F934F936F
:101E10005F936F937F938F939F93AF93BF93EF9352
:101E2000FF937894A8958091C9039091CA03019675
:101E30009093CA038093C903829708F40DC110924E
:101E4000CA031092C9038091C3039091C403019601
:101E50009093C4038093C3038091CC030E94990E96
:101E60002091CC032F5F2093CC038091CB0330E0F3
:101E70004091000190E0840F911D8217930714F4A4
:101E80001092CC038091D803843041F5809179047D
:101E9000811124C08091D7038F5F8093D703873946
:101EA000E8F01092D7038091C3039091C40367EACE
:101EB00070E00E94DA1CCB0166E070E00E94DA1C40
:101EC000880F991FFC01E058FF4FE491E0936704ED
:101ED000FC01E158FF4F849180936804809176045F
:101EE000882309F4B9C08091C5039091C603892B5A
:101EF00009F0B2C08091C7039091C80301969093F6
:101F0000C8038093C7038B35910508F4A5C01092D0
:101F1000C8031092C70380917A0490917B040196C4
:101F200090937B0480937A0480917A0490917B044F
:101F30008135964470F0109276041092C603109288
:101F4000C503809181008D7F8093810085B186607B
:101F500085B98091740490917504019690937504ED
:101F600080937404209174043091750480918804E6
:101F7000909189048217930730F51092750410929E
:101F8000740410928B0410928A04809188049091BA
:101F90008904459748F0809188049091890444977A
:101FA00090938904809388048091700490917104C7
:101FB000449748F480917004909171040296909334
:101FC00071048093700480918A0490918B0401962F
:101FD00090938B0480938A0420918A0430918B041F
:101FE000809170049091710482179307A8F18091F9
:101FF0008A0490918B044CE0489F9001499F300DDA
:10200000112424553E4F40E050E060E472E48FE03C
:1020100090E00E94241D30938700209386008091D9
:102020008600909187009695879590938B0080937A
:102030008A00909389008093880080918A0490910F
:102040008B0480FF04C080918100826003C0809176
:1020500081008D7F80938100FF91EF91BF91AF91BF
:102060009F918F917F916F915F914F913F912F91B0
:102070000F900FBE0F901F9018958091C000807830
:102080000895FC019381905182812AE0829F900DF6
:1020900011242581205184813AE0839F200D112451
:1020A000309101018091D1038051830F4181840FD0
:1020B00040815AE0459F800D112480934604809111
:1020C000CD0337FF02C0981B01C0980F90936A049C
:1020D0002093870481E08093D4030895FC0121813B
:1020E000205180813AE0839F200D112493819051EB
:1020F00082814AE0849F900D112485818051348132
:102100004AE0349F800D112420931A0190931B0103
:102110008093190181E08093D303089581E0809337
:1021200076041092C6031092C50388EC90E0909359
:10213000890480938804109275041092740482E0DC
:1021400090E0909371048093700410927B0410923D
:102150007A041092C8031092C703089590916C04FA
:10216000992361F090916F04981308C080914804FE
:10217000861304C0411102C00C948E100895CF92B2
:10218000DF92EF92FF920F93CF93DF93D22FCE2D5A
:10219000E62FF0E0EE0FFF1FEC5CFE4FC080D18019
:1021A000C40ED11CE12CF12C382F3053832F8370B7
:1021B00031F4832F64E60E94C01C911108C0832F64
:1021C00090E060E971E00E94EE1C892B29F48FEF0A
:1021D000C81AD80AE80AF80AA701960160E871E56A
:1021E00081E090E00E94B01C6B017C012D2F30E05B
:1021F000A0E1BEE00E94921CC60ED71EE81EF91E8A
:10220000202FACE3B0E00E94921CC60ED71EE81E41
:10221000F91ECC0ED11CE11CF11CB601C701DF91E7
:10222000CF910F91FF90EF90DF90CF900895BF92E4
:10223000CF92DF92EF92FF920F931F93CF93DF9392
:102240001F92CDB7DEB7B82EC62EF42ED02EE62FB5
:10225000F0E0E35BFE4F108182E0681304C08B2D39
:10226000837009F41F5F41E06C2D8B2D29830E9440
:10227000C9034F2D481B2981F81608F4495F2150E6
:10228000E7E02E9F400D11244F5FE12FF0E001C0E9
:102290004750A42FBB27A7FDB095EA17FB07C4F34F
:1022A000E12C00E02D2D6C2D8B2D0E94BF100F9086
:1022B000DF91CF911F910F91FF90EF90DF90CF9022
:1022C000BF900895CF93DF93C82F8091D103909151
:1022D000D1039C1771F19091D003913051F5DC2F0F
:1022E000D81B61E01D1644F488EB91E00E94960231
:1022F00061E080E793E007C080E793E00E949602E8
:1023000061E088EB91E00E949602C093D103809136
:1023100046048D0F809346046C2F83E090E00E946A
:102320008B1D609146048CE190E00E948B1D109201
:10233000D003DF91CF9108954F925F926F927F9279
:102340008F929F92AF92BF92EF920F93CF93B090E4
:102350001401A09015019090160180901701C09172
:1023600018018091190100911301209112014091EF
:102370001101609110010E9417112B013C01809105
:102380001901082D292D4A2D6B2D0E9417114B0183
:102390005C01E090870400916A042091460440911A
:1023A0001A0160911B01809119010E94BF1048140D
:1023B00059046A047B0444F4641575058605970581
:1023C0000CF007C080E00BC0641575058605970505
:1023D0002CF4681579058A059B05A4F78C2FCF91FD
:1023E0000F91EF90BF90AF909F908F907F906F90E4
:1023F0005F904F900C946211809187048C3354F05D
:10240000809187048C538093870480916A048F5F46
:1024100080936A048091870487FF0AC080918704B3
:10242000845C8093870480916A04815080936A045D
:1024300080916A048C3354F080916A048C538093A9
:102440006A04809146048F5F8093460480916A04F9
:1024500087FF0AC080916A04845C80936A0480913B
:10246000460481508093460480918704811114C0F2
:1024700080916A04811110C08091CF0381110CC03A
:10248000609146048CE190E00E948B1D60916A048B
:102490008BE190E00E948B1D80914604883184F08E
:1024A0008091460488518093460480911A018F5F81
:1024B00080931A0160911A018DE190E00E948B1DBA
:1024C0008091460487FF10C080914604885E809307
:1024D000460480911A01815080931A0160911A017B
:1024E0008DE190E00E948B1D80911A01803268F589
:1024F00080911A018F3181F480911B01843029F180
:1025000080911B01863009F180911B018930E9F02F
:1025100080911B018B30C9F080911A018E3121F41A
:1025200080911B01823089F080911A018D31D9F49C
:1025300080911B018230B9F48091190190E08053A1
:10254000984F0E94E40181110EC081E080931A012E
:1025500080911B018F5F80931B0160911B018EE1B5
:1025600090E00E948B1D80911A01811144C08091DE
:102570001B018630B9F058F48330E1F018F4813053
:1025800088F110C0843071F0853061F50FC08A3059
:1025900018F4883038F40AC08B3021F038F08C30D1
:1025A00009F504C080911A01815E14C080911A015E
:1025B000825E10C08091190190E08053984F0E9474
:1025C000E401882321F080911A01835E03C0809189
:1025D0001A01845E80931A0180911B0181508093BF
:1025E0001B0103C081E080931A0160911B018EE101
:1025F00090E00E948B1D80911B018D3070F08091C6
:1026000019018F5F8093190181E080931B01609114
:1026100019018FE190E00E948B1D80911B018111B7
:1026200016C080911B01845F80931B01809119016A
:10263000815080931901609119018FE190E00E940F
:102640008B1D60911B018EE190E00E948B1D80919B
:102650008704811111C080916D04813211F40E94B0
:102660009C1180916A04811107C0809146048111F8
:1026700003C081E08093D00308958091D203882322
:1026800081F146E050E062E071E081E594E00E9473
:10269000661D0097B1F444E050E069E071E08EE718
:1026A00094E00E94661D009761F41092CE038EE7BD
:1026B00094E00E94411081E594E00E946E100E9417
:1026C000FC1146E050E061E574E082E091E00E9498
:1026D000741D46E050E06EE774E089E091E00C94F0
:1026E000741D08950F931F93CF93DF931F92CDB75F
:1026F000DEB78091C6008983E2EEF3E0019000200E
:10270000E9F73197E25EF340E11104C0843209F049
:10271000EFC005C0E33608F0E4C08D3051F041E071
:1027200050E0BE016F5F7F4F82EE93E00E94561D26
:10273000DFC066EF72E082EE93E00E94401D47E04A
:1027400050E068EF72E082EE93E00E94661D009711
:1027500009F0C7C083EE93E090937D0480937C04DE
:1027600010926E040AC080916E04892780936E04D3
:102770003196F0937D04E0937C04E0917C04F09129
:102780007D0490819A3279F7918182819A3310F099
:10279000975301C090538A3310F0875301C0805380
:1027A00020E1929F800D112480936B0490916E0420
:1027B000981397C06CE270E082EE93E00E944B1D8C
:1027C00090937D0480937C04019626E0FC01AEE7A3
:1027D000B4E001900D922A95E1F7109284046CE226
:1027E00070E00E944B1D90937D0480937C04DC017B
:1027F00011962C9120938604213409F072C06CE26A
:1028000070E001960E944B1D90937D0480937C04A0
:10281000FC0141815281638174814093580450933B
:10282000590460935A0470935B0426813781309376
:102830005D0420935C046CE270E001960E944B1DE5
:1028400090937D0480937C04DC0111962C9120935D
:1028500049046CE270E001960E944B1D90937D0448
:1028600080937C049C012F5F3F4F45E0F901AAE46F
:10287000B4E001900D924A95E1F7FC0187819085C3
:102880009093500480934F046CE270E0C9010E9461
:102890004B1D90937D0480937C04DC0111968C91F8
:1028A0008093470403E010E080917C0490917D04C4
:1028B0006CE270E001960E944B1D90937D04809322
:1028C0007C040150110981F7FC01319686E0A1E5F5
:1028D000B4E001900D928A95E1F7109257040E949E
:1028E0003D1384E6E2EEF3E0DF011D928A95E9F7FD
:1028F0000F90DF91CF911F910F9108951F920F922A
:102900000FB60F9211242F933F934F935F936F93C2
:102910007F938F939F93AF93BF93EF93FF9380E841
:102920008093610010926100809187048F5F809393
:1029300087040E94FC1180916A04882329F0809109
:10294000D5038823C9F090C080918704811104C009
:102950008091DD03815805C080918704813019F48E
:102960008FE78093B30080918704823044F7809191
:10297000B60083FDFCCFE3CF8091CE03803118F405
:102980008F5F8093CE0380917904811133C0809151
:10299000D403811107C08091870480FF03C080E0C9
:1029A00093E012C08091CF03882389F08091CE03F9
:1029B000803168F08091D803893049F08091870494
:1029C00080FF05C089E093E00E94160708C040918F
:1029D000870460916A04809146040E9418049091D3
:1029E0006C0480916004992311F0826001C08D7F96
:1029F000809360048091D403882341F04091870440
:102A000060916A04809146040E94AE100E942C03DB
:102A10008091BE03882329F08091BE03815080936A
:102A2000BE038091BF03882329F08091BF038150AA
:102A30008093BF038091C5039091C6030097A1F0D6
:102A400001979093C6038093C5032091600480FF93
:102A500004C022602093600407C02D7F209360048F
:102A6000892B11F40E948E10FF91EF91BF91AF91CD
:102A70009F918F917F916F915F914F913F912F9196
:102A80000F900FBE0F901F901895EF92FF920F932B
:102A90001F93CF93DF938C01C0E0D0E0F12CEE24A4
:102AA000E394F80181918F01882351F0F394FE01A2
:102AB000E05FFE4F6081CE01845F9F4F0E948B1DBF
:102AC000FF2021F0E092D0030E949C112196C93092
:102AD000D10539F7DF91CF911F910F91FF90EF90C2
:102AE0000895CF92DF92EF92FF920F931F93CF93AF
:102AF000DF93CDB7DEB729970FB6F894DEBF0FBED0
:102B0000CDBF86E08093BE03FE01319689E0DF01F0
:102B10001D928A95E9F7F12CE12C96E0D92E8F01D0
:102B2000CC24C3948091C103811104C08091C0035F
:102B3000882319F0D092BE030BC08091BE0381118F
:102B400007C0CE0101960E944515109279045BC022
:102B50008091C10380FD20C08091C10381FF21C00D
:102B60001092C103E1100AC082E193E00E941607AF
:102B70008F2D0E94D4018DE0E82E13C0BDE0EB1232
:102B800009C0F39488E08F1508F4F12C8F2D0E9472
:102B9000D40107C010927904CE0101960E94451518
:102BA00032C08091C10382FD04C08091C00382FFC6
:102BB000B9CF1092C103ADE0EA121AC02F2D30E058
:102BC000F901E05FFE4F80818F5F8083D901AC5DAA
:102BD000BE4F9C91981728F4D901A35DBE4F8C91EC
:102BE0008083F801E20FF31FC0828F2D0E94D40171
:102BF0008091C00382FF96CF0E942D028BE490E06B
:102C00000E9498008FCF29960FB6F894DEBF0FBEB2
:102C1000CDBFDF91CF911F910F91FF90EF90DF908B
:102C2000CF9008950F931F93CF93DF9386E0809307
:102C3000BE03C0E016E0D1E001E28091C103811142
:102C400004C08091C003882319F01093BE0305C00F
:102C50008091BE03811101C016C08091C10380FD27
:102C60005AC08091C10381FF11C01092C103C111EC
:102C700004C00E945D0BC7E009C0C73021F40E9468
:102C8000520BC8E003C01092790445C08091C10383
:102C900082FFD3CF1092C103C73079F680916D04C3
:102CA000813039F400936D048093D0030E949C110D
:102CB00029C080916D04813261F410926D0480917D
:102CC000D1038823F9F01092D103809146048150FA
:102CD0000BC0D0936D048091D103811113C0D093A8
:102CE000D103809146048F5F809346046091D103A5
:102CF00083E090E00E948B1D609146048CE190E09F
:102D00000E948B1D0E945D0B60916D0481E190E03B
:102D10000E948B1D92CFDF91CF911F910F9108954B
:102D2000EF92FF920F931F93CF93DF9386E08093F0
:102D3000BE0310E026E0F22EC6E0D0E001E032E073
:102D4000E32E8091C103811104C08091C0038823C8
:102D500019F0F092BE0307C08091BE03811103C039
:102D60001092790464C08091C10380FD60C080919D
:102D7000C10381FF2BC01092C103812F90E0019607
:102D8000BE010E94EE1C182F83309105B9F034F477
:102D90008130910559F0029731F40BC084309105D0
:102DA00081F0059789F08BE193E005C00E94F40C57
:102DB0000DC084E293E00E94160708C00E941C0127
:102DC00005C08DE293E0F7CF0E9441018091C103DD
:102DD00082FFB7CF1092C103113009F0B2CF8091BA
:102DE000CF03811105C01093CF0387E690E008C0A0
:102DF0008091CF03813039F4E092CF0384E390E0F7
:102E00000E94581902C01092CF030E94F40C6091E6
:102E1000CF0380E190E00E948B1D80916D04813290
:102E200009F08FCF0093D0030E949C118ACFDF91CD
:102E3000CF911F910F91FF90EF9008950F931F93E3
:102E4000CF93DF9386E08093BE03C0E0D6E011E02D
:102E500004E68091C103811104C08091C0038823DE
:102E600019F0D093BE0307C08091BE03811103C047
:102E700010927904F1C08091C10380FDEDC0809172
:102E8000C10381FF7AC01092C103C11115C08091A6
:102E9000DA03811102C0C1E001C0C2E080E00E94FB
:102EA000D7078091610481608093610480916204FE
:102EB00081608093620461C0C13029F48091DA039B
:102EC000882339F01EC0C23069F58091DA03813061
:102ED000A9F48091DA03811102C0C2E001C0C1E00F
:102EE00080E00E94D707809164048160809364042D
:102EF000809165048160809365043FC0882319F048
:102F000011C0813079F480E00E94D7078091670476
:102F10008160809367048091680481608093680475
:102F2000C3E02BC083E68093790480E00E94D7073A
:102F30008CED95E00E9498001092790480916D04C8
:102F4000813229F481E08093D0030E949C1160912A
:102F500019018FE190E00E948B1D60911B018EE1B1
:102F600090E00E948B1D60911A018DE190E0DF914D
:102F7000CF911F910F910C948B1D8091C10382FD05
:102F800004C08091C00382FF64CF1092C103C1309E
:102F900099F480911B018F5F80931B0180911B012D
:102FA0008D3010F0C0931B0180E00E94D707809104
:102FB000DA03811120C014C0C23041F580911A019A
:102FC0008F5F80931A0180911A01803210F0109364
:102FD0001A0180E00E94D7078091DA03813059F40A
:102FE00080916104816080936104809162048160BA
:102FF0008093620426C0809164048160809364049D
:10300000809165048160809365041BC0C330C9F45E
:10301000809119018F5F8093190180911901602FB0
:103020000E94C01C9093190180E00E94D7078091F4
:103030006704816080936704809168048160809355
:1030400068048091C00382FF04CF0E942D028CE3AC
:1030500090E00E949800FDCEDF91CF911F910F91DB
:1030600008958F929F92BF92DF92EF92FF920F93FB
:103070001F93CF93DF93F0904604E0906A04D090C2
:10308000870486E08093BE0310E006E0CCE3D0E046
:1030900048E1842E912C8091C10380FDE7C080918E
:1030A000C103811104C08091C003882319F00093EB
:1030B000BE0307C08091BE03811103C01092790442
:1030C000D5C08091C10381FF6AC01092C103111164
:1030D00017C0F0904604E0906A04D09087044D2D0C
:1030E0006E2D8F2D0E941804809161048160809361
:1030F00061048091620481608093620411E04FC09A
:10310000113089F44D2D6E2D8F2D0E941804809161
:10311000640481608093640480916504816080937D
:10312000650412E03CC0123089F44D2D6E2D8F2DB8
:103130000E941804809167048160809367048091E5
:10314000680481608093680413E029C0F09246040B
:10315000E0926A04D09287041092790481E080930F
:10316000D0030E949C11609146048CE190E00E9483
:103170008B1D60916A048BE190E00E948B1D609131
:1031800087048AE190E0DF91CF911F910F91FF902A
:10319000EF90DF90BF909F908F900C948B1D80914B
:1031A000C10382FD04C08091C00382FF74CF1092DE
:1031B000C1031130C9F48F2D90E00196B4010E9433
:1031C000EE1CB82EF82E4D2D6E2D0E941804809105
:1031D00061048160809361048091620481608093C6
:1031E0006204B092460437C01230D1F48E2D90E0C4
:1031F0000196BE010E94EE1CB82EE82E4D2D682FC0
:103200008F2D0E941804809164048160809364046F
:1032100080916504816080936504B0926A041BC04C
:103220001330C9F48D2D90E00196BE010E94EE1C72
:10323000B82ED82E482F6E2D8F2D0E941804809105
:103240006704816080936704809168048160809343
:103250006804B09287048091C00382FF1CCF0E9453
:103260002D028BE490E00E94980015CFDF91CF9162
:103270001F910F91FF90EF90DF90BF909F908F90E4
:10328000089505C081509EE100009150E9F7811139
:10329000F9CF08950AC02FEF39E698E12150304068
:1032A0009040E1F700C0000081508111F4CF0895F3
:1032B0009093C5008093C40088E18093C1008EE0A4
:1032C0008093C200519A509808959091C00095FF44
:1032D000FCCF8093C60080E090E008958091C0000C
:1032E00087FFFCCF8091C60008958091C000807850
:1032F0000895EF92FF921F93CF93DF931F92CDB764
:10330000DEB77C0110E005C069830E9465191F5F6C
:103310006981F701E10FF11D84918111F5CF6623D9
:1033200061F08AE00E9465198DE00F90DF91CF91E6
:103330001F91FF90EF900C9465190F90DF91CF9142
:103340001F91FF90EF900895CF93DF93EC0102C09F
:103350000E94651989918111FBCFDF91CF9108956A
:10336000CF93C82F82958F708A3010F4805D01C092
:10337000895A0E9465198C2F8F70282F30E02A30CF
:10338000310514F4805D01C0895ACF910C94651900
:10339000CF93C82F892F0E94B0198C2FCF910C94F6
:1033A000B019CF92DF92EF92FF926B017C01C701BF
:1033B0000E94C819C601FF90EF90DF90CF900C9447
:1033C000C819AF92BF92CF92DF92EF92FF920F9304
:1033D0001F93CF93DF931F92CDB7DEB77C0105E03B
:1033E00010E020E080E1A82E87E2B82E9AE0C92EF6
:1033F000D12CC701B5010E94DA1C862F611106C0CD
:10340000211104C091E0A916B10431F4805D6983F3
:103410000E94651921E069816A9DC0016B9D900D34
:103420001124E81AF90AC501B6010E94DA1C5B01F1
:1034300001501109F1F60F90DF91CF911F910F917B
:10344000FF90EF90DF90CF90BF90AF9008952F92B4
:103450003F924F925F926F927F928F929F92AF9224
:10346000BF92CF92DF92EF92FF921F93CF93DF93A1
:103470001F92CDB7DEB74B015C012AE0222E312C22
:1034800010E0C12C3AECD32E3AE9E32E3BE3F32EC5
:103490004AE0442E512C612C712CC501B401A701C6
:1034A00096010E94021D822F211108C0111106C031
:1034B00091E0C916D104E104F10431F4805D29835F
:1034C0000E94651911E02981A22FB0E0A7019601A1
:1034D0000E94A51C861A970AA80AB90AC701B60154
:1034E000A30192010E94021D69017A01E1E02E1AF6
:1034F000310899F60F90DF91CF911F91FF90EF90D7
:10350000DF90CF90BF90AF909F908F907F906F9003
:103510005F904F903F902F90089515BC569A5E98FB
:1035200084B714BE90E00E94C81988E10FB6F894E1
:1035300080936000109260000FBE2FE088E190E061
:103540000FB6F894A895809360000FBE209360009A
:10355000A8951092D4031092D3031092D003109226
:10356000D20387E690E00E94581988E480BF61E0AA
:1035700070E080E090E00E94A50000B605FE06C065
:1035800080B7806180BF0E940808E5C00E940901E1
:103590005B9881E0809369008DBB1092790481E58E
:1035A0008CBD8EE090E00E94831D80935F048DE0CF
:1035B00090E00E94831D8093850487E190E00E9443
:1035C000831D809369048FE090E00E94831D8093A7
:1035D000D9038091D903813019F48091850402C008
:1035E000809169040E944F03789483E190E00E94E7
:1035F000831D982F9C5090930101893110F01092F7
:10360000010182E190E00E94831D8093CD038D3300
:1036100010F01092CD030E9400020E94110385E178
:1036200090E00E94831D8093DA0381E190E00E9484
:10363000831D80936D0483E090E00E94831D80933E
:10364000D1038CE090E00E94831D809310018BE0F9
:1036500090E00E94831D809311018AE090E00E9417
:10366000831D8093120189E090E00E94831D809366
:10367000130188E090E00E94831D8093140187E08D
:1036800090E00E94831D8093150186E090E00E94E7
:10369000831D8093160185E090E00E94831D809336
:1036A000170184E090E00E94831D8093180180E15F
:1036B00090E00E94831D8093CF038091CF038130DF
:1036C00019F487E690E006C08091CF03823021F4A0
:1036D00084E390E00E94581982E090E00E94831DEC
:1036E0008093D80380E090E00E94831D8093CB03F9
:1036F0008091CB03823010F01092CB0383E680934D
:10370000790486E393E00E94160744E650E061E006
:1037100080EC9DE00E94500264EF71E080E090E058
:103720000E94A5000E940808A89544E650E061E0C8
:1037300080EC9DE00E94500280E093E00E9416071A
:1037400088EC90E00E9498001092790481E08093C8
:10375000D0030E94920803E611E0C1E1D0E0A895F1
:1037600000B605FE03C00E94DC00F9CF8091C103C2
:1037700080FFB6C01092C10380917904833649F06E
:103780008091790490E00196BE010E94EE1C809326
:10379000790480917904883009F46AC080F4843017
:1037A000D9F138F4823041F170F5813009F0AEC0C2
:1037B0001CC0863009F44EC008F07DC044C08C3077
:1037C00009F45DC030F48A3009F483C008F06CC09D
:1037D00033C08E3009F45AC008F474C08F3009F435
:1037E0005CC0803109F092C020C086E393E00E9463
:1037F00016070E94610D8AC08FE393E00E941607AE
:103800000E94620583C088E493E00E9416070E942C
:1038100031181093D4037AC081E593E00E94160713
:103820000E941E171093D30371C08AE593E00E9493
:1038300016070E945E066AC08BE193E00E9416079D
:103840000E94901663C083E693E00E9416070E94D0
:10385000140C5CC08CE693E00E9416078091D9039B
:10386000882319F00E946F0B51C00E94900C4EC02B
:1038700085E793E00E9416070E941C0A47C08EE766
:1038800093E00E9416070E94920A40C087E893E0E6
:103890000E9416070E94C50939C080E993E00E9482
:1038A00016070E94140932C089E993E00E941607A6
:1038B0000E94010B2BC082EA93E00E9416070E942F
:1038C000121624C08BEA93E00E9416070E9471151D
:1038D0001DC084EB93E00E9416070E94110D16C0D4
:1038E0008091C10381FD04C08091C10382FF0EC09D
:1038F0001092C103009379040E944107A89588EEB5
:1039000093E00E949800A895109279048091CF03CB
:10391000882309F424CF8091C00087FF20CF0E9424
:1039200072131DCFA29FB001B39FC001A39F01D00E
:10393000B29F700D811D1124911D08950E94921C4B
:10394000B7FF0895821B930B08950E94921CA59FB8
:10395000900DB49F900DA49F800D911D112408958A
:10396000DB018F939F930E94A51CBF91AF91A29FF3
:10397000800D911DA39F900DB29F900D112408956D
:10398000991B79E004C0991F961708F0961B881FB1
:103990007A95C9F78095089587FB082E062687FD3E
:1039A000819567FD61950E94C01C0EF4919507FCFE
:1039B00081950895AA1BBB1B51E107C0AA1FBB1F1D
:1039C000A617B70710F0A61BB70B881F991F5A95AB
:1039D000A9F780959095BC01CD01089597FB072E1E
:1039E00016F4009407D077FD09D00E94DA1C07FC7A
:1039F00005D03EF4909581959F4F089570956195FF
:103A00007F4F0895A1E21A2EAA1BBB1BFD010DC01A
:103A1000AA1FBB1FEE1FFF1FA217B307E407F5077E
:103A200020F0A21BB30BE40BF50B661F771F881F5A
:103A3000991F1A9469F760957095809590959B01F0
:103A4000AC01BD01CF010895052E97FB16F400943B
:103A500007D057FD0DD00E94021D07FC09D07EF44F
:103A600090958095709561957F4F8F4F9F4F0895EA
:103A700050954095309521953F4F4F4F5F4F08959A
:103A8000FB01DC010D900020E9F7119701900D92E8
:103A90000020E1F70895FC018191861721F0882329
:103AA000D9F7992708953197CF010895FB01DC01DB
:103AB0000D900020E9F711974150504028F00190F7
:103AC00000200D92C9F708951C920895FB01DC01B6
:103AD0004150504030F08D910190801919F4002030
:103AE000B9F7881B990B0895FB01DC014150504048
:103AF00048F001900D920020C9F701C01D9241507D
:103B00005040E0F70895F999FECF92BD81BDF89A33
:103B1000992780B50895262FF999FECF92BD81BDD2
:103B2000F89A019700B4021639F01FBA20BD0FB6FB
:0E3B3000F894FA9AF99A0FBE0895F894FFCF10
:103B3E0008F8303030303030003030303030300037
:103B4E00030102020B010102012F0E033133303546
:103B5E003130776D0C0507170C05071701010101B0
:103B6E0000010101000000001F003B005A00780018
:103B7E009700B500D400F300110130014E011F1C57
:103B8E001F1E1F1E1F1F1E1F1E1F73756E64617961
:103B9E00006D6F6E64617900747565736461790090
:103BAE007765646E657364790074687572736461A9
:103BBE00790066726964617900736174757264610B
:103BCE0079006A616E00666562006D6172636800FD
:103BDE00617072696C006D6179006A756E65006A5C
:103BEE00756C790061756773740073657074006F1E
:103BFE0063746F62006E6F76656D00646563656DEC
:103C0E0000203230303020202000616C61726D2037
:103C1E006F6E002020206D696E7574002066756CC5
:103C2E006C20202000206469616C3120200020640B
:103C3E0069616C32202000206469616C33202000A1
:103C4E00206469616C3420200020616D2D706D2020
:103C5E00200020616D2D706D2E2000206E6F6E6520
:103C6E0020202000206E6F6E652E202000206675AD
:103C7E006C6C6770730064726674202000757361DB
:103C8E002D31326872006575722D3234687200768D
:103C9E006F6C206869676800766F6C206C6F772098
:103CAE00006F6666736574200064737420617574AA
:103CBE006F00647374206F6E202000647374206F25
:103CCE00666620006272746C6F200062727468699E
:103CDE0020006164696D206F6E20006164696D2043
:103CEE006F6666006164632000627269746520000D
:103CFE00677073206F6E343800677073206F6E3983
:103D0E003600677073206F666620006F6E20203855
:103D1E00383838006F6666203838383800736E6F62
:103D2E006F7A696E67002A00244750524D432C006B
:103D3E00202020202020202000206E6F206770730E
:103D4E00200072756C65302030300073657420670A
:103D5E0070732000677073206C617420006770733D
:103D6E00206C6F6E67006963652074756265007301
:103D7E00657420616C6172007365742074696D6581
:103D8E0000736574206461746500736574207A6FC6
:103D9E006E6500736574206164696D0073657420CF
:103DAE006272697400736574206472667400736560
:103DBE0074207265676E007365742073656373009B
:103DCE0073657420736E6F7A0073657420766F6CF2
:103DDE002000736574206473742000736574207200
:0E3DEE00756C6500736574206C646262000081
:00000001FF
