:100000000C94AC000C941E190C94C9000C94761539
:100010000C94C9000C94CF150C94C9000C94C90021
:100020000C94C9000C94E50E0C94C9000C94C90002
:100030000C94C9000C94C9000C94C9000C94C9001C
:100040000C9488060C94C9000C94C9000C94C90047
:100050000C94C9000C9450020C94C9000C94F41038
:100060000C94C9000C94C900FA3E1A7ADE8EF62E62
:100070006078AE1CAA2A3ACEF30AB61E3838B86E9B
:1000800076DA6800FC60DAF266B6BEE0FEF684005E
:1000900003070809060A050C0490000B10120F0D47
:1000A0000E11139B00616C61726D206F6E210061F7
:1000B0006C61726D206F66660053657420646179AF
:1000C00000646F6E6500616C61726D20696E6974A9
:1000D00000636C6F636B20696E6974006565707294
:1000E0006F6D20696E697400737065616B65722055
:1000F000696E697400626F6F737420696E69740051
:1001000076666420696E6974007475726E696E67D4
:10011000206F6E20616C61726D7377007475726E02
:10012000696E67206F6E20627574746F6E73006302
:100130006C6F636B20696E697400210057414B45F9
:100140005245534554007A006232006233006231F6
:1001500000736E6F6F7A650011241FBECFEFD4E07D
:10016000DEBFCDBF13E0A0E0B1E0E4E0F7E302C002
:1001700005900D92AC30B107D9F713E0ACE0B3E0D5
:1001800001C01D92A13EB107E1F70E942D170C940A
:10019000801B0C9400009C01789410921F03109215
:1001A0001E0380911E0390911F0382179307C8F3CB
:1001B0000895A895089581E0809310035B9A8CB50B
:1001C0008F7B8CBD85B1877D85B95E9815BC1092FB
:1001D000C20310926800459885B1897F85B98BB1BB
:1001E0008F7C8BB928988AB18F7C8AB920985A98CD
:1001F0005298E1E6F0E090E8908388E08083449AAA
:1002000083B7876083BF8895908310824498089550
:100210008EE284B988E48AB989E087B984E38BB92E
:1002200091E095B985E08093680090936B0080E33E
:1002300080936D000895CF93DF931092C603809151
:10024000AD038E3419F41092C70303C082E080938B
:10025000C703ACEBB3E0C8ECD3E0ED91E053F0E0C2
:10026000EC57FF4FE491E99383E0A23CB807A9F76C
:100270008091CB0381608093CB03DF91CF91089570
:10028000CF93DF938091AA03853419F41092C603AB
:1002900003C082E08093C603AEEAB3E0C7ECD3E0CC
:1002A000ED91E053F0E0EC57FF4FE491E99383E0E8
:1002B000A53BB807A9F78091CB0381608093CB035E
:1002C000DF91CF910895A82FB0E024E830E0F90144
:1002D000EA0FFB1FE491E160E093CA03A852BD4F0F
:1002E0004C91842F6AE00E94D61AF901E80FF11DA3
:1002F000E491E160E093CC03842F0E94D61A290F89
:10030000311DF901249121602093CD030895FC0152
:1003100083709070892B39F4CF0164E670E00E94FD
:10032000E21A892B49F420E030E0CF0160E971E066
:100330000E94E21A892B11F421E030E0822F089507
:100340001092800010928100299A2A987894109235
:100350001F0310921E0380911E0390911F030A97A2
:10036000D0F32A9A2998789410921F0310921E03B2
:1003700080911E0390911F030A97D0F385B1897F66
:1003800085B982EB8093800088E180938100089595
:100390001F93162F9C0140E050E060E472E48FE070
:1003A00090E00E942B1B3093870020938600809161
:1003B0008600909187009695879590938B00809307
:1003C0008A0080918A0090918B009093890080939D
:1003D000880028EC30E01CC080918100826080930E
:1003E000810080ED97E0F9013197F1F70197D9F796
:1003F000809181008D7F8093810085B1897F85B94F
:1004000080ED97E0F9013197F1F70197D9F7115095
:10041000112311F785B1897F85B91F9108953D9A00
:10042000459AAAE7B0E08C9186608C93ECE7F0E007
:10043000808180648083808184608083EEE7F0E047
:100440008081806180838C9180688C938C9188609E
:100450008C93089580910F03813029F480917A0064
:10046000806480937A000895982F8B3510F09AE578
:1004700003C08E3108F49EE187B5891397BD0895B6
:100480000E94340283E084BD81E085BD84B580682C
:1004900084BDEEE6F0E080818160808378940895E9
:1004A0001F920F920FB60F9211241F932F933F9319
:1004B0004F935F936F937F938F939F93AF93BF936C
:1004C000EF93FF9380910F038130B1F53091780065
:1004D00020917900922F80E0632F70E0682B792BB8
:1004E00083E0623F780718F08091C40323C065362B
:1004F000710518F48091DE031DC01091DE03209178
:10050000DE03E091C4036456704080E090E030E088
:100510002E1B3109442737FD4095542F0E94B71AEE
:100520002EE833E040E050E00E94091B812F90E06C
:10053000821B930B0E943402FF91EF91BF91AF9108
:100540009F918F917F916F915F914F913F912F91EB
:100550001F910F900FBE0F901F9018951F93482F5B
:10056000192F6AE070E00E94F61A24E830E0F901E1
:10057000E60FF11DE491E160E093CC03842F912F0D
:100580006AE070E00E94F61A280F311DF9012491EB
:1005900021602093CD03842F0E9434021F9108957F
:1005A000CF93DF93C62FD0E0E82FF0E0E053F84F71
:1005B000C330D10510F42C963197242F30E02F5FF3
:1005C0003F4F2E0F3F1FCE01880F991F280F391F55
:1005D000CF019695879596958795280F391FCF015E
:1005E00060E971E00E94E21A260F371FCF0164E62E
:1005F00070E00E94E21A261B370BAE014F5F5F4F7F
:10060000CA01880F991F840F951F880F991F6AE0F0
:1006100070E00E94E21AC901860F971F67E070E040
:100620000E94E21A8F5FDF91CF910895E4E8F0E035
:10063000E80FF11DE4918E2F0895E82FF0E0E95FB7
:10064000FF4FE4918E2F08951F93182F262F842F8C
:100650006AE00E94D61AE92FF0E0EC57FF4FE491D0
:10066000E093CD03842F0E94D61AE82FF0E0EC57D8
:10067000FF4FE491E093CC031092CB03822F0E94B2
:10068000D61AE92FF0E0EC57FF4FE491E093CA034C
:10069000822F0E94D61AE82FF0E0EC57FF4FE4912A
:1006A000E093C9031092C80380910E03882369F573
:1006B000812F90E00B966CE070E00E94F61A9C018E
:1006C00001966AE070E00E94F61AE82FF0E0EC571D
:1006D000FF4FE491E093C703265F3F4F233131057D
:1006E00018F41092C60305C0E5E8F0E0E491E09349
:1006F000C6031C3020F08091C503816003C0809147
:10070000C5038E7F8093C5031AC0812F68E10E94C4
:10071000D61A292F892F6AE00E94D61AE92FF0E015
:10072000EC57FF4FE491E093C703822F0E94D61A43
:10073000E82FF0E0EC57FF4FE491E093C6031F91E0
:100740000895382F262F1092CD031092CC031092CB
:10075000CB03862F6AE00E94D61AE92FF0E0EC570F
:10076000FF4FE491E093CA03822F0E94D61AE82F2C
:10077000F0E0EC57FF4FE491E093C9031092C803F7
:1007800080910E03882309F03BC03C3058F08091E3
:10079000C50381608093C503E7E7F0E0E491E0934F
:1007A000CC030AC0E8E6F0E0E491E093CC0380914A
:1007B000C5038E7F8093C503E4E7F0E0E491E09306
:1007C000CD03832F90E00B966CE070E00E94F61A48
:1007D0009C0101966AE070E00E94F61AE82FF0E0B2
:1007E000EC57FF4FE491E093C703265F3F4F23315F
:1007F000310518F41092C6030895E5E8F0E01FC033
:10080000832F90E0479668E170E00E94F61A9C0101
:100810002F5F3F4FC9016AE070E00E94F61AE82F8F
:10082000F0E0EC57FF4FE491E093C703C9016AE0A1
:1008300070E00E94F61AE62FF0E0EC57FF4FE491CB
:10084000E093C6030895482F262FEAE6F0E084914E
:100850008093CD03719684918093CC033196E4917B
:10086000E093CB03862F6AE00E94D61AE92FF0E0CE
:10087000EC57FF4FE491E093CA03822F0E94D61AEF
:10088000E82FF0E0EC57FF4FE491E093C90310929A
:10089000C803242F332727FD309537FF03C0309539
:1008A00021953F4FC9016AE070E00E94F61AE82FD7
:1008B000F0E0EC57FF4FE491E093C703C9016AE011
:1008C00070E00E94F61AE62FF0E0EC57FF4FE4913B
:1008D000E093C60347FD04C08091C5038D7F03C02C
:1008E0008091C50382608093C5030895CF93DF9301
:1008F0001092C503EC01A6ECB3E0E881EE23D9F039
:100900008E2F81568A3128F4F0E0E95FFF4FE491A1
:1009100009C08E2F80538A3038F4E82FF0E0EC576E
:10092000FF4FE491EC9301C01C922196119683E055
:10093000AE3CB80711F7DF91CF910895882309F0F5
:1009400075C01092C50382E08093C8038093CB03E7
:1009500080910E03882329F58091DD036AE00E94CF
:10096000D61AE82FF0E0EC57FF4FE491E093C6036E
:100970008091DD030E94D61AE92FF0E0EC57FF4F7B
:10098000E491E093C7038091C3030E94D61AE82F35
:10099000F0E0EC57FF4FE491E093C9038091C3036B
:1009A00024C08091C3036AE00E94D61AE82FF0E0C9
:1009B000EC57FF4FE491E093C6038091C3030E947C
:1009C000D61AE92FF0E0EC57FF4FE491E093C7030C
:1009D0008091DD030E94D61AE82FF0E0EC57FF4F1C
:1009E000E491E093C9038091DD030E94D61AE92FB8
:1009F000F0E0EC57FF4FE491E093CA038091AB0322
:100A00006AE00E94D61AE82FF0E0EC57FF4FE4911D
:100A1000E093CC038091AB030E94D61AE92FF0E05B
:100A2000EC57FF4FE491E093CD030895813009F036
:100A3000CDC01092CC031092CD038091AB03609196
:100A4000DD034091C3030E94D0028430C9F0853099
:100A500038F4823079F0833080F48130F1F407C0CB
:100A60008630A1F0863078F08730B9F412C080E08B
:100A700091E011C087E091E00EC08EE091E00BC0E4
:100A800086E191E008C08FE191E005C088E291E045
:100A900002C08FE291E00E947604789410921F03C6
:100AA00010921E0380911E0390911F03885E934055
:100AB000C8F31092C9031092CA031092CB0380911D
:100AC000DD03863079F1873070F4833011F18430A2
:100AD00028F48130C1F08230D9F518C08430E1F0BB
:100AE0008530B1F51CC0893031F18A3028F4873067
:100AF000E1F0883069F51CC08B3019F18B30F0F0D3
:100B00008C3031F521C088E391E020C08CE391E086
:100B10001DC080E491E01AC086E491E017C08CE427
:100B200091E014C080E591E011C085E591E00EC030
:100B30008AE591E00BC080E691E008C085E691E08F
:100B400005C08BE691E002C081E791E00E94760447
:100B50008091C3036AE00E94D61AE82FF0E0EC57B8
:100B6000FF4FE491E093CC038091C3030E94D61A17
:100B7000E92FF0E0EC57FF4FE491E093CD03789438
:100B800010921F0310921E0380911E0390911F0369
:100B9000885E9340C8F387E791E00E9476048091D5
:100BA000AB036AE00E94D61AE82FF0E0EC57FF4F43
:100BB000E491E093C9038091AB030E94D61AE92F18
:100BC000F0E0EC57FF4FE491E093CA0308951F93C0
:100BD0008AE0809324031AE08091210380FD1DC0E8
:100BE00080912103882321F480912203882319F026
:100BF0001093240307C080912403882319F41092D2
:100C0000D4030BC08091210381FFE6CF1092210312
:100C100080E891E00E947604DFCF1F91089581E57E
:100C20008CBD08959B01AC01F894CA01AA27BB278B
:100C30008EBD0DB407FEFDCFBB27A52F942F832FAC
:100C40008EBD0DB407FEFDCF2EBD0DB407FEFDCF4A
:100C5000409A409878940895AF92BF92CF92DF92D5
:100C6000EF92FF920F931F93E82FF0E0E057FF4FB2
:100C7000E49181E090E002C0880F991FEA95E2F7C5
:100C80007C010027F7FC0095102F2091250330915F
:100C900026034091270350912803A0E0B0E070E0C4
:100CA00091E0A92EB12CC12CD12CCB010A2E02C06F
:100CB000959587950A94E2F780FF11C0FD01E556EE
:100CC000FF4FE491A601950104C0220F331F441F7A
:100CD000551FEA95D2F7E22AF32A042B152B119619
:100CE000A830B10511F720932503309326034093D4
:100CF000270350932803C801B7010E9412061F91D1
:100D00000F91FF90EF90DF90CF90BF90AF9008953C
:100D10001F920F920FB60F9211242F933F934F9370
:100D20005F936F937F938F939F93AF93BF93EF9353
:100D3000FF937894A89580911803909119030196D8
:100D40009093190380931803819708F46CC0109254
:100D500019031092180380911E0390911F030196AE
:100D600090931F0380931E0380911703893010F026
:100D70001092170380911703E82FF0E0EB53FC4F1C
:100D800060810E942C06809117038F5F8093170368
:100D90008091D303882309F446C080911C0390916D
:100DA0001D03892B09F03FC080911A0390911B030A
:100DB000019690931B0380931A038536910598F151
:100DC00010921B0310921A038AEF90E09093870011
:100DD00080938600809186009091870096958795F4
:100DE00090938B0080938A0080918A0090918B0071
:100DF00090938900809388008091D303807F49F08D
:100E00008091D3038F708093D303809181008D7F75
:100E100008C08091D303806F8093D30380918100B9
:100E2000826080938100FF91EF91BF91AF919F917C
:100E30008F917F916F915F914F913F912F910F9083
:100E40000FBE0F901F9018958EBD0DB407FEFDCFFD
:100E500008958091C00080780895FC01538150511D
:100E600082814AE0849FC0011124580F74816581FA
:100E70003091F30220911303230F20518181280F19
:100E80008081849FC0011124280F2093A9038091A1
:100E9000160337FF02C0581B01C0580F5093CF03F1
:100EA00060518AE0789FC0011124680F6093E003CD
:100EB0000895FC015181505180814AE0849FC00116
:100EC0001124580F338130518281849FC001112435
:100ED000380F258120518481849FC0011124280F5F
:100EE00010921103109212035093C3033093DD0349
:100EF0002093AB030895CF92DF92EF92FF920F936E
:100F00001F93782FE62FF22EC02EDE2CF0E0EE0F8E
:100F1000FF1FEE50FD4F80819181840F911D8C0148
:100F200020E030E0472F50E0CA0183709070892B99
:100F300031F4872F64E60E94D61A992339F4CA0146
:100F400060E971E00E94F61A892B21F40F5F1F4FB0
:100F50002F4F3F4FC901B80120E831E541E050E093
:100F60000E94B71A4F2D50E020E13EE0429F7001F1
:100F7000439FF00C529FF00C11240027F7FC0095C2
:100F8000102FED0CF11C011D111D2CE3C29E9001D0
:100F90001124442737FD4095542FE20EF31E041F01
:100FA000151FE60EF71E081F191FB701C8011F9174
:100FB0000F91FF90EF90DF90CF900895DF92EF9226
:100FC000FF920F931F93182F062FF42ED22EE82F87
:100FD000F0E0EE0FFF1FEE50FD4FE0808091AB037D
:100FE00090E083709070892B19F4123009F4E39427
:100FF0008091AB03612F41E00E94D002081718F0E6
:10100000602F681B03C0602F681B695F87E0F89E34
:10101000C0011124482F4650460F01C04750E41626
:10102000E8F38091AB03612F2D2D00E0EE240E94A8
:101030007B071F910F91FF90EF90DF9008955F92D3
:101040006F927F928F929F92AF92BF92CF92DF92D8
:10105000EF92FF920F931F93FC0114810581F6809C
:10106000E780508480816181428123810E94DE0774
:101070005B016C01812F602F4F2D2E2D0E94DE070A
:101080003B014C018091AB036091DD034091C303B0
:101090002091A9030091CF03E090E0030E947B0719
:1010A0006A157B058C059D05ACF0661577058805EE
:1010B000990584F480911303882341F58091D50329
:1010C000813021F51092D503509213038091A9032A
:1010D000850D0FC0809113031816C4F48091D503B9
:1010E0008130A1F41092D503109213038091A903CB
:1010F00085198093A9038DE190E0652D0E94721BF4
:101100006091A90384E090E00E94721B1F910F91EF
:10111000FF90EF90DF90CF90BF90AF909F908F9017
:101120007F906F905F9008958091E0038C3354F02E
:101130008091E0038C538093E0038091CF038F5F15
:101140008093CF038091E00387FF0AC08091E00382
:10115000845C8093E0038091CF0381508093CF0320
:101160008091CF038C3354F08091CF038C538093C4
:10117000CF038091A9038F5F8093A9038091CF0350
:1011800087FF0AC08091CF03845C8093CF03809156
:10119000A90381508093A9038091E0038823A1F4DF
:1011A0008091CF03882381F480911503882361F413
:1011B0006091A90384E090E00E94721B6091CF03CC
:1011C00085E090E00E94721B8091A903883184F031
:1011D0008091A90388518093A9038091C3038F5FF5
:1011E0008093C3036091C30383E090E00E94721B6D
:1011F0008091A90387FF10C08091A903885E809326
:10120000A9038091C30381508093C3036091C303FA
:1012100083E090E00E94721B8091C303803268F5E6
:101220008091C3038F3181F48091DD03843029F1F3
:101230008091DD03863009F18091DD038930E9F08A
:101240008091DD038B30C9F08091C3038E3121F48E
:101250008091DD03823089F08091C3038D31D9F410
:101260008091DD038230B9F48091AB0390E080532C
:10127000984F0E948701882371F481E08093C30313
:101280008091DD038F5F8093DD036091DD0382E059
:1012900090E00E94721B8091C303882309F047C02D
:1012A0008091DD038630D1F0873060F4833029F1FE
:1012B000843018F4813090F111C0843079F0853099
:1012C00069F510C08A3018F4883040F40BC08B30B8
:1012D00029F08B3038F08C3009F504C08091C303BD
:1012E000815E03C08091C303825E8093C3038091BB
:1012F000DD0381508093DD0314C08091AB0390E047
:101300008053984F0E948701882321F08091C30366
:10131000835EEBCF8091C303845EE7CF81E080934F
:10132000C3036091DD0382E090E00E94721B809114
:10133000DD038D3070F08091AB038F5F8093AB0342
:1013400081E08093DD036091AB0381E090E00E9437
:10135000721B8091DD038823B1F48091DD03845FEB
:101360008093DD038091AB0381508093AB03609148
:10137000DD0382E090E00E94721B6091AB0381E08C
:1013800090E00E94721B8091E0038823F1F4809129
:10139000D103823429F488ED92E00E941F080AC02C
:1013A0008091D103813221F481E08093130302C044
:1013B000109213038091CF03882339F48091A903FD
:1013C000882319F481E08093D5030895EF92FF926A
:1013D0000F931F93CF93DF938C01FF24C4E1D0E0E0
:1013E000EE24E394F8018081882341F0F394FE0118
:1013F000EC53FD4FCE0160810E94721BFF2031F043
:10140000E092D50388ED92E00E941F080F5F1F4F06
:101410002196CD31D10531F7DF91CF911F910F91F9
:10142000FF90EF900895CF92DF92EF92FF920F938B
:101430001F93DF93CF93CDB7DEB729970FB6F894FC
:10144000DEBF0FBECDBF8AE080932403FE0131963C
:1014500089E0DF011D928A95E9F700E010E05AE08B
:10146000C52E7F01DD24D39480912103882321F4AC
:1014700080912203882319F0C09224030BC080912D
:101480002403882339F4CE0101960E94E6091092C4
:10149000D4034FC08091210380FD1DC080912103A2
:1014A00081FF1EC010922103002349F489E891E0D6
:1014B0000E947604812F0E9463010DE011C00D305F
:1014C00041F41F5F193008F010E0812F0E94630182
:1014D00007C01092D403CE0101960E94E60929C0EC
:1014E0008091210382FD04C08091220382FFBCCF42
:1014F000109221030D3009F0B7CFA12FB0E09D016C
:1015000028523D4FF90180818F5F8083FD01E651B4
:10151000FD4F9081981730F4FD01EF51FD4F808110
:10152000F9018083AE0DBF1DDC92812F0E94630103
:101530009BCF29960FB6F894DEBF0FBECDBFCF91DB
:10154000DF911F910F91FF90EF90DF90CF90089562
:10155000DF92EF92FF920F931F938AE08093240310
:1015600010E0EAE0DE2E71E2E72E01E062E4F62E02
:1015700080912103882321F480912203882319F08C
:10158000D092240304C080912403882301F1809128
:10159000210380FD72C08091210381FF1BC0109246
:1015A00021031123A1F48091D103823419F482E93B
:1015B00091E006C08091D103813231F48BE991E052
:1015C0000E9476041CE006C084EA91E0F9CF1092F4
:1015D000D40353C08091210382FFCACF109221030C
:1015E0001C3031F68091D103813279F4F092D1032D
:1015F00082E991E00E9476040093D50388ED92E0A1
:101600000E941F080093D50331C08091D10382341A
:1016100081F41092D10384EA91E00E9476048091D3
:10162000130318161CF5109213038091A90381501F
:101630000FC0E092D1038BE991E00E947604809183
:101640001303882399F4009313038091A9038F5FF8
:101650008093A903609113038DE190E00E94721BB7
:101660006091A90384E090E00E94721B6091D10315
:101670008FE090E00E94721B7BCF1F910F91FF9033
:10168000EF90DF900895FF920F931F938AE080936D
:10169000240310E0FAE0FF2E0EE101C010E080917B
:1016A0002103882321F480912203882319F0F092EA
:1016B000240304C0809124038823B9F0809121037E
:1016C00080FD39C08091210381FF18C01092210351
:1016D000112359F48DEA91E00E9476048091CE03A3
:1016E00090E00E94AE0211E009C01092D403609114
:1016F000CE0389E090E00E94721B1DC080912103FF
:1017000082FD04C08091220382FFC9CF1092210381
:10171000113021F68091CE038B5F8093CE038091B0
:10172000CE038B3510F00093CE038091CE0390E072
:101730000E94AE02B4CF1F910F91FF9008950F93B6
:101740001F938AE08093240310E00AE08091210334
:10175000882321F480912203882319F00093240325
:1017600007C080912403882319F41092D4035BC02E
:101770008091210380FD57C08091210381FF34C0F7
:1017800010922103812F90E0019666E070E00E94A4
:10179000F61A182F8230E9F0833028F4882351F0AC
:1017A000813011F50AC08430D1F08430A8F0853042
:1017B000D9F418C084EB91E009C080911503813001
:1017C00019F48DEB91E002C086EC91E00E94760462
:1017D0000BC08FEC91E0FACF0E941B0105C088ED91
:1017E00091E0F4CF0E9440018091210382FFAECFAF
:1017F00010922103113009F0A9CF80911503813097
:1018000029F41092150386EC91E004C0109315039F
:101810008DEB91E00E9476046091150380E190E0E9
:101820000E94721B93CF1F910F910895FF920F9307
:101830001F938AE08093240310E0AAE0FA2E01E0CF
:1018400080912103882321F480912203882319F0B9
:10185000F092240304C0809124038823F9F080913E
:10186000210380FD3CC08091210381FF1AC01092AA
:101870002103112369F480910F03813019F481EE63
:1018800091E002C08AEE91E00E94760417E009C060
:1018900060910F0381E190E00E94721B1092D403CB
:1018A0001EC08091210382FFCBCF109221031730FD
:1018B00039F680910F03813029F410920F038AEEDC
:1018C00091E004C000930F0381EE91E00E94760442
:1018D00060910F0381E190E00E94721BB1CF1F91D4
:1018E0000F91FF900895DF92EF92FF920F931F9355
:1018F0000091A903E090CF03F090E0038AE0809389
:10190000240310E0BAE0DB2E8091210380FDEAC0C1
:1019100080912103882321F480912203882319F0E8
:10192000D092240307C080912403882319F41092D5
:10193000D403D8C08091210381FF67C01092210396
:101940001123B9F40091A903E090CF03F090E003D4
:10195000802F6E2D4F2D0E9424038091C60381603D
:101960008093C6038091C70381608093C70311E011
:101970004CC0113089F4802F6E2D4F2D0E9424030E
:101980008091C90381608093C9038091CA038160FB
:101990008093CA0312E039C0123089F4802F6E2D73
:1019A0004F2D0E9424038091CC0381608093CC034F
:1019B0008091CD0381608093CD0313E026C0009316
:1019C000A903E092CF03F092E0031092D40311E058
:1019D0001093D50388ED92E00E941F081093D50361
:1019E0000093A9036091A90384E090E00E94721B18
:1019F0006091CF0385E090E00E94721B6091E0034C
:101A000086E090E00E94721B6DC08091210382FDF0
:101A100004C08091220382FF77CF109221031130FE
:101A2000C9F4802F90E0019668E170E00E94F61AF8
:101A3000082F6E2D4F2D0E9424038091C6038160D4
:101A40008093C6038091C70381608093C70300938E
:101A5000A90337C01230D1F48E2D90E001966CE3CB
:101A600070E00E94F61AE82E802F6E2D4F2D0E94F6
:101A700024038091C90381608093C9038091CA03C4
:101A800081608093CA03E092CF031BC01330C9F476
:101A90008F2D90E001966CE370E00E94F61AF82E0C
:101AA000802F6E2D4F2D0E9424038091CC038160E6
:101AB0008093CC038091CD0381608093CD03F0921D
:101AC000E0038091220382FF1FCF789410921F03BE
:101AD00010921E0380911E0390911F038B34910579
:101AE000C8F312CF1F910F91FF90EF90DF900895F0
:101AF000EF92FF920F931F931091D2030091AC03CA
:101B00008AE080932403FF249AE0E92E8091210348
:101B100080FDAFC080912103882321F480912203AE
:101B2000882319F0E092240317C0809124038823AE
:101B300099F41092D4031093D2030093AC036091F4
:101B4000D20387E090E00E94721B6091AC0388E0B2
:101B500090E00E94721B8DC08091210381FF3CC0E8
:101B600010922103FF2089F4812F602F0E94A1038E
:101B70008091C60381608093C6038091C703816012
:101B80008093C703FF24F39427C081E0F81689F4FB
:101B9000812F602F0E94A1038091C90381608093EF
:101BA000C9038091CA0381608093CA0382E0F82E42
:101BB00013C01093D2030093AC036091D20387E06B
:101BC00090E00E94721B6091AC0388E090E00E945C
:101BD000721B1092D4034DC08091210382FD04C07A
:101BE0008091220382FF92CF1092210381E0F816A8
:101BF000B1F4812F90E0019668E170E00E94F61A3E
:101C0000182F602F0E94A1038091C60381608093EA
:101C1000C6038091C70381608093C70319C082E027
:101C2000F816B1F4802F90E001966CE370E00E940A
:101C3000F61A082F812F602F0E94A1038091C903FB
:101C400081608093C9038091CA0381608093CA0335
:101C50008091220382FF5ACF789410921F03109232
:101C60001E0380911E0390911F038B349105C8F3CE
:101C70004DCF1F910F91FF90EF900895982F809175
:101C8000D0038823B1F08091D203891791F4809119
:101C9000AC03861771F4442361F485EA90E061E0B7
:101CA0000E94991981E08093D30310921D03109232
:101CB0001C030895AF92BF92DF92EF92FF920F93B1
:101CC0001F93CF93DF938091BA0390E080519240AD
:101CD0002091B9034AE0249F90011124820F931FA1
:101CE0000B970CF468C01091A9030091CF03809169
:101CF000E00386ED93E00E942D0785EB93E00E94C0
:101D000059070E9494083091A9038091CF032CE3D6
:101D10003202D0011124992787FD9095A80FB91F91
:101D2000A12EBB248CE390E0A89EF001A99EF00DAB
:101D3000B89EF00D1124E00FF11D1091A903009140
:101D4000CF03AD014E1B5F0B57FF17C0BD0160569F
:101D50007A4F6E177F0788F09A0120563A4F37FF67
:101D600003C0309521953F4F88279927841B950BF9
:101D70002817390714F4185E01C0BD01E617F707EC
:101D8000D0F4C0E0D0E0E12EFF24E7FCF0940DC0D9
:101D90008D2D602F40E00E943E0E015002C0D12EDA
:101DA000DC1A07FFF5CF21960BE3C7018C1B9D0BB7
:101DB0008A159B05A4F7DF91CF911F910F91FF909A
:101DC000EF90DF90BF90AF9008951F920F920FB6E3
:101DD0000F9211242F933F934F935F936F937F93B1
:101DE0008F939F93AF93BF93EF93FF9380E880937C
:101DF0006100109261008091E0038F5F8093E003A7
:101E00000E94940880911003882309F05FC080919C
:101E1000D403882311F580911103882349F0809120
:101E2000E00380FF05C083EF91E00E94760408C0C4
:101E30008091A9036091CF034091E0030E942403A5
:101E40008091D003882321F08091C503826003C074
:101E50008091C5038D7F8093C5038091A903609114
:101E6000CF034091E0030E943E0E80910F0381302A
:101E700029F480917A00806480937A008091240311
:101E8000882329F08091240381508093240380913A
:101E90002303882329F08091230381508093230317
:101EA00080911C0390911D03009781F001979093FE
:101EB0001D0380931C0380FF04C08091C5038260D2
:101EC00003C08091C5038D7F8093C503FF91EF917F
:101ED000BF91AF919F918F917F916F915F914F9142
:101EE0003F912F910F900FBE0F901F9018954A9B16
:101EF00039C08091D003882309F051C081E08093DC
:101F0000D00310921D0310921C038091D4038823E8
:101F100009F045C08CEF91E00E94760483E680933F
:101F2000D403789410921F0310921E0380911E0315
:101F300090911F03885E9340C8F38091D203609113
:101F4000AC030E94A103789410921F0310921E0309
:101F500080911E0390911F03885E9340C8F31092F6
:101F6000D40308958091D0038823C9F01092D00340
:101F700010921D0310921C038091D303882379F0E3
:101F80008FEA90E061E00E9499191092D30380914A
:101F900081008D7F8093810085B1866085B9089529
:101FA000FF920F931F938AE08093240310E00AE0CE
:101FB000FF24F39480912103882321F4809122034C
:101FC000882319F00093240307C0809124038823F9
:101FD00019F41092D40304C18091210380FD00C143
:101FE0008091210381FF88C0109221031123D1F435
:101FF00080910E03882311F411E006C089EB90E074
:1020000061E00E94991912E080E00E949E04809194
:10201000C60381608093C6038091C703816080936B
:10202000C7036AC0113029F480910E03882339F068
:1020300020C01230E1F480910E038130A9F4809128
:102040000E03882311F011E001C012E080E00E942D
:102050009E048091C90381608093C9038091CA0363
:1020600081608093CA0348C0882339F015C01130BD
:1020700099F480910E03813079F480E00E949E04EF
:102080008091CC0381608093CC038091CD038160EB
:102090008093CD0313E030C083E68093D40380E0C7
:1020A0000E949E04789410921F0310921E03809148
:1020B0001E0390911F038C5D9540C8F31092D403CA
:1020C00011E01093D50388ED92E00E941F08109351
:1020D000D5036091DD0382E090E00E94721B609165
:1020E000C30383E090E00E94721B6091AB0381E028
:1020F00090E00E94721B74C08091210382FD04C095
:102100008091220382FF56CF10922103113099F45F
:102110008091DD038F5F8093DD038091DD038D303F
:1021200010F01093DD0380E00E949E0480910E0366
:10213000882301F514C0123041F58091C3038F5FED
:102140008093C3038091C303803210F0F092C303E5
:1021500080E00E949E0480910E03813059F48091AA
:10216000C60381608093C6038091C703816080931A
:10217000C70326C08091C90381608093C903809101
:10218000CA0381608093CA031BC01330C9F48091D5
:10219000AB038F5F8093AB038091AB0364E60E9437
:1021A000D61A9093AB0380E00E949E048091CC03EA
:1021B00081608093CC038091CD0381608093CD03B7
:1021C0008091220382FFF6CE789410921F03109222
:1021D0001E0380911E0390911F03CC97D0F3EACE8B
:1021E0001F910F91FF9008951F920F920FB60F92BB
:1021F00011242F933F934F935F936F937F938F930C
:102200009F93AF93BF93EF93FF9300B605FE29C052
:1022100080911003882309F042C05B9A85B1877DC5
:1022200085B95E988CB58F7B8CBD80911203882315
:1022300061F06091CF0385E090E00E94721B609195
:10224000E00386E090E00E94721B86E491E061E08A
:102250000E94991915BC1092C2031092680045980B
:1022600019C0809110038823D1F080911203882334
:1022700061F06091CF0385E090E00E94721B609155
:10228000E00386E090E00E94721B8CE391E061E045
:102290000E949919E0910C03F0910D030995FF91AB
:1022A000EF91BF91AF919F918F917F916F915F91CE
:1022B0004F913F912F910F900FBE0F901F90189547
:1022C0000F931F93DF93CF930F92CDB7DEB780911B
:1022D000C600898390911403992349F4843209F04C
:1022E000C6C081E08093140389E293E0B9C009E29B
:1022F00013E0F80101900020E9F73197E01BF10BA2
:10230000E038F105C0F4369789F4C80165E072E061
:102310000E94511B009721F482E0809314039FC018
:1023200080E8F80111928A95E9F796C08A3209F09F
:1023300096C0923019F080E8D8018BC08CE092E012
:102340000E94BA19C8010E94BA19C8016CE270E073
:102350000E94461B9C01A6EDB3E0FC01319686E08D
:1023600001900D928150E1F71092DC03C9010196B2
:102370006CE270E00E94461BFC0181818093DF03C8
:10238000CF0101966CE270E00E94461BFC01818146
:102390009281A381B4818093BC039093BD03A093E9
:1023A000BE03B093BF03868197819093C10380934E
:1023B000C003CF0101966CE270E00E94461BFC0155
:1023C00081818093AD03CF0101966CE270E00E94A1
:1023D000461BFC012EEA33E0AC014F5F5F4F85E006
:1023E000DA010D90AD01D9010D929D018150C1F727
:1023F000878190859093B4038093B303CF010196B6
:102400006CE270E00E94461BFC0181818093AA036C
:10241000CF0101966CE270E00E94461B01966CE2CF
:1024200070E00E94461B01966CE270E00E94461B21
:10243000A5EBB3E0FC01319686E001900D9281504E
:10244000E1F71092BB030E945A0E80E8E9E2F3E044
:10245000DF011D928A95E9F71092140308C0C801A4
:10246000BE016F5F7F4F41E050E00E945A1B0F900A
:10247000CF91DF911F910F9108958AE090E00E9423
:102480006A1B8093C20385B1866085B982E380931D
:1024900080008091C203882329F0809180008068A9
:1024A0008093800088E1809381008AEF90E0909390
:1024B0008700809386008091860090918700969592
:1024C00087959093890080938800809188009091EF
:1024D000890090938B0080938A00089581E090E0BA
:1024E0000E946A1B64E60E94D61A9093AB0382E0B6
:1024F00090E00E946A1B6DE00E94D61A9093DD0363
:1025000083E090E00E946A1B8F718093C30384E094
:1025100090E00E946A1B68E10E94D61A9093A9037A
:1025200085E090E00E946A1B6CE30E94D61A9093AB
:10253000CF0386E090E00E946A1B6CE30E94D61AEB
:102540009093E00388E090E00E946A1B6CE30E9495
:10255000D61A9093AC0387E090E00E946A1B68E172
:102560000E94D61A9093D20391E090931203E6EB67
:10257000F0E080818062808385E08093B100909359
:10258000700078940895FF920F931F938AE08093D0
:1025900024038CE090E00E946A1B182F00E03AE0D0
:1025A000F32E80912103882321F480912203882334
:1025B00019F0F092240304C080912403882349F188
:1025C0008091210380FD65C08091210381FF24C09B
:1025D000109221030023E9F48FE092E00E94760438
:1025E000812F6AE00E94D61AE82FF0E0EC57FF4FE7
:1025F000E491E160E093C603812F0E94D61AE92F8F
:10260000F0E0EC57FF4FE491E160E093C7030BE08B
:1026100003C01092D4033DC08091210382FD04C009
:102620008091220382FFBDCF109221030B3001F570
:102630001F5F143608F010E0812F6AE00E94D61A5E
:10264000E82FF0E0EC57FF4FE491E160E093C60320
:10265000812F0E94D61AE92FF0E0EC57FF4FE4914A
:10266000E160E093C7038CE090E0612F0E94721B51
:102670008091220382FF95CF789410921F031092CD
:102680001E0380911E0390911F038B349105C8F3A4
:1026900088CF1F910F91FF9008950F931F938AE0A9
:1026A000809324038BE090E00E946A1B80930E03CA
:1026B00010E00AE001C010E080912103882321F49A
:1026C00080912203882319F00093240304C0809191
:1026D00024038823C9F08091210380FD38C08091B4
:1026E000210381FF14C010922103112369F480910A
:1026F0000E03882319F488E192E002C081E292E09F
:102700000E94760411E003C01092D40320C080918F
:10271000210382FFD1CF10922103113061F690E0A6
:1027200080910E03882309F491E090930E0399237E
:1027300019F488E192E002C081E292E00E947604FE
:102740008BE090E060910E030E94721BB5CF1F9149
:102750000F910895EF92FF920F931F938AE0809359
:1027600024038AE090E00E946A1BF82E00E04AE011
:10277000E42E01C000E080912103882321F48091A0
:102780002203882319F0E092240304C080912403DB
:10279000882369F18091210380FD66C08091210327
:1027A00081FF28C010922103002309F5FF2051F07A
:1027B0008AE292E00E9476048091CA03816080934D
:1027C000CA0304C083E392E00E9476048091CB03A5
:1027D00081608093CB038091CC0381608093CC0394
:1027E0008091CD0381608093CD0301E003C01092FE
:1027F000D4033AC08091210382FFBDCF1092210300
:10280000013009F0B7CF10E0FF2009F411E0F12EFC
:10281000112351F08AE292E00E9476048091CA036B
:1028200081608093CA0304C083E392E00E9476042F
:102830008091CB0381608093CB038091CC03816036
:102840008093CC038091CD0381608093CD038AE097
:1028500090E0612F0E94721B0E943D1280EA9FE06F
:1028600061E00E94C80187CF1F910F91FF90EF9008
:102870000895EF92FF920F931F938AE080932403B1
:1028800082E190E00E946A1B8093C40383E190E0A0
:102890000E946A1B8093DE0310E06AE0E62E5EE190
:1028A000F52E05E080912103882321F480912203F5
:1028B000882319F0E092240304C080912403882324
:1028C00021F18091210380FD5EC08091210381FF71
:1028D0001FC010922103112359F48CE392E00E944F
:1028E00076048091C40390E00E94AE0211E010C013
:1028F000113059F483E492E00E9476048091DE0363
:1029000090E00E94AE0212E003C01092D4033BC0DC
:102910008091210382FD04C08091220382FFC2CFF7
:10292000109221031130A9F48091C4038B5F80932E
:10293000C4038091C4038B3510F00093C4038091CD
:10294000C40390E00E94AE026091C40382E190E073
:1029500017C0123009F0A6CF8091DE038B5F809301
:10296000DE038091DE038B3510F0F092DE03809160
:10297000DE0390E00E94AE026091DE0383E190E00E
:102980000E94721B8FCF1F910F91FF90EF900895BF
:10299000CF93DF9380E090E00E946A1B813009F4BE
:1029A0007BC080E090E061E00E94721B81E090E0DB
:1029B0006BE00E94721B82E090E061E00E94721B5B
:1029C00083E090E061E00E94721B84E090E060E0B0
:1029D0000E94721B85E090E060E00E94721B86E01E
:1029E00090E060E00E94721B87E090E06AE00E9445
:1029F000721B88E090E060E00E94721B89E090E02A
:102A000062E30E94721B8AE090E060E00E94721B09
:102A10008BE090E060E00E94721B8CE090E06AE046
:102A20000E94721B8DE090E068EF0E94721B8EE0A6
:102A300090E060E00E94721B8FE090E060E00E94F6
:102A4000721B80E190E060E00E94721B82E190E0E6
:102A50006EE10E94721B83E190E06AE50E94721BA6
:102A600081E190E060E00E94721BC4E1D0E0FE01D1
:102A7000EC53FD4FCE0160810E94721B2196CD3137
:102A8000D105A9F78DE190E060E00E94721B88EB10
:102A90009BE062E00E94C801DF91CF9108958CE035
:102AA00090E00E946A1B9CE3899FC00111249093CF
:102AB0001D0380931C0381E591E061E00E94991958
:102AC0008AE492E00E94760483E68093D4037894AB
:102AD00010921F0310921E0380911E0390911F03FA
:102AE000885E9340C8F31092D40308951F920F920A
:102AF0000FB60F9211242F933F934F935F936F93D1
:102B00007F938F939F93AF93BF93EF93FF93109215
:102B10006B00789418992AC08091200381FD2BC006
:102B2000789410921F0310921E0380911E039091BF
:102B30001F030A97D0F318991EC00E94A00180912C
:102B4000D303882319F00E944F1515C080912003EC
:102B5000826080932003809121038260809321030F
:102B600088E491E061E00E94991905C080912003FA
:102B70008D7F8093200381E080936B00FF91EF9124
:102B8000BF91AF919F918F917F916F915F914F9185
:102B90003F912F910F900FBE0F901F9018951F928D
:102BA0000F920FB60F9211242F933F934F935F9381
:102BB0006F937F938F939F93AF93BF93EF93FF9305
:102BC00010926D007894A8954D9927C080912003AC
:102BD00080FD28C0789410921F0310921E038091EC
:102BE0001E0390911F030A97D0F34D9963C00E9472
:102BF000A0018091D3038823C9F5809120038160CF
:102C000080932003809121038160809321038EE4CF
:102C100091E061E00E94991905C0809120038E7FA8
:102C2000809320034C993FC08091200382FD42C0D5
:102C3000789410921F0310921E0380911E039091AE
:102C40001F030A97D0F34C9935C082E08093230389
:102C50001BC04C9B19C00E94A001809120038B7F58
:102C6000809320038091D303882319F00E944F158D
:102C700021C08BE491E061E00E94991980912103C9
:102C800084608093210316C080912303882309F771
:102C900080912003846080932003809122038460CC
:102CA0008093220307C010922203809120038B7F20
:102CB0008093200380E380936D00FF91EF91BF919B
:102CC000AF919F918F917F916F915F914F913F91C4
:102CD0002F910F900FBE0F901F901895EF92FF92BB
:102CE0000F931F931091F302009116038AE08093D3
:102CF0002403FF24EAE0EE2E8091210380FDA8C08A
:102D000080912103882321F480912203882319F0E4
:102D1000E092240304C080912403882369F1809108
:102D2000210381FF2CC010922103FF2089F4812F01
:102D3000602F0E9423048091C60381608093C603A4
:102D40008091C70381608093C703FF24F39417C069
:102D500081E0F81689F4812F602F0E94230480916E
:102D6000C90381608093C9038091CA038160809305
:102D7000CA0372E0F72E03C01092D40369C0809199
:102D8000210382FD04C08091220382FFB5CF1092FF
:102D9000210381E0F81659F5812F992787FD909539
:102DA0000D9669E170E00E94F61A182F1C50812FD1
:102DB000602F0E9423048091C60381608093C60324
:102DC0008091C70381608093C7031093F3028DE065
:102DD00090E0612F0E94721B83E592E00E94BA1975
:102DE000812F992787FD90950E940D1A20C082E0BF
:102DF000F816E9F4802F90E001966CE370E00E94F1
:102E0000F61A082F812F602F0E9423048091C90396
:102E100081608093C9038091CA0381608093CA0353
:102E2000009316038EE090E0602F0E94721B809149
:102E3000220382FF61CF789410921F0310921E0329
:102E400080911E0390911F038B349105C8F354CFDA
:102E50001F910F91FF90EF9008951F93CF93DF93F1
:102E600015BC569A5E9884B714BE90E00E94F01983
:102E700088E10FB6F89480936000109260000FBE56
:102E80002FE088E190E00FB6F894A8958093600059
:102E90000FBE20936000A89511E0109311031092CB
:102EA000D5031092120387E690E00E9477198AE317
:102EB00091E061E00E94991988E480BF80ED97E07D
:102EC0000197F1F700B605FE0BC080B7806180BFA7
:102ED0008FE291E061E00E9499190E946E12D2C0C7
:102EE0000E9408015B988CE191E061E00E949919D1
:102EF00089E091E061E00E949919109369001DBB7F
:102F00001092D40380E091E061E00E94991981E57C
:102F10008CBD85EF90E061E00E94991982E190E01C
:102F20000E946A1B8093C40383E190E00E946A1BA5
:102F30008093DE0389E090E00E946A1B8093CE03B9
:102F400081E190E00E946A1B80930F0380910F0340
:102F5000813019F48091DE0302C08091CE030E947B
:102F6000400278948DE090E00E946A1B8093F30207
:102F7000845F893110F01092F3028EE090E00E949D
:102F80006A1B809316038D3310F01092160388EE9F
:102F900090E061E00E9499190E943D128CED90E052
:102FA00061E00E9499190E94C8140E940F028BE0F0
:102FB00090E00E946A1B80930E038FE090E00E94D5
:102FC0006A1B8093D1038091D1038234C9F484E1D8
:102FD00090E00E946A1B882399F0C4E1D0E0CE0102
:102FE0000E946A1BFE01EC53FD4F80832196CD3178
:102FF000D105A9F78DE190E00E946A1B809313032D
:1030000080E190E00E946A1B8093150383E6809321
:10301000D40381ED90E061E00E9499190E946E1244
:103020008CE692E00E947604789410921F0310922E
:103030001E0380911E0390911F038C5D9540C8F381
:10304000A89580EA9FE061E00E94C80183EF91E0CB
:103050000E947604789410921F0310921E038091B0
:103060001E0390911F03883C9105C8F31092D4036E
:1030700081E08093D50386EC90E061E00E9499198D
:103080000E94770F81EC90E061E00E94991913E6AD
:10309000A89500B605FE03C00E94DB00F9CF809121
:1030A000210380FFA0C0109221038091D4038336B6
:1030B00051F08091D40390E001966EE070E00E94A0
:1030C000F61A8093D4038091D403873009F453C057
:1030D000883078F4833089F1843030F48130F9F02D
:1030E000823009F09FC022C08530B9F18630E0F50A
:1030F0002DC08A3009F45BC08B3038F4883009F475
:1031000041C0893009F08EC04BC08C3009F456C0E4
:103110008C3008F461C08D3009F084C056C08CE654
:1031200092E00E9476040E94E7057CC085E792E069
:103130000E9476040E94780D75C08EE792E00E948E
:1031400076040E94730C109211036CC087E892E021
:103150000E9476040E94D00F65C080E992E00E9430
:1031600076040E946E165EC084EB91E00E947604A5
:103170000E949F0B57C089E992E00E9476040E944A
:10318000160C50C082EA92E00E94760480910F03F0
:10319000882319F00E94391445C00E94430B42C095
:1031A0008BEA92E00E9476040E94AA133BC084EB53
:1031B00092E00E9476040E944D1334C08DEB92E0A1
:1031C0000E9476040E94A80A2DC086EC92E00E941C
:1031D00076040E94130A26C08FEC92E00E947604C7
:1031E0000E94C3121FC08091210381FD04C0809101
:1031F000210382FF17C0109221031093D40381E0B2
:103200000E949E04A895789410921F0310921E03AA
:1032100080911E0390911F03885E9340C8F3A89588
:103220001092D40380911503813009F031CF809141
:10323000C00087FF2DCF0E9460112ACF1F920F92EE
:103240000FB60F9211242F933F934F935F936F9379
:103250007F938F939F93AF93BF93EF93FF931DBA89
:1032600089E60E94841929B17894789410921F03FA
:1032700010921E0380911E0390911F030A97D0F3B2
:1032800089B1247030E090E084709070281739077D
:1032900011F40E94770F81E08DBBFF91EF91BF91F8
:1032A000AF919F918F917F916F915F914F913F91DE
:1032B0002F910F900FBE0F901F90189506C090E0B1
:1032C00000009F5F9E31E1F781508823C1F7089588
:1032D00048EC50E009C020E137E2FA013197F1F7FC
:1032E00021503040D1F781508823A9F70895909359
:1032F000C5008093C40088E18093C1008EE0809374
:10330000C200519A50980895982F8091C00085FF6F
:10331000FCCF9093C60080E090E008958091C000BB
:1033200087FFFCCF8091C60008958091C00080780F
:103330000895AC0120E007C08091C00085FFFCCF5C
:103340003093C6002F5FFA01E20FF11D3491332351
:1033500099F7662371F08091C00085FFFCCF8AE069
:103360008093C6008091C00085FFFCCF8DE08093E4
:10337000C6000895FC0107C08091C00085FFFCCF06
:1033800031969093C60090819923B1F70895282F24
:10339000982F92959F709A3030F48091C00085FFED
:1033A000FCCF905D05C08091C00085FFFCCF995A8D
:1033B0009093C600822F90E08F7090700A973CF433
:1033C0008091C00085FFFCCF2F70205D06C08091EA
:1033D000C00085FFFCCF2F70295A2093C6000895A6
:1033E0001F93182F892F0E94C719812F0E94C71978
:1033F0001F910895EF92FF920F931F937B018C0111
:10340000C801AA27BB270E94F019C7010E94F01922
:103410001F910F91FF90EF9008950F931F93CF93FB
:10342000DF938C01E0E1F7E240E0C0E0D0E0C801CA
:10343000BF010E94E21A262F662329F4442319F4BF
:10344000E130F10549F48091C00085FFFCCF205D9B
:103450002093C600205341E0CF016AE070E00E9453
:10346000E21A2196C530D10571F0822F90E09C01BF
:103470002E9FC0012F9F900D3E9F900D1124081B81
:10348000190BFB01D4CFDF91CF911F910F910895BC
:103490004F925F926F927F928F929F92AF92BF9264
:1034A000CF92DF92EF92FF920F931F93CF93DF9310
:1034B0004B015C01E12C9AECF92E9AE9092F9BE370
:1034C000192F4424C0E0D0E0C501B401A801970140
:1034D0000E94091BD22E222341F4442031F481E0C2
:1034E000E816F1040105110561F48091C00085FF23
:1034F000FCCF80E3D80ED092C60080EDD80E4424D5
:103500004394C801B7012AE030E040E050E00E9457
:10351000091BC22E732E642E552E2196CA30D1055A
:10352000A9F06D2D70E080E090E0A80197010E9465
:10353000B71A861A970AA80AB90A2C2D372D462DD4
:10354000552DC901DA017C018D01BECFDF91CF91EC
:103550001F910F91FF90EF90DF90CF90BF90AF90B1
:103560009F908F907F906F905F904F900895629F93
:10357000D001739FF001829FE00DF11D649FE00D6B
:10358000F11D929FF00D839FF00D749FF00D659FCC
:10359000F00D9927729FB00DE11DF91F639FB00DCB
:1035A000E11DF91FBD01CF0111240895991B79E098
:1035B00004C0991F961708F0961B881F7A95C9F7C3
:1035C00080950895AA1BBB1B51E107C0AA1FBB1F12
:1035D000A617B70710F0A61BB70B881F991F5A959F
:1035E000A9F780959095BC01CD01089597FB092E10
:1035F00007260AD077FD04D0E5DF06D000201AF4B4
:10360000709561957F4F0895F6F7909581959F4F3E
:103610000895A1E21A2EAA1BBB1BFD010DC0AA1F13
:10362000BB1FEE1FFF1FA217B307E407F50720F02B
:10363000A21BB30BE40BF50B661F771F881F991FA6
:103640001A9469F760957095809590959B01AC01EF
:10365000BD01CF01089597FB092E05260ED057FD19
:1036600004D0D7DF0AD0001C38F45095409530952F
:1036700021953F4F4F4F5F4F0895F6F790958095F6
:10368000709561957F4F8F4F9F4F0895FC018191F9
:10369000861721F08823D9F7992708953197CF010C
:1036A0000895FB01DC018D91019080190110D9F37F
:1036B000990B0895FB01DC010D900020E9F71197AB
:1036C0004150504028F0019000200D92C9F7089514
:1036D0001C920895F999FECF92BD81BDF89A992761
:1036E00080B50895262FF999FECF1FBA92BD81BDEE
:1036F00020BD0FB6F894FA9AF99A0FBE0196089574
:04370000F894FFCF6B
:1037040073756E646179006D6F6E646179007475B0
:103714006573646179007765646E657364790074B8
:1037240068757273646179006672696461790073A3
:1037340061747572646179006A616E006665620025
:103744006D6172636800617072696C006D6179000B
:103754006A756E65006A756C7900617567737400CB
:1037640073657074006F63746F62006E6F76656D5D
:1037740000646563656D0020323030302020200005
:10378400313131313037776D0072756C65302030EE
:103794003000647374206175746F00647374206FF7
:1037A4006E202000647374206F6666200062726964
:1037B40074652000736574206770732000677073EC
:1037C400206F6E202000677073206F66662000678C
:1037D4007073206C61742000677073206C6F6E6767
:1037E400006164696D206F6E20006164696D206FF3
:1037F400666600202020202020202000616C617259
:103804006D206F6E00244750524D43000A0D002076
:1038140020206D696E7574007573612D3132687284
:10382400006575722D3234687200766F6C20686999
:10383400676800766F6C20206C6F77006272746C1E
:103844006F200062727468692000736E6F6F7A690A
:103854006E67000A0D54696D657A6F6E65206F6638
:103864006673657420686F75723A09006963652030
:10387400747562650073657420616C6172007365B0
:10388400742074696D6500736574206461746500E7
:10389400736574207A6F6E65007365742061646962
:1038A4006D007365742062726974007365742076A8
:1038B4006F6C2000736574207265676E00736574A5
:1038C4002064737420007365742072756C650073D2
:1038D400657420736E6F7A00030102020B0101020A
:1038E400010101010001010100000C0507170C058D
:1038F400071701F800001F003B005A0078009700EA
:0C390400B500D400F300110130014E01A9
:00000001FF
