:100000000C94AC000C94571A0C94C9000C949916DB
:100010000C94C9000C94F2160C94C9000C94C900FD
:100020000C94C9000C9402100C94C9000C94C900E3
:100030000C94C9000C94C9000C94C9000C94C9001C
:100040000C941F080C94C9000C94C9000C94C900AE
:100050000C94C9000C9450020C94C9000C94171213
:100060000C94C9000C94C900FA3E1A7ADE8EF62E62
:100070006078AE1CAA2A3ACEF30AB61E3838B86E9B
:1000800076DA6800FC60DAF266B6BEE0FEF684005E
:1000900003070809060A050C0490000B10120F0D47
:1000A0000E11139B00616C61726D206F6E210061F7
:1000B0006C61726D206F66660053657420646179AF
:1000C00000646F6E6500616C61726D20696E6974A9
:1000D00000636C6F636B20696E6974006565707294
:1000E0006F6D20696E697400737065616B65722055
:1000F000696E697400626F6F737420696E69740051
:1001000076666420696E6974007475726E696E67D4
:10011000206F6E20616C61726D7377007475726E02
:10012000696E67206F6E20627574746F6E73006302
:100130006C6F636B20696E697400210057414B45F9
:100140005245534554007A006232006233006231F6
:1001500000736E6F6F7A650011241FBECFEFD4E07D
:10016000DEBFCDBF13E0A0E0B1E0E0E9F9E302C0FB
:1001700005900D92A432B107D9F713E0A4E2B3E0E1
:1001800001C01D92AA3FB107E1F70E9450180C94DC
:10019000C61C0C9400009C017894109237031092B6
:1001A0003603809136039091370382179307C8F383
:1001B0000895A895089581E0809328035B9A8CB5F3
:1001C0008F7B8CBD85B1877D85B95E9815BC1092FB
:1001D000DA0310926800459885B1897F85B98BB1A3
:1001E0008F7C8BB928988AB18F7C8AB920985A98CD
:1001F0005298E1E6F0E090E8908388E08083449AAA
:1002000083B7876083BF8895908310824498089550
:100210008EE284B988E48AB989E087B984E38BB92E
:1002200091E095B985E08093680090936B0080E33E
:1002300080936D000895CF93DF931092DE03809139
:10024000C5038E3419F41092DF0303C082E080935B
:10025000DF03A4EDB3E0C0EED3E0ED91E053F0E0B6
:10026000EC57FF4FE491E99383E0AA3DB807A9F763
:100270008091E30381608093E303DF91CF91089540
:10028000CF93DF938091C203853419F41092DE037B
:1002900003C082E08093DE03A6ECB3E0CFEDD3E0B1
:1002A000ED91E053F0E0EC57FF4FE491E99383E0E8
:1002B000AD3CB807A9F78091E30381608093E30325
:1002C000DF91CF910895A82FB0E024E830E0F90144
:1002D000EA0FFB1FE491E160E093E203A151BD4FFF
:1002E0004C91842F6AE00E940F1CF901E80FF11D68
:1002F000E491E160E093E403842F0E940F1C290F36
:10030000311DF901249121602093E5030895FC013A
:1003100083709070892B39F4CF0164E670E00E94FD
:10032000281C892B49F420E030E0CF0160E971E01E
:100330000E94281C892B11F421E030E0822F0895BF
:100340001092800010928100299A2A987894109235
:1003500037031092360380913603909137030A9742
:10036000D0F32A9A29987894109237031092360382
:1003700080913603909137030A97D0F385B1897F36
:1003800085B982EB8093800088E180938100089595
:100390001F93162F9C0140E050E060E472E48FE070
:1003A00090E00E94711C309387002093860080911A
:1003B0008600909187009695879590938B00809307
:1003C0008A0080918A0090918B009093890080939D
:1003D000880028EC30E01CC080918100826080930E
:1003E000810080ED97E0F9013197F1F70197D9F796
:1003F000809181008D7F8093810085B1897F85B94F
:1004000080ED97E0F9013197F1F70197D9F7115095
:10041000112311F785B1897F85B91F9108953D9A00
:10042000459AAAE7B0E08C9186608C93ECE7F0E007
:10043000808180648083808184608083EEE7F0E047
:100440008081806180838C9180688C938C9188609E
:100450008C93089580912703813029F480917A004C
:10046000806480937A000895982F8B3510F09AE578
:1004700003C08E3108F49EE187B5891397BD0895B6
:100480000E94340283E084BD81E085BD84B580682C
:1004900084BDEEE6F0E080818160808378940895E9
:1004A0001F920F920FB60F9211241F932F933F9319
:1004B0004F935F936F937F938F939F93AF93BF936C
:1004C000EF93FF93809127038130D1F5309178002D
:1004D00020917900922F80E0632F70E0682B792BB8
:1004E0007093ED036093EC0383E0623F780718F0AC
:1004F0008091DC0323C06536710518F48091F70301
:100500001DC01091F7032091F703E091DC036456BE
:10051000704080E090E030E02E1B3109442737FD29
:100520004095542F0E94F01B2EE833E040E050E04D
:100530000E944F1C812F90E0821B930B0E9434027B
:10054000FF91EF91BF91AF919F918F917F916F91AB
:100550005F914F913F912F911F910F900FBE0F9080
:100560001F9018951F93482F192F6AE070E00E9482
:100570003C1C24E830E0F901E60FF11DE491E16054
:10058000E093E403842F912F6AE070E00E943C1C0A
:10059000280F311DF901249121602093E503842F58
:1005A0000E9434021F910895CF93DF93C62FD0E0AD
:1005B000E82FF0E0E053F84FC330D10510F42C964B
:1005C0003197242F30E02E5F3F4F2E0F3F1FCE017B
:1005D000880F991F280F391FCF01969587959695FB
:1005E0008795280F391FCF0160E971E00E94281C10
:1005F000260F371FCF0164E670E00E94281C261BDF
:10060000370BAE014F5F5F4FCA01880F991F840FF0
:10061000951F880F991F6AE070E00E94281CC9018D
:10062000860F971F67E070E00E94281CDF91CF9132
:100630000895E4E8F0E0E80FF11DE4918E2F0895AD
:10064000E82FF0E0E95FFF4FE4918E2F08951F93AC
:10065000182F262F842F6AE00E940F1CE92FF0E04C
:10066000EC57FF4FE491E093E503842F0E940F1CA9
:10067000E82FF0E0EC57FF4FE491E093E403109291
:10068000E303822F0E940F1CE92FF0E0EC57FF4F8D
:10069000E491E093E203822F0E940F1CE82FF0E028
:1006A000EC57FF4FE491E093E1031092E003809157
:1006B0002603882369F5812F90E00B966CE070E0AB
:1006C0000E943C1C9C0101966AE070E00E943C1C68
:1006D000E82FF0E0EC57FF4FE491E093DF03265F53
:1006E0003F4F2331310518F41092DE0305C0E5E8D1
:1006F000F0E0E491E093DE031C3020F08091DD0314
:10070000816003C08091DD038E7F8093DD031AC07A
:10071000812F68E10E940F1C292F892F6AE00E9417
:100720000F1CE92FF0E0EC57FF4FE491E093DF035B
:10073000822F0E940F1CE82FF0E0EC57FF4FE4914E
:10074000E093DE031F910895382F262F1092E503C2
:100750001092E4031092E303862F6AE00E940F1CBC
:10076000E92FF0E0EC57FF4FE491E093E203822F92
:100770000E940F1CE82FF0E0EC57FF4FE491E0934C
:10078000E1031092E00380912603882309F03BC027
:100790003C3058F08091DD0381608093DD03E7E712
:1007A000F0E0E491E093E4030AC0E8E6F0E0E491CD
:1007B000E093E4038091DD038E7F8093DD03E4E723
:1007C000F0E0E491E093E503832F90E00B966CE07A
:1007D00070E00E943C1C9C0101966AE070E00E945F
:1007E0003C1CE82FF0E0EC57FF4FE491E093DF036F
:1007F000265F3F4F2331310518F41092DE03089530
:10080000E5E8F0E01FC0832F90E0479668E170E0D4
:100810000E943C1C9C012F5F3F4FC9016AE070E0C1
:100820000E943C1CE82FF0E0EC57FF4FE491E0936E
:10083000DF03C9016AE070E00E943C1CE62FF0E093
:10084000EC57FF4FE491E093DE030895482F262FE5
:10085000EAE6F0E084918093E503719684918093B9
:10086000E4033196E491E093E303862F6AE00E946B
:100870000F1CE92FF0E0EC57FF4FE491E093E20307
:10088000822F0E940F1CE82FF0E0EC57FF4FE491FD
:10089000E093E1031092E003242F332727FD3095E6
:1008A00037FF03C0309521953F4FC9016AE070E0E2
:1008B0000E943C1CE82FF0E0EC57FF4FE491E093DE
:1008C000DF03C9016AE070E00E943C1CE62FF0E003
:1008D000EC57FF4FE491E093DE0347FD04C08091A5
:1008E000DD038D7F03C08091DD0382608093DD0393
:1008F0000895CF93DF931092DD03EC01AEEDB3E0EA
:10090000E881EE23D9F08E2F81568A3128F4F0E069
:10091000E95FFF4FE49109C08E2F80538A3038F48D
:10092000E82FF0E0EC57FF4FE491EC9301C01C92EC
:100930002196119683E0A63EB80711F7DF91CF917B
:100940000895882309F07BC01092DD0382E0809334
:10095000E0038093E30380912603882339F5809197
:10096000F6036AE00E941B1CE82FF0E0EC57FF4FF3
:10097000E491E093DE038091F6036AE00E941B1C81
:10098000E92FF0E0EC57FF4FE491E093DF03809113
:10099000DB036AE00E941B1CE82FF0E0EC57FF4FDE
:1009A000E491E093E1038091DB0326C08091DB03B7
:1009B0006AE00E941B1CE82FF0E0EC57FF4FE49127
:1009C000E093DE038091DB036AE00E941B1CE92FA9
:1009D000F0E0EC57FF4FE491E093DF038091F603E2
:1009E0006AE00E941B1CE82FF0E0EC57FF4FE491F7
:1009F000E093E1038091F6036AE00E941B1CE92F5B
:100A0000F0E0EC57FF4FE491E093E2038091C303E1
:100A10006AE00E941B1CE82FF0E0EC57FF4FE491C6
:100A2000E093E4038091C3036AE00E941B1CE92F5A
:100A3000F0E0EC57FF4FE491E093E5030895813037
:100A400009F0A7C01092E4031092E5038091C3035C
:100A50006091F6034091DB030E94D4028430C9F018
:100A6000853038F4823079F0833080F48130F1F4CD
:100A700007C08630A1F0863078F08730B9F412C014
:100A800080E091E011C087E091E00EC08EE091E03F
:100A90000BC086E191E008C08FE191E005C088E2DB
:100AA00091E002C08FE291E00E9479047894109264
:100AB0003703109236038091360390913703885E96
:100AC0009340C8F31092E1031092E2031092E30303
:100AD0008091F603863079F1873074F4833011F118
:100AE00084302CF48130C1F08230D9F518C08430C4
:100AF000E1F08530B1F51CC0893031F18A302CF439
:100B00008730E1F0883069F51CC08B3019F18B30EB
:100B1000F4F08C3031F521C088E391E020C08CE303
:100B200091E01DC080E491E01AC086E491E017C016
:100B30008CE491E014C080E591E011C085E591E07E
:100B40000EC08AE591E00BC080E691E008C085E622
:100B500091E005C08BE691E002C081E791E00E9440
:100B600079048091DB036AE00E941B1CE82FF0E00F
:100B7000EC57FF4FE491E093E4038091DB036AE0DC
:100B80000E941B1CE92FF0E0EC57FF4FE491E0932B
:100B9000E50308951F938AE080933C031AE0809157
:100BA000390380FD1DC080913903882321F4809191
:100BB0003A03882319F010933C0307C080913C034B
:100BC000882319F41092EE030BC08091390381FF42
:100BD000E6CF1092390387E791E00E947904DFCFD6
:100BE0001F910895AF92BF92CF92DF92EF92FF9242
:100BF0000F931F93CF93DF93B090F903882321F4D1
:100C00004D996EC14C996CC180ED97E061E00E94F6
:100C1000C80188EB9BE061E00E94C80180EA9FE088
:100C200061E00E94C8014D9BFECF4C9BFECFEDEDD5
:100C3000F3E0119283E0E63EF807D9F78EE0809367
:100C4000EE03CC2400E0DD2415E0FF24EE24EA943A
:100C5000B2E0AB2ECB2DD0E0A895FF2009F440C028
:100C60002091EC033091ED03C9016AE070E00E942D
:100C7000281CE82FF0E0EC57FF4FE491E093E503E8
:100C8000C9016AE070E00E94281C9B01CB016AE068
:100C900070E00E94281CE82FF0E0EC57FF4FE49131
:100CA000E093E403C9016AE070E00E94281C9B0104
:100CB000CB016AE070E00E94281CE82FF0E0EC57BE
:100CC000FF4FE491E093E303C9016AE070E00E9402
:100CD000281CE62FF0E0EC57FF4FE491E093E2038D
:100CE0008091390380FF36C080ED97E061E00E947B
:100CF000C801809139038E7F80933903FF2051F51D
:100D00000023A1F48091DD03882321F481E0809306
:100D1000DD0320C0813019F4A092DD031BC01092C6
:100D2000DD0381E08093DE0301E014C0E02FF0E0FA
:100D3000E352FC4F8081880F8083882359F40F5F32
:100D4000093011F400E006C0E02FF0E0E352FC4F60
:100D500081E080838091390381FF1BC084EC99E09E
:100D600061E00E94C801809139038D7F809339032F
:100D7000FF2079F4E090E6031092E60380912703C8
:100D8000813029F480917A00806480937A00FF2476
:100D9000F3948091390382FF1CC088EB9BE061E0F3
:100DA0000E94C801809139038B7F80933903FF2013
:100DB00081F08FEFE81629F0E092E6038E2D0E9475
:100DC0003402EDEDF3E0119283E0E63EF807D9F747
:100DD000FF248091F903992787FD9095C817D907BB
:100DE00009F46FC0B092F9030E94A0014D995AC056
:100DF0004C994EC011501230A1F0133018F411303C
:100E0000C1F412C0133051F0143099F4E02FF0E027
:100E1000E352FC4FD08080E891E008C08AE891E07E
:100E200005C08DE891E002C081E991E00E9479045B
:100E300048C086E991E00E947904112309F041C07D
:100E40004D9BFECF4C9BFECF80EA9FE061E00E946D
:100E5000C80188EB9BE061E00E94C80180ED97E04B
:100E600061E00E94C8018FEFE816D1F1EE2031F069
:100E7000E092E6038E2D0E94340232C08091270357
:100E8000813071F580917A00806480937A0028C067
:100E90001530B0F4EDEDF3E0119283E0E63EF80793
:100EA000D9F709C0153060F4EDEDF3E0119283E05D
:100EB000E63EF807D9F7E02FF0E0E352FC4FD0828E
:100EC00015E08091E803C81609F4C6CEC090E80387
:100ED0006091E8036F5F80EA9FE00E94C801BCCE8A
:100EE000DF91CF911F910F91FF90EF90DF90CF9006
:100EF000BF90AF9008958AE080933C039AE0809180
:100F00003903882321F480913A03882319F09093C0
:100F10003C0304C080913C03882369F0809139032D
:100F200080FD13C08091390381FF08C010923903FE
:100F300081E00E94F2051092EE030895809139033A
:100F400082FFDDCF10923903DACF089581E58CBDA1
:100F500008959B01AC01F894CA01AA27BB278EBD56
:100F60000DB407FEFDCFBB27A52F942F832F8EBD79
:100F70000DB407FEFDCF2EBD0DB407FEFDCF409A88
:100F8000409878940895AF92BF92CF92DF92EF92FB
:100F9000FF920F931F93E82FF0E0E057FF4FE4918B
:100FA00081E090E002C0880F991FEA95E2F77C018A
:100FB0000027F7FC0095102F20913D0330913E0350
:100FC00040913F0350914003A0E0B0E070E0E1E0C9
:100FD000AE2EB12CC12CD12CCB010A2E02C095957E
:100FE00087950A94E2F780FF11C0FD01E556FF4F97
:100FF000E491A601950104C0220F331F441F551F21
:10100000EA95D2F7E22AF32A042B152B1196A83081
:10101000B10511F720933D0330933E0340933F0306
:1010200050934003C801B7010E94A9071F910F9177
:10103000FF90EF90DF90CF90BF90AF9008951F92F8
:101040000F920FB60F9211242F933F934F935F93FC
:101050006F937F938F939F93AF93BF93EF93FF9380
:101060007894A895809130039091310301969093E4
:10107000310380933003819708F46CC010923103E0
:10108000109230038091360390913703019690932C
:1010900037038093360380912F03893010F010922C
:1010A0002F0380912F03E82FF0E0E352FC4F608183
:1010B0000E94C30780912F038F5F80932F0380913D
:1010C000EB03882309F446C08091340390913503E3
:1010D000892B09F03FC08091320390913303019630
:1010E00090933303809332038536910598F11092E3
:1010F0003303109232038AEF90E09093870080933D
:1011000086008091860090918700969587959093B0
:101110008B0080938A0080918A0090918B0090933D
:101120008900809388008091EB03807F49F0809153
:10113000EB038F708093EB03809181008D7F08C05B
:101140008091EB03806F8093EB038091810082603C
:1011500080938100FF91EF91BF91AF919F918F910B
:101160007F916F915F914F913F912F910F900FBEA3
:101170000F901F9018958EBD0DB407FEFDCF0895FA
:101180008091C00080780895FC0153815051828184
:101190004AE0849FC0011124580F74816581309109
:1011A0000A0320912B03230F20518181280F808176
:1011B000849FC0011124280F2093C10380912E0326
:1011C00037FF02C0581B01C0580F5093E70360510E
:1011D0008AE0789FC0011124680F6093F903089595
:1011E000FC015181505180814AE0849FC00111244B
:1011F000580F338130518281849FC0011124380FF0
:10120000258120518481849FC0011124280F1092D0
:10121000290310922A035093DB033093F6032093A3
:10122000C3030895CF92DF92EF92FF920F931F9323
:10123000782FE62FF22EC02EDE2CF0E0EE0FFF1FEF
:10124000E75FFC4F80819181840F911D8C0120E02C
:1012500030E0472F50E0CA0183709070892B31F441
:10126000872F64E60E940F1C992339F4CA0160E9B4
:1012700071E00E943C1C892B21F40F5F1F4F2F4F00
:101280003F4FC901B80120E831E541E050E00E943C
:10129000F01B4F2D50E020E13EE0429F7001439F44
:1012A000F00C529FF00C11240027F7FC0095102F32
:1012B000ED0CF11C011D111D2CE3C29E90011124A7
:1012C000442737FD4095542FE20EF31E041F151FCF
:1012D000E60EF71E081F191FB701C8011F910F91D5
:1012E000FF90EF90DF90CF900895DF92EF92FF9202
:1012F0000F931F93182FE62EF42ED22EE82FF0E036
:10130000EE0FFF1FE75FFC4F00818091C3038370E6
:1013100019F4123009F40F5F8091C303612F41E08B
:101320000E94D4026E2D681B09F467E087E0F89EE6
:10133000C0011124482F4650460F01C047500417E2
:10134000E8F38091C303612F2D2D00E0EE240E946D
:1013500012091F910F91FF90EF90DF9008955F9217
:101360006F927F928F929F92AF92BF92CF92DF92B5
:10137000EF92FF920F931F93FC0114810581F68079
:10138000E780508480816181428123810E947509B8
:101390005B016C01812F602F4F2D2E2D0E9475094E
:1013A0003B014C018091C3036091F6034091DB0344
:1013B0002091C1030091E703E090F9030E94120914
:1013C0006A157B058C059D05B4F0661577058805C3
:1013D00099058CF480912B03882351F48091C103EB
:1013E000850D8093C1038DE190E0652D0E94B81CAE
:1013F00050922B0310C080912B03181654F4809147
:10140000C10385198093C1038DE190E0652D0E9491
:10141000B81C10922B031F910F91FF90EF90DF905B
:10142000CF90BF90AF909F908F907F906F905F9084
:1014300008958091F9038C3354F08091F9038C5313
:101440008093F9038091E7038F5F8093E703809196
:10145000F90387FF0AC08091F903845C8093F90344
:101460008091E70381508093E7038091F9038823FB
:1014700059F48091E903813229F48FEE92E00E94C1
:10148000AF0902C010922B038091E7038C33B4F0B4
:101490008091E7038C538093E7038091C1038F5FB2
:1014A0008093C1036091C10384E090E00E94B81C66
:1014B0006091E70385E090E00E94B81C8091E7030B
:1014C00087FF16C08091E703845C8093E7038091D7
:1014D000C10381508093C1036091C10384E090E017
:1014E0000E94B81C6091E70385E090E00E94B81C60
:1014F0008091C103883184F08091C1038851809329
:10150000C1038091DB038F5F8093DB036091DB037A
:1015100083E090E00E94B81C8091C10387FF10C057
:101520008091C103885E8093C1038091DB03815069
:101530008093DB036091DB0383E090E00E94B81CA2
:101540008091DB0380327CF58091DB038F3181F465
:101550008091F603843039F18091F603863019F1D9
:101560008091F6038930F9F08091F6038B30D9F041
:101570008091DB038E3121F48091F603823099F063
:101580008091DB038D31E9F48091F6038230C9F458
:101590008091C303992787FD90958053984F0E94AF
:1015A0008701882371F481E08093DB038091F60347
:1015B0008F5F8093F6036091F60382E090E00E94D3
:1015C000B81C8091DB0318160CF449C08091F60317
:1015D0008630D1F0873064F4833029F184301CF4F4
:1015E000813094F433C0843079F0853079F510C0BF
:1015F0008A301CF4883044F40BC08B3029F08B30D7
:101600003CF08C3019F504C08091DB03815E03C08F
:101610008091DB03825E8093DB038091F60381502F
:101620008093F60316C08091C303992787FD909598
:101630008053984F0E948701882321F08091DB031B
:10164000835EE9CF8091DB03845EE5CF81E0809308
:10165000DB036091F60382E090E00E94B81C809169
:10166000F6038D3074F08091C3038F5F8093C303C2
:1016700081E08093F6036091C30381E090E00E94D3
:10168000B81C8091F6031816B4F08091F603845FBD
:101690008093F6038091C30381508093C3036091CC
:1016A000F60382E090E00E94B81C6091C30381E0E1
:1016B00090E00E94B81C0895FF920F931F93CF9360
:1016C000DF938C01FF24C4E1D0E0F80180818823FE
:1016D00041F0F394FE01E552FD4FCE0160810E947E
:1016E000B81CFF2021F08FEE92E00E94AF090F5F3F
:1016F0001F4F2196CD31D10541F7DF91CF911F9139
:101700000F91FF900895CF92DF92EF92FF920F9387
:101710001F93DF93CF93CDB7DEB729970FB6F89419
:10172000DEBF0FBECDBF8AE080933C03FE01319641
:1017300089E0DF011D928A95E9F700E010E08AE078
:10174000C82E7F01DD24D39480913903882321F4AE
:1017500080913A03882319F0C0923C030BC080911A
:101760003C03882339F4CE0101960E945C0B109251
:10177000EE034FC08091390380FD1DC08091390375
:1017800081FF1EC010923903002349F48EE991E0D5
:101790000E947904812F0E9463010DE011C00D3079
:1017A00041F41F5F193008F010E0812F0E9463019F
:1017B00007C01092EE03CE0101960E945C0B29C077
:1017C0008091390382FD04C080913A0382FFBCCF2F
:1017D000109239030D3009F0B7CFA12FB0E09D0171
:1017E00021513D4FF90180818F5F8083FD01EF5FC3
:1017F000FC4F9081981730F4FD01E850FD4F808137
:10180000F9018083AE0DBF1DDC92812F0E94630120
:101810009BCF29960FB6F894DEBF0FBECDBFCF91F8
:10182000DF911F910F91FF90EF90DF90CF9008957F
:10183000FF920F931F938AE080933C0310E09AE09D
:10184000F92E01E280913903882321F480913A0333
:10185000882319F0F0923C0304C080913C03882354
:10186000C9F08091390380FD3AC08091390381FF2E
:1018700014C010923903112369F48091E903813275
:1018800019F487EA91E002C080EB91E00E947904AC
:101890001CE003C01092EE0322C08091390382FF46
:1018A000D1CF109239031C3069F68091E90381325F
:1018B00049F41092E90380EB91E00E9479041092C0
:1018C0002B0306C00093E90387EA91E00E947904A4
:1018D0006091E9038FE090E00E94B81CB3CF1F91A4
:1018E0000F91FF900895FF920F931F938AE08093CA
:1018F0003C0310E02AE0F22E0EE101C010E08091DE
:101900003903882321F480913A03882319F0F09257
:101910003C0304C080913C038823B9F080913903D3
:1019200080FD39C08091390381FF18C010923903BE
:10193000112359F489EB91E00E9479048091E60328
:1019400090E00E94B20211E009C01092EE03609193
:10195000E60389E090E00E94B81C1DC08091390325
:1019600082FD04C080913A0382FFC9CF10923903EF
:10197000113021F68091E6038B5F8093E60380911E
:10198000E6038B3510F00093E6038091E60390E0C8
:101990000E94B202B4CF1F910F91FF9008950F9350
:1019A0001F938AE080933C0310E00AE080913903A2
:1019B000882321F480913A03882319F000933C0393
:1019C00007C080913C03882319F41092EE035BC09A
:1019D0008091390380FD57C08091390381FF34C065
:1019E00010923903812F90E0019666E070E00E942A
:1019F0003C1C182F8230E9F0833028F4882351F002
:101A0000813011F50AC08430D1F08430A8F08530DF
:101A1000D9F418C080EC91E009C080912D03813089
:101A200019F489EC91E002C082ED91E00E94790402
:101A30000BC08BED91E0FACF0E941B0105C084EE34
:101A400091E0F4CF0E9440018091390382FFAECF34
:101A500010923903113009F0A9CF80912D03813004
:101A600029F410922D0382ED91E004C010932D0310
:101A700089EC91E00E94790460912D0380E190E06F
:101A80000E94B81C93CF1F910F910895FF920F935E
:101A90001F938AE080933C0310E03AE0F32E01E0CC
:101AA00080913903882321F480913A03882319F027
:101AB000F0923C0304C080913C038823F9F08091AC
:101AC000390380FD3CC08091390381FF1AC0109218
:101AD0003903112369F480912703813019F48DEEC5
:101AE00091E002C086EF91E00E94790417E009C0FE
:101AF0006091270381E190E00E94B81C1092EE03F0
:101B00001EC08091390382FFCBCF1092390317306A
:101B100039F680912703813029F41092270386EF4C
:101B200091E004C0009327038DEE91E00E947904B8
:101B30006091270381E190E00E94B81CB1CF1F9112
:101B40000F91FF900895DF92EF92FF920F931F93F2
:101B5000E090C103F090E7030091F9038AE08093DD
:101B60003C0310E04AE0D42E8091390380FDD7C0B9
:101B700080913903882321F480913A03882319F056
:101B8000D0923C0305C080913C03882309F44BC0EC
:101B90008091390381FF4AC0109239031123B9F4AF
:101BA000E090C103F090E7030091F9038E2D6F2DB3
:101BB000402F0E9427038091DE0381608093DE0323
:101BC0008091DF0381608093DF0311E02FC011302B
:101BD00089F48E2D6F2D402F0E9427038091E10301
:101BE00081608093E1038091E20381608093E2034E
:101BF00012E01CC0123089F48E2D6F2D402F0E94F0
:101C000027038091E40381608093E4038091E503DE
:101C100081608093E50313E009C0E092C103F09274
:101C2000E7030093F9031092EE0379C08091390322
:101C300082FD04C080913A0382FF96CF109239034F
:101C40001130F9F48E2D90E0019668E170E00E9469
:101C50003C1CE82E6F2D402F0E9427038091DE034D
:101C600081608093DE038091DF0381608093DF03D6
:101C7000E092C1036091C10384E090E00E94B81C2F
:101C80003DC0123001F58F2D90E001966CE370E0BD
:101C90000E943C1CF82E8E2D6F2D402F0E94270392
:101CA0008091E10381608093E1038091E203816090
:101CB0008093E2036091E70385E090E00E94B81C06
:101CC000F092E7031BC01330C9F4802F90E0019617
:101CD0006CE370E00E943C1C082F8E2D6F2D402F6E
:101CE0000E9427038091E40381608093E403809144
:101CF000E50381608093E5030093F90380913A0343
:101D000082FF32CF7894109237031092360380917D
:101D10003603909137038B349105C8F325CF1F917B
:101D20000F91FF90EF90DF900895EF92FF920F9345
:101D30001F931091EA030091C4038AE080933C034F
:101D4000FF246AE0E62E8091390380FDAFC08091C8
:101D50003903882321F480913A03882319F0E09213
:101D60003C0317C080913C03882399F41092EE0342
:101D70001093EA030093C4036091EA0387E090E0C4
:101D80000E94B81C6091C40388E090E00E94B81CD7
:101D90008DC08091390381FF3CC010923903FF2030
:101DA00089F4812F602F0E94A4038091DE0381605B
:101DB0008093DE038091DF0381608093DF03FF2443
:101DC000F39427C081E0F81689F4812F602F0E94D8
:101DD000A4038091E10381608093E1038091E20399
:101DE00081608093E20352E0F52E13C01093EA0362
:101DF0000093C4036091EA0387E090E00E94B81C5E
:101E00006091C40388E090E00E94B81C1092EE0339
:101E10004DC08091390382FD04C080913A0382FF56
:101E200092CF1092390381E0F816B1F4812F90E03F
:101E3000019668E170E00E943C1C182F602F0E9400
:101E4000A4038091DE0381608093DE038091DF0331
:101E500081608093DF0319C082E0F816B1F4802F0F
:101E600090E001966CE370E00E943C1C082F812FEB
:101E7000602F0E94A4038091E10381608093E103BD
:101E80008091E20381608093E20380913A0382FFB4
:101E90005ACF78941092370310923603809136030C
:101EA000909137038B349105C8F34DCF1F910F915B
:101EB000FF90EF900895982F8091E8038823B1F068
:101EC0008091EA03891791F48091C403861771F415
:101ED000442361F485EA90E061E00E94D21A81E037
:101EE0008093EB0310923503109234030895AF9260
:101EF000BF92DF92EF92FF920F931F93CF93DF93E6
:101F00008091D20390E0805192402091D1034AE029
:101F1000249F90011124820F931F0B970CF468C02B
:101F20001091C1030091E7038091F9038FEE93E0D4
:101F30000E94C4088DEC93E00E94F0080E94190AE8
:101F40003091C1038091E7032CE33202D0011124C8
:101F5000992787FD9095A80FB91FA12EBB248CE36C
:101F600090E0A89EF001A99EF00DB89EF00D1124FE
:101F7000E00FF11D1091C1030091E703AD014E1B6D
:101F80005F0B57FF17C0BD0160567A4F6E177F0772
:101F900088F09A0120563A4F37FF03C030952195BB
:101FA0003F4F88279927841B950B2817390714F46E
:101FB000185E01C0BD01E617F707D0F4C0E0D0E01D
:101FC000E12EFF24E7FCF0940DC08D2D602F40E042
:101FD0000E945B0F015002C0D12EDC1A07FFF5CF23
:101FE00021960BE3C7018C1B9D0B8A159B05A4F75B
:101FF000DF91CF911F910F91FF90EF90DF90BF90F5
:10200000AF9008951F920F920FB60F9211242F9345
:102010003F934F935F936F937F938F939F93AF9370
:10202000BF93EF93FF9380E880936100109261006B
:102030008091F9038F5F8093F9030E94190A8091C0
:102040002803882309F05FC08091EE03882311F5EF
:1020500080912903882349F08091F90380FF05C00E
:102060008FEF91E00E94790408C08091C1036091D4
:10207000E7034091F9030E9427038091E803882336
:1020800021F08091DD03826003C08091DD038D7FAC
:102090008093DD038091C1036091E7034091F903D0
:1020A0000E945B0F80912703813029F480917A0090
:1020B000806480937A0080913C03882329F080918A
:1020C0003C03815080933C0380913B03882329F09B
:1020D00080913B03815080933B0380913403909126
:1020E0003503009781F00197909335038093340373
:1020F00080FF04C08091DD03826003C08091DD0316
:102100008D7F8093DD03FF91EF91BF91AF919F9100
:102110008F917F916F915F914F913F912F910F9090
:102120000FBE0F901F9018954A9B39C08091E8030D
:10213000882309F051C081E08093E80310923503B1
:10214000109234038091EE03882309F045C088E0A3
:1021500092E00E94790483E68093EE0378941092D3
:102160003703109236038091360390913703885ECF
:102170009340C8F38091EA036091C4030E94A403D2
:102180007894109237031092360380913603909121
:102190003703885E9340C8F31092EE030895809150
:1021A000E8038823C9F01092E803109235031092D7
:1021B00034038091EB03882379F08FEA90E061E0AB
:1021C0000E94D21A1092EB03809181008D7F809340
:1021D000810085B1866085B90895FF920F931F93A2
:1021E0008AE080933C0310E00AE0FF24F39480919E
:1021F0003903882321F480913A03882319F000934E
:102200003C0305C080913C03882309F472C080918F
:10221000390380FD08C18091390381FF6DC01092A0
:1022200039031123D1F480912603882311F411E09E
:1022300006C089EB90E061E00E94D21A12E080E0D3
:102240000E94A1048091DE0381608093DE0380916F
:10225000DF0381608093DF034FC0113029F4809148
:102260002603882339F020C01230E1F48091260340
:102270008130A9F480912603882311F011E001C078
:1022800012E080E00E94A1048091E10381608093CC
:10229000E1038091E20381608093E2032DC08823F3
:1022A00039F015C0113099F480912603813079F40A
:1022B00080E00E94A1048091E40381608093E403A4
:1022C0008091E50381608093E50313E015C083E608
:1022D0008093EE0380E00E94A1047894109237036B
:1022E0001092360380913603909137038C5D9540B0
:1022F000C8F31092EE0397C08091390382FD04C0A9
:1023000080913A0382FF73CF10923903113061F547
:102310008091F6038F5F8093F6038091F6038D30F2
:1023200014F01093F60380E00E94A104809126032C
:10233000882359F48091DE0381608093DE038091CD
:10234000DF0381608093DF030AC08091E103816035
:102350008093E1038091E20381608093E2036091C6
:10236000F60382E090E04DC0123061F58091DB030E
:102370008F5F8093DB038091DB03803214F0F09257
:10238000DB0380E00E94A10480912603813059F490
:102390008091DE0381608093DE038091DF038160A2
:1023A0008093DF030AC08091E10381608093E103A1
:1023B0008091E20381608093E2036091DB0383E01C
:1023C00090E01FC01330F9F48091C3038F5F8093B6
:1023D000C3038091C30364E60E941B1C9093C30354
:1023E00080E00E94A1048091E40381608093E40373
:1023F0008091E50381608093E5036091C30381E0F0
:1024000090E00E94B81C80913A0382FFF0CE78944D
:102410001092370310923603809136039091370360
:10242000CC97D0F3E4CE1F910F91FF9008951F92A7
:102430000F920FB60F9211242F933F934F935F93F8
:102440006F937F938F939F93AF93BF93EF93FF937C
:1024500000B605FE29C080912803882309F042C0F8
:102460005B9A85B1877D85B95E988CB58F7B8CBD75
:1024700080912A03882361F06091E70385E090E072
:102480000E94B81C6091F90386E090E00E94B81C9D
:1024900086E491E061E00E94D21A15BC1092DA0342
:1024A00010926800459819C0809128038823D1F0C4
:1024B00080912A03882361F06091E70385E090E032
:1024C0000E94B81C6091F90386E090E00E94B81C5D
:1024D0008CE391E061E00E94D21AE0912403F09134
:1024E00025030995FF91EF91BF91AF919F918F9136
:1024F0007F916F915F914F913F912F910F900FBE00
:102500000F901F9018950F931F93DF93CF930F9207
:10251000CDB7DEB78091C600898390912C039923B3
:1025200049F4843209F0C6C081E080932C0381E431
:1025300093E0B9C001E413E0F80101900020E9F74D
:102540003197E01BF10BE038F105C0F4369789F4C0
:10255000C80161E172E00E94971C009721F482E0BB
:1025600080932C039FC080E8F80111928A95E9F7C7
:1025700096C08A3209F096C0923019F080E8D801EE
:102580008BC088E192E00E94F31AC8010E94F31AFE
:10259000C8016CE270E00E948C1C9C01AFEEB3E0BD
:1025A000FC01319686E001900D928150E1F7109286
:1025B000F503C90101966CE270E00E948C1CFC01DD
:1025C00081818093F803CF0101966CE270E00E9454
:1025D0008C1CFC0181819281A381B4818093D403FE
:1025E0009093D503A093D603B093D70386819781A8
:1025F0009093D9038093D803CF0101966CE270E0E9
:102600000E948C1CFC0181818093C503CF0101963F
:102610006CE270E00E948C1CFC0126EC33E0AC0103
:102620004F5F5F4F85E0DA010D90AD01D9010D924A
:102630009D018150C1F7878190859093CC03809351
:10264000CB03CF0101966CE270E00E948C1CFC0170
:1026500081818093C203CF0101966CE270E00E94F9
:102660008C1C01966CE270E00E948C1C01966CE25E
:1026700070E00E948C1CADECB3E0FC01319686E06A
:1026800001900D928150E1F71092D3030E94770FD1
:1026900080E8E1E4F3E0DF011D928A95E9F710920A
:1026A0002C0308C0C801BE016F5F7F4F41E050E0BE
:1026B0000E94A01C0F90CF91DF911F910F91089560
:1026C0008AE090E00E94B01C8093DA0385B18660B6
:1026D00085B982E3809380008091DA03882329F012
:1026E0008091800080688093800088E180938100E1
:1026F0008AEF90E090938700809386008091860017
:102700009091870096958795909389008093880093
:10271000809188009091890090938B0080938A002B
:10272000089584E090E00E94B01C68E10E940F1CB4
:102730009093C10385E090E00E94B01C6CE30E947E
:102740000F1C9093E70386E090E00E94B01C6CE3BE
:102750000E940F1C9093F90388E090E00E94B01C47
:102760006CE30E940F1C9093C40387E090E00E94EA
:10277000B01C68E10E940F1C9093EA0381E090E096
:102780000E94B01C64E60E940F1C9093C30382E079
:1027900090E00E94B01C6DE00E940F1C9093F60325
:1027A00083E090E00E94B01C8F718093DB0391E086
:1027B00090932A03E6EBF0E080818062808385E0DD
:1027C0008093B1009093700078940895FF920F93D6
:1027D0001F938AE080933C038CE090E00E94B01C41
:1027E000182F00E0EAE0FE2E80913903882321F4BF
:1027F00080913A03882319F0F0923C0304C0809141
:102800003C03882349F18091390380FD65C08091A4
:10281000390381FF24C0109239030023E9F48BE1CE
:1028200092E00E947904812F6AE00E940F1CE82F39
:10283000F0E0EC57FF4FE491E160E093DE03812F7D
:102840000E940F1CE92FF0E0EC57FF4FE491E1608C
:10285000E093DF030BE003C01092EE033DC08091D4
:10286000390382FD04C080913A0382FFBDCF1092EC
:1028700039030B3001F51F5F143608F010E0812F8B
:102880006AE00E940F1CE82FF0E0EC57FF4FE49144
:10289000E160E093DE03812F0E940F1CE92FF0E03E
:1028A000EC57FF4FE491E160E093DF038CE090E0B0
:1028B000612F0E94B81C80913A0382FF95CF7894D3
:1028C00010923703109236038091360390913703AC
:1028D0008B349105C8F388CF1F910F91FF90089515
:1028E0000F931F938AE080933C038BE090E00E945B
:1028F000B01C8093260310E00AE001C010E0809134
:102900003903882321F480913A03882319F0009336
:102910003C0304C080913C038823C9F080913903B3
:1029200080FD38C08091390381FF14C010923903B3
:10293000112369F480912603882319F484E292E03C
:1029400002C08DE292E00E94790411E003C010926F
:10295000EE0320C08091390382FFD1CF109239035A
:10296000113061F690E080912603882309F491E00C
:1029700090932603992319F484E292E002C08DE239
:1029800092E00E9479048BE090E0609126030E941F
:10299000B81CB5CF1F910F910895EF92FF920F933E
:1029A0001F938AE080933C038AE090E00E94B01C71
:1029B000F82E00E0FAE0EF2E01C000E0809139032C
:1029C000882321F480913A03882319F0E0923C0394
:1029D00004C080913C03882369F18091390380FD14
:1029E00066C08091390381FF28C01092390300230B
:1029F00009F5FF2051F086E392E00E94790480916E
:102A0000E20381608093E20304C08FE392E00E94BE
:102A100079048091E30381608093E3038091E40370
:102A200081608093E4038091E50381608093E503F6
:102A300001E003C01092EE033AC08091390382FF97
:102A4000BDCF10923903013009F0B7CF10E0FF205D
:102A500009F411E0F12E112351F086E392E00E9477
:102A600079048091E20381608093E20304C08FE3E4
:102A700092E00E9479048091E30381608093E303F4
:102A80008091E40381608093E4038091E503816099
:102A90008093E5038AE090E0612F0E94B81C0E94B9
:102AA000601380EA9FE061E00E94C80187CF1F9118
:102AB0000F91FF90EF900895EF92FF920F931F9365
:102AC0008AE080933C0382E190E00E94B01C8093F6
:102AD000DC0383E190E00E94B01C8093F70310E0D8
:102AE000BAE0EB2EAEE1FA2E05E08091390388239F
:102AF00021F480913A03882319F0E0923C0304C04A
:102B000080913C03882321F18091390380FD5EC0D0
:102B10008091390381FF1FC010923903112359F4AA
:102B200088E492E00E9479048091DC0390E00E94A6
:102B3000B20211E010C0113059F48FE492E00E940B
:102B400079048091F70390E00E94B20212E003C082
:102B50001092EE033BC08091390382FD04C0809146
:102B60003A0382FFC2CF109239031130A9F4809149
:102B7000DC038B5F8093DC038091DC038B3510F0EA
:102B80000093DC038091DC0390E00E94B20260912C
:102B9000DC0382E190E017C0123009F0A6CF8091EB
:102BA000F7038B5F8093F7038091F7038B3510F069
:102BB000F092F7038091F70390E00E94B2026091D7
:102BC000F70383E190E00E94B81C8FCF1F910F9113
:102BD000FF90EF900895CF93DF9380E090E00E9404
:102BE000B01C813009F47BC080E090E061E00E947D
:102BF000B81C81E090E060E00E94B81C82E090E0A8
:102C000061E00E94B81C83E090E061E00E94B81C83
:102C100084E090E060E00E94B81C85E090E060E015
:102C20000E94B81C86E090E060E00E94B81C87E03B
:102C300090E06AE00E94B81C88E090E060E00E94AA
:102C4000B81C89E090E062E30E94B81C8AE090E042
:102C500060E00E94B81C8BE090E060E00E94B81C2D
:102C60008CE090E06AE00E94B81C8DE090E068EF94
:102C70000E94B81C8EE090E060E00E94B81C8FE0DB
:102C800090E060E00E94B81C80E190E060E00E946B
:102C9000B81C82E190E06EE10E94B81C83E190E0F4
:102CA0006AE50E94B81C81E190E060E00E94B81CD7
:102CB000C4E1D0E0FE01E552FD4FCE0160810E94EB
:102CC000B81C2196CD31D105A9F78DE190E060E0E7
:102CD0000E94B81C88EB9BE062E00E94C801DF9173
:102CE000CF9108958CE090E00E94B01C9CE3899FF6
:102CF000C0011124909335038093340381E591E062
:102D000061E00E94D21A86E592E00E94790483E68F
:102D10008093EE03789410923703109236038091DB
:102D2000360390913703885E9340C8F31092EE0308
:102D300008951F920F920FB60F9211242F933F9375
:102D40004F935F936F937F938F939F93AF93BF93B3
:102D5000EF93FF9310926B00789418992AC080919A
:102D6000380381FD2BC078941092370310923603FC
:102D700080913603909137030A97D0F318991EC0BB
:102D80000E94A0018091EB03882319F00E94721623
:102D900015C0809138038260809338038091390395
:102DA00082608093390388E491E061E00E94D21A46
:102DB00005C0809138038D7F8093380381E0809334
:102DC0006B00FF91EF91BF91AF919F918F917F9198
:102DD0006F915F914F913F912F910F900FBE0F9088
:102DE0001F9018951F920F920FB60F9211242F93D8
:102DF0003F934F935F936F937F938F939F93AF9383
:102E0000BF93EF93FF9310926D007894A8954D991E
:102E100027C08091380380FD28C078941092370332
:102E20001092360380913603909137030A97D0F3BE
:102E30004D9963C00E94A0018091EB038823C9F5DE
:102E400080913803816080933803809139038160D9
:102E5000809339038EE491E061E00E94D21A05C0AC
:102E6000809138038E7F809338034C993FC08091C6
:102E7000380382FD42C078941092370310923603D3
:102E800080913603909137030A97D0F34C9935C05F
:102E900082E080933B031BC04C9B19C00E94A001A1
:102EA000809138038B7F809338038091EB038823D4
:102EB00019F00E94721621C08BE491E061E00E943B
:102EC000D21A8091390384608093390316C08091AF
:102ED0003B03882309F7809138038460809338038B
:102EE00080913A03846080933A0307C010923A03BA
:102EF000809138038B7F8093380380E380936D004B
:102F0000FF91EF91BF91AF919F918F917F916F91C1
:102F10005F914F913F912F910F900FBE0F901F9097
:102F20001895EF92FF920F931F9310910A0300914F
:102F30002E038AE080933C03FF249AE0E92E8091DF
:102F4000390380FDA8C080913903882321F4809142
:102F50003A03882319F0E0923C0304C080913C03BB
:102F6000882369F18091390381FF2CC010923903C5
:102F7000FF2089F4812F602F0E9426048091DE03B8
:102F800081608093DE038091DF0381608093DF03A3
:102F9000FF24F39417C081E0F81689F4812F602F85
:102FA0000E9426048091E10381608093E103809177
:102FB000E20381608093E20382E0F82E03C0109266
:102FC000EE0369C08091390382FD04C080913A0309
:102FD00082FFB5CF1092390381E0F81659F5812FA1
:102FE000992787FD90950D9669E170E00E943C1C41
:102FF000182F1C50812F602F0E9426048091DE0321
:1030000081608093DE038091DF0381608093DF0322
:1030100010930A038DE090E0612F0E94B81C8FE5A9
:1030200092E00E94F31A812F992787FD90950E94C4
:10303000461B20C082E0F816E9F4802F90E001964C
:103040006CE370E00E943C1C082F812F602F0E94CF
:1030500026048091E10381608093E1038091E20383
:1030600081608093E20300932E038EE090E0602F56
:103070000E94B81C80913A0382FF61CF789410922D
:1030800037031092360380913603909137038B34C7
:103090009105C8F354CF1F910F91FF90EF900895C1
:1030A0000F931F93CF93DF934D9B02C000E005C0A9
:1030B00009B102950F700095017015BC569A5E9883
:1030C00084B714BE90E00E94291B88E10FB6F894E3
:1030D00080936000109260000FBE2FE088E190E0C6
:1030E0000FB6F894A895809360000FBE20936000FF
:1030F000A89511E01093290310922A0387E690E027
:103100000E94B01A8AE391E061E00E94D21A88E43A
:1031100080BF80ED97E00197F1F700B605FE0BC088
:1031200080B7806180BF8FE291E061E00E94D21A97
:103130000E949113D9C00E9408015B988CE191E034
:1031400061E00E94D21A89E091E061E00E94D21A07
:10315000109369001DBB1092EE0380E091E061E0E6
:103160000E94D21A81E58CBD85EF90E061E00E945B
:10317000D21A82E190E00E94B01C8093DC0383E1CC
:1031800090E00E94B01C8093F70389E090E00E94D9
:10319000B01C8093E60381E190E00E94B01C809314
:1031A000270380912703813019F48091F70302C02F
:1031B0008091E6030E94400278948DE090E00E94A6
:1031C000B01C80930A03845F893110F010920A03C7
:1031D0008EE090E00E94B01C80932E038D3310F09F
:1031E00010922E0388EE90E061E00E94D21A0E94B5
:1031F00060138CED90E061E00E94D21A0E94EB1502
:103200000E940F028BE090E00E94B01C8093260386
:103210008FE090E00E94B01C8093E9038091E90365
:103220008132C9F484E190E00E94B01C882399F0B7
:10323000C4E1D0E0CE010E94B01CFE01E552FD4F7A
:1032400080832196CD31D105A9F78DE190E00E94D0
:10325000B01C80932B0380E190E00E94B01C80930F
:103260002D0383E68093EE0388E792E00E947904C1
:103270007894109237031092360380913603909120
:1032800037038C5D9540C8F3A89580EA9FE061E024
:103290000E94C8018FEF91E00E9479047894109207
:1032A0003703109236038091360390913703883CA0
:1032B0009105C8F31092EE0381ED90E061E00E9469
:1032C000D21A0E94911386EC90E061E00E94D21A1B
:1032D0000E949410002341F08EE08093EE0380E082
:1032E0000E94F2051092EE0381EC90E061E00E94F2
:1032F000D21A13E6A89500B605FE03C00E94DB00B3
:10330000F9CF8091390380FFA7C0109239038091D3
:10331000EE03833651F08091EE0390E001966FE06A
:1033200070E00E943C1C8093EE038091EE03873096
:1033300009F453C0883078F4833089F1843030F454
:103340008130F9F0823009F0A6C022C08530B9F191
:103350008630E0F52DC08B3009F477C08C3038F41E
:10336000893009F44FC08A3008F053C03DC08D3019
:1033700009F45DC08D3008F453C08E3009F08BC065
:103380005DC088E792E00E9479040E94CA0583C06C
:1033900081E892E00E9479040E94950E7CC08AE840
:1033A00092E00E9479040E94A30D1092290373C039
:1033B00083E992E00E9479040E94ED106CC08CE9D0
:1033C00092E00E9479040E94911765C080EC91E020
:1033D0000E9479040E94CF0C5EC085EA92E00E94B0
:1033E00079040E94460D57C08EEA92E00E9479044B
:1033F00080912703882319F00E945C154CC00E941D
:10340000730C49C087EB92E00E9479040E94CD14AE
:1034100042C080EC92E00E9479040E9470143BC08C
:1034200089EC92E00E9479040E94180C34C082ED6D
:1034300092E00E9479040E94830B2DC08BED92E0F4
:103440000E9479040E947B0726C084EE92E00E94CD
:1034500079040E94E6131FC08091390381FD04C0E6
:103460008091390382FF17C0109239031093EE0345
:1034700081E00E94A104A8957894109237031092DD
:1034800036038091360390913703885E9340C8F3EA
:10349000A8951092EE0380912D03813009F02ACF78
:1034A0008091C00087FF26CF0E94831223CF1F92F6
:1034B0000F920FB60F9211242F933F934F935F9368
:1034C0006F937F938F939F93AF93BF93EF93FF93EC
:1034D0001DBA89E60E94BD1A29B178947894109299
:1034E00037031092360380913603909137030A9781
:1034F000D0F389B1247030E090E084709070281788
:10350000390711F40E94941081E08DBBFF91EF9177
:10351000BF91AF919F918F917F916F915F914F91EB
:103520003F912F910F900FBE0F901F90189506C0DE
:1035300090E000009F5F9E31E1F781508823C1F742
:10354000089548EC50E009C020E137E2FA013197D4
:10355000F1F721503040D1F781508823A9F7089521
:103560009093C5008093C40088E18093C1008EE0F1
:103570008093C200519A50980895982F8091C0006E
:1035800085FFFCCF9093C60080E090E00895809185
:10359000C00087FFFCCF8091C60008958091C000D5
:1035A00080780895AC0120E007C08091C00085FFBD
:1035B000FCCF3093C6002F5FFA01E20FF11D34916A
:1035C000332399F7662371F08091C00085FFFCCF0B
:1035D0008AE08093C6008091C00085FFFCCF8DE01B
:1035E0008093C6000895FC0107C08091C00085FF4C
:1035F000FCCF31969093C60090819923B1F708953E
:10360000282F982F92959F709A3030F48091C000A7
:1036100085FFFCCF905D05C08091C00085FFFCCF89
:10362000995A9093C600822F90E08F7090700A97FD
:103630003CF48091C00085FFFCCF2F70205D06C058
:103640008091C00085FFFCCF2F70295A2093C600BF
:1036500008951F93182F892F0E94001B812F0E940D
:10366000001B1F910895EF92FF920F931F937B0110
:103670008C01C801AA27BB270E94291BC7010E94F1
:10368000291B1F910F91FF90EF9008950F931F93A7
:10369000CF93DF938C01E0E1F7E240E0C0E0D0E0BF
:1036A000C801BF010E94281C262F662329F4442349
:1036B00019F4E130F10549F48091C00085FFFCCF99
:1036C000205D2093C600205341E0CF016AE070E006
:1036D0000E94281C2196C530D10571F0822F90E000
:1036E0009C012E9FC0012F9F900D3E9F900D112495
:1036F000081B190BFB01D4CFDF91CF911F910F91C4
:1037000008954F925F926F927F928F929F92AF92A5
:10371000BF92CF92DF92EF92FF920F931F93CF93BE
:10372000DF934B015C01E12C9AECF92E9AE9092F09
:103730009BE3192F4424C0E0D0E0C501B401A801E7
:1037400097010E944F1CD22E222341F4442031F4D1
:1037500081E0E816F1040105110561F48091C000D3
:1037600085FFFCCF80E3D80ED092C60080EDD80E46
:1037700044244394C801B7012AE030E040E050E01F
:103780000E944F1CC22E732E642E552E2196CA30D5
:10379000D105A9F06D2D70E080E090E0A8019701BF
:1037A0000E94F01B861A970AA80AB90A2C2D372DF9
:1037B000462D552DC901DA017C018D01BECFDF9167
:1037C000CF911F910F91FF90EF90DF90CF90BF901E
:1037D000AF909F908F907F906F905F904F900895E3
:1037E000629FD001739FF001829FE00DF11D649FE5
:1037F000E00DF11D929FF00D839FF00D749FF00D71
:10380000659FF00D9927729FB00DE11DF91F639F11
:10381000B00DE11DF91FBD01CF0111240895991BC1
:1038200079E004C0991F961708F0961B881F7A95B7
:10383000C9F78095089587FB082E062687FD819598
:1038400067FD6195ECDF0EF4919507FC8195089575
:10385000AA1BBB1B51E107C0AA1FBB1FA617B707B6
:1038600010F0A61BB70B881F991F5A95A9F78095D2
:103870009095BC01CD01089597FB092E07260AD02B
:1038800077FD04D0E5DF06D000201AF4709561952D
:103890007F4F0895F6F7909581959F4F0895A1E287
:1038A0001A2EAA1BBB1BFD010DC0AA1FBB1FEE1FBA
:1038B000FF1FA217B307E407F50720F0A21BB30B05
:1038C000E40BF50B661F771F881F991F1A9469F781
:1038D00060957095809590959B01AC01BD01CF01DD
:1038E000089597FB092E05260ED057FD04D0D7DF8B
:1038F0000AD0001C38F450954095309521953F4FE3
:103900004F4F5F4F0895F6F79095809570956195AC
:103910007F4F8F4F9F4F0895FC018191861721F0B3
:103920008823D9F7992708953197CF010895FB018E
:10393000DC018D91019080190110D9F3990B089544
:10394000FB01DC010D900020E9F711974150504038
:1039500028F0019000200D92C9F708951C92089557
:10396000F999FECF92BD81BDF89A992780B5089547
:10397000262FF999FECF1FBA92BD81BD20BD0FB68B
:10398000F894FA9AF99A0FBE01960895F894FFCF29
:1039900073756E646179006D6F6E64617900747522
:1039A0006573646179007765646E7364617900742E
:1039B0006875727364617900667269646179007315
:1039C00061747572646179006A616E006665620097
:1039D0006D6172636800617072696C006D6179007D
:1039E0006A756E65006A756C79006175677374003D
:1039F00073657074006F63746F62006E6F76656DCF
:103A000000646563656D00313130353131776D00AB
:103A1000652020202020202020006578006578691E
:103A200000657869740065786974696E67007275FD
:103A30006C653020303000647374206F6E2020007D
:103A4000647374206F66662000627269746520007A
:103A5000736574206770732000677073206F6E2029
:103A60002000677073206F66662000677073206C9B
:103A700061742000677073206C6F6E670061627202
:103A800074206F6E200061627274206F6666002081
:103A90002020202020202000616C61726D206F6E3C
:103AA00000244750524D43000A0D002020206D692C
:103AB0006E7574007573612D3132687200657572B0
:103AC0002D3234687200766F6C2068696768007602
:103AD0006F6C20206C6F77006272746C6F200062D4
:103AE000727468692000736E6F6F7A696E67000A7E
:103AF0000D54696D657A6F6E65206F6666736574C7
:103B000020686F75723A0900696365207475626593
:103B10000073657420616C61720073657420746950
:103B20006D6500736574206461746500736574204D
:103B30007A6F6E6500736574206164696D007365EA
:103B40007420627269740073657420766F6C200053
:103B5000736574207265676E007365742064737496
:103B600020007365742072756C6500746573746DE4
:103B70006F64650073657420736E6F7A000F0003C5
:103B80000102020B0101020101010100010101001A
:103B9000000C0507170C05071701F800001F003B74
:103BA000005A0078009700B500D400F300110130EE
:043BB000014E0100C1
:00000001FF
