:100000000C9479000C946A090C9496000C94360EAA
:100010000C9496000C94830E0C9496000C9411157D
:100020000C9496000C9496000C9496000C949600F8
:100030000C9496000C9496000C9496000C949600E8
:100040000C94930F0C9496000C9496000C949600CC
:100050000C9496000C94FE030C9496000C943903B7
:100060000C9496000C9496006A000B10120F0D0E63
:100070001113740003070809060A050C047F000425
:1000800000020008000020000200408D00C080C275
:10009000004202020A001A10183010320022020236
:1000A0000600868084A70080808000400020001029
:1000B0000010100010000800040080BD000E620E49
:1000C000200E400C6004620862CB00FC60DAF2662D
:1000D000B6BEE0FEF6D700FA3E1A7ADE8EF62E6045
:1000E00078AE1CAA2A3ACEF30AB61E3838B86E7615
:1000F000DA0011241FBECFEFD8E0DEBFCDBF13E082
:10010000A0E0B1E0E8E4FCE302C005900D92A63C5B
:10011000B107D9F714E0A6ECB3E001C01D92A439F1
:10012000B107E1F70E94EE1A0C94221E0C94000015
:1001300078941092CC031092CB032091CB03309192
:10014000CC0328173907C8F30895CF92DF92EF92B6
:10015000FF926B017C01A0EDB7E09B01AC010E9416
:100160001C1D6115710581059105C1F061157105B1
:1001700021E08207910580F02AE02C9DC0012D9D91
:10018000900D112428EC30E004C0F9013197F1F70B
:1001900001970097D1F706C0CB0102C081E090E043
:1001A0000197F1F7FF90EF90DF90CF9008950197BE
:1001B000F1F70895A895089581E08093DD035B9A97
:1001C0008CB58F7B8CBD85B1877D85B95E9815BC5C
:1001D0001092660410926800459885B1897F85B9B0
:1001E0008BB18F7C8BB928988AB18F7C8AB9209883
:1001F0005A985298E1E6F0E090E8908388E0808396
:10020000449A83B7876083BF88959083108244980F
:1002100008958EE284B988E48AB989E087B984E3D5
:100220008BB981E085B995E09093680080936B006D
:1002300080E380936D000895CF93DF93109269045B
:10024000809151048E3419F410926A0403C082E044
:1002500080936A04A0E6B4E0CBE6D4E0ED91E053ED
:10026000F0E0E553FF4FE491E99384E0A636B80748
:10027000A9F780916E04816080936E04DF91CF9125
:100280000895CF93DF9380914F04853419F4109231
:10029000690403C082E080936904A2E5B4E0CAE681
:1002A000D4E0ED91E053F0E0E553FF4FE491E993A2
:1002B00084E0A935B807A9F780916E048160809326
:1002C0006E04DF91CF910895FF920F931F93CF9308
:1002D000DF93F62EFA94642F952FC0E0D0E00AE069
:1002E00010E0282F30E02F0D311DF7FC3A952859EA
:1002F0003B4F0EC0862FB8010E94511DFC01E553F3
:10030000FF4FE491D901AC0FBD1FEC93972F2197BC
:100310008C2F8F0D87FFEECFDF91CF911F910F9123
:10032000FF900895282F30E0F901E859FB4F67FF4F
:1003300004C092E09083619501C01082A82FB0E0C4
:10034000862F6AE00E94431DE82FF0E0E553FF4F3F
:100350008491A859BB4F842B11968C931197E92F48
:10036000F0E0E553FF4FE491E42B1296EC930895EF
:10037000A82F862FB0E06AE00E94431DE82FF0E02E
:10038000E553FF4F8491A859BB4F842B8C93E92FE1
:10039000F0E0E553FF4FE491E42B1196EC930895C0
:1003A00090E0FC01E553FF4FE491E0936D04FC0104
:1003B000E05FFE4F41E0608187E00C94B8019C0152
:1003C00083709927892B39F4C90164E670E00E9493
:1003D000511D892B69F4C90160E971E00E94511D2A
:1003E00021E030E0892B11F020E030E0C9010895D0
:1003F00081E090E008958BE090E00E94FA1D8093E8
:10040000660485B1866085B982E38093800080911F
:100410006604882329F080918000806880938000A2
:1004200088E1809381008AEF90E090938700809329
:10043000860080918600909187009695879590938D
:1004400089008093880090938B0080938A000895A0
:100450001092800010928100299A2A988AE090E0F8
:100460000E9498002A9A29988AE090E00E949800B9
:1004700085B1897F85B982E380938000809166048D
:10048000882329F08091800080688093800088E133
:10049000809381000895CF92DF92EF92FF92CF93E5
:1004A000C62F6A019C0140E050E060E472E48FE0F6
:1004B00090E00E949B1D30938700209386008091DE
:1004C0008600909187009695879590938B008093F6
:1004D0008A009093890080938800E12CF12C16C04B
:1004E00080918100826080938100C701B6010E94E3
:1004F000A500809181008D7F8093810085B1897FE7
:1005000085B9C701B6010E94A500C150C111E8CF4D
:1005100085B1897F85B9CF91FF90EF90DF90CF9023
:10052000089544E650E00C944B020F931F93CF9331
:10053000DF9380E090E00E94FA1D813009F494C0BE
:1005400061E080E090E00E94141E6BE081E090E0AA
:100550000E94141E61E082E090E00E94141E61E09F
:1005600083E090E00E94141E60E084E090E00E942E
:10057000141E60E085E090E00E94141E60E086E0BA
:1005800090E00E94141E6AE087E090E00E94141E32
:1005900060E088E090E00E94141E62E38AE090E050
:1005A0000E94141E60E08BE090E00E94141E60E048
:1005B0008CE090E00E94141E6AE089E090E00E94C6
:1005C000141E68EF8DE090E00E94141E60E08EE043
:1005D00090E00E94141E60E08FE090E00E94141EE4
:1005E00060E080E190E00E94141E69E182E190E009
:1005F0000E94141E6AE583E190E00E94141E60E0F0
:1006000081E190E00E94141E00E111E0C4E1D0E01D
:10061000F80161918F01CE010E94141E2196CD3107
:10062000D105B1F760E08DE190E00E94141E60E01A
:1006300080E290E00E94141E60E08EE190E00E9453
:10064000141E60E08FE190E00E94141E6AE281E2D5
:1006500090E00E94141E62E088EB9BE0DF91CF9156
:100660001F910F910C949102DF91CF911F910F91E7
:1006700008951F920F920FB60F9211242F933F935C
:100680004F935F936F937F938F939F93AF93BF939A
:10069000EF93FF9300B605FE49C08091DD03811101
:1006A0004EC05B9A85B1877D85B95E988CB58F7B8E
:1006B0008CBD8091DC038823B9F060914E0484E006
:1006C00090E00E94021E6091720485E090E00E941A
:1006D000021E60918F0486E090E00E94021E61E09D
:1006E00080ED97E00E9491028091DB038823B9F0AE
:1006F0006091190181E090E00E94021E60911B014F
:1007000082E090E00E94021E60911A0183E090E076
:100710000E94021E62E080ED97E00E94910215BCEB
:100720001092660410926800459804C08091DD0321
:10073000882329F0E091E303F091E4030995FF9108
:10074000EF91BF91AF919F918F917F916F915F9149
:100750004F913F912F910F900FBE0F901F901895C2
:100760003D9A459AEAE7F0E0808186608083ACE7B5
:10077000B0E08C9180648C938C9184608C93AEE714
:10078000B0E08C9180618C938081806880838081CF
:100790008860808308958091E103813029F48091FD
:1007A0007A00806480937A00089590917E04992362
:1007B00029F080918F0480FD0EC005C08B3518F4A0
:1007C0008A3018F003C08AE501C08AE097B598170F
:1007D00021F087BD089582E3F9CF08950E94D503E3
:1007E00083E084BD81E085BD84B5806884BDEEE68C
:1007F000F0E0808181608083789408951F920F9249
:100800000FB60F9211242F933F934F935F936F93E3
:100810007F938F939F93AF93BF93CF93DF93EF9388
:10082000FF938091E1038130A1F580917800909150
:100830007900392F20E0282B3093800420937F0407
:10084000223F83E0380718F0C091670405C0C091CB
:100850008D042536310510F4D0E014C0A0918D042C
:1008600080916704B0E0A81BB10924563109D0E09B
:100870000E94151D2EE833E040E050E00E94791DF3
:10088000C21BD30BD0937B04C0937A048C2F0E949D
:10089000D503FF91EF91DF91CF91BF91AF919F91E0
:1008A0008F917F916F915F914F913F912F910F9019
:1008B0000FBE0F901F901895CF93C82F41E0682F5F
:1008C00087E00E94B8018C2FCF910C94D503CF9371
:1008D000DF93C62FD0E0E82FF0E0E053F84FC330AD
:1008E000D10510F42C963197242F30E02F5F3F4F25
:1008F0002E0F3F1FCE01880F991F280F391FCF01E0
:100900009695879596958795280F391FCF0160E9B1
:1009100071E00E94511D260F371FCF0164E670E081
:100920000E94511D261B370B219646E04C9FC001AB
:100930004D9F900D11246AE070E00E94511D260F1A
:10094000371FC90167E070E00E94511D8F5FDF9182
:10095000CF910895E82FF0E0E553FF4F849108957B
:10096000E82FF0E0EA58FF4F849108951F93CF934A
:10097000DF93C82FD62F142F80918104811196C048
:100980008091E003873068F4853008F053C08130EF
:1009900079F008F48BC08230E9F0833009F08BC025
:1009A00034C0893008F45CC0893009F084C062C06A
:1009B000842F66E00E94371D292F30E0220F331F5D
:1009C000F901E254FF4FE491E0936F04F901E3541D
:1009D000FF4F2CC0842F6AE00E94371D292F30E082
:1009E000220F331FF901E855FF4F849180936F0464
:1009F000F901E955FF4F24912093700440FF5BC03B
:100A0000826080936F04226012C0842F6CE00E9489
:100A1000371D292F30E0220F331FF901E257FF4F16
:100A2000E491E0936F04F901E357FF4F2491209381
:100A3000700441C0CC3018F4E7EDF0E002C0E6EEFF
:100A4000F0E0E491E0936F04E3EEF0E0E491E093F2
:100A500070048091E003863071F511701E2B23C065
:100A600010926F04109270048091E003883019F5A1
:100A7000117019C040E0612F87E00E94B801809199
:100A8000D7038823C1F08091D603853030F480915C
:100A900070048160809370040EC0803160F011702A
:100AA00080917004182B1093700405C040E0612FF2
:100AB00087E00E94B80110926E0440E06D2F84E040
:100AC0000E94B80110926B048091E20381112AC048
:100AD0008C2F90E00B966CE070E00E94651D9C01ED
:100AE00001966AE070E00E94651D85539F4FFC01EE
:100AF000849180936A04265F3F4F2331310518F4B7
:100B00001092690405C0ECECF0E0E491E093690414
:100B100080916804CC3010F0816001C08E7F80939A
:100B2000680408C040E06C2F81E0DF91CF911F91F5
:100B30000C94B801DF91CF911F910895CF93C82FE6
:100B40001092700410926F0410926E0440E084E0E2
:100B50000E94B80110926B048091E20381113BC0A6
:100B600080916804CC3048F0816080936804E6EEA0
:100B7000F0E0E491E0936F0408C0E7EDF0E0E49169
:100B8000E0936F048E7F80936804E3EEF0E0E491DD
:100B9000E09370048C2F90E00B966CE070E00E9464
:100BA000651D9C0101966AE070E00E94651D8553F9
:100BB0009F4FFC01849180936A04265F3F4F23314D
:100BC000310518F41092690414C0ECECF0E0E491E3
:100BD000E09369040EC08C2F90E0479668E170E0C6
:100BE0000E94651D682F6F5F40E081E0CF910C94FB
:100BF000B801CF910895CF92DF92EF92FF920F93B9
:100C00001F93CF93DF93F0907704E090500486E039
:100C10008093C603C0E0D6E0FCE3CF2ED12C08E1E0
:100C200010E08091C90380FDA9C08091C9038111A2
:100C300004C08091C803882319F0D093C6031EC056
:100C40008091C60381111AC010928104F09277043A
:100C5000E09250046091770487E090E00E94021EC9
:100C60006091500488E090E0DF91CF911F910F9147
:100C7000FF90EF90DF90CF900C94021E8091C903FB
:100C800081FF39C01092C903C11110C06E2D8F2D84
:100C90000E949E058091690481608093690480911F
:100CA0006A04816080936A04C1E025C0C13081F488
:100CB0006E2D8F2D0E949E0580916C048160809323
:100CC0006C0480916D04816080936D04C2E013C058
:100CD000F0927704E09250046091770487E090E00E
:100CE0000E94021E6091500488E090E00E94021E63
:100CF0001092810443C08091C90382FD04C0809199
:100D0000C80382FF8ECF1092C903C130A9F48F2D82
:100D100090E00196B8010E94651DF82E6E2D0E948C
:100D20009E058091690481608093690480916A04C2
:100D3000816080936A0417C0C230A9F48E2D90E0C0
:100D40000196B6010E94651DE82E682F8F2D0E9426
:100D50009E0580916C04816080936C0480916D0489
:100D6000816080936D048091C80382FF5ACF0E94F6
:100D700028028BE490E00E94980053CFDF91CF913E
:100D80001F910F91FF90EF90DF90CF900895CF9338
:100D9000C82FE9EDF0E0E491E0937004EAEEF0E0B2
:100DA000E491E0936F04EBEEF0E0E491E0936E04E5
:100DB00040E084E00E94B80110926B046C2F77270A
:100DC00067FD709577FF03C071956195710940E0EB
:100DD00081E00E94B80180916804C7FD02C08D7F48
:100DE00001C0826080936804CF910895AF92BF9252
:100DF000CF92DF92FF920F931F93CF93DF93F090E8
:100E00000101D090D50386E08093C603C0E0D6E010
:100E1000BCE3AB2EB12C09E110E08091C90380FD49
:100E200093C08091C903811104C08091C8038823B5
:100E300019F0D093C60305C08091C603811101C08B
:100E40002AC08091C90381FF29C01092C903C11132
:100E500010C06D2D8F2D0E94C7068091690481609E
:100E60008093690480916A04816080936A04C1E080
:100E700015C0C13081F46D2D8F2D0E94C706809161
:100E80006C04816080936C0480916D048160809318
:100E90006D04C2E003C01092810456C08091C90362
:100EA00082FD04C08091C80382FFB7CF1092C903AE
:100EB000C13001F58F2D992787FD90950D96B801CA
:100EC0000E94651DC82EA4EFFA2EF80E6D2D8F2DF1
:100ED0000E94C70690916904916090936904909173
:100EE0006A04916090936A04F09201016C2D8DE088
:100EF00090E01DC0C230E9F48D2D90E00196B5015F
:100F00000E94651DC82ED82E682F8F2D0E94C706FF
:100F100080916C04816080936C0480916D04816089
:100F200080936D04C092D5036C2D8EE090E00E94FA
:100F3000021E8091C80382FF70CF0E9428028BE4BA
:100F400090E00E94980069CFDF91CF911F910F919F
:100F5000FF90DF90CF90BF90AF9008950F931F93B5
:100F6000CF93DF93109268048C01C9E6D4E0F801B6
:100F700081918F018823C1F0982F91569A3120F4E6
:100F80000E94B00488830BC080538A3038F4E82F65
:100F9000F0E0E553FF4FE491E88301C01882219609
:100FA000F4E0C137DF0719F7DF91CF911F910F915F
:100FB000089510926F041092700440911A0160918C
:100FC0001B01809119010E9467048430B1F030F454
:100FD000823069F078F48130E9F406C0863099F007
:100FE00078F08730B9F412C08AE591E011C081E64B
:100FF00091E00EC088E691E00BC080E791E008C068
:1010000089E791E005C082E891E002C089E891E0BB
:101010000E94AE0788EE93E00E94980010926C0444
:1010200010926D0410926E0480911B01863059F16C
:1010300068F48330F9F028F48130B1F08230C9F5DA
:1010400016C08430D1F08530A1F51AC0893021F165
:1010500028F48730D9F0883061F51BC08B3011F14E
:10106000F0F08C3031F521C082E991E020C086E9B2
:1010700091E01DC08AE991E01AC080EA91E017C0B2
:1010800086EA91E014C08AEA91E011C08FEA91E00B
:101090000EC084EB91E00BC08AEB91E008C08FEBAF
:1010A00091E005C085EC91E002C08BEC91E00E94DC
:1010B000AE0760911A0140E087E00E94B80188EE17
:1010C00093E00E94980081ED91E00E94AE0760914C
:1010D000190140E084E00C94B801811126C01092FF
:1010E000680482E080936B0480936E048091E20335
:1010F000811109C060911B0140E081E00E94B801AC
:1011000060911A0108C060911A0140E081E00E94DC
:10111000B80160911B0140E084E00E94B801609139
:10112000190140E087E00C94B801813011F40C946F
:10113000D9070895CF93DF9381E090E00E94FA1DD4
:1011400064E60E94371D9093190182E090E00E94AE
:10115000FA1D6DE00E94371D90931B0183E090E023
:101160000E94FA1D8F7180931A0180E00E946D0821
:1011700064EF71E080E090E00E94A50084E090E0E0
:101180000E94FA1DD8E16D2F0E94371D90934E04E6
:1011900085E090E00E94FA1DCCE36C2F0E94371D81
:1011A0009093720486E090E00E94FA1D6C2F0E94DA
:1011B000371D90938F0440918F0460917204809149
:1011C0004E040E94B60464EF71E080E090E00E945B
:1011D000A50088E090E00E94FA1D6C2F0E94371D48
:1011E0009093500487E090E00E94FA1D6D2F0E94BA
:1011F000371D9093770481E08093DA038EE190E0CD
:101200000E94FA1D982F905C913818F48093E503A2
:1012100007C01092E50360E08EE190E00E94021E9C
:1012200080E28093B6001092B2008FE78093B30003
:1012300082E08093B00096E09093B10080937000BC
:101240007894DF91CF9108954A9B2BC080917404CC
:1012500081113FC081E0809374041092CE031092FC
:10126000CD038091DC038823A1F180918104811159
:1012700030C08AED91E00E94AE0783E6809381043E
:101280008CED95E00E949800609150048091770465
:101290000E949E058CED95E00E94980010928104BA
:1012A0000895809174048823A1F010927404109220
:1012B000CE031092CD0380917E04882351F01092CA
:1012C0007E04809181008D7F8093810085B186604E
:1012D00085B908951F920F920FB60F9211242F9384
:1012E0003F934F935F936F937F938F939F93AF93AE
:1012F000BF93CF93EF93FF931DBA89E60E94C6195F
:10130000C9B178948AE090E00E94980089B1C470D5
:101310002C2F30E0847090E02817390709F002C0C4
:101320000E94240981E08DBBFF91EF91CF91BF9185
:10133000AF919F918F917F916F915F914F913F916D
:101340002F910F900FBE0F901F9018951F93CF9362
:10135000DF9386E08093C60389E090E00E94FA1D47
:10136000C82FD0E016E08091C903811104C080919C
:10137000C803882319F01093C60305C08091C603E3
:10138000811101C020C08091C90380FD3FC08091C0
:10139000C90381FF1BC01092C903D1110BC083EE9A
:1013A00091E00E94AE0741E06C2F81E00E94B801FD
:1013B000DFE00CC08CEE91E00E94AE076C2F89E05C
:1013C00090E00E94021E1092810420C08091C90307
:1013D00082FD04C08091C80382FFC5CF1092C9036B
:1013E000DF3049F4CF5FC43608F0C0E041E06C2F35
:1013F00081E00E94B8018091C80382FFB4CF0E94AF
:1014000028028BE490E00E949800ADCFDF91CF914D
:101410001F9108958091E003843019F148F48130E0
:10142000B9F098F08230B9F0833009F041C016C0AD
:10143000873039F128F48530B9F08630C9F517C006
:10144000883019F18930A1F52AC085EF91E01BC0E1
:101450008EEF91E018C087E092E015C080E192E045
:1014600012C089E192E00FC082E292E00CC08BE2F0
:1014700092E00E94AE0780916F04816080936F04B8
:10148000089584E392E00C94AE078DE392E00E940D
:10149000AE0780916E04816080936E04089586E4A7
:1014A00092E00E94AE078091700481608093700486
:1014B0000895CF93DF9386E08093C603C0E0D6E023
:1014C0008091C903811104C08091C803882319F059
:1014D000D093C60305C08091C603811101C016C018
:1014E0008091C90380FD39C08091C90381FF11C07B
:1014F0001092C903C11104C00E940A0ACEE009C0BB
:101500006091E00380E290E00E94021E109281044C
:1015100024C08091C90382FD04C08091C80382FF6A
:10152000CFCF1092C903CE3069F48091E0038F5F72
:101530008093E0038091E0038A3010F01092E00382
:101540000E940A0A8091C80382FFBACF0E94280233
:1015500084E690E00E949800B3CFDF91CF91089588
:101560001F93CF93DF9386E08093C6038EE190E0D4
:101570000E94FA1D8093E503C0E0D6E010EC809154
:10158000C903811104C08091C803882319F0D09346
:10159000C60305C08091C603811101C01EC08091A1
:1015A000C90380FD44C08091C90381FF19C0109216
:1015B000C903C1110CC08FE492E00E94AE0741E064
:1015C0006091E50386E00E949201C8E009C0609145
:1015D000E5038EE190E00E94021E1092810427C074
:1015E0008091C90382FD04C08091C80382FFC7CFE8
:1015F0001092C903C83081F48091E5038F5F803475
:101600001CF48093E50302C01093E50341E0609170
:10161000E50386E00E9492018091C80382FFAFCF6C
:101620000E9428028BE490E00E949800A8CFDF91EE
:10163000CF911F9108958091E203811103C086E547
:1016400092E002C08FE592E00C94AE07CF93DF9357
:1016500086E08093C6038CE090E00E94FA1D8093A0
:10166000E203C0E0D6E001C0C0E08091C90381116F
:1016700004C08091C803882319F0D093C60305C025
:101680008091C603811101C010C08091C90380FD03
:1016900027C08091C90381FF0BC01092C903C111FB
:1016A00004C00E941B0BC1E003C01092810418C04B
:1016B0008091C90382FFD9CF1092C903C130A1F62E
:1016C00081E09091E203911180E08093E2030E9417
:1016D0001B0B6091E2038CE090E00E94021EC5CFDC
:1016E000DF91CF91089580916604882351F088E6B8
:1016F00092E00E94AE078091700481608093700434
:1017000004C081E792E00E94AE0780916D04816081
:1017100080936D0480916E04816080936E0480914B
:101720006F04816080936F0408951F93CF93DF93BC
:1017300086E08093C6038BE090E00E94FA1DD82FCC
:10174000C0E016E001C0C0E08091C903811104C06F
:101750008091C803882319F01093C60305C08091B7
:10176000C603811101C010C08091C90380FD2AC049
:101770008091C90381FF0BC01092C903C11104C03D
:101780000E94730BC1E003C0109281041BC08091C2
:10179000C90382FFD9CF1092C903C130A1F681E0FD
:1017A000D11180E0D82F682F8BE090E00E94021EBC
:1017B0000E94FB0161E080EA9FE00E9491020E948A
:1017C000730BC2CFDF91CF911F9108956091D90320
:1017D00040E087E00E94B8018AE792E00C94AE07EF
:1017E00080917504813219F482E892E009C08091F9
:1017F0007504813019F48BE892E002C084E992E02C
:101800000C94AE070F931F93CF93DF9386E08093E2
:10181000C60382E190E00E94FA1D8093670483E191
:1018200090E00E94FA1D80938D041092E103C0E0C5
:10183000D6E012E30AE08091C903811104C08091CF
:10184000C803882319F0D093C60307C08091C6034C
:10185000811103C01092810430C08091C90380FDC2
:101860002CC08091C90381FF2CC01092C903C11103
:101870000AC08DE992E00E94AE07809167040E9441
:101880005C04C1E01EC0C13051F484EA92E00E94C1
:10189000AE0780918D040E945C04C2E012C01092D9
:1018A00081046091670482E190E00E94021E6091D1
:1018B0008D0483E190E00E94021E81E08093E103A9
:1018C00036C08091C90382FD04C08091C80382FFA5
:1018D000B2CF1092C903C13071F4809167048E5F5A
:1018E0008093670480916704833310F0009367044A
:1018F000809167040FC0C23079F480918D048B5FB2
:1019000080938D0480918D048B3510F010938D049D
:1019100080918D040E945C048091C80382FF8BCF6C
:101920000E9428028BE490E00E94980084CFDF910F
:10193000CF911F910F9108958091E103813019F4A7
:101940008BEA92E002C084EB92E00C94AE07CF9356
:10195000DF9386E08093C603C0E0D6E08091C903A0
:10196000811104C08091C803882319F0D093C60365
:1019700005C08091C603811101C043C08091C90395
:1019800080FD5EC08091C90381FF3EC01092C903F3
:10199000C11104C00E949C0CC5E036C0C530B1F432
:1019A0008DEB92E00E94AE0740917F04509180043D
:1019B00064E081E00E94640140917A0450917B04CC
:1019C00063E086E00E946401C3E01EC0C33099F466
:1019D0000E94CB0340917F045091800464E081E039
:1019E0000E94640140917A0450917B0463E086E098
:1019F0000E94640109C06091E10381E190E00E94CE
:101A0000021E109281041CC08091C90382FFA6CFE0
:101A10001092C903C53009F0A1CF8091E103813054
:101A200019F41092E10303C081E08093E1030E9466
:101A30009C0C6091E10381E190E00E94021E8ECF38
:101A4000DF91CF9108951F93CF93DF9386E080932A
:101A5000C603C0E0D6E019E18091C903811104C03A
:101A60008091C803882319F0D093C60305C08091E4
:101A7000C603811101C016C08091C90380FD43C017
:101A80008091C90381FF19C01092C903C1110AC016
:101A900082EC92E00E94AE07809171040E945C0487
:101AA000C1E00BC010928104609171048AE090E063
:101AB000DF91CF911F910C94021E8091C90382FD8A
:101AC00004C08091C80382FFC7CF1092C903C13000
:101AD00079F4809171048B5F80937104809171041B
:101AE0008B3510F010937104809171040E945C0496
:101AF0008091C80382FFB0CF0E9428028BE490E05F
:101B00000E949800A9CFDF91CF911F9108958091F5
:101B1000D703813019F489EC92E009C08091D70392
:101B2000823019F482ED92E002C08BED92E00C94C9
:101B3000AE078091D303882319F084EE92E002C0AF
:101B40008DEE92E00C94AE071F93CF93DF9386E067
:101B50008093C603C0E0D6E011E08091C9038111F3
:101B600004C08091C803882319F0D093C60305C030
:101B70008091C603811101C016C08091C90380FD08
:101B80002FC08091C90381FF11C01092C903C111F8
:101B900004C00E94990DCAE009C06091D3038FE18F
:101BA00090E00E94021E109281041AC08091C90325
:101BB00082FFD3CF1092C903CA3079F68091D30344
:101BC000882319F01092D30302C01093D3030E940C
:101BD000990D6091D3038FE190E00E94021EBDCF6A
:101BE000DF91CF911F910895CF9386E08093C60334
:101BF000C6E08091C90380FD1DC08091C903811199
:101C000004C08091C803882319F0C093C60307C09D
:101C10008091C603811103C0109281040BC0809192
:101C2000C90381FFE6CF1092C9038CE191E00E94C5
:101C3000AE07DFCFCF91089589E090E00E94FA1DB2
:101C40002CE3829FC00111249093CE038093CD0397
:101C500086EF92E00E94AE0783E6809381048CEDCC
:101C600095E00E9498001092810408951F920F92AF
:101C70000FB60F9211242F933F934F935F936F935F
:101C80007F938F939F93AF93BF93EF93FF931092A4
:101C90006B00789418991EC08091CA0381FD1FC003
:101CA0008AE090E00E949800189919C00E942802CA
:101CB00080917E04882319F00E941C0E10C0809130
:101CC000CA0382608093CA038091C90382608093B3
:101CD000C90305C08091CA038D7F8093CA0381E048
:101CE00080936B00FF91EF91BF91AF919F918F9186
:101CF0007F916F915F914F913F912F910F900FBE08
:101D00000F901F9018951F920F920FB60F921124EB
:101D10002F933F934F935F936F937F938F939F93F3
:101D2000AF93BF93EF93FF9310926D007894A895B3
:101D30004D991BC08091CA0380FD1CC08AE090E0D1
:101D40000E9498004D9952C00E94280280917E0402
:101D500081112DC08091CA0381608093CA03809154
:101D6000C90381608093C90305C08091CA038E7F37
:101D70008093CA034C9933C08091CA0382FD36C058
:101D80008AE090E00E9498004C9930C00E9428029E
:101D900082E08093C70314C04C9B12C08091CA0399
:101DA0008B7F8093CA0380917E04882319F00E9460
:101DB0001C0E1CC08091C90384608093C90316C0A7
:101DC0008091C7038111E8CF8091CA03846080931A
:101DD000CA038091C80384608093C80307C010922F
:101DE000C8038091CA038B7F8093CA0380E38093EA
:101DF0006D00FF91EF91BF91AF919F918F917F9176
:101E00006F915F914F913F912F910F900FBE0F9067
:101E10001F90189581E58CBD08958EBD0DB407FE09
:101E2000FDCF0895CF93DF9300D0CDB7DEB7F89400
:101E30006A8379830E940D0F7981872F0E940D0F8D
:101E40006A81862F0E940D0F409A409878940F90D7
:101E50000F90DF91CF9108958F929F92AF92BF9292
:101E6000CF92DF92EF92FF920F931F939091000118
:101E7000981708F4892FE82FF0E0DF01A859BB4F2D
:101E8000AC91EC58FF4FE49161E070E002C0660F46
:101E9000771FEA95E2F7882777FD8095982F0091C4
:101EA000E6031091E7032091E8033091E90340E055
:101EB00050E0B0E0C12CD12C7601C394FD01042E7A
:101EC00002C0F595E7950A94E2F7E0FF13C0FA0126
:101ED000E659FF4F04914601570104C0880C991C34
:101EE000AA1CBB1C0A95D2F795018401682979299F
:101EF0008A299B294F5F5F4F48305105F9F60093BF
:101F0000E6031093E7032093E8033093E9031F915E
:101F10000F91FF90EF90DF90CF90BF90AF909F9088
:101F20008F900C94120F1F920F920FB60F921124E4
:101F30002F933F934F935F936F937F938F939F93D1
:101F4000AF93BF93EF93FF937894A8958091D103BB
:101F50009091D20301969093D2038093D1038297FC
:101F600008F40DC11092D2031092D1038091CB03DB
:101F70009091CC0301969093CC038093CB038091F6
:101F8000D4030E942C0F2091D4032F5F2093D403FD
:101F90008091D30330E04091000190E0840F911DC7
:101FA0008217930714F41092D4038091E0038430D5
:101FB00041F580918104811124C08091DF038F5FFE
:101FC0008093DF038739E8F01092DF038091CB0321
:101FD0009091CC0367EA70E00E94511DCB0166E04E
:101FE00070E00E94511D880F991FFC01E058FF4FBF
:101FF000E491E0936F04FC01E158FF4F84918093DA
:10200000700480917E04882309F4B9C08091CD03C7
:102010009091CE03892B09F0B2C08091CF039091AB
:10202000D00301969093D0038093CF038B35910515
:1020300008F4A5C01092D0031092CF0380918204BF
:1020400090918304019690938304809382048091FD
:102050008204909183048135964470F010927E043E
:102060001092CE031092CD03809181008D7F8093DA
:10207000810085B1866085B980917C0490917D0452
:10208000019690937D0480937C0420917C04309190
:102090007D0480919004909191048217930730F50C
:1020A00010927D0410927C0410929304109292047A
:1020B0008091900490919104459748F0809190040C
:1020C000909191044497909391048093900480910F
:1020D000780490917904449748F480917804909121
:1020E0007904029690937904809378048091920405
:1020F000909193040196909393048093920420917D
:10210000920430919304809178049091790482171D
:102110009307A8F180919204909193044CE0489F1A
:102120009001499F300D112424553E4F40E050E06E
:1021300060E472E48FE090E00E949B1D3093870082
:1021400020938600809186009091870096958795D0
:1021500090938B0080938A009093890080938800ED
:10216000809192049091930480FF04C0809181003B
:10217000826003C0809181008D7F80938100FF91F8
:10218000EF91BF91AF919F918F917F916F915F91EF
:102190004F913F912F910F900FBE0F901F90189568
:1021A0008091C00080780895FC01938190518281D4
:1021B0002AE0829F900D11242581205184813AE0EC
:1021C000839F200D1124309101018091D90380510A
:1021D000830F4181840F40815AE0459F800D112477
:1021E00080934E048091D50337FF02C0981B01C035
:1021F000980F9093720420938F0481E08093DC0306
:102200000895FC012181205180813AE0839F200DB7
:1022100011249381905182814AE0849F900D112472
:102220008581805134814AE0349F800D11242093B0
:102230001A0190931B018093190181E08093DB03C5
:10224000089581E080937E041092CE031092CD0316
:1022500088EC90E0909391048093900410927D0418
:1022600010927C0482E090E090937904809378044B
:1022700010928304109282041092D0031092CF0324
:10228000089590917404992361F0909177049813C4
:1022900008C080915004861304C0411102C00C9400
:1022A00021110895CF92DF92EF92FF920F93CF9377
:1022B000DF93D22FCE2DE62FF0E0EE0FFF1FEC5C68
:1022C000FE4FC080D180C40ED11CE12CF12C382FE0
:1022D0003053832F837031F4832F64E60E94371DBF
:1022E000911108C0832F90E060E971E00E94651DA4
:1022F000892B29F48FEFC81AD80AE80AF80AA7012F
:10230000960160E871E581E090E00E94271D6B0175
:102310007C012D2F30E0A0E1BEE00E94091DC60E19
:10232000D71EE81EF91E202FACE3B0E00E94091D65
:10233000C60ED71EE81EF91ECC0ED11CE11CF11CE6
:10234000B601C701DF91CF910F91FF90EF90DF9021
:10235000CF900895BF92CF92DF92EF92FF920F93AA
:102360001F93CF93DF931F92CDB7DEB7B82EC62E43
:10237000F42ED02EE62FF0E0E35BFE4F108182E0DA
:10238000681304C08B2D837009F41F5F41E06C2D2E
:102390008B2D29830E9467044F2D481B2981F81635
:1023A00008F4495F2150E7E02E9F400D11244F5F54
:1023B000E12FF0E001C04750A42FBB27A7FDB09547
:1023C000EA17FB07C4F3E12C00E02D2D6C2D8B2DBB
:1023D0000E9452110F90DF91CF911F910F91FF90AA
:1023E000EF90DF90CF90BF900895CF93DF93C82FE9
:1023F0008091D9039091D9039C1771F19091D803E2
:10240000913051F5DC2FD81B61E01D1644F488EBA8
:1024100091E00E94910261E080E793E007C080E7CD
:1024200093E00E94910261E088EB91E00E949102AA
:10243000C093D90380914E048D0F80934E046C2F6E
:102440008DE190E00E94021E60914E0484E090E0D5
:102450000E94021E1092D803DF91CF9108954F92EF
:102460005F926F927F928F929F92AF92BF92EF9204
:102470000F93CF93B0901401A09015019090160186
:1024800080901701C09118018091190100911301EA
:102490002091120140911101609110010E94AA1136
:1024A0002B013C0180911901082D292D4A2D6B2DFE
:1024B0000E94AA114B015C01E0908F04009172040C
:1024C00020914E0440911A0160911B0180911901E5
:1024D0000E945211481459046A047B0444F46415A0
:1024E0007505860597050CF007C080E00BC06415E4
:1024F0007505860597052CF4681579058A059B05F1
:10250000A4F78C2FCF910F91EF90BF90AF909F9039
:102510008F907F906F905F904F900C94F511809109
:102520008F048C3354F080918F048C5380938F04EC
:10253000809172048F5F8093720480918F0487FF73
:102540000AC080918F04845C80938F048091720410
:10255000815080937204809172048C3354F0809186
:1025600072048C538093720480914E048F5F809329
:102570004E048091720487FF0AC080917204845CCB
:102580008093720480914E04815080934E04809118
:102590008F04811114C080917204811110C0809148
:1025A000D70381110CC060914E0484E090E00E943A
:1025B000021E6091720485E090E00E94021E8091EC
:1025C0004E04883184F080914E04885180934E04EB
:1025D00080911A018F5F80931A0160911A0183E044
:1025E00090E00E94021E80914E0487FF10C08091EF
:1025F0004E04885E80934E0480911A01815080932E
:102600001A0160911A0183E090E00E94021E8091FD
:102610001A01803268F580911A018F3181F480911E
:102620001B01843029F180911B01863009F18091D2
:102630001B018930E9F080911B018B30C9F080913A
:102640001A018E3121F480911B01823089F0809132
:102650001A018D31D9F480911B018230B9F4809137
:10266000190190E08053984F0E94DF0181110EC044
:1026700081E080931A0180911B018F5F80931B0181
:1026800060911B0182E090E00E94021E80911A017D
:10269000811144C080911B018630B9F058F4833019
:1026A000E1F018F4813088F110C0843071F0853089
:1026B00061F50FC08A3018F4883038F40AC08B30C6
:1026C00021F038F08C3009F504C080911A01815E48
:1026D00014C080911A01825E10C08091190190E0AF
:1026E0008053984F0E94DF01882321F080911A01C6
:1026F000835E03C080911A01845E80931A018091E9
:102700001B01815080931B0103C081E080931A015B
:1027100060911B0182E090E00E94021E80911B01EB
:102720008D3070F0809119018F5F8093190181E0E5
:1027300080931B016091190181E090E00E94021ECC
:1027400080911B01811116C080911B01845F8093D1
:102750001B01809119018150809319016091190129
:1027600081E090E00E94021E60911B0182E090E0F7
:102770000E94021E80918F04811111C08091750406
:10278000813211F40E942F1280917204811107C0CE
:1027900080914E04811103C081E08093D803089595
:1027A0008091DA03882381F146E050E062E071E035
:1027B00089E594E00E94DD1D0097B1F444E050E00B
:1027C00069E071E086E894E00E94DD1D009761F405
:1027D0001092D60386E894E00E94D41089E594E034
:1027E0000E9401110E948F1246E050E069E574E0FA
:1027F00082E091E00E94EB1D46E050E066E874E064
:1028000089E091E00C94EB1D08950F931F93CF93F3
:10281000DF931F92CDB7DEB78091C6008983EAEEC1
:10282000F3E001900020E9F73197EA5EF340E1110F
:1028300004C0843209F0EFC005C0E33608F0E4C0FC
:102840008D3051F041E050E0BE016F5F7F4F8AEE66
:1028500093E00E94CD1DDFC06FEF72E08AEE93E03F
:102860000E94B71D47E050E061E073E08AEE93E01C
:102870000E94DD1D009709F0C7C08BEE93E0909396
:10288000850480938404109276040AC080917604B3
:102890008927809376043196F0938504E09384042D
:1028A000E0918404F091850490819A3279F79181C6
:1028B00082819A3310F0975301C090538A3310F0FD
:1028C000875301C0805320E1929F800D1124809393
:1028D000730490917604981397C06CE270E08AEECE
:1028E00093E00E94C21D9093850480938404019616
:1028F00026E0FC01A6E8B4E001900D922A95E1F7EC
:1029000010928C046CE270E00E94C21D90938504CA
:1029100080938404DC0111962C9120938E04213441
:1029200009F072C06CE270E001960E94C21D9093A3
:10293000850480938404FC01418152816381748108
:102940004093600450936104609362047093630445
:102950002681378130936504209364046CE270E033
:1029600001960E94C21D9093850480938404DC012B
:1029700011962C91209351046CE270E001960E9414
:10298000C21D90938504809384049C012F5F3F4F68
:1029900045E0F901A2E5B4E001900D924A95E1F716
:1029A000FC018781908590935804809357046CE2D2
:1029B00070E0C9010E94C21D909385048093840435
:1029C000DC0111968C9180934F0403E010E080911C
:1029D0008404909185046CE270E001960E94C21D0F
:1029E00090938504809384040150110981F7FC01C0
:1029F000319686E0A9E5B4E001900D928A95E1F761
:102A000010925F040E94D01384E6EAEEF3E0DF0147
:102A10001D928A95E9F70F90DF91CF911F910F9149
:102A200008951F920F920FB60F9211242F933F9388
:102A30004F935F936F937F938F939F93AF93BF93C6
:102A4000EF93FF9380E88093610010926100809182
:102A50008F048F5F80938F040E948F128091720485
:102A6000882329F08091DD038823C9F090C08091EC
:102A70008F04811104C08091E503815805C08091C5
:102A80008F04813019F48FE78093B30080918F0415
:102A9000823044F78091B60083FDFCCFE3CF809174
:102AA000D603803118F48F5F8093D6038091810420
:102AB000811133C08091DC03811107C080918F04A4
:102AC00080FF03C089E093E012C08091D703882380
:102AD00089F08091D603803168F08091E0038930DD
:102AE00049F080918F0480FF05C082E193E00E944D
:102AF000AE0708C040918F046091720480914E042B
:102B00000E94B6049091740480916804992311F096
:102B1000826001C08D7F809368048091DC038823EC
:102B200041F040918F046091720480914E040E94A4
:102B300041110E94CB038091C603882329F0809124
:102B4000C60381508093C6038091C703882329F070
:102B50008091C70381508093C7038091CD039091EA
:102B6000CE030097A1F001979093CE038093CD03FD
:102B70002091680480FF04C022602093680407C08D
:102B80002D7F20936804892B11F40E942111FF915D
:102B9000EF91BF91AF919F918F917F916F915F91D5
:102BA0004F913F912F910F900FBE0F901F9018954E
:102BB000FF920F931F93CF93DF9300E111E0C4E1E5
:102BC000D0E0FF24F394F80161918F01CE010E94BF
:102BD000021EF092D80380917504813211F40E9494
:102BE0002F122196CD31D10571F7DF91CF911F9131
:102BF0000F91FF9008951F93CF93DF9386E080930A
:102C0000C603C0E0D0E016E08091C903811104C082
:102C10008091C803882319F01093C60309C08091DE
:102C2000C603811105C00E94D8151092810453C0BB
:102C30008091C90380FD1DC08091C90381FF1EC022
:102C40001092C903D11109C08BE193E00E94AE0735
:102C50008C2F0E94D001DDE011C0DD3041F4CF5F48
:102C6000C93008F0C0E08C2F0E94D00107C010923C
:102C70008104DF91CF911F910C94D8158091C903E5
:102C800082FD04C08091C80382FFBECF1092C903A9
:102C9000DD30B1F42C2F30E0F901E05FFE4F808190
:102CA0008F5F8083D901AC5DBE4F9C91981728F44B
:102CB000D901A35DBE4F8C9180838C2F0E94D001DF
:102CC0008091C80382FFA0CF0E9428028BE490E08D
:102CD0000E94980099CFDF91CF911F9108950F9393
:102CE0001F93CF93DF9386E08093C603C0E016E086
:102CF000D1E001E28091C903811104C08091C80331
:102D0000882319F01093C60305C08091C603811172
:102D100001C016C08091C90380FD5AC08091C903CB
:102D200081FF11C01092C903C11104C00E94F00BB1
:102D3000C7E009C0C73021F40E94E60BC8E003C019
:102D40001092810445C08091C90382FFD3CF1092B5
:102D5000C903C73079F680917504813039F4009346
:102D600075048093D8030E942F1229C080917504A6
:102D7000813261F4109275048091D9038823F9F0AF
:102D80001092D90380914E0481500BC0D0937504EA
:102D90008091D903811113C0D093D90380914E043F
:102DA0008F5F80934E046091D9038DE190E00E9483
:102DB000021E60914E0484E090E00E94021E0E9478
:102DC000F00B609175048FE090E00E94021E92CF9C
:102DD000DF91CF911F910F910895EF92FF920F9382
:102DE0001F93CF93DF9386E08093C60310E0C6E085
:102DF000FC2EC6E0D0E001E082E0E82E8091C9031D
:102E0000811104C08091C803882319F0F092C60391
:102E100007C08091C603811103C01092810464C071
:102E20008091C90380FD60C08091C90381FF2BC0E0
:102E30001092C903812F90E00196BE010E94651D8A
:102E4000182F83309105B9F034F48130910559F091
:102E5000029731F40BC08430910581F0059789F019
:102E600084E293E005C00E94870D0DC08DE293E0DF
:102E70000E94AE0708C00E941C0105C086E393E0D3
:102E8000F7CF0E9441018091C90382FFB7CF109212
:102E9000C903113009F0B2CF8091D703811105C069
:102EA0001093D70387E690E008C08091D703813064
:102EB00039F4E092D70384E390E00E94B91902C08C
:102EC0001092D7030E94870D6091D70380E190E0B4
:102ED0000E94021E80917504813209F08FCF009309
:102EE000D8030E942F128ACFDF91CF911F910F91AB
:102EF000FF90EF9008950F931F93CF93DF9386E099
:102F00008093C603C0E0D6E011E004E68091C903D7
:102F1000811104C08091C803882319F0D093C6039F
:102F200007C08091C603811103C010928104F1C0D3
:102F30008091C90380FDEDC08091C90381FF7AC0F3
:102F40001092C903C11115C08091E203811102C022
:102F5000C1E001C0C2E080E00E946D088091690478
:102F600081608093690480916A04816080936A041F
:102F700061C0C13029F48091E203882339F01EC07A
:102F8000C23069F58091E2038130A9F48091E203B7
:102F9000811102C0C2E001C0C1E080E00E946D0862
:102FA00080916C04816080936C0480916D048160D9
:102FB00080936D043FC0882319F011C0813079F4EB
:102FC00080E00E946D0880916F04816080936F049F
:102FD00080917004816080937004C3E02BC083E60D
:102FE0008093810480E00E946D088CED95E00E9442
:102FF00098001092810480917504813229F481E057
:103000008093D8030E942F126091190181E090E013
:103010000E94021E60911B0182E090E00E94021E4D
:1030200060911A0183E090E0DF91CF911F910F91A1
:103030000C94021E8091C90382FD04C08091C803D4
:1030400082FF64CF1092C903C13099F480911B01B3
:103050008F5F80931B0180911B018D3010F0C09316
:103060001B0180E00E946D088091E203811120C065
:1030700014C0C23041F580911A018F5F80931A010C
:1030800080911A01803210F010931A0180E00E94A2
:103090006D088091E203813059F480916904816068
:1030A0008093690480916A04816080936A0426C0D9
:1030B00080916C04816080936C0480916D048160C8
:1030C00080936D041BC0C330C9F4809119018F5FD8
:1030D0008093190180911901602F0E94371D9093F0
:1030E000190180E00E946D0880916F0481608093D7
:1030F0006F04809170048160809370048091C80394
:1031000082FF04CF0E9428028CE390E00E94980086
:10311000FDCEDF91CF911F910F9108958F929F92D5
:10312000BF92DF92EF92FF920F931F93CF93DF93A3
:10313000F0904E04E0907204D0908F0486E080936B
:10314000C60310E006E0CCE3D0E098E1892E912C94
:103150008091C90380FDEBC08091C903811104C037
:103160008091C803882319F00093C60307C080919B
:10317000C603811103C010928104D9C08091C90394
:1031800081FF6EC01092C903111117C0F0904E0458
:10319000E0907204D0908F044D2D6E2D8F2D0E94E3
:1031A000B6048091690481608093690480916A0407
:1031B000816080936A0411E053C0113089F44D2D71
:1031C0006E2D8F2D0E94B60480916C0481608093D7
:1031D0006C0480916D04816080936D0412E040C0A6
:1031E000123089F44D2D6E2D8F2D0E94B6048091E2
:1031F0006F04816080936F0480917004816080937C
:10320000700413E02DC0F0924E04E0927204D0924C
:103210008F041092810480917504813229F481E039
:103220008093D8030E942F1260914E0484E090E0B6
:103230000E94021E6091720485E090E00E94021ECE
:1032400060918F0486E090E0DF91CF911F910F9104
:10325000FF90EF90DF90BF909F908F900C94021E94
:103260008091C90382FD04C08091C80382FF70CFA2
:103270001092C9031130C9F48F2D90E00196B4016A
:103280000E94651DB82EF82E4D2D6E2D0E94B6049D
:103290008091690481608093690480916A048160EF
:1032A00080936A04B0924E0437C01230D1F48E2D50
:1032B00090E00196BE010E94651DB82EE82E4D2DAE
:1032C000682F8F2D0E94B60480916C0481608093DA
:1032D0006C0480916D04816080936D04B0927204DF
:1032E0001BC01330C9F48D2D90E00196BE010E94E1
:1032F000651DB82ED82E482F6E2D8F2D0E94B60436
:1033000080916F04816080936F048091700481606C
:1033100080937004B0928F048091C80382FF18CF0D
:103320000E9428028BE490E00E94980011CFDF9168
:10333000CF911F910F91FF90EF90DF90BF909F90E2
:103340008F90089505C081509EE100009150E9F7EB
:103350008111F9CF08950AC02FEF39E698E1215085
:1033600030409040E1F700C0000081508111F4CF5F
:1033700008959093C5008093C40088E18093C100B4
:103380008EE08093C200519A509808959091C000A9
:1033900095FFFCCF8093C60080E090E00895809177
:1033A000C00087FFFCCF8091C60008958091C000C7
:1033B00080780895EF92FF921F93CF93DF931F922F
:1033C000CDB7DEB77C0110E005C069830E94C61945
:1033D0001F5F6981F701E10FF11D84918111F5CF24
:1033E000662361F08AE00E94C6198DE00F90DF919C
:1033F000CF911F91FF90EF900C94C6190F90DF9121
:10340000CF911F91FF90EF900895CF93DF93EC0140
:1034100002C00E94C61989918111FBCFDF91CF9123
:103420000895CF93C82F82958F708A3010F4805DF5
:1034300001C0895A0E94C6198C2F8F70282F30E046
:103440002A30310514F4805D01C0895ACF910C9463
:10345000C619CF93C82F892F0E94111A8C2FCF9194
:103460000C94111ACF92DF92EF92FF926B017C01C4
:10347000C7010E94291AC601FF90EF90DF90CF90FC
:103480000C94291AAF92BF92CF92DF92EF92FF92E3
:103490000F931F93CF93DF931F92CDB7DEB77C01BD
:1034A00005E010E020E080E1A82E87E2B82E9AE047
:1034B000C92ED12CC701B5010E94511D862F611163
:1034C00006C0211104C091E0A916B10431F4805D59
:1034D00069830E94C61921E069816A9DC0016B9DC4
:1034E000900D1124E81AF90AC501B6010E94511D78
:1034F0005B0101501109F1F60F90DF91CF911F91FF
:103500000F91FF90EF90DF90CF90BF90AF90089514
:103510002F923F924F925F926F927F928F929F92E3
:10352000AF92BF92CF92DF92EF92FF921F93CF9311
:10353000DF931F92CDB7DEB74B015C012AE0222E4C
:10354000312C10E0C12C3AECD32E3AE9E32E3BE3C8
:10355000F32E4AE0442E512C612C712CC501B4018C
:10356000A70196010E94791D822F211108C0111117
:1035700006C091E0C916D104E104F10431F4805D84
:1035800029830E94C61911E02981A22FB0E0A7016A
:1035900096010E941C1D861A970AA80AB90AC7013B
:1035A000B601A30192010E94791D69017A01E1E04F
:1035B0002E1A310899F60F90DF91CF911F91FF904D
:1035C000EF90DF90CF90BF90AF909F908F907F90C3
:1035D0006F905F904F903F902F90089515BC569A32
:1035E0005E9884B714BE90E00E94291A88E10FB655
:1035F000F89480936000109260000FBE2FE088E185
:1036000090E00FB6F894A895809360000FBE2093C9
:103610006000A8951092DC031092DB031092D8038F
:103620001092DA0387E690E00E94B91988E480BF1F
:1036300061E070E080E090E00E94A50000B605FE29
:1036400006C080B7806180BF0E949A08FBC00E94BC
:1036500009015B9881E0809369008DBB1092810421
:1036600081E58CBD82E190E00E94FA1D80936704A1
:1036700083E190E00E94FA1D80938D048AE090E03F
:103680000E94FA1D8093710481E190E00E94FA1D6E
:103690008093E1038091E103813019F480918D04DE
:1036A00002C0809171040E94EE0378948DE090E056
:1036B0000E94FA1D982F9C5090930101893110F0BF
:1036C000109201018EE090E00E94FA1D8093D503D4
:1036D0008D3310F01092D5030E94FB010E949502D9
:1036E0000E94B00380E090E00E94FA1DC82F81E2A2
:1036F00090E00E94FA1DC13011F48A3239F044EF93
:1037000051E062E088EB91E00E944B028CE090E097
:103710000E94FA1D8093E2038FE090E00E94FA1D60
:10372000809375048DE190E00E94FA1D8093D90387
:1037300084E190E00E94FA1D8093100185E190E001
:103740000E94FA1D8093110186E190E00E94FA1D0B
:103750008093120187E190E00E94FA1D809313018B
:1037600088E190E00E94FA1D8093140189E190E0C5
:103770000E94FA1D809315018AE190E00E94FA1DD3
:10378000809316018BE190E00E94FA1D809317014F
:103790008CE190E00E94FA1D8093180180E190E096
:1037A0000E94FA1D8093D7038091D703813019F4CA
:1037B00087E690E006C08091D703823021F484E34D
:1037C00090E00E94B91980E290E00E94FA1D809377
:1037D000E0038FE190E00E94FA1D8093D303809173
:1037E000D303823010F01092D30383E680938104D8
:1037F0008FE393E00E94AE0744E650E061E080EC86
:103800009DE00E944B0264EF71E080E090E00E9436
:10381000A5000E949A08A89544E650E061E080EC7B
:103820009DE00E944B0289E093E00E94AE0788EC85
:1038300090E00E9498001092810481E08093D80368
:103840000E94240903E611E0C1E1D0E0A89500B68A
:1038500005FE03C00E94DC00F9CF8091C90380FF00
:10386000B6C01092C90380918104833649F08091DB
:10387000810490E00196BE010E94651D8093810441
:1038800080918104883009F46AC080F48430D9F1D1
:1038900038F4823041F170F5813009F0AEC01CC0BF
:1038A000863009F44EC008F07DC044C08C3009F465
:1038B0005DC030F48A3009F483C008F06CC033C0B6
:1038C0008E3009F45AC008F474C08F3009F45CC01B
:1038D000803109F092C020C08FE393E00E94AE07D0
:1038E0000E94F40D8AC088E493E00E94AE070E9413
:1038F000FB0583C081E593E00E94AE070E948E180D
:103900001093DC037AC08AE593E00E94AE070E9420
:103910007B171093DB0371C083E693E00E94AE0730
:103920000E94F6066AC084E293E00E94AE070E94FD
:10393000ED1663C08CE693E00E94AE070E94A70CD0
:103940005CC085E793E00E94AE078091E103882385
:1039500019F00E94020C51C00E94230D4EC08EE748
:1039600093E00E94AE070E94B00A47C087E893E048
:103970000E94AE070E94260B40C080E993E00E949F
:10398000AE070E94590A39C089E993E00E94AE0748
:103990000E94A60932C082EA93E00E94AE070E940C
:1039A000950B2BC08BEA93E00E94AE070E946F1626
:1039B00024C084EB93E00E94AE070E94FB151DC05B
:1039C0008DEB93E00E94AE070E94A40D16C080917B
:1039D000C90381FD04C08091C90382FF0EC010920B
:1039E000C903009381040E94D907A89588EE93E04B
:1039F0000E949800A895109281048091D703882393
:103A000009F424CF8091C00087FF20CF0E940514C5
:103A10001DCFA29FB001B39FC001A39F01D0B29F51
:103A2000700D811D1124911D08950E94091DB7FF7D
:103A30000895821B930B08950E94091DA59F900D68
:103A4000B49F900DA49F800D911D11240895DB015A
:103A50008F939F930E941C1DBF91AF91A29F800DD9
:103A6000911DA39F900DB29F900D11240895991B55
:103A700079E004C0991F961708F0961B881F7A9565
:103A8000C9F78095089587FB082E062687FD819546
:103A900067FD61950E94371D0EF4919507FC819595
:103AA0000895AA1BBB1B51E107C0AA1FBB1FA61785
:103AB000B70710F0A61BB70B881F991F5A95A9F7D7
:103AC00080959095BC01CD01089597FB072E16F4C3
:103AD000009407D077FD09D00E94511D07FC05D046
:103AE0003EF4909581959F4F0895709561957F4F15
:103AF0000895A1E21A2EAA1BBB1BFD010DC0AA1F2F
:103B0000BB1FEE1FFF1FA217B307E407F50720F046
:103B1000A21BB30BE40BF50B661F771F881F991FC1
:103B20001A9469F760957095809590959B01AC010A
:103B3000BD01CF010895052E97FB16F4009407D020
:103B400057FD0DD00E94791D07FC09D07EF4909599
:103B50008095709561957F4F8F4F9F4F0895509539
:103B60004095309521953F4F4F4F5F4F0895FB0192
:103B7000DC010D900020E9F7119701900D920020D3
:103B8000E1F70895FC018191861721F08823D9F788
:103B9000992708953197CF010895FB01DC010D901D
:103BA0000020E9F711974150504028F00190002083
:103BB0000D92C9F708951C920895FB01DC01415054
:103BC000504030F08D910190801919F40020B9F720
:103BD000881B990B0895FB01DC014150504048F0CF
:103BE00001900D920020C9F701C01D924150504034
:103BF000E0F70895F999FECF92BD81BDF89A992713
:103C000080B50895262FF999FECF92BD81BDF89A0F
:103C1000019700B4021639F01FBA20BD0FB6F89410
:103C2000FA9AF99A0FBE0895262FF999FECF1FBA76
:103C300092BD81BD20BD0FB6F894FA9AF99A0FBED5
:083C400001960895F894FFCFEE
:103C480008F830303030303000303030303030002C
:103C5800030102020B010102012F0E03313330363A
:103C68003137776D0C0507170C050717010101019E
:103C780000010101000000001F003B005A0078000D
:103C88009700B500D400F300110130014E011F1C4C
:103C98001F1E1F1E1F1F1E1F1E1F73756E64617956
:103CA800006D6F6E64617900747565736461790085
:103CB8007765646E6573647900746875727364619E
:103CC8007900667269646179007361747572646100
:103CD80079006A616E00666562006D6172636800F2
:103CE800617072696C006D6179006A756E65006A51
:103CF800756C790061756773740073657074006F13
:103D080063746F62006E6F76656D00646563656DE0
:103D180000203230303020202000616C61726D202C
:103D28006F6E002020206D696E75740020736176B7
:103D3800696E6720002066756C6C20202000206466
:103D480069616C31202000206469616C3220200098
:103D5800206469616C33202000206469616C342020
:103D6800200020616D2D706D20200020616D2D7068
:103D78006D2E2000206E6F6E6520202000206E6F53
:103D88006E652E2020002066756C6C677073006469
:103D98007266742020007573612D31326872006577
:103DA80075722D3234687200766F6C2068696768A6
:103DB80000766F6C206C6F7720006F666673657491
:103DC8002000647374206175746F00647374206FCD
:103DD8006E202000647374206F666620006272741F
:103DE8006C6F2000627274686920006164696D20DC
:103DF8006F6E20006164696D206F666600616463A0
:103E0800200062726974652000677073206F6E34D9
:103E18003800677073206F6E393600677073206FD3
:103E2800666620006F6E202038383838006F666666
:103E3800203838383800736E6F6F7A696E67002AD9
:103E480000244750524D432C0020202020202020C1
:103E58002000206E6F20677073200072756C6530CB
:103E680020303000736574206770732000677073AA
:103E7800206C61742000677073206C6F6E67006936
:103E8800636520747562650073657420616C617286
:103E9800007365742074696D6500736574206461CE
:103EA800746500736574207A6F6E6500736574209D
:103EB8006164696D0073657420627269740073656A
:103EC80074206472667400736574207265676E008E
:103ED80073657420736563730073657420736E6F04
:103EE8007A0073657420766F6C20007365742064A3
:103EF800737420007365742072756C650073657443
:063F0800206C64626200FF
:00000001FF
