:100000000C9479000C94301C0C9496000C940418F9
:100010000C9496000C9458180C9496000C94030CB5
:100020000C9496000C9496000C9496000C949600F8
:100030000C9496000C9496000C9496000C949600E8
:100040000C94C8070C9496000C9496000C9496009F
:100050000C9496000C94E4020C9496000C94B31249
:100060000C9496000C949600FA3E1A7ADE8EF62EC8
:100070006078AE1CAA2A3ACEF30AB61E3838B86E9B
:1000800076DA6800FC60DAF266B6BEE0FEF684005E
:100090000E620E200E400C600462086290008080A8
:1000A0008000400020001000101000100008000424
:1000B00000809E00C080C2004202020A001A10188E
:1000C000301032002202020600868084B400040050
:1000D00002000800002000020040CE0003070809CB
:1000E000060A050C04DC000B10120F0D0E1113E7AD
:1000F000000011241FBECFEFD8E0DEBFCDBF13E05C
:10010000A0E0B1E0E0E8FDE302C005900D92A63C5E
:10011000B107D9F714E0A6ECB3E001C01D92A539F0
:10012000B107E1F70E942B1A0C94BE1E0C9400003C
:100130009C0178941092DF031092DE038091DE031D
:100140009091DF0382179307C8F30895EF92FF920F
:100150000F931F937B018C0120ED37E040E050E0CE
:100160000E94C91D611571058105910519F461E0B1
:1001700070E01CC0603020E0720721E0820720E0C0
:100180009207A0F0C801B7012AE030E040E050E05B
:100190000E94C91D88EC90E005C0FC013197F1F781
:1001A0006150704061157105C1F703C0CB01019723
:1001B000F1F71F910F91FF90EF9008950197F1F7DC
:1001C0000895A895089581E08093CD035B9A8CB53E
:1001D0008F7B8CBD85B1877D85B95E9815BC1092EB
:1001E000660410926800459885B1897F85B98BB106
:1001F0008F7C8BB928988AB18F7C8AB920985A98BD
:100200005298E1E6F0E090E8908388E08083449A99
:1002100083B7876083BF8895908310824498089540
:100220008EE284B988E48AB989E087B984E38BB91E
:1002300091E095B985E08093680090936B0080E32E
:1002400080936D000895CF93DF931092690480919D
:1002500051048E3419F410926A0403C082E0809332
:100260006A04A0E6B4E0CBE6D4E0ED91E053F0E020
:10027000EC57FF4FE491E99384E0A636B807A9F75D
:1002800080916E04816080936E04DF91CF91089518
:10029000CF93DF9380914F04853419F41092690451
:1002A00003C082E080936904A2E5B4E0CAE6D4E02A
:1002B000ED91E053F0E0EC57FF4FE491E99384E0D7
:1002C000A935B807A9F780916E04816080936E0408
:1002D000DF91CF910895CF93DF93362F3150C32F05
:1002E000DD27C7FDD095C80FD11DC859DB4F252F7D
:1002F00016C0842F922F6AE070E00E94011EE82F42
:10030000F0E0EC57FF4FE491E883842F922F6AE0EE
:1003100070E00E94011E462F272F3150219737FF92
:10032000E8CFDF91CF910895A82F262FE82FF0E096
:1003300067FF06C0E859FB4F82E08083219503C028
:10034000E859FB4F1082B0E0822F6AE00E94F41D52
:10035000E82FF0E0EC57FF4FE491A859BB4FE42B96
:100360001196EC931197822F6AE00E94F41DE92FF9
:10037000F0E0EC57FF4FE491E42B1296EC930895D4
:100380000F931F93CF93DF938B01282F30E0CB0186
:100390006AE070E00E94151EC4E8D0E0FE01E60F9E
:1003A000F11DE49128593B4FE42BD901EC93C8018E
:1003B0006AE070E00E94151EC80FD11DFE018491F5
:1003C000842BD90111968C93DF91CF911F910F91BE
:1003D0000895A82FB0E0CD018C579F4FFC01849168
:1003E000816080936D04AA58BC4F6C9187E070E0E7
:1003F00041E00E94C0010895FC0183709070892B38
:1004000039F4CF0164E670E00E94011E892B49F4A3
:1004100020E030E0CF0160E971E00E94011E892BED
:1004200011F421E030E0822F0895109280001092A4
:100430008100299A2A9878941092DF031092DE03A3
:100440008091DE039091DF030A97D0F32A9A2998CE
:1004500078941092DF031092DE038091DE03909176
:10046000DF030A97D0F385B1897F85B982E3809352
:10047000800080916604882329F080918000806844
:100480008093800088E1809381000895DF92EF924D
:10049000FF920F931F93D62E8A019C0140E050E0FB
:1004A00060E472E48FE090E00E944A1E309387007F
:1004B000209386008091860090918700969587957D
:1004C00090938B0080938A0080918A0090918B009A
:1004D0009093890080938800780100E010E016C0B6
:1004E00080918100826080938100C801B7010E94E1
:1004F000A600809181008D7F8093810085B1897FE6
:1005000085B9C801B7010E94A600DA94DD2041F741
:1005100085B1897F85B91F910F91FF90EF90DF9092
:10052000089544E650E00E94460208953D9A459A97
:10053000AAE7B0E08C9186608C93ECE7F0E08081D4
:1005400080648083808184608083EEE7F0E0808136
:10055000806180838C9180688C938C9188608C936F
:1005600008958091C903813029F480917A008064D4
:1005700080937A000895982F80917E04882329F033
:100580008091900480FD0DC002C09B3510F09AE56B
:1005900003C09A3008F49AE087B5891721F097BD17
:1005A000089592E3F9CF08950E94BB0283E084BDD1
:1005B00081E085BD84B5806884BDEEE6F0E0808191
:1005C00081608083789408951F920F920FB60F92E6
:1005D00011241F932F933F934F935F936F937F93B8
:1005E0008F939F93AF93BF93EF93FF938091C90332
:1005F000813009F03FC03091780020917900922F2E
:1006000080E0632F70E0682B792B709380046093F7
:100610007F0483E0623F780718F08091670405C08B
:100620006536710520F480918E0490E01DC0109114
:100630008E0420918E04E09167046456704080E03F
:1006400090E030E02E1B3109442737FD4095542FB0
:100650000E94C91D2EE833E040E050E00E94281EB1
:10066000812F90E0821B930B90937B0480937A04FC
:100670000E94BB02FF91EF91BF91AF919F918F912B
:100680007F916F915F914F913F912F911F910F90AB
:100690000FBE0F901F9018951F93182F87E0612FA2
:1006A00070E041E00E94C001812F0E94BB021F91B7
:1006B0000895CF93DF93C62FD0E0E82FF0E0E0530A
:1006C000F84FC330D10510F42C963197242F30E029
:1006D0002F5F3F4F2E0F3F1FCE01880F991F280F0E
:1006E000391FCF019695879596958795280F391FC5
:1006F000CF0160E971E00E94011E260F371FCF0174
:1007000064E670E00E94011E261B370BAE014F5FAE
:100710005F4FCA01880F991F840F951F880F991F7B
:100720006AE070E00E94011EC901860F971F67E012
:1007300070E00E94011E8F5FDF91CF910895E4E881
:10074000F0E0E80FF11DE4918E2F0895E82FF0E01E
:10075000E95FFF4FE4918E2F08950F931F93182F99
:10076000062F80918104882309F07EC08091CA03FE
:10077000833009F442C0843028F4813069F082303B
:10078000F0F472C0853008F475C0873008F448C0B2
:10079000893008F06FC05CC0842F66E00E94E81DBD
:1007A000892F90E0880F991FFC01EF56FF4FE491CD
:1007B000E0936F0480579F4FFC01949146C0842FB3
:1007C0006AE00E94E81D292F30E0220F331FC90183
:1007D00081569F4FFC01949190936F0422563F4F96
:1007E000F90184918093700440FF44C0926090931B
:1007F0006F048260809370043DC0842F6CE00E947F
:10080000E81D892F90E0880F991FFC01EB54FF4FE2
:10081000E491E0936F048C549F4FFC01949115C0B8
:100820001C3018F4E8E6F0E002C0E7E7F0E0E491FD
:10083000E0936F04E4E7F0E094919093700480916A
:10084000CA038630B9F44170942B9093700412C09F
:1008500010926F04109270048091CA03883051F492
:1008600041704093700406C087E0642F70E040E060
:100870000E94C00110926E0484E0602F70E040E09E
:100880000E94C00110926B048091C803882369F50F
:10089000812F90E00B966CE070E00E94151E9C0189
:1008A00001966AE070E00E94151EE82FF0E0EC5718
:1008B000FF4FE491E0936A04265F3F4F23313105F7
:1008C00018F41092690405C0E5E8F0E0E491E093C3
:1008D00069041C3020F080916804816003C080911D
:1008E00068048E7F8093680406C081E0612F70E009
:1008F00040E00E94C0011F910F9108951F93182F8F
:100900001092700410926F0410926E0484E070E0F4
:1009100040E00E94C00110926B048091C8038823BC
:1009200009F03EC01C3058F08091680481608093CB
:100930006804E7E7F0E0E491E0936F040AC0E8E6BA
:10094000F0E0E491E0936F04809168048E7F8093DF
:100950006804E4E7F0E0E491E0937004812F90E014
:100960000B966CE070E00E94151E9C0101966AE0F7
:1009700070E00E94151EE82FF0E0EC57FF4FE49165
:10098000E0936A04265F3F4F2331310518F410923B
:10099000690414C0E5E8F0E0E491E09369040EC056
:1009A000812F90E0479668E170E00E94151EBC011F
:1009B0006F5F7F4F81E040E00E94C0011F9108956A
:1009C0001F93182FEAE6F0E08491809370047196EB
:1009D000849180936F043196E491E0936E0484E0F7
:1009E00070E040E00E94C00110926B04612F7727F5
:1009F00067FD709577FF03C0709561957F4F81E02B
:100A000040E00E94C00117FD04C0809168048D7F02
:100A100003C0809168048260809368041F910895E8
:100A2000CF93DF9310926804EC01A9E6B4E0E8816B
:100A3000EE23D9F08E2F81568A3128F4F0E0E95F59
:100A4000FF4FE49109C08E2F80538A3038F4E82F8D
:100A5000F0E0EC57FF4FE491EC9301C01C9221961B
:100A6000119684E0A137B80711F7DF91CF9108956F
:100A7000882359F51092680482E080936B04809378
:100A80006E048091C803882351F46091730381E060
:100A900070E040E00E94C0016091740309C0609161
:100AA000740381E070E040E00E94C0016091730334
:100AB00084E070E040E00E94C0016091750387E02F
:100AC00070E040E00E94C0010895813009F0ADC09F
:100AD00010926F04109270048091750360917303FB
:100AE000409174030E9459038430C9F0853038F472
:100AF000823079F0833080F48130F1F407C08630A1
:100B0000A1F0863078F08730B9F412C080E091E02F
:100B100011C087E091E00EC08EE091E00BC086E14D
:100B200091E008C08FE191E005C088E291E002C049
:100B30008FE291E00E94100578941092DF031092EA
:100B4000DE038091DE039091DF03885E9340C8F35B
:100B500010926C0410926D0410926E0480917303D5
:100B6000863079F1873070F4833011F1843028F4C5
:100B70008130C1F08230D9F518C08430E1F0853081
:100B8000B1F51CC0893031F18A3028F48730E1F0AA
:100B9000883069F51CC08B3019F18B30F0F08C3047
:100BA00031F521C088E391E020C08CE391E01DC0C5
:100BB00080E491E01AC086E491E017C08CE491E0F3
:100BC00014C080E591E011C085E591E00EC08AE592
:100BD00091E00BC080E691E008C085E691E005C099
:100BE0008BE691E002C081E791E00E9410056091E0
:100BF000740387E070E040E00E94C0017894109296
:100C0000DF031092DE038091DE039091DF03885EA4
:100C10009340C8F387E791E00E9410056091750347
:100C200084E070E040E00E94C00108954A9B3EC00D
:100C300080917404882309F051C081E0809374048A
:100C40001092DD031092DC038091CE03882309F417
:100C500045C080918104882309F040C080E891E07C
:100C60000E94100583E68093810478941092DF033C
:100C70001092DE038091DE039091DF038C5D95403E
:100C8000C8F380917704609150040E947E047894A8
:100C90001092DF031092DE038091DE039091DF0358
:100CA0008C5D9540C8F3109281040895809174047E
:100CB0008823A1F0109274041092DD031092DC03DB
:100CC00080917E04882351F010927E0480918100EF
:100CD0008D7F8093810085B1866085B9089580916C
:100CE000CA03843001F1853048F4813099F08130B5
:100CF00070F0823091F08330A1F512C08630C9F0D7
:100D00008630A0F08730F9F0883059F521C089E8A5
:100D100091E01BC082E991E018C08BE991E015C019
:100D200084EA91E012C08DEA91E00FC086EB91E079
:100D30000CC08FEB91E00E94100580916F048160E0
:100D400080936F04089588EC91E00E941005089547
:100D500081ED91E00E94100580916E048160809386
:100D60006E0408958091C803882319F48AED91E0F8
:100D700002C083EE91E00E94100508958091660400
:100D8000882351F08CEE91E00E9410058091700450
:100D900081608093700404C085EF91E00E9410058B
:100DA00080916D04816080936D0480916E048160F8
:100DB00080936E0480916F04816080936F04089526
:100DC00080917504813219F48EEF91E009C0809111
:100DD0007504813019F487E092E002C080E192E06E
:100DE0000E94100508958091C903813019F489E1AA
:100DF00092E002C082E292E00E9410050895809184
:100E0000D203813019F48BE292E009C08091D203C1
:100E1000823019F484E392E002C08DE392E00E94F4
:100E2000100508958091D703882319F086E492E095
:100E300002C08FE492E00E94100508951F938AE09B
:100E40008093E4031AE08091E10380FD1DC080914E
:100E5000E103882321F48091E203882319F01093A1
:100E6000E40307C08091E403882319F410928104FD
:100E70000BC08091E10381FFE6CF1092E1038BE686
:100E800093E00E941005DFCF1F91089581E58CBD8E
:100E900008959B01AC01F894CA01AA27BB278EBD17
:100EA0000DB407FEFDCFBB27A52F942F832F8EBD3A
:100EB0000DB407FEFDCF2EBD0DB407FEFDCF409A49
:100EC000409878940895AF92BF92CF92DF92EF92BC
:100ED000FF920F931F939091A003981708F4892F06
:100EE000E82FF0E0DF01A859BB4F2C91E452FF4FEF
:100EF000E49181E090E002C0880F991FEA95E2F743
:100F00007C010027F7FC0095102F4091E6035091DB
:100F1000E7036091E8037091E903A0E0B0E030E0FE
:100F2000E1E0AE2EB12CC12CD12CC9010A2E02C099
:100F3000959587950A94E2F780FF11C0FD01E9516C
:100F4000FF4FE491B601A50104C0440F551F661F71
:100F5000771FEA95D2F7E42AF52A062B172B11966C
:100F6000A830B10511F74093E6035093E70360936F
:100F7000E8037093E903C801B7010E9449071F9174
:100F80000F91FF90EF90DF90CF90BF90AF900895BA
:100F90001F920F920FB60F9211242F933F934F93EE
:100FA0005F936F937F938F939F93AF93BF93EF93D1
:100FB000FF937894A8958091D8039091D9030196D6
:100FC0009093D9038093D803829708F418C11092A4
:100FD000D9031092D8038091DE039091DF0301962C
:100FE0009093DF038093DE038091D6030E94630712
:100FF0002091D6032F5F2093D6034091D70330E092
:101000008091A00390E0840F911D8217930714F440
:101010001092D6038091CA03843041F580918104F7
:10102000882321F58091CB038F5F8093CB03873991
:10103000E8F01092CB038091DE039091DF0367EA22
:1010400070E00E94011ECB0166E070E00E94011E6C
:10105000880F991FFC01E153FF4FE491E0936F0467
:1010600082539F4FFC0184918093700480917E0491
:10107000882309F4C4C08091DC039091DD03892B9F
:1010800009F0BDC08091DA039091DB030196909343
:10109000DB038093DA038B35910508F4B0C010921E
:1010A000DB031092DA03809183049091840401960B
:1010B00090938404809383048091830490918404AA
:1010C0008155964470F010927E041092DD031092C8
:1010D000DC03809181008D7F8093810085B18660E3
:1010E00085B980917C0490917D04019690937D0454
:1010F00080937C0420917C0430917D048091910444
:10110000909192048217930750F510927D041092EB
:101110007C0480917C0490917D049093940480934E
:1011200093048091910490919204459748F08091A6
:101130009104909192044497909392048093910427
:101140008091780490917904449748F480917804D0
:101150009091790402969093790480937804809119
:101160009304909194040196909394048093930433
:1011700020919304309194048091780490917904A3
:1011800082179307E0F180919304909194049C015D
:10119000220F331F280F391F220F331F220F331F37
:1011A00024553E4F40E050E060E472E48FE090E070
:1011B0000E944A1E3093870020938600809186000B
:1011C000909187009695879590938B0080938A00E5
:1011D00080918A0090918B00909389008093880081
:1011E000809193049091940480FF04C080918100C9
:1011F000826003C0809181008D7F80938100FF9188
:10120000EF91BF91AF919F918F917F916F915F917E
:101210004F913F912F910F900FBE0F901F901895F7
:101220008EBD0DB407FEFDCF08958091C00080787B
:101230000895FC015381505182814AE0849FC0018E
:101240001124580F7481658130919F032091D1033F
:10125000230F20518181280F8081849FC001112498
:10126000280F20934E048091D50337FF02C0581BEE
:1012700001C0580F5093720460518AE0789FC001FA
:101280001124680F6093900481E08093CE03089549
:10129000FC014181405180815AE0859FC0011124A9
:1012A000480F338130518281859FC0011124380F4E
:1012B000258120518481859FC0011124280F4093EE
:1012C0007403309373032093750381E08093CF03FD
:1012D000089581E080937E041092DD031092DC0378
:1012E00088EC90E0909392048093910410927D0496
:1012F00010927C0482E090E09093790480937804CB
:101300001092840410928304809183049091840449
:101310009093DB038093DA030895982F80917404EF
:10132000882361F080917704891741F480915004FB
:10133000861721F4442311F40E9469090895EF925D
:101340000F931F93582FE62F122FF0E0EE0FFF1F81
:10135000E555FC4F0190F081E02DE40FF11D282FA1
:1013600030E0C90183709070892B31F4852F64E6D9
:101370000E94E81D992339F4C90160E971E00E94D7
:10138000151E892B09F43196BF0180E090E020E81A
:1013900031E541E050E00E94C91D2CE3029F90011D
:1013A00011242E0D311DA12FB0E0E0E1FEE0AF01D0
:1013B000A49FF001A59FF00DB49FF00D11242E0FF6
:1013C0003F1F260F371FB90180E090E01F910F915A
:1013D000EF900895EF92FF920F931F93CF93DF93B7
:1013E000082FE62E142FF22EE82FF0E0E056FC4FE7
:1013F0008081C82FD0E08091750390E08370907059
:10140000892B19F4023009F4219680917503602F1D
:1014100041E00E9459039E2D981BE81610F0292FD9
:1014200002C0292F295F87E0189FC0011124482F8F
:101430004650420F01C04750842F992787FD909551
:10144000C817D907C0F380917503602F2F2D00E0D6
:10145000EE240E949F09DF91CF911F910F91FF9081
:10146000EF900895682F4091D1038091D10399277F
:1014700087FD9095262F30E082179307C9F0809161
:1014800082048130A9F46093D10380914E04962F99
:10149000941B980F90934E048DE190E00E94B01E33
:1014A00060914E0484E090E00E94B01E109282048D
:1014B00008955F926F927F928F929F92AF92BF92A8
:1014C000CF92DF92EF92FF920F931F93FC01148152
:1014D0000581F680E780508480816181428123818B
:1014E0000E94EA093B014C01812F602F4F2D2E2DC8
:1014F0000E94EA095B016C0180917503609173039E
:101500004091740320914E0400917204E090900485
:101510000E949F096A147B048C049D0434F46615B0
:1015200077058805990534F40CC06615770588059C
:1015300099052CF46A157B058C059D0514F4852D01
:1015400001C080E00E94320A1F910F91FF90EF903E
:10155000DF90CF90BF90AF909F908F907F906F90D3
:101560005F900895809190048C3354F080919004A2
:101570008C5380939004809172048F5F80937204E7
:101580008091900487FF0AC080919004845C8093CE
:10159000900480917204815080937204809172044F
:1015A0008C3354F0809172048C5380937204809138
:1015B0004E048F5F80934E048091720487FF0AC0AF
:1015C00080917204845C8093720480914E048150F7
:1015D00080934E04809190048823A1F4809172043A
:1015E000882381F48091D203882361F460914E04B2
:1015F00084E090E00E94B01E6091720485E090E06B
:101600000E94B01E80914E04883184F080914E0477
:10161000885180934E04809174038F5F809374038C
:101620006091740383E090E00E94B01E80914E04AC
:1016300087FF10C080914E04885E80934E04809195
:1016400074038150809374036091740383E090E08D
:101650000E94B01E80917403803268F580917403FB
:101660008F3181F480917303843029F18091730369
:10167000863009F1809173038930E9F0809173031A
:101680008B30C9F0809174038E3121F48091730303
:10169000823089F0809174038D31D9F48091730385
:1016A0008230B9F48091750390E08053984F0E9486
:1016B000FC01882371F481E08093740380917303AB
:1016C0008F5F809373036091730382E090E00E94C8
:1016D000B01E80917403882309F047C08091730382
:1016E0008630D1F0873060F4833029F1843018F4EB
:1016F000813090F111C0843079F0853069F510C0E7
:101700008A3018F4883040F40BC08B3029F08B30CD
:1017100038F08C3009F504C080917403815E03C0F9
:1017200080917403825E809374038091730381506F
:101730008093730314C08091750390E08053984F99
:101740000E94FC01882321F080917403835EEBCF1B
:1017500080917403845EE7CF81E08093740360918D
:10176000730382E090E00E94B01E809173038D307D
:1017700070F0809175038F5F8093750381E0809393
:1017800073036091750381E090E00E94B01E809128
:1017900073038823B1F480917303845F8093730390
:1017A000809175038150809375036091750381E08A
:1017B00090E00E94B01E6091730382E090E00E946E
:1017C000B01E809190048823E9F4809175048132E1
:1017D00029F486E793E00E94590A09C080917504B4
:1017E000813019F48093D10302C01092D10380910B
:1017F0007204882339F480914E04882319F481E01F
:101800008093820408951F920F920FB60F921124B5
:101810002F933F934F935F936F937F938F939F93F8
:10182000AF93BF93EF93FF9380E880936100109292
:101830006100809190048F5F809390040E94B20AAF
:10184000809172048823B9F480919004882321F454
:101850008091E503815805C080919004813019F48E
:101860008FE78093B30080919004823024F48091BC
:10187000B60083FDFCCF8091CD03882309F088C09A
:101880008091D3039091D4038530910528F401967B
:101890009093D4038093D30380918104882399F596
:1018A0008091CE03882339F48091900480FF03C097
:1018B00088E592E010C08091D203882379F080916E
:1018C000D3039091D403059748F08091900480FF52
:1018D00005C081E692E00E94100508C080914E0488
:1018E00060917204409190040E94AD038091740451
:1018F000882321F080916804826003C0809168048D
:101900008D7F809368048091CE03882341F080917D
:101910004E0460917204409190040E948D09809160
:10192000C903813029F480917A00806480937A0021
:101930008091E403882329F08091E403815080930F
:10194000E4038091E303882329F08091E30381502D
:101950008093E3038091DC039091DD030097C1F055
:101960009C01215030403093DD032093DC0320FFA5
:1019700006C08091680482608093680409C08091E9
:1019800068048D7F80936804232B11F40E946909F9
:10199000FF91EF91BF91AF919F918F917F916F9147
:1019A0005F914F913F912F910F900FBE0F901F901D
:1019B00018950F931F938AE08093E40310E00AE0E8
:1019C0008091E103882321F48091E203882319F0B8
:1019D0000093E40304C08091E4038823B1F0809174
:1019E000E10380FD41C08091E10381FF11C01092AD
:1019F000E103112321F40E946F061EE009C06091EB
:101A0000CA0380E290E00E94B01E109281042CC0B4
:101A10008091E10382FD04C08091E20382FFD0CF78
:101A20001092E1031E3069F48091CA038F5F8093A6
:101A3000CA038091CA03893010F01092CA030E9431
:101A40006F068091E20382FFBBCF0E94150278945B
:101A50001092DF031092DE038091DE039091DF038A
:101A600084369105C8F3ACCF1F910F910895EF9282
:101A7000FF920F931F93CF93DF938C01FF24C4E158
:101A8000D0E0EE24E394F8018081882341F0F394C0
:101A9000FE01EE59FC4FCE0160810E94B01EFF2076
:101AA00031F0E092820486E793E00E94590A0F5FCA
:101AB0001F4F2196CD31D10531F7DF91CF911F9185
:101AC0000F91FF90EF900895CF92DF92EF92FF92E7
:101AD0000F931F93DF93CF93CDB7DEB729970FB640
:101AE000F894DEBF0FBECDBF8AE08093E403FE0111
:101AF000319689E0DF011D928A95E9F700E010E058
:101B00004AE0C42E7F01DD24D3948091E103882331
:101B100021F48091E203882319F0C092E4030BC002
:101B20008091E403882339F4CE0101960E94370D99
:101B30001092810460C08091E10380FD1DC08091FE
:101B4000E10381FF1EC01092E103002349F48AE6FD
:101B500092E00E941005812F0E94E9010DE011C062
:101B60000D3041F41F5F193008F010E0812F0E9402
:101B7000E90107C010928104CE0101960E94370D41
:101B80003AC08091E10382FD04C08091E20382FFAC
:101B9000BCCF1092E1030D30D9F4A12FB0E09D012C
:101BA0002A583C4FF90180818F5F8083FD01E857FF
:101BB000FC4F9081981730F4FD01E158FC4F808173
:101BC000F9018083AE0DBF1DDC92812F0E94E901D7
:101BD0008091E20382FF99CF0E94150278941092BF
:101BE000DF031092DE038091DE039091DF038B34DC
:101BF0009105C8F38ACF29960FB6F894DEBF0FBEC1
:101C0000CDBFCF91DF911F910F91FF90EF90DF90AB
:101C1000CF900895DF92EF92FF920F931F938AE087
:101C20008093E40300E06AE0D62EFF24F39451E2AF
:101C3000E52E8091E103882321F48091E20388233B
:101C400019F0D092E40304C08091E403882381F06A
:101C50008091E10380FD58C08091E10381FF0BC0BA
:101C60001092E103002321F40E94E00607E003C084
:101C70001092810449C08091E10382FFDACF109273
:101C8000E1030730B1F610917504113059F4E09278
:101C900075041093820486E793E00E94590A10931A
:101CA000820429C080917504813261F41092750418
:101CB0008091D1031816FCF41092D10380914E0448
:101CC00081500BC0F09275048091D103882399F460
:101CD000F092D10380914E048F5F80934E04609107
:101CE000D1038DE190E00E94B01E60914E0484E02B
:101CF00090E00E94B01E0E94E006609175048FE0A3
:101D000090E00E94B01E95CF1F910F91FF90EF9031
:101D1000DF9008950F931F938AE08093E40310E00F
:101D20000AE08091E103882321F48091E203882373
:101D300019F00093E40305C08091E403882309F4BB
:101D40004AC08091E10380FD65C08091E10381FF7D
:101D500045C01092E103112321F40E94F30615E01F
:101D60003DC01530B1F483E792E00E941005409128
:101D70007F045091800481E064E00E946B014091F7
:101D80007A0450917B0486E063E00E946B0113E0CB
:101D900025C01330D1F48091C903813029F480919A
:101DA0007A00806480937A0040917F04509180048F
:101DB00081E064E00E946B0140917A0450917B04C1
:101DC00086E063E00E946B0109C06091C90381E174
:101DD00090E00E94B01E109281041CC08091E1032B
:101DE00082FF9FCF1092E103153009F09ACF8091C6
:101DF000C903813019F41092C90303C081E08093B4
:101E0000C9030E94F3066091C90381E190E00E943A
:101E1000B01E87CF1F910F9108950F931F938AE0F3
:101E20008093E40310E00AE08091E103882321F429
:101E30008091E203882319F00093E40304C08091A9
:101E4000E4038823B1F08091E10380FD49C08091D3
:101E5000E10381FF17C01092E103112351F488E7D9
:101E600092E00E941005809171040E944C0311E0E1
:101E700009C0109281046091710489E090E00E9491
:101E8000B01E2EC08091E10382FD04C08091E20368
:101E900082FFCACF1092E103113079F4809171046E
:101EA0008B5F80937104809171048B3510F00093E7
:101EB0007104809171040E944C038091E20382FFBF
:101EC000B3CF0E94150278941092DF031092DE03C4
:101ED0008091DE039091DF038B349105C8F3A4CF8A
:101EE0001F910F910895FF920F931F938AE08093A3
:101EF000E40310E07AE0F72E01E08091E10388230B
:101F000021F48091E203882319F0F092E40304C0E5
:101F10008091E4038823B1F08091E10380FD2FC01C
:101F20008091E10381FF11C01092E103112321F49C
:101F30000E9412071AE009C06091D7038FE190E078
:101F40000E94B01E109281041AC08091E10382FFAA
:101F5000D4CF1092E1031A3081F68091D703882301
:101F600019F01092D70302C00093D7030E94120702
:101F70006091D7038FE190E00E94B01EBECF1F9109
:101F80000F91FF900895FF920F931F938AE0809323
:101F9000E40310E0EAE0FE2E01E08091E1038823F3
:101FA00021F48091E203882319F0F092E40307C042
:101FB0008091E403882319F41092810401C1809177
:101FC000E10380FDFDC08091E10381FF83C0109299
:101FD000E1031123A9F48091C803882311F012E0D2
:101FE00001C011E080E00E943805809169048160A1
:101FF0008093690480916A04816080936A046AC056
:10200000113029F48091C803882339F020C01230A0
:10201000E1F48091C8038130A9F48091C80388233A
:1020200011F011E001C012E080E00E9438058091BB
:102030006C04816080936C0480916D048160809356
:102040006D0448C0882339F015C0113099F480918F
:10205000C803813079F480E00E94380580916F04D4
:10206000816080936F04809170048160809370041C
:1020700013E030C083E68093810480E00E9438053D
:1020800078941092DF031092DE038091DE0390912A
:10209000DF038C5D9540C8F31092810411E010932A
:1020A000820486E793E00E94590A109382046091AB
:1020B000750381E090E00E94B01E6091730382E09E
:1020C00090E00E94B01E6091740383E090E00E9453
:1020D000B01E76C08091E10382FD04C08091E203CE
:1020E00082FF5BCF1092E103113099F4809173036A
:1020F0008F5F80937303809173038D3010F0109382
:10210000730380E00E9438058091C803882301F59D
:1021100014C0123041F5809174038F5F8093740373
:1021200080917403803210F00093740380E00E9469
:1021300038058091C803813059F480916904816029
:102140008093690480916A04816080936A0426C048
:1021500080916C04816080936C0480916D04816037
:1021600080936D041BC01330C9F4809175038F5F99
:10217000809375038091750364E60E94E81D909337
:10218000750380E00E94380580916F048160809320
:102190006F04809170048160809370048091E203E9
:1021A00082FFFBCE0E94150278941092DF031092FA
:1021B000DE038091DE039091DF03CC97D0F3EDCE68
:1021C0001F910F91FF900895DF92EF92FF920F936E
:1021D0001F9300914E04E0907204F09090048AE006
:1021E0008093E40310E0FAE0DF2E8091E10380FDAC
:1021F000ECC08091E103882321F48091E2038823DD
:1022000019F0D092E40307C08091E403882319F405
:1022100010928104DAC08091E10381FF67C01092BF
:10222000E1031123B9F400914E04E0907204F090A0
:102230009004802F6E2D4F2D0E94AD038091690474
:1022400081608093690480916A04816080936A044C
:1022500011E04CC0113089F4802F6E2D4F2D0E945B
:10226000AD0380916C04816080936C0480916D0457
:10227000816080936D0412E039C0123089F4802FA0
:102280006E2D4F2D0E94AD0380916F04816080936D
:102290006F048091700481608093700413E026C005
:1022A00000934E04E0927204F09290041092810424
:1022B00011E01093820486E793E00E94590A10937C
:1022C000820400934E0460914E0484E090E00E94EA
:1022D000B01E6091720485E090E00E94B01E609193
:1022E000900486E090E00E94B01E6FC08091E103F0
:1022F00082FD04C08091E20382FF77CF1092E10358
:102300001130C9F4802F90E0019668E170E00E94DE
:10231000151E082F6E2D4F2D0E94AD03809169046C
:1023200081608093690480916A04816080936A046B
:1023300000934E0437C01230D1F48E2D90E00196F8
:102340006CE370E00E94151EE82E802F6E2D4F2D3D
:102350000E94AD0380916C04816080936C04809135
:102360006D04816080936D04E09272041BC0133091
:10237000C9F48F2D90E001966CE370E00E94151E69
:10238000F82E802F6E2D4F2D0E94AD0380916F048B
:10239000816080936F0480917004816080937004E9
:1023A000F09290048091E20382FF1FCF0E941502F9
:1023B00078941092DF031092DE038091DE039091F7
:1023C000DF038B349105C8F310CF1F910F91FF905D
:1023D000EF90DF900895EF92FF920F931F9310916B
:1023E0007704009150048AE08093E403FF24BAE06C
:1023F000EB2E8091E10380FDB1C08091E103882341
:1024000021F48091E203882319F0E092E40317C0DD
:102410008091E403882399F4109281041093770447
:10242000009350046091770487E090E00E94B01E12
:102430006091500488E090E00E94B01E8FC08091AF
:10244000E10381FF3CC01092E103FF2089F4812F5A
:10245000602F0E947E0480916904816080936904EA
:1024600080916A04816080936A04FF24F39427C0FA
:1024700081E0F81689F4812F602F0E947E048091FC
:102480006C04816080936C0480916D048160809302
:102490006D04A2E0FA2E13C0109377040093500449
:1024A0006091770487E090E00E94B01E6091500434
:1024B00088E090E00E94B01E109281044FC080918D
:1024C000E10382FD04C08091E20382FF92CF10926B
:1024D000E10381E0F816B1F4812F90E0019668E104
:1024E00070E00E94151E182F602F0E947E048091BC
:1024F000690481608093690480916A04816080939B
:102500006A0419C082E0F816B1F4802F90E00196B9
:102510006CE370E00E94151E082F812F602F0E942F
:102520007E0480916C04816080936C0480916D04C2
:10253000816080936D048091E20382FF5ACF0E94F4
:10254000150278941092DF031092DE038091DE036F
:102550009091DF038B349105C8F34BCF1F910F91FE
:10256000FF90EF9008951F920F920FB60F921124D3
:102570002F933F934F935F936F937F938F939F938B
:10258000AF93BF93EF93FF9300B605FE4AC08091CF
:10259000CD03882309F04EC05B9A85B1877D85B94C
:1025A0005E988CB58F7B8CBD8091CE038823B9F06B
:1025B00060914E0484E090E00E94B01E609172042D
:1025C00085E090E00E94B01E6091900486E090E06B
:1025D0000E94B01E80ED97E061E00E949102809120
:1025E000CF038823B9F06091750381E090E00E94E9
:1025F000B01E6091730382E090E00E94B01E609173
:10260000740383E090E00E94B01E80ED97E062E0EA
:102610000E94910215BC10926604109268004598C1
:1026200004C08091CD03882329F0E091C603F09186
:10263000C7030995FF91EF91BF91AF919F918F9142
:102640007F916F915F914F913F912F910F900FBEAE
:102650000F901F9018958091D003882371F189E520
:1026600094E068E973E046E050E00E948B1E00971A
:10267000A1F087E894E061E973E044E050E00E9453
:102680008B1E009751F087E894E00E94190989E5B4
:1026900094E00E9448090E94B20A88E993E069E543
:1026A00074E046E050E00E94991E81E993E067E8FB
:1026B00074E046E050E00E94991E08950F931F9326
:1026C000DF93CF930F92CDB7DEB78091C600898399
:1026D0000AEE13E0F80101900020E9F73197E01BC2
:1026E000F10BEE2321F4843209F004C105C0E33676
:1026F00008F0F9C08D3051F08AEE93E0BE016F5FB3
:102700007F4F41E050E00E947B1EF4C0C8016FE79C
:1027100072E00E94651EC80161E872E047E050E087
:102720000E948B1E009709F0DEC00F5F1F4F1093B1
:10273000860400938504109276040AC08091760482
:102740008927809376043196F0938604E09385047C
:10275000E0918504F091860490819A3279F7818125
:1027600092818A3310F0875301C080539A3310F05E
:10277000975301C090538295807F890F8093730493
:1027800090917604981709F0AEC08AEE93E06CE25F
:1027900070E00E94701E9093860480938504A7E8E1
:1027A000B4E0FC01319686E001900D928150E1F792
:1027B00010928D04809185049091860401966CE2BC
:1027C00070E00E94701EFC01909386048093850443
:1027D0009C012F5F3F4F818180938F04813409F0EA
:1027E00082C01092D4031092D303C9016CE270E04E
:1027F0000E94701EFC019093860480938504818161
:102800009281A381B4818093600490936104A0932A
:102810006204B093630486819781909365048093EA
:102820006404CF0101966CE270E00E94701EFC010E
:102830009093860480938504818180935104CF0115
:1028400001966CE270E00E94701E90938604809363
:102850008504A2E5B4E0FC01319685E001900D927B
:102860008150E1F7E0918504F0918604878190859D
:102870009093580480935704CF0101966CE270E066
:102880000E94701EFC0190938604809385048181D0
:1028900080934F04CF0101966CE270E00E94701E9D
:1028A000909386048093850401966CE270E00E9408
:1028B000701E909386048093850401966CE270E00C
:1028C0000E94701E9093860480938504A9E5B4E06D
:1028D000FC01319686E001900D928150E1F7109253
:1028E0005F040E942B1384E6EAEEF3E0DF011D9201
:1028F0008A95E9F70F90CF91DF911F910F9108957D
:102900008AE090E00E94A81E8093660485B18660EC
:1029100085B982E38093800080916604882329F042
:102920008091800080688093800088E1809381009E
:102930008AEF90E0909387008093860080918600D4
:102940009091870096958795909389008093880051
:10295000809188009091890090938B0080938A00E9
:10296000089581E090E00E94A81E64E60E94E81DA0
:102970009093750382E090E00E94A81E6DE00E9493
:10298000E81D9093730383E090E00E94A81E8F716E
:102990008093740380E00E94380564EF71E080E06A
:1029A00090E00E94A60084E090E00E94A81E68E1EA
:1029B0000E94E81D90934E0485E090E00E94A81EBE
:1029C0006CE30E94E81D9093720486E090E00E9400
:1029D000A81E6CE30E94E81D9093900480914E0421
:1029E00060917204409190040E94AD0364EF71E025
:1029F00080E090E00E94A60088E090E00E94A81E7F
:102A00006CE30E94E81D9093500487E090E00E94E0
:102A1000A81E68E10E94E81D9093770481E08093EE
:102A2000D0038EE190E00E94A81E8093E503805CB5
:102A3000813838F01092E5038EE190E060E00E946A
:102A4000B01E80E28093B6001092B2008FE78093B0
:102A5000B30092E09093B00086E08093B100909331
:102A6000700078940895FF920F931F938AE08093EB
:102A7000E4038CE090E00E94A81E182F00E03AE0EA
:102A8000F32E8091E103882321F48091E2038823CF
:102A900019F0F092E40304C08091E4038823E9F084
:102AA0008091E10380FD45C08091E10381FF18C062
:102AB0001092E103002361F489E892E00E9410057E
:102AC00081E0612F70E041E00E94C0010FE008C08A
:102AD0008CE090E0612F0E94B01E1092810429C00A
:102AE0008091E10382FD04C08091E20382FFC9CF9F
:102AF0001092E1030F3051F41F5F143608F010E01C
:102B000081E0612F70E041E00E94C0018091E2030A
:102B100082FFB7CF0E94150278941092DF031092C3
:102B2000DE038091DE039091DF038B349105C8F3BF
:102B3000A8CF1F910F91FF900895FF920F931F93BD
:102B40008AE08093E4038EE190E00E94A81E182F93
:102B50008093E50300E04AE0F42E8091E1038823AE
:102B600021F48091E203882319F0F092E40307C076
:102B70008091E403882319F41093E5031EC080912B
:102B8000E10380FD45C08091E10381FF19C01092EF
:102B9000E103002359F482E992E00E94100586E0E7
:102BA000612F41E00E94940108E00AC01093E50300
:102BB0008EE190E0612F0E94B01E109281042AC025
:102BC0008091E10382FD04C08091E20382FFC5CFC2
:102BD0001092E103083049F41F5F10340CF010EC40
:102BE00086E0612F41E00E9494018091E20382FF20
:102BF000B4CF0E94150278941092DF031092DE0386
:102C00008091DE039091DF038B349105C8F3A5CF4B
:102C10001093E5031F910F91FF9008950F931F9359
:102C20008AE08093E4038BE090E00E94A81E8093EA
:102C3000C80310E00AE001C010E08091E10388239E
:102C400021F48091E203882319F00093E40304C087
:102C50008091E403882381F08091E10380FD28C006
:102C60008091E10381FF0BC01092E103112321F455
:102C70000E94B20611E003C01092810419C0809135
:102C8000E10382FFDACF1092E1031130A9F690E060
:102C90008091C803882309F491E09093C8030E94AF
:102CA000B2068BE090E06091C8030E94B01EC5CFD1
:102CB0001F910F910895FF920F931F938AE08093C5
:102CC000E4038AE090E00E94A81E082F10E05AE07A
:102CD000F52E01C010E08091E103882321F480915A
:102CE000E203882319F0F092E40304C08091E40326
:102CF000882381F08091E10380FD2BC08091E10366
:102D000081FF0BC01092E103112321F40E94BE0643
:102D100011E003C0109281041CC08091E10382FF86
:102D2000DACF1092E1031130A9F680E0002309F414
:102D300081E0082F8AE090E0602F0E94B01E0E9480
:102D4000801480EA9FE061E00E9491020E94BE062A
:102D5000C2CF1F910F91FF900895FF920F931F9381
:102D60008AE08093E40382E190E00E94A81E8093B1
:102D7000670483E190E00E94A81E80938E04109265
:102D8000C90310E00AE062E3F62E8091E103882394
:102D900021F48091E203882319F00093E40307C033
:102DA0008091E403882319F41092810430C080914B
:102DB000E10380FD2CC08091E10381FF2FC01092C0
:102DC000E103112351F489E992E00E9410058091FA
:102DD00067040E944C0311E021C0113051F480EAD5
:102DE00092E00E94100580918E040E944C0312E034
:102DF00015C0109281046091670482E190E00E9406
:102E0000B01E60918E0483E190E00E94B01E81E0CC
:102E10008093C9031F910F91FF9008958091E10362
:102E200082FD04C08091E20382FFAFCF1092E103E4
:102E3000113071F4809167048E5F809367048091F4
:102E40006704833310F000936704809167040FC018
:102E5000123079F480918E048B5F80938E04809180
:102E60008E048B3510F0F0928E0480918E040E94B7
:102E70004C038091E20382FF88CF0E941502789470
:102E80001092DF031092DE038091DE039091DF0346
:102E90008B349105C8F379CFCF93DF9380E090E036
:102EA0000E94A81E813009F48AC080E090E061E0B1
:102EB0000E94B01E81E090E06BE00E94B01E82E0B4
:102EC00090E061E00E94B01E83E090E061E00E942B
:102ED000B01E84E090E060E00E94B01E85E090E0CB
:102EE00060E00E94B01E86E090E060E00E94B01EAC
:102EF00087E090E06AE00E94B01E88E090E060E029
:102F00000E94B01E89E090E062E30E94B01E8AE059
:102F100090E060E00E94B01E8BE090E060E00E94D4
:102F2000B01E8CE090E06AE00E94B01E8DE090E060
:102F300068EF0E94B01E8EE090E060E00E94B01E3C
:102F40008FE090E060E00E94B01E80E190E060E0E1
:102F50000E94B01E82E190E06AE00E94B01E83E110
:102F600090E06AE50E94B01E81E190E060E00E947E
:102F7000B01EC4E1D0E0FE01EE59FC4FCE016081ED
:102F80000E94B01E2196CD31D105A9F78DE190E0C8
:102F900060E00E94B01E80E290E060E00E94B01EFF
:102FA0008EE190E060E00E94B01E8FE190E060E072
:102FB0000E94B01E88EB9BE062E00E949102DF91CC
:102FC000CF9108958CE090E00E94A81E9CE3899F19
:102FD000C00111249093DD038093DC0387EA92E023
:102FE0000E94100583E68093810478941092DF0399
:102FF0001092DE038091DE039091DF038C5D95409B
:10300000C8F31092810408951F920F920FB60F9289
:1030100011242F933F934F935F936F937F938F93DD
:103020009F93AF93BF93EF93FF9310926B007894AD
:10303000189925C08091E00381FD26C078941092F4
:10304000DF031092DE038091DE039091DF030A9785
:10305000D0F3189919C00E94150280917E0488232C
:1030600019F00E94E21710C08091E0038260809303
:10307000E0038091E10382608093E10305C08091C9
:10308000E0038D7F8093E00381E080936B00FF91EC
:10309000EF91BF91AF919F918F917F916F915F91D0
:1030A0004F913F912F910F900FBE0F901F90189549
:1030B0001F920F920FB60F9211242F933F934F93AD
:1030C0005F936F937F938F939F93AF93BF93EF9390
:1030D000FF9310926D007894A8954D9922C080912D
:1030E000E00380FD23C078941092DF031092DE038A
:1030F0008091DE039091DF030A97D0F34D9959C078
:103100000E94150280917E048823A1F58091E0033E
:1031100081608093E0038091E10381608093E1030B
:1031200005C08091E0038E7F8093E0034C993AC004
:103130008091E00382FD3DC078941092DF031092ED
:10314000DE038091DE039091DF030A97D0F34C9960
:1031500030C00E94150282E08093E30314C04C9BB0
:1031600012C08091E0038B7F8093E00380917E0406
:10317000882319F00E94E2171CC08091E10384604B
:103180008093E10316C08091E303882341F7809187
:10319000E00384608093E0038091E2038460809385
:1031A000E20307C01092E2038091E0038B7F8093DB
:1031B000E00380E380936D00FF91EF91BF91AF91A9
:1031C0009F918F917F916F915F914F913F912F913F
:1031D0000F900FBE0F901F901895FF920F931F93A3
:1031E0008AE08093E40310E07AE0F72E02E0809119
:1031F000E103882321F48091E203882319F0F092FF
:10320000E40307C08091E403882319F41092810439
:103210005DC08091E10380FD59C08091E10381FF91
:103220002DC01092E103812F90E0019666E070E0DE
:103230000E94151E182F8230A1F0833028F48823B5
:1032400051F08130D9F40AC0843099F0843070F0A4
:103250008530A1F411C080EB92E005C00E94FF060A
:103260000DC089EB92E00E94100508C00E94230166
:1032700005C082EC92E0F7CF0E9448018091E10303
:1032800082FFB5CF1092E103113009F0B0CF8091E9
:10329000D203882329F41093D20387E690E008C074
:1032A0008091D203813039F40093D20384E390E01B
:1032B0000E94891C02C01092D2030E94FF066091F6
:1032C000D20380E190E00E94B01E91CF1F910F9138
:1032D000FF900895EF92FF920F931F9310919F0319
:1032E0000091D5038AE08093E403FF24FAE0EF2EF7
:1032F0008091E10380FDAAC08091E103882321F43D
:103300008091E203882319F0E092E40304C08091E5
:10331000E403882369F18091E10381FF2CC01092BE
:10332000E103FF2089F4812F602F0E94E004809147
:10333000690481608093690480916A04816080934C
:103340006A04FF24F39417C081E0F81689F4812FF2
:10335000602F0E94E00480916C04816080936C0473
:1033600080916D04816080936D04E2E0FE2E03C0C5
:10337000109281046BC08091E10382FD04C08091B2
:10338000E20382FFB5CF1092E10381E0F81659F510
:10339000812F992787FD90950D9669E170E00E9435
:1033A000151E182F1C50812F602F0E94E004809161
:1033B000690481608093690480916A0481608093CC
:1033C0006A0410939F038DE090E0612F0E94B01E6D
:1033D0008BEC92E00E94CC1C812F992787FD909561
:1033E0000E941F1D20C082E0F816E9F4802F90E0B3
:1033F00001966CE370E00E94151E082F812F602F4C
:103400000E94E00480916C04816080936C04809140
:103410006D04816080936D040093D5038EE090E08D
:10342000602F0E94B01E8091E20382FF61CF0E9454
:10343000150278941092DF031092DE038091DE0370
:103440009091DF038B349105C8F352CF1F910F91F8
:10345000FF90EF9008951F93CF93DF9315BC569A7A
:103460005E9884B714BE90E00E94021D88E10FB6FA
:10347000F89480936000109260000FBE2FE088E106
:1034800090E00FB6F894A895809360000FBE20934B
:103490006000A8951092CE038091CE038093CF0355
:1034A000109282041092D00387E690E00E94891C5B
:1034B00088E480BF61E070E080E090E00E94A600B8
:1034C00000B605FE06C080B7806180BF0E94B114BF
:1034D000CFC00E9410015B9881E0809369008DBB92
:1034E0001092810481E58CBD82E190E00E94A81ECB
:1034F0008093670483E190E00E94A81E80938E046D
:1035000089E090E00E94A81E8093710481E190E020
:103510000E94A81E8093C9038091C903813019F4C9
:1035200080918E0402C0809171040E94D40278942C
:103530008DE090E00E94A81E80939F03845F8931F4
:1035400010F010929F038EE090E00E94A81E8093DE
:10355000D5038D3310F01092D5030E9480140E9481
:103560004C170E9496028BE090E00E94A81E809368
:10357000C8038FE090E00E94A81E8093750480919C
:1035800075048132C9F484E190E00E94A81E88236A
:1035900099F0C4E1D0E0CE010E94A81EFE01EE59D0
:1035A000FC4F80832196CD31D105A9F78DE190E0C4
:1035B0000E94A81E8093D10380E190E00E94A81E83
:1035C0008093D2038091D203813019F487E690E092
:1035D00006C08091D203823021F484E390E00E94FF
:1035E000891C80E290E00E94A81E8093CA038FE1AC
:1035F00090E00E94A81E8093D7038091D703823069
:1036000010F01092D70383E68093810484EE92E059
:103610000E94100580EC9DE061E044E650E00E94CD
:10362000460264EF71E080E090E00E94A6000E94F4
:10363000B114A89580EC9DE061E044E650E00E9462
:10364000460288E592E00E94100578941092DF030C
:103650001092DE038091DE039091DF03883C910598
:10366000C8F31092810481E0809382040E941606C0
:1036700013E6A89500B605FE03C00E94E300F9CF4B
:103680008091E10380FFC1C01092E1038091810429
:10369000833651F08091810490E0019661E170E001
:1036A0000E94151E8093810480918104883009F462
:1036B00074C08930A0F4843009F442C0853040F4ED
:1036C000823069F1833090F5813009F0BDC020C0AF
:1036D000863009F454C0873008F082C049C08C306D
:1036E00009F462C08D3038F48A3009F487C08B3019
:1036F00008F06FC036C08E3009F45DC08E3008F41B
:1037000076C08F3009F45EC0803109F09DC022C0C0
:1037100084EE92E00E9410050E941E0795C08DEE77
:1037200092E00E9410050E94EB118EC086EF92E09D
:103730000E9410050E94E41081E08093CE0384C0B3
:103740008FEF92E00E9410050E94C30F81E08093EA
:10375000CF037AC088E093E00E9410050E946A19A6
:1037600073C080EB92E00E9410050E94ED186CC0BF
:1037700081E193E00E9410050E948A0E65C08AE1F3
:1037800093E00E9410058091C903882319F00E94DC
:10379000AD165AC00E940D0F57C083E293E00E94FD
:1037A00010050E949D1550C08CE293E00E94100508
:1037B0000E940E1649C085E393E00E9410050E9406
:1037C000D90C42C08EE393E00E9410050E9433158D
:1037D0003BC087E493E00E9410050E945B1634C052
:1037E00080E593E00E9410050E940A0E2DC089E535
:1037F00093E00E9410050E94640D26C082E693E0CB
:103800000E9410050E94730F1FC08091E10381FD8B
:1038100004C08091E10382FF17C01092E10310936E
:10382000810481E00E943805A89578941092DF0306
:103830001092DE038091DE039091DF03885E934057
:10384000C8F3A895109281048091D203882309F4CB
:1038500010CF8091C00087FF0CCF0E945E1309CF6C
:103860001F920F920FB60F9211242F933F934F93F5
:103870005F936F937F938F939F93AF93BF93EF93D8
:10388000FF931DBA89E60E94961C29B1789478941A
:103890001092DF031092DE038091DE039091DF032C
:1038A0000A97D0F389B1247030E090E08470907072
:1038B0002817390711F40E94160681E08DBBFF918D
:1038C000EF91BF91AF919F918F917F916F915F9198
:1038D0004F913F912F910F900FBE0F901F90189511
:1038E00006C090E000009F5F9E31E1F78150882381
:1038F000C1F7089548EC50E009C020E137E2FA0131
:103900003197F1F721503040D1F781508823A9F742
:1039100008959093C5008093C40088E18093C1000E
:103920008EE08093C200519A50980895982F80910C
:10393000C00085FFFCCF9093C60080E090E0089522
:103940008091C00087FFFCCF8091C60008958091D0
:10395000C00080780895AC0120E007C08091C000CD
:1039600085FFFCCF3093C6002F5FFA01E20FF11DF7
:103970003491332399F7662371F08091C00085FF5D
:10398000FCCF8AE08093C6008091C00085FFFCCF09
:103990008DE08093C6000895FC0107C08091C000AF
:1039A00085FFFCCF31969093C60090819923B1F7A3
:1039B0000895282F982F92959F709A3030F4809117
:1039C000C00085FFFCCF905D05C08091C00085FFE1
:1039D000FCCF995A9093C600822F90E08F70907020
:1039E0000A973CF48091C00085FFFCCF2F70205DCA
:1039F00006C08091C00085FFFCCF2F70295A20930C
:103A0000C60008951F93182F892F0E94D91C812F5B
:103A10000E94D91C1F910895EF92FF920F931F935C
:103A20007B018C01C801AA27BB270E94021DC70188
:103A30000E94021D1F910F91FF90EF9008950F9328
:103A40001F93CF93DF938C01E0E1F7E240E0C0E009
:103A5000D0E0C801BF010E94011E262F662329F471
:103A6000442319F4E130F10549F48091C00085FF49
:103A7000FCCF205D2093C600205341E0CF016AE0D7
:103A800070E00E94011E2196C530D10571F0822F91
:103A900090E09C012E9FC0012F9F900D3E9F900DA6
:103AA0001124081B190BFB01D4CFDF91CF911F917B
:103AB0000F9108954F925F926F927F928F929F9293
:103AC000AF92BF92CF92DF92EF92FF920F931F932C
:103AD000CF93DF934B015C01E12C9AECF92E9AE92C
:103AE000092F9BE3192F4424C0E0D0E0C501B401A5
:103AF000A80197010E94281ED22E222341F44420BF
:103B000031F481E0E816F1040105110561F48091BA
:103B1000C00085FFFCCF80E3D80ED092C60080EDB8
:103B2000D80E44244394C801B7012AE030E040E0B5
:103B300050E00E94281EC22E732E642E552E219610
:103B4000CA30D105A9F06D2D70E080E090E0A801A9
:103B500097010E94C91D861A970AA80AB90A2C2D36
:103B6000372D462D552DC901DA017C018D01BECFBF
:103B7000DF91CF911F910F91FF90EF90DF90CF9049
:103B8000BF90AF909F908F907F906F905F904F907D
:103B90000895629FD001739FF001829FE00DF11D97
:103BA000649FE00DF11D929FF00D839FF00D749FB7
:103BB000F00D659FF00D9927729FB00DE11DF91F63
:103BC000639FB00DE11DF91FBD01CF0111240895C0
:103BD000991B79E004C0991F961708F0961B881F5F
:103BE0007A95C9F78095089587FB082E062687FDEC
:103BF000819567FD6195ECDF0EF4919507FC819549
:103C00000895AA1BBB1B51E107C0AA1FBB1FA61723
:103C1000B70710F0A61BB70B881F991F5A95A9F775
:103C200080959095BC01CD01089597FB092E07263C
:103C30000AD077FD04D0E5DF06D000201AF4709595
:103C400061957F4F0895F6F7909581959F4F089560
:103C5000A1E21A2EAA1BBB1BFD010DC0AA1FBB1F90
:103C6000EE1FFF1FA217B307E407F50720F0A21B02
:103C7000B30BE40BF50B661F771F881F991F1A946F
:103C800069F760957095809590959B01AC01BD0199
:103C9000CF01089597FB092E05260ED057FD04D0BD
:103CA000D7DF0AD0001C38F4509540953095219507
:103CB0003F4F4F4F5F4F0895F6F790958095709561
:103CC00061957F4F8F4F9F4F0895FB01DC010D9051
:103CD0000020E9F7119701900D920020E1F7089577
:103CE000FC018191861721F08823D9F7992708953F
:103CF0003197CF010895FB01DC010D900020E9F719
:103D000011974150504028F0019000200D92C9F7C2
:103D100008951C920895FB01DC014150504030F0A1
:103D20008D910190801919F40020B9F7881B990B27
:103D30000895FB01DC014150504048F001900D9284
:103D40000020C9F701C01D9241505040E0F708958E
:103D5000F999FECF92BD81BDF89A992780B5089553
:103D6000262FF999FECF1FBA92BD81BD20BD0FB697
:103D7000F894FA9AF99A0FBE01960895F894FFCF35
:103D800073756E646179006D6F6E6461790074752E
:103D90006573646179007765646E65736479007436
:103DA0006875727364617900667269646179007321
:103DB00061747572646179006A616E0066656200A3
:103DC0006D6172636800617072696C006D61790089
:103DD0006A756E65006A756C790061756773740049
:103DE00073657074006F63746F62006E6F76656DDB
:103DF00000646563656D0020323030302020200083
:103E0000616C61726D206F6E002066756C6C202095
:103E10002000206469616C31202000206469616C9D
:103E200032202000206469616C3320200020646906
:103E3000616C3420200020616D2D706D20200020E9
:103E4000616D2D706D2E2000206E6F6E652020201C
:103E500000206E6F6E652E2020007573612D31324B
:103E60006872006575722D3234687200766F6C204E
:103E70006869676800766F6C206C6F7720006473E8
:103E800074206175746F00647374206F6E2020005D
:103E9000647374206F666620006164696D206F6EC4
:103EA00020006164696D206F666600677073206F23
:103EB0006E343800677073206F6E39360067707328
:103EC000206F666620006F6E202038383838006F0B
:103ED0006666203838383800202020202020202016
:103EE00000206E6F20677073200072756C65302043
:103EF0003030006164632000627269746520002ABA
:103F000000244750524D432C002020206D696E75CF
:103F10007400647266742020006272746C6F2000FA
:103F200062727468692000736E6F6F7A696E6700E1
:103F3000736574206770732000677073206C617400
:103F40002000677073206C6F6E67000A0D54696DF6
:103F5000657A6F6E65206F666673657420686F752D
:103F6000723A09006963652074756265007365744F
:103F700020616C6172007365742074696D650073F3
:103F80006574206461746500736574207A6F6E6572
:103F900000736574206164696D00736574206272DA
:103FA00069740073657420647266740073657420AC
:103FB0007265676E00736574207365637300736563
:103FC0007420736E6F7A0073657420766F6C2000B6
:103FD0007365742064737420007365742072756C4B
:103FE0006500736574206C64626200313330343074
:103FF00036776D030E2F030102020B01010201014E
:1040000001010001010100000C0507170C0507174D
:10401000013030303030300030303030303000F867
:10402000081F1C1F1E1F1E1F1F1E1F1E1F00001FFC
:10403000003B005A0078009700B500D400F300114F
:064040000130014E0100F9
:00000001FF
