:100000000C9479000C948A0A0C9496000C94C40FFA
:100010000C9496000C9411100C9496000C948F166E
:100020000C9496000C9496000C9496000C949600F8
:100030000C9496000C9496000C9496000C949600E8
:100040000C9421110C9496000C9496000C9496003C
:100050000C9496000C94FF030C9496000C943A03B5
:100060000C9496000C9496006A000B10120F0D0E63
:100070001113740003070809060A050C047F000425
:1000800000020008000020000200408D00C080C275
:10009000004202020A001A10183010320022020236
:1000A0000600868084A70080808000400020001029
:1000B0000010100010000800040080BD000E620E49
:1000C000200E400C6004620862CB00FC60DAF2662D
:1000D000B6BEE0FEF6D700FA3E1A7ADE8EF62E6045
:1000E00078AE1CAA2A3ACEF30AB61E3838B86E7615
:1000F000DA0011241FBECFEFD8E0DEBFCDBF13E082
:10010000A0E0B1E0EEEAFBE302C005900D92A03D55
:10011000B107D9F714E0A0EDB3E001C01D92AD39ED
:10012000B107E1F70E94FA1A0C94D51D0C94000057
:1001300078941092D6031092D5032091D503309174
:10014000D60328173907C8F30895CF92DF92EF92AC
:10015000FF926B017C01A0EDB7E09B01AC010E9416
:10016000E51C6115710581059105C1F061157105E9
:1001700021E08207910580F02AE02C9DC0012D9D91
:10018000900D112428EC30E004C0F9013197F1F70B
:1001900001970097D1F706C0CB0102C081E090E043
:1001A0000197F1F7FF90EF90DF90CF9008950197BE
:1001B000F1F70895A895089581E08093E6035B9A8E
:1001C0008CB58F7B8CBD85B1877D85B95E9815BC5C
:1001D00010926F0410926800459885B1897F85B9A7
:1001E0008BB18F7C8BB928988AB18F7C8AB9209883
:1001F0005A985298E1E6F0E090E8908388E0808396
:10020000449A83B7876083BF88959083108244980F
:1002100008958EE284B988E48AB989E087B984E3D5
:100220008BB981E085B995E09093680080936B006D
:1002300080E380936D000895CF93DF931092720452
:1002400080915A048E3419F41092730403C082E032
:1002500080937304A9E6B4E0C4E7D4E0ED91E053E1
:10026000F0E0E553FF4FE491E99384E0AF36B8073F
:10027000A9F780917704816080937704DF91CF9113
:100280000895CF93DF9380915804853419F4109228
:10029000720403C082E080937204ABE5B4E0C3E76C
:1002A000D4E0ED91E053F0E0E553FF4FE491E993A2
:1002B00084E0A236B807A9F7809177048160809323
:1002C0007704DF91CF910895FF920F931F93CF93FF
:1002D000DF93F62EFA94642F952FC0E0D0E00AE069
:1002E00010E0282F30E02F0D311DF7FC3A952F58E4
:1002F0003B4F0EC0862FB8010E940A1DFC01E5533A
:10030000FF4FE491D901AC0FBD1FEC93972F2197BC
:100310008C2F8F0D87FFEECFDF91CF911F910F9123
:10032000FF900895282F30E0F901EF58FB4F67FF49
:1003300004C092E09083619501C01082A82FB0E0C4
:10034000862F6AE00E94FC1CE82FF0E0E553FF4F87
:100350008491AF58BB4F842B11968C931197E92F42
:10036000F0E0E553FF4FE491E42B1296EC930895EF
:10037000CF93DF93C82FD0E0CB016AE070E00E94FA
:100380001E1DFB01FF27E553FF4F6491CF58DB4F44
:10039000642B6883FC01FF27E553FF4FE491E42BB6
:1003A000E983DF91CF91089590E0FC01E553FF4F81
:1003B000E491E160E0937604FC01EF5EFE4F608122
:1003C00041E070E087E00C94B8019C0183709927AC
:1003D000892B39F4C90164E670E00E940A1D892B5B
:1003E00069F4C90160E971E00E940A1D21E030E072
:1003F000892B11F020E030E0C901089581E090E000
:1004000008958AE090E00E94BF1D80936F0485B13B
:10041000866085B982E38093800080916F04882391
:1004200029F08091800080688093800088E180932B
:1004300081008AEF90E090938700809386008091FE
:100440008600909187009695879590938900809378
:10045000880090938B0080938A000895109280000A
:1004600010928100299A2A988AE090E00E949800D0
:100470002A9A29988AE090E00E94980085B1897FA5
:1004800085B982E38093800080916F04882329F0EE
:100490008091800080688093800088E18093810053
:1004A0000895CF92DF92EF92FF92CF93C62F6A0109
:1004B0009C0140E050E060E472E48FE090E00E9434
:1004C000541D309387002093860080918600909180
:1004D00087009695879590938B0080938A009093E0
:1004E000890080938800E12CF12C16C08091810056
:1004F000826080938100C701B6010E94A5008091AF
:1005000081008D7F8093810085B1897F85B9C70186
:10051000B6010E94A500C150C111E8CF85B1897F05
:1005200085B9CF91FF90EF90DF90CF90089544E68A
:1005300050E00C9451020F931F93CF93DF9380E010
:1005400090E00E94BF1D813009F48FC061E080E01F
:1005500090E00E94C71D6BE081E090E00E94C71D03
:1005600061E082E090E00E94C71D61E083E090E0DE
:100570000E94C71D60E084E090E00E94C71D60E01B
:1005800085E090E00E94C71D60E086E090E00E9458
:10059000C71D6AE087E090E00E94C71D60E088E028
:1005A00090E00E94C71D62E389E090E00E94C71DB1
:1005B00060E08AE090E00E94C71D60E08BE090E080
:1005C0000E94C71D6AE08CE090E00E94C71D68EFA2
:1005D0008DE090E00E94C71D60E08EE090E00E94F8
:1005E000C71D60E08FE090E00E94C71D60E080E1E1
:1005F00090E00E94C71D6AE082E190E00E94C71D62
:100600006AE583E190E00E94C71D60E081E190E02F
:100610000E94C71D01E111E0C4E1D0E0F801619141
:100620008F01CE010E94C71D2196CD31D105B1F7B2
:1006300060E08DE190E00E94C71D60E080E290E004
:100640000E94C71D60E08EE190E00E94C71D60E03F
:100650008FE190E00E94C71D62E088EB9BE0DF9194
:10066000CF911F910F910C949702DF91CF911F9121
:100670000F9108951F920F920FB60F9211242F938E
:100680003F934F935F936F937F938F939F93AF931A
:10069000BF93EF93FF9300B605FE49C08091E60338
:1006A00081114EC05B9A85B1877D85B95E988CB506
:1006B0008F7B8CBD8091E5038823B9F0609157044E
:1006C00084E090E00E94C71D60917B0485E090E08B
:1006D0000E94C71D6091980486E090E00E94C71DAB
:1006E00061E080ED97E00E9497028091E403882307
:1006F000B9F060911A0181E090E00E94C71D6091FD
:100700001C0182E090E00E94C71D60911B0183E004
:1007100090E00E94C71D62E080ED97E00E94970282
:1007200015BC10926F0410926800459804C0809127
:10073000E603882329F0E091EC03F091ED0309959D
:10074000FF91EF91BF91AF919F918F917F916F91A9
:100750005F914F913F912F910F900FBE0F901F907F
:1007600018953D9A459AEAE7F0E08081866080839B
:10077000ACE7B0E08C9180648C938C9184608C9316
:10078000AEE7B0E08C9180618C938081806880833B
:1007900080818860808308958091EA03813029F404
:1007A00080917A00806480937A0008959091870404
:1007B000992329F08091980480FD0EC005C08B35E7
:1007C00018F48A3018F003C08AE501C08AE097B5B2
:1007D000981721F087BD089582E3F9CF08950E940C
:1007E000D60383E084BD81E085BD84B5806884BD87
:1007F000EEE6F0E0808181608083789408951F9216
:100800000F920FB60F9211242F933F934F935F9344
:100810006F937F938F939F93AF93BF93CF93DF9308
:10082000EF93FF938091EA038130A1F580917800E6
:1008300090917900392F20E0282B30938904209360
:100840008804223F83E0380718F0C091700405C087
:10085000C09196042536310510F4D0E014C0A09163
:10086000960480917004B0E0A81BB10924563109A8
:10087000D0E00E94DE1C2EE833E040E050E00E9411
:10088000321DC21BD30BD0938404C09383048C2FDE
:100890000E94D603FF91EF91DF91CF91BF91AF916D
:1008A0009F918F917F916F915F914F913F912F9188
:1008B0000F900FBE0F901F901895CF93C82F41E057
:1008C000682F70E087E00E94B8018C2FCF910C94C4
:1008D000D603CF93DF93C62FD0E0E82FF0E0E053AC
:1008E000F84FC330D10510F42C963197242F30E007
:1008F0002F5F3F4F2E0F3F1FCE01880F991F280FEC
:10090000391FCF019695879596958795280F391FA2
:10091000CF0160E971E00E940A1D260F371FCF0149
:1009200064E670E00E940A1D261B370B219646E004
:100930004C9FC0014D9F900D11246AE070E00E9411
:100940000A1D260F371FC90167E070E00E940A1DCB
:100950008F5FDF91CF910895E82FF0E0E553FF4FCF
:1009600084910895E82FF0E0EA58FF4F84910895AC
:100970001F93CF93DF93C82FD62F142F80918A0413
:10098000811193C08091E903873068F4853008F0C5
:1009900053C0813079F008F488C08230E9F08330A8
:1009A00009F089C034C0893008F45CC0893009F08E
:1009B00082C062C0842F66E00E94F01C292F30E0C4
:1009C000220F331FF901E254FF4FE491E0937804C2
:1009D000F901E354FF4F2CC0842F6AE00E94F01C01
:1009E000292F30E0220F331FF901E855FF4F849182
:1009F00080937804F901E955FF4F249120937904FD
:100A000040FF59C0826080937804226012C0842F16
:100A10006CE00E94F01C292F30E0220F331FF901F7
:100A2000E257FF4FE491E0937804F901E357FF4F59
:100A30002491209379043FC0CC3018F4E7EDF0E026
:100A400002C0E6EEF0E0E491E0937804E3EEF0E03B
:100A5000E491E09379048091E903863061F51170A7
:100A60001E2B20C010927804109279048091E90323
:100A7000883009F5117016C040E0612F70E087E002
:100A80000E94B8018091E0038823A9F090911001A1
:100A900080917904992321F08160809379040BC0BF
:100AA0001170182B1093790406C040E0612F70E09C
:100AB00087E00E94B8011092770440E06D2F70E04B
:100AC00084E00E94B801109274048091EB038111BC
:100AD0002AC08C2F90E00B966CE070E00E941E1DE7
:100AE0009C0101966AE070E00E941E1D85539F4F95
:100AF000FC01849180937304265F3F4F23313105BD
:100B000018F41092720405C0ECECF0E0E491E0936C
:100B1000720480917104CC3010F0816001C08E7F2E
:100B20008093710409C040E06C2F70E081E0DF9198
:100B3000CF911F910C94B801DF91CF911F9108952F
:100B40008F929F92BF92DF92EF92FF920F931F932B
:100B5000CF93DF93F0905704E0907B04D0909804FB
:100B60008AE08093D00310E00AE0CCE3D0E0F8E123
:100B70008F2E912C8091D30380FDE2C08091D3030E
:100B8000811104C08091D203882319F00093D0030F
:100B900007C08091D003811103C010928A04D0C095
:100BA0008091D30381FF65C01092D303111117C048
:100BB000F0905704E0907B04D09098044D2D6E2D5A
:100BC0008F2D0E94B804809172048160809372041A
:100BD0008091730481608093730411E04AC01130E6
:100BE00089F44D2D6E2D8F2D0E94B80480917504CF
:100BF000816080937504809176048160809376048F
:100C000012E037C0123089F44D2D6E2D8F2D0E94C9
:100C1000B80480917804816080937804809179048D
:100C200081608093790413E024C0F0925704E0922D
:100C30007B04D092980410928A046091570484E057
:100C400090E00E94C71D60917B0485E090E00E94C7
:100C5000C71D6091980486E090E0DF91CF911F91CD
:100C60000F91FF90EF90DF90BF909F908F900C942A
:100C7000C71D8091D30382FD04C08091D20382FFFF
:100C800079CF1092D3031130C9F48F2D90E00196E3
:100C9000B4010E941E1DB82EF82E4D2D6E2D0E94FF
:100CA000B80480917204816080937204809173040F
:100CB000816080937304B092570437C01230D1F42E
:100CC0008E2D90E00196BE010E941E1DB82EE82ECA
:100CD0004D2D682F8F2D0E94B8048091750481607E
:100CE0008093750480917604816080937604B0923D
:100CF0007B041BC01330C9F48D2D90E00196BE011A
:100D00000E941E1DB82ED82E482F6E2D8F2D0E94AA
:100D1000B80480917804816080937804809179048C
:100D2000816080937904B09298048091D20382FF0D
:100D300021CF0E942E028BE490E00E9498001ACFEF
:100D4000DF91CF911F910F91FF90EF90DF90BF90B7
:100D50009F908F900895CF93C82F1092790410928E
:100D600078041092770440E070E084E00E94B801BB
:100D7000109274048091EB0381113BC08091710447
:100D8000CC3048F0816080937104E6EEF0E0E491AD
:100D9000E093780408C0E7EDF0E0E491E093780494
:100DA0008E7F80937104E3EEF0E0E491E0937904A8
:100DB0008C2F90E00B966CE070E00E941E1D9C0151
:100DC00001966AE070E00E941E1D85539F4FFC0152
:100DD000849180937304265F3F4F2331310518F4CB
:100DE0001092720414C0ECECF0E0E491E093720411
:100DF0000EC08C2F90E0479668E170E00E941E1DA7
:100E0000019640E0BC0181E0CF910C94B801CF91F4
:100E10000895CF92DF92EF92FF920F931F93CF939B
:100E2000DF93F0908004E09059048AE08093D0032F
:100E3000C0E0DAE0ACE3CA2ED12C08E110E08091EA
:100E4000D30380FDA9C08091D303811104C0809198
:100E5000D203882319F0D093D0031EC08091D00311
:100E600081111AC010928A04F0928004E092590411
:100E70006091800487E090E00E94C71D6091590452
:100E800088E090E0DF91CF911F910F91FF90EF905C
:100E9000DF90CF900C94C71D8091D30381FF39C0A0
:100EA0001092D303C11110C06E2D8F2D0E94AB067E
:100EB00080917204816080937204809173048160D8
:100EC00080937304C1E025C0C13081F46E2D8F2D55
:100ED0000E94AB06809175048160809375048091B7
:100EE0007604816080937604C2E013C0F09280049F
:100EF000E09259046091800487E090E00E94C71D51
:100F00006091590488E090E00E94C71D10928A0405
:100F100043C08091D30382FD04C08091D20382FF3D
:100F20008ECF1092D303C130A9F48F2D90E001969B
:100F3000B8010E941E1DF82E6E2D0E94AB068091F6
:100F40007204816080937204809173048160809345
:100F5000730417C0C230A9F48E2D90E00196B6013B
:100F60000E941E1DE82E682F8F2D0E94AB068091D7
:100F7000750481608093750480917604816080930C
:100F800076048091D20382FF5ACF0E942E028BE416
:100F900090E00E94980053CFDF91CF911F910F9165
:100FA000FF90EF90DF90CF900895CF93C82FE9ED99
:100FB000F0E0E491E0937904EAEEF0E0E491E0936C
:100FC0007804EBEEF0E0E491E093770440E070E029
:100FD00084E00E94B801109274046C2F772767FD9B
:100FE000709577FF03C071956195710940E081E0CC
:100FF0000E94B80180917104C7FD02C08D7F01C0BD
:10100000826080937104CF910895AF92BF92CF9286
:10101000DF92FF920F931F93CF93DF93F090010124
:10102000D090DF038AE08093D003C0E0DAE01CE3D5
:10103000A12EB12C09E110E08091D30380FD9EC068
:101040008091D303811104C08091D203882319F0C9
:10105000D093D00305C08091D003811101C02AC074
:101060008091D30381FF29C01092D303C11110C016
:101070006D2D8F2D0E94D507809172048160809321
:10108000720480917304816080937304C1E015C081
:10109000C13081F46D2D8F2D0E94D507809175048C
:1010A00081608093750480917604816080937604DA
:1010B000C2E003C010928A0461C08091D30382FD14
:1010C00004C08091D20382FFB7CF1092D303C13006
:1010D00059F58F2D992787FD90950D96B8010E949F
:1010E0001E1DB4EFFB2EF80E6D2D8F2D0E94D5071F
:1010F0008091720481608093720480917304816096
:1011000080937304F09201016F2D8DE090E00E94B6
:10111000C71D8BE591E00E94111A8F2D992787FD3D
:1011200090950E944E1A1FC0C230E9F48D2D90E0B8
:101130000196B5010E941E1DC82ED82E682F8F2D36
:101140000E94D50780917504816080937504809119
:101150007604816080937604C092DF036C2D8EE06C
:1011600090E00E94C71D8091D20382FF65CF0E944C
:101170002E028BE490E00E9498005ECFDF91CF9129
:101180001F910F91FF90DF90CF90BF90AF90089587
:101190000F931F93CF93DF93109271048C01C2E7DA
:1011A000D4E0F80181918F018823C1F0982F9156E6
:1011B0009A3120F40E94B20488830BC080538A3095
:1011C00038F4E82FF0E0E553FF4FE491E88301C0E5
:1011D00018822196F4E0CA37DF0719F7DF91CF9123
:1011E0001F910F9108951092780410927904409104
:1011F0001B0160911C0180911A010E9469048430D6
:10120000B1F030F4823069F078F48130E9F406C04E
:10121000863099F078F08730B9F412C084E791E015
:1012200011C08BE791E00EC082E891E00BC08AE824
:1012300091E008C083E991E005C08CE991E002C02B
:1012400083EA91E00E94C80888EE93E00E9498002B
:1012500010927504109276041092770480911C010C
:10126000863059F168F48330F9F028F48130B1F018
:101270008230C9F516C08430D1F08530A1F51AC08E
:10128000893021F128F48730D9F0883061F51BC00E
:101290008B3011F1F0F08C3031F521C08CEA91E007
:1012A00020C080EB91E01DC084EB91E01AC08AEB76
:1012B00091E017C080EC91E014C084EC91E011C083
:1012C00089EC91E00EC08EEC91E00BC084ED91E0D2
:1012D00008C089ED91E005C08FED91E002C085EE78
:1012E00091E00E94C80860911B0140E070E087E037
:1012F0000E94B80188EE93E00E9498008BEE91E086
:101300000E94C80860911A0140E070E084E00C94EB
:10131000B80181112AC01092710482E08093740494
:10132000809377048091EB0381110AC060911C01C6
:1013300040E070E081E00E94B80160911B0109C0AB
:1013400060911B0140E070E081E00E94B801609173
:101350001C0140E070E084E00E94B80160911A0135
:1013600040E070E087E00C94B801813011F40C94F7
:10137000F3080895CF93DF9381E090E00E94BF1DB2
:1013800064E60E94F01C90931A0182E090E00E94B3
:10139000BF1D6DE00E94F01C90931C0183E090E063
:1013A0000E94BF1D8F7180931B0180E00E948909FC
:1013B00064EF71E080E090E00E94A50084E090E09E
:1013C0000E94BF1DD8E16D2F0E94F01C909357041E
:1013D00085E090E00E94BF1DCCE36C2F0E94F01CC2
:1013E00090937B0486E090E00E94BF1D6C2F0E94CA
:1013F000F01C909398044091980460917B04809134
:1014000057040E94B80464EF71E080E090E00E940D
:10141000A50088E090E00E94BF1D6C2F0E94F01C88
:101420009093590487E090E00E94BF1D6D2F0E94A9
:10143000F01C9093800481E08093E3038EE190E0C0
:101440000E94BF1D982F905C913818F48093EE0392
:1014500007C01092EE0360E08EE190E00E94C71D8D
:1014600080E28093B6001092B2008FE78093B300C1
:1014700082E08093B00096E09093B100809370007A
:101480007894DF91CF9108954A9B2BC080917D0481
:1014900081113FC081E080937D041092D8031092A7
:1014A000D7038091E5038823A1F180918A048111FB
:1014B00030C084EF91E00E94C80883E680938A04DC
:1014C0008CED95E00E949800609159048091800411
:1014D0000E94AB068CED95E00E94980010928A0461
:1014E000089580917D048823A1F010927D041092CC
:1014F000D8031092D70380918704882351F010926B
:101500008704809181008D7F8093810085B1866002
:1015100085B908951F920F920FB60F9211242F9341
:101520003F934F935F936F937F938F939F93AF936B
:10153000BF93CF93EF93FF931DBA89E60E94D21910
:10154000C9B178948AE090E00E94980089B1C47093
:101550002C2F30E0847090E02817390709F002C082
:101560000E94440A81E08DBBFF91EF91CF91BF9122
:10157000AF919F918F917F916F915F914F913F912B
:101580002F910F900FBE0F901F9018951F93CF9320
:10159000DF938AE08093D0038CE090E00E94BF1D2F
:1015A000C82FD0E01AE08091D303811104C080914C
:1015B000D203882319F01093D00305C08091D00383
:1015C000811101C01DC08091D30380FD3DC0809179
:1015D000D30381FF18C01092D303D1110CC08DEF3B
:1015E00091E00E94C80841E06C2F70E081E00E9409
:1015F000B801DFE008C06C2F8CE090E00E94C71DAE
:1016000010928A0421C08091D30382FD04C080918E
:10161000D20382FFC8CF1092D303DF3051F4CF5FE3
:10162000C43608F0C0E041E06C2F70E081E00E9419
:10163000B8018091D20382FFB6CF0E942E028BE4C4
:1016400090E00E949800AFCFDF91CF911F91089555
:101650008091E903843019F148F48130B9F098F0B1
:101660008230B9F0833009F041C016C0873039F1BB
:1016700028F48530B9F08630C9F517C0883019F1E3
:101680008930A1F52AC086E092E01BC08FE092E08D
:1016900018C088E192E015C081E292E012C08AE2AF
:1016A00092E00FC083E392E00CC08CE392E00E94D2
:1016B000C80880917804816080937804089585E457
:1016C00092E00C94C8088EE492E00E94C8088091D1
:1016D0007704816080937704089587E592E00E9403
:1016E000C808809179048160809379040895CF932C
:1016F000DF938AE08093D003C0E0DAE08091D303E7
:10170000811104C08091D203882319F0D093D003B3
:1017100005C08091D003811101C016C08091D30310
:1017200080FD39C08091D30381FF11C01092D30393
:10173000C11104C00E94280BCEE009C06091E903EA
:1017400080E290E00E94C71D10928A0424C080911C
:10175000D30382FD04C08091D20382FFCFCF1092C9
:10176000D303CE3069F48091E9038F5F8093E9035E
:101770008091E9038A3010F01092E9030E94280B4F
:101780008091D20382FFBACF0E942E0284E690E0BD
:101790000E949800B3CFDF91CF9108951F93CF930C
:1017A000DF938AE08093D0038EE190E00E94BF1D1A
:1017B0008093EE03C0E0DAE010EC8091D303811156
:1017C00004C08091D203882319F0D093D00305C0C0
:1017D0008091D003811101C01EC08091D30380FD90
:1017E00044C08091D30381FF19C01092D303C1116B
:1017F0000CC080E692E00E94C80841E06091EE03D0
:1018000086E00E949201C8E009C06091EE038EE17B
:1018100090E00E94C71D10928A0427C08091D303D4
:1018200082FD04C08091D20382FFC7CF1092D30300
:10183000C83081F48091EE038F5F80341CF4809374
:10184000EE0302C01093EE0341E06091EE0386E0E8
:101850000E9492018091D20382FFAFCF0E942E029C
:101860008BE490E00E949800A8CFDF91CF911F9168
:1018700008958091EB03811103C087E692E002C0D6
:1018800080E792E00C94C808CF93DF938AE08093BE
:10189000D0038BE090E00E94BF1D8093EB03C0E07B
:1018A000DAE001C0C0E08091D303811104C08091CF
:1018B000D203882319F0D093D00305C08091D003C0
:1018C000811101C010C08091D30380FD27C0809199
:1018D000D30381FF0BC01092D303C11104C00E9437
:1018E000390CC1E003C010928A0418C08091D30360
:1018F00082FFD9CF1092D303C130A1F681E090913D
:10190000EB03911180E08093EB030E94390C60910E
:10191000EB038BE090E00E94C71DC5CFDF91CF9114
:10192000089580916F04882351F089E792E00E9426
:10193000C8088091790481608093790404C082E8AA
:1019400092E00E94C80880917604816080937604BA
:10195000809177048160809377048091780481601E
:101960008093780408951F93CF93DF938AE0809348
:10197000D0038AE090E00E94BF1DD82FC0E01AE09B
:1019800001C0C0E08091D303811104C08091D203D3
:10199000882319F01093D00305C08091D0038111E2
:1019A00001C010C08091D30380FD2AC08091D30371
:1019B00081FF0BC01092D303C11104C00E94910C8F
:1019C000C1E003C010928A041BC08091D30382FF40
:1019D000D9CF1092D303C130A1F681E0D11180E0BC
:1019E000D82F682F8AE090E00E94C71D0E94010254
:1019F00061E080EA9FE00E9497020E94910CC2CFB2
:101A0000DF91CF911F91089580917E04813219F466
:101A10008BE892E009C080917E04813019F484E95A
:101A200092E002C08DE992E00C94C8081F93CF9316
:101A3000DF938AE08093D00382E190E00E94BF1D93
:101A40008093700483E190E00E94BF1D8093960410
:101A50001092EA03C0E0DAE012E38091D30381112F
:101A600004C08091D203882319F0D093D00307C01B
:101A70008091D003811103C010928A0430C08091FC
:101A8000D30380FD2CC08091D30381FF2CC0109222
:101A9000D303C1110AC086EA92E00E94C80880916F
:101AA00070040E945D04C1E01EC0C13051F48DEA93
:101AB00092E00E94C808809196040E945D04C2E0F2
:101AC00012C010928A046091700482E190E00E943A
:101AD000C71D6091960483E190E00E94C71D81E0DC
:101AE0008093EA0336C08091D30382FD04C08091C5
:101AF000D20382FFB2CF1092D303C13071F4809130
:101B000070048E5F8093700480917004833310F0B2
:101B1000D0937004809170040FC0C23079F480912A
:101B200096048B5F80939604809196048B3510F019
:101B300010939604809196040E945D048091D203D4
:101B400082FF8BCF0E942E028BE490E00E949800CF
:101B500084CFDF91CF911F9108958091EA03813066
:101B600019F484EB92E002C08DEB92E00C94C8086B
:101B7000CF93DF938AE08093D003C0E0DAE08091D6
:101B8000D303811104C08091D203882319F0D0932C
:101B9000D00305C08091D003811101C043C0809162
:101BA000D30380FD5EC08091D30381FF3EC01092BD
:101BB000D303C11104C00E94AD0DC5E036C0C530CD
:101BC000B1F486EC92E00E94C808409188045091DC
:101BD000890464E081E00E94640140918304509193
:101BE000840463E086E00E946401C3E01EC0C33049
:101BF00099F40E94CC03409188045091890464E0D8
:101C000081E00E946401409183045091840463E068
:101C100086E00E94640109C06091EA0381E190E0DE
:101C20000E94C71D10928A041CC08091D30382FFBA
:101C3000A6CF1092D303C53009F0A1CF8091EA035B
:101C4000813019F41092EA0303C081E08093EA0323
:101C50000E94AD0D6091EA0381E190E00E94C71DF2
:101C60008ECFDF91CF910895CF93DF938AE0809359
:101C7000D003C0E0DAE08091D303811104C08091E9
:101C8000D203882319F0D093D00305C08091D003EC
:101C9000811101C016C08091D30380FD42C08091A4
:101CA000D30381FF18C01092D303C1110AC08BEC7B
:101CB00092E00E94C80880917A040E945D04C1E00D
:101CC0000AC010928A0460917A0489E090E0DF9162
:101CD000CF910C94C71D8091D30382FD04C08091E5
:101CE000D20382FFC8CF1092D303C13079F4809120
:101CF0007A048B5F80937A0480917A048B3510F09C
:101D0000D0937A0480917A040E945D048091D2037A
:101D100082FFB1CF0E942E028BE490E00E949800D7
:101D2000AACFDF91CF9108958091E003813019F41B
:101D300082ED92E009C08091E003823019F48BEDCE
:101D400092E002C084EE92E00C94C808FF920F93D8
:101D50001F93CF93DF938AE08093D00310E00AE0D3
:101D6000C6E0D0E082E0F82E8091D303811104C058
:101D70008091D203882319F00093D00307C080918B
:101D8000D003811103C010928A045BC08091D303F9
:101D900080FD57C08091D30381FF2BC01092D303E5
:101DA000812F90E00196BE010E941E1D182F8330E6
:101DB0009105B9F034F48130910559F0029731F46E
:101DC0000BC08430910581F0059789F08DEE92E08B
:101DD00005C00E94940E0DC086EF92E00E94C808D4
:101DE00008C00E941C0105C08FEF92E0F7CF0E944F
:101DF00041018091D30382FFB7CF1092D3031130FA
:101E000009F0B2CF8091E003811105C01093E00387
:101E100087E690E008C08091E003813039F4F092C9
:101E2000E00384E390E00E94C51902C01092E00331
:101E30000E94940E6091E00380E190E00E94C71D33
:101E400093CFDF91CF911F910F91FF9008958091D3
:101E5000DD03882319F088E093E002C081E193E07C
:101E60000C94C8081F93CF93DF938AE08093D0032C
:101E7000C0E0DAE011E08091D303811104C08091C9
:101E8000D203882319F0D093D00305C08091D003EA
:101E9000811101C016C08091D30380FD2FC08091B5
:101EA000D30381FF11C01092D303C11104C00E945B
:101EB000270FCAE009C06091DD038FE190E00E9426
:101EC000C71D10928A041AC08091D30382FFD3CF1A
:101ED0001092D303CA3079F68091DD03882319F07C
:101EE0001092DD0302C01093DD030E94270F609162
:101EF000DD038FE190E00E94C71DBDCFDF91CF9140
:101F00001F910895CF938AE08093D003CAE0809117
:101F1000D30380FD1DC08091D303811104C0809143
:101F2000D203882319F0C093D00307C08091D00357
:101F3000811103C010928A040BC08091D30381FFEA
:101F4000E6CF1092D3038DE191E00E94C808DFCF65
:101F5000CF9108958CE090E00E94BF1D2CE3829FFA
:101F6000C00111249093D8038093D7038AE193E0B2
:101F70000E94C80883E680938A048CED95E00E9455
:101F8000980010928A0408951F920F920FB60F9234
:101F900011242F933F934F935F936F937F938F936E
:101FA0009F93AF93BF93EF93FF9310926B0078943E
:101FB00018991EC08091D40381FD1FC08AE090E073
:101FC0000E949800189919C00E942E0280918704DF
:101FD000882319F00E94AA0F10C08091D403826058
:101FE0008093D4038091D30382608093D30305C090
:101FF0008091D4038D7F8093D40381E080936B0024
:10200000FF91EF91BF91AF919F918F917F916F91D0
:102010005F914F913F912F910F900FBE0F901F90A6
:1020200018951F920F920FB60F9211242F933F9382
:102030004F935F936F937F938F939F93AF93BF93D0
:10204000EF93FF9310926D007894A8954D991BC063
:102050008091D40380FD1CC08AE090E00E9498002B
:102060004D9952C00E942E028091870481112DC08B
:102070008091D40381608093D4038091D3038160E5
:102080008093D30305C08091D4038E7F8093D403C3
:102090004C9933C08091D40382FD36C08AE090E031
:1020A0000E9498004C9930C00E942E0282E08093DA
:1020B000D10314C04C9B12C08091D4038B7F8093BA
:1020C000D40380918704882319F00E94AA0F1CC0B2
:1020D0008091D30384608093D30316C08091D10391
:1020E0008111E8CF8091D40384608093D4038091E0
:1020F000D20384608093D20307C01092D2038091F0
:10210000D4038B7F8093D40380E380936D00FF9191
:10211000EF91BF91AF919F918F917F916F915F915F
:102120004F913F912F910F900FBE0F901F901895D8
:1021300081E58CBD08958EBD0DB407FEFDCF0895D9
:10214000CF93DF9300D0CDB7DEB7F8946A8379835D
:102150000E949B107981872F0E949B106A81862F95
:102160000E949B10409A409878940F900F90DF91B6
:10217000CF9108958F929F92AF92BF92CF92DF92AC
:10218000EF92FF920F931F9390910001981708F41C
:10219000892FE82FF0E0DF01AF58BB4FAC91EC582E
:1021A000FF4FE49161E070E002C0660F771FEA958F
:1021B000E2F7882777FD8095982F0091EF03109123
:1021C000F0032091F1033091F20340E050E0B0E0E1
:1021D000C12CD12C7601C394FD01042E02C0F595CB
:1021E000E7950A94E2F7E0FF13C0FA01E659FF4FC2
:1021F00004914601570104C0880C991CAA1CBB1C01
:102200000A95D2F795018401682979298A299B29A1
:102210004F5F5F4F48305105F9F60093EF0310937D
:10222000F0032093F1033093F2031F910F91FF907D
:10223000EF90DF90CF90BF90AF909F908F900C94D5
:10224000A0101F920F920FB60F9211242F933F935D
:102250004F935F936F937F938F939F93AF93BF93AE
:10226000EF93FF937894A8958091DB039091DC0322
:1022700001969093DC038093DB03829708F40DC1F1
:102280001092DC031092DB038091D5039091D6036A
:1022900001969093D6038093D5038091DE030E942C
:1022A000BA102091DE032F5F2093DE038091DD03BF
:1022B00030E04091000190E0840F911D8217930758
:1022C00014F41092DE038091E903843041F580918B
:1022D0008A04811124C08091E8038F5F8093E80312
:1022E0008739E8F01092E8038091D5039091D603E6
:1022F00067EA70E00E940A1DCB0166E070E00E9470
:102300000A1D880F991FFC01E058FF4FE491E093EC
:102310007804FC01E158FF4F849180937904809107
:102320008704882309F4B9C08091D7039091D8031A
:10233000892B09F0B2C08091D9039091DA030196FC
:102340009093DA038093D9038B35910508F4A5C0E7
:102350001092DA031092D90380918B0490918C042F
:10236000019690938C0480938B0480918B049091C0
:102370008C048135964470F0109287041092D80333
:102380001092D703809181008D7F8093810085B169
:10239000866085B98091850490918604019690931A
:1023A0008604809385042091850430918604809171
:1023B000990490919A048217930730F5109286043D
:1023C0001092850410929C0410929B0480919904B1
:1023D00090919A04459748F08091990490919A04BD
:1023E000449790939A0480939904809181049091EA
:1023F0008204449748F4809181049091820402966B
:10240000909382048093810480919B0490919C041A
:10241000019690939C0480939B0420919B0430919F
:102420009C04809181049091820482179307A8F103
:1024300080919B0490919C044CE0489F9001499F9F
:10244000300D112424553E4F40E050E060E472E42A
:102450008FE090E00E94541D309387002093860007
:1024600080918600909187009695879590938B0038
:1024700080938A00909389008093880080919B04C8
:1024800090919C0480FF04C080918100826003C011
:10249000809181008D7F80938100FF91EF91BF91AA
:1024A000AF919F918F917F916F915F914F913F91EC
:1024B0002F910F900FBE0F901F9018958091C00024
:1024C00080780895FC019381905182812AE0829F57
:1024D000900D11242581205184813AE0839F200DA5
:1024E0001124309101018091E203830F80514181D9
:1024F000840F40815AE0459F800D1124809357043A
:102500008091DF0337FF02C0981B01C0980F9093A2
:102510007B042093980481E08093E5030895FC01F7
:102520002181205180813AE0839F200D11249381E5
:10253000905182814AE0849F900D112485818051C1
:1025400034814AE0349F800D112420931B01909325
:102550001C0180931A0181E08093E403089581E0D7
:10256000809387041092D8031092D70388EC90E0F0
:1025700090939A0480939904109286041092850493
:1025800082E090E0909382048093810410928C0406
:1025900010928B041092DA031092D903089590914F
:1025A0007D04992361F090918004981308C0809174
:1025B0005904861304C0411102C00C94AF1208954F
:1025C000EF920F93382FE62FF0E0EE0FFF1FEB5C3A
:1025D000FE4F0190F081E02DE40FF11D837031F486
:1025E000832F64E60E94F01C911108C0832F90E0B5
:1025F00060E971E00E941E1D892B09F4319660E8A4
:1026000071E5E69FA001E79F500DF69F500D112444
:102610008E2D90E03CE3039F800D911D1124E0E19D
:10262000FEE02E9FB0012F9F700D1124860F971F83
:10263000840F951FBC0180E090E00F91EF9008950A
:10264000CF92DF92EF92FF920F931F93CF93DF937E
:102650001F92CDB7DEB7182F062FF42EE82FF0E02B
:10266000E25BFE4FC080D12C80911A01837029F467
:10267000123019F48FEFC81AD80A80911A0141E07C
:10268000612F29830E946904982F802F891B29813B
:10269000091708F4895FFA94482F97E0F99E400DD6
:1026A00011244F5F01C04750E42FFF27E7FDF0954D
:1026B000CE16DF06C0F380911A01E12C00E0612FF5
:1026C0000E94E0120F90DF91CF911F910F91FF9028
:1026D000EF90DF90CF900895CF93DF93C82F809134
:1026E000E2034091E203552747FD50952C2F30E03F
:1026F0004217530771F19091E103913051F5DC2FAE
:10270000D81B61E01D1644F488EB91E00E9497020B
:1027100061E080E793E007C080E793E00E949702C2
:1027200061E088EB91E00E949702C093E203809100
:1027300057048D0F809357046C2F8DE190E00E9419
:10274000C71D6091570484E090E00E94C71D10925D
:10275000E103DF91CF9108954F925F926F927F9244
:102760008F929F92AF92BF92EF920F93CF93FC0103
:10277000B480A58096808780C08523814281618155
:1027800080810E9420132B013C01282D492D6A2DA8
:102790008B2D0E9420134B015C01E0909804009166
:1027A0007B042091570440911B0160911C01809192
:1027B0001A010E94E012481459046A047B0444F48C
:1027C00064157505860597050CF007C080E00BC001
:1027D00064157505860597052CF4681579058A0535
:1027E0009B05A4F78C2FCF910F91EF90BF90AF90E6
:1027F0009F908F907F906F905F904F900C946C1390
:10280000809198048C3354F0809198048C53809379
:10281000980480917B048F5F80937B04809198045F
:1028200087FF0AC080919804845C8093980480910B
:102830007B04815080937B0480917B048C3354F023
:1028400080917B048C5380937B04809157048F5F2D
:102850008093570480917B0487FF0AC080917B049A
:10286000845C80937B04809157048150809357044B
:1028700080919804811114C080917B04811110C053
:102880008091E00381110CC06091570484E090E0D6
:102890000E94C71D60917B0485E090E00E94C71DE7
:1028A00080915704883184F0809157048851809337
:1028B000570480911B018F5F80931B0160911B0166
:1028C00083E090E00E94C71D8091570487FF10C0ED
:1028D00080915704885E8093570480911B0181503A
:1028E00080931B0160911B0183E090E00E94C71D53
:1028F00080911B01803268F580911B018F3181F43A
:1029000080911C01843029F180911C01863009F1ED
:1029100080911C018930E9F080911C018B30C9F055
:1029200080911B018E3121F480911C01823089F04D
:1029300080911B018D31D9F480911C018230B9F452
:1029400080911A0190E08053984F0E94E501811117
:102950000EC081E080931B0180911C018F5F8093EA
:102960001C0160911C0182E090E00E94C71D8091D3
:102970001B01811144C080911C018630B9F058F4CC
:102980008330E1F018F4813088F110C0843071F0A8
:10299000853061F50FC08A3018F4883038F40AC0E9
:1029A0008B3021F038F08C3009F504C080911B0188
:1029B000815E14C080911B01825E10C080911A015B
:1029C00090E08053984F0E94E501882321F0809188
:1029D0001B01835E03C080911B01845E80931B01F9
:1029E00080911C01815080931C0103C081E0809381
:1029F0001B0160911C0182E090E00E94C71D809144
:102A00001C018D3070F080911A018F5F80931A0144
:102A100081E080931C0160911A0181E090E00E94A6
:102A2000C71D80911C01811116C080911C01845F1B
:102A300080931C0180911A01815080931A0160914A
:102A40001A0181E090E00E94C71D60911C0182E0A4
:102A500090E00E94C71D8091980481111DC0809153
:102A60007E04813229F481E191E00E94AC1309C017
:102A700080917E04813019F48093E20302C01092A9
:102A8000E20380917B04811107C08091570481117A
:102A900003C081E08093E10308958091E3038823DC
:102AA00089F146E050E062E071E082E694E00E9445
:102AB000A21D0097B9F444E050E069E071E08FE8AE
:102AC00094E00E94A21D009769F485E080931001B4
:102AD0008FE894E00E94621282E694E00E948F12D6
:102AE0000E94001446E050E062E674E082E091E06B
:102AF0000E94B01D46E050E06FE874E089E091E08C
:102B00000C94B01D08950F931F93CF93DF931F92E2
:102B1000CDB7DEB78091C6008983E3EFF3E0019083
:102B20000020E9F73197E35FF340E11104C08432FC
:102B300009F0EFC005C0E33608F0E4C08D3051F075
:102B400041E050E0BE016F5F7F4F83EF93E00E9452
:102B5000921DDFC063E273E083EF93E00E947C1D6F
:102B600047E050E065E273E083EF93E00E94A21D2E
:102B7000009709F0C7C084EF93E090938E04809390
:102B80008D0410927F040AC080917F04892780936E
:102B90007F043196F0938E04E0938D04E0918D04D0
:102BA000F0918E0490819A3279F7918182819A33E3
:102BB00010F0975301C090538A3310F0875301C02F
:102BC000805320E1929F800D112480937C0490918A
:102BD0007F04981397C06CE270E083EF93E00E944B
:102BE000871D90938E0480938D04019626E0FC014E
:102BF000AFE8B4E001900D922A95E1F710929504A8
:102C00006CE270E00E94871D90938E0480938D0487
:102C1000DC0111962C9120939704213409F072C0A5
:102C20006CE270E001960E94871D90938E04809361
:102C30008D04FC0141815281638174814093690458
:102C400050936A0460936B0470936C0426813781FF
:102C500030936E0420936D046CE270E001960E9444
:102C6000871D90938E0480938D04DC0111962C9126
:102C700020935A046CE270E001960E94871D9093A5
:102C80008E0480938D049C012F5F3F4F45E0F90136
:102C9000ABE5B4E001900D924A95E1F7FC01878124
:102CA000908590936104809360046CE270E0C901A8
:102CB0000E94871D90938E0480938D04DC011196F1
:102CC0008C918093580403E010E080918D049091E2
:102CD0008E046CE270E001960E94871D90938E0432
:102CE00080938D040150110981F7FC01319686E033
:102CF000A2E6B4E001900D928A95E1F71092680483
:102D00000E944D1584E6E3EFF3E0DF011D928A9502
:102D1000E9F70F90DF91CF911F910F9108951F92C6
:102D20000F920FB60F9211242F933F934F935F93FF
:102D30006F937F938F939F93AF93BF93EF93FF9383
:102D400080E88093610010926100809198048F5F09
:102D5000809398040E94001480917B04882329F0BA
:102D60008091E6038823C9F090C080919804811176
:102D700004C08091EE03815805C080919804813091
:102D800019F48FE78093B30080919804823044F760
:102D90008091B60083FDFCCFE3CF809110018823A2
:102DA00019F081508093100180918A04811133C001
:102DB0008091E503811107C08091980480FF03C0D2
:102DC0008DE293E012C08091E003882389F0809126
:102DD000100181110DC08091E903893049F0809183
:102DE000980480FF05C086E393E00E94C80808C0ED
:102DF0004091980460917B04809157040E94B8042C
:102E000090917D0480917104992311F0826001C03A
:102E10008D7F809371048091E503882341F0409178
:102E2000980460917B04809157040E94CF120E9405
:102E3000CC038091D003882329F08091D003815066
:102E40008093D0038091D103882329F08091D1030E
:102E500081508093D1038091D7039091D80300973C
:102E6000A1F001979093D8038093D7032091710428
:102E700080FF04C022602093710407C02D7F20933F
:102E80007104892B11F40E94AF12FF91EF91BF9151
:102E9000AF919F918F917F916F915F914F913F91F2
:102EA0002F910F900FBE0F901F901895EF92FF92E9
:102EB0000F931F93CF93DF938C01C4E1D0E0F12CEB
:102EC000EE24E394F80181918F01882341F0F3947B
:102ED000FE01E350FF4F6081CE010E94C71DFF201D
:102EE00031F0E092E10381E191E00E94AC13219680
:102EF000CD31D10539F7DF91CF911F910F91FF901F
:102F0000EF900895CF92DF92EF92FF920F931F936D
:102F1000CF93DF93CDB7DEB729970FB6F894DEBF16
:102F20000FBECDBF8AE08093D003FE01319689E0C9
:102F3000DF011D928A95E9F7F12CE12C9AE0D92E58
:102F40008F01CC24C3948091D303811104C080915C
:102F5000D203882319F0D092D0030BC08091D00304
:102F6000811107C0CE0101960E94561710928A0463
:102F70005BC08091D30380FD20C08091D30381FF8B
:102F800021C01092D303E1100AC08FE393E00E94A6
:102F9000C8088F2D0E94D4018DE0E82E13C0BDE03B
:102FA000EB1209C0F39488E08F1508F4F12C8F2DF3
:102FB0000E94D40107C010928A04CE0101960E949B
:102FC000561732C08091D30382FD04C08091D20392
:102FD00082FFB9CF1092D303ADE0EA121AC02F2DB1
:102FE00030E0F901EF5EFE4F80818F5F8083D90171
:102FF000AB5DBE4F9C91981728F4D901A25DBE4FDE
:103000008C918083F801E20FF31FC0828F2D0E9404
:10301000D4018091D20382FF96CF0E942E028BE4CE
:1030200090E00E9498008FCF29960FB6F894DEBFEB
:103030000FBECDBFDF91CF911F910F91FF90EF9009
:10304000DF90CF9008950F931F93CF93DF938AE083
:103050008093D003C0E01AE0D1E001E28091D30375
:10306000811104C08091D203882319F01093D003FA
:1030700005C08091D003811101C010C08091D3039D
:1030800080FD56C08091D30381FF0BC01092D30303
:10309000C11104C00E94040DC7E003C010928A044D
:1030A00047C08091D30382FFD9CF1092D303C7309A
:1030B000A9F680917E04813049F400937E048093C8
:1030C000E10381E191E00E94AC1329C080917E046C
:1030D000813261F410927E048091E2031816FCF4B0
:1030E0001092E2038091570481500BC0D0937E046C
:1030F0008091E203811113C0D093E20380915704C1
:103100008F5F809357046091E2038DE190E00E940D
:10311000C71D6091570484E090E00E94C71D0E9483
:10312000040D60917E048FE090E00E94C71D96CF51
:10313000DF91CF911F910F9108950F931F93CF931C
:10314000DF938AE08093D003C0E0DAE011E004E688
:103150008091D303811104C08091D203882319F098
:10316000D093D00307C08091D003811103C0109287
:103170008A04EFC08091D30380FDEBC08091D3031C
:1031800081FF78C01092D303C11115C08091EB0369
:10319000811102C0C1E001C0C2E080E00E94890943
:1031A00080917204816080937204809173048160C5
:1031B000809373045FC0C13029F48091EB038823AE
:1031C00039F01EC0C23069F58091EB038130A9F45B
:1031D0008091EB03811102C0C2E001C0C1E080E038
:1031E0000E948909809175048160809375048091A3
:1031F00076048160809376043DC0882319F011C065
:10320000813079F480E00E9489098091780481609E
:103210008093780480917904816080937904C3E07D
:1032200029C083E680938A0480E00E9489098CED9E
:1032300095E00E94980010928A0481E08093E10357
:1032400081E191E00E94AC1360911A0181E090E06D
:103250000E94C71D60911C0182E090E00E94C71D82
:1032600060911B0183E090E0DF91CF911F910F915E
:103270000C94C71D8091D30382FD04C08091D203BA
:1032800082FF66CF1092D303C13099F480911C0164
:103290008F5F80931C0180911C018D3010F0C093D2
:1032A0001C0180E00E9489098091EB03811120C0FC
:1032B00014C0C23041F580911B018F5F80931B01C8
:1032C00080911B01803210F010931B0180E00E945E
:1032D00089098091EB03813059F4809172048160F7
:1032E000809372048091730481608093730426C07C
:1032F000809175048160809375048091760481606B
:10330000809376041BC0C330C9F480911A018F5F8B
:1033100080931A0180911A01602F0E94F01C9093F3
:103320001A0180E00E94890980917804816080936D
:103330007804809179048160809379048091D2032C
:1033400082FF06CF0E942E028CE390E00E9498003C
:10335000FFCEDF91CF911F910F91089505C081504D
:103360009EE100009150E9F78111F9CF08950AC05C
:103370002FEF39E698E1215030409040E1F700C04E
:10338000000081508111F4CF08959093C50080937F
:10339000C40088E18093C1008EE08093C200519AFE
:1033A000509808959091C00095FFFCCF8093C6007F
:1033B00080E090E008958091C00087FFFCCF80916D
:1033C000C60008958091C00080780895EF92FF9222
:1033D0001F93CF93DF931F92CDB7DEB77C0110E030
:1033E00005C069830E94D2191F5F6981F701E10F4F
:1033F000F11D84918111F5CF662361F08AE00E946E
:10340000D2198DE00F90DF91CF911F91FF90EF9037
:103410000C94D2190F90DF91CF911F91FF90EF90F4
:103420000895CF93DF93EC0102C00E94D2198991D5
:103430008111FBCFDF91CF910895CF93C82F829553
:103440008F708A3010F4805D01C0895A0E94D219B1
:103450008C2F8F70282F30E02A30310514F4805DD6
:1034600001C0895ACF910C94D219CF93C82F892FBC
:103470000E941D1A8C2FCF910C941D1ACF92DF92AF
:10348000EF92FF926B017C01C7010E94351AC601C1
:10349000FF90EF90DF90CF900C94351AAF92BF92CF
:1034A000CF92DF92EF92FF920F931F93CF93DF9310
:1034B0001F92CDB7DEB77C0105E010E020E080E18F
:1034C000A82E87E2B82E9AE0C92ED12CC701B501EB
:1034D0000E940A1D862F611106C0211104C091E0CF
:1034E000A916B10431F4805D69830E94D21921E0EC
:1034F00069816A9DC0016B9D900D1124E81AF90A3B
:10350000C501B6010E940A1D5B0101501109F1F6C7
:103510000F90DF91CF911F910F91FF90EF90DF906F
:10352000CF90BF90AF9008952F923F924F925F92AD
:103530006F927F928F929F92AF92BF92CF92DF92C3
:10354000EF92FF921F93CF93DF931F92CDB7DEB719
:103550004B015C012AE0222E312C10E0C12C3AEC08
:10356000D32E3AE9E32E3BE3F32E4AE0442E512CCE
:10357000612C712CC501B401A70196010E94321D76
:10358000822F211108C0111106C091E0C916D10483
:10359000E104F10431F4805D29830E94D21911E025
:1035A0002981A22FB0E0A70196010E94E51C861A8E
:1035B000970AA80AB90AC701B601A30192010E949D
:1035C000321D69017A01E1E02E1A310899F60F9057
:1035D000DF91CF911F91FF90EF90DF90CF90BF9040
:1035E000AF909F908F907F906F905F904F903F90A3
:1035F0002F90089515BC569A5E9884B714BE90E03B
:103600000E94351A88E10FB6F894809360001092FA
:1036100060000FBE2FE088E190E00FB6F894A89507
:10362000809360000FBE20936000A8951092E50380
:103630001092E4031092E1031092E30387E690E016
:103640000E94C51988E480BF61E070E080E090E0EE
:103650000E94A50000B605FE06C080B7806180BF4D
:103660000E94BA09C4C00E9409015B9881E080935E
:1036700069008DBB10928A0481E58CBD82E190E0E7
:103680000E94BF1D8093700483E190E00E94BF1DE3
:103690008093960489E090E00E94BF1D80937A0495
:1036A00081E190E00E94BF1D8093EA038091EA03CC
:1036B000813019F48091960402C080917A040E94AE
:1036C000EF0378948DE090E00E94BF1D809301018C
:1036D000845F893110F0109201018EE090E00E9429
:1036E000BF1D8093DF038D3310F01092DF030E9423
:1036F00001020E949B020E94B1038BE090E00E94B5
:10370000BF1D8093EB038FE090E00E94BF1D80936C
:103710007E0484E190E00E94BF1D8823A1F001E1B6
:1037200011E0C4E1D0E0CE010E94BF1DF8018193F9
:103730008F012196CD31D105B1F78DE190E00E9446
:10374000BF1D8093E20380E190E00E94BF1D809343
:10375000E0038091E003813019F487E690E006C031
:103760008091E003823021F484E390E00E94C51947
:1037700080E290E00E94BF1D8093E9038FE190E01A
:103780000E94BF1D8093DD038091DD03823010F025
:103790001092DD0383E680938A0488E493E00E941C
:1037A000C80844E650E061E080EC9DE00E945102D0
:1037B00064EF71E080E090E00E94A5000E94BA09E9
:1037C000A89544E650E061E080EC9DE00E94510243
:1037D0008DE293E00E94C80888EC90E00E94980077
:1037E00010928A0481E08093E1030E94440A03E678
:1037F00011E0C1E1D0E0A89500B605FE03C00E942B
:10380000DC00F9CF8091D30380FFB6C01092D303C0
:1038100080918A04833649F080918A0490E0019671
:10382000BE010E941E1D80938A0480918A04883004
:1038300009F46AC080F48430D9F138F4823041F15F
:1038400070F5813009F0AEC01CC0863009F44EC05E
:1038500008F07DC044C08C3009F45DC030F48A307B
:1038600009F483C008F06CC033C08E3009F45AC02C
:1038700008F474C08F3009F45CC0803109F092C044
:1038800020C088E493E00E94C8080E94820F8AC08A
:1038900081E593E00E94C8080E94090783C08AE579
:1038A00093E00E94C8080E94A0051093E5037AC027
:1038B00083E693E00E94C8080E949D181093E403D9
:1038C00071C08CE693E00E94C8080E9405086AC097
:1038D0008DEE92E00E94C8080E94A60E63C085E7A4
:1038E00093E00E94C8080E94B80D5CC08EE793E088
:1038F0000E94C8088091EA03882319F00E94160DDF
:1039000051C00E94340E4EC087E893E00E94C80860
:103910000E94CE0B47C080E993E00E94C8080E9435
:10392000440C40C089E993E00E94C8080E94770BCC
:1039300039C082EA93E00E94C8080E94C60A32C0D9
:103940008BEA93E00E94C8080E94B30C2BC084EB62
:1039500093E00E94C8080E94231824C08DEB93E0D6
:103960000E94C8080E9482171DC086EC93E00E9446
:10397000C8080E94320F16C08091D30381FD04C095
:103980008091D30382FF0EC01092D30300938A0468
:103990000E94F308A89588EE93E00E949800A895ED
:1039A00010928A048091E003882309F424CF809147
:1039B000C00087FF20CF0E9483151DCF0E94701D7D
:1039C000B7FF0895821B930B08950E94701DA59F59
:1039D000900DB49F900DA49F800D911D112408950A
:1039E000991B79E004C0991F961708F0961B881F51
:1039F0007A95C9F78095089587FB082E062687FDDE
:103A0000819567FD61950E94F01C0EF4919507FC6D
:103A100081950895AA1BBB1B51E107C0AA1FBB1FBC
:103A2000A617B70710F0A61BB70B881F991F5A954A
:103A3000A9F780959095BC01CD01089597FB072EBD
:103A400016F4009407D077FD09D00E940A1D07FCE8
:103A500005D03EF4909581959F4F0895709561959E
:103A60007F4F0895A1E21A2EAA1BBB1BFD010DC0BA
:103A7000AA1FBB1FEE1FFF1FA217B307E407F5071E
:103A800020F0A21BB30BE40BF50B661F771F881FFA
:103A9000991F1A9469F760957095809590959B0190
:103AA000AC01BD01CF010895052E97FB16F40094DB
:103AB00007D057FD0DD00E94321D07FC09D07EF4BF
:103AC00090958095709561957F4F8F4F9F4F08958A
:103AD00050954095309521953F4F4F4F5F4F08953A
:103AE000A29FB001B39FC001A39F01D0B29F700DF0
:103AF000811D1124911D0895FB01DC010D90002012
:103B0000E9F7119701900D920020E1F70895FC016B
:103B10008191861721F08823D9F799270895319745
:103B2000CF010895FB01DC010D900020E9F711970A
:103B30004150504028F0019000200D92C9F708959F
:103B40001C920895FB01DC014150504030F08D91F2
:103B50000190801919F40020B9F7881B990B08957A
:103B6000FB01DC014150504048F001900D920020D3
:103B7000C9F701C01D9241505040E0F70895F999EE
:103B8000FECF92BD81BDF89A992780B50895262F62
:103B9000F999FECF1FBA92BD81BD20BD0FB6F89432
:0E3BA000FA9AF99A0FBE01960895F894FFCF95
:103BAE0008F83030303030300030303030303000C7
:103BBE0005030102020B010102012F0E0331333006
:103BCE00353036776D0C0507170C05071701010107
:103BDE000100010101000000001F003B005A0078A7
:103BEE00009700B500D400F300110130014E011F03
:103BFE001C1F1E1F1E1F1F1E1F1E1F0A0D54696D28
:103C0E00657A6F6E65206F666673657420686F7572
:103C1E00723A090073756E646179006D6F6E64613E
:103C2E00790074756573646179007765646E657388
:103C3E006479007468757273646179006672696480
:103C4E006179007361747572646179006A616E00E6
:103C5E00666562006D6172636800617072696C0006
:103C6E006D6179006A756E65006A756C79006175B3
:103C7E006773740073657074006F63746F62006EA7
:103C8E006F76656D00646563656D0020323030308F
:103C9E0020202000616C61726D206F6E002020204C
:103CAE006D696E7574002066756C6C202020002086
:103CBE006469616C31202000206469616C322020BF
:103CCE0000206469616C33202000206469616C34CB
:103CDE0020200020616D2D706D20200020616D2D43
:103CEE00706D2E2000206E6F6E6520202000206EDD
:103CFE006F6E652E2020002066756C6C67707300E9
:103D0E00647266742020007573612D313268720002
:103D1E006575722D3234687200766F6C2068696733
:103D2E006800766F6C206C6F77200064737420616E
:103D3E0075746F00647374206F6E2020006473744A
:103D4E00206F666620006272746C6F20006272745F
:103D5E00686920006164696D206F6E20006164697E
:103D6E006D206F666600616463200062726974651F
:103D7E002000677073206F6E343800677073206F89
:103D8E006E393600677073206F6666200073657437
:103D9E00206770732000677073206C617420006759
:103DAE007073206C6F6E67006F6E20203838383855
:103DBE00006F6666203838383800736E6F6F7A6918
:103DCE006E67002A00244750524D432C00202020BD
:103DDE00202020202000206E6F206770732000723C
:103DEE00756C6530203030006963652074756265CE
:103DFE000073657420616C61720073657420746960
:103E0E006D6500736574206461746500736574205C
:103E1E007A6F6E6500736574206164696D007365F9
:103E2E007420627269740073657420647266740023
:103E3E00736574207265676E0073657420736563B5
:103E4E00730073657420736E6F7A007365742076D9
:103E5E006F6C200073657420647374200073657436
:103E6E002072756C6500736574206C64626200006C
:00000001FF
