:100000000C9479000C94E71B0C9496000C94471800
:100010000C9496000C949B180C9496000C94170C5E
:100020000C9496000C9496000C9496000C949600F8
:100030000C9496000C9496000C9496000C949600E8
:100040000C94B8070C9496000C9496000C949600AF
:100050000C9496000C94DB020C9496000C943313D1
:100060000C9496000C949600FA3E1A7ADE8EF62EC8
:100070006078AE1CAA2A3ACEF30AB61E3838B86E9B
:1000800076DA6800FC60DAF266B6BEE0FEF684005E
:100090000E620E200E400C600462086290008080A8
:1000A0008000400020001000101000100008000424
:1000B00000809E00C080C2004202020A001A10188E
:1000C000301032002202020600868084B400040050
:1000D00002000800002000020040CE0003070809CB
:1000E000060A050C04DC000B10120F0D0E1113E7AD
:1000F000000011241FBECFEFD4E0DEBFCDBF13E060
:10010000A0E0B1E0EAEBFCE302C005900D92A03A5A
:10011000B107D9F714E0A0EAB3E001C01D92AB38F3
:10012000B107E1F70E94F1190C945B1E0C940000DA
:100130009C0178941092B9031092B8038091B8038F
:100140009091B90382179307C8F30895EF92FF9235
:100150000F931F937B018C0120ED37E040E050E0CE
:100160000E94801D611571058105910519F461E0FA
:1001700070E01CC0603020E0720721E0820720E0C0
:100180009207A0F0C801B7012AE030E040E050E05B
:100190000E94801D88EC90E005C0FC013197F1F7CA
:1001A0006150704061157105C1F703C0CB01019723
:1001B000F1F71F910F91FF90EF9008950197F1F7DC
:1001C0000895A895089581E08093A7035B9A8CB564
:1001D0008F7B8CBD85B1877D85B95E9815BC1092EB
:1001E0005C0410926800459885B1897F85B98BB110
:1001F0008F7C8BB928988AB18F7C8AB920985A98BD
:100200005298E1E6F0E090E8908388E08083449A99
:1002100083B7876083BF8895908310824498089540
:100220008EE284B988E48AB989E087B984E38BB91E
:1002300091E095B985E08093680090936B0080E32E
:1002400080936D000895CF93DF9310925F048091A7
:1002500047048E3419F41092600403C082E0809346
:100260006004A6E5B4E0C1E6D4E0ED91E053F0E02F
:10027000EC57FF4FE491E99384E0AC35B807A9F758
:1002800080916404816080936404DF91CF9108952C
:10029000CF93DF9380914504853419F410925F0465
:1002A00003C082E080935F04A8E4B4E0C0E6D4E039
:1002B000ED91E053F0E0EC57FF4FE491E99384E0D7
:1002C000AF34B807A9F78091640481608093640417
:1002D000DF91CF910895CF93DF93362F3150C32F05
:1002E000DD27C7FDD095C80FD11DC25ADB4F252F82
:1002F00016C0842F922F6AE070E00E94B81DE82F8C
:10030000F0E0EC57FF4FE491E883842F922F6AE0EE
:1003100070E00E94B81D462F272F3150219737FFDC
:10032000E8CFDF91CF910895A82F262FE82FF0E096
:1003300067FF06C0E25AFB4F82E08083219503C02D
:10034000E25AFB4F1082B0E0822F6AE00E94AB1DA0
:10035000E82FF0E0EC57FF4FE491A25ABB4FE42B9B
:100360001196EC931197822F6AE00E94AB1DE92F42
:10037000F0E0EC57FF4FE491E42B1296EC930895D4
:100380000F931F93CF93DF938B01282F30E0CB0186
:100390006AE070E00E94CC1DC4E8D0E0FE01E60FE8
:1003A000F11DE491225A3B4FE42BD901EC93C80193
:1003B0006AE070E00E94CC1DC80FD11DFE0184913F
:1003C000842BD90111968C93DF91CF911F910F91BE
:1003D0000895A82FB0E0CD018C579F4FFC01849168
:1003E000816080936304A559BC4F6C9187E070E0F5
:1003F00041E00E94C0010895FC0183709070892B38
:1004000039F4CF0164E670E00E94B81D892B49F4ED
:1004100020E030E0CF0160E971E00E94B81D892B37
:1004200011F421E030E0822F0895109280001092A4
:100430008100299A2A9878941092B9031092B803EF
:100440008091B8039091B9030A97D0F32A9A29981A
:1004500078941092B9031092B8038091B8039091E8
:10046000B9030A97D0F385B1897F85B982EB809370
:10047000800088E1809381000895DF92EF92FF92DF
:100480000F931F93D62E8A019C0140E050E060E458
:1004900072E48FE090E00E94011E30938700209369
:1004A000860080918600909187009695879590931D
:1004B0008B0080938A0080918A0090918B009093AA
:1004C000890080938800780100E010E016C08091D8
:1004D0008100826080938100C801B7010E94A6005C
:1004E000809181008D7F8093810085B1897F85B95E
:1004F000C801B7010E94A600DA94DD2041F785B15A
:10050000897F85B91F910F91FF90EF90DF9008953B
:1005100044E650E00E943D0208953D9A459AAAE7BC
:10052000B0E08C9186608C93ECE7F0E08081806491
:100530008083808184608083EEE7F0E08081806149
:1005400080838C9180688C938C9188608C930895C3
:100550008091A303813029F480917A008064809394
:100560007A000895982F80917404882329F080914F
:10057000860480FD0DC002C09B3510F09AE503C0D3
:100580009A3008F49AE087B5891721F097BD08954D
:1005900092E3F9CF08950E94B20283E084BD81E026
:1005A00085BD84B5806884BDEEE6F0E08081816021
:1005B0008083789408951F920F920FB60F921124A2
:1005C0001F932F933F934F935F936F937F938F93DB
:1005D0009F93AF93BF93EF93FF938091A3038130D9
:1005E00009F03FC03091780020917900922F80E08F
:1005F000632F70E0682B792B7093760460937504F9
:1006000083E0623F780718F080915D0405C065368D
:10061000710520F48091840490E01DC01091840441
:1006200020918404E0915D046456704080E090E085
:1006300030E02E1B3109442737FD4095542F0E948E
:10064000801D2EE833E040E050E00E94DF1D812F46
:1006500090E0821B930B90937104809370040E942E
:10066000B202FF91EF91BF91AF919F918F917F91D6
:100670006F915F914F913F912F911F910F900FBEFE
:100680000F901F9018951F93182F87E0612F70E02F
:1006900041E00E94C001812F0E94B2021F91089583
:1006A000CF93DF93C62FD0E0E82FF0E0E053F84F70
:1006B000C330D10510F42C963197242F30E02F5FF2
:1006C0003F4F2E0F3F1FCE01880F991F280F391F54
:1006D000CF019695879596958795280F391FCF015D
:1006E00060E971E00E94B81D260F371FCF0164E654
:1006F00070E00E94B81D261B370BAE014F5F5F4FA5
:10070000CA01880F991F840F951F880F991F6AE0EF
:1007100070E00E94B81DC901860F971F67E070E066
:100720000E94B81D8F5FDF91CF910895E4E8F0E05B
:10073000E80FF11DE4918E2F0895E82FF0E0E95FB6
:10074000FF4FE4918E2F08950F931F93182F062FBC
:1007500080917704882309F07EC08091A4038330C0
:1007600009F442C0843028F4813069F08230F0F41A
:1007700072C0853008F475C0873008F448C08930ED
:1007800008F06FC05CC0842F66E00E949F1D892F17
:1007900090E0880F991FFC01EF56FF4FE491E09322
:1007A000650480579F4FFC01949146C0842F6AE0F6
:1007B0000E949F1D292F30E0220F331FC90181564F
:1007C0009F4FFC0194919093650422563F4FF9018D
:1007D00084918093660440FF44C0926090936504C6
:1007E0008260809366043DC0842F6CE00E949F1D50
:1007F000892F90E0880F991FFC01EB54FF4FE49183
:10080000E09365048C549F4FFC01949115C01C30FB
:1008100018F4E8E6F0E002C0E7E7F0E0E491E093E6
:100820006504E4E7F0E09491909366048091A4035A
:100830008630B9F44170942B9093660412C01092E4
:100840006504109266048091A403883051F44170CD
:100850004093660406C087E0642F70E040E00E9489
:10086000C0011092640484E0602F70E040E00E94B8
:10087000C001109261048091A203882369F5812F41
:1008800090E00B966CE070E00E94CC1D9C010196FC
:100890006AE070E00E94CC1DE82FF0E0EC57FF4FBB
:1008A000E491E0936004265F3F4F2331310518F453
:1008B00010925F0405C0E5E8F0E0E491E0935F0486
:1008C0001C3020F080915E04816003C080915E0442
:1008D0008E7F80935E0406C081E0612F70E040E06F
:1008E0000E94C0011F910F9108951F93182F10921D
:1008F0006604109265041092640484E070E040E0A5
:100900000E94C001109261048091A203882309F023
:100910003EC01C3058F080915E04816080935E047C
:10092000E7E7F0E0E491E09365040AC0E8E6F0E070
:10093000E491E093650480915E048E7F80935E0471
:10094000E4E7F0E0E491E0936604812F90E00B96F9
:100950006CE070E00E94CC1D9C0101966AE070E0A2
:100960000E94CC1DE82FF0E0EC57FF4FE491E0939C
:100970006004265F3F4F2331310518F410925F0465
:1009800014C0E5E8F0E0E491E0935F040EC0812F2D
:1009900090E0479668E170E00E94CC1DBC016F5F5B
:1009A0007F4F81E040E00E94C0011F9108951F9396
:1009B000182FEAE6F0E084918093660471968491A2
:1009C000809365043196E491E093640484E070E0E0
:1009D00040E00E94C00110926104612F772767FDFB
:1009E000709577FF03C0709561957F4F81E040E07F
:1009F0000E94C00117FD04C080915E048D7F03C07A
:100A000080915E04826080935E041F910895CF936D
:100A1000DF9310925E04EC01AFE5B4E0E881EE23D1
:100A2000D9F08E2F81568A3128F4F0E0E95FFF4F2C
:100A3000E49109C08E2F80538A3038F4E82FF0E01B
:100A4000EC57FF4FE491EC9301C01C922196119654
:100A500084E0A736B80711F7DF91CF910895882376
:100A600059F510925E0482E08093610480936404DF
:100A70008091A203882351F46091680381E070E0C3
:100A800040E00E94C0016091690309C06091690360
:100A900081E070E040E00E94C0016091680384E062
:100AA00070E040E00E94C00160916A0387E070E05E
:100AB00040E00E94C0010895813009F0ADC010925D
:100AC00065041092660480916A0360916803409106
:100AD00069030E9450038430C9F0853038F48230B5
:100AE00079F0833080F48130F1F407C08630A1F0D2
:100AF000863078F08730B9F412C080E091E011C000
:100B000087E091E00EC08EE091E00BC086E191E0BD
:100B100008C08FE191E005C088E291E002C08FE259
:100B200091E00E94070578941092B9031092B803DF
:100B30008091B8039091B903885E9340C8F31092F6
:100B400062041092630410926404809168038630FA
:100B500079F1873070F4833011F1843028F48130DA
:100B6000C1F08230D9F518C08430E1F08530B1F59C
:100B70001CC0893031F18A3028F48730E1F08830A8
:100B800069F51CC08B3019F18B30F0F08C3031F5E9
:100B900021C088E391E020C08CE391E01DC080E497
:100BA00091E01AC086E491E017C08CE491E014C093
:100BB00080E591E011C085E591E00EC08AE591E005
:100BC0000BC080E691E008C085E691E005C08BE6A9
:100BD00091E002C081E791E00E94070560916903FE
:100BE00087E070E040E00E94C00178941092B90361
:100BF0001092B8038091B8039091B903885E934036
:100C0000C8F387E791E00E94070560916A0384E0DA
:100C100070E040E00E94C00108954A9B3EC0809170
:100C20006A04882309F051C081E080936A0410921D
:100C3000B7031092B6038091A803882309F445C036
:100C400080917704882309F040C080E891E00E94F9
:100C5000070583E68093770478941092B903109285
:100C6000B8038091B8039091B9038C5D9540C8F3A7
:100C700080916D04609146040E94750478941092EE
:100C8000B9031092B8038091B8039091B9038C5DB9
:100C90009540C8F310927704089580916A048823E0
:100CA000A1F010926A041092B7031092B6038091DB
:100CB0007404882351F010927404809181008D7F18
:100CC0008093810085B1866085B908958091A403E1
:100CD000843001F1853048F4813099F0813070F032
:100CE000823091F08330A1F512C08630C9F0863091
:100CF000A0F08730F9F0883059F521C089E891E0FB
:100D00001BC082E991E018C08BE991E015C084EA2C
:100D100091E012C08DEA91E00FC086EB91E00CC02B
:100D20008FEB91E00E9407058091650481608093BC
:100D30006504089588EC91E00E940705089581ED0F
:100D400091E00E94070580916404816080936404AF
:100D500008958091A203882319F48AED91E002C0DE
:100D600083EE91E00E940705089580915C0488233A
:100D700051F08CEE91E00E9407058091660481603D
:100D80008093660404C085EF91E00E94070580917E
:100D90006304816080936304809164048160809324
:100DA0006404809165048160809365040895809156
:100DB0006B04813219F48EEF91E009C080916B04CD
:100DC000813019F487E092E002C080E192E00E9455
:100DD000070508958091A303813019F489E192E019
:100DE00002C082E292E00E94070508958091AC0360
:100DF000813019F48BE292E002C084E392E00E9419
:100E0000070508958091B103882319F08DE392E0DE
:100E100002C086E492E00E94070508951F938AE0CD
:100E20008093BE031AE08091BB0380FD1DC08091BA
:100E3000BB03882321F48091BC03882319F010930D
:100E4000BE0307C08091BE03882319F41092770473
:100E50000BC08091BB0381FFE6CF1092BB0380E6FD
:100E600093E00E940705DFCF1F91089581E58CBDB7
:100E700008959B01AC01F894CA01AA27BB278EBD37
:100E80000DB407FEFDCFBB27A52F942F832F8EBD5A
:100E90000DB407FEFDCF2EBD0DB407FEFDCF409A69
:100EA000409878940895AF92BF92CF92DF92EF92DC
:100EB000FF920F931F9390918703981708F4892F3F
:100EC000E82FF0E0DF01A25ABB4F2C91E452FF4F14
:100ED000E49181E090E002C0880F991FEA95E2F763
:100EE0007C010027F7FC0095102F4091C003509122
:100EF000C1036091C2037091C303A0E0B0E030E091
:100F0000E1E0AE2EB12CC12CD12CC9010A2E02C0B9
:100F1000959587950A94E2F780FF11C0FD01E9518C
:100F2000FF4FE491B601A50104C0440F551F661F91
:100F3000771FEA95D2F7E42AF52A062B172B11968C
:100F4000A830B10511F74093C0035093C1036093DB
:100F5000C2037093C303C801B7010E9439071F91F0
:100F60000F91FF90EF90DF90CF90BF90AF900895DA
:100F70001F920F920FB60F9211242F933F934F930E
:100F80005F936F937F938F939F93AF93BF93EF93F1
:100F9000FF937894A8958091B2039091B303019642
:100FA0009093B3038093B203829708F418C1109210
:100FB000B3031092B2038091B8039091B9030196E4
:100FC0009093B9038093B8038091B0030E945307B4
:100FD0002091B0032F5F2093B0034091B10330E024
:100FE0008091870390E0840F911D8217930714F47A
:100FF0001092B0038091A403843041F5809177046E
:10100000882321F58091A5038F5F8093A5038739FD
:10101000E8F01092A5038091B8039091B90367EAB4
:1010200070E00E94B81DCB0166E070E00E94B81D20
:10103000880F991FFC01E153FF4FE491E093650491
:1010400082539F4FFC0184918093660480917404C5
:10105000882309F4C4C08091B6039091B703892B0B
:1010600009F0BDC08091B4039091B50301969093AF
:10107000B5038093B4038B35910508F4B0C010928A
:10108000B5031092B4038091790490917A0401968B
:1010900090937A04809379048091790490917A04F2
:1010A0008155964470F0109274041092B703109218
:1010B000B603809181008D7F8093810085B1866029
:1010C00085B9809172049091730401969093730492
:1010D000809372042091720430917304809187048C
:1010E000909188048217930750F510927304109220
:1010F0007204809172049091730490938A04809397
:1011000089048091870490918804459748F08091E4
:10111000870490918804449790938804809387046F
:1011200080916E0490916F04449748F480916E040E
:1011300090916F04029690936F0480936E04809157
:10114000890490918A04019690938A04809389047B
:101150002091890430918A0480916E0490916F04EB
:1011600082179307E0F18091890490918A049C0191
:10117000220F331F280F391F220F331F220F331F57
:1011800024553E4F40E050E060E472E48FE090E090
:101190000E94011E30938700209386008091860074
:1011A000909187009695879590938B0080938A0005
:1011B00080918A0090918B009093890080938800A1
:1011C0008091890490918A0480FF04C080918100FD
:1011D000826003C0809181008D7F80938100FF91A8
:1011E000EF91BF91AF919F918F917F916F915F919F
:1011F0004F913F912F910F900FBE0F901F90189518
:101200008EBD0DB407FEFDCF08958091C00080789B
:101210000895FC015381505182814AE0849FC001AE
:101220001124580F74816581309186032091AB039E
:10123000230F20518181280F8081849FC0011124B8
:10124000280F209344048091AF0337FF02C0581B3E
:1012500001C0580F5093680460518AE0789FC00124
:101260001124680F6093860481E08093A803089599
:10127000FC014181405180815AE0859FC0011124C9
:10128000480F338130518281859FC0011124380F6E
:10129000258120518481859FC0011124280F40930E
:1012A00069033093680320936A0381E08093A90364
:1012B000089581E0809374041092B7031092B603EE
:1012C00088EC90E0909388048093870410927304D4
:1012D0001092720482E090E090936F0480936E0409
:1012E00010927A04109279048091790490917A0492
:1012F0009093B5038093B4030895982F80916A0466
:10130000882361F080916D04891741F4809146042F
:10131000861721F4442311F40E9459090895CF92AD
:10132000DF92EF92FF920F931F93782FE62FF22E0A
:10133000C02EDE2CF0E0EE0FFF1FEA57FC4F80813D
:101340009181840F911D8C0120E030E0472F50E007
:10135000CA0183709070892B31F4872F64E60E9454
:101360009F1D992339F4CA0160E971E00E94CC1DE8
:10137000892B21F40F5F1F4F2F4F3F4FC901B80139
:1013800020E831E541E050E00E94801D4F2D50E003
:1013900020E13EE0429F7001439FF00C529FF00C11
:1013A00011240027F7FC0095102FED0CF11C011DF6
:1013B000111D2CE3C29E90011124442737FD409556
:1013C000542FE20EF31E041F151FE60EF71E081F12
:1013D000191FB701C8011F910F91FF90EF90DF9087
:1013E000CF900895DF92EF92FF920F931F93182FE3
:1013F000062FF42ED22EE82FF0E0EE0FFF1FEA5753
:10140000FC4FE08080916A0390E083709070892B9C
:1014100019F4123009F4E39480916A03612F41E0DA
:101420000E945003081718F0602F681B03C0602F3C
:10143000681B695F87E0F89EC0011124482F465061
:10144000460F01C04750E416E8F380916A03612F0C
:101450002D2D00E0EE240E948F091F910F91FF9027
:10146000EF90DF9008955F926F927F928F929F929C
:10147000AF92BF92CF92DF92EF92FF920F931F93A2
:10148000FC0114810581F680E780508480816181B0
:10149000428123810E94F2095B016C01812F602F40
:1014A0004F2D2E2D0E94F2093B014C0180916A03C1
:1014B000609168034091690320914404009168049D
:1014C000E09086040E948F096A157B058C059D05B6
:1014D000ACF0661577058805990584F48091AB0317
:1014E000882341F580917804813021F510927804A9
:1014F0005092AB0380914404850D0FC08091AB03E3
:101500001816C4F4809178048130A1F41092780404
:101510001092AB03809144048519809344048DE1BB
:1015200090E0652D0E944D1E6091440484E090E09F
:101530000E944D1E1F910F91FF90EF90DF90CF9072
:10154000BF90AF909F908F907F906F905F90089525
:10155000809186048C3354F0809186048C53809360
:101560008604809168048F5F80936804809186046C
:1015700087FF0AC080918604845C809386048091F2
:101580006804815080936804809168048C3354F01F
:10159000809168048C5380936804809144048F5F29
:1015A000809344048091680487FF0AC08091680496
:1015B000845C809368048091440481508093440447
:1015C000809186048823A1F480916804882381F4A3
:1015D0008091AC03882361F46091440484E090E03E
:1015E0000E944D1E6091680485E090E00E944D1EAF
:1015F00080914404883184F0809144048851809320
:101600004404809169038F5F80936903609169034B
:1016100083E090E00E944D1E8091440487FF10C03B
:1016200080914404885E80934404809169038150D2
:10163000809369036091690383E090E00E944D1EEE
:1016400080916903803268F5809169038F3181F45C
:1016500080916803843029F180916803863009F114
:10166000809168038930E9F0809168038B30C9F07C
:10167000809169038E3121F480916803823089F072
:10168000809169038D31D9F4809168038230B9F477
:1016900080916A0390E08053984F0E94FC01882358
:1016A00071F481E080936903809168038F5F809378
:1016B00068036091680382E090E00E944D1E809173
:1016C0006903882309F047C0809168038630D1F010
:1016D000873060F4833029F1843018F4813090F140
:1016E00011C0843079F0853069F510C08A3018F463
:1016F000883040F40BC08B3029F08B3038F08C30C0
:1017000009F504C080916903815E03C0809169037B
:10171000825E80936903809168038150809368039F
:1017200014C080916A0390E08053984F0E94FC019E
:10173000882321F080916903835EEBCF8091690358
:10174000845EE7CF81E0809369036091680382E063
:1017500090E00E944D1E809168038D3070F0809162
:101760006A038F5F80936A0381E0809368036091CE
:101770006A0381E090E00E944D1E809168038823F7
:10178000B1F480916803845F8093680380916A0359
:10179000815080936A0360916A0381E090E00E9427
:1017A0004D1E6091680382E090E00E944D1E809182
:1017B00086048823E9F480916B04813229F48BE656
:1017C00093E00E94330A09C080916B04813019F4C0
:1017D0008093AB0302C01092AB038091680488230E
:1017E00039F480914404882319F481E080937804CB
:1017F00008958091AA038823C9F08091540490E051
:1018000080519240209153044AE0249F900111247A
:10181000820F931F0B9754F08DE794E00E94090903
:101820008FE494E00E9438090E94A80A08951F924C
:101830000F920FB60F9211242F933F934F935F9304
:101840006F937F938F939F93AF93BF93EF93FF9388
:1018500080E88093610010926100809186048F5F20
:10186000809386040E94A80A809168048823B9F4B2
:1018700080918604882321F48091BF03815805C09C
:1018800080918604813019F48FE78093B3008091B2
:101890008604823024F48091B60083FDFCCF8091D1
:1018A000A703882309F088C08091AD039091AE030F
:1018B0008530910528F401969093AE038093AD0393
:1018C00080917704882399F58091A803882339F4BF
:1018D0008091860480FF03C08FE492E010C0809165
:1018E000AC03882379F08091AD039091AE03059706
:1018F00048F08091860480FF05C088E592E00E9450
:10190000070508C0809144046091680440918604F2
:101910000E94A40380916A04882321F080915E04D0
:10192000826003C080915E048D7F80935E0480910D
:10193000A803882341F08091440460916804409199
:1019400086040E947D098091A303813029F480914F
:101950007A00806480937A008091BE03882329F006
:101960008091BE0381508093BE038091BD03882384
:1019700029F08091BD0381508093BD038091B6030F
:101980009091B7030097C1F09C01215030403093F3
:10199000B7032093B60320FF06C080915E048260E7
:1019A00080935E0409C080915E048D7F80935E0405
:1019B000232B11F40E945909FF91EF91BF91AF9130
:1019C0009F918F917F916F915F914F913F912F9157
:1019D0000F900FBE0F901F9018950F931F938AE0E2
:1019E0008093BE0310E00AE08091BB03882321F4BA
:1019F0008091BC03882319F00093BE0304C080913A
:101A0000BE038823B1F08091BB0380FD41C080916B
:101A1000BB0381FF11C01092BB03112321F40E946C
:101A200066061EE009C06091A40380E290E00E9477
:101A30004D1E109277042CC08091BB0382FD04C020
:101A40008091BC0382FFD0CF1092BB031E3069F49B
:101A50008091A4038F5F8093A4038091A4038930B5
:101A600010F01092A4030E9466068091BC0382FFCE
:101A7000BBCF0E94150278941092B9031092B8035C
:101A80008091B8039091B90384369105C8F3ACCF27
:101A90001F910F910895EF92FF920F931F93CF9391
:101AA000DF938C01FF24C4E1D0E0EE24E394F8013D
:101AB0008081882341F0F394FE01E95AFC4FCE0166
:101AC00060810E944D1EFF2031F0E09278048BE689
:101AD00093E00E94330A0F5F1F4F2196CD31D1054D
:101AE00031F7DF91CF911F910F91FF90EF90089503
:101AF000CF92DF92EF92FF920F931F93DF93CF93DA
:101B0000CDB7DEB729970FB6F894DEBF0FBECDBFB5
:101B10008AE08093BE03FE01319689E0DF011D92C9
:101B20008A95E9F700E010E05AE0C52E7F01DD2438
:101B3000D3948091BB03882321F48091BC03882334
:101B400019F0C092BE030BC08091BE03882339F404
:101B5000CE0101960E944B0D1092770460C08091D7
:101B6000BB0380FD1DC08091BB0381FF1EC010928E
:101B7000BB03002349F481E692E00E940705812F10
:101B80000E94E9010DE011C00D3041F41F5F1930D2
:101B900008F010E0812F0E94E90107C0109277043D
:101BA000CE0101960E944B0D3AC08091BB0382FD8D
:101BB00004C08091BC0382FFBCCF1092BB030D30E8
:101BC000D9F4A12FB0E09D0125593C4FF901808146
:101BD0008F5F8083FD01E358FC4F9081981730F4AC
:101BE000FD01EC58FC4F8081F9018083AE0DBF1DD3
:101BF000DC92812F0E94E9018091BC0382FF99CF82
:101C00000E94150278941092B9031092B803809143
:101C1000B8039091B9038B349105C8F38ACF299604
:101C20000FB6F894DEBF0FBECDBFCF91DF911F91ED
:101C30000F91FF90EF90DF90CF900895DF92EF9299
:101C4000FF920F931F938AE08093BE0300E07AE037
:101C5000D72EFF24F39461E2E62E8091BB03882304
:101C600021F48091BC03882319F0D092BE0304C0F4
:101C70008091BE03882381F08091BB0380FD58C012
:101C80008091BB0381FF0BC01092BB03002321F4A2
:101C90000E94D70607E003C01092770449C08091E4
:101CA000BB0382FFDACF1092BB030730B1F610916D
:101CB0006B04113059F4E0926B04109378048BE6B6
:101CC00093E00E94330A1093780429C080916B043A
:101CD000813261F410926B048091AB031816FCF40E
:101CE0001092AB038091440481500BC0F0926B04BE
:101CF0008091AB03882399F4F092AB038091440464
:101D00008F5F809344046091AB038DE190E00E946B
:101D10004D1E6091440484E090E00E944D1E0E949C
:101D2000D70660916B048FE090E00E944D1E95CF26
:101D30001F910F91FF90EF90DF9008950F931F93E5
:101D40008AE08093BE0310E00AE08091BB03882301
:101D500021F48091BC03882319F00093BE0305C0D1
:101D60008091BE03882309F44AC08091BB0380FDA3
:101D700065C08091BB0381FF45C01092BB03112356
:101D800021F40E94EA0615E03DC01530B1F48AE660
:101D900092E00E940705409175045091760481E01D
:101DA00064E00E946B01409170045091710486E0E0
:101DB00063E00E946B0113E025C01330D1F48091E1
:101DC000A303813029F480917A00806480937A00A3
:101DD000409175045091760481E064E00E946B01AB
:101DE000409170045091710486E063E00E946B01A1
:101DF00009C06091A30381E190E00E944D1E109202
:101E000077041CC08091BB0382FF9FCF1092BB035D
:101E1000153009F09ACF8091A303813019F4109204
:101E2000A30303C081E08093A3030E94EA066091AC
:101E3000A30381E190E00E944D1E87CF1F910F9177
:101E400008950F931F938AE08093BE0310E00AE089
:101E50008091BB03882321F48091BC03882319F06F
:101E60000093BE0304C08091BE038823B1F080912B
:101E7000BB0380FD49C08091BB0381FF17C0109256
:101E8000BB03112351F48FE692E00E940705809175
:101E900067040E94430311E009C010927704609127
:101EA000670489E090E00E944D1E2EC08091BB0324
:101EB00082FD04C08091BC0382FFCACF1092BB0395
:101EC000113079F4809167048B5F8093670480916F
:101ED00067048B3510F000936704809167040E94BB
:101EE00043038091BC0382FFB3CF0E941502789414
:101EF0001092B9031092B8038091B8039091B9037E
:101F00008B349105C8F3A4CF1F910F9108950F93BF
:101F10001F938AE08093BE0310E00AE08091BB0328
:101F2000882321F48091BC03882319F00093BE0319
:101F300007C08091BE03882319F41092770450C023
:101F40008091BB0380FD4CC08091BB0381FF2DC0FD
:101F50001092BB03812F90E0019666E070E00E9432
:101F6000CC1D182F8230A1F0833028F4882351F043
:101F70008130D9F40AC0843099F0843070F0853013
:101F8000A1F411C086E792E005C00E94F6060DC0DC
:101F90008FE792E00E94070508C00E94230105C058
:101FA00088E892E0F7CF0E9448018091BB0382FF4E
:101FB000B5CF1092BB03113009F0B0CF8091AC03C4
:101FC000813019F41092AC0302C01093AC030E944C
:101FD000F6066091AC0380E190E00E944D1E9ECF1A
:101FE0001F910F910895FF920F931F938AE08093A2
:101FF000BE0310E0EAE0FE2E01E08091BB038823DF
:1020000021F48091BC03882319F0F092BE0304C030
:102010008091BE038823B1F08091BB0380FD2FC067
:102020008091BB0381FF11C01092BB03112321F4E7
:102030000E9402071AE009C06091B1038FE190E0AD
:102040000E944D1E109277041AC08091BB0382FF3C
:10205000D4CF1092BB031A3081F68091B10388234C
:1020600019F01092B10302C00093B1030E9402075D
:102070006091B1038FE190E00E944D1EBECF1F9191
:102080000F91FF900895FF920F931F938AE0809322
:10209000BE0310E0FAE0FF2E01E08091BB0388232D
:1020A00021F48091BC03882319F0F092BE0307C08D
:1020B0008091BE03882319F41092770401C18091A6
:1020C000BB0380FDFDC08091BB0381FF83C01092E4
:1020D000BB031123A9F48091A203882311F012E01D
:1020E00001C011E080E00E942F0580915F048160B3
:1020F00080935F04809160048160809360046AC073
:10210000113029F48091A203882339F020C01230C5
:10211000E1F48091A2038130A9F48091A203882385
:1021200011F011E001C012E080E00E942F058091C3
:102130006204816080936204809163048160809373
:10214000630448C0882339F015C0113099F4809198
:10215000A203813079F480E00E942F05809165040C
:102160008160809365048091660481608093660439
:1021700013E030C083E68093770480E00E942F054F
:1021800078941092B9031092B8038091B80390919B
:10219000B9038C5D9540C8F31092770411E0109359
:1021A00078048BE693E00E94330A109378046091E0
:1021B0006A0381E090E00E944D1E6091680382E016
:1021C00090E00E944D1E6091690383E090E00E94C0
:1021D0004D1E76C08091BB0382FD04C08091BC037C
:1021E00082FF5BCF1092BB03113099F4809168039A
:1021F0008F5F80936803809168038D3010F0109397
:10220000680380E00E942F058091A203882301F5D6
:1022100014C0123041F5809169038F5F8093690388
:1022200080916903803210F00093690380E00E947E
:102230002F058091A203813059F480915F04816061
:1022400080935F048091600481608093600426C065
:102250008091620481608093620480916304816054
:10226000809363041BC01330C9F480916A038F5FAD
:1022700080936A0380916A0364E60E949F1D909395
:102280006A0380E00E942F0580916504816080933D
:102290006504809166048160809366048091BC032C
:1022A00082FFFBCE0E94150278941092B90310921F
:1022B000B8038091B8039091B903CC97D0F3EDCED9
:1022C0001F910F91FF900895DF92EF92FF920F936D
:1022D0001F9300914404E0906804F09086048AE023
:1022E0008093BE0310E0AAE0DA2E8091BB0380FD4C
:1022F000ECC08091BB03882321F48091BC03882328
:1023000019F0D092BE0307C08091BE03882319F450
:1023100010927704DAC08091BB0381FF67C01092EE
:10232000BB031123B9F400914404E0906804F090D9
:102330008604802F6E2D4F2D0E94A40380915F0490
:10234000816080935F048091600481608093600469
:1023500011E04CC0113089F4802F6E2D4F2D0E945A
:10236000A40380916204816080936204809163047D
:1023700081608093630412E039C0123089F4802FA9
:102380006E2D4F2D0E94A40380916504816080937F
:1023900065048091660481608093660413E026C022
:1023A00000934404E0926804F0928604109277044B
:1023B00011E0109378048BE693E00E94330A1093A7
:1023C0007804009344046091440484E090E00E9407
:1023D0004D1E6091680485E090E00E944D1E609162
:1023E000860486E090E00E944D1E6FC08091BB0382
:1023F00082FD04C08091BC0382FF77CF1092BB03A3
:102400001130C9F4802F90E0019668E170E00E94DD
:10241000CC1D082F6E2D4F2D0E94A40380915F04C8
:10242000816080935F048091600481608093600488
:102430000093440437C01230D1F48E2D90E0019601
:102440006CE370E00E94CC1DE82E802F6E2D4F2D86
:102450000E94A40380916204816080936204809151
:102460006304816080936304E09268041BC01330AE
:10247000C9F48F2D90E001966CE370E00E94CC1DB2
:10248000F82E802F6E2D4F2D0E94A403809165049D
:102490008160809365048091660481608093660406
:1024A000F09286048091BC0382FF1FCF0E94150228
:1024B00078941092B9031092B8038091B803909168
:1024C000B9038B349105C8F310CF1F910F91FF9082
:1024D000EF90DF900895EF92FF920F931F9310916A
:1024E0006D04009146048AE08093BE03FF248AE0D5
:1024F000E82E8091BB0380FDB1C08091BB0388238F
:1025000021F48091BC03882319F0E092BE0317C028
:102510008091BE03882399F41092770410936D0480
:102520000093460460916D0487E090E00E944D1E88
:102530006091460488E090E00E944D1E8FC080911B
:10254000BB0381FF3CC01092BB03FF2089F4812FA5
:10255000602F0E94750480915F04816080935F0406
:1025600080916004816080936004FF24F39427C00D
:1025700081E0F81689F4812F602F0E947504809104
:10258000620481608093620480916304816080931F
:102590006304B2E0FB2E13C010936D040093460455
:1025A00060916D0487E090E00E944D1E60914604AA
:1025B00088E090E00E944D1E109277044FC08091F9
:1025C000BB0382FD04C08091BC0382FF92CF1092B6
:1025D000BB0381E0F816B1F4812F90E0019668E129
:1025E00070E00E94CC1D182F602F0E94750480910E
:1025F0005F04816080935F048091600481608093B8
:10260000600419C082E0F816B1F4802F90E00196C2
:102610006CE370E00E94CC1D082F812F602F0E9478
:1026200075048091620481608093620480916304E8
:102630008160809363048091BC0382FF5ACF0E9423
:10264000150278941092B9031092B8038091B803E0
:102650009091B9038B349105C8F34BCF1F910F9123
:10266000FF90EF9008951F920F920FB60F921124D2
:102670002F933F934F935F936F937F938F939F938A
:10268000AF93BF93EF93FF9300B605FE4AC08091CE
:10269000A703882309F04EC05B9A85B1877D85B971
:1026A0005E988CB58F7B8CBD8091A8038823B9F090
:1026B0006091440484E090E00E944D1E60916804A3
:1026C00085E090E00E944D1E6091860486E090E0D7
:1026D0000E944D1E80ED97E061E00E94880280918B
:1026E000A9038823B9F060916A0381E090E00E9419
:1026F0004D1E6091680382E090E00E944D1E609143
:10270000690383E090E00E944D1E80ED97E062E057
:102710000E94880215BC10925C04109268004598D3
:1027200004C08091A703882329F0E091A003F091D1
:10273000A1030995FF91EF91BF91AF919F918F9167
:102740007F916F915F914F913F912F910F900FBEAD
:102750000F901F901895DF93CF930F92CDB7DEB7F0
:10276000E4ECF3E001900020E9F73197E45CF340FA
:102770009E2F8091C600EE2319F4843209F0FFC029
:10278000898397FDF5C08D3051F084EC93E0BE0154
:102790006F5F7F4F41E050E00E94271EF0C084EC45
:1027A00093E061E972E047E050E00E94371E009735
:1027B00009F0DEC085EC93E090937C0480937B0469
:1027C00010926C040AC080916C04892780936C0479
:1027D0003196F0937C04E0937B04E0917B04F091CC
:1027E0007C0490819A3279F7818192818A3310F04A
:1027F000875301C080539A3310F0975301C0905310
:102800008295807F890F8093690490916C0498175A
:1028100009F0AEC084EC93E06CE270E00E941C1EF4
:1028200090937C0480937B04ADE7B4E0FC01319687
:1028300086E001900D928150E1F71092830480911F
:102840007B0490917C0401966CE270E00E941C1E57
:10285000FC0190937C0480937B049C012F5F3F4F8D
:10286000818180938504813409F082C01092AE0387
:102870001092AD03C9016CE270E00E941C1EFC01C5
:1028800090937C0480937B0481819281A381B481A5
:102890008093560490935704A0935804B09359041E
:1028A0008681978190935B0480935A04CF010196AF
:1028B0006CE270E00E941C1EFC0190937C048093EB
:1028C0007B04818180934704CF0101966CE270E024
:1028D0000E941C1E90937C0480937B04A8E4B4E0C7
:1028E000FC01319685E001900D928150E1F7E09175
:1028F0007B04F0917C048781908590934E048093B3
:102900004D04CF0101966CE270E00E941C1EFC0198
:1029100090937C0480937B04818180934504CF0154
:1029200001966CE270E00E941C1E90937C048093E0
:102930007B0401966CE270E00E941C1E90937C0464
:1029400080937B0401966CE270E00E941C1E9093C1
:102950007C0480937B04AFE4B4E0FC01319686E014
:1029600001900D928150E1F7109255040E94F90BED
:1029700080E8E4ECF3E0DF011D928A95E9F70F901F
:10298000CF91DF9108958AE090E00E94451E8093E8
:102990005C0485B1866085B982E380938000809174
:1029A0005C04882329F080918000806880938000F7
:1029B00088E1809381008AEF90E090938700809374
:1029C00086008091860090918700969587959093D8
:1029D000890080938800809188009091890090936D
:1029E0008B0080938A00089581E090E00E94451E4C
:1029F00064E60E949F1D90936A0382E090E00E942B
:102A0000451E6DE00E949F1D9093680383E090E057
:102A10000E94451E8F718093690380E00E942F05FC
:102A200064EF71E080E090E00E94A60084E090E016
:102A30000E94451E68E10E949F1D9093440485E01A
:102A400090E00E94451E6CE30E949F1D90936804D5
:102A500086E090E00E94451E6CE30E949F1D9093CB
:102A600086048091440460916804409186040E9429
:102A7000A40364EF71E080E090E00E94A60088E08B
:102A800090E00E94451E6CE30E949F1D90934604B7
:102A900087E090E00E94451E68E10E949F1D909390
:102AA0006D0481E08093AA038EE190E00E94451EB0
:102AB0008093BF03805C813838F01092BF038EE1B1
:102AC00090E060E00E944D1E80E28093B60010927C
:102AD000B2008FE78093B30092E09093B00086E05D
:102AE0008093B1009093700078940895FF920F93B3
:102AF0001F938AE08093BE038CE090E00E94451E05
:102B0000182F00E03AE0F32E8091BB03882321F4D4
:102B10008091BC03882319F0F092BE0304C0809119
:102B2000BE038823E9F08091BB0380FD45C08091FE
:102B3000BB0381FF18C01092BB03002361F489E935
:102B400092E00E94070581E0612F70E041E00E9461
:102B5000C0010FE008C08CE090E0612F0E944D1E84
:102B60001092770429C08091BB0382FD04C080913C
:102B7000BC0382FFC9CF1092BB030F3051F41F5F1B
:102B8000143608F010E081E0612F70E041E00E940F
:102B9000C0018091BC0382FFB7CF0E9415027894D8
:102BA0001092B9031092B8038091B8039091B903C1
:102BB0008B349105C8F3A8CF1F910F91FF90089512
:102BC000FF920F931F938AE08093BE038EE190E003
:102BD0000E94451E182F8093BF0300E04AE0F42EA8
:102BE0008091BB03882321F48091BC03882319F0D2
:102BF000F092BE0307C08091BE03882319F410939E
:102C0000BF031EC08091BB0380FD45C08091BB0304
:102C100081FF19C01092BB03002359F482EA92E0AD
:102C20000E94070586E0612F41E00E94940108E0C0
:102C30000AC01093BF038EE190E0612F0E944D1EE9
:102C4000109277042AC08091BB0382FD04C080915A
:102C5000BC0382FFC5CF1092BB03083049F41F5F4D
:102C600010340CF010EC86E0612F41E00E949401DA
:102C70008091BC0382FFB4CF0E9415027894109219
:102C8000B9031092B8038091B8039091B9038B34C3
:102C90009105C8F3A5CF1093BF031F910F91FF902B
:102CA00008950F931F938AE08093BE038BE090E01A
:102CB0000E94451E8093A20310E00AE001C010E0CC
:102CC0008091BB03882321F48091BC03882319F0F1
:102CD0000093BE0304C08091BE03882381F08091DD
:102CE000BB0380FD28C08091BB0381FF0BC0109205
:102CF000BB03112321F40E94A90611E003C0109226
:102D0000770419C08091BB0382FFDACF1092BB0316
:102D10001130A9F690E08091A203882309F491E094
:102D20009093A2030E94A9068BE090E06091A20319
:102D30000E944D1EC5CF1F910F910895FF920F93D2
:102D40001F938AE08093BE038AE090E00E94451EB4
:102D5000082F10E05AE0F52E01C010E08091BB036F
:102D6000882321F48091BC03882319F0F092BE03DC
:102D700004C08091BE03882381F08091BB0380FD55
:102D80002BC08091BB0381FF0BC01092BB031123AA
:102D900021F40E94B50611E003C0109277041CC014
:102DA0008091BB0382FFDACF1092BB031130A9F6EA
:102DB00080E0002309F481E0082F0E94B5068AE034
:102DC00090E0602F0E944D1E0E94C31480EA9FE095
:102DD00061E00E948802C2CF1F910F91FF90089579
:102DE000FF920F931F938AE08093BE0382E190E0ED
:102DF0000E94451E80935D0483E190E00E94451E81
:102E0000809384041092A30310E00AE062E3F62E9C
:102E10008091BB03882321F48091BC03882319F09F
:102E20000093BE0307C08091BE03882319F410925B
:102E3000770430C08091BB0380FD2CC08091BB0320
:102E400081FF2FC01092BB03112351F489EA92E055
:102E50000E94070580915D040E94430311E021C098
:102E6000113051F480EB92E00E94070580918404B8
:102E70000E94430312E015C01092770460915D0434
:102E800082E190E00E944D1E6091840483E190E015
:102E90000E944D1E81E08093A3031F910F91FF902C
:102EA00008958091BB0382FD04C08091BC0382FF22
:102EB000AFCF1092BB03113071F480915D048E5F2F
:102EC00080935D0480915D04833310F000935D0472
:102ED00080915D040FC0123079F4809184048B5F7F
:102EE00080938404809184048B3510F0F0928404E4
:102EF000809184040E9443038091BC0382FF88CFA9
:102F00000E94150278941092B9031092B803809130
:102F1000B8039091B9038B349105C8F379CFCF935F
:102F2000DF9380E090E00E94451E813009F48AC062
:102F300080E090E061E00E944D1E81E090E06BE057
:102F40000E944D1E82E090E061E00E944D1E83E0F1
:102F500090E061E00E944D1E84E090E060E00E94FD
:102F60004D1E85E090E060E00E944D1E86E090E0FE
:102F700060E00E944D1E87E090E06AE00E944D1ED6
:102F800088E090E060E00E944D1E89E090E062E3FE
:102F90000E944D1E8AE090E060E00E944D1E8BE092
:102FA00090E060E00E944D1E8CE090E06AE00E949C
:102FB0004D1E8DE090E068EF0E944D1E8EE090E087
:102FC00060E00E944D1E8FE090E060E00E944D1E88
:102FD00080E190E060E00E944D1E82E190E06AE0B6
:102FE0000E944D1E83E190E06AE50E944D1E81E142
:102FF00090E060E00E944D1EC4E1D0E0FE01E95A7D
:10300000FC4FCE0160810E944D1E2196CD31D1052D
:10301000A9F78DE190E060E00E944D1E80E290E013
:1030200060E00E944D1E8EE190E060E00E944D1E27
:103030008FE190E060E00E944D1E88EB9BE062E033
:103040000E948802DF91CF9108958CE090E00E9469
:10305000451E9CE3899FC00111249093B703809380
:10306000B60387EB92E00E94070583E6809377041E
:1030700078941092B9031092B8038091B80390919C
:10308000B9038C5D9540C8F31092770408951F92A0
:103090000F920FB60F9211242F933F934F935F938C
:1030A0006F937F938F939F93AF93BF93EF93FF9310
:1030B00010926B007894189925C08091BA0381FD15
:1030C00026C078941092B9031092B8038091B80387
:1030D0009091B9030A97D0F3189919C00E9415026C
:1030E00080917404882319F00E94251810C08091E3
:1030F000BA0382608093BA038091BB03826080939D
:10310000BB0305C08091BA038D7F8093BA0381E031
:1031100080936B00FF91EF91BF91AF919F918F9141
:103120007F916F915F914F913F912F910F900FBEC3
:103130000F901F9018951F920F920FB60F921124A7
:103140002F933F934F935F936F937F938F939F93AF
:10315000AF93BF93EF93FF9310926D007894A8956F
:103160004D9922C08091BA0380FD23C078941092BB
:10317000B9031092B8038091B8039091B9030A97EC
:10318000D0F34D9959C00E94150280917404882390
:10319000A1F58091BA0381608093BA038091BB034B
:1031A00081608093BB0305C08091BA038E7F8093BA
:1031B000BA034C993AC08091BA0382FD3DC078941D
:1031C0001092B9031092B8038091B8039091B9039B
:1031D0000A97D0F34C9930C00E94150282E0809388
:1031E000BD0314C04C9B12C08091BA038B7F8093A7
:1031F000BA0380917404882319F00E9425181CC01A
:103200008091BB0384608093BB0316C08091BD0393
:10321000882341F78091BA0384608093BA03809138
:10322000BC0384608093BC0307C01092BC038091F0
:10323000BA038B7F8093BA0380E380936D00FF9184
:10324000EF91BF91AF919F918F917F916F915F911E
:103250004F913F912F910F900FBE0F901F90189597
:10326000EF92FF920F931F93109186030091AF038B
:103270008AE08093BE03FF24EAE0EE2E8091BB0338
:1032800080FDAAC08091BB03882321F48091BC03F8
:10329000882319F0E092BE0304C08091BE03882306
:1032A00069F18091BB0381FF2CC01092BB03FF200A
:1032B00089F4812F602F0E94D70480915F04816080
:1032C00080935F0480916004816080936004FF2498
:1032D000F39417C081E0F81689F4812F602F0E94C3
:1032E000D7048091620481608093620480916304BA
:1032F00081608093630472E0F72E03C0109277041C
:103300006BC08091BB0382FD04C08091BC0382FF2F
:10331000B5CF1092BB0381E0F81659F5812F99279C
:1033200087FD90950D9669E170E00E94CC1D182FE5
:103330001C50812F602F0E94D70480915F04816010
:1033400080935F0480916004816080936004109397
:1033500086038DE090E0612F0E944D1E80EC92E08C
:103360000E94831C812F992787FD90950E94D61C6F
:1033700020C082E0F816E9F4802F90E001966CE31B
:1033800070E00E94CC1D082F812F602F0E94D7046F
:103390008091620481608093620480916304816003
:1033A000809363040093AF038EE090E0602F0E944F
:1033B0004D1E8091BC0382FF61CF0E94150278945C
:1033C0001092B9031092B8038091B8039091B90399
:1033D0008B349105C8F352CF1F910F91FF90EF905E
:1033E00008951F93CF93DF9315BC569A5E9884B7C8
:1033F00014BE90E00E94B91C88E10FB6F894809347
:103400006000109260000FBE2FE088E190E00FB6E0
:10341000F894A895809360000FBE20936000A89553
:103420001092A8038091A8038093A90310927804B6
:103430001092AA0387E690E00E94401C88E480BFB7
:1034400061E070E080E090E00E94A60000B605FE1A
:1034500006C080B7806180BF0E94F414C0C00E9483
:1034600010015B9881E0809369008DBB1092770416
:1034700081E58CBD82E190E00E94451E80935D0451
:1034800083E190E00E94451E8093840489E090E0EF
:103490000E94451E8093670481E190E00E94451ED2
:1034A0008093A3038091A303813019F48091840455
:1034B00002C0809167040E94CB0278948DE090E076
:1034C0000E94451E80938603845F893110F010921C
:1034D00086038EE090E00E94451E8093AF038D33FB
:1034E00010F01092AF030E94C3140E948F170E9425
:1034F0008D028BE090E00E94451E8093A2038FE036
:1035000090E00E94451E80936B0480916B04813291
:10351000C9F484E190E00E94451E882399F0C4E13B
:10352000D0E0CE010E94451EFE01E95AFC4F808387
:103530002196CD31D105A9F78DE190E00E94451E7D
:103540008093AB0380E190E00E94451E8093AC0322
:1035500080E290E00E94451E8093A4038FE190E0FA
:103560000E94451E8093B1038091B103823010F018
:103570001092B10383E68093770489ED92E00E9474
:10358000070580EC9DE061E044E650E00E943D02CA
:1035900064EF71E080E090E00E94A6000E94F414C5
:1035A000A89580EC9DE061E044E650E00E943D0279
:1035B0008FE492E00E94070578941092B90310926C
:1035C000B8038091B8039091B903883C9105C8F382
:1035D0001092770481E0809378040E940D0613E630
:1035E000A89500B605FE03C00E94E300F9CF8091C4
:1035F000BB0380FFC1C01092BB0380917704833668
:1036000051F08091770490E0019661E170E00E94B2
:10361000CC1D8093770480917704883009F474C0BE
:103620008930A0F4843009F442C0853040F48230FF
:1036300069F1833090F5813009F0BDC020C086303B
:1036400009F454C0873008F082C049C08C3009F4B6
:1036500062C08D3038F48A3009F487C08B3008F0AE
:103660006FC036C08E3009F45DC08E3008F476C06D
:103670008F3009F45EC0803109F09DC022C089ED11
:1036800092E00E9407050E940E0795C082EE92E02C
:103690000E9407050E946B128EC08BEE92E00E9482
:1036A00007050E94641181E08093A80384C084EF21
:1036B00092E00E9407050E94431081E08093A903D5
:1036C0007AC08DEF92E00E9407050E94301973C006
:1036D00086E792E00E9407050E94870F6CC086E093
:1036E00093E00E9407050E949E0E65C08FE093E064
:1036F0000E9407058091A303882319F00E94F01609
:103700005AC00E94210F57C088E193E00E9407052C
:103710000E94E01550C081E293E00E9407050E94DC
:10372000511649C08AE293E00E9407050E94ED0C01
:1037300042C083E393E00E9407050E9476153BC0D8
:103740008CE393E00E9407050E949E1634C085E436
:1037500093E00E9407050E941E0E2DC08EE493E0A8
:103760000E9407050E94780D26C087E593E00E941D
:1037700007050E94F30F1FC08091BB0381FD04C0A9
:103780008091BB0382FF17C01092BB031093770494
:1037900081E00E942F05A89578941092B9031092A9
:1037A000B8038091B8039091B903885E9340C8F341
:1037B000A895109277048091AC03813009F010CF66
:1037C0008091C00087FF0CCF0E94AB1309CF1F92DE
:1037D0000F920FB60F9211242F933F934F935F9345
:1037E0006F937F938F939F93AF93BF93EF93FF93C9
:1037F0001DBA89E60E944D1C29B1789478941092E4
:10380000B9031092B8038091B8039091B9030A9755
:10381000D0F389B1247030E090E084709070281764
:10382000390711F40E940D0681E08DBBFF91EF91E5
:10383000BF91AF919F918F917F916F915F914F91C8
:103840003F912F910F900FBE0F901F90189506C0BB
:1038500090E000009F5F9E31E1F781508823C1F71F
:10386000089548EC50E009C020E137E2FA013197B1
:10387000F1F721503040D1F781508823A9F70895FE
:103880009093C5008093C40088E18093C1008EE0CE
:103890008093C200519A50980895982F8091C0004B
:1038A00085FFFCCF9093C60080E090E00895809162
:1038B000C00087FFFCCF8091C60008958091C000B2
:1038C00080780895AC0120E007C08091C00085FF9A
:1038D000FCCF3093C6002F5FFA01E20FF11D349147
:1038E000332399F7662371F08091C00085FFFCCFE8
:1038F0008AE08093C6008091C00085FFFCCF8DE0F8
:103900008093C6000895FC0107C08091C00085FF28
:10391000FCCF31969093C60090819923B1F708951A
:10392000282F982F92959F709A3030F48091C00084
:1039300085FFFCCF905D05C08091C00085FFFCCF66
:10394000995A9093C600822F90E08F7090700A97DA
:103950003CF48091C00085FFFCCF2F70205D06C035
:103960008091C00085FFFCCF2F70295A2093C6009C
:1039700008951F93182F892F0E94901C812F0E9459
:10398000901C1F910895EF92FF920F931F937B015C
:103990008C01C801AA27BB270E94B91CC7010E943D
:1039A000B91C1F910F91FF90EF9008950F931F93F3
:1039B000CF93DF938C01E0E1F7E240E0C0E0D0E09C
:1039C000C801BF010E94B81D262F662329F4442395
:1039D00019F4E130F10549F48091C00085FFFCCF76
:1039E000205D2093C600205341E0CF016AE070E0E3
:1039F0000E94B81D2196C530D10571F0822F90E04C
:103A00009C012E9FC0012F9F900D3E9F900D112471
:103A1000081B190BFB01D4CFDF91CF911F910F91A0
:103A200008954F925F926F927F928F929F92AF9282
:103A3000BF92CF92DF92EF92FF920F931F93CF939B
:103A4000DF934B015C01E12C9AECF92E9AE9092FE6
:103A50009BE3192F4424C0E0D0E0C501B401A801C4
:103A600097010E94DF1DD22E222341F4442031F41D
:103A700081E0E816F1040105110561F48091C000B0
:103A800085FFFCCF80E3D80ED092C60080EDD80E23
:103A900044244394C801B7012AE030E040E050E0FC
:103AA0000E94DF1DC22E732E642E552E2196CA3021
:103AB000D105A9F06D2D70E080E090E0A80197019C
:103AC0000E94801D861A970AA80AB90A2C2D372D44
:103AD000462D552DC901DA017C018D01BECFDF9144
:103AE000CF911F910F91FF90EF90DF90CF90BF90FB
:103AF000AF909F908F907F906F905F904F900895C0
:103B0000629FD001739FF001829FE00DF11D649FC1
:103B1000E00DF11D929FF00D839FF00D749FF00D4D
:103B2000659FF00D9927729FB00DE11DF91F639FEE
:103B3000B00DE11DF91FBD01CF0111240895991B9E
:103B400079E004C0991F961708F0961B881F7A9594
:103B5000C9F78095089587FB082E062687FD819575
:103B600067FD6195ECDF0EF4919507FC8195089552
:103B7000AA1BBB1B51E107C0AA1FBB1FA617B70793
:103B800010F0A61BB70B881F991F5A95A9F78095AF
:103B90009095BC01CD01089597FB092E07260AD008
:103BA00077FD04D0E5DF06D000201AF4709561950A
:103BB0007F4F0895F6F7909581959F4F0895A1E264
:103BC0001A2EAA1BBB1BFD010DC0AA1FBB1FEE1F97
:103BD000FF1FA217B307E407F50720F0A21BB30BE2
:103BE000E40BF50B661F771F881F991F1A9469F75E
:103BF00060957095809590959B01AC01BD01CF01BA
:103C0000089597FB092E05260ED057FD04D0D7DF67
:103C10000AD0001C38F450954095309521953F4FBF
:103C20004F4F5F4F0895F6F7909580957095619589
:103C30007F4F8F4F9F4F0895FC018191861721F090
:103C40008823D9F7992708953197CF010895FB016B
:103C5000DC010D900020E9F711974150504028F009
:103C6000019000200D92C9F708951C920895FB0160
:103C7000DC014150504030F08D910190801919F4D1
:103C80000020B9F7881B990B0895F999FECF92BDD2
:103C900081BDF89A992780B50895262FF999FECF0E
:103CA0001FBA92BD81BD20BD0FB6F894FA9AF99A59
:0A3CB0000FBE01960895F894FFCFAF
:103CBA0073756E646179006D6F6E646179007475F5
:103CCA006573646179007765646E657364790074FD
:103CDA0068757273646179006672696461790073E8
:103CEA0061747572646179006A616E00666562006A
:103CFA006D6172636800617072696C006D61790050
:103D0A006A756E65006A756C79006175677374000F
:103D1A0073657074006F63746F62006E6F76656DA1
:103D2A0000646563656D0020323030302020200049
:103D3A00616C61726D206F6E002066756C6C20205C
:103D4A002000206469616C31202000206469616C64
:103D5A0032202000206469616C33202000206469CD
:103D6A00616C3420200020616D2D706D20200020B0
:103D7A00616D2D706D2E2000206E6F6E65202020E3
:103D8A0000206E6F6E652E2020007573612D313212
:103D9A006872006575722D3234687200766F6C2015
:103DAA006869676800766F6C206C6F7720006473AF
:103DBA0074206175746F00647374206F6E20200024
:103DCA00647374206F666620006164696D206F6E8B
:103DDA0020006164696D206F666600677073206FEA
:103DEA006E202000677073206F666620006F6E2059
:103DFA002038383838006F6666203838383800205E
:103E0A002020202020202000206E6F206770732041
:103E1A000072756C65302030300061646320006286
:103E2A007269746520007365742067707320006777
:103E3A007073206C61742000677073206C6F6E67FA
:103E4A0000244750524D432C002020206D696E7586
:103E5A007400647266742020006272746C6F2000B1
:103E6A0062727468692000736E6F6F7A696E670098
:103E7A000A0D54696D657A6F6E65206F66667365A3
:103E8A007420686F75723A090069636520747562F7
:103E9A00650073657420616C6172007365742074C7
:103EAA00696D650073657420646174650073657477
:103EBA00207A6F6E6500736574206164696D0073A2
:103ECA006574206272697400736574206472667422
:103EDA0000736574207265676E007365742073657C
:103EEA0063730073657420736E6F7A007365742050
:103EFA00766F6C2000736574206473742000736598
:103F0A00742072756C6500736574206C646262005B
:103F1A00313230373330776D030E2F030102020B33
:103F2A00010102010101010001010100000C050764
:103F3A00170C05071701F80800001F003B005A007C
:103F4A0078009700B500D400F300110130014E014A
:00000001FF
