:100000000C9479000C94E91B0C9496000C944D18F8
:100010000C9496000C94A1180C9496000C94130C5C
:100020000C9496000C9496000C9496000C949600F8
:100030000C9496000C9496000C9496000C949600E8
:100040000C94B8070C9496000C9496000C949600AF
:100050000C9496000C94DB020C9496000C942F13D5
:100060000C9496000C949600FA3E1A7ADE8EF62EC8
:100070006078AE1CAA2A3ACEF30AB61E3838B86E9B
:1000800076DA6800FC60DAF266B6BEE0FEF684005E
:100090000E620E200E400C600462086290008080A8
:1000A0008000400020001000101000100008000424
:1000B00000809E00C080C2004202020A001A10188E
:1000C000301032002202020600868084B400040050
:1000D00002000800002000020040CE0003070809CB
:1000E000060A050C04DC000B10120F0D0E1113E7AD
:1000F000000011241FBECFEFD4E0DEBFCDBF13E060
:10010000A0E0B1E0E4EDFCE302C005900D92A23A5C
:10011000B107D9F714E0A2EAB3E001C01D92AD38EF
:10012000B107E1F70E94F7190C94681E0C940000C7
:100130009C0178941092BB031092BA038091BA0389
:100140009091BB0382179307C8F30895EF92FF9233
:100150000F931F937B018C0120ED37E040E050E0CE
:100160000E94821D611571058105910519F461E0F8
:1001700070E01CC0603020E0720721E0820720E0C0
:100180009207A0F0C801B7012AE030E040E050E05B
:100190000E94821D88EC90E005C0FC013197F1F7C8
:1001A0006150704061157105C1F703C0CB01019723
:1001B000F1F71F910F91FF90EF9008950197F1F7DC
:1001C0000895A895089581E08093A9035B9A8CB562
:1001D0008F7B8CBD85B1877D85B95E9815BC1092EB
:1001E0005E0410926800459885B1897F85B98BB10E
:1001F0008F7C8BB928988AB18F7C8AB920985A98BD
:100200005298E1E6F0E090E8908388E08083449A99
:1002100083B7876083BF8895908310824498089540
:100220008EE284B988E48AB989E087B984E38BB91E
:1002300091E095B985E08093680090936B0080E32E
:1002400080936D000895CF93DF93109261048091A5
:1002500049048E3419F41092620403C082E0809342
:100260006204A8E5B4E0C3E6D4E0ED91E053F0E029
:10027000EC57FF4FE491E99384E0AE35B807A9F756
:1002800080916604816080936604DF91CF91089528
:10029000CF93DF9380914704853419F41092610461
:1002A00003C082E080936104AAE4B4E0C2E6D4E033
:1002B000ED91E053F0E0EC57FF4FE491E99384E0D7
:1002C000A135B807A9F78091660481608093660420
:1002D000DF91CF910895CF93DF93362F3150C32F05
:1002E000DD27C7FDD095C80FD11DC05ADB4F252F84
:1002F00016C0842F922F6AE070E00E94BA1DE82F8A
:10030000F0E0EC57FF4FE491E883842F922F6AE0EE
:1003100070E00E94BA1D462F272F3150219737FFDA
:10032000E8CFDF91CF910895A82F262FE82FF0E096
:1003300067FF06C0E05AFB4F82E08083219503C02F
:10034000E05AFB4F1082B0E0822F6AE00E94AD1DA0
:10035000E82FF0E0EC57FF4FE491A05ABB4FE42B9D
:100360001196EC931197822F6AE00E94AD1DE92F40
:10037000F0E0EC57FF4FE491E42B1296EC930895D4
:100380000F931F93CF93DF938B01282F30E0CB0186
:100390006AE070E00E94CE1DC4E8D0E0FE01E60FE6
:1003A000F11DE491205A3B4FE42BD901EC93C80195
:1003B0006AE070E00E94CE1DC80FD11DFE0184913D
:1003C000842BD90111968C93DF91CF911F910F91BE
:1003D0000895A82FB0E0CD018C579F4FFC01849168
:1003E000816080936504A359BC4F6C9187E070E0F5
:1003F00041E00E94C0010895FC0183709070892B38
:1004000039F4CF0164E670E00E94BA1D892B49F4EB
:1004100020E030E0CF0160E971E00E94BA1D892B35
:1004200011F421E030E0822F0895109280001092A4
:100430008100299A2A9878941092BB031092BA03EB
:100440008091BA039091BB030A97D0F32A9A299816
:1004500078941092BB031092BA038091BA039091E2
:10046000BB030A97D0F385B1897F85B982EB80936E
:10047000800088E1809381000895DF92EF92FF92DF
:100480000F931F93D62E8A019C0140E050E060E458
:1004900072E48FE090E00E94031E30938700209367
:1004A000860080918600909187009695879590931D
:1004B0008B0080938A0080918A0090918B009093AA
:1004C000890080938800780100E010E016C08091D8
:1004D0008100826080938100C801B7010E94A6005C
:1004E000809181008D7F8093810085B1897F85B95E
:1004F000C801B7010E94A600DA94DD2041F785B15A
:10050000897F85B91F910F91FF90EF90DF9008953B
:1005100044E650E00E943D0208953D9A459AAAE7BC
:10052000B0E08C9186608C93ECE7F0E08081806491
:100530008083808184608083EEE7F0E08081806149
:1005400080838C9180688C938C9188608C930895C3
:100550008091A503813029F480917A008064809392
:100560007A000895982F80917604882329F080914D
:10057000880480FD0DC002C09B3510F09AE503C0D1
:100580009A3008F49AE087B5891721F097BD08954D
:1005900092E3F9CF08950E94B20283E084BD81E026
:1005A00085BD84B5806884BDEEE6F0E08081816021
:1005B0008083789408951F920F920FB60F921124A2
:1005C0001F932F933F934F935F936F937F938F93DB
:1005D0009F93AF93BF93EF93FF938091A5038130D7
:1005E00009F03FC03091780020917900922F80E08F
:1005F000632F70E0682B792B7093780460937704F5
:1006000083E0623F780718F080915F0405C065368B
:10061000710520F48091860490E01DC0109186043D
:1006200020918604E0915F046456704080E090E081
:1006300030E02E1B3109442737FD4095542F0E948E
:10064000821D2EE833E040E050E00E94E11D812F42
:1006500090E0821B930B90937304809372040E942A
:10066000B202FF91EF91BF91AF919F918F917F91D6
:100670006F915F914F913F912F911F910F900FBEFE
:100680000F901F9018951F93182F87E0612F70E02F
:1006900041E00E94C001812F0E94B2021F91089583
:1006A000CF93DF93C62FD0E0E82FF0E0E053F84F70
:1006B000C330D10510F42C963197242F30E02F5FF2
:1006C0003F4F2E0F3F1FCE01880F991F280F391F54
:1006D000CF019695879596958795280F391FCF015D
:1006E00060E971E00E94BA1D260F371FCF0164E652
:1006F00070E00E94BA1D261B370BAE014F5F5F4FA3
:10070000CA01880F991F840F951F880F991F6AE0EF
:1007100070E00E94BA1DC901860F971F67E070E064
:100720000E94BA1D8F5FDF91CF910895E4E8F0E059
:10073000E80FF11DE4918E2F0895E82FF0E0E95FB6
:10074000FF4FE4918E2F08950F931F93182F062FBC
:1007500080917904882309F07EC08091A6038330BC
:1007600009F442C0843028F4813069F08230F0F41A
:1007700072C0853008F475C0873008F448C08930ED
:1007800008F06FC05CC0842F66E00E94A11D892F15
:1007900090E0880F991FFC01EF56FF4FE491E09322
:1007A000670480579F4FFC01949146C0842F6AE0F4
:1007B0000E94A11D292F30E0220F331FC90181564D
:1007C0009F4FFC0194919093670422563F4FF9018B
:1007D00084918093680440FF44C0926090936704C2
:1007E0008260809368043DC0842F6CE00E94A11D4C
:1007F000892F90E0880F991FFC01EB54FF4FE49183
:10080000E09367048C549F4FFC01949115C01C30F9
:1008100018F4E8E6F0E002C0E7E7F0E0E491E093E6
:100820006704E4E7F0E09491909368048091A60354
:100830008630B9F44170942B9093680412C01092E2
:100840006704109268048091A603883051F44170C7
:100850004093680406C087E0642F70E040E00E9487
:10086000C0011092660484E0602F70E040E00E94B6
:10087000C001109263048091A403882369F5812F3D
:1008800090E00B966CE070E00E94CE1D9C010196FA
:100890006AE070E00E94CE1DE82FF0E0EC57FF4FB9
:1008A000E491E0936204265F3F4F2331310518F451
:1008B0001092610405C0E5E8F0E0E491E093610482
:1008C0001C3020F080916004816003C0809160043E
:1008D0008E7F8093600406C081E0612F70E040E06D
:1008E0000E94C0011F910F9108951F93182F10921D
:1008F0006804109267041092660484E070E040E09F
:100900000E94C001109263048091A403882309F01F
:100910003EC01C3058F08091600481608093600478
:10092000E7E7F0E0E491E09367040AC0E8E6F0E06E
:10093000E491E0936704809160048E7F809360046B
:10094000E4E7F0E0E491E0936804812F90E00B96F7
:100950006CE070E00E94CE1D9C0101966AE070E0A0
:100960000E94CE1DE82FF0E0EC57FF4FE491E0939A
:100970006204265F3F4F2331310518F41092610461
:1009800014C0E5E8F0E0E491E09361040EC0812F2B
:1009900090E0479668E170E00E94CE1DBC016F5F59
:1009A0007F4F81E040E00E94C0011F9108951F9396
:1009B000182FEAE6F0E084918093680471968491A0
:1009C000809367043196E491E093660484E070E0DC
:1009D00040E00E94C00110926304612F772767FDF9
:1009E000709577FF03C0709561957F4F81E040E07F
:1009F0000E94C00117FD04C0809160048D7F03C078
:100A0000809160048260809360041F910895CF9369
:100A1000DF9310926004EC01A1E6B4E0E881EE23DC
:100A2000D9F08E2F81568A3128F4F0E0E95FFF4F2C
:100A3000E49109C08E2F80538A3038F4E82FF0E01B
:100A4000EC57FF4FE491EC9301C01C922196119654
:100A500084E0A936B80711F7DF91CF910895882374
:100A600059F51092600482E08093630480936604D9
:100A70008091A403882351F460916A0381E070E0BF
:100A800040E00E94C00160916B0309C060916B035C
:100A900081E070E040E00E94C00160916A0384E060
:100AA00070E040E00E94C00160916C0387E070E05C
:100AB00040E00E94C0010895813009F0ADC010925D
:100AC00067041092680480916C0360916A034091FE
:100AD0006B030E9450038430C9F0853038F48230B3
:100AE00079F0833080F48130F1F407C08630A1F0D2
:100AF000863078F08730B9F412C080E091E011C000
:100B000087E091E00EC08EE091E00BC086E191E0BD
:100B100008C08FE191E005C088E291E002C08FE259
:100B200091E00E94070578941092BB031092BA03DB
:100B30008091BA039091BB03885E9340C8F31092F2
:100B40006404109265041092660480916A038630F2
:100B500079F1873070F4833011F1843028F48130DA
:100B6000C1F08230D9F518C08430E1F08530B1F59C
:100B70001CC0893031F18A3028F48730E1F08830A8
:100B800069F51CC08B3019F18B30F0F08C3031F5E9
:100B900021C088E391E020C08CE391E01DC080E497
:100BA00091E01AC086E491E017C08CE491E014C093
:100BB00080E591E011C085E591E00EC08AE591E005
:100BC0000BC080E691E008C085E691E005C08BE6A9
:100BD00091E002C081E791E00E94070560916B03FC
:100BE00087E070E040E00E94C00178941092BB035F
:100BF0001092BA038091BA039091BB03885E934030
:100C0000C8F387E791E00E94070560916C0384E0D8
:100C100070E040E00E94C00108954A9B3EC0809170
:100C20006C04882309F051C081E080936C04109219
:100C3000B9031092B8038091AA03882309F445C030
:100C400080917904882309F040C080E891E00E94F7
:100C5000070583E68093790478941092BB03109281
:100C6000BA038091BA039091BB038C5D9540C8F3A1
:100C700080916F04609148040E94750478941092EA
:100C8000BB031092BA038091BA039091BB038C5DB1
:100C90009540C8F310927904089580916C048823DC
:100CA000A1F010926C041092B9031092B8038091D5
:100CB0007604882351F010927604809181008D7F14
:100CC0008093810085B1866085B908958091A603DF
:100CD000843001F1853048F4813099F0813070F032
:100CE000823091F08330A1F512C08630C9F0863091
:100CF000A0F08730F9F0883059F521C089E891E0FB
:100D00001BC082E991E018C08BE991E015C084EA2C
:100D100091E012C08DEA91E00FC086EB91E00CC02B
:100D20008FEB91E00E9407058091670481608093BA
:100D30006704089588EC91E00E940705089581ED0D
:100D400091E00E94070580916604816080936604AB
:100D500008958091A403882319F48AED91E002C0DC
:100D600083EE91E00E940705089580915E04882338
:100D700051F08CEE91E00E9407058091680481603B
:100D80008093680404C085EF91E00E94070580917C
:100D9000650481608093650480916604816080931E
:100DA0006604809167048160809367040895809150
:100DB0006D04813219F48EEF91E009C080916D04C9
:100DC000813019F487E092E002C080E192E00E9455
:100DD000070508958091A503813019F489E192E017
:100DE00002C082E292E00E94070508958091AE035E
:100DF000813019F48BE292E002C084E392E00E9419
:100E0000070508958091B303882319F08DE392E0DC
:100E100002C086E492E00E94070508951F938AE0CD
:100E20008093C0031AE08091BD0380FD1DC08091B6
:100E3000BD03882321F48091BE03882319F0109309
:100E4000C00307C08091C003882319F4109279046D
:100E50000BC08091BD0381FFE6CF1092BD0382E6F7
:100E600093E00E940705DFCF1F91089581E58CBDB7
:100E700008959B01AC01F894CA01AA27BB278EBD37
:100E80000DB407FEFDCFBB27A52F942F832F8EBD5A
:100E90000DB407FEFDCF2EBD0DB407FEFDCF409A69
:100EA000409878940895AF92BF92CF92DF92EF92DC
:100EB000FF920F931F9390918903981708F4892F3D
:100EC000E82FF0E0DF01A05ABB4F2C91E452FF4F16
:100ED000E49181E090E002C0880F991FEA95E2F763
:100EE0007C010027F7FC0095102F4091C203509120
:100EF000C3036091C4037091C503A0E0B0E030E08B
:100F0000E1E0AE2EB12CC12CD12CC9010A2E02C0B9
:100F1000959587950A94E2F780FF11C0FD01E9518C
:100F2000FF4FE491B601A50104C0440F551F661F91
:100F3000771FEA95D2F7E42AF52A062B172B11968C
:100F4000A830B10511F74093C2035093C3036093D7
:100F5000C4037093C503C801B7010E9439071F91EC
:100F60000F91FF90EF90DF90CF90BF90AF900895DA
:100F70001F920F920FB60F9211242F933F934F930E
:100F80005F936F937F938F939F93AF93BF93EF93F1
:100F9000FF937894A8958091B4039091B50301963E
:100FA0009093B5038093B403829708F418C110920C
:100FB000B5031092B4038091BA039091BB030196DC
:100FC0009093BB038093BA038091B2030E945307AE
:100FD0002091B2032F5F2093B2034091B30330E01E
:100FE0008091890390E0840F911D8217930714F478
:100FF0001092B2038091A603843041F58091790468
:10100000882321F58091A7038F5F8093A7038739F9
:10101000E8F01092A7038091BA039091BB0367EAAE
:1010200070E00E94BA1DCB0166E070E00E94BA1D1C
:10103000880F991FFC01E153FF4FE491E09367048F
:1010400082539F4FFC0184918093680480917604C1
:10105000882309F4C4C08091B8039091B903892B07
:1010600009F0BDC08091B6039091B70301969093AB
:10107000B7038093B6038B35910508F4B0C0109286
:10108000B7031092B60380917B0490917C04019683
:1010900090937C0480937B0480917B0490917C04EA
:1010A0008155964470F0109276041092B903109214
:1010B000B803809181008D7F8093810085B1866027
:1010C00085B980917404909175040196909375048C
:1010D0008093740420917404309175048091890484
:1010E00090918A048217930750F51092750410921C
:1010F0007404809174049091750490938C0480938F
:101100008B048091890490918A04459748F08091DE
:10111000890490918A04449790938A048093890467
:101120008091700490917104449748F48091700408
:101130009091710402969093710480937004809151
:101140008B0490918C04019690938C0480938B0473
:1011500020918B0430918C048091700490917104E3
:1011600082179307E0F180918B0490918C049C018D
:10117000220F331F280F391F220F331F220F331F57
:1011800024553E4F40E050E060E472E48FE090E090
:101190000E94031E30938700209386008091860072
:1011A000909187009695879590938B0080938A0005
:1011B00080918A0090918B009093890080938800A1
:1011C00080918B0490918C0480FF04C080918100F9
:1011D000826003C0809181008D7F80938100FF91A8
:1011E000EF91BF91AF919F918F917F916F915F919F
:1011F0004F913F912F910F900FBE0F901F90189518
:101200008EBD0DB407FEFDCF0895FC0153815051F2
:1012100082814AE0849FC0011124580F7481658146
:10122000309188032091AD03230F20518181280F35
:101230008081849FC0011124280F2093460480914F
:10124000B10337FF02C0581B01C0580F50936A0406
:1012500060518AE0789FC0011124680F6093880470
:1012600081E08093AA030895FC014181405180816F
:101270005AE0859FC0011124480F3381305182818B
:10128000859FC0011124380F258120518481859FBD
:10129000C0011124280F40936B0330936A032093FD
:1012A0006C0381E08093AB03089581E08093760422
:1012B0001092B9031092B80388EC90E090938A04DE
:1012C00080938904109275041092740482E090E077
:1012D000909371048093700410927C0410927B04AC
:1012E00080917B0490917C049093B7038093B60324
:1012F0000895982F80916C04882361F080916F0489
:10130000891741F480914804861721F4442311F48D
:101310000E9455090895CF92DF92EF92FF920F93AA
:101320001F93782FE62FF22EC02EDE2CF0E0EE0F6A
:10133000FF1FE857FC4F80819181840F911D8C0124
:1013400020E030E0472F50E0CA0183709070892B75
:1013500031F4872F64E60E94A11D992339F4CA0154
:1013600060E971E00E94CE1D892B21F40F5F1F4FB1
:101370002F4F3F4FC901B80120E831E541E050E06F
:101380000E94821D4F2D50E020E13EE0429F7001FF
:10139000439FF00C529FF00C11240027F7FC00959E
:1013A000102FED0CF11C011D111D2CE3C29E9001AC
:1013B0001124442737FD4095542FE20EF31E041FDD
:1013C000151FE60EF71E081F191FB701C8011F9150
:1013D0000F91FF90EF90DF90CF900895DF92EF9202
:1013E000FF920F931F93182F062FF42ED22EE82F63
:1013F000F0E0EE0FFF1FE857FC4FE08080916C0398
:1014000090E083709070892B19F4123009F4E39402
:1014100080916C03612F41E00E945003081718F07F
:10142000602F681B03C0602F681B695F87E0F89E10
:10143000C0011124482F4650460F01C04750E41602
:10144000E8F380916C03612F2D2D00E0EE240E94C3
:101450008B091F910F91FF90EF90DF9008955F929D
:101460006F927F928F929F92AF92BF92CF92DF92B4
:10147000EF92FF920F931F93FC0114810581F68078
:10148000E780508480816181428123810E94EE093E
:101490005B016C01812F602F4F2D2E2D0E94EE09D4
:1014A0003B014C0180916C0360916A0340916B0396
:1014B0002091460400916A04E09088040E948B0900
:1014C0006A157B058C059D05ACF0661577058805CA
:1014D000990584F48091AD03882341F580917A04C5
:1014E000813021F510927A045092AD038091460428
:1014F000850D0FC08091AD031816C4F480917A0455
:101500008130A1F410927A041092AD0380914604C8
:101510008519809346048DE190E0652D0E945A1E46
:101520006091460484E090E00E945A1E1F910F9142
:10153000FF90EF90DF90CF90BF90AF909F908F90F3
:101540007F906F905F900895809188048C3354F061
:10155000809188048C538093880480916A048F5F03
:1015600080936A048091880487FF0AC08091880470
:10157000845C8093880480916A04815080936A041B
:1015800080916A048C3354F080916A048C53809368
:101590006A04809146048F5F8093460480916A04B8
:1015A00087FF0AC080916A04845C80936A048091FA
:1015B0004604815080934604809188048823A1F4D6
:1015C00080916A04882381F48091AE03882361F4BA
:1015D0006091460484E090E00E945A1E60916A0483
:1015E00085E090E00E945A1E80914604883184F084
:1015F0008091460488518093460480916B038F5FED
:1016000080936B0360916B0383E090E00E945A1E0D
:101610008091460487FF10C080914604885E8093C5
:10162000460480916B03815080936B0360916B0340
:1016300083E090E00E945A1E80916B03803268F52F
:1016400080916B038F3181F480916A03843029F19A
:1016500080916A03863009F180916A038930E9F04C
:1016600080916A038B30C9F080916B038E3121F435
:1016700080916A03823089F080916B038D31D9F4B7
:1016800080916A038230B9F480916C0390E08053BA
:10169000984F0E94FC01882371F481E080936B03D2
:1016A00080916A038F5F80936A0360916A0382E08E
:1016B00090E00E945A1E80916B03882309F047C076
:1016C00080916A038630D1F0873060F4833029F14D
:1016D000843018F4813090F111C0843079F0853075
:1016E00069F510C08A3018F4883040F40BC08B3094
:1016F00029F08B3038F08C3009F504C080916B03F1
:10170000815E03C080916B03825E80936B03809146
:101710006A03815080936A0314C080916C0390E047
:101720008053984F0E94FC01882321F080916B0325
:10173000835EEBCF80916B03845EE7CF81E0809383
:101740006B0360916A0382E090E00E945A1E8091D0
:101750006A038D3070F080916C038F5F80936C030F
:1017600081E080936A0360916C0381E090E00E94C5
:101770005A1E80916A038823B1F480916A03845FC2
:1017800080936A0380916C03815080936C03609115
:101790006C0381E090E00E945A1E60916A0382E02F
:1017A00090E00E945A1E809188048823E9F4809179
:1017B0006D04813229F48DE693E00E942F0A09C05E
:1017C00080916D04813019F48093AD0302C01092B2
:1017D000AD0380916A04882339F4809146048823FC
:1017E00019F481E080937A0408958091AC038823F2
:1017F000C9F08091560490E08051924020915504A8
:101800004AE0249F90011124820F931F0B9754F0FC
:101810008FE794E00E94050981E594E00E94340975
:101820000E94A40A08951F920F920FB60F921124DE
:101830002F933F934F935F936F937F938F939F93D8
:10184000AF93BF93EF93FF9380E880936100109272
:101850006100809188048F5F809388040E94A40AAD
:1018600080916A048823B9F480918804882321F444
:101870008091C103815805C080918804813019F49A
:101880008FE78093B30080918804823024F48091A4
:10189000B60083FDFCCF8091A903882309F088C09E
:1018A0008091AF039091B0038530910528F40196A3
:1018B0009093B0038093AF0380917904882399F5C6
:1018C0008091AA03882339F48091880480FF03C0A3
:1018D0008FE492E010C08091AE03882379F080916C
:1018E000AF039091B003059748F08091880480FF82
:1018F00005C088E592E00E94070508C08091460473
:1019000060916A04409188040E94A40380916C0451
:10191000882321F080916004826003C0809160047C
:101920008D7F809360048091AA03882341F0809189
:10193000460460916A04409188040E94790980916C
:10194000A503813029F480917A00806480937A0025
:101950008091C003882329F08091C0038150809337
:10196000C0038091BF03882329F08091BF03815079
:101970008093BF038091B8039091B9030097C1F0A1
:101980009C01215030403093B9032093B80320FFCD
:1019900006C08091600482608093600409C08091D9
:1019A00060048D7F80936004232B11F40E945509FD
:1019B000FF91EF91BF91AF919F918F917F916F9127
:1019C0005F914F913F912F910F900FBE0F901F90FD
:1019D00018950F931F938AE08093C00310E00AE0EC
:1019E0008091BD03882321F48091BE03882319F0E0
:1019F0000093C00304C08091C0038823B1F080919C
:101A0000BD0380FD41C08091BD0381FF11C01092D4
:101A1000BD03112321F40E9466061EE009C06091F7
:101A2000A60380E290E00E945A1E109279042CC016
:101A30008091BD0382FD04C08091BE0382FFD0CFA0
:101A40001092BD031E3069F48091A6038F5F8093CE
:101A5000A6038091A603893010F01092A6030E947D
:101A600066068091BE0382FFBBCF0E941502789468
:101A70001092BB031092BA038091BA039091BB03FA
:101A800084369105C8F3ACCF1F910F910895EF9262
:101A9000FF920F931F93CF93DF938C01FF24C4E138
:101AA000D0E0EE24E394F8018081882341F0F394A0
:101AB000FE01E75AFC4FCE0160810E945A1EFF20B2
:101AC00031F0E0927A048DE693E00E942F0A0F5FD6
:101AD0001F4F2196CD31D10531F7DF91CF911F9165
:101AE0000F91FF90EF900895CF92DF92EF92FF92C7
:101AF0000F931F93DF93CF93CDB7DEB729970FB620
:101B0000F894DEBF0FBECDBF8AE08093C003FE0114
:101B1000319689E0DF011D928A95E9F700E010E037
:101B20005AE0C52E7F01DD24D3948091BD03882324
:101B300021F48091BE03882319F0C092C0030BC02A
:101B40008091C003882339F4CE0101960E94470D8D
:101B50001092790460C08091BD0380FD1DC080910A
:101B6000BD0381FF1EC01092BD03002349F481E62E
:101B700092E00E940705812F0E94E9010DE011C04B
:101B80000D3041F41F5F193008F010E0812F0E94E2
:101B9000E90107C010927904CE0101960E94470D19
:101BA0003AC08091BD0382FD04C08091BE0382FFD4
:101BB000BCCF1092BD030D30D9F4A12FB0E09D0130
:101BC00023593C4FF90180818F5F8083FD01E158EB
:101BD000FC4F9081981730F4FD01EA58FC4F80814A
:101BE000F9018083AE0DBF1DDC92812F0E94E901B7
:101BF0008091BE0382FF99CF0E94150278941092C3
:101C0000BB031092BA038091BA039091BB038B344B
:101C10009105C8F38ACF29960FB6F894DEBF0FBEA0
:101C2000CDBFCF91DF911F910F91FF90EF90DF908B
:101C3000CF900895DF92EF92FF920F931F938AE067
:101C40008093C00300E07AE0D72EFF24F39461E292
:101C5000E62E8091BD03882321F48091BE03882362
:101C600019F0D092C00304C08091C003882381F092
:101C70008091BD0380FD58C08091BD0381FF0BC0E2
:101C80001092BD03002321F40E94D70607E003C091
:101C90001092790449C08091BD0382FFDACF10927F
:101CA000BD030730B1F610916D04113059F4E09284
:101CB0006D0410937A048DE693E00E942F0A10932E
:101CC0007A0429C080916D04813261F410926D0410
:101CD0008091AD031816FCF41092AD038091460478
:101CE00081500BC0F0926D048091AD03882399F46C
:101CF000F092AD03809146048F5F8093460460911B
:101D0000AD038DE190E00E945A1E6091460484E08C
:101D100090E00E945A1E0E94D70660916D048FE0E9
:101D200090E00E945A1E95CF1F910F91FF90EF9067
:101D3000DF9008950F931F938AE08093C00310E013
:101D40000AE08091BD03882321F48091BE0388239B
:101D500019F00093C00305C08091C003882309F4E3
:101D60004AC08091BD0380FD65C08091BD0381FFA5
:101D700045C01092BD03112321F40E94EA0615E02C
:101D80003DC01530B1F48AE692E00E94070540910B
:101D900077045091780481E064E00E946B014091E7
:101DA00072045091730486E063E00E946B0113E0BB
:101DB00025C01330D1F48091A503813029F480919E
:101DC0007A00806480937A0040917704509178047F
:101DD00081E064E00E946B014091720450917304B1
:101DE00086E063E00E946B0109C06091A50381E178
:101DF00090E00E945A1E109279041CC08091BD038D
:101E000082FF9FCF1092BD03153009F09ACF8091C9
:101E1000A503813019F41092A50303C081E08093DB
:101E2000A5030E94EA066091A50381E190E00E946B
:101E30005A1E87CF1F910F9108950F931F938AE029
:101E40008093C00310E00AE08091BD03882321F451
:101E50008091BE03882319F00093C00304C08091D1
:101E6000C0038823B1F08091BD0380FD49C08091FB
:101E7000BD0381FF17C01092BD03112351F48FE6FB
:101E800092E00E940705809169040E94430311E0DB
:101E900009C0109279046091690489E090E00E9481
:101EA0005A1E2EC08091BD0382FD04C08091BE03E6
:101EB00082FFCACF1092BD03113079F4809169047A
:101EC0008B5F80936904809169048B3510F00093D7
:101ED0006904809169040E9443038091BE0382FFDC
:101EE000B3CF0E94150278941092BB031092BA03EC
:101EF0008091BA039091BB038B349105C8F3A4CFB2
:101F00001F910F9108950F931F938AE08093C00350
:101F100010E00AE08091BD03882321F48091BE0384
:101F2000882319F00093C00307C08091C003882361
:101F300019F41092790450C08091BD0380FD4CC00B
:101F40008091BD0381FF2DC01092BD03812F90E0D1
:101F5000019666E070E00E94CE1D182F8230A1F03D
:101F6000833028F4882351F08130D9F40AC08430BA
:101F700099F0843070F08530A1F411C086E792E0CA
:101F800005C00E94F6060DC08FE792E00E9407058B
:101F900008C00E94230105C088E892E0F7CF0E94A4
:101FA00048018091BD0382FFB5CF1092BD0311306F
:101FB00009F0B0CF8091AE03813019F41092AE03D6
:101FC00002C01093AE030E94F6066091AE0380E15A
:101FD00090E00E945A1E9ECF1F910F910895FF928C
:101FE0000F931F938AE08093C00310E0EAE0FE2E77
:101FF00001E08091BD03882321F48091BE038823F2
:1020000019F0F092C00304C08091C0038823B1F09E
:102010008091BD0380FD2FC08091BD0381FF11C061
:102020001092BD03112321F40E9402071AE009C097
:102030006091B3038FE190E00E945A1E10927904E0
:102040001AC08091BD0382FFD4CF1092BD031A3015
:1020500081F68091B303882319F01092B30302C074
:102060000093B3030E9402076091B3038FE190E0F5
:102070000E945A1EBECF1F910F91FF900895FF92AC
:102080000F931F938AE08093C00310E0FAE0FF2EC5
:1020900001E08091BD03882321F48091BE03882351
:1020A00019F0F092C00307C08091C003882319F48F
:1020B0001092790401C18091BD0380FDFDC0809123
:1020C000BD0381FF83C01092BD031123A9F4809149
:1020D000A403882311F012E001C011E080E00E9407
:1020E0002F05809161048160809361048091620476
:1020F0008160809362046AC0113029F48091A40346
:10210000882339F020C01230E1F48091A40381309B
:10211000A9F48091A403882311F011E001C012E01A
:1021200080E00E942F0580916404816080936404A4
:102130008091650481608093650448C0882339F0EC
:1021400015C0113099F48091A403813079F480E0B6
:102150000E942F05809167048160809367048091BD
:10216000680481608093680413E030C083E6809344
:10217000790480E00E942F0578941092BB0310929E
:10218000BA038091BA039091BB038C5D9540C8F36C
:102190001092790411E010937A048DE693E00E9486
:1021A0002F0A10937A0460916C0381E090E00E9402
:1021B0005A1E60916A0382E090E00E945A1E60916C
:1021C0006B0383E090E00E945A1E76C08091BD03AD
:1021D00082FD04C08091BE0382FF5BCF1092BD03DD
:1021E000113099F480916A038F5F80936A03809124
:1021F0006A038D3010F010936A0380E00E942F056F
:102200008091A403882301F514C0123041F5809118
:102210006B038F5F80936B0380916B03803210F0B0
:1022200000936B0380E00E942F058091A40381300E
:1022300059F480916104816080936104809162040B
:1022400081608093620426C08091640481608093E1
:102250006404809165048160809365041BC0133021
:10226000C9F480916C038F5F80936C0380916C0341
:1022700064E60E94A11D90936C0380E00E942F05EC
:102280008091670481608093670480916804816015
:10229000809368048091BE0382FFFBCE0E941502EA
:1022A00078941092BB031092BA038091BA03909174
:1022B000BB03CC97D0F3EDCE1F910F91FF90089503
:1022C000DF92EF92FF920F931F9300914604E090EC
:1022D0006A04F09088048AE08093C00310E0AAE0CA
:1022E000DA2E8091BD0380FDECC08091BD03882370
:1022F00021F48091BE03882319F0D092C00307C057
:102300008091C003882319F410927904DAC0809177
:10231000BD0381FF67C01092BD031123B9F4009182
:102320004604E0906A04F0908804802F6E2D4F2DB3
:102330000E94A40380916104816080936104809174
:10234000620481608093620411E04CC0113089F412
:10235000802F6E2D4F2D0E94A40380916404816014
:10236000809364048091650481608093650412E029
:1023700039C0123089F4802F6E2D4F2D0E94A40396
:102380008091670481608093670480916804816014
:102390008093680413E026C000934604E0926A0428
:1023A000F09288041092790411E010937A048DE67B
:1023B00093E00E942F0A10937A04009346046091E0
:1023C000460484E090E00E945A1E60916A0485E011
:1023D00090E00E945A1E6091880486E090E00E947E
:1023E0005A1E6FC08091BD0382FD04C08091BE0360
:1023F00082FF77CF1092BD031130C9F4802F90E097
:10240000019668E170E00E94CE1D082F6E2D4F2DC1
:102410000E94A40380916104816080936104809193
:1024200062048160809362040093460437C01230D6
:10243000D1F48E2D90E001966CE370E00E94CE1DE9
:10244000E82E802F6E2D4F2D0E94A40380916404EE
:102450008160809364048091650481608093650449
:10246000E0926A041BC01330C9F48F2D90E00196EE
:102470006CE370E00E94CE1DF82E802F6E2D4F2D44
:102480000E94A40380916704816080936704809117
:102490006804816080936804F09288048091BE0390
:1024A00082FF1FCF0E94150278941092BB031092F6
:1024B000BA038091BA039091BB038B349105C8F3A2
:1024C00010CF1F910F91FF90EF90DF900895EF9242
:1024D000FF920F931F9310916F04009148048AE0BC
:1024E0008093C003FF248AE0E82E8091BD0380FD25
:1024F000B1C08091BD03882321F48091BE0388235D
:1025000019F0E092C00317C08091C003882399F4AA
:102510001092790410936F040093480460916F0443
:1025200087E090E00E945A1E6091480488E090E0A5
:102530000E945A1E8FC08091BD0381FF3CC0109243
:10254000BD03FF2089F4812F602F0E9475048091C4
:102550006104816080936104809162048160809352
:102560006204FF24F39427C081E0F81689F4812FD8
:10257000602F0E94750480916404816080936404DC
:1025800080916504816080936504B2E0FB2E13C0E6
:1025900010936F040093480460916F0487E090E00B
:1025A0000E945A1E6091480488E090E00E945A1EE2
:1025B000109279044FC08091BD0382FD04C08091C8
:1025C000BE0382FF92CF1092BD0381E0F816B1F4F2
:1025D000812F90E0019668E170E00E94CE1D182FD7
:1025E000602F0E9475048091610481608093610472
:1025F0008091620481608093620419C082E0F816C1
:10260000B1F4802F90E001966CE370E00E94CE1D43
:10261000082F812F602F0E947504809164048160CF
:102620008093640480916504816080936504809147
:10263000BE0382FF5ACF0E94150278941092BB030A
:102640001092BA038091BA039091BB038B34910529
:10265000C8F34BCF1F910F91FF90EF9008951F92F9
:102660000F920FB60F9211242F933F934F935F93C6
:102670006F937F938F939F93AF93BF93EF93FF934A
:1026800000B605FE4AC08091A903882309F04EC018
:102690005B9A85B1877D85B95E988CB58F7B8CBD43
:1026A0008091AA038823B9F06091460484E090E009
:1026B0000E945A1E60916A0485E090E00E945A1EB2
:1026C0006091880486E090E00E945A1E80ED97E0B9
:1026D00061E00E9488028091AB038823B9F0609189
:1026E0006C0381E090E00E945A1E60916A0382E0D0
:1026F00090E00E945A1E60916B0383E090E00E947C
:102700005A1E80ED97E062E00E94880215BC10928C
:102710005E0410926800459804C08091A903882344
:1027200029F0E091A203F091A3030995FF91EF91A5
:10273000BF91AF919F918F917F916F915F914F91D9
:102740003F912F910F900FBE0F901F901895DF9320
:10275000CF930F92CDB7DEB78091C00087FF15C130
:102760008091C6008983E6ECF3E001900020E9F750
:102770003197E65CF3409E2FEE2319F4843209F082
:1027800004C197FDFBC08D3051F086EC93E0BE0193
:102790006F5F7F4F41E050E00E94341EF6C086EC30
:1027A00093E061E972E00E941E1E86EC93E063E90B
:1027B00072E047E050E00E94441E009709F0DEC03E
:1027C00087EC93E090937E0480937D0410926E04D6
:1027D0000AC080916E04892780936E043196F0932D
:1027E0007E04E0937D04E0917D04F0917E0490816D
:1027F0009A3279F7818192818A3310F0875301C030
:1028000080539A3310F0975301C090538295807F84
:10281000890F80936B0490916E04981709F0AEC0F5
:1028200086EC93E06CE270E00E94291E90937E0497
:1028300080937D04AFE7B4E0FC01319686E001901F
:102840000D928150E1F71092850480917D04909162
:102850007E0401966CE270E00E94291EFC019093B8
:102860007E0480937D049C012F5F3F4F8181809384
:102870008704813409F082C01092B0031092AF0334
:10288000C9016CE270E00E94291EFC0190937E0455
:1028900080937D0481819281A381B48180935804C7
:1028A00090935904A0935A04B0935B048681978156
:1028B00090935D0480935C04CF0101966CE270E01C
:1028C0000E94291EFC0190937E0480937D048181E7
:1028D00080934904CF0101966CE270E00E94291EAA
:1028E00090937E0480937D04AAE4B4E0FC013196C9
:1028F00085E001900D928150E1F7E0917D04F09127
:102900007E04878190859093500480934F04CF017B
:1029100001966CE270E00E94291EFC0190937E04F7
:1029200080937D04818180934704CF0101966CE2FE
:1029300070E00E94291E90937E0480937D0401968E
:102940006CE270E00E94291E90937E0480937D04C7
:1029500001966CE270E00E94291E90937E048093A1
:102960007D04A1E5B4E0FC01319686E001900D9272
:102970008150E1F7109257040E94F50B80E8E6ECD5
:10298000F3E0DF011D928A95E9F70F90CF91DF9177
:1029900008958AE090E00E94521E80935E0485B103
:1029A000866085B982E38093800080915E048823ED
:1029B00029F08091800080688093800088E1809376
:1029C00081008AEF90E09093870080938600809149
:1029D00086009091870096958795909389008093C3
:1029E0008800809188009091890090938B0080935B
:1029F0008A00089581E090E00E94521E64E60E94E1
:102A0000A11D90936C0382E090E00E94521E6DE045
:102A10000E94A11D90936A0383E090E00E94521EE1
:102A20008F7180936B0380E00E942F0564EF71E04B
:102A300080E090E00E94A60084E090E00E94521E98
:102A400068E10E94A11D9093460485E090E00E94F9
:102A5000521E6CE30E94A11D90936A0486E090E0F0
:102A60000E94521E6CE30E94A11D909388048091E5
:102A7000460460916A04409188040E94A40364EFB4
:102A800071E080E090E00E94A60088E090E00E9463
:102A9000521E6CE30E94A11D9093480487E090E0D1
:102AA0000E94521E68E10E94A11D90936F0481E074
:102AB0008093AC038EE190E00E94521E8093C1038C
:102AC000805C813838F01092C1038EE190E060E0C4
:102AD0000E945A1E80E28093B6001092B2008FE7E7
:102AE0008093B30092E09093B00086E08093B100B1
:102AF0009093700078940895FF920F931F938AE04B
:102B00008093C0038CE090E00E94521E182F00E0DA
:102B10003AE0F32E8091BD03882321F48091BE0317
:102B2000882319F0F092C00304C08091C003882369
:102B3000E9F08091BD0380FD45C08091BD0381FF18
:102B400018C01092BD03002361F48BE992E00E944B
:102B5000070581E0612F70E041E00E94C0010FE0B5
:102B600008C08CE090E0612F0E945A1E10927904F8
:102B700029C08091BD0382FD04C08091BE0382FF05
:102B8000C9CF1092BD030F3051F41F5F143608F007
:102B900010E081E0612F70E041E00E94C00180916F
:102BA000BE0382FFB7CF0E94150278941092BB0338
:102BB0001092BA038091BA039091BB038B349105B4
:102BC000C8F3A8CF1F910F91FF900895FF920F9324
:102BD0001F938AE08093C0038EE190E00E94521E12
:102BE000182F8093C10300E04AE0F42E8091BD03CA
:102BF000882321F48091BE03882319F0F092C0034A
:102C000007C08091C003882319F41093C1031EC02C
:102C10008091BD0380FD45C08091BD0381FF19C037
:102C20001092BD03002359F484EA92E00E94070544
:102C300086E0612F41E00E94940108E00AC01093F1
:102C4000C1038EE190E0612F0E945A1E1092790418
:102C50002AC08091BD0382FD04C08091BE0382FF23
:102C6000C5CF1092BD03083049F41F5F10340CF03B
:102C700010EC86E0612F41E00E9494018091BE0338
:102C800082FFB4CF0E94150278941092BB03109279
:102C9000BA038091BA039091BB038B349105C8F3BA
:102CA000A5CF1093C1031F910F91FF9008950F932B
:102CB0001F938AE08093C0038BE090E00E94521E35
:102CC0008093A40310E00AE001C010E08091BD03EE
:102CD000882321F48091BE03882319F00093C00358
:102CE00004C08091C003882381F08091BD0380FDE2
:102CF00028C08091BD0381FF0BC01092BD0311233A
:102D000021F40E94A90611E003C01092790419C0B1
:102D10008091BD0382FFDACF1092BD031130A9F676
:102D200090E08091A403882309F491E09093A40398
:102D30000E94A9068BE090E06091A4030E945A1EB5
:102D4000C5CF1F910F910895FF920F931F938AE0B3
:102D50008093C0038AE090E00E94521E082F10E08A
:102D60005AE0F52E01C010E08091BD03882321F4C4
:102D70008091BE03882319F0F092C00304C08091B3
:102D8000C003882381F08091BD0380FD2BC080911A
:102D9000BD0381FF0BC01092BD03112321F40E94DB
:102DA000B50611E003C0109279041CC08091BD03E8
:102DB00082FFDACF1092BD031130A9F680E0002324
:102DC00009F481E0082F0E94B5068AE090E0602FA8
:102DD0000E945A1E0E94C91480EA9FE061E00E948E
:102DE0008802C2CF1F910F91FF900895FF920F9319
:102DF0001F938AE08093C00382E190E00E94521EFC
:102E000080935F0483E190E00E94521E80938604C9
:102E10001092A50310E00AE062E3F62E8091BD0354
:102E2000882321F48091BE03882319F00093C00306
:102E300007C08091C003882319F41092790430C030
:102E40008091BD0380FD2CC08091BD0381FF2FC008
:102E50001092BD03112351F48BEA92E00E94070502
:102E600080915F040E94430311E021C0113051F4AE
:102E700082EB92E00E940705809186040E94430342
:102E800012E015C01092790460915F0482E190E035
:102E90000E945A1E6091860483E190E00E945A1EAF
:102EA00081E08093A5031F910F91FF900895809179
:102EB000BD0382FD04C08091BE0382FFAFCF10929C
:102EC000BD03113071F480915F048E5F80935F04C5
:102ED00080915F04833310F000935F0480915F045E
:102EE0000FC0123079F4809186048B5F8093860442
:102EF000809186048B3510F0F092860480918604D0
:102F00000E9443038091BE0382FF88CF0E94150276
:102F100078941092BB031092BA038091BA039091F7
:102F2000BB038B349105C8F379CFCF93DF9380E057
:102F300090E00E94521E813009F48AC080E090E047
:102F400061E00E945A1E81E090E06BE00E945A1EF0
:102F500082E090E061E00E945A1E83E090E061E030
:102F60000E945A1E84E090E060E00E945A1E85E0B4
:102F700090E060E00E945A1E86E090E060E00E94CF
:102F80005A1E87E090E06AE00E945A1E88E090E0B6
:102F900060E00E945A1E89E090E062E30E945A1E9F
:102FA0008AE090E060E00E945A1E8BE090E060E0D2
:102FB0000E945A1E8CE090E06AE00E945A1E8DE04A
:102FC00090E068EF0E945A1E8EE090E060E00E9460
:102FD0005A1E8FE090E060E00E945A1E80E190E06F
:102FE00060E00E945A1E82E190E06AE00E945A1E50
:102FF00083E190E06AE50E945A1E81E190E060E082
:103000000E945A1EC4E1D0E0FE01E75AFC4FCE01F7
:1030100060810E945A1E2196CD31D105A9F78DE11C
:1030200090E060E00E945A1E80E290E060E00E9422
:103030005A1E8EE190E060E00E945A1E8FE190E0FF
:1030400060E00E945A1E88EB9BE062E00E948802CA
:10305000DF91CF9108958CE090E00E94521E9CE396
:10306000899FC00111249093B9038093B80389EB21
:1030700092E00E94070583E6809379047894109289
:10308000BB031092BA038091BA039091BB038C5D8D
:103090009540C8F31092790408951F920F920FB6CD
:1030A0000F9211242F933F934F935F936F937F93CE
:1030B0008F939F93AF93BF93EF93FF9310926B0007
:1030C0007894189925C08091BC0381FD26C078941E
:1030D0001092BB031092BA038091BA039091BB0384
:1030E0000A97D0F3189919C00E94150280917604AE
:1030F000882319F00E942B1810C08091BC038260B5
:103100008093BC038091BD0382608093BD0305C0A2
:103110008091BC038D7F8093BC0381E080936B0022
:10312000FF91EF91BF91AF919F918F917F916F919F
:103130005F914F913F912F910F900FBE0F901F9075
:1031400018951F920F920FB60F9211242F933F9351
:103150004F935F936F937F938F939F93AF93BF939F
:10316000EF93FF9310926D007894A8954D9922C02B
:103170008091BC0380FD23C078941092BB03109211
:10318000BA038091BA039091BB030A97D0F34D998B
:1031900059C00E941502809176048823A1F5809180
:1031A000BC0381608093BC038091BD0381608093E8
:1031B000BD0305C08091BC038E7F8093BC034C99F6
:1031C0003AC08091BC0382FD3DC078941092BB034D
:1031D0001092BA038091BA039091BB030A97D0F37F
:1031E0004C9930C00E94150282E08093BF0314C046
:1031F0004C9B12C08091BC038B7F8093BC03809159
:103200007604882319F00E942B181CC08091BD03FE
:1032100084608093BD0316C08091BF03882341F76B
:103220008091BC0384608093BC038091BE03846062
:103230008093BE0307C01092BE038091BC038B7FB6
:103240008093BC0380E380936D00FF91EF91BF9169
:10325000AF919F918F917F916F915F914F913F912E
:103260002F910F900FBE0F901F901895EF92FF9225
:103270000F931F93109188030091B1038AE080930C
:10328000C003FF24EAE0EE2E8091BD0380FDAAC0BA
:103290008091BD03882321F48091BE03882319F017
:1032A000E092C00304C08091C003882369F180913B
:1032B000BD0381FF2CC01092BD03FF2089F4812F34
:1032C000602F0E94D7048091610481608093610423
:1032D00080916204816080936204FF24F39417C09C
:1032E00081E0F81689F4812F602F0E94D704809125
:1032F000640481608093640480916504816080939C
:10330000650472E0F72E03C0109279046BC08091BF
:10331000BD0382FD04C08091BE0382FFB5CF109231
:10332000BD0381E0F81659F5812F992787FD909507
:103330000D9669E170E00E94CE1D182F1C50812F60
:10334000602F0E94D70480916104816080936104A2
:1033500080916204816080936204109388038DE001
:1033600090E0612F0E945A1E82EC92E00E94851C20
:10337000812F992787FD90950E94D81C20C082E05C
:10338000F816E9F4802F90E001966CE370E00E945B
:10339000CE1D082F812F602F0E94D70480916404D6
:1033A00081608093640480916504816080936504EA
:1033B0000093B1038EE090E0602F0E945A1E80912E
:1033C000BE0382FF61CF0E94150278941092BB0366
:1033D0001092BA038091BA039091BB038B3491058C
:1033E000C8F352CF1F910F91FF90EF9008951F9354
:1033F000CF93DF9315BC569A5E9884B714BE90E0C5
:103400000E94BB1C88E10FB6F89480936000109274
:1034100060000FBE2FE088E190E00FB6F894A89509
:10342000809360000FBE20936000A8951092AA03BD
:103430008091AA038093AB0310927A041092AC039C
:1034400087E690E00E94421C88E480BF61E070E063
:1034500080E090E00E94A60000B605FE06C080B79E
:10346000806180BF0E94FA14C0C00E9410015B9866
:1034700081E0809369008DBB1092790481E58CBD59
:1034800082E190E00E94521E80935F0483E190E00D
:103490000E94521E8093860489E090E00E94521E92
:1034A0008093690481E190E00E94521E8093A503FD
:1034B0008091A503813019F48091860402C0809127
:1034C00069040E94CB0278948DE090E00E94521E25
:1034D00080938803845F893110F0109288038EE016
:1034E00090E00E94521E8093B1038D3310F0109231
:1034F000B1030E94C9140E9495170E948D028BE0AF
:1035000090E00E94521E8093A4038FE090E00E94FE
:10351000521E80936D0480916D048132C9F484E160
:1035200090E00E94521E882399F0C4E1D0E0CE01C1
:103530000E94521EFE01E75AFC4F80832196CD3136
:10354000D105A9F78DE190E00E94521E8093AD0352
:1035500080E190E00E94521E8093AE0380E290E0F2
:103560000E94521E8093A6038FE190E00E94521E9B
:103570008093B3038091B303823010F01092B303B1
:1035800083E6809379048BED92E00E94070580EC3E
:103590009DE061E044E650E00E943D0264EF71E08E
:1035A00080E090E00E94A6000E94FA14A89580ECAA
:1035B0009DE061E044E650E00E943D028FE492E02D
:1035C0000E94070578941092BB031092BA03809171
:1035D000BA039091BB03883C9105C8F3109279041B
:1035E00081E080937A040E940D0613E6A89500B648
:1035F00005FE03C00E94E300F9CF8091BD0380FF68
:10360000C1C01092BD0380917904833651F080913E
:10361000790490E0019661E170E00E94CE1D8093F4
:10362000790480917904883009F474C08930A0F459
:10363000843009F442C0853040F4823069F183302F
:1036400090F5813009F0BDC020C0863009F454C027
:10365000873008F082C049C08C3009F462C08D30D8
:1036600038F48A3009F487C08B3008F06FC036C058
:103670008E3009F45DC08E3008F476C08F3009F4C6
:103680005EC0803109F09DC022C08BED92E00E94A7
:1036900007050E940E0795C084EE92E00E94070580
:1036A0000E9467128EC08DEE92E00E9407050E9474
:1036B000601181E08093AA0384C086EF92E00E94AB
:1036C00007050E943F1081E08093AB037AC08FEF23
:1036D00092E00E9407050E94361973C086E792E0C7
:1036E0000E9407050E94830F6CC088E093E00E944F
:1036F00007050E949A0E65C081E193E00E940705CC
:103700008091A503882319F00E94F6165AC00E94E2
:103710001D0F57C08AE193E00E9407050E94E6153D
:1037200050C083E293E00E9407050E94571649C0EB
:103730008CE293E00E9407050E94E90C42C085E3F9
:1037400093E00E9407050E947C153BC08EE393E046
:103750000E9407050E94A41634C087E493E00E94EB
:1037600007050E941A0E2DC080E593E00E94070510
:103770000E94740D26C089E593E00E9407050E940F
:10378000EF0F1FC08091BD0381FD04C08091BD0378
:1037900082FF17C01092BD031093790481E00E944C
:1037A0002F05A89578941092BB031092BA038091CC
:1037B000BA039091BB03885E9340C8F3A89510921A
:1037C00079048091AE03813009F010CF0E94A713D5
:1037D0000DCF1F920F920FB60F9211242F933F938C
:1037E0004F935F936F937F938F939F93AF93BF9309
:1037F000EF93FF931DBA89E60E944F1C29B178947C
:1038000078941092BB031092BA038091BA039091FE
:10381000BB030A97D0F389B1247030E090E0847044
:1038200090702817390711F40E940D0681E08DBBB6
:10383000FF91EF91BF91AF919F918F917F916F9188
:103840005F914F913F912F910F900FBE0F901F905E
:10385000189506C090E000009F5F9E31E1F781500F
:103860008823C1F7089548EC50E009C020E137E211
:10387000FA013197F1F721503040D1F78150882378
:10388000A9F708959093C5008093C40088E18093C0
:10389000C1008EE08093C200519A50980895982FED
:1038A0008091C00085FFFCCF9093C60080E090E03F
:1038B00008958091C00087FFFCCF8091C6000895D5
:1038C0008091C00080780895AC0120E007C080910D
:1038D000C00085FFFCCF3093C6002F5FFA01E20FD6
:1038E000F11D3491332399F7662371F08091C00064
:1038F00085FFFCCF8AE08093C6008091C00085FFE1
:10390000FCCF8DE08093C6000895FC0107C0809134
:10391000C00085FFFCCF31969093C600908199231B
:10392000B1F70895282F982F92959F709A3030F410
:103930008091C00085FFFCCF905D05C08091C000E4
:1039400085FFFCCF995A9093C600822F90E08F702C
:1039500090700A973CF48091C00085FFFCCF2F70D7
:10396000205D06C08091C00085FFFCCF2F70295AD2
:103970002093C60008951F93182F892F0E94921C30
:10398000812F0E94921C1F910895EF92FF920F9336
:103990001F937B018C01C801AA27BB270E94BB1C77
:1039A000C7010E94BB1C1F910F91FF90EF900895DB
:1039B0000F931F93CF93DF938C01E0E1F7E240E098
:1039C000C0E0D0E0C801BF010E94BA1D262F6623C7
:1039D00029F4442319F4E130F10549F48091C00041
:1039E00085FFFCCF205D2093C600205341E0CF012E
:1039F0006AE070E00E94BA1D2196C530D10571F0D1
:103A0000822F90E09C012E9FC0012F9F900D3E9F22
:103A1000900D1124081B190BFB01D4CFDF91CF911E
:103A20001F910F9108954F925F926F927F928F92A4
:103A30009F92AF92BF92CF92DF92EF92FF920F933D
:103A40001F93CF93DF934B015C01E12C9AECF92E8D
:103A50009AE9092F9BE3192F4424C0E0D0E0C50167
:103A6000B401A80197010E94E11DD22E222341F446
:103A7000442031F481E0E816F1040105110561F4F8
:103A80008091C00085FFFCCF80E3D80ED092C600A5
:103A900080EDD80E44244394C801B7012AE030E0F9
:103AA00040E050E00E94E11DC22E732E642E552E80
:103AB0002196CA30D105A9F06D2D70E080E090E02C
:103AC000A80197010E94821D861A970AA80AB90ABE
:103AD0002C2D372D462D552DC901DA017C018D0184
:103AE000BECFDF91CF911F910F91FF90EF90DF90AC
:103AF000CF90BF90AF909F908F907F906F905F908E
:103B00004F900895629FD001739FF001829FE00D56
:103B1000F11D649FE00DF11D929FF00D839FF00D4C
:103B2000749FF00D659FF00D9927729FB00DE11DF8
:103B3000F91F639FB00DE11DF91FBD01CF011124D5
:103B40000895991B79E004C0991F961708F0961BF9
:103B5000881F7A95C9F78095089587FB082E062659
:103B600087FD819567FD6195ECDF0EF4919507FC6B
:103B700081950895AA1BBB1B51E107C0AA1FBB1F5B
:103B8000A617B70710F0A61BB70B881F991F5A95E9
:103B9000A9F780959095BC01CD01089597FB092E5A
:103BA00007260AD077FD04D0E5DF06D000201AF4FE
:103BB000709561957F4F0895F6F7909581959F4F89
:103BC0000895A1E21A2EAA1BBB1BFD010DC0AA1F5E
:103BD000BB1FEE1FFF1FA217B307E407F50720F076
:103BE000A21BB30BE40BF50B661F771F881F991FF1
:103BF0001A9469F760957095809590959B01AC013A
:103C0000BD01CF01089597FB092E05260ED057FD63
:103C100004D0D7DF0AD0001C38F450954095309579
:103C200021953F4F4F4F5F4F0895F6F79095809540
:103C3000709561957F4F8F4F9F4F0895FB01DC0179
:103C40000D900020E9F7119701900D920020E1F707
:103C50000895FC018191861721F08823D9F79927CF
:103C600008953197CF010895FB01DC010D900020EC
:103C7000E9F711974150504028F0019000200D9233
:103C8000C9F708951C920895FB01DC014150504092
:103C900030F08D910190801919F40020B9F7881B3C
:103CA000990B0895F999FECF92BD81BDF89A992795
:103CB00080B50895262FF999FECF1FBA92BD81BD18
:103CC00020BD0FB6F894FA9AF99A0FBE019608959E
:043CD000F894FFCF96
:103CD40073756E646179006D6F6E646179007475DB
:103CE4006573646179007765646E657364790074E3
:103CF40068757273646179006672696461790073CE
:103D040061747572646179006A616E00666562004F
:103D14006D6172636800617072696C006D61790035
:103D24006A756E65006A756C7900617567737400F5
:103D340073657074006F63746F62006E6F76656D87
:103D440000646563656D002032303030202020002F
:103D5400616C61726D206F6E002066756C6C202042
:103D64002000206469616C31202000206469616C4A
:103D740032202000206469616C33202000206469B3
:103D8400616C3420200020616D2D706D2020002096
:103D9400616D2D706D2E2000206E6F6E65202020C9
:103DA40000206E6F6E652E2020007573612D3132F8
:103DB4006872006575722D3234687200766F6C20FB
:103DC4006869676800766F6C206C6F772000647395
:103DD40074206175746F00647374206F6E2020000A
:103DE400647374206F666620006164696D206F6E71
:103DF40020006164696D206F666600677073206FD0
:103E04006E202000677073206F666620006F6E203E
:103E14002038383838006F66662038383838002043
:103E24002020202020202000206E6F206770732027
:103E34000072756C6530203030006164632000626C
:103E4400726974652000736574206770732000675D
:103E54007073206C61742000677073206C6F6E67E0
:103E6400002A00244750524D432C002020206D6925
:103E74006E757400647266742020006272746C6FD4
:103E8400200062727468692000736E6F6F7A696EC5
:103E940067000A0D54696D657A6F6E65206F6666FA
:103EA40073657420686F75723A09006963652074DC
:103EB4007562650073657420616C6172007365746A
:103EC4002074696D650073657420646174650073A2
:103ED4006574207A6F6E6500736574206164696D22
:103EE400007365742062726974007365742064726F
:103EF400667400736574207265676E007365742060
:103F0400736563730073657420736E6F7A007365F1
:103F14007420766F6C2000736574206473742000C1
:103F24007365742072756C6500736574206C6462CB
:103F34006200313230383031776D030E2F030102C5
:103F4400020B010102010101010001010100000C49
:103F54000507170C05071701F80800001F003B00B0
:103F64005A0078009700B500D400F3001101300125
:023F74004E01FC
:00000001FF
