:100000000C94AC000C94491A0C94C9000C949316EF
:100010000C94C9000C94EC160C94C9000C94C90003
:100020000C94C9000C94C90F0C94C9000C94C9001D
:100030000C94C9000C94C9000C94C9000C94C9001C
:100040000C94EC060C94C9000C94C9000C94C900E3
:100050000C94C9000C94A1020C94C9000C94EB11EF
:100060000C94C9000C94C900FA3E1A7ADE8EF62E62
:100070006078AE1CAA2A3ACEF30AB61E3838B86E9B
:1000800076DA6800FC60DAF266B6BEE0FEF684005E
:1000900003070809060A050C0490000B10120F0D47
:1000A0000E11139B00616C61726D206F6E210061F7
:1000B0006C61726D206F66660053657420646179AF
:1000C00000646F6E6500616C61726D20696E6974A9
:1000D00000636C6F636B20696E6974006565707294
:1000E0006F6D20696E697400737065616B65722055
:1000F000696E697400626F6F737420696E69740051
:1001000076666420696E6974007475726E696E67D4
:10011000206F6E20616C61726D7377007475726E02
:10012000696E67206F6E20627574746F6E73006302
:100130006C6F636B20696E697400210057414B45F9
:100140005245534554007A006232006233006231F6
:1001500000736E6F6F7A650011241FBECFEFD4E07D
:10016000DEBFCDBF13E0A0E0B1E0EAE5F9E302C0F5
:1001700005900D92AC30B107D9F713E0ACE0B3E0D5
:1001800001C01D92A93EB107E1F70E944A180C94E4
:10019000AB1C0C9400009C017894109220031092E8
:1001A0001F0380911F039091200382179307C8F3C8
:1001B0000895EF92FF920F931F937B018C0120ED26
:1001C00037E040E050E00E94E21B611571058105B7
:1001D000910519F461E070E01CC0603020E0720706
:1001E00021E0820720E09207A0F0C801B7012AE0D1
:1001F00030E040E050E00E94E21B88EC90E005C057
:10020000FC013197F1F76150704061157105C1F73C
:1002100003C0CB010197F1F71F910F91FF90EF9071
:1002200008950197F1F70895A895089581E08093C6
:1002300010035B9A8CB58F7B8CBD85B1877D85B9AA
:100240005E9815BC1092C20310926800459885B163
:10025000897F85B98BB18F7C8BB928988AB18F7CC7
:100260008AB920985A985298E1E6F0E090E8908395
:1002700088E08083449A83B7876083BF88959083A2
:100280001082449808958EE284B988E48AB989E09E
:1002900087B984E38BB991E095B985E080936800D4
:1002A00090936B0080E380936D000895CF93DF936C
:1002B0001092C5038091AD038E3419F41092C603D9
:1002C00003C082E08093C603ACEBB3E0C7ECD3E09D
:1002D000ED91E053F0E0EC57FF4FE491E99383E0B8
:1002E000A23CB807A9F78091CA0381608093CA0332
:1002F000DF91CF910895CF93DF938091AB03853445
:1003000019F41092C50303C082E08093C503AEEADE
:10031000B3E0C6ECD3E0ED91E053F0E0EC57FF4FD3
:10032000E491E99383E0A53BB807A9F78091CA035C
:1003300081608093CA03DF91CF910895A82FB0E028
:1003400024E830E0F901EA0FFB1FE491E160E0935B
:10035000C903A852BD4F4C91842F6AE00E94011C32
:10036000F901E80FF11DE491E160E093CB03842FE4
:100370000E94011C290F311DF90124912160209355
:10038000CC030895FC0183709070892B39F4CF0160
:1003900064E670E00E940D1C892B49F420E030E0F7
:1003A000CF0160E971E00E940D1C892B11F421E05E
:1003B00030E0822F08951092800010928100299AD7
:1003C0002A9878941092200310921F0380911F03A3
:1003D000909120030A97D0F32A9A29987894109242
:1003E000200310921F0380911F03909120030A970E
:1003F000D0F385B1897F85B982EB8093800088E155
:10040000809381000895DF92EF92FF920F931F93E4
:10041000D62E8A019C0140E050E060E472E48FE057
:1004200090E00E94561C30938700209386008091B4
:100430008600909187009695879590938B00809386
:100440008A0080918A0090918B009093890080931C
:100450008800780100E010E016C080918100826081
:1004600080938100C801B7010E94D900809181006A
:100470008D7F8093810085B1897F85B9C801B701DF
:100480000E94D900DA94DD2041F785B1897F85B9D2
:100490001F910F91FF90EF90DF90089544E650E098
:1004A0000E94030208953D9A459AAAE7B0E08C9114
:1004B00086608C93ECE7F0E08081806480838081AB
:1004C00084608083EEE7F0E08081806180838C919E
:1004D00080688C938C9188608C93089580910F0331
:1004E000813029F480917A00806480937A000895A5
:1004F000982F8091D603882329F08091E40380FD12
:100500000DC002C09B3510F09AE503C09E3108F47F
:100510009EE187B5891721F097BD089592E3F9CF41
:1005200008950E94780283E084BD81E085BD84B592
:10053000806884BDEEE6F0E08081816080837894FD
:1005400008951F920F920FB60F9211241F932F93AD
:100550003F934F935F936F937F938F939F93AF934B
:10056000BF93EF93FF9380910F038130B1F53091EA
:10057000780020917900922F80E0632F70E0682B43
:10058000792B83E0623F780718F08091C30323C082
:100590006536710518F48091E2031DC01091E203E5
:1005A0002091E203E091C3036456704080E090E044
:1005B00030E02E1B3109442737FD4095542F0E940F
:1005C000E21B2EE833E040E050E00E94341C812F13
:1005D00090E0821B930B0E947802FF91EF91BF91F4
:1005E000AF919F918F917F916F915F914F913F91CB
:1005F0002F911F910F900FBE0F901F9018951F9372
:10060000482F192F6AE070E00E94211C24E830E096
:10061000F901E60FF11DE491E160E093CB03842F33
:10062000912F6AE070E00E94211C280F311DF90112
:10063000249121602093CC03842F0E9478021F9183
:100640000895CF93DF93C62FD0E0E82FF0E0E0537A
:10065000F84FC330D10510F42C963197242F30E099
:100660002F5F3F4F2E0F3F1FCE01880F991F280F7E
:10067000391FCF019695879596958795280F391F35
:10068000CF0160E971E00E940D1C260F371FCF01DA
:1006900064E670E00E940D1C261B370BAE014F5F15
:1006A0005F4FCA01880F991F840F951F880F991FEC
:1006B0006AE070E00E940D1CC901860F971F67E079
:1006C00070E00E940D1C8F5FDF91CF910895E4E8E8
:1006D000F0E0E80FF11DE4918E2F0895E82FF0E08F
:1006E000E95FFF4FE4918E2F08951F93182F262F57
:1006F000842F6AE00E94011CE92FF0E0EC57FF4FC5
:10070000E491E093CC03842F0E94011CE82FF0E0D9
:10071000EC57FF4FE491E093CB031092CA03822F72
:100720000E94011CE92FF0E0EC57FF4FE491E093A9
:10073000C903822F0E94011CE82FF0E0EC57FF4F05
:10074000E491E093C8031092C70380910E038823BD
:1007500069F5812F90E00B966CE070E00E94211CFF
:100760009C0101966AE070E00E94211CE82FF0E0F5
:10077000EC57FF4FE491E093C603265F3F4F2331D0
:10078000310518F41092C50305C0E5E8F0E0E491E6
:10079000E093C5031C3020F08091C403816003C046
:1007A0008091C4038E7F8093C4031AC0812F68E1B7
:1007B0000E94011C292F892F6AE00E94011CE92F49
:1007C000F0E0EC57FF4FE491E093C603822F0E94C4
:1007D000011CE82FF0E0EC57FF4FE491E093C503D4
:1007E0001F910895382F262F1092CC031092CB031F
:1007F0001092CA03862F6AE00E94011CE92FF0E0E4
:10080000EC57FF4FE491E093C903822F0E94011C33
:10081000E82FF0E0EC57FF4FE491E093C80310920B
:10082000C70380910E03882309F03BC03C3058F089
:100830008091C40381608093C403E7E7F0E0E49112
:10084000E093CB030AC0E8E6F0E0E491E093CB0349
:100850008091C4038E7F8093C403E4E7F0E0E491C9
:10086000E093CC03832F90E00B966CE070E00E9445
:10087000211C9C0101966AE070E00E94211CE82F77
:10088000F0E0EC57FF4FE491E093C603265F3F4F43
:100890002331310518F41092C5030895E5E8F0E01E
:1008A0001FC0832F90E0479668E170E00E94211CF2
:1008B0009C012F5F3F4FC9016AE070E00E94211C3C
:1008C000E82FF0E0EC57FF4FE491E093C603C90135
:1008D0006AE070E00E94211CE62FF0E0EC57FF4F29
:1008E000E491E093C5030895482F262FEAE6F0E04F
:1008F00084918093CC03719684918093CB0331963D
:10090000E491E093CA03862F6AE00E94011CE92F5C
:10091000F0E0EC57FF4FE491E093C903822F0E946F
:10092000011CE82FF0E0EC57FF4FE491E093C8037F
:100930001092C703242F332727FD309537FF03C0BC
:10094000309521953F4FC9016AE070E00E94211C5B
:10095000E82FF0E0EC57FF4FE491E093C603C901A4
:100960006AE070E00E94211CE62FF0E0EC57FF4F98
:10097000E491E093C50347FD04C08091C4038D7FDB
:1009800003C08091C40382608093C4030895CF9311
:10099000DF931092C403EC01A5ECB3E0E881EE23F1
:1009A000D9F08E2F81568A3128F4F0E0E95FFF4FAD
:1009B000E49109C08E2F80538A3038F4E82FF0E09C
:1009C000EC57FF4FE491EC9301C01C9221961196D5
:1009D00083E0AD3CB80711F7DF91CF9108958823EC
:1009E00009F075C01092C40382E08093C70380931E
:1009F000CA0380910E03882329F58091D5026AE00D
:100A00000E94011CE82FF0E0EC57FF4FE491E093C7
:100A1000C5038091D5020E94011CE92FF0E0EC573C
:100A2000FF4FE491E093C6038091D6020E94011C1F
:100A3000E82FF0E0EC57FF4FE491E093C80380917A
:100A4000D60224C08091D6026AE00E94011CE82FE1
:100A5000F0E0EC57FF4FE491E093C5038091D6029C
:100A60000E94011CE92FF0E0EC57FF4FE491E09366
:100A7000C6038091D5020E94011CE82FF0E0EC57DC
:100A8000FF4FE491E093C8038091D5020E94011CBE
:100A9000E92FF0E0EC57FF4FE491E093C903809118
:100AA000D7026AE00E94011CE82FF0E0EC57FF4FEC
:100AB000E491E093CB038091D7020E94011CE92FBF
:100AC000F0E0EC57FF4FE491E093CC0308958130C0
:100AD00009F0D9C01092CB031092CC038091D702B9
:100AE0006091D5024091D6020E9421038430C9F062
:100AF000853038F4823079F0833080F48130F1F43D
:100B000007C08630A1F0863078F08730B9F412C083
:100B100080E091E011C087E091E00EC08EE091E0AE
:100B20000BC086E191E008C08FE191E005C088E24A
:100B300091E002C08FE291E00E94C7047894109285
:100B4000200310921F0380911F0390912003885E61
:100B50009340C8F31092C8031092C9031092CA03BD
:100B60008091D502863079F1873070F4833011F1AD
:100B7000843028F48130C1F08230D9F518C0843037
:100B8000E1F08530B1F51CC0893031F18A3028F4AC
:100B90008730E1F0883069F51CC08B3019F18B305B
:100BA000F0F08C3031F521C088E391E020C08CE377
:100BB00091E01DC080E491E01AC086E491E017C086
:100BC0008CE491E014C080E591E011C085E591E0EE
:100BD0000EC08AE591E00BC080E691E008C085E692
:100BE00091E005C08BE691E002C081E791E00E94B0
:100BF000C7048091D6026AE00E94011CE82FF0E051
:100C0000EC57FF4FE491E093CB038091D6020E9412
:100C1000011CE92FF0E0EC57FF4FE491E093CC0387
:100C200078941092200310921F0380911F039091DB
:100C30002003885E9340C8F387E791E00E94C704D1
:100C40008091D70264E60E94011CE82FF0E0EC5787
:100C5000FF4FE491E093C7038091D7026AE00E94BE
:100C6000011CE82FF0E0EC57FF4FE491E093C8033C
:100C70008091D7020E94011CE92FF0E0EC57FF4F52
:100C8000E491E093C90308951F938AE080932503BC
:100C90001AE08091220380FD1DC0809122038823E9
:100CA00021F480912303882319F01093250307C0B2
:100CB00080912503882319F41092D7030BC08091EB
:100CC000220381FFE6CF1092220380E891E00E9488
:100CD000C704DFCF1F91089581E58CBD08959B0166
:100CE000AC01F894CA01AA27BB278EBD0DB407FE3C
:100CF000FDCFBB27A52F942F832F8EBD0DB407FEEC
:100D0000FDCF2EBD0DB407FEFDCF409A40987894DC
:100D10000895AF92BF92CF92DF92EF92FF920F931E
:100D20001F93893009F488E0E82FF0E0DF01AC532D
:100D3000BC4F2C91E057FF4FE49181E090E002C05E
:100D4000880F991FEA95E2F77C010027F7FC0095D0
:100D5000102F409126035091270360912803709132
:100D60002903A0E0B0E030E091E0A92EB12CC12C25
:100D7000D12CC9010A2E02C0959587950A94E2F7F5
:100D800080FF11C0FD01E556FF4FE491B601A501BA
:100D900004C0440F551F661F771FEA95D2F7E42A57
:100DA000F52A062B172B1196A830B10511F74093A1
:100DB0002603509327036093280370932903C801E7
:100DC000B7010E946F061F910F91FF90EF90DF9087
:100DD000CF90BF90AF9008951F920F920FB60F92D1
:100DE00011242F933F934F935F936F937F938F9330
:100DF0009F93AF93BF93EF93FF937894A8958091BF
:100E0000190390911A03019690931A038093190382
:100E1000829708F4E3C010921A031092190380918C
:100E20001F039091200301969093200380931F034A
:100E3000809118030E948906809118038F5F809328
:100E400018038A3010F0109218038091D60388237B
:100E500009F4C4C080911D0390911E03892B09F0F1
:100E6000BDC080911B0390911C03019690931C03BD
:100E700080931B038B35910508F4B0C010921C03BE
:100E800010921B038091D9039091DA0301969093FD
:100E9000DA038093D9038091D9039091DA038155C5
:100EA000964470F01092D60310921E0310921D0308
:100EB000809181008D7F8093810085B1866085B9A6
:100EC0008091D4039091D50301969093D50380939C
:100ED000D4032091D4033091D5038091E503909100
:100EE000E6038217930750F51092D5031092D403AE
:100EF0008091D4039091D5039093E8038093E70306
:100F00008091E5039091E603459748F08091E503D1
:100F10009091E60344979093E6038093E5038091D4
:100F2000D2039091D303449748F48091D2039091D7
:100F3000D30302969093D3038093D2038091E70367
:100F40009091E80301969093E8038093E703209142
:100F5000E7033091E8038091D2039091D303821785
:100F60009307E0F18091E7039091E8039C01220F41
:100F7000331F280F391F220F331F220F331F245511
:100F80003E4F40E050E060E472E48FE090E00E9469
:100F9000561C3093870020938600809186009091A4
:100FA00087009695879590938B0080938A00809117
:100FB0008A0090918B0090938900809388008091A3
:100FC000E7039091E80380FF04C080918100826074
:100FD00003C0809181008D7F80938100FF91EF910C
:100FE000BF91AF919F918F917F916F915F914F9141
:100FF0003F912F910F900FBE0F901F9018958EBDAF
:101000000DB407FEFDCF08958091C000807808954B
:10101000FC015381505182814AE0849FC001112418
:10102000580F748165813091F30220911403230FCE
:1010300020518181280F8081849FC0011124280FB5
:101040002093AA038091170337FF02C0581B01C0E9
:10105000580F5093CE0360518AE0789FC00111244D
:10106000680F6093E40381E0809311030895FC010D
:101070004181405180815AE0859FC0011124480F71
:10108000338130518281859FC0011124380F258121
:1010900020518481859FC0011124280F4093D602DE
:1010A0003093D5022093D70281E0809312030895F4
:1010B000CF92DF92EF92FF920F931F93782FE62F3C
:1010C000F22EC02EDE2CF0E0EE0FFF1FEE50FD4F93
:1010D00080819181840F911D8C0120E030E0472FA9
:1010E00050E0CA0183709070892B31F4872F64E639
:1010F0000E94011C992339F4CA0160E971E00E9441
:10110000211C892B21F40F5F1F4F2F4F3F4FC90127
:10111000B80120E831E541E050E00E94E21B4F2D8C
:1011200050E020E13EE0429F7001439FF00C529F4F
:10113000F00C11240027F7FC0095102FED0CF11C8A
:10114000011D111D2CE3C29E90011124442737FD7F
:101150004095542FE20EF31E041F151FE60EF71ED6
:10116000081F191FB701C8011F910F91FF90EF9041
:10117000DF90CF900895DF92EF92FF920F931F932D
:10118000182F062FF42ED22EE82FF0E0EE0FFF1FBF
:10119000EE50FD4FE0808091D70290E08370907018
:1011A000892B19F4123009F4E3948091D702612F4E
:1011B00041E00E942103081718F0602F681B03C04C
:1011C000602F681B695F87E0F89EC0011124482FDB
:1011D0004650460F01C04750E416E8F38091D7020D
:1011E000612F2D2D00E0EE240E9458081F910F91D1
:1011F000FF90EF90DF9008955F926F927F928F92B1
:101200009F92AF92BF92CF92DF92EF92FF920F9395
:101210001F93FC0114810581F680E7805084808152
:101220006181428123810E94BB085B016C01812F97
:10123000602F4F2D2E2D0E94BB083B014C01809149
:10124000D7026091D5024091D6022091AA03009165
:10125000CE03E090E4030E9458086A157B058C05D4
:101260009D05ACF0661577058805990584F4809195
:101270001403882341F58091D803813021F5109221
:10128000D803509214038091AA03850D0FC080915A
:1012900014031816C4F48091D8038130A1F410927D
:1012A000D803109214038091AA0385198093AA038E
:1012B0008DE190E0652D0E949D1C6091AA0384E061
:1012C00090E00E949D1C1F910F91FF90EF90DF9086
:1012D000CF90BF90AF909F908F907F906F905F90D6
:1012E00008958091E4038C3354F08091E4038C538F
:1012F0008093E4038091CE038F5F8093CE0380912F
:10130000E40387FF0AC08091E403845C8093E403D4
:101310008091CE0381508093CE038091CE038C3395
:1013200054F08091CE038C538093CE038091AA0316
:101330008F5F8093AA038091CE0387FF0AC08091BC
:10134000CE03845C8093CE038091AA038150809366
:10135000AA038091E4038823A1F48091CE0388231B
:1013600081F480911603882361F46091AA0384E0DC
:1013700090E00E949D1C6091CE0385E090E00E9469
:101380009D1C8091AA03883184F08091AA03885122
:101390008093AA038091D6028F5F8093D6026091DA
:1013A000D60283E090E00E949D1C8091AA0387FFF3
:1013B00010C08091AA03885E8093AA038091D60210
:1013C00081508093D6026091D60283E090E00E9423
:1013D0009D1C8091D602803268F58091D6028F31B3
:1013E00081F48091D502843029F18091D502863034
:1013F00009F18091D5028930E9F08091D5028B30D6
:10140000C9F08091D6028E3121F48091D5028230CC
:1014100089F08091D6028D31D9F48091D502823045
:10142000B9F48091D70290E08053984F0E94C20196
:10143000882371F481E08093D6028091D5028F5F7A
:101440008093D5026091D50282E090E00E949D1CBD
:101450008091D602882309F047C08091D50286305A
:10146000D1F0873060F4833029F1843018F4813072
:1014700090F111C0843079F0853069F510C08A3060
:1014800018F4883040F40BC08B3029F08B3038F0E2
:101490008C3009F504C08091D602815E03C0809132
:1014A000D602825E8093D6028091D50281508093CD
:1014B000D50214C08091D70290E08053984F0E94CB
:1014C000C201882321F08091D602835EEBCF809108
:1014D000D602845EE7CF81E08093D6026091D50288
:1014E00082E090E00E949D1C8091D5028D3070F0CA
:1014F0008091D7028F5F8093D70281E08093D502DD
:101500006091D70281E090E00E949D1C8091D502FD
:101510008823B1F48091D502845F8093D5028091B5
:10152000D70281508093D7026091D70281E090E08A
:101530000E949D1C6091D50282E090E00E949D1C5B
:101540008091E4038823E9F48091D003813229F467
:1015500088ED92E00E94FC0809C08091D0038130A0
:1015600019F48093140302C0109214038091CE03E7
:10157000882339F48091AA03882319F481E08093A9
:10158000D8030895EF92FF920F931F93CF93DF93A9
:101590008C01FF24C4E1D0E0EE24E394F8018081C3
:1015A000882341F0F394FE01EC53FD4FCE0160819E
:1015B0000E949D1CFF2031F0E092D80388ED92E05C
:1015C0000E94FC080F5F1F4F2196CD31D10531F7E6
:1015D000DF91CF911F910F91FF90EF900895CF92DF
:1015E000DF92EF92FF920F931F93DF93CF93CDB7CC
:1015F000DEB729970FB6F894DEBF0FBECDBF8AE0E5
:1016000080932503FE01319689E0DF011D928A95C2
:10161000E9F700E010E0AAE0CA2E7F01DD24D394B0
:1016200080912203882321F480912303882319F0D9
:10163000C09225030BC080912503882339F4CE0185
:1016400001960E94C20A1092D7034FC080912203D4
:1016500080FD1DC08091220381FF1EC010922203D5
:10166000002349F489E891E00E94C704812F0E9479
:101670009E010DE011C00D3041F41F5F193008F0DC
:1016800010E0812F0E949E0107C01092D703CE0167
:1016900001960E94C20A29C08091220382FD04C0E3
:1016A0008091230382FFBCCF109222030D3009F0FA
:1016B000B7CFA12FB0E09D0128523D4FF9018081A5
:1016C0008F5F8083FD01E651FD4F9081981730F4C4
:1016D000FD01EF51FD4F8081F9018083AE0DBF1DEB
:1016E000DC92812F0E949E019BCF29960FB6F89421
:1016F000DEBF0FBECDBFCF91DF911F910F91FF9045
:10170000EF90DF90CF900895DF92EF92FF920F93CA
:101710001F938AE08093250300E01AE0D12EFF2476
:10172000F394B1E2EB2E80912203882321F480917F
:101730002303882319F0D092250304C08091250348
:10174000882301F18091220380FD72C080912203E1
:1017500081FF1BC0109222030023A1F48091D003CB
:10176000813219F482E991E006C08091D003813082
:1017700031F48BE991E00E94C7040CE006C084EAD2
:1017800091E0F9CF1092D70353C08091220382FFDA
:10179000CACF109222030C3031F61091D0031130D1
:1017A00079F4E092D00382E991E00E94C70410939B
:1017B000D80388ED92E00E94FC081093D80331C052
:1017C0008091D003813281F41092D00384EA91E0B9
:1017D0000E94C7048091140318161CF5109214037C
:1017E0008091AA0381500FC0F092D0038BE991E061
:1017F0000E94C70480911403882399F4F092140383
:101800008091AA038F5F8093AA03609114038DE1F6
:1018100090E00E949D1C6091AA0384E090E00E94E9
:101820009D1C6091D0038FE090E00E949D1C7BCFB7
:101830001F910F91FF90EF90DF900895FF920F930B
:101840001F938AE08093250310E00AE0F02E0EE15A
:1018500001C010E080912203882321F480912303AA
:10186000882319F0F092250304C080912503882372
:10187000B9F08091220380FD39C08091220381FF5D
:1018800018C010922203112359F48DEA91E00E94AE
:10189000C7048091CD0390E00E94FF0211E009C0CF
:1018A0001092D7036091CD0389E090E00E949D1CC7
:1018B0001DC08091220382FD04C08091230382FF1A
:1018C000C9CF10922203113021F68091CD038B5F96
:1018D0008093CD038091CD038B3510F00093CD0321
:1018E0008091CD0390E00E94FF02B4CF1F910F9131
:1018F000FF9008950F931F938AE08093250310E0D3
:101900000AE080912203882321F480912303882315
:1019100019F00093250307C080912503882319F44B
:101920001092D7035BC08091220380FD57C0809145
:10193000220381FF34C010922203812F90E0019690
:1019400066E070E00E94211C182F8230E9F083309D
:1019500028F4882351F0813011F50AC08430D1F089
:101960008430A8F08530D9F418C084EB91E009C028
:1019700080911603813019F48DEB91E002C086EC62
:1019800091E00E94C7040BC08FEC91E0FACF0E9457
:10199000560105C088ED91E0F4CF0E947B01809153
:1019A000220382FFAECF10922203113009F0A9CF9B
:1019B00080911603813029F41092160386EC91E091
:1019C00004C0109316038DEB91E00E94C704609150
:1019D000160380E190E00E949D1C93CF1F910F9110
:1019E0000895FF920F931F938AE08093250310E0E0
:1019F0008AE0F82E01E080912203882321F480916F
:101A00002303882319F0F092250304C08091250355
:101A10008823F9F08091220380FD3CC0809122034D
:101A200081FF1AC010922203112369F480910F03E1
:101A3000813019F481EE91E002C08AEE91E00E94BB
:101A4000C70417E009C060910F0381E190E00E9494
:101A50009D1C1092D7031EC08091220382FFCBCF22
:101A600010922203173039F680910F03813029F448
:101A700010920F038AEE91E004C000930F0381EEF1
:101A800091E00E94C70460910F0381E190E00E9401
:101A90009D1CB1CF1F910F91FF900895DF92EF929F
:101AA000FF920F931F930091AA03E090CE03F09052
:101AB000E4038AE08093250310E09AE0D92E809118
:101AC000220380FDECC080912203882321F48091C1
:101AD0002303882319F0D092250307C080912503A2
:101AE000882319F41092D703DAC08091220381FF72
:101AF00067C0109222031123B9F40091AA03E09069
:101B0000CE03F090E403802F6E2D4F2D0E947503BD
:101B10008091C50381608093C5038091C603816075
:101B20008093C60311E04CC0113089F4802F6E2DD4
:101B30004F2D0E9475038091C80381608093C80374
:101B40008091C90381608093C90312E039C01230CB
:101B500089F4802F6E2D4F2D0E9475038091CB0349
:101B600081608093CB038091CC0381608093CC0310
:101B700013E026C00093AA03E092CE03F092E403A0
:101B80001092D70311E01093D80388ED92E00E94E1
:101B9000FC081093D8030093AA036091AA0384E081
:101BA00090E00E949D1C6091CE0385E090E00E9431
:101BB0009D1C6091E40386E090E00E949D1C6FC034
:101BC0008091220382FD04C08091230382FF77CF9E
:101BD000109222031130C9F4802F90E0019668E141
:101BE00070E00E94211C082F6E2D4F2D0E9475035E
:101BF0008091C50381608093C5038091C603816095
:101C00008093C6030093AA0337C01230D1F48E2DFF
:101C100090E001966CE370E00E94211CE82E802F7A
:101C20006E2D4F2D0E9475038091C80381608093B3
:101C3000C8038091C90381608093C903E092CE03F9
:101C40001BC01330C9F48F2D90E001966CE370E057
:101C50000E94211CF82E802F6E2D4F2D0E9475039F
:101C60008091CB0381608093CB038091CC03816012
:101C70008093CC03F092E4038091230382FF1FCF73
:101C80000E94DB0178941092200310921F03809130
:101C90001F03909120038B349105C8F310CF1F913F
:101CA0000F91FF90EF90DF900895EF92FF920F93C6
:101CB0001F931091D1030091AC038AE08093250318
:101CC000FF243AE0E32E8091220380FDB1C0809191
:101CD0002203882321F480912303882319F0E092C2
:101CE000250317C080912503882399F41092D70308
:101CF0001093D1030093AC036091D10387E090E08F
:101D00000E949D1C6091AC0388E090E00E949D1CA5
:101D10008FC08091220381FF3CC010922203FF20DC
:101D200089F4812F602F0E94F2038091C5038160A6
:101D30008093C5038091C60381608093C603FF240E
:101D4000F39427C081E0F81689F4812F602F0E9458
:101D5000F2038091C80381608093C8038091C90316
:101D600081608093C90322E0F22E13C01093D10347
:101D70000093AC036091D10387E090E00E949D1C2A
:101D80006091AC0388E090E00E949D1C1092D70304
:101D90004FC08091220382FD04C08091230382FF03
:101DA00092CF1092220381E0F816B1F4812F90E0D7
:101DB000019668E170E00E94211C182F602F0E949C
:101DC000F2038091C50381608093C5038091C603AF
:101DD00081608093C60319C082E0F816B1F4802FA9
:101DE00090E001966CE370E00E94211C082F812F87
:101DF000602F0E94F2038091C80381608093C80322
:101E00008091C90381608093C9038091230382FF7D
:101E10005ACF0E94DB0178941092200310921F0386
:101E200080911F03909120038B349105C8F34BCF11
:101E30001F910F91FF90EF90089585EA90E061E087
:101E40000E94C41A81E08093D60310921E03109260
:101E50001D0388EC90E09093E6038093E5031092D5
:101E6000D5031092D40382E090E09093D303809343
:101E7000D2031092DA031092D9038091D903909182
:101E8000DA0390931C0380931B030895982F80918D
:101E9000CF03882361F08091D103891741F48091A9
:101EA000AC03861721F4442311F40E941D0F0895FA
:101EB0001F93CF93DF9380911303882309F465C0A8
:101EC0008091BA0390E0805192402091B9034AE09A
:101ED000249F90011124820F931F0B970CF455C07F
:101EE0002091AA038091CE031CE32102E00111247A
:101EF000992787FD9095C80FD91F8BED93E00E941D
:101F0000080885EB93E00E9437080E947109209130
:101F1000AA038091CE032102A0011124992787FDF5
:101F20009095480F591F8091D1039091AC03819FE8
:101F3000B0011124690F711D4C175D07D0F4FA012F
:101F4000E056FA4FEC17FD07A0F0CA018C1B9D0B61
:101F50009C0120563A4F37FF03C0309521953F4FE3
:101F600097FF03C0909581959F4F281739070CF470
:101F7000AF01C617D70748F44617570730F08091CE
:101F8000CF03882311F00E941D0FDF91CF911F9185
:101F900008951F920F920FB60F9211242F933F9323
:101FA0004F935F936F937F938F939F93AF93BF9361
:101FB000EF93FF9380E8809361001092610080911D
:101FC000E4038F5F8093E4030E9471098091100302
:101FD000882309F06BC08091D703882311F5809185
:101FE0001103882349F48091E40380FF05C083EF47
:101FF00091E00E94C70408C08091AA036091CE03BB
:102000004091E4030E9475038091CF03882321F05F
:102010008091C403826003C08091C4038D7F80934C
:10202000C40380911103882341F08091AA03609139
:10203000CE034091E4030E94460F80910F0381304C
:1020400029F480917A00806480937A00809125033E
:10205000882329F080912503815080932503809166
:102060002403882329F08091240381508093240342
:1020700080911D0390911E030097C1F09C01215097
:10208000304030931E0320931D0320FF06C0809133
:10209000C40382608093C40309C08091C4038D7F10
:1020A0008093C403232B11F40E941D0FFF91EF9125
:1020B000BF91AF919F918F917F916F915F914F9160
:1020C0003F912F910F900FBE0F901F9018954A9B34
:1020D0003EC08091CF03882309F056C081E08093F1
:1020E000CF0310921E0310921D03809111038823C9
:1020F00009F44AC08091D703882309F045C08CEFCA
:1021000091E00E94C70483E68093D70378941092ED
:10211000200310921F0380911F03909120038C5D78
:102120009540C8F38091D1036091AC030E94F20303
:1021300078941092200310921F0380911F039091B6
:1021400020038C5D9540C8F31092D70308958091C9
:10215000CF038823C9F01092CF0310921E03109270
:102160001D038091D603882379F08FEA90E061E027
:102170000E94C41A1092D603809181008D7F8093B3
:10218000810085B1866085B90895FF920F931F93F2
:102190008AE08093250310E04AE0F42E01E080916C
:1021A0002203882321F480912303882319F0F092DD
:1021B000250307C080912503882319F41092D703C3
:1021C00006C18091220380FD02C18091220381FF1C
:1021D00088C0109222031123D1F480910E0388232A
:1021E00011F411E006C089EB90E061E00E94C41A8E
:1021F00012E080E00E94EF048091C503816080932B
:10220000C5038091C60381608093C6036AC0113004
:1022100029F480910E03882339F020C01230E1F4B4
:1022200080910E038130A9F480910E03882311F070
:1022300011E001C012E080E00E94EF048091C80329
:1022400081608093C8038091C90381608093C90332
:1022500048C0882339F015C0113099F480910E03DD
:10226000813079F480E00E94EF048091CB0381609B
:102270008093CB038091CC0381608093CC0313E0E7
:1022800030C083E68093D70380E00E94EF04789407
:102290001092200310921F0380911F03909120033E
:1022A0008C5D9540C8F31092D70311E01093D803CA
:1022B00088ED92E00E94FC081093D8036091D70249
:1022C00081E090E00E949D1C6091D50282E090E048
:1022D0000E949D1C6091D60283E090E00E949D1CAC
:1022E00076C08091220382FD04C08091230382FF87
:1022F00056CF10922203113099F48091D5028F5F4E
:102300008093D5028091D5028D3010F01093D502C4
:1023100080E00E94EF0480910E03882301F514C031
:10232000123041F58091D6028F5F8093D602809162
:10233000D602803210F00093D60280E00E94EF04B3
:1023400080910E03813059F48091C50381608093A0
:10235000C5038091C60381608093C60326C0809127
:10236000C80381608093C8038091C9038160809312
:10237000C9031BC01330C9F48091D7028F5F8093CB
:10238000D7028091D70264E60E94011C9093D70285
:1023900080E00E94EF048091CB0381608093CB03A7
:1023A0008091CC0381608093CC038091230382FFD2
:1023B000F6CE0E94DB0178941092200310921F0346
:1023C00080911F0390912003CC97D0F3E8CE1F910A
:1023D0000F91FF9008951F920F920FB60F92112444
:1023E0002F933F934F935F936F937F938F939F931D
:1023F000AF93BF93EF93FF9300B605FE4FC080915C
:102400001003882309F058C05B9A85B1877D85B990
:102410005E988CB58F7B8CBD809111038823B9F0B9
:102420006091AA0384E090E00E949D1C6091CE031D
:1024300085E090E00E949D1C6091E40386E090E0BE
:102440000E949D1C80ED97E061E00E944E02809109
:1024500012038823B9F06091D70281E090E00E94D6
:102460009D1C6091D50282E090E00E949D1C6091CD
:10247000D60283E090E00E949D1C80ED97E062E030
:102480000E944E0286E491E061E00E94C41A15BCED
:102490001092C20310926800459809C08091100301
:1024A000882351F08CE391E061E00E94C41AE0912E
:1024B0000C03F0910D030995FF91EF91BF91AF913E
:1024C0009F918F917F916F915F914F913F912F914C
:1024D0000F900FBE0F901F9018950F931F93DF93CF
:1024E000CF930F92CDB7DEB78091C60089839091CC
:1024F0001503992349F4843209F0BFC081E0809329
:1025000015038AE293E0B2C00AE213E0F8010190F9
:102510000020E9F73197E01BF10BE038F105C0F43A
:10252000369789F4C80165E072E00E947C1C009730
:1025300021F482E08093150398C080E8F80111929D
:102540008A95E9F78FC08A3209F08FC0923019F06E
:1025500080E8D80184C0C8016CE270E00E94711C60
:102560009C01ABEDB3E0FC01319686E001900D9249
:102570008150E1F71092E103C90101966CE270E02D
:102580000E94711CFC0181818093E303CF010196BD
:102590006CE270E00E94711CFC0181819281A38138
:1025A000B4818093BC039093BD03A093BE03B0930A
:1025B000BF03868197819093C1038093C003CF01AD
:1025C00001966CE270E00E94711CFC018181809395
:1025D000AD03CF0101966CE270E00E94711CFC011A
:1025E0002EEA33E0AC014F5F5F4F85E0DA010D90DA
:1025F000AD01D9010D929D018150C1F78781908570
:102600009093B4038093B303CF0101966CE270E022
:102610000E94711CFC0181818093AB03CF01019664
:102620006CE270E00E94711C01966CE270E00E9406
:10263000711C01966CE270E00E94711CA5EBB3E086
:10264000FC01319686E001900D928150E1F71092E5
:10265000BB030E94580F80E8EAE2F3E0DF011D921D
:102660008A95E9F71092150308C0C801BE016F5F93
:102670007F4F41E050E00E94851C0F90CF91DF9189
:102680001F910F9108958AE090E00E94951C80931D
:10269000C20385B1866085B982E380938000809112
:1026A000C203882329F08091800080688093800095
:1026B00088E1809381008AEF90E090938700809377
:1026C00086008091860090918700969587959093DB
:1026D0008900809388008091880090918900909370
:1026E0008B0080938A00089581E090E00E94951C01
:1026F00064E60E94011C9093D70282E090E00E9461
:10270000951C6DE00E94011C9093D50283E090E03F
:102710000E94951C8F718093D60280E00E94EF0486
:1027200064EF71E080E090E00E94D90084E090E0E6
:102730000E94951C68E10E94011C9093AA0385E009
:1027400090E00E94951C6CE30E94011C9093CE03C4
:1027500086E090E00E94951C6CE30E94011C90931F
:10276000E4038091AA036091CE034091E4030E94A8
:10277000750364EF71E080E090E00E94D90088E08A
:1027800090E00E94951C6CE30E94011C9093AC03A6
:1027900087E090E00E94951C68E10E94011C9093E4
:1027A000D10391E090931303E6EBF0E08081806227
:1027B000808385E08093B1009093700078940895B1
:1027C000FF920F931F938AE0809325038CE090E0A3
:1027D0000E94951C182F00E06AE0F62E80912203DB
:1027E000882321F480912303882319F0F092250394
:1027F00004C080912503882349F18091220380FD44
:1028000065C08091220381FF24C01092220300231F
:10281000E9F48CE092E00E94C704812F6AE00E94F4
:10282000011CE82FF0E0EC57FF4FE491E160E093EA
:10283000C503812F0E94011CE92FF0E0EC57FF4FE8
:10284000E491E160E093C6030BE003C01092D7036C
:102850003DC08091220382FD04C08091230382FF4A
:10286000BDCF109222030B3001F51F5F143608F024
:1028700010E0812F6AE00E94011CE82FF0E0EC5785
:10288000FF4FE491E160E093C503812F0E94011C9A
:10289000E92FF0E0EC57FF4FE491E160E093C603CD
:1028A0008CE090E0612F0E949D1C8091230382FFA9
:1028B00095CF78941092200310921F0380911F03EC
:1028C000909120038B349105C8F388CF1F910F910D
:1028D000FF9008950F931F938AE0809325038BE068
:1028E00090E00E94951C80930E0310E00AE001C066
:1028F00010E080912203882321F480912303882310
:1029000019F00093250304C0809125038823C9F0A2
:102910008091220380FD38C08091220381FF14C082
:1029200010922203112369F480910E03882319F475
:1029300085E192E002C08EE192E00E94C70411E0BE
:1029400003C01092D70320C08091220382FFD1CF11
:1029500010922203113061F690E080910E038823DB
:1029600009F491E090930E03992319F485E192E024
:1029700002C08EE192E00E94C7048BE090E060917B
:102980000E030E949D1CB5CF1F910F910895EF92E9
:10299000FF920F931F938AE0809325038AE090E0D3
:1029A0000E94951CF82E00E07AE0E72E01C000E0BE
:1029B00080912203882321F480912303882319F036
:1029C000E092250304C080912503882369F180915A
:1029D000220380FD66C08091220381FF28C01092EF
:1029E0002203002309F5FF2051F087E292E00E94C4
:1029F000C7048091C90381608093C90304C080E348
:102A000092E00E94C7048091CA0381608093CA0348
:102A10008091CB0381608093CB038091CC03816054
:102A20008093CC0301E003C01092D7033AC0809199
:102A3000220382FFBDCF10922203013009F0B7CFED
:102A400010E0FF2009F411E0F12E112351F087E28C
:102A500092E00E94C7048091C90381608093C903FA
:102A600004C080E392E00E94C7048091CA038160A1
:102A70008093CA038091CB0381608093CB038091C4
:102A8000CC0381608093CC038AE090E0612F0E94A8
:102A90009D1C0E94431380EA9FE061E00E944E0269
:102AA00087CF1F910F91FF90EF900895EF92FF92C3
:102AB0000F931F938AE08093250382E190E00E94A8
:102AC000951C8093C30383E190E00E94951C809342
:102AD000E20310E0FAE0EF2EEEE1FE2E05E0809139
:102AE0002203882321F480912303882319F0E092A4
:102AF000250304C080912503882321F180912203BE
:102B000080FD5EC08091220381FF1FC010922203CE
:102B1000112359F489E392E00E94C7048091C30312
:102B200090E00E94FF0211E010C0113059F480E4DF
:102B300092E00E94C7048091E20390E00E94FF02AD
:102B400012E003C01092D7033BC08091220382FDA4
:102B500004C08091230382FFC2CF10922203113060
:102B6000A9F48091C3038B5F8093C3038091C30357
:102B70008B3510F00093C3038091C30390E00E9453
:102B8000FF026091C30382E190E017C0123009F0A8
:102B9000A6CF8091E2038B5F8093E2038091E203F2
:102BA0008B3510F0F092E2038091E20390E00E94F6
:102BB000FF026091E20383E190E00E949D1C8FCFB1
:102BC0001F910F91FF90EF900895CF93DF9380E0D6
:102BD00090E00E94951C813009F47BC080E090E079
:102BE00061E00E949D1C81E090E06BE00E949D1CD2
:102BF00082E090E061E00E949D1C83E090E061E053
:102C00000E949D1C84E090E060E00E949D1C85E095
:102C100090E060E00E949D1C86E090E060E00E94F1
:102C20009D1C87E090E06AE00E949D1C88E090E097
:102C300060E00E949D1C89E090E062E30E949D1C80
:102C40008AE090E060E00E949D1C8BE090E060E0F4
:102C50000E949D1C8CE090E06AE00E949D1C8DE02B
:102C600090E068EF0E949D1C8EE090E060E00E9482
:102C70009D1C8FE090E060E00E949D1C80E190E050
:102C800060E00E949D1C82E190E06EE10E949D1C2C
:102C900083E190E06AE50E949D1C81E190E060E0A4
:102CA0000E949D1CC4E1D0E0FE01EC53FD4FCE011B
:102CB00060810E949D1C2196CD31D105A9F78DE13F
:102CC00090E060E00E949D1C88EB9BE062E00E9427
:102CD0004E02DF91CF9108958CE090E00E94951C08
:102CE0009CE3899FC001112490931E0380931D03D0
:102CF00081E591E061E00E94C41A87E492E00E94BD
:102D0000C70483E68093D70378941092200310922F
:102D10001F0380911F03909120038C5D9540C8F3A1
:102D20001092D70308951F920F920FB60F9211249D
:102D30002F933F934F935F936F937F938F939F93C3
:102D4000AF93BF93EF93FF9310926B007894189911
:102D50002AC08091210381FD2BC07894109220031A
:102D600010921F0380911F03909120030A97D0F3C4
:102D700018991EC00E94DB018091D603882319F0A8
:102D80000E946C1615C080912103826080932103FC
:102D90008091220382608093220388E491E061E0C5
:102DA0000E94C41A05C0809121038D7F8093210366
:102DB00081E080936B00FF91EF91BF91AF919F9164
:102DC0008F917F916F915F914F913F912F910F90D4
:102DD0000FBE0F901F9018951F920F920FB60F9273
:102DE00011242F933F934F935F936F937F938F9310
:102DF0009F93AF93BF93EF93FF9310926D007894DE
:102E0000A8954D9927C08091210380FD28C0789412
:102E10001092200310921F0380911F0390912003B2
:102E20000A97D0F34D9963C00E94DB018091D603CD
:102E30008823C9F5809121038160809321038091CB
:102E400022038160809322038EE491E061E00E947E
:102E5000C41A05C0809121038E7F809321034C9971
:102E60003FC08091210382FD42C0789410922003DC
:102E700010921F0380911F03909120030A97D0F3B3
:102E80004C9935C00E94DB0182E08093240319C075
:102E90004C9B17C0809121038B7F809321038091ED
:102EA000D603882319F00E946C1621C08BE491E0B0
:102EB00061E00E94C41A80912203846080932203FF
:102EC00016C080912403882319F780912103846020
:102ED000809321038091230384608093230307C0A0
:102EE00010922303809121038B7F8093210380E341
:102EF00080936D00FF91EF91BF91AF919F918F9162
:102F00007F916F915F914F913F912F910F900FBEE5
:102F10000F901F901895EF92FF920F931F931091AF
:102F2000F302009117038AE080932503FF24BAE09F
:102F3000EB2E8091220380FDA8C08091220388237C
:102F400021F480912303882319F0E092250304C023
:102F500080912503882369F18091220381FF2CC091
:102F600010922203FF2089F4812F602F0E947404A5
:102F70008091C50381608093C5038091C603816001
:102F80008093C603FF24F39417C081E0F81689F4F8
:102F9000812F602F0E9474048091C8038160809308
:102FA000C8038091C90381608093C903A2E0FA2E0F
:102FB00003C01092D70369C08091220382FD04C030
:102FC0008091230382FFB5CF1092220381E0F8168F
:102FD00059F5812F992787FD90950D9669E170E04D
:102FE0000E94211C182F1C50812F602F0E947404F6
:102FF0008091C50381608093C5038091C603816081
:103000008093C6031093F3028DE090E0612F0E943D
:103010009D1C80E592E00E94E51A812F992787FD8B
:1030200090950E94381B20C082E0F816E9F4802FAA
:1030300090E001966CE370E00E94211C082F812F24
:10304000602F0E9474048091C80381608093C8033C
:103050008091C90381608093C903009317038EE0B8
:1030600090E0602F0E949D1C8091230382FF61CF1E
:1030700078941092200310921F0380911F03909167
:1030800020038B349105C8F354CF1F910F91FF900B
:10309000EF9008951F93CF93DF9315BC569A5E98D7
:1030A00084B714BE90E00E941B1B88E10FB6F89411
:1030B00080936000109260000FBE2FE088E190E0E6
:1030C0000FB6F894A895809360000FBE209360001F
:1030D000A89510921103809111038093120310920E
:1030E000D8031092130387E690E00E94A21A8AE3A5
:1030F00091E061E00E94C41A88E480BF61E070E062
:1031000080E090E00E94D90000B605FE0BC080B7B9
:10311000806180BF8FE291E061E00E94C41A0E944A
:103120007413D6C00E9443015B988CE191E061E08A
:103130000E94C41A89E091E061E00E94C41A81E013
:10314000809369008DBB1092D70380E091E061E02D
:103150000E94C41A81E58CBD85EF90E061E00E9479
:10316000C41A82E190E00E94951C8093C30383E11E
:1031700090E00E94951C8093E20389E090E00E9419
:10318000951C8093CD0381E190E00E94951C809373
:103190000F0380910F03813019F48091E20302C084
:1031A0008091CD030E94910278948DE090E00E947E
:1031B000951C8093F302845F893110F01092F30222
:1031C0008EE090E00E94951C809317038D3310F0E1
:1031D0001092170388EE90E061E00E94C41A0E94EA
:1031E00043138CED90E061E00E94C41A0E94E51543
:1031F0000E9453028BE090E00E94951C80930E0386
:103200008FE090E00E94951C8093D0038091D003C2
:103210008132C9F484E190E00E94951C882399F0E2
:10322000C4E1D0E0CE010E94951CFE01EC53FD4F9D
:1032300080832196CD31D105A9F78DE190E00E94E0
:10324000951C8093140380E190E00E94951C80936C
:10325000160383E68093D70389E692E00E94C704B1
:1032600080EC9DE061E044E650E00E94030264EFE0
:1032700071E080E090E00E94D90081ED90E061E093
:103280000E94C41A0E947413A89580EC9DE061E02E
:1032900044E650E00E94030283EF91E00E94C704DD
:1032A00078941092200310921F0380911F03909135
:1032B0002003883C9105C8F31092D70381E08093E6
:1032C000D80386EC90E061E00E94C41A0E94671067
:1032D00081EC90E061E00E94C41A13E6A89500B664
:1032E00005FE03C00E941601F9CF8091220380FFE2
:1032F000A5C0109222038091D703833651F08091AC
:10330000D70390E001966EE070E00E94211C80934C
:10331000D7038091D703873009F458C0883080F4F0
:10332000833091F1843030F4813001F1823009F042
:10333000A4C023C08530E1F1863008F040C02EC023
:103340008A3009F45FC08B3038F4883009F445C006
:10335000893009F092C04FC08C3009F45AC08C30CB
:1033600008F465C08D3009F088C05AC089E692E043
:103370000E94C7040E94440680C082E792E00E9437
:10338000C7040E94550E79C08BE792E00E94C704E3
:103390000E944E0D81E0809311036FC084E892E09B
:1033A0000E94C7040E94C51081E08093120365C08B
:1033B0008DE892E00E94C7040E948B175EC084EBE8
:1033C00091E00E94C7040E947A0C57C086E992E0FF
:1033D0000E94C7040E94F10C50C08FE992E00E9445
:1033E000C70480910F03882319F00E94561545C029
:1033F0000E941E0C42C088EA92E00E94C7040E940C
:10340000C7143BC081EB92E00E94C7040E946A147B
:1034100034C08AEB92E00E94C7040E94840B2DC046
:1034200083EC92E00E94C7040E94EF0A26C08CEC55
:1034300092E00E94C7040E94E0131FC08091220303
:1034400081FD04C08091220382FF17C010922203E5
:103450001093D70381E00E94EF04A895789410920E
:10346000200310921F0380911F0390912003885E18
:103470009340C8F3A8951092D7038091160381302A
:1034800009F02CCF8091C00087FF28CF0E946D12D9
:1034900025CF1F920F920FB60F9211242F933F93B7
:1034A0004F935F936F937F938F939F93AF93BF934C
:1034B000EF93FF931DBA89E60E94AF1A29B1789461
:1034C00078941092200310921F0380911F03909113
:1034D00020030A97D0F389B1247030E090E0847023
:1034E00090702817390711F40E94671081E08DBB96
:1034F000FF91EF91BF91AF919F918F917F916F91CC
:103500005F914F913F912F910F900FBE0F901F90A1
:10351000189506C090E000009F5F9E31E1F7815052
:103520008823C1F7089548EC50E009C020E137E254
:10353000FA013197F1F721503040D1F781508823BB
:10354000A9F708959093C5008093C40088E1809303
:10355000C1008EE08093C200519A50980895982F30
:103560008091C00085FFFCCF9093C60080E090E082
:1035700008958091C00087FFFCCF8091C600089518
:103580008091C00080780895AC0120E007C0809150
:10359000C00085FFFCCF3093C6002F5FFA01E20F19
:1035A000F11D3491332399F7662371F08091C000A7
:1035B00085FFFCCF8AE08093C6008091C00085FF24
:1035C000FCCF8DE08093C6000895FC0107C0809178
:1035D000C00085FFFCCF31969093C600908199235F
:1035E000B1F70895282F982F92959F709A3030F454
:1035F0008091C00085FFFCCF905D05C08091C00028
:1036000085FFFCCF995A9093C600822F90E08F706F
:1036100090700A973CF48091C00085FFFCCF2F701A
:10362000205D06C08091C00085FFFCCF2F70295A15
:103630002093C60008951F93182F892F0E94F21A15
:10364000812F0E94F21A1F910895EF92FF920F931B
:103650001F937B018C01C801AA27BB270E941B1B5B
:10366000C7010E941B1B1F910F91FF90EF900895BF
:103670000F931F93CF93DF938C01E0E1F7E240E0DB
:10368000C0E0D0E0C801BF010E940D1C262F6623B8
:1036900029F4442319F4E130F10549F48091C00084
:1036A00085FFFCCF205D2093C600205341E0CF0171
:1036B0006AE070E00E940D1C2196C530D10571F0C2
:1036C000822F90E09C012E9FC0012F9F900D3E9F66
:1036D000900D1124081B190BFB01D4CFDF91CF9162
:1036E0001F910F9108954F925F926F927F928F92E8
:1036F0009F92AF92BF92CF92DF92EF92FF920F9381
:103700001F93CF93DF934B015C01E12C9AECF92ED0
:103710009AE9092F9BE3192F4424C0E0D0E0C501AA
:10372000B401A80197010E94341CD22E222341F437
:10373000442031F481E0E816F1040105110561F43B
:103740008091C00085FFFCCF80E3D80ED092C600E8
:1037500080EDD80E44244394C801B7012AE030E03C
:1037600040E050E00E94341CC22E732E642E552E71
:103770002196CA30D105A9F06D2D70E080E090E06F
:10378000A80197010E94E21B861A970AA80AB90AA3
:103790002C2D372D462D552DC901DA017C018D01C7
:1037A000BECFDF91CF911F910F91FF90EF90DF90EF
:1037B000CF90BF90AF909F908F907F906F905F90D1
:1037C0004F900895629FD001739FF001829FE00D9A
:1037D000F11D649FE00DF11D929FF00D839FF00D90
:1037E000749FF00D659FF00D9927729FB00DE11D3C
:1037F000F91F639FB00DE11DF91FBD01CF01112419
:103800000895991B79E004C0991F961708F0961B3C
:10381000881F7A95C9F780950895AA1BBB1B51E1B3
:1038200007C0AA1FBB1FA617B70710F0A61BB70B30
:10383000881F991F5A95A9F780959095BC01CD01D5
:10384000089597FB092E07260AD077FD04D0E5DFFF
:1038500006D000201AF4709561957F4F0895F6F711
:10386000909581959F4F0895A1E21A2EAA1BBB1B2C
:10387000FD010DC0AA1FBB1FEE1FFF1FA217B3073C
:10388000E407F50720F0A21BB30BE40BF50B661F52
:10389000771F881F991F1A9469F760957095809516
:1038A00090959B01AC01BD01CF01089597FB092EB6
:1038B00005260ED057FD04D0D7DF0AD0001C38F4FF
:1038C00050954095309521953F4F4F4F5F4F08954C
:1038D000F6F790958095709561957F4F8F4F9F4F2C
:1038E0000895FC018191861721F08823D9F7992743
:1038F00008953197CF010895FB01DC018D9101906E
:1039000080190110D9F3990B0895FB01DC010D908A
:103910000020E9F711974150504028F00190002015
:103920000D92C9F708951C920895F999FECF92BDA2
:1039300081BDF89A992780B50895262FF999FECF71
:103940001FBA92BD81BD20BD0FB6F894FA9AF99ABC
:0A3950000FBE01960895F894FFCF12
:10395A0073756E646179006D6F6E64617900747558
:10396A006573646179007765646E65736479007460
:10397A00687572736461790066726964617900734B
:10398A0061747572646179006A616E0066656200CD
:10399A006D6172636800617072696C006D617900B3
:1039AA006A756E65006A756C790061756773740073
:1039BA0073657074006F63746F62006E6F76656D05
:1039CA0000646563656D00203230303020202000AD
:1039DA00313131323231776D0072756C6530203099
:1039EA003000647374206175746F00647374206F9F
:1039FA006E202000647374206F666620006272690C
:103A0A007465200073657420677073200067707393
:103A1A00206F6E202000677073206F666620006733
:103A2A007073206C61742000677073206C6F6E670E
:103A3A00006164696D206F6E20006164696D206F9A
:103A4A00666600202020202020202000616C617200
:103A5A006D206F6E00244750524D43002020206D88
:103A6A00696E7574007573612D31326872006575FF
:103A7A00722D3234687200766F6C2068696768004C
:103A8A00766F6C20206C6F77006272746C6F200006
:103A9A0062727468692000736E6F6F7A696E67006C
:103AAA000A0D54696D657A6F6E65206F6666736577
:103ABA007420686F75723A090069636520747562CB
:103ACA00650073657420616C61720073657420749B
:103ADA00696D65007365742064617465007365744B
:103AEA00207A6F6E6500736574206164696D007376
:103AFA00657420627269740073657420766F6C2035
:103B0A0000736574207265676E0073657420647350
:103B1A007420007365742072756C65007365742077
:103B2A00736E6F7A00030E2F030102020B0101026A
:103B3A00010101010001010100000C0507170C0534
:103B4A00071701F800001F003B005A007800970091
:0C3B5A00B500D400F300110130014E0151
:00000001FF
