:100000000C9479000C94A0080C9496000C94170D95
:100010000C9496000C94640D0C9496000C94B513FB
:100020000C9496000C9496000C9496000C949600F8
:100030000C9496000C9496000C9496000C949600E8
:100040000C94740E0C9496000C9496000C949600EC
:100050000C9496000C9493030C9496000C94E40278
:100060000C9496000C9496006A000B10120F0D0E63
:100070001113740003070809060A050C047F000425
:1000800000020008000020000200408D00C080C275
:10009000004202020A001A10183010320022020236
:1000A0000600868084A70080808000400020001029
:1000B0000010100010000800040080BD000E620E49
:1000C000200E400C6004620862CB00FC60DAF2662D
:1000D000B6BEE0FEF6D700FA3E1A7ADE8EF62E6045
:1000E00078AE1CAA2A3ACEF30AB61E3838B86E7615
:1000F000DA0011241FBECFEFD8E0DEBFCDBF13E082
:10010000A0E0B1E0ECEDF7E302C005900D92A63E51
:10011000B107D9F714E0A6EEB3E001C01D92A73AEB
:10012000B107E1F70E944D190C94EC1B0C940000F0
:1001300078941092EC031092EB032091EB03309132
:10014000EC0328173907C8F30895CF92DF92EF9296
:10015000FF926B017C01A0EDB7E09B01AC010E9416
:10016000F81A6115710581059105C1F061157105D8
:1001700021E08207910580F02AE02C9DC0012D9D91
:10018000900D112428EC30E004C0F9013197F1F70B
:1001900001970097D1F706C0CB0102C081E090E043
:1001A0000197F1F7FF90EF90DF90CF9008950197BE
:1001B000F1F708950F931F93CF93DF930FE011E0B2
:1001C000C0E0D0E0CE010E94D61BF80161918F0102
:1001D000861719F0CE010E94DE1B2196C432D1058C
:1001E00089F7DF91CF911F910F910895A8950895F8
:1001F00081E08093F9035B9A8CB58F7B8CBD85B1D0
:10020000877D85B95E9815BC10926800459885B1C8
:10021000897F85B98BB18F7C8BB928988AB18F7C07
:100220008AB920985A985298E1E6F0E090E89083D5
:1002300088E08083449A83B7876083BF88959083E2
:100240001082449808958EE284B988E48AB989E0DE
:1002500087B984E38BB981E085B995E09093680014
:1002600080936B0080E380936D000895CF93DF93BC
:1002700010927F04809169048E3419F410928004E6
:1002800003C082E080938004A8E7B4E0C1E8D4E032
:10029000ED91E053F0E0E553FF4FE491E99384E002
:1002A000AE37B807A9F780918404816080938404F5
:1002B000DF91CF910895CF93DF93809167048534C8
:1002C00019F410927F0403C082E080937F04AAE6B1
:1002D000B4E0C0E8D4E0ED91E053F0E0E553FF4F27
:1002E000E491E99384E0A137B807A9F780918404E9
:1002F000816080938404DF91CF910895FF920F93E2
:100300001F93CF93DF93F62EFA94642F952FC0E0BE
:10031000D0E00AE010E0282F30E02F0D311DF7FC6F
:100320003A9522583B4F0EC0862FB8010E942D1BD4
:10033000FC01E553FF4FE491D901AC0FBD1FEC93D5
:10034000972F21978C2F8F0D87FFEECFDF91CF91C5
:100350001F910F91FF900895282F30E0F901E25886
:10036000FB4F67FF04C092E09083619501C010824B
:10037000A82FB0E0862F6AE00E941F1BE82FF0E054
:10038000E553FF4F8491A258BB4F842B11968C9359
:100390001197E92FF0E0E553FF4FE491E42B12961B
:1003A000EC930895A82F862FB0E06AE00E941F1BEF
:1003B000E82FF0E0E553FF4F8491A258BB4F842B08
:1003C0008C93E92FF0E0E553FF4FE491E42B119675
:1003D000EC93089590E0FC01E553FF4FE491E09326
:1003E0008304FC01E15FFE4F41E0668987E00C94E5
:1003F000D2019C0183709927892B39F4C90164E6E5
:1004000070E00E942D1B892B69F4C90160E971E03D
:100410000E942D1B21E030E0892B11F020E030E01C
:10042000C901089581E090E0089585B1866085B99D
:1004300082E38093800080911B01882329F08091C2
:10044000800080688093800088E1809381008AEF3B
:1004500090E0909387008093860080918600909131
:100460008700969587959093890080938800909354
:100470008B0080938A000895109280001092810072
:10048000299A2A988AE090E00E9498002A9A29984E
:100490008AE090E00E94980085B1897F85B982E367
:1004A0008093800080911B01882329F08091800037
:1004B00080688093800088E1809381000895CF92C6
:1004C000DF92EF92FF92CF93C62F6A019C0140E02A
:1004D00050E060E472E48FE090E00E94771B30937C
:1004E00087002093860080918600909187009695E2
:1004F000879590938B0080938A00909389008093D6
:100500008800E12CF12C16C08091810082608093DC
:100510008100C701B6010E94A500809181008D7FF6
:100520008093810085B1897F85B9C701B6010E949A
:10053000A500C150C111E8CF85B1897F85B9CF91A0
:10054000FF90EF90DF90CF90089544E650E00C9438
:100550005F020F931F93CF93DF9380E090E00E94A0
:10056000D61BC82F83E290E00E94D61BC83211F43C
:100570008832B9F00FE011E0C0E0D0E0F8016191FD
:100580008F01CE010E94DE1B2196C432D105B1F746
:1005900062E088EB9BE0DF91CF911F910F910C946B
:1005A000A5020FE011E0C0E0D0E0CE010E94D61B12
:1005B000F80181938F012196C432D105B1F7DF9103
:1005C000CF911F910F9108951F920F920FB60F9226
:1005D00011242F933F934F935F936F937F938F9348
:1005E0009F93AF93BF93EF93FF9300B605FE33C085
:1005F0008091F903811138C05B9A85B1877D85B9F7
:100600005E988CB58F7B8CBD8091F803882399F020
:100610008091660480931301809187048093140174
:100620008091A204809315010E94DA0061E080EDC0
:1006300097E00E94A5028091F703882339F00E9479
:10064000DA0062E080ED97E00E94A50215BC1092EE
:100650006800459804C08091F903882329F0E0914F
:10066000FC03F091FD030995FF91EF91BF91AF91CC
:100670009F918F917F916F915F914F913F912F91BA
:100680000F900FBE0F901F9018953D9A459AEAE77C
:10069000F0E0808186608083ACE7B0E08C9180647C
:1006A0008C938C9184608C93AEE7B0E08C918061E8
:1006B0008C938081806880838081886080830895A6
:1006C00080912101813029F480917A0080648093A7
:1006D0007A00089590919204992329F08091A204C0
:1006E00080FD0EC005C08B3518F48A3018F003C0A9
:1006F0008AE501C08AE097B5981721F087BD089573
:1007000082E3F9CF08950E946A0383E084BD81E00B
:1007100085BD84B5806884BDEEE6F0E080818160AF
:100720008083789408951F920F920FB60F92112430
:100730002F933F934F935F936F937F938F939F93E9
:10074000AF93BF93CF93DF93EF93FF9380912101FA
:10075000813099F58091780090917900392F20E0CF
:10076000282B3093940420939304223F83E038078E
:1007700018F0C091220105C0C09123012536310532
:1007800018F48C2F90E013C0D0E080912201DE019C
:10079000A81BB109245631090E94F11A2EE833E052
:1007A00040E050E00E94551BCE01821B930B9093BA
:1007B0008F0480938E040E946A03FF91EF91DF9172
:1007C000CF91BF91AF919F918F917F916F915F91E9
:1007D0004F913F912F910F900FBE0F901F90189542
:1007E000CF93C82F41E0682F87E00E94D2018C2F61
:1007F000CF910C946A03CF93DF93C62FD0E0E82FFC
:10080000F0E0E053F84FC330D10510F42C96319747
:10081000242F30E02F5F3F4F2E0F3F1FCE01880F58
:10082000991F280F391FCF01969587959695879523
:10083000280F391FCF0160E971E00E942D1B260FA0
:10084000371FCF0164E670E00E942D1B261B370B7B
:10085000219646E04C9FC0014D9F900D11246AE007
:1008600070E00E942D1B260F371FC90167E070E062
:100870000E942D1B8F5FDF91CF910895E82FF0E04C
:10088000E553FF4F84910895E82FF0E0EA58FF4FB9
:10089000849108951F93CF93DF93C82FD62F142FE1
:1008A00080919504811196C090913101943009F4A2
:1008B0005EC050F4913091F008F48CC0923051F148
:1008C000933009F08CC038C0963008F488C0983056
:1008D00008F462C09A3008F082C072C040E0612F14
:1008E00087E00E94D20180911E01882309F477C01D
:1008F0008091F403853030F4809186048160809388
:1009000086046DC0803108F46AC01170809186043D
:10091000182B5DC0842F66E00E94131B292F30E046
:10092000220F331FF901E254FF4FE491E093850455
:10093000F901E354FF4F2CC0842F6AE00E94131B7F
:10094000292F30E0220F331FF901E855FF4F849122
:1009500080938504F901E955FF4F24912093860483
:1009600040FF3DC0826080938504226012C0842FC6
:100970006CE00E94131B292F30E0220F331FF90176
:10098000E257FF4FE491E0938504F901E357FF4FED
:1009900024912093860423C0CC3018F4E7EDF0E0D6
:1009A00002C0E6EEF0E0E491E0938504E3EEF0E0CF
:1009B000E491E0938604973091F411701E2B07C0E8
:1009C0001092850410928604993049F411701093A6
:1009D000860405C040E0612F87E00E94D20110929A
:1009E000840440E06D2F84E00E94D20110928104C3
:1009F00080911C0181112AC08C2F90E00B966CE035
:100A000070E00E94411B9C0101966AE070E00E9428
:100A1000411B85539F4FFC01849180938004265F86
:100A20003F4F2331310518F410927F0405C0ECECE0
:100A3000F0E0E491E0937F0480917E04CC3010F0EC
:100A4000816001C08E7F80937E0408C040E06C2FDF
:100A500081E0DF91CF911F910C94D201DF91CF9172
:100A60001F910895CF93C82F109286041092850489
:100A70001092840440E084E00E94D201109281042C
:100A800080911C0181113BC080917E04CC3048F0E4
:100A9000816080937E04E6EEF0E0E491E0938504CB
:100AA00008C0E7EDF0E0E491E09385048E7F809349
:100AB0007E04E3EEF0E0E491E09386048C2F90E076
:100AC0000B966CE070E00E94411B9C0101966AE06D
:100AD00070E00E94411B85539F4FFC0184918093DD
:100AE0008004265F3F4F2331310518F410927F04B4
:100AF00014C0ECECF0E0E491E0937F040EC08C2F86
:100B000090E0479668E170E00E94411B682F6F5F9C
:100B100040E081E0CF910C94D201CF910895CF9223
:100B2000DF92EF92FF920F931F93CF93DF93F0909A
:100B30008B04E090680486E08093E603C0E0D6E092
:100B4000FCE3CF2ED12C08E110E08091E90380FD79
:100B500095C08091E903811104C08091E803882346
:100B600019F0D093E60314C08091E603811110C000
:100B700010929504F0921601E0921701DF91CF9147
:100B80001F910F91FF90EF90DF90CF900C94DA00BF
:100B90008091E90381FF2FC01092E903C11110C0B9
:100BA0006E2D8F2D0E94320580917F04816080938D
:100BB0007F0480918004816080938004C1E01BC029
:100BC000C13081F46E2D8F2D0E94320580918204F8
:100BD0008160809382048091830481608093830488
:100BE000C2E009C0F0921601E09217010E94DA00FB
:100BF0001092950443C08091E90382FD04C0809166
:100C0000E80382FFA2CF1092E903C130A9F48F2D2F
:100C100090E00196B8010E94411BF82E6E2D0E94B3
:100C2000320580917F04816080937F0480918004ED
:100C300081608093800417C0C230A9F48E2D90E0AB
:100C40000196B6010E94411BE82E682F8F2D0E944D
:100C500032058091820481608093820480918304B4
:100C60008160809383048091E80382FF6ECF0E94AD
:100C70003C028BE490E00E94980067CFDF91CF9117
:100C80001F910F91FF90EF90DF90CF900895CF9339
:100C9000C82FE9EDF0E0E491E0938604EAEEF0E09D
:100CA000E491E0938504EBEEF0E0E491E0938404BA
:100CB00040E084E00E94D201109281046C2F7727DB
:100CC00067FD709577FF03C071956195710940E0EC
:100CD00081E00E94D20180917E04C7FD02C08D7F19
:100CE00001C0826080937E04CF910895AF92BF923D
:100CF000CF92DF92FF920F931F93CF93DF93F090E9
:100D00001F01D090200186E08093E603C0E0D6E08A
:100D1000BCE3AB2EB12C09E110E08091E90380FD2A
:100D20008CC08091E903811104C08091E80388237D
:100D300019F0D093E60305C08091E603811101C04C
:100D40002AC08091E90381FF29C01092E903C111F3
:100D500010C06D2D8F2D0E94470680917F04816009
:100D600080937F0480918004816080938004C1E03F
:100D700015C0C13081F46D2D8F2D0E9447068091E2
:100D800082048160809382048091830481608093D7
:100D90008304C2E003C0109295044FC08091E90320
:100DA00082FD04C08091E80382FFB7CF1092E9036F
:100DB000C130E1F48F2D992787FD90950D96B801EC
:100DC0000E94411BA4EFFA2EF80E6D2D8F2D0E946C
:100DD000470680917F04816080937F048091800426
:100DE000816080938004F0921F011AC0C230D1F458
:100DF0008D2D90E00196B5010E94411BC82ED82E82
:100E0000682F8F2D0E944706809182048160809315
:100E1000820480918304816080938304C0922001C6
:100E20000E94DA008091E80382FF77CF0E943C02A3
:100E30008BE490E00E94980070CFDF91CF911F91DA
:100E40000F91FF90DF90CF90BF90AF9008950F93D8
:100E50001F93CF93DF9310927E048C01CFE7D4E0F1
:100E6000F80181918F018823C1F0982F91569A3112
:100E700020F40E94440488830BC080538A3038F4E5
:100E8000E82FF0E0E553FF4FE491E88301C01882BA
:100E90002196F4E0C738DF0719F7DF91CF911F9152
:100EA0000F910895109285041092860440911201CA
:100EB00060911101809110010E94FB038430B1F018
:100EC00030F4823069F078F48130E9F406C086307D
:100ED00099F078F08730B9F412C081E791E011C041
:100EE00088E791E00EC08FE791E00BC087E891E0C2
:100EF00008C080E991E005C089E991E002C080EA7C
:100F000091E00E94270788EE93E00E9498001092DB
:100F1000820410928304109284048091110186301F
:100F200059F168F48330F9F028F48130B1F082305F
:100F3000C9F516C08430D1F08530A1F51AC08930CA
:100F400021F128F48730D9F0883061F51BC08B304F
:100F500011F1F0F08C3031F521C089EA91E020C028
:100F60008DEA91E01DC081EB91E01AC087EB91E022
:100F700017C08DEB91E014C081EC91E011C086ECBC
:100F800091E00EC08BEC91E00BC081ED91E008C0C8
:100F900086ED91E005C08CED91E002C082EE91E01B
:100FA0000E94270740E06091120187E00E94D20171
:100FB00088EE93E00E94980088EE91E00E94270757
:100FC00040E06091100184E00C94D201811126C0B0
:100FD00010927E0482E08093810480938404809147
:100FE0001C0140E0811109C06091110181E00E9463
:100FF000D20140E06091120108C06091120181E0CD
:101000000E94D20140E06091110184E00E94D2016F
:1010100040E06091100187E00C94D201813011F41E
:101020000C945207089580E00E94E60764EF71E097
:1010300080E090E00E94A5008091130180936604F7
:101040008091140180938704809115018093A204FC
:101050004091A20460918704809166040E944A0432
:1010600064EF71E080E090E00E94A50081E0809351
:10107000F60380912F01813420F010922F010E94FD
:10108000DA0080E28093B6001092B2008FE780937E
:10109000B30082E08093B00096E09093B10080931B
:1010A0007000789408954A9B25C08091890481112D
:1010B00046C081E0809389041092EE031092ED0304
:1010C0008091F8038823D9F180919504811137C06C
:1010D00081EF91E00E94270783E68093950488EED4
:1010E00093E00E9498006091680480918B040E94B4
:1010F00032051FC080918904882309F11092890468
:101100001092EE031092ED0380919204882351F027
:1011100010929204809181008D7F8093810085B12F
:10112000866085B98AEF91E00E94270783E6809365
:10113000950488EE93E00E9498001092950408951B
:101140001F920F920FB60F9211242F933F934F933C
:101150005F936F937F938F939F93AF93BF93CF933F
:10116000EF93FF931DBA89E60E942518C9B17894C0
:101170008AE090E00E94980089B1C4702C2F30E082
:10118000847090E02817390709F002C00E945308C4
:1011900081E08DBBFF91EF91CF91BF91AF919F9176
:1011A0008F917F916F915F914F913F912F910F9010
:1011B0000FBE0F901F901895CF93DF9386E080931A
:1011C000E603C0E0D6E08091E903811104C080917C
:1011D000E803882319F0D093E60305C08091E60365
:1011E000811101C01EC08091E90380FD44C080913F
:1011F000E90381FF19C01092E903C1110CC083E01B
:1012000092E00E94270741E060911D0181E00E9469
:10121000D201CFE009C08CE092E00E9427070E9433
:10122000DA001092950427C08091E90382FD04C082
:101230008091E80382FFC7CF1092E903CF3081F499
:1012400080911D018F5F843618F480931D0102C0C8
:1012500010921D0141E060911D0181E00E94D201C8
:101260008091E80382FFAFCF0E943C028BE490E0C4
:101270000E949800A8CFDF91CF910895809131010D
:10128000843051F148F48130B9F098F08230F1F0B7
:10129000833009F041C01DC0873039F128F4853012
:1012A000F1F08630C9F51EC0883049F18930A1F5CA
:1012B0002AC085E192E025C08EE192E00E942707D6
:1012C00080918604816080938604089587E292E08D
:1012D00018C080E392E015C089E392E012C082E476
:1012E00092E00FC08BE492E00CC084E592E00E9493
:1012F00027078091850481608093850408958DE59A
:1013000092E00C94270786E692E00E9427078091DE
:1013100084048160809384040895CF93DF9386E0F2
:101320008093E603C0E0D6E08091E903811104C018
:101330008091E803882319F0D093E60305C08091DB
:10134000E603811101C012C08091E90380FD34C021
:101350008091E90381FF0DC01092E903C11104C01F
:101360000E943E09CEE005C00E94DA00109295046A
:1013700023C08091E90382FD04C08091E80382FFCD
:10138000D3CF1092E903CE3061F4809131018F5FA9
:101390008A3018F48093310102C0109231010E940A
:1013A0003E098091E80382FFBFCF0E943C0284E6A1
:1013B00090E00E949800B8CFDF91CF9108951F93DD
:1013C000CF93DF9386E08093E603C0E0D6E010EC95
:1013D0008091E903811104C08091E803882319F00A
:1013E000D093E60305C08091E603811101C01AC0C5
:1013F0008091E90380FD40C08091E90381FF15C021
:101400001092E903C1110CC08FE692E00E942707F9
:1014100041E060912F0186E00E94AC01C8E005C068
:101420000E94DA001092950427C08091E90382FDA2
:1014300004C08091E80382FFCBCF1092E903C8304B
:1014400081F480912F018F5F803418F480932F01F5
:1014500002C010932F0141E060912F0186E00E94AD
:10146000AC018091E80382FFB3CF0E943C028BE481
:1014700090E00E949800ACCFDF91CF911F9108952A
:1014800080911C01811103C086E792E002C08FE7C2
:1014900092E00C942707CF93DF9386E08093E603D6
:1014A000C0E0D6E001C0C0E08091E903811104C032
:1014B0008091E803882319F0D093E60305C080915A
:1014C000E603811101C010C08091E90380FD23C0B3
:1014D0008091E90381FF0BC01092E903C11104C0A0
:1014E0000E94400AC1E003C01092950414C080918C
:1014F000E90382FFD9CF1092E903C130A1F681E060
:1015000090911C01911180E080931C010E94400A7F
:101510000E94DA00C9CFDF91CF91089580911B011D
:10152000882351F088E892E00E9427078091860482
:1015300081608093860404C081E992E00E942707BD
:10154000809183048160809383048091840481600E
:10155000809384048091850481608093850408953C
:10156000CF93DF9386E08093E603C0E0D6E001C02E
:10157000C0E08091E903811104C08091E8038823D1
:1015800019F0D093E60305C08091E603811101C0F4
:1015900010C08091E90380FD2AC08091E90381FF9A
:1015A0000BC01092E903C11104C00E948E0AC1E071
:1015B00003C0109295041BC08091E90382FFD9CF2C
:1015C0001092E903C130A1F681E090911B019111C5
:1015D00080E080931B010E94DA000E94150261E006
:1015E00080EA9FE00E94A5020E948E0AC2CFDF918E
:1015F000CF91089540E060912E0187E00E94D201D2
:101600008AE992E00C94270780912401813219F431
:1016100082EA92E007C0813019F48BEA92E002C0BE
:1016200084EB92E00C9427070F931F93CF93DF93E3
:1016300086E08093E60310922101C0E0D6E012E339
:101640000AE08091E903811104C08091E8038823B6
:1016500019F0D093E60307C08091E603811103C01F
:101660001092950426C08091E90380FD22C08091EC
:10167000E90381FF22C01092E903C1110AC08DEB7A
:1016800092E00E942707809122010E94F003C1E0AE
:1016900014C0C13051F484EC92E00E94270780917D
:1016A00023010E94F003C2E008C0109295040E943A
:1016B000DA0081E08093210134C08091E90382FD4A
:1016C00004C08091E80382FFBCCF1092E903C130CF
:1016D00069F4809122018E5F833318F48093220194
:1016E00002C000932201809122010EC0C23071F429
:1016F000809123018B5F8B3518F48093230102C006
:1017000010932301809123010E94F0038091E8034C
:1017100082FF97CF0E943C028BE490E00E949800E9
:1017200090CFDF91CF911F910F910895809121016A
:10173000813019F48BEC92E002C084ED92E00C94BD
:101740002707CF93DF9386E08093E603C0E0D6E0DF
:101750008091E903811104C08091E803882319F086
:10176000D093E60305C08091E603811101C03FC01C
:101770008091E90380FD56C08091E90381FF3AC062
:101780001092E903C11104C00E94960BC5E032C05B
:10179000C530B1F48DED92E00E942707409193048B
:1017A0005091940464E081E00E947E0140918E0497
:1017B00050918F0463E086E00E947E01C3E01AC06E
:1017C000C33099F40E9460034091930450919404B3
:1017D00064E081E00E947E0140918E0450918F046C
:1017E00063E086E00E947E0105C00E94DA0010924C
:1017F000950418C08091E90382FFAACF1092E903F3
:10180000C53009F0A5CF80912101813019F41092E3
:10181000210103C081E0809321010E94960B0E9468
:10182000DA0096CFDF91CF9108951F93CF93DF9386
:1018300086E08093E603C0E0D6E019E18091E903F9
:10184000811104C08091E803882319F0D093E60346
:1018500005C08091E603811101C016C08091E903A3
:1018600080FD3EC08091E90381FF15C01092E9031D
:10187000C1110AC082EE92E00E94270780911801F0
:101880000E94F003C1E007C010929504DF91CF9150
:101890001F910C94DA008091E90382FD04C08091CD
:1018A000E80382FFCBCF1092E903C13071F480913D
:1018B00018018B5F8B3518F48093180102C01093C8
:1018C0001801809118010E94F0038091E80382FFC3
:1018D000B5CF0E943C028BE490E00E949800AECF0E
:1018E000DF91CF911F91089580911E01813019F4ED
:1018F00089EE92E007C0823019F482EF92E002C0D4
:101900008BEF92E00C94270780913001882319F027
:1019100084E093E002C08DE093E00C9427071F93CE
:10192000CF93DF9386E08093E603C0E0D6E011E03A
:101930008091E903811104C08091E803882319F0A4
:10194000D093E60305C08091E603811101C012C067
:101950008091E90380FD27C08091E90381FF0DC0DC
:101960001092E903C11104C00E94840CCAE005C0B2
:101970000E94DA001092950416C08091E90382FF5C
:10198000D7CF1092E903CA3099F6809130018823AD
:1019900019F01092300102C0109330010E94840CA3
:1019A0000E94DA00C5CFDF91CF911F910895CF93A8
:1019B00086E08093E603C6E08091E90380FD1DC0C8
:1019C0008091E903811104C08091E803882319F014
:1019D000C093E60307C08091E603811103C0109213
:1019E00095040BC08091E90381FFE6CF1092E903D3
:1019F00083E391E00E942707DFCFCF910895809184
:101A00001D012CE3829FC00111249093EE0380936B
:101A1000ED0386E193E00E94270783E68093950417
:101A20008CED95E00E9498001092950408951F9205
:101A30000F920FB60F9211242F933F934F935F9302
:101A40006F937F938F939F93AF93BF93EF93FF9386
:101A500010926B00789418991EC08091EA0381FD62
:101A60001FC08AE090E00E949800189919C00E9457
:101A70003C0280919204882319F00E94FF0C10C050
:101A80008091EA0382608093EA038091E903826097
:101A90008093E90305C08091EA038D7F8093EA0378
:101AA00081E080936B00FF91EF91BF91AF919F9187
:101AB0008F917F916F915F914F913F912F910F90F7
:101AC0000FBE0F901F9018951F920F920FB60F9296
:101AD00011242F933F934F935F936F937F938F9333
:101AE0009F93AF93BF93EF93FF9310926D00789401
:101AF000A8954D991BC08091EA0380FD1CC08AE027
:101B000090E00E9498004D9952C00E943C02809142
:101B1000920481112DC08091EA0381608093EA03D1
:101B20008091E90381608093E90305C08091EA0315
:101B30008E7F8093EA034C9933C08091EA0382FD43
:101B400036C08AE090E00E9498004C9930C00E9414
:101B50003C0282E08093E70314C04C9B12C080914A
:101B6000EA038B7F8093EA0380919204882319F023
:101B70000E94FF0C1CC08091E90384608093E903FC
:101B800016C08091E7038111E8CF8091EA03846059
:101B90008093EA038091E80384608093E80307C0A0
:101BA0001092E8038091EA038B7F8093EA0380E33D
:101BB00080936D00FF91EF91BF91AF919F918F91B5
:101BC0007F916F915F914F913F912F910F900FBE39
:101BD0000F901F90189581E58CBD08958EBD0DB4B2
:101BE00007FEFDCF0895CF93DF9300D0CDB7DEB7CA
:101BF000F8946A8379830E94EE0D7981872F0E9481
:101C0000EE0D6A81862F0E94EE0D409A40987894DE
:101C10000F900F90DF91CF9108958F929F92AF9286
:101C2000BF92CF92DF92EF92FF920F931F9390910A
:101C30000001981708F4892FE82FF0E0DF01A2587F
:101C4000BB4FAC91EC58FF4FE49161E070E002C0F3
:101C5000660F771FEA95E2F7882777FD8095982F22
:101C60000091FE031091FF032091000430910104C4
:101C700040E050E0B0E0C12CD12C7601C394FD01CE
:101C8000042E02C0F595E7950A94E2F7E0FF13C031
:101C9000FA01E659FF4F04914601570104C0880C30
:101CA000991CAA1CBB1C0A95D2F7950184016829CE
:101CB00079298A299B294F5F5F4F48305105F9F6F2
:101CC0000093FE031093FF0320930004309301045C
:101CD0001F910F91FF90EF90DF90CF90BF90AF904A
:101CE0009F908F900C94F30D1F920F920FB60F924E
:101CF00011242F933F934F935F936F937F938F9311
:101D00009F93AF93BF93EF93FF937894A89580919F
:101D1000F1039091F20301969093F2038093F10303
:101D2000829708F40DC11092F2031092F103809192
:101D3000EB039091EC0301969093EC038093EB03FB
:101D40008091F3030E940D0E2091F3032F5F2093E7
:101D5000F30330E0409100018091300190E0840F66
:101D6000911D8217930714F41092F30380913101AF
:101D7000853041F580919504811124C08091FB0349
:101D80008F5F8093FB038739E8F01092FB0380910B
:101D9000EB039091EC0367EA70E00E942D1BCB01EE
:101DA00066E070E00E942D1B880F991FFC01E0582F
:101DB000FF4FE491E0938504FC01E158FF4F8491CB
:101DC0008093860480919204882309F4B9C080919D
:101DD000ED039091EE03892B09F0B2C08091EF03DF
:101DE0009091F00301969093F0038093EF038B356D
:101DF000910508F4A5C01092F0031092EF038091B2
:101E0000960490919704019690939704809396047A
:101E100080919604909197048135964470F01092C9
:101E200092041092EE031092ED03809181008D7F59
:101E30008093810085B1866085B9809190049091EE
:101E400091040196909391048093900420919004C2
:101E5000309191048091A3049091A4048217930778
:101E600030F510929104109290041092A6041092F2
:101E7000A5048091A3049091A404459748F0809113
:101E8000A3049091A40444979093A4048093A30482
:101E900080918C0490918D04449748F480918C0437
:101EA00090918D04029690938D0480938C04809180
:101EB000A5049091A60401969093A6048093A5048E
:101EC0002091A5043091A60480918C0490918D04FA
:101ED00082179307A8F18091A5049091A6044CE085
:101EE000489F9001499F300D112424553E4F40E0FA
:101EF00050E060E472E48FE090E00E94771B309342
:101F000087002093860080918600909187009695A7
:101F1000879590938B0080938A009093890080939B
:101F200088008091A5049091A60480FF04C0809150
:101F30008100826003C0809181008D7F8093810049
:101F4000FF91EF91BF91AF919F918F917F916F9191
:101F50005F914F913F912F910F900FBE0F901F9067
:101F600018958091C00080780895FC01938190516C
:101F700082812AE0829F900D112425812051848145
:101F80003AE0839F200D112430911F0180912E0192
:101F90008051830F4181840F40815AE0459F800D1D
:101FA0001124809366048091200137FF02C0981BA2
:101FB00001C0980F909387042093A20481E080933E
:101FC000F8030895FC019381905182812AE0829F59
:101FD000900D11248581805124813AE0239F800D4A
:101FE00011242181205130814AE0349F200D112499
:101FF00020931201909311018093100181E080934E
:10200000F703089581E0809392041092EE031092FA
:10201000ED0388EC90E09093A4048093A3041092C5
:1020200091041092900482E090E090938D0480934C
:102030008C0410929704109296041092F003109260
:10204000EF03089590918904992361F090918B0496
:10205000981308C080916804861304C0411102C01F
:102060000C9402100895CF92DF92EF92FF920F939B
:10207000CF93DF93D22FCE2DE62FF0E0EE0FFF1F90
:10208000E55BFE4FC080D180C40ED11CE12CF12C49
:10209000382F3053832F837031F4832F64E60E94EE
:1020A000131B911108C0832F90E060E971E00E943A
:1020B000411B892B29F48FEFC81AD80AE80AF80ABD
:1020C000A701960160E871E581E090E00E94031BA2
:1020D0006B017C012D2F30E0A0E1BEE00E94E51AEB
:1020E000C60ED71EE81EF91E202FACE3B0E00E94FA
:1020F000E51AC60ED71EE81EF91ECC0ED11CE11C37
:10210000F11CB601C701DF91CF910F91FF90EF90C5
:10211000DF90CF900895BF92CF92DF92EF92FF921F
:102120000F931F93CF93DF931F92CDB7DEB7B82ED7
:10213000C62EF42ED02EE62FF0E0EC59FE4F108183
:1021400082E0681304C08B2D837009F41F5F41E0A7
:102150006C2D8B2D29830E94FB034F2D481B298159
:10216000F81608F4495F2150E7E02E9F400D112436
:102170004F5FE12FF0E001C04750A42FBB27A7FD20
:10218000B095EA17FB07C4F3E12C00E02D2D6C2D70
:102190008B2D0E9433100F90DF91CF911F910F91E3
:1021A000FF90EF90DF90CF90BF900895CF93DF9393
:1021B000C82F80912E018C1749F19091F503913031
:1021C00029F5DC2FD81B61E01D1644F488EB91E063
:1021D0000E94A50261E080E793E007C080E793E0FA
:1021E0000E94A50261E088EB91E00E94A502C093E5
:1021F0002E01809166048D0F8093660480916604A1
:10220000809313010E94DA001092F503DF91CF91C1
:1022100008954F925F926F927F928F929F92AF92AA
:10222000BF92EF920F93CF93DF93B0902901A090CC
:102230002A0190902B0180902C01D0912D01C0910A
:102240001001009128012091270140912601609101
:1022500025018C2F0E948B102B013C01082D292D6C
:102260004A2D6B2D8C2F0E948B104B015C01E0904E
:10227000A2040091870420916604409112016091AC
:1022800011018C2F0E943310481459046A047B04F6
:1022900044F464157505860597050CF007C080E0C9
:1022A0000BC064157505860597052CF4681579052E
:1022B0008A059B05A4F78D2FDF91CF910F91EF90A9
:1022C000BF90AF909F908F907F906F905F904F9056
:1022D0000C94D6108091A2048C3354F08091A20407
:1022E0008C538093A204809187048F5F809387042E
:1022F0008091A20487FF0AC08091A204845C80932D
:10230000A204809187048150809387048091870480
:102310008C3354F0809187048C5380938704809190
:1023200066048F5F809366048091870487FF0AC0EC
:1023300080918704845C8093870480916604815037
:10234000809366048091A204811112C08091870459
:1023500081110EC080911E0181110AC08091660416
:102360008093130180918704809314010E94DA0006
:1023700080916604883164F080916604885180936E
:102380006604809112018F5F809312010E94DA002F
:102390008091660487FF0CC080916604885E8093FC
:1023A0006604809112018150809312010E94DA002C
:1023B000909112019032F8F4809111019F3149F40B
:1023C0008430C9F08630B9F08930A9F08B30E9F457
:1023D00012C09E3119F48230C1F40DC09D31A9F4B0
:1023E000823099F48091100190E08053984F0E94C0
:1023F000F90181110AC081E08093120180911101DD
:102400008F5F809311010E94DA0080911201811187
:1024100039C0809111018630B9F058F48330E9F069
:1024200018F4813050F110C0843071F0853029F5F6
:102430000DC08A3018F4883038F408C08B3021F091
:1024400028F08C30D1F402C09FE101C09EE190934E
:10245000120181508093110113C08091100190E00E
:102460008053984F0E94F901882311F08DE101C03B
:102470008CE18093120182E0EDCF81E08093120124
:102480000E94DA00809111018D3050F0809110018E
:102490008F5F8093100181E0809311010E94DA0028
:1024A0008091110181110AC08CE08093110180910B
:1024B00010018150809310010E94DA008091A204E3
:1024C000811111C080912401813211F40E940911FF
:1024D00080918704811107C080916604811103C037
:1024E00081E08093F50308958091F603882381F1BC
:1024F00046E050E061E071E081E794E00E94B91BA2
:102500000097B1F444E050E068E071E08AE994E0BB
:102510000E94B91B009761F41092F4038AE994E0D9
:102520000E94B50F81E794E00E94E20F0E946A11B9
:1025300046E050E061E774E081E091E00E94C71B53
:1025400046E050E06AE974E088E091E00C94C71B33
:1025500008950F931F93CF93DF931F92CDB7DEB7EC
:102560008091C6008983E2E0F4E001900020E9F761
:102570003197E250F440E11104C0843209F0EFC019
:1025800005C0E33608F0E4C08D3051F041E050E082
:10259000BE016F5F7F4F82E094E00E94A91BDFC005
:1025A0006FE173E082E094E00E94931B47E050E00B
:1025B00061E273E082E094E00E94B91B009709F0A9
:1025C000C7C083E094E0909399048093980410929C
:1025D0008A040AC080918A04892780938A043196EC
:1025E000F0939904E0939804E0919804F091990491
:1025F00090819A3279F7918182819A3310F09753C2
:1026000001C090538A3310F0875301C0805320E1FA
:10261000929F800D11248093880490918A049813CE
:1026200097C06CE270E082E094E00E949E1B909361
:10263000990480939804019626E0FC01AAE9B4E08D
:1026400001900D922A95E1F71092A0046CE270E0DF
:102650000E949E1B9093990480939804DC0111962C
:102660002C912093A104213409F072C06CE270E037
:1026700001960E949E1B9093990480939804FC01FC
:10268000418152816381748140937804509379042D
:1026900060937A0470937B042681378130937D04A4
:1026A00020937C046CE270E001960E949E1B909344
:1026B000990480939804DC0111962C91209369046D
:1026C0006CE270E001960E949E1B909399048093A7
:1026D00098049C012F5F3F4F45E0F901AAE6B4E062
:1026E00001900D924A95E1F7FC01878190859093C6
:1026F000700480936F046CE270E0C9010E949E1B1D
:102700009093990480939804DC0111968C918093A6
:10271000670403E010E080919804909199046CE2C2
:1027200070E001960E949E1B9093990480939804F8
:102730000150110981F7FC01319686E0A1E7B4E070
:1027400001900D928A95E1F7109277040E9474121D
:1027500084E6E2E0F4E0DF011D928A95E9F70F904C
:10276000DF91CF911F910F9108951F920F920FB695
:102770000F9211242F933F934F935F936F937F9307
:102780008F939F93AF93BF93EF93FF9380E88093D2
:102790006100109261008091A2048F5F8093A20477
:1027A0000E946A1180918704882329F08091F9039F
:1027B0008823C9F090C08091A204811104C0809147
:1027C0002F01815805C08091A204813019F48FE750
:1027D0008093B3008091A204823044F78091B600C8
:1027E00083FDFCCFE3CF8091F403803118F48F5F39
:1027F0008093F40380919504811133C08091F80394
:10280000811107C08091A20480FF03C089E293E098
:1028100012C080911E01882389F08091F4038031D9
:1028200068F080913101813049F08091A20480FFED
:1028300005C082E393E00E94270708C04091A204EC
:1028400060918704809166040E944A0490918904F3
:1028500080917E04992311F0826001C08D7F809366
:102860007E048091F803882341F04091A204609196
:102870008704809166040E9422100E946003809168
:10288000E603882329F08091E60381508093E603D4
:102890008091E703882329F08091E703815080939A
:1028A000E7038091ED039091EE030097A1F001976B
:1028B0009093EE038093ED0320917E0480FF04C08B
:1028C000226020937E0407C02D7F20937E04892BF5
:1028D00011F40E940210FF91EF91BF91AF919F916F
:1028E0008F917F916F915F914F913F912F910F90B9
:1028F0000FBE0F901F9018950E94DA0081E0809320
:10290000F50380912401813211F40C94091108958A
:102910001F93CF93DF9386E08093E603C0E0D0E07F
:1029200016E08091E903811104C08091E8038823B7
:1029300019F01093E60309C08091E603811105C0E8
:102940000E947C141092950453C08091E90380FD8D
:102950001DC08091E90381FF1EC01092E903D111CF
:1029600009C08BE393E00E9427078C2F0E94EA01A5
:10297000DDE011C0DD3041F4CF5FC93008F0C0E0C8
:102980008C2F0E94EA0107C010929504DF91CF912D
:102990001F910C947C148091E90382FD04C0809106
:1029A000E80382FFBECF1092E903DD30B1F42C2F93
:1029B00030E0F901E15FFE4F86898F5F868BD90198
:1029C000A55CBE4F9C91981728F4D901AC5BBE4F13
:1029D0008C91868B8C2F0E94EA018091E80382FF04
:1029E000A0CF0E943C028BE490E00E94980099CF17
:1029F000DF91CF911F9108950F931F93CF93DF9392
:102A000086E08093E603C0E016E0D1E001E2809129
:102A1000E903811104C08091E803882319F0109321
:102A2000E60305C08091E603811101C016C08091C4
:102A3000E90380FD4CC08091E90381FF11C0109231
:102A4000E903C11104C00E94040BC7E009C0C730EC
:102A500021F40E94FA0AC8E003C01092950437C01E
:102A60008091E90382FFD3CF1092E903C73079F652
:102A700080912401813039F4009324018093F5037F
:102A80000E9409111FC090912E01813251F41092C1
:102A900024019923B9F010922E018091660481508F
:102AA00009C0D093240191110DC0D0932E018091C3
:102AB00066048F5F8093660480916604809313019F
:102AC0000E94DA000E94040B0E94DA00A0CFDF917E
:102AD000CF911F910F910895EF92FF920F931F9343
:102AE000CF93DF9386E08093E60310E0C6E0FC2EF0
:102AF000C6E0D0E001E082E0E82E8091E903811198
:102B000004C08091E803882319F0F092E60307C01F
:102B10008091E603811103C0109295045EC08091FC
:102B2000E90380FD5AC08091E90381FF2BC0109218
:102B3000E903812F90E00196BE010E94411B182FEE
:102B400083309105B9F034F48130910559F0029742
:102B500031F40BC08430910581F0059789F084E44D
:102B600093E005C00E94740C0DC08DE493E00E94B8
:102B7000270708C00E94360105C086E593E0F7CF1D
:102B80000E945B018091E90382FFB7CF1092E903B5
:102B9000113009F0B2CF80911E01811105C0109350
:102BA0001E0187E690E006C0813039F4E0921E01F4
:102BB00084E390E00E94181802C010921E010E9447
:102BC000740C0E94DA0080912401813209F095CFC3
:102BD0000093F5030E94091190CFDF91CF911F91CF
:102BE0000F91FF90EF9008950F931F93CF93DF9372
:102BF00086E08093E603C0E0D6E011E004E6809131
:102C0000E903811104C08091E803882319F0D0936F
:102C1000E60307C08091E603811103C0109295047A
:102C2000DBC08091E90380FDD7C08091E90381FF7B
:102C30006AC01092E903C11115C080911C01811175
:102C400002C0C1E001C0C2E080E00E94E6078091BE
:102C50007F04816080937F048091800481608093F1
:102C6000800451C0C13029F480911C01882339F0BF
:102C70001EC0C23069F580911C018130A9F4809199
:102C80001C01811102C0C2E001C0C1E080E00E94CD
:102C9000E60780918204816080938204809183049E
:102CA0008160809383042FC0882319F011C0813084
:102CB00079F480E00E94E60780918504816080932A
:102CC000850480918604816080938604C3E01BC0E4
:102CD00083E68093950480E00E94E6078CED95E002
:102CE0000E9498001092950480912401813229F469
:102CF00081E08093F5030E940911DF91CF911F912C
:102D00000F910C94DA008091E90382FD04C0809158
:102D1000E80382FF74CF1092E903C13091F48091EF
:102D200011018F5F8D3018F48093110102C0C093A0
:102D3000110180E00E94E60780911C0181111FC0F3
:102D400013C0C23039F5809112018F5F803218F4C0
:102D50008093120102C01093120180E00E94E607E6
:102D600080911C01813059F480917F0481608093AF
:102D70007F048091800481608093800422C08091D0
:102D800082048160809382048091830481608093B7
:102D9000830417C0C330A9F4809110018F5F602FA6
:102DA0000E94131B9093100180E00E94E60780911F
:102DB000850481608093850480918604816080937E
:102DC00086048091E80382FF1ACF0E943C028CE3C4
:102DD00090E00E94980013CFDF91CF911F910F9147
:102DE00008958F929F92BF92DF92EF92FF920F937E
:102DF0001F93CF93DF93F0906604E0908704D09008
:102E0000A20486E08093E60310E006E0CCE3D0E085
:102E100098E1892E912C8091E90380FDE7C0809193
:102E2000E903811104C08091E803882319F000931D
:102E3000E60307C08091E603811103C01092950458
:102E4000D5C08091E90381FF6AC01092E903111196
:102E500017C0F0906604E0908704D090A2044D2D36
:102E60006E2D8F2D0E944A0480917F048160809393
:102E70007F048091800481608093800411E04FC0C2
:102E8000113089F44D2D6E2D8F2D0E944A048091B2
:102E900082048160809382048091830481608093A6
:102EA000830412E03CC0123089F44D2D6E2D8F2D1D
:102EB0000E944A04809185048160809385048091FA
:102EC000860481608093860413E029C0F092660432
:102ED000E0928704D092A20410929504809124017C
:102EE000813229F481E08093F5030E9409118091D9
:102EF000660480931301809187048093140180916C
:102F0000A20480931501DF91CF911F910F91FF9043
:102F1000EF90DF90BF909F908F900C94DA0080919B
:102F2000E90382FD04C08091E80382FF74CF109210
:102F3000E9031130C9F48F2D90E00196B4010E948D
:102F4000411BB82EF82E4D2D6E2D0E944A04809103
:102F50007F04816080937F048091800481608093EE
:102F60008004B092660437C01230D1F48E2D90E008
:102F70000196BE010E94411BB82EE82E4D2D682FF0
:102F80008F2D0E944A048091820481608093820484
:102F900080918304816080938304B09287041BC076
:102FA0001330C9F48D2D90E00196BE010E94411BA3
:102FB000B82ED82E482F6E2D8F2D0E944A04809156
:102FC000850481608093850480918604816080936C
:102FD0008604B092A2048091E80382FF1CCF0E9475
:102FE0003C028BE490E00E94980015CFDF91CF91D6
:102FF0001F910F91FF90EF90DF90BF909F908F9067
:10300000089505C081509EE100009150E9F78111BB
:10301000F9CF08950AC02FEF39E698E121503040EA
:103020009040E1F700C0000081508111F4CF089575
:103030009093C5008093C40088E18093C1008EE026
:103040008093C200519A509808959091C00095FFC6
:10305000FCCF8093C60080E090E008958091C0008E
:1030600087FFFCCF8091C60008958091C0008078D2
:103070000895EF92FF921F93CF93DF931F92CDB7E6
:10308000DEB77C0110E005C069830E9425181F5F30
:103090006981F701E10FF11D84918111F5CF66235C
:1030A00061F08AE00E9425188DE00F90DF91CF91AA
:1030B0001F91FF90EF900C9425180F90DF91CF9106
:1030C0001F91FF90EF900895CF93DF93EC0102C022
:1030D0000E94251889918111FBCFDF91CF9108952E
:1030E000CF93C82F82958F708A3010F4805D01C015
:1030F000895A0E9425188C2F8F70282F30E02A3093
:10310000310514F4805D01C0895ACF910C942518C3
:10311000CF93C82F892F0E9470188C2FCF910C94B9
:103120007018CF92DF92EF92FF926B017C01C70182
:103130000E948818C601FF90EF90DF90CF900C940A
:103140008818AF92BF92CF92DF92EF92FF920F93C7
:103150001F93CF93DF931F92CDB7DEB77C0105E0BD
:1031600010E020E080E1A82E87E2B82E9AE0C92E78
:10317000D12CC701B5010E942D1B862F611106C0FD
:10318000211104C091E0A916B10431F4805D698376
:103190000E94251821E069816A9DC0016B9D900DF8
:1031A0001124E81AF90AC501B6010E942D1B5B0122
:1031B00001501109F1F60F90DF91CF911F910F91FE
:1031C000FF90EF90DF90CF90BF90AF9008952F9237
:1031D0003F924F925F926F927F928F929F92AF92A7
:1031E000BF92CF92DF92EF92FF921F93CF93DF9324
:1031F0001F92CDB7DEB74B015C012AE0222E312CA5
:1032000010E0C12C3AECD32E3AE9E32E3BE3F32E47
:103210004AE0442E512C612C712CC501B401A70148
:1032200096010E94551B822F211108C0111106C062
:1032300091E0C916D104E104F10431F4805D2983E1
:103240000E94251811E02981A22FB0E0A701960164
:103250000E94F81A861A970AA80AB90AC701B60185
:10326000A30192010E94551B69017A01E1E02E1A27
:10327000310899F60F90DF91CF911F91FF90EF9059
:10328000DF90CF90BF90AF909F908F907F906F9086
:103290005F904F903F902F90089515BC569A5E987E
:1032A00084B714BE90E00E94881888E10FB6F894A5
:1032B00080936000109260000FBE2FE088E190E0E4
:1032C0000FB6F894A895809360000FBE209360001D
:1032D000A8951092F8031092F7031092F50310923C
:1032E000F60387E690E00E94181888E480BF61E04A
:1032F00070E080E090E00E94A50000B605FE06C0E8
:1033000080B7806180BF0E94130878C00E942301AB
:103310005B9881E0809369008DBB1092950481E5F4
:103320008CBD80912101813019F48091230102C06C
:10333000809118010E948303789480911F01845F1B
:10334000893110F010921F01809120018D3310F00F
:10335000109220010E9415020E94A9020E944503BA
:1033600080E090E00E94D61BC82F83E290E00E948C
:10337000D61BC83211F4883239F044EF51E062E0D4
:1033800088EB91E00E945F0280911E01813019F468
:1033900087E690E004C0823021F484E390E00E944C
:1033A000181883E6809395048FE593E00E94270721
:1033B00044E650E061E080EC9DE00E945F0264EF33
:1033C00071E080E090E00E94A5000E941308A8959B
:1033D00044E650E061E080EC9DE00E945F0289E2FB
:1033E00093E00E94270788EC90E00E9498001092DA
:1033F000950481E08093F5030E94530803E611E0F1
:10340000C1E1D0E0A89500B605FE03C00E94F80017
:10341000F9CF8091E90380FFB6C01092E903809153
:103420009504833649F08091950490E00196BE01A1
:103430000E94411B8093950480919504883009F483
:103440006AC080F48430D9F138F4823041F170F5EB
:10345000813009F0AEC01CC0863009F44EC008F0BF
:103460007DC044C08C3009F45DC030F48A3009F46A
:1034700083C008F06CC033C08E3009F45AC008F421
:1034800074C08F3009F45CC0803109F092C020C054
:103490008FE593E00E9427070E94D70C8AC088E638
:1034A00093E00E9427070E948F0583C081E793E085
:1034B0000E9427070E94F1161093F8037AC08AE74A
:1034C00093E00E9427070E94F4151093F70371C040
:1034D00083E893E00E9427070E9476066AC084E48E
:1034E00093E00E9427070E946C1563C08CE893E06C
:1034F0000E9427070E94A10B5CC085E993E00E940F
:10350000270780912101882319F00E94140B51C0D4
:103510000E94150C4EC08EE993E00E9427070E947E
:10352000DF0947C087EA93E00E9427070E944B0A01
:1035300040C080EB93E00E9427070E948D0939C0AC
:1035400089EB93E00E9427070E94DC0832C082ECDE
:1035500093E00E9427070E94B00A2BC08BEC93E0F7
:103560000E9427070E94FC1424C084ED93E00E946F
:1035700027070E9488141DC08DED93E00E94270745
:103580000E948F0C16C08091E90381FD04C08091D8
:10359000E90382FF0EC01092E903009395040E9494
:1035A0005207A89588EE93E00E949800A895109283
:1035B000950480911E01882309F424CF8091C000D6
:1035C00087FF20CF0E94A9121DCFA29FB001B39FF9
:1035D000C001A39F01D0B29F700D811D1124911DC8
:1035E00008950E94E51AB7FF0895821B930B089572
:1035F0000E94E51AA59F900DB49F900DA49F800D89
:10360000911D11240895DB018F939F930E94F81A56
:10361000BF91AF91A29F800D911DA39F900DB29F6E
:10362000900D11240895991B79E004C0991F9617F5
:1036300008F0961B881F7A95C9F78095089587FB37
:10364000082E062687FD819567FD61950E94131B54
:103650000EF4919507FC81950895AA1BBB1B51E1BF
:1036600007C0AA1FBB1FA617B70710F0A61BB70BF2
:10367000881F991F5A95A9F780959095BC01CD0197
:10368000089597FB072E16F4009407D077FD09D014
:103690000E942D1B07FC05D03EF4909581959F4F0D
:1036A0000895709561957F4F0895A1E21A2EAA1B87
:1036B000BB1BFD010DC0AA1FBB1FEE1FFF1FA217E2
:1036C000B307E407F50720F0A21BB30BE40BF50BDF
:1036D000661F771F881F991F1A9469F76095709568
:1036E000809590959B01AC01BD01CF010895052EF9
:1036F00097FB16F4009407D057FD0DD00E94551B80
:1037000007FC09D07EF490958095709561957F4F68
:103710008F4F9F4F089550954095309521953F4F7D
:103720004F4F5F4F0895FB01DC010D900020E9F73A
:10373000119701900D920020E1F70895FC0181910D
:10374000861721F08823D9F7992708953197CF015B
:103750000895FB01DC010D900020E9F7119741501D
:10376000504028F0019000200D92C9F708951C9256
:103770000895FB01DC014150504030F08D910190E3
:10378000801919F40020B9F7881B990B0895FB01E3
:10379000DC014150504048F001900D920020C9F7E3
:1037A00001C01D9241505040E0F70895F999FECFB5
:1037B00092BD81BDF89A992780B50895262FF99971
:1037C000FECF1FBA92BD81BD20BD0FB6F894FA9A04
:0C37D000F99A0FBE01960895F894FFCFFF
:1037DC00083030303030300030303030303000286D
:1037EC000D0C1D000000070032195A00000A00F8E9
:1037FC0000000F5A00030102020B0101020101003B
:10380C00000028313331323239776D0C0507170C33
:10381C000507170101010100010101000000001F53
:10382C00003B005A0078009700B500D400F300115B
:10383C000130014E011F1C1F1E1F1E1F1F1E1F1EAD
:10384C001F73756E646179006D6F6E6461790074BD
:10385C00756573646179007765646E65736479006E
:10386C007468757273646179006672696461790059
:10387C007361747572646179006A616E0066656269
:10388C00006D6172636800617072696C006D6179C2
:10389C00006A756E65006A756C7900617567737482
:1038AC000073657074006F63746F62006E6F766581
:1038BC006D00646563656D0020323030302020204F
:1038CC0000616C61726D206F6E00616C726D206FA7
:1038DC006666002020206D696E7574002073617619
:1038EC00696E6720002066756C6C202020002066B5
:1038FC00756C6C67707300206469616C31202000FA
:10390C00206469616C32202000206469616C332072
:10391C002000206469616C3420200020616D2D70C2
:10392C006D20200020616D2D706D2E2000206E6F9B
:10393C006E6520202000206E6F6E652E20200064A6
:10394C007266742020007573612D313268720065C7
:10395C0075722D3234687200766F6C2068696768F6
:10396C0000766F6C206C6F7720006F6666736574E1
:10397C002000647374206175746F00647374206F1D
:10398C006E202000647374206F666620006272746F
:10399C006C6F2000627274686920006164696D202C
:1039AC006F6E20006164696D206F666600616463F0
:1039BC00200062726974652000677073206F6E342A
:1039CC003800677073206F6E393600677073206F24
:1039DC00666620006F6E202038383838006F6666B7
:1039EC00203838383800736E6F6F7A696E67002A2A
:1039FC0000244750524D432C002020202020202012
:103A0C002000206E6F20677073200072756C65301B
:103A1C0020303000736574206770732000677073FA
:103A2C00206C61742000677073206C6F6E67006986
:103A3C00636520747562650073657420616C6172D6
:103A4C00007365742074696D65007365742064611E
:103A5C00746500736574207A6F6E650073657420ED
:103A6C006164696D007365742062726974007365BA
:103A7C0074206472667400736574207265676E00DE
:103A8C0073657420736563730073657420736E6F54
:103A9C007A0073657420766F6C20007365742064F3
:103AAC00737420007365742072756C650073657493
:063ABC00206C6462620050
:00000001FF
