:100000000C9479000C94201C0C9496000C94F4171A
:100010000C9496000C9448180C9496000C94260CA2
:100020000C9496000C9496000C9496000C949600F8
:100030000C9496000C9496000C9496000C949600E8
:100040000C94C8070C9496000C9496000C9496009F
:100050000C9496000C94E4020C9496000C94D61226
:100060000C9496000C949600FA3E1A7ADE8EF62EC8
:100070006078AE1CAA2A3ACEF30AB61E3838B86E9B
:1000800076DA6800FC60DAF266B6BEE0FEF684005E
:100090000E620E200E400C600462086290008080A8
:1000A0008000400020001000101000100008000424
:1000B00000809E00C080C2004202020A001A10188E
:1000C000301032002202020600868084B400040050
:1000D00002000800002000020040CE0003070809CB
:1000E000060A050C04DC000B10120F0D0E1113E7AD
:1000F000000011241FBECFEFD8E0DEBFCDBF13E05C
:10010000A0E0B1E0E2E4FDE302C005900D92A83B5F
:10011000B107D9F714E0A8EBB3E001C01D92A738EE
:10012000B107E1F70E941B1A0C949F1E0C9400006B
:100130009C0178941092D1031092D0038091D00347
:100140009091D10382179307C8F30895EF92FF921D
:100150000F931F937B018C0120ED37E040E050E0CE
:100160000E94B91D611571058105910519F461E0C1
:1001700070E01CC0603020E0720721E0820720E0C0
:100180009207A0F0C801B7012AE030E040E050E05B
:100190000E94B91D88EC90E005C0FC013197F1F791
:1001A0006150704061157105C1F703C0CB01019723
:1001B000F1F71F910F91FF90EF9008950197F1F7DC
:1001C0000895A895089581E08093BF035B9A8CB54C
:1001D0008F7B8CBD85B1877D85B95E9815BC1092EB
:1001E000580410926800459885B1897F85B98BB114
:1001F0008F7C8BB928988AB18F7C8AB920985A98BD
:100200005298E1E6F0E090E8908388E08083449A99
:1002100083B7876083BF8895908310824498089540
:100220008EE284B988E48AB989E087B984E38BB91E
:1002300091E095B985E08093680090936B0080E32E
:1002400080936D000895CF93DF9310925B048091AB
:1002500043048E3419F410925C0403C082E080934E
:100260005C04A2E5B4E0CDE5D4E0ED91E053F0E02C
:10027000EC57FF4FE491E99384E0A835B807A9F75C
:1002800080916004816080936004DF91CF91089534
:10029000CF93DF9380914104853419F410925B046D
:1002A00003C082E080935B04A4E4B4E0CCE5D4E036
:1002B000ED91E053F0E0EC57FF4FE491E99384E0D7
:1002C000AB34B807A9F78091600481608093600423
:1002D000DF91CF910895CF93DF93362F3150C32F05
:1002E000DD27C7FDD095C80FD11DC65ADB4F252F7E
:1002F00016C0842F922F6AE070E00E94F11DE82F53
:10030000F0E0EC57FF4FE491E883842F922F6AE0EE
:1003100070E00E94F11D462F272F3150219737FFA3
:10032000E8CFDF91CF910895A82F262FE82FF0E096
:1003300067FF06C0E65AFB4F82E08083219503C029
:10034000E65AFB4F1082B0E0822F6AE00E94E41D63
:10035000E82FF0E0EC57FF4FE491A65ABB4FE42B97
:100360001196EC931197822F6AE00E94E41DE92F09
:10037000F0E0EC57FF4FE491E42B1296EC930895D4
:100380000F931F93CF93DF938B01282F30E0CB0186
:100390006AE070E00E94051EC4E8D0E0FE01E60FAE
:1003A000F11DE491265A3B4FE42BD901EC93C8018F
:1003B0006AE070E00E94051EC80FD11DFE01849105
:1003C000842BD90111968C93DF91CF911F910F91BE
:1003D0000895A82FB0E0CD018C579F4FFC01849168
:1003E000816080935F04AA58BC4F6C9187E070E0F5
:1003F00041E00E94C0010895FC0183709070892B38
:1004000039F4CF0164E670E00E94F11D892B49F4B4
:1004100020E030E0CF0160E971E00E94F11D892BFE
:1004200011F421E030E0822F0895109280001092A4
:100430008100299A2A9878941092D1031092D003BF
:100440008091D0039091D1030A97D0F32A9A2998EA
:1004500078941092D1031092D0038091D0039091A0
:10046000D1030A97D0F385B1897F85B982E3809360
:10047000800080915804882329F080918000806852
:100480008093800088E1809381000895DF92EF924D
:10049000FF920F931F93D62E8A019C0140E050E0FB
:1004A00060E472E48FE090E00E943A1E309387008F
:1004B000209386008091860090918700969587957D
:1004C00090938B0080938A0080918A0090918B009A
:1004D0009093890080938800780100E010E016C0B6
:1004E00080918100826080938100C801B7010E94E1
:1004F000A600809181008D7F8093810085B1897FE6
:1005000085B9C801B7010E94A600DA94DD2041F741
:1005100085B1897F85B91F910F91FF90EF90DF9092
:10052000089544E650E00E94460208953D9A459A97
:10053000AAE7B0E08C9186608C93ECE7F0E08081D4
:1005400080648083808184608083EEE7F0E0808136
:10055000806180838C9180688C938C9188608C936F
:1005600008958091BB03813029F480917A008064E2
:1005700080937A000895982F80917004882329F041
:100580008091820480FD0DC002C09B3510F09AE579
:1005900003C09A3008F49AE087B5891721F097BD17
:1005A000089592E3F9CF08950E94BB0283E084BDD1
:1005B00081E085BD84B5806884BDEEE6F0E0808191
:1005C00081608083789408951F920F920FB60F92E6
:1005D00011241F932F933F934F935F936F937F93B8
:1005E0008F939F93AF93BF93EF93FF938091BB0340
:1005F000813009F03FC03091780020917900922F2E
:1006000080E0632F70E0682B792B70937204609305
:10061000710483E0623F780718F08091590405C0A7
:100620006536710520F48091800490E01DC0109122
:10063000800420918004E09159046456704080E069
:1006400090E030E02E1B3109442737FD4095542FB0
:100650000E94B91D2EE833E040E050E00E94181ED1
:10066000812F90E0821B930B90936D0480936C0418
:100670000E94BB02FF91EF91BF91AF919F918F912B
:100680007F916F915F914F913F912F911F910F90AB
:100690000FBE0F901F9018951F93182F87E0612FA2
:1006A00070E041E00E94C001812F0E94BB021F91B7
:1006B0000895CF93DF93C62FD0E0E82FF0E0E0530A
:1006C000F84FC330D10510F42C963197242F30E029
:1006D0002F5F3F4F2E0F3F1FCE01880F991F280F0E
:1006E000391FCF019695879596958795280F391FC5
:1006F000CF0160E971E00E94F11D260F371FCF0185
:1007000064E670E00E94F11D261B370BAE014F5FBF
:100710005F4FCA01880F991F840F951F880F991F7B
:100720006AE070E00E94F11DC901860F971F67E023
:1007300070E00E94F11D8F5FDF91CF910895E4E892
:10074000F0E0E80FF11DE4918E2F0895E82FF0E01E
:10075000E95FFF4FE4918E2F08950F931F93182F99
:10076000062F80917304882309F07EC08091BC031A
:10077000833009F442C0843028F4813069F082303B
:10078000F0F472C0853008F475C0873008F448C0B2
:10079000893008F06FC05CC0842F66E00E94D81DCD
:1007A000892F90E0880F991FFC01EF56FF4FE491CD
:1007B000E093610480579F4FFC01949146C0842FC1
:1007C0006AE00E94D81D292F30E0220F331FC90193
:1007D00081569F4FFC0194919093610422563F4FA4
:1007E000F90184918093620440FF44C09260909329
:1007F00061048260809362043DC0842F6CE00E949B
:10080000D81D892F90E0880F991FFC01EB54FF4FF2
:10081000E491E09361048C549F4FFC01949115C0C6
:100820001C3018F4E8E6F0E002C0E7E7F0E0E491FD
:10083000E0936104E4E7F0E0949190936204809186
:10084000BC038630B9F44170942B9093620412C0BB
:1008500010926104109262048091BC03883051F4BC
:1008600041704093620406C087E0642F70E040E06E
:100870000E94C0011092600484E0602F70E040E0AC
:100880000E94C00110925D048091BA03882369F52B
:10089000812F90E00B966CE070E00E94051E9C0199
:1008A00001966AE070E00E94051EE82FF0E0EC5728
:1008B000FF4FE491E0935C04265F3F4F2331310505
:1008C00018F410925B0405C0E5E8F0E0E491E093D1
:1008D0005B041C3020F080915A04816003C0809139
:1008E0005A048E7F80935A0406C081E0612F70E025
:1008F00040E00E94C0011F910F9108951F93182F8F
:1009000010926204109261041092600484E070E01E
:1009100040E00E94C00110925D048091BA038823D8
:1009200009F03EC01C3058F080915A0481608093D9
:100930005A04E7E7F0E0E491E09361040AC0E8E6D6
:10094000F0E0E491E093610480915A048E7F8093FB
:100950005A04E4E7F0E0E491E0936204812F90E030
:100960000B966CE070E00E94051E9C0101966AE007
:1009700070E00E94051EE82FF0E0EC57FF4FE49175
:10098000E0935C04265F3F4F2331310518F4109249
:100990005B0414C0E5E8F0E0E491E0935B040EC072
:1009A000812F90E0479668E170E00E94051EBC012F
:1009B0006F5F7F4F81E040E00E94C0011F9108956A
:1009C0001F93182FEAE6F0E08491809362047196F9
:1009D0008491809361043196E491E093600484E013
:1009E00070E040E00E94C00110925D04612F772703
:1009F00067FD709577FF03C0709561957F4F81E02B
:100A000040E00E94C00117FD04C080915A048D7F10
:100A100003C080915A04826080935A041F91089504
:100A2000CF93DF9310925A04EC01ABE5B4E0E88178
:100A3000EE23D9F08E2F81568A3128F4F0E0E95F59
:100A4000FF4FE49109C08E2F80538A3038F4E82F8D
:100A5000F0E0EC57FF4FE491EC9301C01C9221961B
:100A6000119684E0A336B80711F7DF91CF9108956E
:100A7000882359F510925A0482E080935D04809394
:100A800060048091BA03882351F46091730381E07C
:100A900070E040E00E94C0016091740309C0609161
:100AA000740381E070E040E00E94C0016091730334
:100AB00084E070E040E00E94C0016091750387E02F
:100AC00070E040E00E94C0010895813009F0ADC09F
:100AD0001092610410926204809175036091730317
:100AE000409174030E9459038430C9F0853038F472
:100AF000823079F0833080F48130F1F407C08630A1
:100B0000A1F0863078F08730B9F412C080E091E02F
:100B100011C087E091E00EC08EE091E00BC086E14D
:100B200091E008C08FE191E005C088E291E002C049
:100B30008FE291E00E94100578941092D1031092F8
:100B4000D0038091D0039091D103885E9340C8F385
:100B500010925E0410925F041092600480917303FF
:100B6000863079F1873070F4833011F1843028F4C5
:100B70008130C1F08230D9F518C08430E1F0853081
:100B8000B1F51CC0893031F18A3028F48730E1F0AA
:100B9000883069F51CC08B3019F18B30F0F08C3047
:100BA00031F521C088E391E020C08CE391E01DC0C5
:100BB00080E491E01AC086E491E017C08CE491E0F3
:100BC00014C080E591E011C085E591E00EC08AE592
:100BD00091E00BC080E691E008C085E691E005C099
:100BE0008BE691E002C081E791E00E9410056091E0
:100BF000740387E070E040E00E94C0017894109296
:100C0000D1031092D0038091D0039091D103885EDC
:100C10009340C8F387E791E00E9410056091750347
:100C200084E070E040E00E94C00108954A9B3EC00D
:100C300080916604882309F051C081E080936604A6
:100C40001092CF031092CE038091C003882309F441
:100C500045C080917304882309F040C080E891E08A
:100C60000E94100583E68093730478941092D10358
:100C70001092D0038091D0039091D1038C5D954068
:100C8000C8F380916904609142040E947E047894C4
:100C90001092D1031092D0038091D0039091D10390
:100CA0008C5D9540C8F3109273040895809166049A
:100CB0008823A1F0109266041092CF031092CE0305
:100CC00080917004882351F010927004809181000B
:100CD0008D7F8093810085B1866085B9089580916C
:100CE000BC03843001F1853048F4813099F08130C3
:100CF00070F0823091F08330A1F512C08630C9F0D7
:100D00008630A0F08730F9F0883059F521C089E8A5
:100D100091E01BC082E991E018C08BE991E015C019
:100D200084EA91E012C08DEA91E00FC086EB91E079
:100D30000CC08FEB91E00E941005809161048160EE
:100D400080936104089588EC91E00E941005089555
:100D500081ED91E00E941005809160048160809394
:100D6000600408958091BA03882319F48AED91E014
:100D700002C083EE91E00E9410050895809158040E
:100D8000882351F08CEE91E00E941005809162045E
:100D900081608093620404C085EF91E00E94100599
:100DA00080915F04816080935F0480916004816022
:100DB0008093600480916104816080936104089550
:100DC00080916704813219F48EEF91E009C080911F
:100DD0006704813019F487E092E002C080E192E07C
:100DE0000E94100508958091BB03813019F489E1B8
:100DF00092E002C082E292E00E9410050895809184
:100E0000C403813019F48BE292E009C08091C403DD
:100E1000823019F484E392E002C08DE392E00E94F4
:100E2000100508958091C903882319F086E492E0A3
:100E300002C08FE492E00E94100508951F938AE09B
:100E40008093D6031AE08091D30380FD1DC080916A
:100E5000D303882321F48091D403882319F01093BD
:100E6000D60307C08091D603882319F41092730427
:100E70000BC08091D30381FFE6CF1092D3038BE6A2
:100E800093E00E941005DFCF1F91089581E58CBD8E
:100E900008959B01AC01F894CA01AA27BB278EBD17
:100EA0000DB407FEFDCFBB27A52F942F832F8EBD3A
:100EB0000DB407FEFDCF2EBD0DB407FEFDCF409A49
:100EC000409878940895AF92BF92CF92DF92EF92BC
:100ED000FF920F931F9390919203981708F4892F14
:100EE000E82FF0E0DF01A65ABB4F2C91E452FF4FF0
:100EF000E49181E090E002C0880F991FEA95E2F743
:100F00007C010027F7FC0095102F4091D8035091E9
:100F1000D9036091DA037091DB03A0E0B0E030E028
:100F2000E1E0AE2EB12CC12CD12CC9010A2E02C099
:100F3000959587950A94E2F780FF11C0FD01E9516C
:100F4000FF4FE491B601A50104C0440F551F661F71
:100F5000771FEA95D2F7E42AF52A062B172B11966C
:100F6000A830B10511F74093D8035093D90360938B
:100F7000DA037093DB03C801B7010E9449071F9190
:100F80000F91FF90EF90DF90CF90BF90AF900895BA
:100F90001F920F920FB60F9211242F933F934F93EE
:100FA0005F936F937F938F939F93AF93BF93EF93D1
:100FB000FF937894A8958091CA039091CB030196F2
:100FC0009093CB038093CA03829708F418C11092C0
:100FD000CB031092CA038091D0039091D103019664
:100FE0009093D1038093D0038091C8030E9463073C
:100FF0002091C8032F5F2093C8034091C90330E0BC
:101000008091920390E0840F911D8217930714F44E
:101010001092C8038091BC03843041F58091730421
:10102000882321F58091BD038F5F8093BD038739AD
:10103000E8F01092BD038091D0039091D10367EA4C
:1010400070E00E94F11DCB0166E070E00E94F11D8E
:10105000880F991FFC01E153FF4FE491E093610475
:1010600082539F4FFC0184918093620480917004AD
:10107000882309F4C4C08091CE039091CF03892BBB
:1010800009F0BDC08091CC039091CD03019690935F
:10109000CD038093CC038B35910508F4B0C010923A
:1010A000CD031092CC038091750490917604019643
:1010B00090937604809375048091750490917604E2
:1010C0008155964470F0109270041092CF031092E4
:1010D000CE03809181008D7F8093810085B18660F1
:1010E00085B980916E0490916F04019690936F047E
:1010F00080936E0420916E0430916F04809183047C
:10110000909184048217930750F510926F04109207
:101110006E0480916E0490916F0490938604809386
:1011200085048091830490918404459748F08091D0
:10113000830490918404449790938404809383045F
:1011400080916A0490916B04449748F480916A04FA
:1011500090916B04029690936B0480936A04809143
:10116000850490918604019690938604809385046B
:10117000209185043091860480916A0490916B04DB
:1011800082179307E0F180918504909186049C0179
:10119000220F331F280F391F220F331F220F331F37
:1011A00024553E4F40E050E060E472E48FE090E070
:1011B0000E943A1E3093870020938600809186001B
:1011C000909187009695879590938B0080938A00E5
:1011D00080918A0090918B00909389008093880081
:1011E000809185049091860480FF04C080918100E5
:1011F000826003C0809181008D7F80938100FF9188
:10120000EF91BF91AF919F918F917F916F915F917E
:101210004F913F912F910F900FBE0F901F901895F7
:101220008EBD0DB407FEFDCF08958091C00080787B
:101230000895FC015381505182814AE0849FC0018E
:101240001124580F74816581309191032091C3035B
:10125000230F20518181280F8081849FC001112498
:10126000280F209340048091C70337FF02C0581B0A
:1012700001C0580F5093640460518AE0789FC00108
:101280001124680F6093820481E08093C003089565
:10129000FC014181405180815AE0859FC0011124A9
:1012A000480F338130518281859FC0011124380F4E
:1012B000258120518481859FC0011124280F4093EE
:1012C0007403309373032093750381E08093C1030B
:1012D000089581E0809370041092CF031092CE03A2
:1012E00088EC90E0909384048093830410926F04C0
:1012F00010926E0482E090E090936B0480936A04F5
:101300001092760410927504809175049091760481
:101310009093CD038093CC030895982F8091660419
:10132000882361F080916904891741F48091420417
:10133000861721F4442311F40E9469090895EF925D
:101340000F931F93582FE62F122FF0E0EE0FFF1F81
:10135000E356FC4F0190F081E02DE40FF11D282FA2
:1013600030E0C90183709070892B31F4852F64E6D9
:101370000E94D81D992339F4C90160E971E00E94E7
:10138000051E892B09F43196BF0180E090E020E82A
:1013900031E541E050E00E94B91D2CE3029F90012D
:1013A00011242E0D311DA12FB0E0E0E1FEE0AF01D0
:1013B000A49FF001A59FF00DB49FF00D11242E0FF6
:1013C0003F1F260F371FB90180E090E01F910F915A
:1013D000EF900895EF92FF920F931F93CF93DF93B7
:1013E000082FE62E142FF22EE82FF0E0EE56FC4FD9
:1013F0008081C82FD0E08091750390E08370907059
:10140000892B19F4023009F4219680917503602F1D
:1014100041E00E9459039E2D981BE81610F0292FD9
:1014200002C0292F295F87E0189FC0011124482F8F
:101430004650420F01C04750842F992787FD909551
:10144000C817D907C0F380917503602F2F2D00E0D6
:10145000EE240E949F09DF91CF911F910F91FF9081
:10146000EF900895682F4091C3038091C30399279B
:1014700087FD9095262F30E082179307C9F0809161
:1014800074048130A9F46093C30380914004962FC3
:10149000941B980F909340048DE190E00E94911E60
:1014A0006091400484E090E00E94911E10927404C8
:1014B00008955F926F927F928F929F92AF92BF92A8
:1014C000CF92DF92EF92FF920F931F93FC01148152
:1014D0000581F680E780508480816181428123818B
:1014E0000E94EA093B014C01812F602F4F2D2E2DC8
:1014F0000E94EA095B016C0180917503609173039E
:10150000409174032091400400916404E0908204AF
:101510000E949F096A147B048C049D045CF4661588
:1015200077058805990594F06A157B058C059D055E
:101530006CF40AC06A157B058C059D052CF46615B4
:1015400077058805990514F4852D01C080E00E9477
:10155000320A1F910F91FF90EF90DF90CF90BF90D4
:10156000AF909F908F907F906F905F900895809143
:1015700082048C3354F0809182048C5380938204D3
:10158000809164048F5F809364048091820487FF5C
:101590000AC080918204845C8093820480916404F8
:1015A000815080936404809164048C3354F0809162
:1015B00064048C5380936404809140048F5F809313
:1015C00040048091640487FF0AC080916404845CB5
:1015D0008093640480914004815080934004809102
:1015E00082048823A1F480916404882381F480918B
:1015F000C403882361F46091400484E090E00E9479
:10160000911E6091640485E090E00E94911E80919B
:101610004004883184F080914004885180934004D4
:10162000809174038F5F809374036091740383E0EF
:1016300090E00E94911E8091400487FF10C080912D
:101640004004885E809340048091740381508093AD
:1016500074036091740383E090E00E94911E809176
:101660007403803268F5809174038F3181F4809126
:101670007303843029F180917303863009F18091DE
:1016800073038930E9F0809173038B30C9F0809146
:1016900074038E3121F480917303823089F080913C
:1016A00074038D31D9F4809173038230B9F4809141
:1016B000750390E08053984F0E94FC01882371F4D9
:1016C00081E080937403809173038F5F8093730331
:1016D0006091730382E090E00E94911E80917403F8
:1016E000882309F047C0809173038630D1F087309A
:1016F00060F4833029F1843018F4813090F111C006
:10170000843079F0853069F510C08A3018F488305B
:1017100040F40BC08B3029F08B3038F08C3009F559
:1017200004C080917403815E03C080917403825E63
:10173000809374038091730381508093730314C06A
:101740008091750390E08053984F0E94FC0188239C
:1017500021F080917403835EEBCF80917403845EEB
:10176000E7CF81E0809374036091730382E090E09F
:101770000E94911E809173038D3070F080917503EB
:101780008F5F8093750381E080937303609175038D
:1017900081E090E00E94911E809173038823B1F450
:1017A00080917303845F80937303809175038150EC
:1017B000809375036091750381E090E00E94911E13
:1017C0006091730382E090E00E94911E80918204F8
:1017D0008823E9F480916704813229F486E793E055
:1017E0000E94590A09C080916704813019F48093DE
:1017F000C30302C01092C30380916404882339F4A8
:1018000080914004882319F481E080937404089542
:101810008091C2038823C9F08091500490E08051E8
:10182000924020914F044AE0249F90011124820F9E
:10183000931F0B9754F089E794E00E9419098BE4F9
:1018400094E00E9448090E94B70A08951F920F92DF
:101850000FB60F9211242F933F934F935F936F9383
:101860007F938F939F93AF93BF93EF93FF9380E802
:101870008093610010926100809182048F5F809359
:1018800082040E94B70A809164048823B9F480918D
:101890008204882321F48091D703815805C0809168
:1018A0008204813019F48FE78093B3008091820421
:1018B000823024F48091B60083FDFCCF8091BF0379
:1018C000882309F088C08091C5039091C6038530B4
:1018D000910528F401969093C6038093C5038091E7
:1018E0007304882399F58091C003882339F480918B
:1018F000820480FF03C088E592E010C08091C40399
:10190000882379F08091C5039091C603059748F02C
:101910008091820480FF05C081E692E00E9410055C
:1019200008C08091400460916404409182040E9448
:10193000AD0380916604882321F080915A0482606F
:1019400003C080915A048D7F80935A048091C00314
:10195000882341F0809140046091640440918204A6
:101960000E948D098091BB03813029F480917A0017
:10197000806480937A008091D603882329F0809137
:10198000D60381508093D6038091D503882329F014
:101990008091D50381508093D5038091CE0390919F
:1019A000CF030097C1F09C01215030403093CF030A
:1019B0002093CE0320FF06C080915A04826080935A
:1019C0005A0409C080915A048D7F80935A04232BB6
:1019D00011F40E946909FF91EF91BF91AF919F911E
:1019E0008F917F916F915F914F913F912F910F90C8
:1019F0000FBE0F901F9018950F931F938AE080934E
:101A0000D60310E00AE08091D303882321F480916B
:101A1000D403882319F00093D60304C08091D60321
:101A20008823B1F08091D30380FD41C08091D3031E
:101A300081FF11C01092D303112321F40E946F067D
:101A40001EE009C06091BC0380E290E00E94911EFC
:101A5000109273042CC08091D30382FD04C0809146
:101A6000D40382FFD0CF1092D3031E3069F480914B
:101A7000BC038F5F8093BC038091BC03893010F05E
:101A80001092BC030E946F068091D40382FFBBCFEB
:101A90000E94150278941092D1031092D003809185
:101AA000D0039091D10384369105C8F3ACCF1F9138
:101AB0000F910895EF92FF920F931F93CF93DF93AF
:101AC0008C01FF24C4E1D0E0EE24E394F80180818E
:101AD000882341F0F394FE01EE59FC4FCE01608162
:101AE0000E94911EFF2031F0E092740486E793E09B
:101AF0000E94590A0F5F1F4F2196CD31D10531F752
:101B0000DF91CF911F910F91FF90EF900895CF92A9
:101B1000DF92EF92FF920F931F93DF93CF93CDB796
:101B2000DEB729970FB6F894DEBF0FBECDBF8AE0AF
:101B30008093D603FE01319689E0DF011D928A95DC
:101B4000E9F700E010E04AE0C42E7F01DD24D394E1
:101B50008091D303882321F48091D403882319F042
:101B6000C092D6030BC08091D603882339F4CE01EE
:101B700001960E945A0D1092730460C08091D303A5
:101B800080FD1DC08091D30381FF1EC01092D3033E
:101B9000002349F48AE692E00E941005812F0E94FA
:101BA000E9010DE011C00D3041F41F5F193008F05C
:101BB00010E0812F0E94E90107C010927304CE014A
:101BC00001960E945A0D3AC08091D30382FD04C051
:101BD0008091D40382FFBCCF1092D3030D30D9F48F
:101BE000A12FB0E09D012A583C4FF90180818F5F01
:101BF0008083FD01E857FC4F9081981730F4FD0178
:101C0000E158FC4F8081F9018083AE0DBF1DDC924D
:101C1000812F0E94E9018091D40382FF99CF0E9415
:101C2000150278941092D1031092D0038091D003C2
:101C30009091D1038B349105C8F38ACF29960FB6C2
:101C4000F894DEBF0FBECDBFCF91DF911F910F91F2
:101C5000FF90EF90DF90CF900895DF92EF92FF9288
:101C60000F931F938AE08093D60300E06AE0D62E9C
:101C7000FF24F39451E2E52E8091D303882321F4CD
:101C80008091D403882319F0D092D60304C08091A8
:101C9000D603882381F08091D30380FD58C08091C2
:101CA000D30381FF0BC01092D303002321F40E94C1
:101CB000E00607E003C01092730449C08091D3038B
:101CC00082FFDACF1092D3030730B1F61091670488
:101CD000113059F4E09267041093740486E793E09E
:101CE0000E94590A1093740429C0809167048132BC
:101CF00061F4109267048091C3031816FCF41092EB
:101D0000C3038091400481500BC0F092670480911E
:101D1000C303882399F4F092C303809140048F5F3A
:101D2000809340046091C3038DE190E00E94911E76
:101D30006091400484E090E00E94911E0E94E006C1
:101D4000609167048FE090E00E94911E95CF1F91F3
:101D50000F91FF90EF90DF9008950F931F938AE00B
:101D60008093D60310E00AE08091D303882321F406
:101D70008091D403882319F00093D60305C0809185
:101D8000D603882309F44AC08091D30380FD65C03F
:101D90008091D30381FF45C01092D303112321F416
:101DA0000E94F30615E03DC01530B1F483E792E0E0
:101DB0000E941005409171045091720481E064E02A
:101DC0000E946B0140916C0450916D0486E063E0C9
:101DD0000E946B0113E025C01330D1F48091BB0346
:101DE000813029F480917A00806480937A00409158
:101DF00071045091720481E064E00E946B01409193
:101E00006C0450916D0486E063E00E946B0109C090
:101E10006091BB0381E190E00E94911E10927304D7
:101E20001CC08091D30382FF9FCF1092D303153043
:101E300009F09ACF8091BB03813019F41092BB0353
:101E400003C081E08093BB030E94F3066091BB0353
:101E500081E190E00E94911E87CF1F910F9108951C
:101E60000F931F938AE08093D60310E00AE08091DD
:101E7000D303882321F48091D403882319F000939D
:101E8000D60304C08091D6038823B1F08091D30398
:101E900080FD49C08091D30381FF17C01092D30306
:101EA000112351F488E792E00E94100580916304A9
:101EB0000E944C0311E009C0109273046091630406
:101EC00089E090E00E94911E2EC08091D30382FD94
:101ED00004C08091D40382FFCACF1092D303113083
:101EE00079F4809163048B5F809363048091630431
:101EF0008B3510F000936304809163040E944C03BF
:101F00008091D40382FFB3CF0E941502789410927F
:101F1000D1031092D0038091D0039091D1038B34E0
:101F20009105C8F3A4CF1F910F910895FF920F93CD
:101F30001F938AE08093D60310E07AE0F72E01E049
:101F40008091D303882321F48091D403882319F04E
:101F5000F092D60304C08091D6038823B1F080911B
:101F6000D30380FD2FC08091D30381FF11C0109255
:101F7000D303112321F40E9412071AE009C06091D3
:101F8000C9038FE190E00E94911E109273041AC061
:101F90008091D30382FFD4CF1092D3031A3081F6FD
:101FA0008091C903882319F01092C90302C00093DD
:101FB000C9030E9412076091C9038FE190E00E945B
:101FC000911EBECF1F910F91FF900895FF920F9326
:101FD0001F938AE08093D60310E0EAE0FE2E01E032
:101FE0008091D303882321F48091D403882319F0AE
:101FF000F092D60307C08091D603882319F410927B
:10200000730401C18091D30380FDFDC08091D3038F
:1020100081FF83C01092D3031123A9F48091BA03E6
:10202000882311F012E001C011E080E00E94380521
:1020300080915B04816080935B0480915C0481608B
:1020400080935C046AC0113029F48091BA0388231C
:1020500039F020C01230E1F48091BA038130A9F444
:102060008091BA03882311F011E001C012E080E0F2
:102070000E94380580915E04816080935E048091A7
:102080005F04816080935F0448C0882339F015C0E5
:10209000113099F48091BA03813079F480E00E9484
:1020A00038058091610481608093610480916204AD
:1020B00081608093620413E030C083E680937304F0
:1020C00080E00E94380578941092D1031092D003DA
:1020D0008091D0039091D1038C5D9540C8F310920C
:1020E000730411E01093740486E793E00E94590A88
:1020F000109374046091750381E090E00E94911E3A
:102100006091730382E090E00E94911E60917403DD
:1021100083E090E00E94911E76C08091D30382FDFF
:1021200004C08091D40382FF5BCF1092D30311309F
:1021300099F4809173038F5F80937303809173038D
:102140008D3010F01093730380E00E943805809169
:10215000BA03882301F514C0123041F5809174034D
:102160008F5F8093740380917403803210F000932A
:10217000740380E00E9438058091BA03813059F4DD
:1021800080915B04816080935B0480915C0481603A
:1021900080935C0426C080915E04816080935E041D
:1021A00080915F04816080935F041BC01330C9F489
:1021B000809175038F5F809375038091750364E64A
:1021C0000E94D81D9093750380E00E94380580918D
:1021D00061048160809361048091620481608093D6
:1021E00062048091D40382FFFBCE0E941502789492
:1021F0001092D1031092D0038091D0039091D1031B
:10220000CC97D0F3EDCE1F910F91FF900895DF9200
:10221000EF92FF920F931F9300914004E0906404AB
:10222000F09082048AE08093D60310E0FAE0DF2E7B
:102230008091D30380FDECC08091D303882321F4E7
:102240008091D403882319F0D092D60307C08091DF
:10225000D603882319F410927304DAC08091D30353
:1022600081FF67C01092D3031123B9F40091400499
:10227000E0906404F0908204802F6E2D4F2D0E9418
:10228000AD0380915B04816080935B0480915C046A
:10229000816080935C0411E04CC0113089F4802F80
:1022A0006E2D4F2D0E94AD0380915E04816080935E
:1022B0005E0480915F04816080935F0412E039C006
:1022C000123089F4802F6E2D4F2D0E94AD03809126
:1022D00061048160809361048091620481608093D5
:1022E000620413E026C000934004E0926404F0927C
:1022F00082041092730411E01093740486E793E053
:102300000E94590A109374040093400460914004A1
:1023100084E090E00E94911E6091640485E090E06A
:102320000E94911E6091820486E090E00E94911EBE
:102330006FC08091D30382FD04C08091D40382FFDB
:1023400077CF1092D3031130C9F4802F90E001961B
:1023500068E170E00E94051E082F6E2D4F2D0E942F
:10236000AD0380915B04816080935B0480915C0489
:10237000816080935C040093400437C01230D1F434
:102380008E2D90E001966CE370E00E94051EE82E11
:10239000802F6E2D4F2D0E94AD0380915E048160D1
:1023A00080935E0480915F04816080935F04E0927B
:1023B00064041BC01330C9F48F2D90E001966CE3C8
:1023C00070E00E94051EF82E802F6E2D4F2D0E946A
:1023D000AD03809161048160809361048091620407
:1023E000816080936204F09282048091D40382FF22
:1023F0001FCF0E94150278941092D1031092D0033F
:102400008091D0039091D1038B349105C8F310CF04
:102410001F910F91FF90EF90DF900895EF92FF9240
:102420000F931F9310916904009142048AE08093F6
:10243000D603FF24BAE0EB2E8091D30380FDB1C018
:102440008091D303882321F48091D403882319F049
:10245000E092D60317C08091D603882399F4109296
:10246000730410936904009342046091690487E047
:1024700090E00E94911E6091420488E090E00E94EA
:10248000911E8FC08091D30381FF3CC01092D30373
:10249000FF2089F4812F602F0E947E0480915B04CD
:1024A000816080935B0480915C04816080935C0414
:1024B000FF24F39427C081E0F81689F4812F602F60
:1024C0000E947E0480915E04816080935E0480910E
:1024D0005F04816080935F04A2E0FA2E13C0109322
:1024E0006904009342046091690487E090E00E94CF
:1024F000911E6091420488E090E00E94911E10922B
:1025000073044FC08091D30382FD04C08091D40333
:1025100082FF92CF1092D30381E0F816B1F4812F9D
:1025200090E0019668E170E00E94051E182F602F70
:102530000E947E0480915B04816080935B048091A3
:102540005C04816080935C0419C082E0F816B1F4E9
:10255000802F90E001966CE370E00E94051E082F2A
:10256000812F602F0E947E0480915E0481608093A1
:102570005E0480915F04816080935F048091D40346
:1025800082FF5ACF0E94150278941092D1031092C4
:10259000D0038091D0039091D1038B349105C8F37F
:1025A0004BCF1F910F91FF90EF9008951F920F92C4
:1025B0000FB60F9211242F933F934F935F936F9316
:1025C0007F938F939F93AF93BF93EF93FF9300B647
:1025D00005FE4AC08091BF03882309F04EC05B9A74
:1025E00085B1877D85B95E988CB58F7B8CBD8091D8
:1025F000C0038823B9F06091400484E090E00E9419
:10260000911E6091640485E090E00E94911E6091AB
:10261000820486E090E00E94911E80ED97E061E0E8
:102620000E9491028091C1038823B9F060917503E3
:1026300081E090E00E94911E6091730382E090E03F
:102640000E94911E6091740383E090E00E94911EAD
:1026500080ED97E062E00E94910215BC1092580450
:1026600010926800459804C08091BF03882329F028
:10267000E091B803F091B9030995FF91EF91BF91F3
:10268000AF919F918F917F916F915F914F913F910A
:102690002F910F900FBE0F901F9018950F931F93BF
:1026A000DF93CF930F92CDB7DEB78091C6008983B9
:1026B0000CED13E0F80101900020E9F73197E01BE1
:1026C000F10BEE2321F4843209F004C105C0E33696
:1026D00008F0F9C08D3051F08CED93E0BE016F5FD2
:1026E0007F4F41E050E00E946B1EF4C0C8016FE7CD
:1026F00072E00E94551EC80161E872E047E050E0B8
:102700000E947B1E009709F0DEC00F5F1F4F1093E1
:10271000780400937704109268040AC080916804DA
:102720008927809368043196F0937804E0937704C6
:10273000E0917704F091780490819A3279F7818161
:1027400092818A3310F0875301C080539A3310F07E
:10275000975301C090538295807F890F80936504C1
:1027600090916804981709F0AEC08CED93E06CE28C
:1027700070E00E94601E9093780480937704A9E72C
:10278000B4E0FC01319686E001900D928150E1F7B2
:1027900010927F04809177049091780401966CE206
:1027A00070E00E94601EFC0190937804809377048F
:1027B0009C012F5F3F4F818180938104813409F018
:1027C00082C01092C6031092C503C9016CE270E08A
:1027D0000E94601EFC0190937804809377048181AD
:1027E0009281A381B4818093520490935304A09367
:1027F0005404B09355048681978190935704809335
:102800005604CF0101966CE270E00E94601EFC014C
:102810009093780480937704818180934304CF015F
:1028200001966CE270E00E94601E909378048093A1
:102830007704A4E4B4E0FC01319685E001900D92A8
:102840008150E1F7E0917704F091780487819085D9
:1028500090934A0480934904CF0101966CE270E0A2
:102860000E94601EFC01909378048093770481811C
:1028700080934104CF0101966CE270E00E94601EDB
:10288000909378048093770401966CE270E00E9444
:10289000601E909378048093770401966CE270E058
:1028A0000E94601E9093780480937704ABE4B4E0B8
:1028B000FC01319686E001900D928150E1F7109273
:1028C00051040E94080C84E6ECEDF3E0DF011D9258
:1028D0008A95E9F70F90CF91DF911F910F9108959D
:1028E0008AE090E00E94891E8093580485B186603A
:1028F00085B982E38093800080915804882329F071
:102900008091800080688093800088E180938100BE
:102910008AEF90E0909387008093860080918600F4
:102920009091870096958795909389008093880071
:10293000809188009091890090938B0080938A0009
:10294000089581E090E00E94891E64E60E94D81DEF
:102950009093750382E090E00E94891E6DE00E94D2
:10296000D81D9093730383E090E00E94891E8F71BD
:102970008093740380E00E94380564EF71E080E08A
:1029800090E00E94A60084E090E00E94891E68E129
:102990000E94D81D9093400485E090E00E94891E1B
:1029A0006CE30E94D81D9093640486E090E00E943E
:1029B000891E6CE30E94D81D90938204809140048C
:1029C00060916404409182040E94AD0364EF71E061
:1029D00080E090E00E94A60088E090E00E94891EBE
:1029E0006CE30E94D81D9093420487E090E00E941F
:1029F000891E68E10E94D81D9093690481E080934C
:102A0000C2038EE190E00E94891E8093D703805C10
:102A1000813838F01092D7038EE190E060E00E9498
:102A2000911E80E28093B6001092B2008FE78093EF
:102A3000B30092E09093B00086E08093B100909351
:102A4000700078940895FF920F931F938AE080930B
:102A5000D6038CE090E00E94891E182F00E03AE037
:102A6000F32E8091D303882321F48091D40388230B
:102A700019F0F092D60304C08091D6038823E9F0C0
:102A80008091D30380FD45C08091D30381FF18C09E
:102A90001092D303002361F489E892E00E941005AC
:102AA00081E0612F70E041E00E94C0010FE008C0AA
:102AB0008CE090E0612F0E94911E1092730429C057
:102AC0008091D30382FD04C08091D40382FFC9CFDB
:102AD0001092D3030F3051F41F5F143608F010E04A
:102AE00081E0612F70E041E00E94C0018091D40339
:102AF00082FFB7CF0E94150278941092D1031092F2
:102B0000D0038091D0039091D1038B349105C8F309
:102B1000A8CF1F910F91FF900895FF920F931F93DD
:102B20008AE08093D6038EE190E00E94891E182FE0
:102B30008093D70300E04AE0F42E8091D3038823EA
:102B400021F48091D403882319F0F092D60307C0B2
:102B50008091D603882319F41093D7031EC0809167
:102B6000D30380FD45C08091D30381FF19C010922B
:102B7000D303002359F482E992E00E94100586E015
:102B8000612F41E00E94940108E00AC01093D7032E
:102B90008EE190E0612F0E94911E109273042AC072
:102BA0008091D30382FD04C08091D40382FFC5CFFE
:102BB0001092D303083049F41F5F10340CF010EC6E
:102BC00086E0612F41E00E9494018091D40382FF4E
:102BD000B4CF0E94150278941092D1031092D003C2
:102BE0008091D0039091D1038B349105C8F3A5CF88
:102BF0001093D7031F910F91FF9008950F931F9388
:102C00008AE08093D6038BE090E00E94891E809337
:102C1000BA0310E00AE001C010E08091D3038823DA
:102C200021F48091D403882319F00093D60304C0C3
:102C30008091D603882381F08091D30380FD28C042
:102C40008091D30381FF0BC01092D303112321F491
:102C50000E94B20611E003C01092730419C0809163
:102C6000D30382FFDACF1092D3031130A9F690E09C
:102C70008091BA03882309F491E09093BA030E94EB
:102C8000B2068BE090E06091BA030E94911EC5CF1E
:102C90001F910F910895FF920F931F938AE08093E5
:102CA000D6038AE090E00E94891E082F10E05AE0C7
:102CB000F52E01C010E08091D303882321F4809188
:102CC000D403882319F0F092D60304C08091D60370
:102CD000882381F08091D30380FD2BC08091D303A2
:102CE00081FF0BC01092D303112321F40E94BE0672
:102CF00011E003C0109273041CC08091D30382FFC3
:102D0000DACF1092D3031130A9F680E0002309F442
:102D100081E0082F8AE090E0602F0E94911E0E94BF
:102D2000701480EA9FE061E00E9491020E94BE065A
:102D3000C2CF1F910F91FF900895FF920F931F93A1
:102D40008AE08093D60382E190E00E94891E8093FE
:102D5000590483E190E00E94891E809380041092C0
:102D6000BB0310E00AE062E3F62E8091D3038823D0
:102D700021F48091D403882319F00093D60307C06F
:102D80008091D603882319F41092730430C0809187
:102D9000D30380FD2CC08091D30381FF2FC01092FC
:102DA000D303112351F489E992E00E941005809128
:102DB00059040E944C0311E021C0113051F480EA03
:102DC00092E00E941005809180040E944C0312E062
:102DD00015C0109273046091590482E190E00E9442
:102DE000911E6091800483E190E00E94911E81E039
:102DF0008093BB031F910F91FF9008958091D3039F
:102E000082FD04C08091D40382FFAFCF1092D30320
:102E1000113071F4809159048E5F80935904809130
:102E20005904833310F000935904809159040FC062
:102E3000123079F4809180048B5F809380048091BC
:102E400080048B3510F0F0928004809180040E9401
:102E50004C038091D40382FF88CF0E94150278949E
:102E60001092D1031092D0038091D0039091D1039E
:102E70008B349105C8F379CFCF93DF9380E090E056
:102E80000E94891E813009F48AC080E090E061E0F0
:102E90000E94911E81E090E06BE00E94911E82E012
:102EA00090E061E00E94911E83E090E061E00E946A
:102EB000911E84E090E060E00E94911E85E090E029
:102EC00060E00E94911E86E090E060E00E94911E0A
:102ED00087E090E06AE00E94911E88E090E060E068
:102EE0000E94911E89E090E062E30E94911E8AE0B8
:102EF00090E060E00E94911E8BE090E060E00E9414
:102F0000911E8CE090E06AE00E94911E8DE090E0BE
:102F100068EF0E94911E8EE090E060E00E94911E9A
:102F20008FE090E060E00E94911E80E190E060E020
:102F30000E94911E82E190E06AE00E94911E83E16E
:102F400090E06AE50E94911E81E190E060E00E94BD
:102F5000911EC4E1D0E0FE01EE59FC4FCE0160812C
:102F60000E94911E2196CD31D105A9F78DE190E007
:102F700060E00E94911E80E290E060E00E94911E5D
:102F80008EE190E060E00E94911E8FE190E060E0B1
:102F90000E94911E88EB9BE062E00E949102DF910B
:102FA000CF9108958CE090E00E94891E9CE3899F58
:102FB000C00111249093CF038093CE0387EA92E05F
:102FC0000E94100583E68093730478941092D103D5
:102FD0001092D0038091D0039091D1038C5D9540E5
:102FE000C8F31092730408951F920F920FB60F92B8
:102FF00011242F933F934F935F936F937F938F93FE
:103000009F93AF93BF93EF93FF9310926B007894CD
:10301000189925C08091D20381FD26C07894109222
:10302000D1031092D0038091D0039091D1030A97DD
:10303000D0F3189919C00E9415028091700488235A
:1030400019F00E94D21710C08091D2038260809341
:10305000D2038091D30382608093D30305C0809113
:10306000D2038D7F8093D20381E080936B00FF9128
:10307000EF91BF91AF919F918F917F916F915F91F0
:103080004F913F912F910F900FBE0F901F90189569
:103090001F920F920FB60F9211242F933F934F93CD
:1030A0005F936F937F938F939F93AF93BF93EF93B0
:1030B000FF9310926D007894A8954D9922C080914D
:1030C000D20380FD23C078941092D1031092D003D4
:1030D0008091D0039091D1030A97D0F34D9959C0B4
:1030E0000E941502809170048823A1F58091D2037B
:1030F00081608093D2038091D30381608093D30356
:1031000005C08091D2038E7F8093D2034C993AC040
:103110008091D20382FD3DC078941092D103109229
:10312000D0038091D0039091D1030A97D0F34C99AA
:1031300030C00E94150282E08093D50314C04C9BDE
:1031400012C08091D2038B7F8093D2038091700450
:10315000882319F00E94D2171CC08091D303846089
:103160008093D30316C08091D503882341F78091C3
:10317000D20384608093D2038091D40384608093CF
:10318000D40307C01092D4038091D2038B7F809325
:10319000D20380E380936D00FF91EF91BF91AF91D7
:1031A0009F918F917F916F915F914F913F912F915F
:1031B0000F900FBE0F901F901895FF920F931F93C3
:1031C0008AE08093D60310E07AE0F72E02E0809147
:1031D000D303882321F48091D403882319F0F0923B
:1031E000D60307C08091D603882319F41092730484
:1031F0005DC08091D30380FD59C08091D30381FFCE
:103200002DC01092D303812F90E0019666E070E00C
:103210000E94051E182F8230A1F0833028F48823E5
:1032200051F08130D9F40AC0843099F0843070F0C4
:103230008530A1F411C080EB92E005C00E94FF062A
:103240000DC089EB92E00E94100508C00E94230186
:1032500005C082EC92E0F7CF0E9448018091D30331
:1032600082FFB5CF1092D303113009F0B0CF809117
:10327000C403882329F41093C40387E690E008C0B0
:103280008091C403813039F40093C40384E390E057
:103290000E94791C02C01092C4030E94FF06609134
:1032A000C40380E190E00E94911E91CF1F910F9185
:1032B000FF900895EF92FF920F931F931091910347
:1032C0000091C7038AE08093D603FF24FAE0EF2E33
:1032D0008091D30380FDAAC08091D303882321F479
:1032E0008091D403882319F0E092D60304C0809122
:1032F000D603882369F18091D30381FF2CC01092FB
:10330000D303FF2089F4812F602F0E94E004809175
:103310005B04816080935B0480915C048160809396
:103320005C04FF24F39417C081E0F81689F4812F20
:10333000602F0E94E00480915E04816080935E04AF
:1033400080915F04816080935F04E2E0FE2E03C001
:10335000109273046BC08091D30382FD04C08091EE
:10336000D40382FFB5CF1092D30381E0F81659F54C
:10337000812F992787FD90950D9669E170E00E9455
:10338000051E182F1C50812F602F0E94E004809191
:103390005B04816080935B0480915C048160809316
:1033A0005C04109391038DE090E0612F0E94911EC8
:1033B0008BEC92E00E94BC1C812F992787FD909591
:1033C0000E940F1D20C082E0F816E9F4802F90E0E3
:1033D00001966CE370E00E94051E082F812F602F7C
:1033E0000E94E00480915E04816080935E0480917D
:1033F0005F04816080935F040093C7038EE090E0D8
:10340000602F0E94911E8091D40382FF61CF0E94A1
:10341000150278941092D1031092D0038091D003BA
:103420009091D1038B349105C8F352CF1F910F9126
:10343000FF90EF9008951F93CF93DF9315BC569A9A
:103440005E9884B714BE90E00E94F21C88E10FB62B
:10345000F89480936000109260000FBE2FE088E126
:1034600090E00FB6F894A895809360000FBE20936B
:103470006000A8951092C0038091C0038093C1039F
:10348000109274041092C20387E690E00E94791CA7
:1034900088E480BF61E070E080E090E00E94A600D8
:1034A00000B605FE06C080B7806180BF0E94A114EF
:1034B000CFC00E9410015B9881E0809369008DBBB2
:1034C0001092730481E58CBD82E190E00E94891E18
:1034D0008093590483E190E00E94891E80938004C8
:1034E00089E090E00E94891E8093630481E190E06E
:1034F0000E94891E8093BB038091BB03813019F425
:103500008091800402C0809163040E94D402789468
:103510008DE090E00E94891E80939103845F893141
:1035200010F0109291038EE090E00E94891E80932B
:10353000C7038D3310F01092C7030E9470140E94CD
:103540003C170E9496028BE090E00E94891E8093B7
:10355000BA038FE090E00E94891E809367048091F7
:1035600067048132C9F484E190E00E94891E8823B7
:1035700099F0C4E1D0E0CE010E94891EFE01EE590F
:10358000FC4F80832196CD31D105A9F78DE190E0E4
:103590000E94891E8093C30380E190E00E94891EEF
:1035A0008093C4038091C403813019F487E690E0CE
:1035B00006C08091C403823021F484E390E00E942D
:1035C000791C80E290E00E94891E8093BC038FE109
:1035D00090E00E94891E8093C9038091C9038230C4
:1035E00010F01092C90383E68093730484EE92E096
:1035F0000E94100580EC9DE061E044E650E00E94EE
:10360000460264EF71E080E090E00E94A6000E9414
:10361000A114A89580EC9DE061E044E650E00E9492
:10362000460288E592E00E94100578941092D1033A
:103630001092D0038091D0039091D103883C9105E2
:10364000C8F31092730481E0809374040E941606FC
:1036500013E6A89500B605FE03C00E94E300F9CF6B
:103660008091D30380FFC1C01092D3038091730473
:10367000833651F08091730490E0019661E170E02F
:103680000E94051E8093730480917304883009F4AE
:1036900074C08930A0F4843009F442C0853040F40D
:1036A000823069F1833090F5813009F0BDC020C0CF
:1036B000863009F454C0873008F082C049C08C308D
:1036C00009F462C08D3038F48A3009F487C08B3039
:1036D00008F06FC036C08E3009F45DC08E3008F43B
:1036E00076C08F3009F45EC0803109F09DC022C0E1
:1036F00084EE92E00E9410050E941E0795C08DEE98
:1037000092E00E9410050E940E128EC086EF92E099
:103710000E9410050E94071181E08093C00384C0BD
:103720008FEF92E00E9410050E94E60F81E08093E7
:10373000C1037AC088E093E00E9410050E945A19E4
:1037400073C080EB92E00E9410050E94DD186CC0EF
:1037500081E193E00E9410050E94AD0E65C08AE1F0
:1037600093E00E9410058091BB03882319F00E940A
:103770009D165AC00E94300F57C083E293E00E940A
:1037800010050E948D1550C08CE293E00E94100538
:103790000E94FE1549C085E393E00E9410050E9437
:1037A000FC0C42C08EE393E00E9410050E9423159A
:1037B0003BC087E493E00E9410050E944B1634C082
:1037C00080E593E00E9410050E942D0E2DC089E532
:1037D00093E00E9410050E94870D26C082E693E0C8
:1037E0000E9410050E94960F1FC08091D30381FD97
:1037F00004C08091D30382FF17C01092D3031093AB
:10380000730481E00E943805A89578941092D10342
:103810001092D0038091D0039091D103885E9340A1
:10382000C8F3A895109273048091C403882309F407
:1038300010CF8091C00087FF0CCF0E944E1309CF9C
:103840001F920F920FB60F9211242F933F934F9315
:103850005F936F937F938F939F93AF93BF93EF93F8
:10386000FF931DBA89E60E94861C29B1789478944A
:103870001092D1031092D0038091D0039091D10384
:103880000A97D0F389B1247030E090E08470907092
:103890002817390711F40E94160681E08DBBFF91AD
:1038A000EF91BF91AF919F918F917F916F915F91B8
:1038B0004F913F912F910F900FBE0F901F90189531
:1038C00006C090E000009F5F9E31E1F781508823A1
:1038D000C1F7089548EC50E009C020E137E2FA0151
:1038E0003197F1F721503040D1F781508823A9F763
:1038F00008959093C5008093C40088E18093C1002F
:103900008EE08093C200519A50980895982F80912C
:10391000C00085FFFCCF9093C60080E090E0089542
:103920008091C00087FFFCCF8091C60008958091F0
:10393000C00080780895AC0120E007C08091C000ED
:1039400085FFFCCF3093C6002F5FFA01E20FF11D17
:103950003491332399F7662371F08091C00085FF7D
:10396000FCCF8AE08093C6008091C00085FFFCCF29
:103970008DE08093C6000895FC0107C08091C000CF
:1039800085FFFCCF31969093C60090819923B1F7C3
:103990000895282F982F92959F709A3030F4809137
:1039A000C00085FFFCCF905D05C08091C00085FF01
:1039B000FCCF995A9093C600822F90E08F70907040
:1039C0000A973CF48091C00085FFFCCF2F70205DEA
:1039D00006C08091C00085FFFCCF2F70295A20932C
:1039E000C60008951F93182F892F0E94C91C812F8C
:1039F0000E94C91C1F910895EF92FF920F931F938D
:103A00007B018C01C801AA27BB270E94F21CC701B9
:103A10000E94F21C1F910F91FF90EF9008950F9359
:103A20001F93CF93DF938C01E0E1F7E240E0C0E029
:103A3000D0E0C801BF010E94F11D262F662329F4A2
:103A4000442319F4E130F10549F48091C00085FF69
:103A5000FCCF205D2093C600205341E0CF016AE0F7
:103A600070E00E94F11D2196C530D10571F0822FC2
:103A700090E09C012E9FC0012F9F900D3E9F900DC6
:103A80001124081B190BFB01D4CFDF91CF911F919B
:103A90000F9108954F925F926F927F928F929F92B3
:103AA000AF92BF92CF92DF92EF92FF920F931F934C
:103AB000CF93DF934B015C01E12C9AECF92E9AE94C
:103AC000092F9BE3192F4424C0E0D0E0C501B401C5
:103AD000A80197010E94181ED22E222341F44420EF
:103AE00031F481E0E816F1040105110561F48091DB
:103AF000C00085FFFCCF80E3D80ED092C60080EDD9
:103B0000D80E44244394C801B7012AE030E040E0D5
:103B100050E00E94181EC22E732E642E552E219640
:103B2000CA30D105A9F06D2D70E080E090E0A801C9
:103B300097010E94B91D861A970AA80AB90A2C2D66
:103B4000372D462D552DC901DA017C018D01BECFDF
:103B5000DF91CF911F910F91FF90EF90DF90CF9069
:103B6000BF90AF909F908F907F906F905F904F909D
:103B70000895629FD001739FF001829FE00DF11DB7
:103B8000649FE00DF11D929FF00D839FF00D749FD7
:103B9000F00D659FF00D9927729FB00DE11DF91F83
:103BA000639FB00DE11DF91FBD01CF0111240895E0
:103BB000991B79E004C0991F961708F0961B881F7F
:103BC0007A95C9F78095089587FB082E062687FD0C
:103BD000819567FD6195ECDF0EF4919507FC819569
:103BE0000895AA1BBB1B51E107C0AA1FBB1FA61744
:103BF000B70710F0A61BB70B881F991F5A95A9F796
:103C000080959095BC01CD01089597FB092E07265C
:103C10000AD077FD04D0E5DF06D000201AF47095B5
:103C200061957F4F0895F6F7909581959F4F089580
:103C3000A1E21A2EAA1BBB1BFD010DC0AA1FBB1FB0
:103C4000EE1FFF1FA217B307E407F50720F0A21B22
:103C5000B30BE40BF50B661F771F881F991F1A948F
:103C600069F760957095809590959B01AC01BD01B9
:103C7000CF01089597FB092E05260ED057FD04D0DD
:103C8000D7DF0AD0001C38F4509540953095219527
:103C90003F4F4F4F5F4F0895F6F790958095709581
:103CA00061957F4F8F4F9F4F0895FB01DC010D9071
:103CB0000020E9F7119701900D920020E1F7089597
:103CC000FC018191861721F08823D9F7992708955F
:103CD0003197CF010895FB01DC010D900020E9F739
:103CE00011974150504028F0019000200D92C9F7E3
:103CF00008951C920895FB01DC014150504030F0C2
:103D00008D910190801919F40020B9F7881B990B47
:103D10000895F999FECF92BD81BDF89A992780B593
:103D20000895262FF999FECF1FBA92BD81BD20BDFF
:103D30000FB6F894FA9AF99A0FBE01960895F8947E
:023D4000FFCFB3
:103D420073756E646179006D6F6E6461790074756C
:103D52006573646179007765646E65736479007474
:103D6200687572736461790066726964617900735F
:103D720061747572646179006A616E0066656200E1
:103D82006D6172636800617072696C006D617900C7
:103D92006A756E65006A756C790061756773740087
:103DA20073657074006F63746F62006E6F76656D19
:103DB20000646563656D00203230303020202000C1
:103DC200616C61726D206F6E002066756C6C2020D4
:103DD2002000206469616C31202000206469616CDC
:103DE20032202000206469616C3320200020646945
:103DF200616C3420200020616D2D706D2020002028
:103E0200616D2D706D2E2000206E6F6E652020205A
:103E120000206E6F6E652E2020007573612D313289
:103E22006872006575722D3234687200766F6C208C
:103E32006869676800766F6C206C6F772000647326
:103E420074206175746F00647374206F6E2020009B
:103E5200647374206F666620006164696D206F6E02
:103E620020006164696D206F666600677073206F61
:103E72006E343800677073206F6E39360067707366
:103E8200206F666620006F6E202038383838006F49
:103E92006666203838383800202020202020202054
:103EA20000206E6F20677073200072756C65302081
:103EB2003030006164632000627269746520002AF8
:103EC20000244750524D432C002020206D696E750E
:103ED2007400647266742020006272746C6F200039
:103EE20062727468692000736E6F6F7A696E670020
:103EF200736574206770732000677073206C61743F
:103F02002000677073206C6F6E67000A0D54696D34
:103F1200657A6F6E65206F666673657420686F756B
:103F2200723A09006963652074756265007365748D
:103F320020616C6172007365742074696D65007331
:103F42006574206461746500736574207A6F6E65B0
:103F520000736574206164696D0073657420627218
:103F620069740073657420647266740073657420EA
:103F72007265676E007365742073656373007365A1
:103F82007420736E6F7A0073657420766F6C2000F4
:103F92007365742064737420007365742072756C89
:103FA2006500736574206C646262003132313130B5
:103FB20035776D030E2F030102020B01010201018D
:103FC20001010001010100000C0507170C0507178C
:103FD20001F8081F1C1F1E1F1E1F1F1E1F1E1F0071
:103FE200001F003B005A0078009700B500D400F390
:083FF20000110130014E010035
:00000001FF
