:100000000C9479000C94311C0C9496000C940518F7
:100010000C9496000C9459180C9496000C94370C80
:100020000C9496000C9496000C9496000C949600F8
:100030000C9496000C9496000C9496000C949600E8
:100040000C94C8070C9496000C9496000C9496009F
:100050000C9496000C94E4020C9496000C94E71215
:100060000C9496000C949600FA3E1A7ADE8EF62EC8
:100070006078AE1CAA2A3ACEF30AB61E3838B86E9B
:1000800076DA6800FC60DAF266B6BEE0FEF684005E
:100090000E620E200E400C600462086290008080A8
:1000A0008000400020001000101000100008000424
:1000B00000809E00C080C2004202020A001A10188E
:1000C000301032002202020600868084B400040050
:1000D00002000800002000020040CE0003070809CB
:1000E000060A050C04DC000B10120F0D0E1113E7AD
:1000F000000011241FBECFEFD4E0DEBFCDBF13E060
:10010000A0E0B1E0E4E6FDE302C005900D92AC3A58
:10011000B107D9F714E0ACEAB3E001C01D92AB37E8
:10012000B107E1F70E942C1A0C94B01E0C94000049
:100130009C0178941092C5031092C4038091C4036B
:100140009091C50382179307C8F30895EF92FF9229
:100150000F931F937B018C0120ED37E040E050E0CE
:100160000E94CA1D611571058105910519F461E0B0
:1001700070E01CC0603020E0720721E0820720E0C0
:100180009207A0F0C801B7012AE030E040E050E05B
:100190000E94CA1D88EC90E005C0FC013197F1F780
:1001A0006150704061157105C1F703C0CB01019723
:1001B000F1F71F910F91FF90EF9008950197F1F7DC
:1001C0000895A895089581E08093B3035B9A8CB558
:1001D0008F7B8CBD85B1877D85B95E9815BC1092EB
:1001E0004C0410926800459885B1897F85B98BB120
:1001F0008F7C8BB928988AB18F7C8AB920985A98BD
:100200005298E1E6F0E090E8908388E08083449A99
:1002100083B7876083BF8895908310824498089540
:100220008EE284B988E48AB989E087B984E38BB91E
:1002300091E095B985E08093680090936B0080E32E
:1002400080936D000895CF93DF9310924F048091B7
:1002500037048E3419F41092500403C082E0809366
:100260005004A6E4B4E0C1E5D4E0ED91E053F0E041
:10027000EC57FF4FE491E99384E0AC34B807A9F759
:1002800080915404816080935404DF91CF9108954C
:10029000CF93DF9380913504853419F410924F0485
:1002A00003C082E080934F04A8E3B4E0C0E5D4E04B
:1002B000ED91E053F0E0EC57FF4FE491E99384E0D7
:1002C000AF33B807A9F78091540481608093540438
:1002D000DF91CF910895CF93DF93362F3150C32F05
:1002E000DD27C7FDD095C80FD11DC25BDB4F252F81
:1002F00016C0842F922F6AE070E00E94021EE82F41
:10030000F0E0EC57FF4FE491E883842F922F6AE0EE
:1003100070E00E94021E462F272F3150219737FF91
:10032000E8CFDF91CF910895A82F262FE82FF0E096
:1003300067FF06C0E25BFB4F82E08083219503C02C
:10034000E25BFB4F1082B0E0822F6AE00E94F51D55
:10035000E82FF0E0EC57FF4FE491A25BBB4FE42B9A
:100360001196EC931197822F6AE00E94F51DE92FF8
:10037000F0E0EC57FF4FE491E42B1296EC930895D4
:100380000F931F93CF93DF938B01282F30E0CB0186
:100390006AE070E00E94161EC4E8D0E0FE01E60F9D
:1003A000F11DE491225B3B4FE42BD901EC93C80192
:1003B0006AE070E00E94161EC80FD11DFE018491F4
:1003C000842BD90111968C93DF91CF911F910F91BE
:1003D0000895A82FB0E0CD018C579F4FFC01849168
:1003E000816080935304AA58BC4F6C9187E070E001
:1003F00041E00E94C0010895FC0183709070892B38
:1004000039F4CF0164E670E00E94021E892B49F4A2
:1004100020E030E0CF0160E971E00E94021E892BEC
:1004200011F421E030E0822F0895109280001092A4
:100430008100299A2A9878941092C5031092C403D7
:100440008091C4039091C5030A97D0F32A9A299802
:1004500078941092C5031092C4038091C4039091C4
:10046000C5030A97D0F385B1897F85B982E380936C
:10047000800080914C04882329F08091800080685E
:100480008093800088E1809381000895DF92EF924D
:10049000FF920F931F93D62E8A019C0140E050E0FB
:1004A00060E472E48FE090E00E944B1E309387007E
:1004B000209386008091860090918700969587957D
:1004C00090938B0080938A0080918A0090918B009A
:1004D0009093890080938800780100E010E016C0B6
:1004E00080918100826080938100C801B7010E94E1
:1004F000A600809181008D7F8093810085B1897FE6
:1005000085B9C801B7010E94A600DA94DD2041F741
:1005100085B1897F85B91F910F91FF90EF90DF9092
:10052000089544E650E00E94460208953D9A459A97
:10053000AAE7B0E08C9186608C93ECE7F0E08081D4
:1005400080648083808184608083EEE7F0E0808136
:10055000806180838C9180688C938C9188608C936F
:1005600008958091AF03813029F480917A008064EE
:1005700080937A000895982F80916404882329F04D
:100580008091760480FD0DC002C09B3510F09AE585
:1005900003C09A3008F49AE087B5891721F097BD17
:1005A000089592E3F9CF08950E94BB0283E084BDD1
:1005B00081E085BD84B5806884BDEEE6F0E0808191
:1005C00081608083789408951F920F920FB60F92E6
:1005D00011241F932F933F934F935F936F937F93B8
:1005E0008F939F93AF93BF93EF93FF938091AF034C
:1005F000813009F03FC03091780020917900922F2E
:1006000080E0632F70E0682B792B70936604609311
:10061000650483E0623F780718F080914D0405C0BF
:100620006536710520F48091740490E01DC010912E
:10063000740420917404E0914D046456704080E08D
:1006400090E030E02E1B3109442737FD4095542FB0
:100650000E94CA1D2EE833E040E050E00E94291EAF
:10066000812F90E0821B930B909361048093600430
:100670000E94BB02FF91EF91BF91AF919F918F912B
:100680007F916F915F914F913F912F911F910F90AB
:100690000FBE0F901F9018951F93182F87E0612FA2
:1006A00070E041E00E94C001812F0E94BB021F91B7
:1006B0000895CF93DF93C62FD0E0E82FF0E0E0530A
:1006C000F84FC330D10510F42C963197242F30E029
:1006D0002F5F3F4F2E0F3F1FCE01880F991F280F0E
:1006E000391FCF019695879596958795280F391FC5
:1006F000CF0160E971E00E94021E260F371FCF0173
:1007000064E670E00E94021E261B370BAE014F5FAD
:100710005F4FCA01880F991F840F951F880F991F7B
:100720006AE070E00E94021EC901860F971F67E011
:1007300070E00E94021E8F5FDF91CF910895E4E880
:10074000F0E0E80FF11DE4918E2F0895E82FF0E01E
:10075000E95FFF4FE4918E2F08950F931F93182F99
:10076000062F80916704882309F07EC08091B00332
:10077000833009F442C0843028F4813069F082303B
:10078000F0F472C0853008F475C0873008F448C0B2
:10079000893008F06FC05CC0842F66E00E94E91DBC
:1007A000892F90E0880F991FFC01EF56FF4FE491CD
:1007B000E093550480579F4FFC01949146C0842FCD
:1007C0006AE00E94E91D292F30E0220F331FC90182
:1007D00081569F4FFC0194919093550422563F4FB0
:1007E000F90184918093560440FF44C09260909335
:1007F00055048260809356043DC0842F6CE00E94B3
:10080000E91D892F90E0880F991FFC01EB54FF4FE1
:10081000E491E09355048C549F4FFC01949115C0D2
:100820001C3018F4E8E6F0E002C0E7E7F0E0E491FD
:10083000E0935504E4E7F0E094919093560480919E
:10084000B0038630B9F44170942B9093560412C0D3
:1008500010925504109256048091B003883051F4E0
:1008600041704093560406C087E0642F70E040E07A
:100870000E94C0011092540484E0602F70E040E0B8
:100880000E94C001109251048091AE03882369F543
:10089000812F90E00B966CE070E00E94161E9C0188
:1008A00001966AE070E00E94161EE82FF0E0EC5717
:1008B000FF4FE491E0935004265F3F4F2331310511
:1008C00018F410924F0405C0E5E8F0E0E491E093DD
:1008D0004F041C3020F080914E04816003C0809151
:1008E0004E048E7F80934E0406C081E0612F70E03D
:1008F00040E00E94C0011F910F9108951F93182F8F
:1009000010925604109255041092540484E070E042
:1009100040E00E94C001109251048091AE038823F0
:1009200009F03EC01C3058F080914E0481608093E5
:100930004E04E7E7F0E0E491E09355040AC0E8E6EE
:10094000F0E0E491E093550480914E048E7F809313
:100950004E04E4E7F0E0E491E0935604812F90E048
:100960000B966CE070E00E94161E9C0101966AE0F6
:1009700070E00E94161EE82FF0E0EC57FF4FE49164
:10098000E0935004265F3F4F2331310518F4109255
:100990004F0414C0E5E8F0E0E491E0934F040EC08A
:1009A000812F90E0479668E170E00E94161EBC011E
:1009B0006F5F7F4F81E040E00E94C0011F9108956A
:1009C0001F93182FEAE6F0E0849180935604719605
:1009D0008491809355043196E491E093540484E02B
:1009E00070E040E00E94C00110925104612F77270F
:1009F00067FD709577FF03C0709561957F4F81E02B
:100A000040E00E94C00117FD04C080914E048D7F1C
:100A100003C080914E04826080934E041F9108951C
:100A2000CF93DF9310924E04EC01AFE4B4E0E88181
:100A3000EE23D9F08E2F81568A3128F4F0E0E95F59
:100A4000FF4FE49109C08E2F80538A3038F4E82F8D
:100A5000F0E0EC57FF4FE491EC9301C01C9221961B
:100A6000119684E0A735B80711F7DF91CF9108956B
:100A7000882359F510924E0482E0809351048093AC
:100A800054048091AE03882351F46091730381E094
:100A900070E040E00E94C0016091740309C0609161
:100AA000740381E070E040E00E94C0016091730334
:100AB00084E070E040E00E94C0016091750387E02F
:100AC00070E040E00E94C0010895813009F0ADC09F
:100AD000109255041092560480917503609173032F
:100AE000409174030E9459038430C9F0853038F472
:100AF000823079F0833080F48130F1F407C08630A1
:100B0000A1F0863078F08730B9F412C080E091E02F
:100B100011C087E091E00EC08EE091E00BC086E14D
:100B200091E008C08FE191E005C088E291E002C049
:100B30008FE291E00E94100578941092C503109204
:100B4000C4038091C4039091C503885E9340C8F3A9
:100B50001092520410925304109254048091730323
:100B6000863079F1873070F4833011F1843028F4C5
:100B70008130C1F08230D9F518C08430E1F0853081
:100B8000B1F51CC0893031F18A3028F48730E1F0AA
:100B9000883069F51CC08B3019F18B30F0F08C3047
:100BA00031F521C088E391E020C08CE391E01DC0C5
:100BB00080E491E01AC086E491E017C08CE491E0F3
:100BC00014C080E591E011C085E591E00EC08AE592
:100BD00091E00BC080E691E008C085E691E005C099
:100BE0008BE691E002C081E791E00E9410056091E0
:100BF000740387E070E040E00E94C0017894109296
:100C0000C5031092C4038091C4039091C503885E0C
:100C10009340C8F387E791E00E9410056091750347
:100C200084E070E040E00E94C00108954A9B3EC00D
:100C300080915A04882309F051C081E080935A04BE
:100C40001092C3031092C2038091B403882309F465
:100C500045C080916704882309F040C080E891E096
:100C60000E94100583E68093670478941092C50370
:100C70001092C4038091C4039091C5038C5D95408C
:100C8000C8F380915D04609136040E947E047894DC
:100C90001092C5031092C4038091C4039091C503C0
:100CA0008C5D9540C8F310926704089580915A04B2
:100CB0008823A1F010925A041092C3031092C20329
:100CC00080916404882351F0109264048091810023
:100CD0008D7F8093810085B1866085B9089580916C
:100CE000B003843001F1853048F4813099F08130CF
:100CF00070F0823091F08330A1F512C08630C9F0D7
:100D00008630A0F08730F9F0883059F521C089E8A5
:100D100091E01BC082E991E018C08BE991E015C019
:100D200084EA91E012C08DEA91E00FC086EB91E079
:100D30000CC08FEB91E00E941005809155048160FA
:100D400080935504089588EC91E00E941005089561
:100D500081ED91E00E9410058091540481608093A0
:100D6000540408958091AE03882319F48AED91E02C
:100D700002C083EE91E00E941005089580914C041A
:100D8000882351F08CEE91E00E941005809156046A
:100D900081608093560404C085EF91E00E941005A5
:100DA0008091530481608093530480915404816046
:100DB0008093540480915504816080935504089574
:100DC00080915B04813219F48EEF91E009C080912B
:100DD0005B04813019F487E092E002C080E192E088
:100DE0000E94100508958091AF03813019F489E1C4
:100DF00092E002C082E292E00E9410050895809184
:100E0000B803813019F48BE292E009C08091B803F5
:100E1000823019F484E392E002C08DE392E00E94F4
:100E2000100508958091BD03882319F086E492E0AF
:100E300002C08FE492E00E94100508951F938AE09B
:100E40008093CA031AE08091C70380FD1DC0809182
:100E5000C703882321F48091C803882319F01093D5
:100E6000CA0307C08091CA03882319F4109267044B
:100E70000BC08091C70381FFE6CF1092C7038BE6BA
:100E800093E00E941005DFCF1F91089581E58CBD8E
:100E900008959B01AC01F894CA01AA27BB278EBD17
:100EA0000DB407FEFDCFBB27A52F942F832F8EBD3A
:100EB0000DB407FEFDCF2EBD0DB407FEFDCF409A49
:100EC000409878940895AF92BF92CF92DF92EF92BC
:100ED000FF920F931F9390919203981708F4892F14
:100EE000E82FF0E0DF01A25BBB4F2C91E452FF4FF3
:100EF000E49181E090E002C0880F991FEA95E2F743
:100F00007C010027F7FC0095102F4091CC035091F5
:100F1000CD036091CE037091CF03A0E0B0E030E04C
:100F2000E1E0AE2EB12CC12CD12CC9010A2E02C099
:100F3000959587950A94E2F780FF11C0FD01E9516C
:100F4000FF4FE491B601A50104C0440F551F661F71
:100F5000771FEA95D2F7E42AF52A062B172B11966C
:100F6000A830B10511F74093CC035093CD036093A3
:100F7000CE037093CF03C801B7010E9449071F91A8
:100F80000F91FF90EF90DF90CF90BF90AF900895BA
:100F90001F920F920FB60F9211242F933F934F93EE
:100FA0005F936F937F938F939F93AF93BF93EF93D1
:100FB000FF937894A8958091BE039091BF0301960A
:100FC0009093BF038093BE03829708F418C11092D8
:100FD000BF031092BE038091C4039091C503019694
:100FE0009093C5038093C4038091BC030E94630760
:100FF0002091BC032F5F2093BC034091BD0330E0E0
:101000008091920390E0840F911D8217930714F44E
:101010001092BC038091B003843041F58091670445
:10102000882321F58091B1038F5F8093B1038739C5
:10103000E8F01092B1038091C4039091C50367EA70
:1010400070E00E94021ECB0166E070E00E94021E6A
:10105000880F991FFC01E153FF4FE491E093550481
:1010600082539F4FFC0184918093560480916404C5
:10107000882309F4C4C08091C2039091C303892BD3
:1010800009F0BDC08091C0039091C1030196909377
:10109000C1038093C0038B35910508F4B0C0109252
:1010A000C1031092C0038091690490916A04019673
:1010B00090936A04809369048091690490916A0412
:1010C0008155964470F0109264041092C3031092FC
:1010D000C203809181008D7F8093810085B18660FD
:1010E00085B98091620490916304019690936304A2
:1010F00080936204209162043091630480917704AC
:10110000909178048217930750F51092630410921F
:101110006204809162049091630490937A048093B6
:1011200079048091770490917804459748F08091F4
:10113000770490917804449790937804809377048F
:1011400080915E0490915F04449748F480915E041E
:1011500090915F04029690935F0480935E04809167
:10116000790490917A04019690937A04809379049B
:101170002091790430917A0480915E0490915F040B
:1011800082179307E0F18091790490917A049C0191
:10119000220F331F280F391F220F331F220F331F37
:1011A00024553E4F40E050E060E472E48FE090E070
:1011B0000E944B1E3093870020938600809186000A
:1011C000909187009695879590938B0080938A00E5
:1011D00080918A0090918B00909389008093880081
:1011E0008091790490917A0480FF04C080918100FD
:1011F000826003C0809181008D7F80938100FF9188
:10120000EF91BF91AF919F918F917F916F915F917E
:101210004F913F912F910F900FBE0F901F901895F7
:101220008EBD0DB407FEFDCF08958091C00080787B
:101230000895FC015381505182814AE0849FC0018E
:101240001124580F74816581309191032091B70367
:10125000230F20518181280F8081849FC001112498
:10126000280F209334048091BB0337FF02C0581B22
:1012700001C0580F5093580460518AE0789FC00114
:101280001124680F6093760481E08093B40308957D
:10129000FC014181405180815AE0859FC0011124A9
:1012A000480F338130518281859FC0011124380F4E
:1012B000258120518481859FC0011124280F4093EE
:1012C0007403309373032093750381E08093B50317
:1012D000089581E0809364041092C3031092C203C6
:1012E00088EC90E0909378048093770410926304E4
:1012F0001092620482E090E090935F0480935E0419
:1013000010926A04109269048091690490916A04B1
:101310009093C1038093C0030895982F80915A043D
:10132000882361F080915D04891741F4809136042F
:10133000861721F4442311F40E9469090895CF927D
:10134000DF92EF92FF920F931F93782FE62FF22EEA
:10135000C02EDE2CF0E0EE0FFF1FEF56FC4F808119
:101360009181840F911D8C0120E030E0472F50E0E7
:10137000CA0183709070892B31F4872F64E60E9434
:10138000E91D992339F4CA0160E971E00E94161E33
:10139000892B21F40F5F1F4F2F4F3F4FC901B80119
:1013A00020E831E541E050E00E94CA1D4F2D50E099
:1013B00020E13EE0429F7001439FF00C529FF00CF1
:1013C00011240027F7FC0095102FED0CF11C011DD6
:1013D000111D2CE3C29E90011124442737FD409536
:1013E000542FE20EF31E041F151FE60EF71E081FF2
:1013F000191FB701C8011F910F91FF90EF90DF9067
:10140000CF900895DF92EF92FF920F931F93182FC2
:10141000062FF42ED22EE82FF0E0EE0FFF1FEF562E
:10142000FC4FE0808091750390E083709070892B71
:1014300019F4123009F4E39480917503612F41E0AF
:101440000E945903081718F0602F681B03C0602F13
:10145000681B695F87E0F89EC0011124482F465041
:10146000460F01C04750E416E8F380917503612FE1
:101470002D2D00E0EE240E949F091F910F91FF90F7
:10148000EF90DF900895682F4091B7038091B703E4
:10149000992787FD9095262F30E082179307C9F092
:1014A000809168048130A9F46093B703809134047B
:1014B000962F941B980F909334048DE190E00E9436
:1014C000A21E6091340484E090E00E94A21E10925B
:1014D000680408955F926F927F928F929F92AF926D
:1014E000BF92CF92DF92EF92FF920F931F93FC0176
:1014F00014810581F680E78050848081618142817A
:1015000023810E94020A3B014C01812F602F4F2D45
:101510002E2D0E94020A5B016C018091750360917F
:101520007303409174032091340400915804E090B7
:1015300076040E949F096A147B048C049D045CF469
:10154000661577058805990594F06A157B058C0565
:101550009D056CF40AC06A157B058C059D052CF46D
:10156000661577058805990514F4852D01C080E07E
:101570000E94430A1F910F91FF90EF90DF90CF9050
:10158000BF90AF909F908F907F906F905F900895E5
:10159000809176048C3354F0809176048C53809340
:1015A0007604809158048F5F80935804809176046C
:1015B00087FF0AC080917604845C809376048091D2
:1015C0005804815080935804809158048C3354F00F
:1015D000809158048C5380935804809134048F5F19
:1015E000809334048091580487FF0AC08091580486
:1015F000845C809358048091340481508093340437
:10160000809176048823A1F480915804882381F482
:101610008091B803882361F46091340484E090E001
:101620000E94A21E6091580485E090E00E94A21ED4
:1016300080913404883184F08091340488518093FF
:101640003404809174038F5F8093740360917403FA
:1016500083E090E00E94A21E8091340487FF10C0B6
:1016600080913404885E80933404809174038150A7
:10167000809374036091740383E090E00E94A21E43
:1016800080917403803268F5809174038F3181F406
:1016900080917303843029F180917303863009F1BE
:1016A000809173038930E9F0809173038B30C9F026
:1016B000809174038E3121F480917303823089F01C
:1016C000809174038D31D9F4809173038230B9F421
:1016D0008091750390E08053984F0E94FC0188230D
:1016E00071F481E080937403809173038F5F809322
:1016F00073036091730382E090E00E94A21E8091C8
:101700007403882309F047C0809173038630D1F0B9
:10171000873060F4833029F1843018F4813090F1FF
:1017200011C0843079F0853069F510C08A3018F422
:10173000883040F40BC08B3029F08B3038F08C307F
:1017400009F504C080917403815E03C08091740325
:10175000825E80937403809173038150809373033E
:1017600014C08091750390E08053984F0E94FC0153
:10177000882321F080917403835EEBCF8091740302
:10178000845EE7CF81E0809374036091730382E00D
:1017900090E00E94A21E809173038D3070F08091C2
:1017A00075038F5F8093750381E08093730360916D
:1017B000750381E090E00E94A21E8091730388234C
:1017C000B1F480917303845F8093730380917503F8
:1017D0008150809375036091750381E090E00E94D1
:1017E000A21E6091730382E090E00E94A21E80918D
:1017F00076048823E9F480915B04813229F486E73A
:1018000093E00E946A0A09C080915B04813019F458
:101810008093B70302C01092B703809158048823C5
:1018200039F480913404882319F481E080936804AA
:1018300008958091B6038823C9F08091440490E014
:1018400080519240209143044AE0249F900111244A
:10185000820F931F0B9754F08DE694E00E941909B4
:101860008FE394E00E9448090E94C80A08951F92DD
:101870000F920FB60F9211242F933F934F935F93C4
:101880006F937F938F939F93AF93BF93EF93FF9348
:1018900080E88093610010926100809176048F5FF0
:1018A000809376040E94C80A809158048823B9F472
:1018B00080917604882321F48091CB03815805C060
:1018C00080917604813019F48FE78093B300809182
:1018D0007604823024F48091B60083FDFCCF8091A1
:1018E000B303882309F088C08091B9039091BA03AB
:1018F0008530910528F401969093BA038093B9033B
:1019000080916704882399F58091B403882339F482
:101910008091760480FF03C088E592E010C080913A
:10192000B803882379F08091B9039091BA030597A1
:1019300048F08091760480FF05C081E692E00E9425
:10194000100508C0809134046091580440917604D9
:101950000E94AD0380915A04882321F080914E04A7
:10196000826003C080914E048D7F80934E048091ED
:10197000B403882341F0809134046091580440916D
:1019800076040E948D098091AF03813029F4809103
:101990007A00806480937A008091CA03882329F0BA
:1019A0008091CA0381508093CA038091C903882320
:1019B00029F08091C90381508093C9038091C203AB
:1019C0009091C3030097C1F09C01215030403093A7
:1019D000C3032093C20320FF06C080914E0482609F
:1019E00080934E0409C080914E048D7F80934E04F5
:1019F000232B11F40E946909FF91EF91BF91AF91E0
:101A00009F918F917F916F915F914F913F912F9116
:101A10000F900FBE0F901F9018950F931F938AE0A1
:101A20008093CA0310E00AE08091C703882321F461
:101A30008091C803882319F00093CA0304C08091E1
:101A4000CA038823B1F08091C70380FD41C0809113
:101A5000C70381FF11C01092C703112321F40E9414
:101A60006F061EE009C06091B00380E290E00E9422
:101A7000A21E109267042CC08091C70382FD04C08F
:101A80008091C80382FFD0CF1092C7031E3069F443
:101A90008091B0038F5F8093B0038091B003893051
:101AA00010F01092B0030E946F068091C80382FF6D
:101AB000BBCF0E94150278941092C5031092C40304
:101AC0008091C4039091C50384369105C8F3ACCFCF
:101AD0001F910F910895EF92FF920F931F93CF9351
:101AE000DF938C01FF24C4E1D0E0EE24E394F801FD
:101AF0008081882341F0F394FE01EE59FC4FCE0122
:101B000060810E94A21EFF2031F0E092680486E707
:101B100093E00E946A0A0F5F1F4F2196CD31D105D5
:101B200031F7DF91CF911F910F91FF90EF900895C2
:101B3000CF92DF92EF92FF920F931F93DF93CF9399
:101B4000CDB7DEB729970FB6F894DEBF0FBECDBF75
:101B50008AE08093CA03FE01319689E0DF011D927D
:101B60008A95E9F700E010E05AE0C52E7F01DD24F8
:101B7000D3948091C703882321F48091C8038823DC
:101B800019F0C092CA030BC08091CA03882339F4AC
:101B9000CE0101960E946B0D1092670460C0809187
:101BA000C70380FD1DC08091C70381FF1EC0109236
:101BB000C703002349F48AE692E00E941005812FB2
:101BC0000E94E9010DE011C00D3041F41F5F193092
:101BD00008F010E0812F0E94E90107C0109267040D
:101BE000CE0101960E946B0D3AC08091C70382FD21
:101BF00004C08091C80382FFBCCF1092C7030D3090
:101C0000D9F4A12FB0E09D012A583C4FF901808101
:101C10008F5F8083FD01E857FC4F9081981730F467
:101C2000FD01E158FC4F8081F9018083AE0DBF1D9D
:101C3000DC92812F0E94E9018091C80382FF99CF35
:101C40000E94150278941092C5031092C4038091EB
:101C5000C4039091C5038B349105C8F38ACF2996AC
:101C60000FB6F894DEBF0FBECDBFCF91DF911F91AD
:101C70000F91FF90EF90DF90CF900895DF92EF9259
:101C8000FF920F931F938AE08093CA0300E07AE0EB
:101C9000D72EFF24F39461E2E62E8091C7038823B8
:101CA00021F48091C803882319F0D092CA0304C09C
:101CB0008091CA03882381F08091C70380FD58C0BA
:101CC0008091C70381FF0BC01092C703002321F44A
:101CD0000E94E00607E003C01092670449C08091AB
:101CE000C70382FFDACF1092C7030730B1F6109115
:101CF0005B04113059F4E0925B041093680486E7AA
:101D000093E00E946A0A1093680429C080915B04E2
:101D1000813261F410925B048091B7031816FCF4D1
:101D20001092B7038091340481500BC0F0925B0491
:101D30008091B703882399F4F092B703809134041B
:101D40008F5F809334046091B7038DE190E00E942F
:101D5000A21E6091340484E090E00E94A21E0E94C2
:101D6000E00660915B048FE090E00E94A21E95CF98
:101D70001F910F91FF90EF90DF9008950F931F93A5
:101D80008AE08093CA0310E00AE08091C7038823A9
:101D900021F48091C803882319F00093CA0305C079
:101DA0008091CA03882309F44AC08091C70380FD4B
:101DB00065C08091C70381FF45C01092C7031123FE
:101DC00021F40E94F30615E03DC01530B1F483E71D
:101DD00092E00E941005409165045091660481E0F4
:101DE00064E00E946B01409160045091610486E0C0
:101DF00063E00E946B0113E025C01330D1F48091A1
:101E0000AF03813029F480917A00806480937A0056
:101E1000409165045091660481E064E00E946B018A
:101E2000409160045091610486E063E00E946B0180
:101E300009C06091AF0381E190E00E94A21E109260
:101E400067041CC08091C70382FF9FCF1092C70315
:101E5000153009F09ACF8091AF03813019F41092B8
:101E6000AF0303C081E08093AF030E94F30660914B
:101E7000AF0381E190E00E94A21E87CF1F910F91D6
:101E800008950F931F938AE08093CA0310E00AE03D
:101E90008091C703882321F48091C803882319F017
:101EA0000093CA0304C08091CA038823B1F08091D3
:101EB000C70380FD49C08091C70381FF17C01092FE
:101EC000C703112351F488E792E00E941005809126
:101ED00057040E944C0311E009C0109267046091FE
:101EE000570489E090E00E94A21E2EC08091C70393
:101EF00082FD04C08091C80382FFCACF1092C7033D
:101F0000113079F4809157048B5F8093570480914E
:101F100057048B3510F000935704809157040E94AA
:101F20004C038091C80382FFB3CF0E9415027894BE
:101F30001092C5031092C4038091C4039091C5030D
:101F40008B349105C8F3A4CF1F910F910895FF9290
:101F50000F931F938AE08093CA0310E0EAE0FE2EFD
:101F600001E08091C703882321F48091C80388236E
:101F700019F0F092CA0304C08091CA038823B1F01B
:101F80008091C70380FD2FC08091C70381FF11C0DE
:101F90001092C703112321F40E9412071AE009C00E
:101FA0006091BD038FE190E00E94A21E1092670431
:101FB0001AC08091C70382FFD4CF1092C7031A3092
:101FC00081F68091BD03882319F01092BD0302C0F1
:101FD0000093BD030E9412076091BD038FE190E062
:101FE0000E94A21EBECF1F910F91FF900895FF92F5
:101FF0000F931F938AE08093CA0310E0FAE0FF2E4C
:1020000001E08091C703882321F48091C8038823CD
:1020100019F0F092CA0307C08091CA03882319F40B
:102020001092670401C18091C70380FDFDC08091BB
:10203000C70381FF83C01092C7031123A9F48091C5
:10204000AE03882311F012E001C011E080E00E948D
:10205000380580914F04816080934F048091500433
:102060008160809350046AC0113029F48091AE03DE
:10207000882339F020C01230E1F48091AE03813022
:10208000A9F48091AE03882311F011E001C012E0A1
:1020900080E00E9438058091520481608093520450
:1020A0008091530481608093530448C0882339F0A1
:1020B00015C0113099F48091AE03813079F480E03D
:1020C0000E94380580915504816080935504809169
:1020D000560481608093560413E030C083E68093F9
:1020E000670480E00E94380578941092C50310922E
:1020F000C4038091C4039091C5038C5D9540C8F3DF
:102100001092670411E01093680486E793E00E9440
:102110006A0A109368046091750381E090E00E9460
:10212000A21E6091730382E090E00E94A21E609163
:10213000740383E090E00E94A21E76C08091C703E2
:1021400082FD04C08091C80382FF5BCF1092C70359
:10215000113099F4809173038F5F809373038091A2
:1021600073038D3010F01093730380E00E943805E4
:102170008091AE03882301F514C0123041F580919F
:1021800074038F5F8093740380917403803210F026
:102190000093740380E00E9438058091AE03813083
:1021A00059F480914F04816080934F0480915004D2
:1021B00081608093500426C0809152048160809396
:1021C0005204809153048160809353041BC01330E8
:1021D000C9F4809175038F5F8093750380917503B7
:1021E00064E60E94E91D9093750380E00E94380523
:1021F00080915504816080935504809156048160DC
:10220000809356048091C80382FFFBCE0E94150282
:1022100078941092C5031092C4038091C4039091E6
:10222000C503CC97D0F3EDCE1F910F91FF90089589
:10223000DF92EF92FF920F931F9300913404E0908E
:102240005804F09076048AE08093CA0310E0AAE074
:10225000DA2E8091C70380FDECC08091C7038823EC
:1022600021F48091C803882319F0D092CA0307C0D3
:102270008091CA03882319F410926704DAC0809110
:10228000C70381FF67C01092C7031123B9F40091FF
:102290003404E0905804F0907604802F6E2D4F2D7A
:1022A0000E94AD0380914F04816080934F04809120
:1022B000500481608093500411E04CC0113089F4C7
:1022C000802F6E2D4F2D0E94AD03809152048160AE
:1022D000809352048091530481608093530412E0F0
:1022E00039C0123089F4802F6E2D4F2D0E94AD031E
:1022F00080915504816080935504809156048160DB
:102300008093560413E026C000933404E0925804EE
:10231000F09276041092670411E01093680486E747
:1023200093E00E946A0A1093680400933404609159
:10233000340484E090E00E94A21E6091580485E07D
:1023400090E00E94A21E6091760486E090E00E94D8
:10235000A21E6FC08091C70382FD04C08091C80394
:1023600082FF77CF1092C7031130C9F4802F90E01D
:10237000019668E170E00E94161E082F6E2D4F2D09
:102380000E94AD0380914F04816080934F0480913F
:1023900050048160809350040093340437C012309D
:1023A000D1F48E2D90E001966CE370E00E94161E31
:1023B000E82E802F6E2D4F2D0E94AD038091520488
:1023C0008160809352048091530481608093530410
:1023D000E09258041BC01330C9F48F2D90E0019691
:1023E0006CE370E00E94161EF82E802F6E2D4F2D8C
:1023F0000E94AD03809155048160809355048091C3
:102400005604816080935604F09276048091C8034C
:1024100082FF1FCF0E94150278941092C50310927C
:10242000C4038091C4039091C5038B349105C8F314
:1024300010CF1F910F91FF90EF90DF900895EF92D2
:10244000FF920F931F9310915D04009136048AE070
:102450008093CA03FF248AE0E82E8091C70380FDA1
:10246000B1C08091C703882321F48091C8038823D9
:1024700019F0E092CA0317C08091CA03882399F427
:102480001092670410935D040093360460915D041C
:1024900087E090E00E94A21E6091360488E090E000
:1024A0000E94A21E8FC08091C70381FF3CC0109282
:1024B000C703FF2089F4812F602F0E947E04809142
:1024C0004F04816080934F04809150048160809319
:1024D0005004FF24F39427C081E0F81689F4812F7B
:1024E000602F0E947E048091520481608093520488
:1024F00080915304816080935304B2E0FB2E13C09B
:1025000010935D040093360460915D0487E090E0D1
:102510000E94A21E6091360488E090E00E94A21EF4
:10252000109267044FC08091C70382FD04C0809160
:10253000C80382FF92CF1092C70381E0F816B1F46E
:10254000812F90E0019668E170E00E94161E182F1E
:10255000602F0E947E0480914F04816080934F041D
:102560008091500481608093500419C082E0F81675
:10257000B1F4802F90E001966CE370E00E94161E8B
:10258000082F812F602F0E947E0480915204816069
:10259000809352048091530481608093530480910E
:1025A000C80382FF5ACF0E94150278941092C50387
:1025B0001092C4038091C4039091C5038B3491059C
:1025C000C8F34BCF1F910F91FF90EF9008951F928A
:1025D0000F920FB60F9211242F933F934F935F9357
:1025E0006F937F938F939F93AF93BF93EF93FF93DB
:1025F00000B605FE4AC08091B303882309F04EC09F
:102600005B9A85B1877D85B95E988CB58F7B8CBDD3
:102610008091B4038823B9F06091340484E090E0A1
:102620000E94A21E6091580485E090E00E94A21EC4
:102630006091760486E090E00E94A21E80ED97E013
:1026400061E00E9491028091B5038823B9F0609106
:10265000750381E090E00E94A21E6091730382E006
:1026600090E00E94A21E6091740383E090E00E94BB
:10267000A21E80ED97E062E00E94910215BC1092CC
:102680004C0410926800459804C08091B3038823DD
:1026900029F0E091AC03F091AD030995FF91EF9122
:1026A000BF91AF919F918F917F916F915F914F916A
:1026B0003F912F910F900FBE0F901F9018950F9381
:1026C0001F93DF93CF930F92CDB7DEB78091C600F3
:1026D000898300ED13E0F80101900020E9F73197BC
:1026E000E01BF10BEE2321F4843209F004C105C094
:1026F000E33608F0F9C08D3051F080ED93E0BE0173
:102700006F5F7F4F41E050E00E947C1EF4C0C80123
:102710006FE772E00E94661EC80161E872E047E060
:1027200050E00E948C1E009709F0DEC00F5F1F4F23
:1027300010936C0400936B0410925C040AC08091A7
:102740005C04892780935C043196F0936C04E093D9
:102750006B04E0916B04F0916C0490819A3279F7EC
:10276000818192818A3310F0875301C080539A335C
:1027700010F0975301C090538295807F890F80930A
:10278000590490915C04981709F0AEC080ED93E075
:102790006CE270E00E94711E90936C0480936B0455
:1027A000ADE6B4E0FC01319686E001900D928150D7
:1027B000E1F71092730480916B0490916C04019680
:1027C0006CE270E00E94711EFC0190936C04809397
:1027D0006B049C012F5F3F4F81818093750481348E
:1027E00009F082C01092BA031092B903C9016CE2D9
:1027F00070E00E94711EFC0190936C0480936B0446
:1028000081819281A381B48180934604909347048F
:10281000A0934804B09349048681978190934B0418
:1028200080934A04CF0101966CE270E00E94711E11
:10283000FC0190936C0480936B0481818093370436
:10284000CF0101966CE270E00E94711E90936C04BF
:1028500080936B04A8E3B4E0FC01319685E001901D
:102860000D928150E1F7E0916B04F0916C04878147
:10287000908590933E0480933D04CF0101966CE2D5
:1028800070E00E94711EFC0190936C0480936B04B5
:10289000818180933504CF0101966CE270E00E9443
:1028A000711E90936C0480936B0401966CE270E04F
:1028B0000E94711E90936C0480936B0401966CE2ED
:1028C00070E00E94711E90936C0480936B04AFE3E0
:1028D000B4E0FC01319686E001900D928150E1F761
:1028E000109245040E94190C84E6E0EDF3E0DF014C
:1028F0001D928A95E9F70F90CF91DF911F910F916B
:1029000008958AE090E00E949A1E80934C0485B15D
:10291000866085B982E38093800080914C0488238F
:1029200029F08091800080688093800088E1809306
:1029300081008AEF90E090938700809386008091D9
:102940008600909187009695879590938900809353
:102950008800809188009091890090938B008093EB
:102960008A00089581E090E00E949A1E64E60E9429
:10297000E91D9093750382E090E00E949A1E6DE03D
:102980000E94E91D9093730383E090E00E949A1ED9
:102990008F718093740380E00E94380564EF71E0CA
:1029A00080E090E00E94A60084E090E00E949A1EE1
:1029B00068E10E94E91D9093340485E090E00E9454
:1029C0009A1E6CE30E94E91D9093580486E090E003
:1029D0000E949A1E6CE30E94E91D909376048091F8
:1029E000340460915804409176040E94AD0364EF72
:1029F00071E080E090E00E94A60088E090E00E94F4
:102A00009A1E6CE30E94E91D9093360487E090E0E3
:102A10000E949A1E68E10E94E91D90935D0481E086
:102A20008093B6038EE190E00E949A1E8093CB03C0
:102A3000805C813838F01092CB038EE190E060E04A
:102A40000E94A21E80E28093B6001092B2008FE72F
:102A50008093B30092E09093B00086E08093B10041
:102A60009093700078940895FF920F931F938AE0DB
:102A70008093CA038CE090E00E949A1E182F00E019
:102A80003AE0F32E8091C703882321F48091C80394
:102A9000882319F0F092CA0304C08091CA038823E6
:102AA000E9F08091C70380FD45C08091C70381FF95
:102AB00018C01092C703002361F489E892E00E94D5
:102AC000100581E0612F70E041E00E94C0010FE03D
:102AD00008C08CE090E0612F0E94A21E1092670453
:102AE00029C08091C70382FD04C08091C80382FF82
:102AF000C9CF1092C7030F3051F41F5F143608F08E
:102B000010E081E0612F70E041E00E94C0018091FF
:102B1000C80382FFB7CF0E94150278941092C503B4
:102B20001092C4038091C4039091C5038B34910526
:102B3000C8F3A8CF1F910F91FF900895FF920F93B4
:102B40001F938AE08093CA038EE190E00E949A1E50
:102B5000182F8093CB0300E04AE0F42E8091C70346
:102B6000882321F48091C803882319F0F092CA03C6
:102B700007C08091CA03882319F41093CB031EC0A9
:102B80008091C70380FD45C08091C70381FF19C0B4
:102B90001092C703002359F482E992E00E941005C5
:102BA00086E0612F41E00E94940108E00AC0109382
:102BB000CB038EE190E0612F0E94A21E1092670469
:102BC0002AC08091C70382FD04C08091C80382FFA0
:102BD000C5CF1092C703083049F41F5F10340CF0C2
:102BE00010EC86E0612F41E00E9494018091C803BF
:102BF00082FFB4CF0E94150278941092C503109200
:102C0000C4038091C4039091C5038B349105C8F32C
:102C1000A5CF1093CB031F910F91FF9008950F93B1
:102C20001F938AE08093CA038BE090E00E949A1E73
:102C30008093AE0310E00AE001C010E08091C7036A
:102C4000882321F48091C803882319F00093CA03D4
:102C500004C08091CA03882381F08091C70380FD5E
:102C600028C08091C70381FF0BC01092C7031123B6
:102C700021F40E94B20611E003C01092670419C04B
:102C80008091C70382FFDACF1092C7031130A9F6F3
:102C900090E08091AE03882309F491E09093AE0315
:102CA0000E94B2068BE090E06091AE030E94A21EEB
:102CB000C5CF1F910F910895FF920F931F938AE044
:102CC0008093CA038AE090E00E949A1E082F10E0C9
:102CD0005AE0F52E01C010E08091C703882321F44B
:102CE0008091C803882319F0F092CA0304C0809130
:102CF000CA03882381F08091C70380FD2BC0809197
:102D0000C70381FF0BC01092C703112321F40E9457
:102D1000BE0611E003C0109267041CC08091C70377
:102D200082FFDACF1092C7031130A9F680E00023AA
:102D300009F481E0082F8AE090E0602F0E94A21E33
:102D40000E94811480EA9FE061E00E9491020E944B
:102D5000BE06C2CF1F910F91FF900895FF920F936F
:102D60001F938AE08093CA0382E190E00E949A1E3A
:102D700080934D0483E190E00E949A1E8093740436
:102D80001092AF0310E00AE062E3F62E8091C703D1
:102D9000882321F48091C803882319F00093CA0383
:102DA00007C08091CA03882319F41092670430C0C9
:102DB0008091C70380FD2CC08091C70381FF2FC085
:102DC0001092C703112351F489E992E00E94100583
:102DD00080914D040E944C0311E021C0113051F448
:102DE00080EA92E00E941005809174040E944C03D6
:102DF00012E015C01092670460914D0482E190E0EA
:102E00000E94A21E6091740483E190E00E94A21EC1
:102E100081E08093AF031F910F91FF9008958091FF
:102E2000C70382FD04C08091C80382FFAFCF109218
:102E3000C703113071F480914D048E5F80934D046F
:102E400080914D04833310F000934D0480914D0424
:102E50000FC0123079F4809174048B5F80937404F6
:102E6000809174048B3510F0F09274048091740496
:102E70000E944C038091C80382FF88CF0E941502F4
:102E800078941092C5031092C4038091C40390916A
:102E9000C5038B349105C8F379CFCF93DF9380E0DE
:102EA00090E00E949A1E813009F48AC080E090E090
:102EB00061E00E94A21E81E090E06BE00E94A21EF1
:102EC00082E090E061E00E94A21E83E090E061E079
:102ED0000E94A21E84E090E060E00E94A21E85E0B5
:102EE00090E060E00E94A21E86E090E060E00E9418
:102EF000A21E87E090E06AE00E94A21E88E090E0B7
:102F000060E00E94A21E89E090E062E30E94A21E9F
:102F10008AE090E060E00E94A21E8BE090E060E01A
:102F20000E94A21E8CE090E06AE00E94A21E8DE04A
:102F300090E068EF0E94A21E8EE090E060E00E94A8
:102F4000A21E8FE090E060E00E94A21E80E190E06F
:102F500060E00E94A21E82E190E06AE00E94A21E50
:102F600083E190E06AE50E94A21E81E190E060E0CA
:102F70000E94A21EC4E1D0E0FE01EE59FC4FCE013A
:102F800060810E94A21E2196CD31D105A9F78DE165
:102F900090E060E00E94A21E80E290E060E00E946B
:102FA000A21E8EE190E060E00E94A21E8FE190E000
:102FB00060E00E94A21E88EB9BE062E00E9491020A
:102FC000DF91CF9108958CE090E00E949A1E9CE3DF
:102FD000899FC00111249093C3038093C20387EAA1
:102FE00092E00E94100583E6809367047894109223
:102FF000C5031092C4038091C4039091C5038C5DF6
:103000009540C8F31092670408951F920F920FB66F
:103010000F9211242F933F934F935F936F937F935E
:103020008F939F93AF93BF93EF93FF9310926B0097
:103030007894189925C08091C60381FD26C07894A4
:103040001092C5031092C4038091C4039091C503EC
:103050000A97D0F3189919C00E9415028091640450
:10306000882319F00E94E31710C08091C603826084
:103070008093C6038091C70382608093C70305C015
:103080008091C6038D7F8093C60381E080936B009F
:10309000FF91EF91BF91AF919F918F917F916F9130
:1030A0005F914F913F912F910F900FBE0F901F9006
:1030B00018951F920F920FB60F9211242F933F93E2
:1030C0004F935F936F937F938F939F93AF93BF9330
:1030D000EF93FF9310926D007894A8954D9922C0BC
:1030E0008091C60380FD23C078941092C50310928E
:1030F000C4038091C4039091C5030A97D0F34D99FE
:1031000059C00E941502809164048823A1F5809122
:10311000C60381608093C6038091C703816080935A
:10312000C70305C08091C6038E7F8093C6034C9968
:103130003AC08091C60382FD3DC078941092C503C9
:103140001092C4038091C4039091C5030A97D0F3F1
:103150004C9930C00E94150282E08093C90314C0CC
:103160004C9B12C08091C6038B7F8093C6038091D5
:103170006404882319F00E94E3171CC08091C703E0
:1031800084608093C70316C08091C903882341F7E8
:103190008091C60384608093C6038091C8038460D5
:1031A0008093C80307C01092C8038091C6038B7F29
:1031B0008093C60380E380936D00FF91EF91BF91F0
:1031C000AF919F918F917F916F915F914F913F91BF
:1031D0002F910F900FBE0F901F901895FF920F9395
:1031E0001F938AE08093CA0310E07AE0F72E02E092
:1031F0008091C703882321F48091C803882319F0A4
:10320000F092CA0307C08091CA03882319F4109270
:1032100067045DC08091C70380FD59C08091C703DA
:1032200081FF2DC01092C703812F90E0019666E0C8
:1032300070E00E94161E182F8230A1F0833028F40F
:10324000882351F08130D9F40AC0843099F0843059
:1032500070F08530A1F411C080EB92E005C00E94AF
:10326000FF060DC089EB92E00E94100508C00E9485
:10327000230105C082EC92E0F7CF0E9448018091C3
:10328000C70382FFB5CF1092C703113009F0B0CF4A
:103290008091B803882329F41093B80387E690E05F
:1032A00008C08091B803813039F40093B80384E3F7
:1032B00090E00E948A1C02C01092B8030E94FF0690
:1032C0006091B80380E190E00E94A21E91CF1F910F
:1032D0000F91FF900895EF92FF920F931F9310911B
:1032E00091030091BB038AE08093CA03FF24FAE0B4
:1032F000EF2E8091C70380FDAAC08091C703882369
:1033000021F48091C803882319F0E092CA0304C015
:103310008091CA03882369F18091C70381FF2CC083
:103320001092C703FF2089F4812F602F0E94E004D0
:1033300080914F04816080934F048091500481609C
:1033400080935004FF24F39417C081E0F81689F4A9
:10335000812F602F0E94E00480915204816080934D
:10336000520480915304816080935304E2E0FE2E66
:1033700003C0109267046BC08091C70382FD04C034
:103380008091C80382FFB5CF1092C70381E0F81681
:1033900059F5812F992787FD90950D9669E170E089
:1033A0000E94161E182F1C50812F602F0E94E004CF
:1033B00080914F04816080934F048091500481601C
:1033C00080935004109391038DE090E0612F0E9450
:1033D000A21E8BEC92E00E94CD1C812F992787FDC5
:1033E00090950E94201D20C082E0F816E9F4802FFD
:1033F00090E001966CE370E00E94161E082F812F6A
:10340000602F0E94E00480915204816080935204F6
:10341000809153048160809353040093BB038EE03A
:1034200090E0602F0E94A21E8091C80382FF61CFAE
:103430000E94150278941092C5031092C4038091E3
:10344000C4039091C5038B349105C8F352CF1F91EB
:103450000F91FF90EF9008951F93CF93DF9315BCCA
:10346000569A5E9884B714BE90E00E94031D88E1CE
:103470000FB6F89480936000109260000FBE2FE0AA
:1034800088E190E00FB6F894A895809360000FBE95
:1034900020936000A8951092B4038091B4038093A8
:1034A000B503109268041092B60387E690E00E947C
:1034B0008A1C88E480BF61E070E080E090E00E94B8
:1034C000A60000B605FE06C080B7806180BF0E94DE
:1034D000B214CFC00E9410015B9881E08093690014
:1034E0008DBB1092670481E58CBD82E190E00E9463
:1034F0009A1E80934D0483E190E00E949A1E80936F
:10350000740489E090E00E949A1E8093570481E140
:1035100090E00E949A1E8093AF038091AF038130A8
:1035200019F48091740402C0809157040E94D4025F
:1035300078948DE090E00E949A1E80939103845FBE
:10354000893110F0109291038EE090E00E949A1E53
:103550008093BB038D3310F01092BB030E94811443
:103560000E944D170E9496028BE090E00E949A1EE6
:103570008093AE038FE090E00E949A1E80935B04DC
:1035800080915B048132C9F484E190E00E949A1E2C
:10359000882399F0C4E1D0E0CE010E949A1EFE017A
:1035A000EE59FC4F80832196CD31D105A9F78DE1ED
:1035B00090E00E949A1E8093B70380E190E00E9401
:1035C0009A1E8093B8038091B803813019F487E67E
:1035D00090E006C08091B803823021F484E390E04B
:1035E0000E948A1C80E290E00E949A1E8093B003A1
:1035F0008FE190E00E949A1E8093BD038091BD03ED
:10360000823010F01092BD0383E68093670484EE4D
:1036100092E00E94100580EC9DE061E044E650E0FD
:103620000E94460264EF71E080E090E00E94A600F4
:103630000E94B214A89580EC9DE061E044E650E061
:103640000E94460288E592E00E941005789410924C
:10365000C5031092C4038091C4039091C503883CB4
:103660009105C8F31092670481E0809368040E947A
:10367000160613E6A89500B605FE03C00E94E300F7
:10368000F9CF8091C70380FFC1C01092C70380911A
:103690006704833651F08091670490E0019661E100
:1036A00070E00E94161E8093670480916704883042
:1036B00009F474C08930A0F4843009F442C0853024
:1036C00040F4823069F1833090F5813009F0BDC05B
:1036D00020C0863009F454C0873008F082C049C049
:1036E0008C3009F462C08D3038F48A3009F487C018
:1036F0008B3008F06FC036C08E3009F45DC08E305C
:1037000008F476C08F3009F45EC0803109F09DC0A6
:1037100022C084EE92E00E9410050E941E0795C010
:103720008DEE92E00E9410050E941F128EC086EF5F
:1037300092E00E9410050E94181181E08093B4036A
:1037400084C08FEF92E00E9410050E94F70F81E085
:103750008093B5037AC088E093E00E9410050E9430
:103760006B1973C080EB92E00E9410050E94EE1866
:103770006CC081E193E00E9410050E94BE0E65C0FE
:103780008AE193E00E9410058091AF03882319F02D
:103790000E94AE165AC00E94410F57C083E293E0C8
:1037A0000E9410050E949E1550C08CE293E00E947A
:1037B00010050E940F1649C085E393E00E94100592
:1037C0000E940D0D42C08EE393E00E9410050E94FE
:1037D00034153BC087E493E00E9410050E945C16FC
:1037E00034C080E593E00E9410050E943E0E2DC07B
:1037F00089E593E00E9410050E94980D26C082E69C
:1038000093E00E9410050E94A70F1FC08091C7037C
:1038100081FD04C08091C70382FF17C01092C703C7
:103820001093670481E00E943805A895789410925F
:10383000C5031092C4038091C4039091C503885EB0
:103840009340C8F3A895109267048091B803882329
:1038500009F410CF8091C00087FF0CCF0E945F1346
:1038600009CF1F920F920FB60F9211242F933F93FF
:103870004F935F936F937F938F939F93AF93BF9378
:10388000EF93FF931DBA89E60E94971C29B17894A3
:1038900078941092C5031092C4038091C403909150
:1038A000C5030A97D0F389B1247030E090E08470AA
:1038B00090702817390711F40E94160681E08DBB1D
:1038C000FF91EF91BF91AF919F918F917F916F91F8
:1038D0005F914F913F912F910F900FBE0F901F90CE
:1038E000189506C090E000009F5F9E31E1F781507F
:1038F0008823C1F7089548EC50E009C020E137E281
:10390000FA013197F1F721503040D1F781508823E7
:10391000A9F708959093C5008093C40088E180932F
:10392000C1008EE08093C200519A50980895982F5C
:103930008091C00085FFFCCF9093C60080E090E0AE
:1039400008958091C00087FFFCCF8091C600089544
:103950008091C00080780895AC0120E007C080917C
:10396000C00085FFFCCF3093C6002F5FFA01E20F45
:10397000F11D3491332399F7662371F08091C000D3
:1039800085FFFCCF8AE08093C6008091C00085FF50
:10399000FCCF8DE08093C6000895FC0107C08091A4
:1039A000C00085FFFCCF31969093C600908199238B
:1039B000B1F70895282F982F92959F709A3030F480
:1039C0008091C00085FFFCCF905D05C08091C00054
:1039D00085FFFCCF995A9093C600822F90E08F709C
:1039E00090700A973CF48091C00085FFFCCF2F7047
:1039F000205D06C08091C00085FFFCCF2F70295A42
:103A00002093C60008951F93182F892F0E94DA1C57
:103A1000812F0E94DA1C1F910895EF92FF920F935D
:103A20001F937B018C01C801AA27BB270E94031D9D
:103A3000C7010E94031D1F910F91FF90EF90089501
:103A40000F931F93CF93DF938C01E0E1F7E240E007
:103A5000C0E0D0E0C801BF010E94021E262F6623ED
:103A600029F4442319F4E130F10549F48091C000B0
:103A700085FFFCCF205D2093C600205341E0CF019D
:103A80006AE070E00E94021E2196C530D10571F0F7
:103A9000822F90E09C012E9FC0012F9F900D3E9F92
:103AA000900D1124081B190BFB01D4CFDF91CF918E
:103AB0001F910F9108954F925F926F927F928F9214
:103AC0009F92AF92BF92CF92DF92EF92FF920F93AD
:103AD0001F93CF93DF934B015C01E12C9AECF92EFD
:103AE0009AE9092F9BE3192F4424C0E0D0E0C501D7
:103AF000B401A80197010E94291ED22E222341F46D
:103B0000442031F481E0E816F1040105110561F467
:103B10008091C00085FFFCCF80E3D80ED092C60014
:103B200080EDD80E44244394C801B7012AE030E068
:103B300040E050E00E94291EC22E732E642E552EA6
:103B40002196CA30D105A9F06D2D70E080E090E09B
:103B5000A80197010E94CA1D861A970AA80AB90AE5
:103B60002C2D372D462D552DC901DA017C018D01F3
:103B7000BECFDF91CF911F910F91FF90EF90DF901B
:103B8000CF90BF90AF909F908F907F906F905F90FD
:103B90004F900895629FD001739FF001829FE00DC6
:103BA000F11D649FE00DF11D929FF00D839FF00DBC
:103BB000749FF00D659FF00D9927729FB00DE11D68
:103BC000F91F639FB00DE11DF91FBD01CF01112445
:103BD0000895991B79E004C0991F961708F0961B69
:103BE000881F7A95C9F78095089587FB082E0626C9
:103BF00087FD819567FD6195ECDF0EF4919507FCDB
:103C000081950895AA1BBB1B51E107C0AA1FBB1FCA
:103C1000A617B70710F0A61BB70B881F991F5A9558
:103C2000A9F780959095BC01CD01089597FB092EC9
:103C300007260AD077FD04D0E5DF06D000201AF46D
:103C4000709561957F4F0895F6F7909581959F4FF8
:103C50000895A1E21A2EAA1BBB1BFD010DC0AA1FCD
:103C6000BB1FEE1FFF1FA217B307E407F50720F0E5
:103C7000A21BB30BE40BF50B661F771F881F991F60
:103C80001A9469F760957095809590959B01AC01A9
:103C9000BD01CF01089597FB092E05260ED057FDD3
:103CA00004D0D7DF0AD0001C38F4509540953095E9
:103CB00021953F4F4F4F5F4F0895F6F790958095B0
:103CC000709561957F4F8F4F9F4F0895FB01DC01E9
:103CD0000D900020E9F7119701900D920020E1F777
:103CE0000895FC018191861721F08823D9F799273F
:103CF00008953197CF010895FB01DC010D9000205C
:103D0000E9F711974150504028F0019000200D92A2
:103D1000C9F708951C920895FB01DC014150504001
:103D200030F08D910190801919F40020B9F7881BAB
:103D3000990B0895F999FECF92BD81BDF89A992704
:103D400080B50895262FF999FECF1FBA92BD81BD87
:103D500020BD0FB6F894FA9AF99A0FBE019608950D
:043D6000F894FFCF05
:103D640073756E646179006D6F6E6461790074754A
:103D74006573646179007765646E65736479007452
:103D8400687572736461790066726964617900733D
:103D940061747572646179006A616E0066656200BF
:103DA4006D6172636800617072696C006D617900A5
:103DB4006A756E65006A756C790061756773740065
:103DC40073657074006F63746F62006E6F76656DF7
:103DD40000646563656D002032303030202020009F
:103DE400616C61726D206F6E002066756C6C2020B2
:103DF4002000206469616C31202000206469616CBA
:103E040032202000206469616C3320200020646922
:103E1400616C3420200020616D2D706D2020002005
:103E2400616D2D706D2E2000206E6F6E6520202038
:103E340000206E6F6E652E2020007573612D313267
:103E44006872006575722D3234687200766F6C206A
:103E54006869676800766F6C206C6F772000647304
:103E640074206175746F00647374206F6E20200079
:103E7400647374206F666620006164696D206F6EE0
:103E840020006164696D206F666600677073206F3F
:103E94006E343800677073206F6E39360067707344
:103EA400206F666620006F6E202038383838006F27
:103EB4006666203838383800202020202020202032
:103EC40000206E6F20677073200072756C6530205F
:103ED4003030006164632000627269746520002AD6
:103EE40000244750524D432C002020206D696E75EC
:103EF4007400647266742020006272746C6F200017
:103F040062727468692000736E6F6F7A696E6700FD
:103F1400736574206770732000677073206C61741C
:103F24002000677073206C6F6E67000A0D54696D12
:103F3400657A6F6E65206F666673657420686F7549
:103F4400723A09006963652074756265007365746B
:103F540020616C6172007365742074696D6500730F
:103F64006574206461746500736574207A6F6E658E
:103F740000736574206164696D00736574206272F6
:103F840069740073657420647266740073657420C8
:103F94007265676E0073657420736563730073657F
:103FA4007420736E6F7A0073657420766F6C2000D2
:103FB4007365742064737420007365742072756C67
:103FC4006500736574206C64626200313231303193
:103FD40032776D030E2F030102020B01010201016E
:103FE40001010001010100000C0507170C0507176A
:103FF40001F80800001F003B005A0078009700B544
:0C40040000D400F300110130014E010057
:00000001FF
